:020000040801F1
:1000000068F70020596D01080D1F01080F1F010836
:10001000131F0108171F01081B1F01080000000023
:100020000000000000000000000000001F1F010889
:10003000211F010800000000231F0108251F0108DF
:100040006F6D01086F6D01086F6D01086F6D01081C
:100050006F6D01086F6D01086F6D01086F6D01080C
:100060006F6D01086F6D01086F6D01086F6D0108FC
:100070006F6D01086F6D01086F6D01086F6D0108EC
:100080006F6D01086F6D01086F6D01086F6D0108DC
:10009000597A01086F6D01086F6D01081108010898
:1000A0006F6D0108252D01086F6D01086F6D010846
:1000B0006F6D01086F6D01086F6D01086F6D0108AC
:1000C0006F6D01086F6D01086F6D01086F6D01089C
:1000D0006F6D01086F6D01082D1F01086F6D01081C
:1000E0006F6D01086F6D01086F6D010800F002F877
:1000F00000F085F80AA090E8000C82448344AAF13D
:100100000107DA4501D100F07AF8AFF2090EBAE83A
:100110000F0013F0010F18BFFB1A43F0010318473B
:10012000E8D7010008D8010010F8013B0A4413F099
:10013000030408BF10F8014B1D1108BF10F8015B44
:10014000641E05D010F8016B641E01F8016BF9D133
:10015000002D15D010F8014B03F00C030C2BA1EB74
:1001600004040ABF10F8013BA4EB8314A4EB03249E
:1001700005F1010314F8016B5B1E01F8016BF9D561
:10018000914238BF10F8013BD1D3704700230024BF
:1001900000250026103A28BF78C1FBD8520728BF97
:1001A00030C148BF0B607047662918F0DE806429B3
:1001B00013F0A885752913F0A585632914F06385CC
:1001C000732914F06885002070471FB59DE803006F
:1001D00014F0C8FF14F0AAFF04000020002116F05C
:1001E0000BFE401C60600020002116F0EFFDE06077
:1001F00015F08EFA1FBD10B515F0F3FA10BD15F00D
:1002000023FB1146FFF7E1FF01F026FA15F04EFE41
:1002100003B4FFF7F0FF03BC07F050FDEFF30980D4
:10022000704780F309887047EFF30880704780F3C8
:100230000888704740BA7047C0BA704710B50028A8
:1002400007DA0A07140EFE4A00F00F031B1FD454EE
:1002500003E00A07130EFB4A135410BD10B5044601
:10026000B4F1807F01D3012010BD24F07F40401EF7
:100270004FF0E02148610F214FF0FF30FFF7DEFF24
:1002800000204FF0E0218861072008610020EBE7A3
:1002900010B506F04AFDEC480068401CEA490860C9
:1002A0000CF0B3FE03F0DCFCE8480068052802D13E
:1002B0000020E6490860E6480068401EE4490860FE
:1002C000E448008838B94FF47A70E2490880012088
:1002D000E149087004E0DF480088401EDD490880DD
:1002E000DE480068B0F57A7F0DD10020DB49086058
:1002F000DB480068401CDA490860DA480068401CA6
:10030000D849086004E0D5480068401CD34908601B
:10031000D34800681E2802D10020D1490860D14886
:100320000068D149884202D10020CE490860C74800
:100330000068401CC549086010BDCC48806940F089
:100340001000CA498861CA48406840F48030C849F2
:100350004860704700E0401E0028FCDC704710B584
:100360000446C4B1C148406800F00C00082824D0FD
:10037000BE48406820F00300BC4948600846406819
:1003800040F00200486000BFB848406800F00C0030
:100390000828F9D111E0B548406800F00C0060B1C0
:1003A000B248406820F00300B049486000BFAF4841
:1003B000406800F00C000028F9D11CB1AD48FFF7EF
:1003C0004DFF03E04FF4FA50FFF748FF10BD08B5AA
:1003D0000121052004F0ECFD0120ADF80000102003
:1003E0008DF8030003208DF802006946A24805F04D
:1003F00075F80220ADF8000000208DF80300694672
:100400009D4805F06BF80420ADF8000028208DF819
:1004100003006946984805F061F80820ADF800002F
:1004200010208DF803006946934805F057F8102016
:10043000ADF800008DF8030003208DF802001021B4
:100440008D4805F0F8F869468B4805F047F8E0203C
:10045000ADF8000018208DF8030003208DF802008D
:100460002021854805F0E7F88021834805F0E3F86E
:100470006946814805F032F84FF48070ADF800000D
:1004800048208DF8030069467B4805F027F80121D4
:10049000092004F08DFD0120ADF8000048208DF802
:1004A00003006946754805F019F80220ADF8000010
:1004B00048208DF803006946704805F00FF82020A9
:1004C000ADF8000010208DF8030003208DF8020025
:1004D00020216A4805F0AFF86946684804F0FEFF3D
:1004E0004020ADF8000010208DF8030003208DF8A7
:1004F000020000224021614805F0A1F869465F48EA
:1005000004F0ECFF8020ADF8000010208DF803000F
:1005100003208DF802008021584805F08CF86946C8
:10052000564804F0DBFF4FF48070ADF80000102057
:100530008DF8030003208DF802004FF480714F48BE
:1005400005F079F869464D4804F0C8FF4FF4007093
:10055000ADF8000010208DF8030003208DF8020094
:100560004FF40071454805F066F86946434804F0C9
:10057000B5FF4FF48060ADF8000048208DF803000F
:1005800069463E4804F0AAFF4FF40060ADF8000051
:1005900048208DF803006946384804F09FFF4FF467
:1005A0008050ADF8000010208DF8030003208DF876
:1005B000020000224FF48051304805F040F86946AF
:1005C0002E4804F08BFF4FF40050ADF800001820C7
:1005D0008DF8030003208DF8020000224FF4005133
:1005E000264805F02CF86946244804F077FF4FF4BC
:1005F0008040ADF8000018208DF8030069461F48C0
:1006000004F06CFF4FF40040ADF8000048208DF876
:1006100003006946194804F061FF0121112004F02C
:10062000C7FCFF20ADF8000010208DF80300032068
:100630008DF80200FF210E4804F0FDFF69461FE01F
:1006400018ED00E000E400E0040000204400002079
:10065000080000201E00002022000020380000209A
:100660003C00002040000020A0BB0D000010024014
:10067000001001404019010000080140000C014039
:10068000FE4804F02BFF4FF48070ADF800004820C6
:100690008DF803006946F94804F020FF4FF48060AC
:1006A000ADF8000010208DF8030003208DF8020043
:1006B00000224FF48061F14804F0C1FF6946EF4821
:1006C00004F00CFF4FF40060ADF8000014208DF82A
:1006D000030003208DF802004FF40061E74804F0A6
:1006E000AAFF6946E54804F0F9FE4FF44050ADF822
:1006F000000010208DF8030003208DF802004FF455
:100700008051DE4804F099FF4FF40051DB4804F0BB
:1007100094FF6946D94804F0E1FE0121212004F04C
:1007200047FC0420ADF8000010208DF803000320E2
:100730008DF8020000220421D14804F080FF6946B0
:10074000CF4804F0CBFE4FF40070ADF8000010204D
:100750008DF8030003208DF802004FF40071C748A4
:1007600004F069FF6946C54804F0B8FE4CF2503009
:10077000FFF7F0FD4FF48060ADF8000010208DF819
:10078000030003208DF802004FF48061BB4804F0A1
:1007900052FF6946B94804F0A1FE4FF40070ADF86D
:1007A000000004208DF803006946B64804F096FE68
:1007B000B548806940F00100B3498861B34880685A
:1007C000B2498860084680688860B148006840F493
:1007D0000070AF490860AE480C38006840F4007003
:1007E000AB490C3908600F211720FFF727FD1720B0
:1007F000012181404209920002F1E022C2F8001179
:1008000000BF08BD10B50BF02FFB0BF011FB10BDA6
:1008100010B504219B4804F0F4FE10B99D480078FF
:1008200040B19B480830006840F002009849083108
:10083000086020E004F066F80120FFF790FDFFF764
:10084000E1FF002401E000BF641C93488442FAD316
:100850000122D102894804F0F2FE4FF480618748FA
:1008600004F0EBFE4FF40071844804F0E6FE01E072
:1008700006F05BFAFCE710BD08B526208DF80000F5
:1008800000208DF8020001208DF80300684604F076
:10089000B8F908BD02461004B0FBF1F07F4B1B68AD
:1008A00018447E4B186018460068B0EB024F01D325
:1008B0000020186079480068000C70472DE9FC4161
:1008C0004FF47A7425E00BF0CFFA012108460BF0C3
:1008D000F4FC734A002173A00BF03FFD14210120AA
:1008E0000BF0EBFCC4F57A7016F089FD0746002288
:1008F000714B16F07DFB05462A460B466FA16846F4
:1009000013F09CF9664A002168460BF026FD0BF0B7
:100910008FFA2000A4F10104D5D1BDE8FC8130B5E7
:10092000ADF5037D002400250BF02AF96548FFF79B
:1009300011FD08F0A4FC0BF097FA002262A159A067
:100940000CF0F3FB00200BF08CFA002021237D2219
:100950001E21009001200BF0E6FB0BF069FA00204D
:100960000BF07FFA0120212314221E2100900BF0AE
:10097000DAFB0BF05DFA06F0D8F94FF4007103A82A
:1009800013F01EFD06F0D1F902F06CF800200BF018
:1009900068FA002021237D221E21009001200BF007
:1009A000C2FB0BF045FA00200BF05BFA012021237B
:1009B0003C221E2100900BF0B6FB0BF039FA06F03A
:1009C000B4F90121182003F0E5FA00210C2003F00E
:1009D000E1FA00211A2003F0DDFA01210F2003F0D3
:1009E000D9FA06F0A2F900200BF03BFA00202123EF
:1009F0007D221E21009001200BF095FB0BF018FAD0
:100A000000200BF02EFA0120212364221E210090E9
:100A10000BF089FB0BF00CFA06F087F903F0ABFF43
:100A200005460BF021FA002227A11EA00CF07DFB49
:100A300000200BF016FA002021237D221E210090B9
:100A400001200BF070FB0BF0F3F900200BF009FA1A
:100A5000012021237D221E2100900BF064FB0BF06E
:100A6000E7F91A48FFF776FC0BF0FEF9012108467A
:100A70000BF023FC16A101A832E000000010014099
:100A80000014014000080140001002400000014035
:100A90000C0401402C000020FFFF1F0088000020F4
:100AA000789A0208D4EEF0ECE0F2E8F0EEE2E0ED45
:100AB000E8E52E2E2E00000000002440252E316691
:100AC00025250000A086010000000000C05C150084
:100AD000D4EEF0ECE0F2E8F0EEE2E0EDE8E5000064
:100AE00013F0ACF8F84A002101A80BF036FC0C21F9
:100AF00001200BF0E2FBF5A101A813F09FF8F24AE8
:100B0000002101A80BF029FC0BF092F906F00DF979
:100B1000F148FFF71FFC0BF0A7F919211C200BF07F
:100B2000CCFBEE4A0021EEA00BF017FC0BF080F995
:100B3000E948FFF70FFC0021442006F054F84FF479
:100B40000071EA4804F079FD01200DF5037D30BD08
:100B500010B50BF015F80446012C01D1002010BD92
:100B6000012C02D9FFF7DBFEF9E70120F7E770B5AA
:100B70000646DF48006800286AD1DE49DE48006882
:100B800017F04CFA2BD84FF07E51DB48006817F075
:100B900045FB24D2D948006808BBD9480078F0B991
:100BA0000BF062F9142105200BF087FBC64A0021E7
:100BB000D4A00BF0D2FB1E2105200BF07EFBC24A15
:100BC0000021D5A00BF0C9FB0BF032F90120CB4975
:100BD0000860D548FFF7BEFB00200FF062FB002144
:100BE000C548006817F07EF931D1C5480078002863
:100BF000FAD1CE48006817F019F804460022CC4B11
:100C000016F06EFC7AD8BD480068002876D10BF04B
:100C10002BF9142105200BF050FBAB4A0021C5A095
:100C20000BF09BFB1E2105200BF047FBA64A002181
:100C3000C3A00BF092FB0BF0FBF8BB48FFF78AFB5D
:100C40000BF012F90BF0F4F80120AC49086055E004
:100C500001F038FE0A2828D801F034FE012824D9F2
:100C6000A648006808BBA6480078F0B90BF0FCF86D
:100C7000142105200BF021FB934A0021A1A00BF0C9
:100C80006CFB1E2105200BF018FB8F4A0021A2A04F
:100C90000BF063FB0BF0CCF8012098490860A248E8
:100CA000FFF758FB00200FF0FCFA01F00BFE28BB09
:100CB0009348007810BB91480068F8B90BF0D4F85D
:100CC000142105200BF0F9FA7F4A002199A00BF0BE
:100CD00044FB1E2105200BF0F0FA7B4A002198A06E
:100CE0000BF03BFB0BF0A4F89848FFF733FB0BF03D
:100CF000BBF80BF09DF801208049086070BD10B56D
:100D0000102003F003F90446012C06D0022C0AD06F
:100D1000042C0ED0082C14D111E0112003F0F6F8A9
:100D200040EA04240FE0122003F0F0F840EA042423
:100D300009E0132003F0EAF840EA042403E0240267
:100D400001E0002400BF00BF81480068A04219D024
:100D5000A1B20A2003F01EF97D4804607D48818C11
:100D6000042003F017F97B48818D052003F012F968
:100D70007848818E062003F00DF97648818F072090
:100D800003F008F910BD70B503F04AFBA8B303F0F7
:100D900073FA012003F01EFB04462146002003F0F5
:100DA000F9F8032003F016FB0546022003F012FBBE
:100DB00000EBC00101EB001005EB800084B221467E
:100DC000012003F0E7F8052003F004FB05460420AA
:100DD00003F000FB00EBC00101EB001005EB80000D
:100DE00084B22146022003F0D5F8062003F0F2FA7F
:100DF00004462146032003F0CDF870BD10B5002253
:100E00000421554804F01BFC02F098F900210B2046
:100E100003F0C0F8082003F079F840F001042146FF
:100E2000082003F0B7F846F2A8114C4802F071F917
:100E300010BD10B502F0DCFB082003F067F820F0CD
:100E400001042146082003F0A5F80B2003F05EF80A
:100E500028B94048B0F85C100B2003F09BF810BD97
:100E600010B504463E480078002802DD3D483E4962
:100E7000086004213D4804F0C4FB10B139483A49E8
:100E8000086010BD2DE9FC5F192003F03FF806460D
:100E900017F0B0F80546364916F062FF354908608C
:100EA0000A2003F033F840F20122811A904274D0F4
:100EB00069DCB0F5827F71D05EDCA0F2011010B168
:100EC00001286CD174E06BE0789A0208E7E0E2E573
:100ED000F0F8E5EDEE2E000060E3160080A80208B1
:100EE000C2DBCACBDED7C5CDC8C5000000100140AB
:100EF000580000200000204178000020340000202D
:100F000014000020C7E0F0FFE420E0EAEAF3ECF38D
:100F1000EBFFF2EEF0E00000ECE5EDFCF8E520314F
:100F20003025202E2E2E0000A02526007C0000203B
:100F300000000440C0EAEAF3ECF3EBFFF2EEF0004D
:100F4000F0E0E7F0FFE6E5ED2E000000404B4C003E
:100F50008C0000206E83020800140140A8170020B6
:100F600000060020C02709000800002000080140FA
:100F700000007A4424000020B0F5847F28D0B0F52A
:100F8000887F9ED12CE001293ED0032951D007292A
:100F900064D0B1F5007F94D175E029E010E087E0DE
:100FA000F849F948006816F0DBFEF749086080E070
:100FB000F449F548006816F0D3FEF349086078E07C
:100FC000F049F148006816F0CBFEEF49086070E088
:100FD000EC49ED48006816F0C3FEEB49086068E094
:100FE000E849E948006816F0BBFEE749086060E0A0
:100FF000E649E548006817F045F80546E14916F06E
:10100000AFFEE149086054E0DF48006816F00EFECC
:10101000DF4AE04BCDE9000116F09EFA07460022B8
:10102000DD4B15F0E5FF054615F0FCFED6490860DE
:101030003FE0D548006816F0F9FDD54AD54BCDE91B
:10104000000116F089FA05460022D34B15F0D0FFB7
:10105000074615F0E7FECC4908602AE0CA48006858
:1010600016F0E4FD0546CA4ACA4B16F075FA00228E
:10107000C94BCDE9000115F0BBFF074615F0D2FEC4
:10108000C149086015E0C048006816F0CFFD07466A
:10109000C24AC34B16F060FA05460022C14B15F058
:1010A000A7FFCDE9000115F0BDFEB749086000E0DB
:1010B00000BF00BFBC4801F07EFA0546B248016897
:1010C000284616F0DFFF81460A2002F01FFF40F29B
:1010D0000121884211D14946484616F0D3FFB34951
:1010E000019017F0CDF8834616F0A0FD074615F0E5
:1010F00047FE054615F096FE8146484616F042FF2B
:1011000085B22946042002F045FFA74801F06FFA96
:101110008246A54801F076FA0546A54916F0B2FFC9
:1011200004462146504616F079FF00D2A246964862
:101130000168504616F0A6FF82460A2002F0E6FE3D
:1011400040F2011188420ED14FF08141504617F014
:1011500065F806D24FF08141504617F091F882466B
:1011600001E04FF0000A0A2002F0D0FEB0F5817FC6
:101170000ED14FF08141504617F050F806D24FF093
:101180008141504617F07CF8824601E04FF0000A9A
:101190000A2002F0BBFEB0F5827F0CD18549504693
:1011A00017F03CF805D28349504617F069F882469B
:1011B00001E04FF0000A0A2002F0A8FEB0F5847F9B
:1011C0000CD17D49504617F029F805D27A4950468E
:1011D00017F056F8824601E04FF0000A0A2002F0AC
:1011E00095FE40F2012188420CD17449504617F017
:1011F00015F805D27149504617F042F8824601E0D1
:101200004FF0000A0A2002F081FE40F202218842DB
:101210000ED14FF08241504617F000F806D24FF041
:101220008241504617F02CF8824601E04FF0000A48
:101230000A2002F06BFEB0F5017F0ED14FF0824123
:10124000504616F0EBFF06D24FF08241504617F0A1
:1012500017F8824601E04FF0000A0A2002F056FE1D
:10126000B0F5027F0CD15649504616F0D7FF05D293
:101270005349504617F004F8824601E04FF0000A47
:101280000A2002F043FE40F2014188420CD14D4950
:10129000504616F0C3FF05D24A49504616F0F0FFFB
:1012A000824601E04FF0000A504616F06BFE85B210
:1012B0002946052002F06EFE4249484616F0AEFF70
:1012C00005D24946504616F04BFD824601E04FF0EC
:1012D000000A3D49504616F0D5FE064616F052FE6D
:1012E00085B22946072002F055FE2F4801F095F9F6
:1012F000054625480168284616F0C4FE82460021AE
:10130000504616F08BFE01D24FF0000A0A2002F080
:10131000FDFD40F2011188420ED14FF0824150464E
:1013200016F07CFF06D24FF08241504616F0A8FF1F
:10133000824601E04FF0000A0A2002F0E7FDB0F516
:10134000817F0ED14FF08241504616F067FF06D2E2
:101350004FF08241504616F093FF824601E04FF075
:10136000000A0A2002F0D2FDB0F5827F30D1124986
:10137000504616F053FF29D20F49504616F080FF11
:10138000824625E000004040240000200000E442A6
:10139000D122DBF97EEA34400000084085EB51B8E9
:1013A0001EB9784000C0724008DB00200000C8432E
:1013B000000080BF0000E0400000604100008C425F
:1013C000000020410000A0400000C8424FF0000A89
:1013D0000A2002F09BFDB0F5847F0CD1FE495046F7
:1013E00016F01CFF05D2FC49504616F049FF824614
:1013F00001E04FF0000A0A2002F088FD40F20121CE
:1014000088420CD1F549504616F008FF05D2F34941
:10141000504616F035FF824601E04FF0000A0A20E0
:1014200002F074FD40F2022188420CD1EC49504692
:1014300016F0F4FE05D2EA49504616F021FF824626
:1014400001E04FF0000A0A2002F060FDB0F5017FD4
:101450000CD1E349504616F0E1FE05D2E049504672
:1014600016F00EFF824601E04FF0000A0A2002F05B
:101470004DFDB0F5027F0CD1D949504616F0CEFE95
:1014800005D2D749504616F0FBFE824601E04FF0E8
:10149000000A0A2002F03AFD40F2014188420CD1D4
:1014A000D049504616F0BAFE05D2CE49504616F045
:1014B000E7FE824601E04FF0000A504616F062FD5A
:1014C00085B22946062002F065FDBDE8FC9F70B597
:1014D000044665682E462068FEF7A9FEA4F1006167
:1014E0004FF0006003F0BFFBB04770BD2DE9F84F2F
:1014F00001F018FA824616F07DFD81464FF08B41CF
:1015000016F02EFC044616F091FB07464FF06632AB
:10151000B54B16F021F8054615F084FCB349086078
:1015200008460168B24816F0ABFEB0490860B14900
:10153000AE48006816F014FC804616F077FB0646AD
:10154000AD4AAE4B16F008F8044615F06BFCA749FF
:10155000086001F011FA009016F04CFD83464FF040
:101560008B4116F0FDFB824616F060FB80464FF083
:1015700066329D4B15F0F0FF0646A14AA14B15F0CF
:10158000EBFF044615F04EFC9F4908609F48006839
:1015900016F018FD05469E480168284616F070FEB4
:1015A00004469C4916F0DCFB9B490860974800689C
:1015B00016F008FD96490860974801688B48006856
:1015C00016F060FD0446954916F0CAFB9449086080
:1015D00094480068012807D10846016892480068CD
:1015E00016F050FB904908608748006816F01EFB13
:1015F00004468E4A8E4B15F073FF03D200208D49AE
:10160000086012E08C498848006816F03BFD80466F
:1016100016F00CFB06464FF03332884B15F0E8FC11
:10162000044615F0FFFB8349086085497E48006841
:1016300016F028FD814616F0F9FA074615F0FCFA77
:10164000054615F069FE84B22146282005F0CBFA44
:1016500075480068BDE8F88F88B000BF00250026F7
:1016600000BF002077490870FEF7B1FE7648FEF70C
:1016700071FE7548FEF76EFE7348FEF76BFE0122A1
:101680009102724803F0DBFF6F48FEF763FE6E487D
:10169000FEF760FE6C48FEF75DFE03F081FA012064
:1016A000FEF75DFE00F0D8FF06F074F80AF0F3FBD9
:1016B00001206749086002F09DFD28B9654800686F
:1016C00040F0010063490860FFF742FA28B9614819
:1016D000006840F004005F49086002F042FD28B94C
:1016E0005C48006840F002005A49086000205949EF
:1016F00008600846006800284DD00024564A0021A2
:1017000056A00AF02AFE5348007800F0010068B1A4
:10171000601C044600EB80004006010E05200AF024
:10172000CCFD4D4A00214FA00AF017FE4948007831
:1017300000F0020068B1601C044600EB8000400627
:10174000010E05200AF0B9FD434A002147A00AF026
:1017500004FE4048007800F0040068B1601C0446B4
:1017600000EB80004006010E05200AF0A6FD3A4A73
:10177000002143A00AF0F1FD0AF05AFB4548FEF7AC
:10178000E9FDFFF73FF84348FEF7E4FD4FF4007131
:101790002E4803F052FF182002F0B8FB002819D1A0
:1017A000012108460AF089FD2B4A00213AA00AF0DF
:1017B000D4FD192101200AF080FD274A00213BA019
:1017C0000AF0CBFD0AF034FB05F0AFFA0020FEF77B
:1017D000C6FDA0E0A0E000000000F04100000243D0
:1017E0000000A0410000204166660A406000002021
:1017F0003333D33FA4709D407B14AE47E17AF03F72
:10180000E17A14AE47E100407C0000200400002093
:101810006800002000007A44640000200000614558
:101820006C0000205C00002070000020CDCCCCCCEF
:10183000CCCC0440780000200000C8423333E33FA2
:101840000050C34714000020A08601000010014092
:10185000300000200C000020789A02084552524FB8
:10186000523A0000D7E0F1FB00000000C8EDE8F6B6
:10187000E8E0EBE8E7E0F6E8FF20464C415348009B
:10188000C8EDE8F6E8E0EBE8E7E0F6E8FF204641DF
:101890005431360060AE0A00CEF8E8E1EAE020E715
:1018A000E0EFE8F1E820464154313600D4EEF0ECA8
:1018B000E0F2E8F0EEE2E0F2FC2E2E2E3F00000017
:1018C000102002F0F8FAA0B90AF0CEFA0AF0B0FA45
:1018D000FFF725F8FEF796FFFE48FEF73BFD0AF0FE
:1018E000C3FA0AF0A5FA4FF40071FB4803F0A5FE15
:1018F00011E0082002F0DFFA68B9FEF783FFF5482F
:10190000FEF728FD0AF0B0FA0AF092FA4FF40071DF
:10191000F14803F092FED3E7182002F0F7FA0746E9
:1019200039460C2002F036FB1B2002F0EFFA642847
:101930000AD00AF03CFD0AF07BFA002501E000BF66
:101940006D1CE6488542FAD3142001F0DDF80BF057
:1019500024FC0020FEF703FD012002F0C0FA30B99C
:10196000022002F0BCFA10B980200BF013FC192001
:1019700002F0CCFA804616F03DFB0746D84916F037
:10198000EFF9D8490860D849D648006816F0E8F958
:10199000D44908600C2005F032F9D4490880D448B5
:1019A000006860B9D348006816F0D0FAD2490860E0
:1019B000D048006816F0CAFAD049086007E000F085
:1019C00081FFCD49086000F07DFFCC4908604420CC
:1019D00005F015F9CA4908604FF40041C94803F001
:1019E00010FEC3490860282005F009F960B90020FD
:1019F000C54915F021F9074615F08EFC1FFA80F94C
:101A00004946282005F0EFF8282005F0F8F8804630
:101A100016F0F0FA0746BD4916F0A2F9BC49086075
:101A200067E2BC48007850B3B0480088B0F5616FF9
:101A300018D10E2002F06AFAAC49088008460088E6
:101A40004FF6E851884209DAA8480088401C80B265
:101A5000A64A108001460E2002F09CFA0020A349FD
:101A6000088004E0A1480088401CA04908800020AC
:101A7000A84908709D4801880C2005F0B4F845F28B
:101A8000555005F049F9062005F049F94FF48060FA
:101A900005F048F905F04EF9FFF728FD9E4800785B
:101AA0009E49086004219E4803F0ABFD9D490968EA
:101AB00088427CD004219A4803F0A3FD994908602C
:101AC0000846006878B3FFF7B4F90020964908701B
:101AD00002F018FF9548FEF73DFC1B2002F016FAB5
:101AE000642804D163211B2002F054FA14E064211D
:101AF0001B2002F04FFA62B661B600BF8C48006846
:101B000000F4E0608B490843001D89490860BFF379
:101B1000408F00BF00BFFEE70120FEF720FC002041
:101B20008549087094E0FFE7012083490870002090
:101B3000824908700AF098F9012108460AF0BDFBB5
:101B40007F4A00217FA00AF008FC0AF071F9002406
:101B500072B671B601227FA17F4810F0F1F900261C
:101B60000DE000231A467DA101A8009612F066F848
:101B7000814901A810F0E1FE00B9641C761CFF2E1B
:101B8000EFD905F0D2F80A227CA17F4810F003FAC1
:101B900000227EA101A812F051F801A97A4811F0A3
:101BA000B0FE79490A2011F067FE012515E06EE0CC
:101BB0002A4679A101A812F041F86F4901A810F056
:101BC000BCFE38B901A9704811F09BFE6E490A208D
:101BD00011F052FE05F0A9F86D1CFF2DE8D36A48FC
:101BE00010F0A9FC002201A959A011F0B7F96DA1CC
:101BF00001A812F037FC10B16AA011F00EFA002211
:101C000054A1104610F09CF962B661B667480460B2
:101C1000601C81B20F2002F0BDF90025002664A1EE
:101C200064A012F09CFA40B14FF00060FFF74FFC47
:101C3000002064490860644908600020FEF78FFBBB
:101C40003A48FEF787FB02F031FE00200EF029FB38
:101C50002748006878B93448007860B9254800689A
:101C600016F074F9244908602248006816F06EF9ED
:101C70002249086007E000F025FE1F49086000F0D7
:101C800021FE1E4908602748006805F091FD25489F
:101C9000006800281CD101204C490860002026491A
:101CA00008704FF480510C4803F0C7FC4FF400510A
:101CB000094803F0C2FC1C48007830B9042002F047
:101CC000FAF810B9012018490870174800787FE029
:101CD000F5E0000060AE0A0000100140FFFF2F0099
:101CE00000007A44240000200000964320000020D9
:101CF0005800002078000020480000204C00002000
:101D0000C0100020000C0140004CED400050C347C3
:101D100070000020220000203A1000205000002017
:101D2000000801401000002014000020400D0300B6
:101D30000CED00E00000FA052C000020150000204A
:101D4000789A0208CFEEE4EEE6E4E8F2E52E2E2ED5
:101D500000000000303A0000501100204D3A5C2590
:101D60003033752E253033755C5369676E616C2096
:101D700025642E6461740000A8150020526F616410
:101D8000732E74787400000084130020526F616415
:101D90002E25303175202000526F61642E2530339E
:101DA0007500000050494F4E2D33000018000020F0
:101DB000726200004D3A5C70726F67312E62696E1C
:101DC00000000000B8100020C41000205C000020BB
:101DD00001280ED1802002F06EF850B9022045494A
:101DE00008704548007820B90120FEF7B8FAFFF7DF
:101DF00005F840480078022806D1042002F05BF87C
:101E000010B903203B4908703A480078032806D1EE
:101E1000802002F050F810B900203649087035488B
:101E2000007840B9FFF705F801F0FEFB00B96D1C22
:101E30000020FEF794FA2F48007810B90020FEF732
:101E400096FE082002F062F800F0010000280FDD85
:101E50000A2002F05BF8B0F5006F07D101F0ECFB4F
:101E6000074639460B2002F095F801E0FFF70AF823
:101E700022480078002809DD082002F047F840F0E9
:101E800008073946082002F085F808E0082002F02B
:101E90003DF820F008073946082002F07BF80020C2
:101EA000164908700EF067FC18B10120FEF7D8FF44
:101EB00002E00020FEF7D4FFFEF721FF19E000202A
:101EC000FEF7CEFF0E48007880B90E48FEF742FAC2
:101ED0000B48007818B902200EF0E3F909E0012060
:101EE0000EF0DFF900200849086002E001200EF042
:101EF000D8F996E51400002090100020CC000020B6
:101F00003B100020809698005C000020704700BFC6
:101F1000FEE700BFFEE700BFFEE700BFFEE7704739
:101F20007047704710B5FEF7B3F910BD10B540F219
:101F300025510F4803F02EFA48B10D4803F0C1F9BE
:101F40000C49087008460178094803F0B6F940F2D8
:101F50002661074803F01EFA40B14021044803F00F
:101F600010FA04480078401E0249087010BD0000B5
:101F700000440040900000202DE9F04106460F4645
:101F80001446F9480078012802D10020BDE8F0810C
:101F9000022C00DC0CB90020F8E7F3480178007847
:101FA000401CF14A107001EB810000EBC100EF49C9
:101FB00001EB80052C704FF0000800BF002105F1F7
:101FC0001C0040F824100C3040F8241056F824105F
:101FD000281D40F8241057F824100C3040F8241025
:101FE00034B1281D50F82410404615F04BFE8046B1
:101FF00005F1100050F82410404615F043FE8046CD
:10200000201EA4F10101CCB2D8DC2846BEE72DE9A0
:10201000F04704460D460026E1692162A16AE162AB
:10202000E561A168E06A16F02DF880466169206AD2
:1020300016F028F881462169E06916F023F88246F7
:10204000494615F01FFE0746414615F01BFE0646A1
:10205000A662A06ABDE8F0872DE9F84F04460D4658
:102060000026216A6162E16A2163E1692162A16A55
:10207000E162E561E168206B16F004F88146A16831
:10208000E06A15F0FFFF8246494615F0FBFD074662
:10209000A169606A15F0F6FF00906169206A15F089
:1020A000F1FF82462169E06915F0ECFF8346514655
:1020B00015F0E8FD8146009915F0E4FD80463946AB
:1020C00015F0E0FD0646A662A06ABDE8F88F2DE98E
:1020D000BF4F82468B461446A5480078062803D198
:1020E000002004B0BDE8B08F022C00DC0CB9002049
:1020F000F7E79F4801780078401C9D4A107001EB7B
:10210000810000EBC1009B4901EB800989F8004088
:10211000002500BF002109F11C0040F824100C30FC
:1021200040F824100AEBC40000224FF08043D0E9AD
:102130000071384615F0D4F921D20AEBC400002210
:102140004FF04043D0E90071384615F003FB16D23A
:102150000AEBC4000022884BD0E90071384615F024
:10216000FBF90022854BCDE9000115F0F5F9CDE929
:10217000020114F0E8FD09F1040141F824000BEB21
:10218000C40000224FF08043D0E90071384615F0BA
:10219000A7F921D20BEBC40000224FF04043D0E955
:1021A0000071384615F0D6FA16D20BEBC401D1E90E
:1021B00000710022704B384615F0CEF900226F4BAB
:1021C000CDE9000115F0C8F9CDE9020114F0BBFD1D
:1021D00009F1100141F8240024B109F1040050F87C
:1021E0002400451909F1100050F824004519201E5B
:1021F000A4F10101CCB28DDC484672E70146002013
:1022000009E0002301F11C0242F820300C3242F8B0
:102210002030421CD0B20328F3DB70472DE9FC5F6D
:10222000064689461546002434E006EBC400002229
:10223000514BD0E90071384615F08EF900224F4B12
:10224000CDE9000115F088F9824614F07CFD291DC6
:1022500041F8240009EBC4000022474BD0E900718B
:10226000384615F079F982460022444B15F074F98E
:10227000CDE9000114F067FD05F1100141F82400DB
:10228000002105F11C0040F824100C3040F8241007
:10229000601CC4B22878401CA042C6DCBDE8FC9F8C
:1022A0002DE9F043024600BF156A5562D56A1563F1
:1022B000D5691562956AD562D1611569D06980FBCF
:1022C0000550176A566987FB0667AD197841576A4A
:1022D000966987FB0667AE197841D76A956887FBD0
:1022E0000597D2F80CC0D2F8308088FB0CC83D4668
:1022F00019EB0C0745EB0805F31940EB05044FF00B
:1023000000569E1944F10000850045EA96709062DF
:10231000906ABDE8F083F0B5024600BFD56915624A
:10232000956AD562D1611569D06980FB0550176A3D
:10233000566987FB0667AD197841D76A966887FBAF
:102340000667AB1940EB07044FF00057DE1944F164
:102350000000850045EA96709062094D906AA84297
:1023600010DD2846F0BD0000910000203816002046
:10237000920000206C1600200000F0400000D040C9
:102380000080FF3F906AB0F1404F02DA4FF04040CA
:10239000E8E7906AE6E72DE9F043024600BF156AD8
:1023A0005562D56A1563D5691562956AD562D161A2
:1023B0001569D06980FB0550176A566987FB067658
:1023C000ED197041576A966987FB0667AE19784127
:1023D000D76A956887FB05C5D2F83080D76888FB37
:1023E0000787B9461CEB080745EB0905F31940EBD5
:1023F00005044FF000569E1944F10000850045EA9F
:10240000967090628F4D906AA84202DD2846BDE822
:10241000F083906AB0F1404F02DA4FF04040F6E7A7
:10242000906AF4E72DE9F047034600BF1E6A5E623A
:10243000DE6A1E63DE691E629E6ADE62DA611E6902
:10244000D86980FB0670D3F820C05E698CFB06C695
:10245000B04617EB0C0640EB0800D3F824C09F6988
:102460008CFB077CF71940EB0C00D3F82CC09E685E
:102470008CFB0686D3F80CC0D3F8309089FB0C9CFB
:10248000E24618EB090C46EB0A0617EB0C0440EB8E
:1024900006054FF0005C14EB0C0745F100008600C8
:1024A00046EA9770986200BF0E6A4E62CE6A0E636B
:1024B000CE690E628E6ACE62986AC8610E69C8697A
:1024C00080FB0670D1F820C04E698CFB06C6B04672
:1024D00017EB0C0640EB0800D1F824C08F698CFB89
:1024E000077CF71940EB0C00D1F82CC08E688CFBF0
:1024F0000686D1F80CC0D1F8309089FB0C9C18EB03
:10250000090846EB0C0617EB080440EB06054FF0F4
:102510000056A61945F10000870047EA96708862C8
:10252000484E886AB04202DD3046BDE8F087886ACE
:10253000B0F1404F02DA4FF04040F6E7886AF4E726
:1025400041810023036043600022C2600261826116
:10255000C261028180F8282002624262704730B571
:10256000C2688A4200DAC16002698A4200DD016104
:1025700001F58042D11381FB0153D0E90042641977
:102580005A41C0E900420289521C028102894389F2
:102590009A420FDBD0E90023C0E90623C268026239
:1025A000026942620022C2600261026042600281EE
:1025B00080F8282030BD2DE9FC478046B8F80A0095
:1025C00014F034FF04460D46D8E90621104614F0F5
:1025D00041FF064622462B4614F00AFD814614F0C0
:1025E000CFFBCDE9000114F01DFCBDE8FC8770B500
:1025F0000446206A15F0E6FC05464FF08E4115F0C2
:10260000AFFB70BD70B50446606A15F0DBFC054693
:102610004FF08E4115F0A4FB70BD70B50446204606
:10262000FFF7F0FF05462046FFF7E1FF0646294683
:1026300015F026FE70BD014691F8280000F001005B
:10264000704700000080FF3F10B5044621464FF45C
:10265000007002F0ADFC10BD00B585B0012140F264
:10266000012002F0A5FC002000908DF804008DF8F8
:1026700005004FF4602002900020039001208DF8A7
:1026800010006946D14803F08EF807230122032188
:10269000CE4803F020F90121CC4803F0B0F8CB4834
:1026A00003F0CFF800BFC94803F0D0F80028FAD1F2
:1026B000C64803F0D5F800BFC44803F0D6F8002898
:1026C000FAD1012003F02CFA0021C04803F097F85A
:1026D00005B000BD2DE9F04100240025002780262B
:1026E0000120FFF7B1FF0121B84803F088F8072364
:1026F00001221121B54803F0EEF800BF0EE00121E0
:10270000B24803F0BCF800BF0221B04803F028FA39
:102710000028F9D0AD4803F045F905443000A6F192
:102720000101CEB2EBD1ED094FF49600B0FBF5F705
:10273000072301221146A54803F0CDF880260EE0BC
:102740000121A24803F09BF800BF02219F4803F03B
:1027500007FA0028F9D09D4803F024F9044430001A
:10276000A6F10101CEB2EBD10021984803F047F861
:102770000020FFF769FFE40904FB07F04FF4006154
:1027800001EB400040F6FF71B0FBF1F42046BDE8DC
:10279000F08110B5FFF79EFF044641F236008442F7
:1027A00001D964240DE040F61C40844201D200248B
:1027B00007E0A4F61C446420604340F21A41B0FBD9
:1027C000F1F48348008864280CD1824800686421B1
:1027D000B0FBF1F08049087000207E4908607C4918
:1027E000088004E07B48006820447A490860784803
:1027F0000088401C7649088077480078FA2801D183
:1028000075490C707448007810BD2DE9F041002422
:102810000025002780260120FFF716FF01216B48C5
:1028200002F0EDFF072301221121684803F053F85D
:1028300000BF0EE00121654803F021F800BF02212E
:10284000624803F08DF90028F9D0604803F0AAF837
:1028500005443000A6F10101CEB2EBD1ED095F488D
:10286000B0FBF5F7072301221146584803F033F86F
:1028700080260EE00121554803F001F800BF022137
:10288000524803F06DF90028F9D0504803F08AF857
:1028900004443000A6F10101CEB2EBD100214B4837
:1028A00002F0ADFF0020FFF7CFFEE40904FB07F0C4
:1028B00040F6CA0101EB40004900B0FBF1F42046AC
:1028C000BDE8F08110B5FFF7A0FF0446B4F5616FD5
:1028D00001D964240CE0B4F5486F01D2002407E06C
:1028E000A4F54864642060434FF4C871B0FBF1F470
:1028F000204610BD10B5FFF788FF0446B4F57A6F87
:1029000001D964240CE0B4F5486F01D2002407E03B
:10291000A4F54864642060434FF44871B0FBF1F4BF
:10292000204610BD70B50026002480250120FFF749
:102930008BFE0121254802F062FF072301220321BB
:10294000224802F0C8FF00BF0EE001211F4802F03C
:1029500096FF00BF02211D4803F002F90028F9D0BC
:102960001A4803F01FF804442800A5F10101CDB274
:10297000EBD1E409204670BD70B500260024802507
:102980000120FFF761FE0121104802F038FF072304
:10299000012211460D4802F09EFF00BF0EE001210A
:1029A0000A4802F06CFF00BF0221084803F0D8F883
:1029B0000028F9D0054802F0F5FF04442800A5F1ED
:1029C0000101CDB2EBD1E409204670BD00240140E5
:1029D0009C0000209800002094000020C065520058
:1029E00010B5002403E001F00AFE00B904E020461F
:1029F000611CCCB20A28F6DB00BF012010BD70B507
:102A000004460D4616463848844213D24FF480518E
:102A1000364802F010FE72B671B62946601C01F00D
:102A200063FE62B661B64FF48051304802F005FE95
:102A3000012070BD0020FCE770B504460D46164627
:102A40002948844209D272B671B62946601C01F049
:102A5000B6FE62B661B6012070BD0020FCE70146FB
:102A60000120704710B504F060F972B671B604F039
:102A70005CF91F49012001F037FE62B661B604F02F
:102A800054F94FF47A740DE004F04FF972B671B650
:102A900004F04BF9A01C174901F026FE62B661B69E
:102AA00004F043F92000A4F10104EDD172B671B62F
:102AB00004F03BF9012210A110480FF041FA002266
:102AC00011460DA010F06AFB04F02FF90CA010F0D5
:102AD000A4FA04F02AF9002207A110460FF030FAF8
:102AE00062B661B6012010BD00963A0000080140B0
:102AF0002806002028080020303A0000501100204D
:102B000050494F4E2D33000010B58AB004460121C4
:102B1000C80202F04DFA012C04DD601E80B2ADF84F
:102B2000200002E00120ADF820004720ADF81C0095
:102B30000020ADF82200ADF81E008DF8240007A992
:102B4000FE4803F0BDFA0121FC4804F01FF81920EB
:102B50008DF8180000208DF819008DF81A0001205A
:102B60008DF81B0006A802F04CF80121880302F042
:102B70002CFA0020ADF804004FF48270ADF8060086
:102B80000020ADF808000220ADF80A000120ADF8E1
:102B90000C004002ADF80E000020ADF81000ADF8BA
:102BA00012000720ADF8140001A9E54803F0C6F8AB
:102BB0000222E44901F11800FFF789FAE2490860AE
:102BC0000222E24901F11800FFF781FAE0490860AA
:102BD0000222E04901F11800FFF779FADE490860A6
:102BE0000222DE4901F11800FFF771FADC490860A2
:102BF0000222DC4901F11800FFF769FADA4908609E
:102C00000222D84901F11800FFF761FAD74908609C
:102C10000AB010BD10B500244FF48050D4490860AC
:102C20000860086008600860086008600860086064
:102C30000860086008600860086008600860086054
:102C40000860086008600860086008600860086044
:102C50000860086008600860086008600860086034
:102C60000860086008600860086008600860086024
:102C70000860086008600860086008600860086014
:102C80000860086008600860086008600860086004
:102C9000FF21AB4803F028F900BFA948083000889D
:102CA00000F002000028F8D0FF21A54803F01CF92D
:102CB00000BFA3480830008800F001000028F8D0C9
:102CC0009F4803F013F9044600BF9D480830008870
:102CD00000F002000028F8D0FF21994803F004F921
:102CE00000BF97480830008800F001000028F8D0A5
:102CF000934803F0FBF840EA042400BF90480830F2
:102D0000008800F001000028F8D08D4803F0EEF8AC
:102D100040EA04244FF480509549091F0860A40834
:102D2000A0B210BD70B54FF40061924802F083FC70
:102D3000192001F0EBF8054615F05CF904468E49C0
:102D400015F00EF88D49086001217C4803F01EFF44
:102D5000FFF760FFA0F50040894908600846016858
:102D600088480078884A12781040884A42F8201033
:102D700084480078401C83490870084600788249DE
:102D80000978084000286ED17F480078012808D1D2
:102D900010460068114649680844401078490860A8
:102DA0000DE07A480068794949680844774989689C
:102DB00008447649C9680844801071490860704821
:102DC000006847F6F461884204DC6D4800684942B7
:102DD000884205DA6E48006810B901206D49087014
:102DE00067480068C003664908606B48008840F285
:102DF0000122811A904276D010DCB0F5827F48D053
:102E000005DCA0F20110C8B101286DD12CE0B0F5AD
:102E1000847F53D0B0F5887FF7D166E007296FD063
:102E200004DC01296DD00329EFD1D5E0B1F5007F95
:102E300068D0A1F2FF510029E7D122E15048026891
:102E40004348016840480068FFF7ECFA4C490860C5
:102E500008460268424801683F480068FFF7E2FA06
:102E60004749086019E14DE1454802683848016862
:102E700035480068FFF7D6FA4149086008460268FD
:102E80003748016834480068FFF7CCFA3C490860CD
:102E900003E13B4802682E4801682B480068FFF7B1
:102EA000C1FA37490860084602682D4801682A4877
:102EB0000068FFF7B7FA32490860EEE03048026870
:102EC0002348016820480068FFF7ACFA2C490860E5
:102ED00008460268224801681F480068FFF7A2FA06
:102EE00027490860D9E00EE0D6E0254802681C4872
:102EF000016819480068FFF795FA21490860CCE09D
:102F000085E04EE09EE01E480268114801680E48C8
:102F10000068FFF787FA1A490860084601681248F6
:102F20000068FFF738FA16490860084602680C483E
:102F3000016809480068FFF775FA2FE0002C01408E
:102F40000038004038010020E8050020680100201A
:102F5000EC050020B8020020F0050020E802002067
:102F6000F405002098040020F8050020FC0500204E
:102F7000140C01400008014000007A44D0000020F9
:102F8000BC000020D4000020D5000020F8DA00208A
:102F9000C4000020CC000020C0000020FE490860D2
:102FA0007BE0FD480268FD480168FD480068FFF7C6
:102FB00039FAF949086008460168FA480068FFF7DD
:102FC000EAF9F549086008460168F7480068FFF724
:102FD000A2F9F149086060E0EF480268EF48016833
:102FE000EF480068FFF71EFAEB49086008460168E1
:102FF000EC480068FFF7CFF9E74908600846016828
:10300000E9480068FFF787F9E349086045E0E248CE
:103010000268E2480168E2480068FFF703FADE4907
:10302000086008460168DF480068FFF7B4F9DA492C
:10303000086008460168DC480068FFF76CF9D6496B
:1030400008602AE0D4480268D4480168D44800687F
:10305000FFF7E8F9D049086008460268D3480168DC
:10306000D1480068FFF7DEF9CB49086008460268DE
:10307000CF480168CB480068FFF7D4F9C64908601B
:103080000BE0C5480268C9480168C7480068FFF7F7
:10309000C9F9C149086000E000BF00BFC548006829
:1030A00028B1C4480068401EC249086070BDBA48D3
:1030B0000168C148FFF753FAC0480088002821DDA5
:1030C000BE480088401EBD490880B348006814F01F
:1030D00079FF0546BA480168284614F0D3FF044634
:1030E00014F034FFB74908600846006800F58040D6
:1030F000C01300B2B44909680880B3480068801C56
:10310000B14908604FF40061B04802F096FA00BF80
:10311000CCE70022A94B1A80AB4A1060AC4A118060
:1031200002E0002220F811200A00A1F1010399B267
:10313000F7D1A74A1288A14B1A80704710B500201A
:103140009E49088001221103A24802F078FA00206B
:10315000A149086048608860C860A049087046F2CC
:10316000A810944908600A2000F0D0FE9C4908800D
:103170008B480068FFF742F888480068FFF73EF880
:1031800089480068FFF73AF888480068FFF736F882
:1031900084480068FFF732F885480068FFF72EF88A
:1031A0008F48008840F20122811A90427DD010DCC5
:1031B000B0F5827F67D005DCA0F20110C8B101280C
:1031C00074D13BE0B0F5847F71D0B0F5887FF7D142
:1031D000AAE007296CD004DC01296AD00329EFD1C9
:1031E0005EE1B1F5007F65D0A1F2FF510029E7D182
:1031F000D3E16B487B49026801F11800FFF70EF834
:1032000066487949026801F11800FFF707F8664837
:103210007649026801F11800FFF700F86348744925
:10322000026801F11800FEF7F9FF032071490870E8
:1032300046F2A8116048FFF783F9CAE158486E4981
:10324000026801F11800FEF7E9FF54486B49026873
:1032500001F11800FEF7E2FF53486949026801F1E5
:103260001800FEF7DBFF51486649026801F11800BB
:10327000FEF7D4FF01205F49087046F2A8114E48BE
:10328000FFF75EF9A5E146485F49026801F11800C1
:10329000FEF7C4FF41485D49026801F11800FEF7DE
:1032A000BDFF41485649026805E062E090E116E042
:1032B0001BE1D0E03EE101F11800FEF7AFFF3B4813
:1032C0005049026801F11800FEF7A8FF01204949A2
:1032D000087046F2A8113848FFF732F979E1304812
:1032E0004B49026801F11800FEF798FF2B48494945
:1032F000026801F11800FEF791FF2B48404902686F
:1033000001F11800FEF78AFF28483E49026801F1E2
:103310001800FEF783FF01203649087046F2A81115
:103320002548FFF70DF954E11D483B49026801F1BA
:103330001800FEF773FF19483849026801F11800B8
:10334000FEF76CFF18482E49026801F11800FEF7DD
:1033500065FF16482B49026801F11800FEF75EFF71
:1033600001202449087046F2A8111348FFF7E8F835
:103370002FE10B481B49026801F11800FEF74EFFD0
:1033800006481949026801F11800FEF747FF064890
:103390001649026844E00000BC000020EC05002053
:1033A000E8050020F8050020F0050020F4050020C5
:1033B000FC050020C400002008DB0020B80000202D
:1033C000D0000020C8000020B40000200008014008
:1033D000BA000020000C0140F8DA0020D4000020E0
:1033E000C0000020A8030020D8030020B80200205D
:1033F000E8020020D50000203801002068010020EC
:10340000180300204803002098010020C801002074
:10341000F801002028020020580200208802002025
:1034200001F11800FEF7FAFEFD48FE49026801F1BD
:103430001800FEF7F3FEFC48FC49026801F1180091
:10344000FEF7ECFE0320FA49087046F2A811F9488D
:10345000FFF776F8BDE0F848F849026801F1180076
:10346000FEF7DCFEF648F749026801F11800FEF7A6
:10347000D5FEF548F549026801F11800FEF7CEFEC9
:10348000E948F349026801F11800FEF7C7FE012080
:10349000E749087046F2A811E648FFF751F898E0AE
:1034A000E548EC49026801F11800FEF7B7FEE44870
:1034B000E949026801F11800FEF7B0FEE248E3496D
:1034C000026801F11800FEF7A9FED748E04902683A
:1034D00001F11800FEF7A2FE0120D549087046F25E
:1034E000A811D448FFF72CF873E0D348DB490268F1
:1034F00001F11800FEF792FED148D949026801F1A6
:103500001800FEF78BFED048D049026801F1180080
:10351000FEF784FEC448CE49026801F11800FEF7A8
:103520007DFE0120C249087046F2A811C148FFF78C
:1035300007F84EE0C048CB49026801F11800FEF7D9
:103540006DFEBF48C849026801F11800FEF766FE2B
:10355000BD48C649026801F11800FEF75FFEB04899
:10356000C349026801F11800FEF758FEAE48C14990
:10357000026801F11800FEF751FEBF48BF4902681A
:1035800001F11800FEF74AFE0320A949087046F22F
:10359000A811A848FEF7D4FF1BE0AB48B849026861
:1035A00001F11800FEF73AFE9D489E49026801F1BC
:1035B0001800FEF733FE01209D4908704FF22440A9
:1035C000B049086046F2A8119A48FEF7B9FF00BF5B
:1035D00000BF00BF0121AC4802F055FC0121AB48FF
:1035E00002F0FAFF01221146A84803F010F810BDBE
:1035F00010B50020A649087000220121A34803F05D
:1036000006F80021A14802F0E7FF01219F4803F0DE
:10361000BDFA00219C4802F036FC00224FF4805194
:103620009C4802F00CF810BD9B480088002801DD82
:10363000012070470020FCE79848008800280CDD36
:103640009648008894490988401A64214843934960
:103650000988B0FBF1F0C0B270470020FCE700B56C
:1036600000BFFFF7E1FF0128FBD000BD2DE9F74FB8
:1036700086B0894692460120FCF771FE45F6C0519E
:103680006C48FEF75DFF86A1069810F068FD834642
:10369000BBF1000F7DD000220421584610F094FCAD
:1036A0000DE0BDF910004FF48041C1EBC0344FF480
:1036B000967094FBF0F529465E48FEF750FF5B4696
:1036C0000122022104A812F049FB0128E9D059483F
:1036D000FEF78DFF734908600868734914F0D2FC47
:1036E000054614F04FFCA9F800006E4908686E49C1
:1036F00014F0C8FC054614F045FC80B2ADF80C008F
:1037000000220421584610F05FFC45F6C05149489C
:10371000FEF716FF48485149026801F11800FEF70C
:103720007DFD47484E49026801F11800FEF776FD1D
:1037300045484649026801F11800FEF76FFD3A4816
:103740004349026801F11800FEF768FD31E0BDF958
:1037500010004FF48041C1EBC03422463848016864
:1037600035480068FEF75EFE044621462E48006894
:10377000FEF711FE0446214633480068FEF7CBFDF4
:103780000446204613F03BFE484A494BCDE9000170
:1037900000E033E013F0E0FE07460022454B13F053
:1037A00027FC054613F0B8FD014602902148FEF7BC
:1037B000D6FE5B460122022104A812F0CFFA0128AE
:1037C000C5D01C48FEF7F7FE3649486048683649C0
:1037D00014F058FC054614F0D5FBAAF80000314956
:1037E0004868314914F04EFC054614F0CBFB80B21A
:1037F000ADF80E00584610F0D9FC04E00020A9F8FE
:103800000000AAF800004FF4FA70A9F8000041F295
:10381000F450AAF8000003A809B0BDE8F08F00003A
:10382000F4050020E8020020F8050020980400209C
:10383000D500002008DB0020E8050020380100202A
:10384000EC05002068010020F0050020780300202E
:10385000F804002098010020C8010020F801002091
:1038600028020020D8000020080100208805002040
:10387000B805002028050020FC0500205805002080
:10388000B8020020C400002000380040002C014095
:10389000CC000020000C0140B8000020BA0000203D
:1038A0007200000038DB00200000C842D122DBF9A2
:1038B0007EEA344000C07240F8B506460120FCF7AD
:1038C0004EFD46F2A811CA48FEF73AFEAFF23001AB
:1038D000304610F044FC0446002C59D0002204214C
:1038E000204610F071FBC348C349026801F118007B
:1038F000FEF794FCC148C249026801F11800FEF7C6
:103900008DFCC048C049026801F11800FEF786FC32
:10391000BE48BF49026801F11800FEF77FFC1DE0B8
:10392000BDF900004FF48041C1EBC0352A46B348D1
:103930000168B0480068FEF775FD05462A46B348A1
:103940000168B0480068FEF76DFD05464FF49670BB
:1039500095FBF0F73946A648FEF701FE2346012203
:103960000221684612F0FAF90128D9D0A048FEF7E2
:1039700022FEA8490860204610F018FCA5490868F6
:10398000A54914F07FFB074614F0FCFA80B2F8BD9D
:103990000020FCE72DE9F14F82B00120FCF7DFFCAD
:1039A00045F6C0519248FEF7CBFDAFF20C110298DC
:1039B00010F0D5FB8346BBF1000F71D0002204212B
:1039C000584610F001FB46F2A8118948FEF7B8FDF1
:1039D00088488949026801F11800FEF71FFC8748F2
:1039E0008749026801F11800FEF718FC85488B49E9
:1039F000026801F11800FEF711FC89488949026844
:103A000001F11800FEF70AFC2EE0BDF904004FF4A6
:103A10008041C1EBC03A5246784801687548006859
:103A2000FEF700FD824651467D480068FEF7B3FC74
:103A30008246514673480068FEF76DFC8246504648
:103A400013F0DDFC0646784A784B13F085FD0446FA
:103A50000022774B13F0CCFA804613F05DFC014650
:103A600000906348FEF77BFD5B460122022101A81E
:103A700012F074F90128C8D05D48FEF79CFD6D492D
:103A80004860584610F092FB6A494868624914F051
:103A9000F9FA044614F076FA80B2BDE8FE8FFFE72B
:103AA0000020FAE72DE9F14F84B00120FCF757FC24
:103AB00041F288314E48FEF743FDAFF21C210498D5
:103AC00010F04DFB8246BAF1000F7DD00022042198
:103AD000504610F079FA47485749026801F118003A
:103AE000FEF79CFB45485549026801F11800FEF7B6
:103AF00095FB44485249026801F11800FEF78EFB1D
:103B000042485049026801F11800FEF787FB44481B
:103B10004D49026801F11800FEF780FB4B484C4903
:103B2000026801F11800FEF779FB40E0BDF90810CA
:103B3000BDF90A20881800EBD071491009B2ADF820
:103B40000810BDF908004FF48041C1EBC03B5A4654
:103B50002A48016827480068FEF764FC83465A46F5
:103B60002A48016827480068FEF75CFC83465A46ED
:103B7000364801682A480068FEF754FC83465846D8
:103B800014F020FA009014F051F80646314A324BF6
:103B900013F0E2FC04460022254B13F029FA80467C
:103BA00013F0BAFB014601901148FEF7D8FC5346CA
:103BB0000222114602A812F0D1F80228B6D00C4811
:103BC000FEF7F9FC254900E00FE04860504610F090
:103BD000EDFA22494868104914F054FA044614F0EA
:103BE000D1F980B205B0BDE8F08F0020FAE70000FF
:103BF00008DB0020E8050020F8010020EC0500208B
:103C000028020020F005002018030020F405002001
:103C10004803002044DB00200000C8427803002055
:103C2000F8050020F8040020D122DBF97EEA3440B8
:103C300000C0724050DB0020D800002008010020A6
:103C400088050020B805002028050020FC0500207C
:103C50005805002085EB51B81EB978405CDB002088
:103C600010B54FF40061A34801F0CBFC30B9A24875
:103C7000007840F00100A049087005E09E480078F7
:103C800020F001009C4908704FF480719B4801F0BE
:103C9000B8FC30B99848007840F0020096490870A6
:103CA00005E09548007820F0020093490870012152
:103CB000904801F0A6FC30B98F48007840F004002D
:103CC0008D49087005E08C48007820F004008A498E
:103CD00008704FF48061874801F093FC30B9864842
:103CE000007840F008008449087005E082480078B8
:103CF00020F008008049087002217E4801F081FC14
:103D000030B97D48007840F010007B49087005E02C
:103D10007948007820F010007749087076480078DC
:103D20007749097888427DD076480078002879D193
:103D30007348007800F0010050B96F48007800F037
:103D4000010028B17048006840F001006E49086029
:103D50006B48007800F0020002280BD0664800781B
:103D600000F00200022805D16748006840F0020018
:103D7000654908606248007800F0040004280BD010
:103D80005D48007800F00400042805D15E48006812
:103D900040F004005C4908605948007800F00800D1
:103DA00008280BD05448007800F00800082805D1F6
:103DB0005548006840F008005349086050480078B2
:103DC00000F0100010280BD04B48007800F01000D5
:103DD000102805D14C48006840F010004A4908609E
:103DE0004748007800F0010050B14348007800F0E7
:103DF000010028B94448006840F0200042490860AA
:103E00003F48007800F0020002280DD13A480078BF
:103E100000F00200022807D03B48006840F0400054
:103E2000394900E03DE008603548007800F00400C2
:103E300004280BD13048007800F00400042805D095
:103E40003148006840F080002F4908602C48007815
:103E500000F0080008280BD12748007800F008007F
:103E6000082805D02848006840F48070264908607A
:103E70002348007800F0100010280BD11E4800786D
:103E800000F01000102805D01F48006840F40070B2
:103E90001D49086018480078194908701E20194902
:103EA000087018480078002804DD16480078401E85
:103EB0001449087010BD014613480068084030B12D
:103EC000114800688843104A1060002070470120A4
:103ED000FCE70D49096881430B4A116070470146B0
:103EE000054800780840002801DD002070470120C7
:103EF000FCE70000000C014000060020001001401B
:103F000001060020080600200406002070B50446C3
:103F10001D2C01D3002070BDA84800EBC40080799F
:103F200002282ED100F0A8F91CB9012000F052FAA5
:103F3000F1E7012C0ED1032000F04CFA05460220D7
:103F400000F048FA00EBC00101EB001005EB800027
:103F500080B2E0E7022C0ED1052000F03BFA0546C6
:103F6000042000F037FA00EBC00101EB001005EB74
:103F7000800080B2CFE7032C03D1062000F02AFA9C
:103F8000C9E70D2C02D14FF4AA70C4E78C4830F871
:103F90001400C0E773B504461D2C01D300207CBD7E
:103FA000864800EBC4004088BDF80410884204DA5B
:103FB000824800EBC40040880190804830F834000B
:103FC000BDF80410884203DD7C4830F834000190CD
:103FD0007A4800EBC4008079012814D1022000EB5C
:103FE000440081B2022301AA002000F043FC74487F
:103FF00000EB4402022000EB440081B202230020C7
:1040000000F022FC50E06D4800EBC40080790228EB
:1040100045D100F031F924B9BDF80410012000F0B9
:104020008BF9012C15D1BDF80400642190FBF1F04F
:1040300085B22946022000F07FF9BDF80400642112
:1040400090FBF1F201FB120085B22946032000F03B
:1040500073F9022C19D1BDF80400642190FBF1F032
:1040600085B22946042000F067F9BDF804006421F8
:1040700090FBF1F201FB120085B22946052000F009
:104080005BF90021062000F057F9032C04D1BDF89C
:104090000410062000F050F900F0FCF804E0BDF830
:1040A0000410474820F81410454830F81400BDF8B3
:1040B0000410884201D0002071E701206FE7002042
:1040C00007E03E4901EBC0018A883D4921F81020F4
:1040D000401C1D28F5D37047F8B5012600243CE0AC
:1040E000364800EBC4008079012835D1022000EB6E
:1040F0004405334800EB4402A9B20223002000F03B
:10410000A3FB2F4830F814002C4901EBC401498867
:10411000884207DC2A4830F81400284931F8341066
:10412000884219DA254800EBC400021DA9B2022317
:10413000002000F09FFBA9B202236A46002000F095
:1041400083FB1E4800EBC4008088BDF80010884245
:1041500001D0002600E00126641C1D2CC0D330468F
:10416000F8BD10B5FFF7ABFF0223154A921E0021E0
:10417000084600F069FB1248801E0088B0F5D35F46
:1041800019D04FF4D3500E49891E08803C230A46AB
:104190000021084600F06EFB0223094A921E00210E
:1041A000084600F051FB0648801E0088B0F5D35F3A
:1041B00001D0002010BDFFF78FFFFBE76E830208E0
:1041C0006ADB002010B500209B49086048608860C9
:1041D0000120C8600020086146204861084610F0B0
:1041E000A6F9044601F03CFD204601F006FD01F071
:1041F00037FD10BD10B501214FF0C05000F0E5FEB5
:104200008E48FCF7A7F8012002F031FD042002F0EF
:10421000F6FC4AF6AA21884228D002F0BBFC012015
:1042200000F033FE00BF412000F097FD0028FAD0D7
:104230004FF4807000F045FE012000F048FE01F0D0
:1042400018FD01F00DFD0121084601F0ADFC47F617
:10425000FF7001F0DFFC01F003FDFFF7B3FF4AF64A
:10426000AA21042002F0BFFC002010BD01F001FDD6
:1042700001F0F6FC0120F8E738B501F0B5FC00903C
:10428000684610F02FF904462C2221466A4810F0A7
:104290003BF838BD10B5684810F049F9044601F004
:1042A000DFFC204601F0A9FC01F0DAFCFFF7E4FF97
:1042B00010BD40F26C71884204DBA0F26C715E4A62
:1042C000516103E040F26C715B4A516170470C2808
:1042D00001DD0C2002E0012800DA0120411E564ACF
:1042E000116170471F2803DD1F21534AD16007E089
:1042F000012803DA0121504AD16001E04E49C8602B
:104300007047172803DD17214B4A916001E04A49A5
:10431000886070473B2803DD3B21474A516001E03C
:104320004549486070473B2803DD3B21424A116004
:1043300001E0414908607047072848D2DFE800F0F3
:104340004704121D2C353E0040F26C72914204DB92
:10435000A1F26C72384B5A6103E040F26C72364B3A
:104360005A6135E00C2901DD0C2102E0012900DA57
:1043700001214A1E304B1A612AE01F2903DD1F224A
:104380002D4BDA6007E0012903DA01222A4BDA60BB
:1043900001E0294AD1601BE0172903DD1722264BD3
:1043A0009A6001E0244A916012E03B2903DD3B2240
:1043B000214B5A6001E0204A516009E03B2903DDAE
:1043C0003B221D4B1A6001E01B4A116000E000BF58
:1043D00000BF70470146072920D2DFE801F01F0423
:1043E0000A0F13171B001448808A00F26C7080B209
:1043F00070471148008A401C80B2F9E70E48808956
:1044000080B2F5E70C48008980B2F1E70A4880885D
:1044100080B2EDE70848008880B2E9E70020E7E7CE
:1044200010B5012001F037FC012803D101F03EFC5A
:10443000012010BD0020FCE7A4DB0020400D03009C
:10444000FD48806940F00100FB49886108468069A9
:1044500040F004008861F948006840F44030F749B2
:1044600008600846006820F4402008601020F349E6
:1044700010310860F148006840F44010EF490860CE
:104480000846006820F4400008600846006840F4D0
:10449000000008600846006820F040700860084688
:1044A000006820F0406008600846006840F0006046
:1044B00008604020E14910310860E048006840F0A1
:1044C0004050DE4908600846006820F0404008601F
:1044D0000846006840F000400860D748806940F412
:1044E0008050D54988610020D54988800420088003
:1044F0000846008840F0100008800846008840F414
:10450000807008800846008840F4007008800846E3
:10451000008840F0400008807047014600BFC8484E
:10452000008900F002000028F9D0C548818100BF51
:10453000C348008900F001000028F9D0C0488089F4
:10454000C0B2704770B502460B460026BD480078E1
:1045500020B9112A01D0182A00D15B024FF4801033
:10456000B6491031086042F04000FFF7D6FF180E40
:10457000FFF7D3FFC3F30740FFF7CFFFC3F30720D5
:10458000FFF7CBFFD8B2FFF7C8FF082A03D1872077
:10459000FFF7C3FF02E09520FFF7BFFF05E03046BD
:1045A000711CCEB2FE2800DD05E0FF20FFF7B5FF4D
:1045B0000446FF28F3D000BFC4B93A2A16D1FF2021
:1045C000FFF7ABFF054605F0400018B101209D49FB
:1045D000087002E000209B490870FF20FFF79DFF54
:1045E000FF20FFF79AFFFF20FFF797FFFF20FFF75D
:1045F00094FF1020914910310860204670BDF0B53D
:1046000002270024FFF71CFF10208C49103108609E
:10461000002504E0FF20FFF780FF681CC5B20A2DCB
:10462000F8DB4FF4801085491031086006E0204621
:10463000611C8CB2202801DD0220F0BD002108465B
:10464000FFF780FF0128F2D110207C49103108606B
:10465000FF20FFF762FFFF20FFF75FFF002406E067
:104660002046611C8CB2FE2801DD012706E04FF4D4
:10467000D5710820FFF766FF0128F1D100BF0024A3
:1046800000BF00213720FFF75DFF06464FF0804155
:104690002920FFF757FF0646601C84B240F6FE70E3
:1046A000844201DD0120C8E7002EEAD10024002069
:1046B00064490870022F0DD105E02046611C8CB2C0
:1046C000FE2800DD05E000213A20FFF73BFF00282F
:1046D000F3D100BF0020B0E701F0800070477047C1
:1046E00070477047704770472DE9F04107460C4608
:1046F0004FF0000839461820FFF724FF08B1BDE845
:10470000F0814FF480104D4910310860FE20FFF712
:1047100004FF002605E014F8010BFFF7FEFE701CF5
:1047200086B2B6F5007FF6DBFF20FFF7F6FEFF202E
:10473000FFF7F3FEFF20FFF7F0FE054605F01F0030
:10474000052804D010203D4910310860D7E70CE05F
:104750004046411C1FFA81F84FF6FE71884204DD85
:104760001020364910310860C9E7FF20FFF7D5FE59
:104770000028EDD01020314910310860FF20FFF7EC
:10478000CCFE4FF480102D49103108600CE04046FB
:10479000411C1FFA81F84FF6FE71884204DD10209B
:1047A000264910310860AAE7FF20FFF7B6FE00286F
:1047B000EDD0102021491031086000BF9FE770B58F
:1047C00006460C46002531461120FFF7BBFE00B11E
:1047D00070BD4FF480101949103108600BE0284675
:1047E000691C8DB24FF6FE71884204DD102013491A
:1047F00010310860ECE7FF20FFF78FFEFE28EED1B6
:10480000002506E0FF20FFF788FE04F8010B681C76
:1048100085B2B5F5007FF5DBFF20FFF77EFEFF20B8
:10482000FFF77BFEFF20FFF778FE102003491031D1
:10483000086000BFCCE70000001002400008014003
:10484000003001400C0600202DE9F04107460C46DF
:1048500016461D4614493846FFF7B1FF6019B0F5FA
:10486000007F05DC104801192A4630460FF007FD8D
:10487000BDE8F0812DE9F04107460C4616461D467D
:1048800009493846FFF79BFF6019B0F5007F05DC4A
:10489000054908192A4631460FF0F1FC024938460D
:1048A000FFF722FFBDE8F081D0DB002000B585B026
:1048B0006548006830B965A165A00FF050FC6249F9
:1048C000086009E0604800680FF070FC5FA160A01C
:1048D0000FF045FC5C4908605B48006878B16A46A7
:1048E0005EA1594800680FF0E5FA574800680FF0DC
:1048F0005DFC56A168460FF032FC53490860002069
:1049000005B000BD10B55048006818B14E480068A9
:104910000FF04CFC10BD70B505460C464A480068C7
:1049200010B94FF0FF3070BD2022102128460FF043
:104930001DFD14B94FF0FF30F5E7601E01010022A4
:10494000414800680FF040FB3F48102201210368F6
:10495000284611F003FA10280AD1287830B910211E
:1049600028460FF00BFD4FF0FF30DCE70020DAE7C0
:104970004FF0FF30D7E730B5ADF27C6D0024002555
:1049800007F0FEF83648FBF7E5FC04F078FC72B659
:1049900071B6012233A168460DF0D2FA0A2232A183
:1049A0000DF58B600DF0F7FA32A22CA10DF58B609E
:1049B0000EF0A7FF0DF58B6100200EF05DFF0124C6
:1049C0000CE023462FA231A10DF58B600EF099FF6C
:1049D000E0B20DF58B610EF04FFF641CB4F57A7FE9
:1049E000EFDBDDF864540DF58B600DF0A4FD2122A2
:1049F00001211DA00EF0B7F90A2228A10DF58B6048
:104A00000DF0C9FA28A215A10DF58B600EF079FF03
:104A10000DF58B600DF08FFD0A2225A18DA80DF0FC
:104A2000BAFA21A20DA18DA80EF06BFF8DA80DF092
:104A300082FD00220BA110460DF082FA62B661B62B
:104A400028460DF27C6D30BD10060020720000007B
:104A50004D3A5C526F61642E6C6F670025730000E5
:104A6000A0860100303A0000303A526F61642E3067
:104A700000000000E1E5E720ECE0F0F8F0F3F2E000
:104A800020202000F2EEF7EAE00000002573202548
:104A9000303375202020202020000000303A526F53
:104AA00061642E6C6F670000526F61642E300000ED
:104AB000303A526F6164732E747874000CB5002024
:104AC000019000904848006840F4803046490860F2
:104AD00000BF4548006800F4003000900198401C79
:104AE0000190009818B90198B0F5A06FF1D13E4837
:104AF000006800F4003010B10120009001E00020B7
:104B000000900098012844D13848006840F0100017
:104B1000364908600846006820F00300086008462F
:104B2000006840F0020008602F4840682E49486045
:104B30000846406848600846406840F48060486025
:104B40000846406820F47C1048600846406840F4FD
:104B5000E81048600846006840F08070086000BFB8
:104B60002148006800F000700028F9D01E48406815
:104B700020F003001C4948600846406840F00200ED
:104B8000486000BF1848406800F00C000828F9D1C0
:104B900001E000BFFEE70CBD10B5FFF78FFF10BDB1
:104BA00010B51148006840F001000F490860084640
:104BB00040680F4908400C494860084600680D49A4
:104BC0000840094908600846006820F48020086011
:104BD0000846406820F4FE0048604FF41F008860DB
:104BE000FFF7DAFF10BD0000001002400020024075
:104BF0000000FFF8FFFFF6FE31490143314A116022
:104C0000704770B5002100230F22C47804B32D4CE7
:104C1000246804F4E064C4F5E064210AC1F10403EB
:104C2000CA40447804FA03F184781440214309010E
:104C3000254C0678A155047804F01F050124AC40EA
:104C400005786D11AD0005F1E025C5F8004109E0DA
:104C5000047804F01F050124AC401C4D0678761141
:104C600045F8264070BD1A4A0A400243154B1B1FE7
:104C70001A60704739B1134A121D12680243114B72
:104C80001B1D1A6006E00F4A121D126882430D4B6D
:104C90001B1D1A607047042808D14FF0E0210969F4
:104CA00041F004014FF0E022116107E04FF0E021F4
:104CB000096921F004014FF0E02211617047000002
:104CC0000000FA050CED00E000E400E080E100E007
:104CD00080FFFF1FDF48006840F00100DD490860E9
:104CE00008464068DC490840DA49486008460068E0
:104CF000DA490840D74908600846006820F4802057
:104D000008600846406820F4FE0048604FF41F0029
:104D100088607047CF49096821F48031CD4A11601D
:104D20001146096821F480211160B0F5803F03D05D
:104D3000B0F5802F0ED106E0C649096841F48031F4
:104D4000C44A116007E0C349096841F4A021C14A7F
:104D5000116000E000BF00BF704710B5014600229F
:104D6000002300204A11012A02D1BA4C236806E030
:104D7000022A02D1B74C236A01E0B64C636A01F003
:104D80001F02012494401C400CB1012000E00020CF
:104D900010BD38B5002000900024002500BF312050
:104DA000FFF7DBFF05460098401C00900098B0F527
:104DB000A06F01D0002DF2D03120FFF7CEFF08B157
:104DC000012400E00024204638BD01460020A14A0D
:104DD000106820F0F80040EAC10010607047A04958
:104DE00008607047024600209A4B586820F47C10F7
:104DF00042EA01031843974B586070479849086688
:104E0000704701460020934A506820F00300084391
:104E1000506070478F48406800F00C0070470146B2
:104E200000208C4A506820F0F00008435060704722
:104E300001460020874A506820F4E0600843506033
:104E4000704701460020834A506820F4605040EAD1
:104E5000C1005060704729B17E4A527A02437D4BAF
:104E60005A7204E07B4A527A82437A4B5A727047F4
:104E70007B49D8310860704701460020754A506868
:104E800020F440400843506070470021714A2032AE
:104E90001170704A82F82010012802D004280AD12B
:104EA00004E001216B4A2032117005E00521694AB6
:104EB0002032117000E000BF00BF704769490860F0
:104EC00070476449096A0143624A11627047654943
:104ED00044390860704730B50021002200240023C7
:104EE0005C4D6D6805F00C0121B1042905D008293D
:104EF00023D105E05C4D056022E05B4D05601FE0BD
:104F0000544D6D6805F47012524D6D6805F480348F
:104F1000022505EB92421CB9544D554305600BE048
:104F20004C4D6D6805F400351DB1504D554305607D
:104F300002E04D4D5543056002E04B4D056000BF5A
:104F400000BF444D6D6805F0F0010909484D6B5CE8
:104F50000568DD4045603F4D6D6805F4E061090A74
:104F6000434D6B5C4568DD4085603A4D6D6805F4E6
:104F70006051C90A3E4D6B5C4568DD40C560354DEA
:104F80006D6805F44041890B3A4D6B5CC568B5FB13
:104F9000F3F5056130BD29B12E4A526902432D4B0C
:104FA0005A6104E02B4A526982432A4B5A61704786
:104FB00029B1284A92690243264B9A6104E0254AA6
:104FC00092698243234B9A61704729B1214AD26981
:104FD0000243204BDA6104E01E4AD26982431D4B32
:104FE000DA61704729B11B4AD2680243194BDA6073
:104FF00004E0184AD2688243164BDA60704729B140
:10500000144A12690243134B1A6104E0114A1269EF
:105010008243104B1A61704712494039086070474B
:105020000F49C86470470B49C87170470948406A06
:1050300040F0807007494862704701460020054AE9
:1050400092680A400AB1012000E00020704701493F
:1050500088727047001002400000FFF8FFFFF6FE64
:10506000000042428004424200127A0000093D00E2
:10507000140600202406002010B50446E2488442AD
:1050800009D101218803FFF7ADFF00214FF48040D3
:10509000FFF7A8FF32E0DD48844209D1012148042E
:1050A000FFF7ADFF00214FF40030FFF7A8FF25E028
:1050B000D748844209D101218804FFF7A0FF0021CD
:1050C0004FF48020FFF79BFF18E0D248844209D1BB
:1050D0000121C804FFF793FF00214FF40020FFF7E0
:1050E0008EFF0BE0CC48844208D101210805FFF770
:1050F00086FF00214FF48010FFF781FF10BD2DE9DE
:10510000F04786B005460E460024A24600BF00BF09
:105110000027B08900B100BF2F462C8A4CF6FF70E3
:105120000440F08804432C82AC894EF6F31004400E
:10513000B08831890843718908430443AC81AC8A43
:105140004FF6FF400440B0890443AC8201A8FFF74A
:10515000C2FEAD48874202D1DDF810A001E0DDF8C3
:105160000CA00AEBCA0000EB0A1031688900B0FB02
:10517000F1F86420B8FBF0F004012009642101FB80
:105180001089322000EB0910B0FBF1F000F00F00A5
:1051900004432C8106B0BDE8F0874FF4165101603E
:1051A00000218180C18001810C2141810021818108
:1051B000704710B502460020108A4FF2FF031840D6
:1051C0000B884C8823438C882343CC882343184383
:1051D000108210BD0021018041808180C180704714
:1051E00021B1828942F40052828104E082894DF625
:1051F000FF731A4082817047F0B5034600240026F1
:105200000025002040F66A17B94200D100BF1846B9
:10521000C1F3421401F01F06012707FA06F5012C1D
:1052200001D10C3004E0022C01D1103000E0143028
:105230001AB107682F43076002E00768AF430760B1
:10524000F0BD1AB1838A0B43838202E0838A8B43C9
:1052500083827047028A4FF6F0731A400282028AF4
:105260000A430282704782894FF2FF731A4082819B
:1052700082890A438281704721B1828942F0020209
:10528000828104E082894FF6FD731A408281704763
:10529000028A4FF6DF731A400282028A0A430282B0
:1052A000704721B1028A42F48042028204E0028AFD
:1052B0004BF6FF731A4002827047C1F308028280E6
:1052C000704701468888C0F308007047818941F023
:1052D000010181817047028BD2B20283028B42EAC4
:1052E000012202837047028B02F47F420283028B09
:1052F0000A430283704721B1828A42F020028282EF
:1053000004E0828A4FF6DF731A408282704721B12F
:10531000828A42F01002828204E0828A4FF6EF73A2
:105320001A408282704721B1828A42F0080282824A
:1053300004E0828A4FF6F7731A4082827047828AAD
:105340004FF6FB731A408282828A0A438282704738
:1053500021B1828A42F00202828204E0828A4FF600
:10536000FD731A408282704702460020B1F5007F2B
:1053700000D100BF13880B400BB1012000E00020DA
:10538000704701F40072B2F5007F00D100BFCA433C
:105390000280704770B502460024002300250020DB
:1053A00040F66A16B14200D100BFC1F3421501F0C8
:1053B0001F03012606FA03F3012D02D1968933401B
:1053C00006E0022D02D1168A334001E0968A33406E
:1053D0000C12012606FA04F41688344013B10CB1FD
:1053E000012000E0002070BD10B50022002340F62F
:1053F0006A14A14200D100BF0A1201249440A3B252
:10540000DC43048010BD000000380140004400402F
:1054100000480040004C00400050004010B50446D9
:10542000C448844208D101210420FFF7DBFD00219C
:105430000420FFF7D7FD46E0BF48844208D1012190
:105440000820FFF7CFFD00210820FFF7CBFD3AE051
:10545000BA48844208D101211020FFF7C3FD002182
:105460001020FFF7BFFD2EE0B548844208D101218E
:105470002020FFF7B7FD00212020FFF7B3FD22E039
:10548000B048844208D101214020FFF7ABFD002144
:105490004020FFF7A7FD16E0AB48844208D1012168
:1054A0008020FFF79FFD00218020FFF79BFD0AE091
:1054B000A648844207D101218015FFF793FD002102
:1054C000A015FFF78FFD10BD10B501210846FFF7AD
:1054D00089FD00210120FFF785FD10BD2DE9F04178
:1054E000024600250026002000230024002791F812
:1054F00003C00CF00F0591F803C00CF0100CBCF1C8
:10550000000F03D091F802C04CEA050591F800C0E5
:10551000BCF1000F31D0146800202BE04FF0010CDB
:105520000CFA00F3B1F800C00CEA03069E4220D149
:1055300083004FF00F0C0CFA03F7BC4305FA03FC91
:105540004CEA040491F803C0BCF1280F06D14FF0D7
:10555000010C0CFA00FCC2F814C00AE091F803C078
:10556000BCF1480F05D14FF0010C0CFA00FCC2F859
:1055700010C0401C0828D1D31460B1F800C0BCF1A1
:10558000FF0F34DD546800202EE000F1080C4FF0CE
:10559000010808FA0CF3B1F800C00CEA03069E42B9
:1055A00021D183004FF00F0C0CFA03F7BC4305FA2E
:1055B00003FC4CEA040491F803C0BCF1280F05D1A8
:1055C00000F1080C08FA0CF8C2F8148091F803C036
:1055D000BCF1480F07D100F1080C4FF0010808FAA0
:1055E0000CF8C2F81080401C0828CED35460BDE8E7
:1055F000F0814FF6FF710180022181700421C1709A
:1056000070470246002093680B400BB1012000E078
:10561000002070470146886880B27047024600202B
:10562000D3680B400BB1012000E000207047014619
:10563000C86880B2704701617047416170470AB124
:10564000016100E041617047C16070474FF48032F2
:105650000A43826181618261826982697047024680
:1056600000203B4B18684FF68073184040EA021048
:105670000843374B186070473649C8617047F0B52A
:105680000A460023002400210025314E7168C0F332
:10569000034583B200F44016B6F5401F08D121F04F
:1056A00070612B4E766826F07066294F7E6012E09E
:1056B00000F48016B6F5801F06D1032606FA05F41D
:1056C000A14341F0706106E0460D360103FA06F68B
:1056D000B14341F0706122B1460D360103FA06F67E
:1056E00031431B4E7160F0BD30B500228B071C0F9B
:1056F0000F2303FA04F2164B08338C1053F82430AE
:105700009343134C08348D1044F8253023468C10F5
:1057100053F824308C07240F00FA04F423430C4C74
:1057200008348D1044F8253030BD0A49DC3108605A
:105730007047000000080140000C014000100140CB
:105740000014014000180140001C014000200140ED
:10575000000001400000204210B50446FA4884428F
:1057600008D101214015FFF73DFC00216015FFF72E
:1057700039FC17E0F548844208D101210015FFF7F4
:1057800031FC00212015FFF72DFC0BE0F04884428E
:1057900008D10121C803FFF725FC00214FF4004088
:1057A000FFF720FC10BD30B50246002000235068F2
:1057B000E84C20400D790C6844EA052420435060F1
:1057C0009068E54C2040D1E902542C434D7944EADD
:1057D000450420439060D06A20F470000C7C641E65
:1057E000E4B2234340EA0350D06230BD002101609F
:1057F000017141718160C16001210174704721B163
:10580000826842F00102826003E0826822F00102B5
:105810008260704721B1826842F48072826003E046
:10582000826822F480728260704710B50023CBB288
:105830001AB144681C43446002E044689C434460DD
:1058400010BD816841F00801816070470146002069
:105850008A6802F008020AB1012000E000207047C7
:10586000816841F0040181607047014600208A6828
:1058700002F004020AB1012000E00020704721B1CB
:10588000826842F4A002826003E0826822F4A002EF
:1058900082607047014600208A6802F480020AB1E3
:1058A000012000E00020704710B50A4600210023C7
:1058B000416821F46041531E41EA4331416010BD0B
:1058C00021B1426842F40062426003E0426822F47F
:1058D000006242607047F0B504460D46002000218A
:1058E000092D11DDE068A5F10A0606EB460707263B
:1058F00006FA07F18843A5F10A0606EB460603FA05
:1059000006F10843E0600CE0206905EB4507072637
:1059100006FA07F1884305EB450603FA06F108434A
:105920002061072A0FDA606B561E06EB86071F26DA
:1059300006FA07F18843561E06EB860605FA06F1BD
:105940000843606322E00D2A0FDA206BD61F06EBB6
:1059500086071F2606FA07F18843D61F06EB860640
:1059600005FA06F10843206310E0E06AA2F10D0693
:1059700006EB86071F2606FA07F18843A2F10D06FB
:1059800006EB860605FA06F10843E062F0BD21B198
:10599000826842F48012826003E0826822F48012FE
:1059A000826070470146C86C80B2704766484C30D0
:1059B0000068704721B1426842F48062426003E0AF
:1059C000426822F480624260704721B1426842F42A
:1059D0008052426003E0426822F480524260704785
:1059E0000A460021816821F4E0411143816070473B
:1059F00021B1826842F40042826003E0826822F4AE
:105A000000428260704721B1826842F402128260D3
:105A100003E0826822F4021282607047014600208F
:105A20008A6802F400120AB1012000E000207047E9
:105A3000F0B504461546002000220026092911DD94
:105A4000E068A1F10A0707EB470C072707FA0CF2F9
:105A50009043A1F10A0707EB470703FA07F2104347
:105A6000E0600CE0206901EB410C072707FA0CF21B
:105A7000904301EB410703FA07F210432061A06B4A
:105A8000C0F30156EF1C06F1010CA7EB0C0707EB66
:105A9000870C1F2707FA0CF29043EF1C06F1010C4C
:105AA000A7EB0C0707EB870701FA07F21043A06387
:105AB000F0BD10B50A4600210023816B21F440118E
:105AC000531E41EA0351816310BD08B500230093C2
:105AD0000090009B0B440093009B1A6008BD08B522
