:020000040801F1
:10000000D0EE002055780108D1220108D322010842
:10001000D7220108DB220108DF22010800000000CE
:10002000000000000000000000000000E3220108C2
:10003000E522010800000000E7220108E92201088A
:100040006B7801086B7801086B7801086B78010800
:100050006B7801086B7801086B7801086B780108F0
:100060006B7801086B7801086B7801086B780108E0
:100070006B7801086B7801086B7801086B780108D0
:100080006B7801086B7801086B7801086B780108C0
:10009000D58501086B7801086B78010849080108CB
:1000A0006B7801086D3101086B7801086B780108E5
:1000B0006B7801086B7801086B7801086B78010890
:1000C0006B7801086B7801086B7801086B78010880
:1000D0006B7801086B780108F12201086B78010840
:1000E0006B7801086B7801086B78010800F002F862
:1000F00000F085F80AA090E8000C82448344AAF13D
:100100000107DA4501D100F07AF8AFF2090EBAE83A
:100110000F0013F0010F18BFFB1A43F0010318473B
:10012000400002006000020010F8013B0A4413F096
:10013000030408BF10F8014B1D1108BF10F8015B44
:10014000641E05D010F8016B641E01F8016BF9D133
:10015000002D15D010F8014B03F00C030C2BA1EB74
:1001600004040ABF10F8013BA4EB8314A4EB03249E
:1001700005F1010314F8016B5B1E01F8016BF9D561
:10018000914238BF10F8013BD1D3704700230024BF
:1001900000250026103A28BF78C1FBD8520728BF97
:1001A00030C148BF0B607047662919F0508664293A
:1001B00015F0DA83752915F0D783632916F01984B1
:1001C000732916F01E84002070471FB59DE80300B8
:1001D00016F07EFD16F060FD04000020002118F0EE
:1001E000B1FB401C60600020002118F095FBE0602E
:1001F00017F040F81FBD10B517F0A5F810BD17F0A7
:10020000D5F81146FFF7E1FF01F055FC17F000FCAF
:1002100003B4FFF7F0FF03BC08F00EFBEFF3098017
:10022000704780F309887047EFF30880704780F3C8
:100230000888704740BA7047C0BA704710B50028A8
:1002400007DA0A07140EFE4A00F00F031B1FD454EE
:1002500003E00A07130EFB4A135410BD10B5044601
:10026000B4F1807F01D3012010BD24F07F40401EF7
:100270004FF0E02148610F214FF0FF30FFF7DEFF24
:1002800000204FF0E0218861072008610020EBE7A3
:1002900010B507F02EF8EC480068401CEA490860E9
:1002A0000DF075FC03F000FFE8480068052802D156
:1002B0000020E6490860E6480078012809D10421B9
:1002C000E44805F082FC20B9E3480068401EE2499A
:1002D0000860E248008838B94FF47A70DF49088036
:1002E0000120DF49087004E0DC480088401EDB493B
:1002F0000880DC480068B0F57A7F0DD10020D9492C
:100300000860D9480068401CD7490860D748006891
:10031000401CD649086004E0D2480068401CD1491E
:100320000860D14800681E2802D10020CE4908602C
:10033000CE480068CE49884202D10020CB490860EF
:10034000C2480068401CC1490860CA4800680A28C1
:1003500005D115F0E8F90020C649086004E0C54859
:100360000068401CC349086010BDC348806940F064
:100370001000C1498861C148406840F48030BF49DD
:100380004860704700E0401E0028FCDC704710B554
:100390000446C4B1B848406800F00C00082824D0D6
:1003A000B548406820F00300B349486008464068FB
:1003B00040F00200486000BFAF48406800F00C0009
:1003C0000828F9D111E0AC48406800F00C0060B199
:1003D000A948406820F00300A749486000BFA6482C
:1003E000406800F00C000028F9D11CB1A448FFF7C8
:1003F00035FF03E04FF4FA50FFF730FF10BD08B5AA
:100400000121052005F0B8F80120ADF8000010200A
:100410008DF8030003208DF8020069468D4805F031
:1004200041FB0220ADF8000000208DF80300694672
:10043000884805F037FB0420ADF8000028208DF82F
:1004400003006946834805F02DFB0820ADF8000045
:1004500000208DF8030069467E4805F023FB10203C
:10046000ADF800008DF8030003208DF80200102184
:10047000784805F0C4FB6946764805F013FBE02098
:10048000ADF8000018208DF8030003208DF802005D
:100490002021704805F0B3FB80216E4805F0AFFBCA
:1004A00069466C4805F0FEFA4FF48070ADF8000024
:1004B00048208DF803006946664805F0F3FA0121EB
:1004C000092005F059F80120ADF8000048208DF80A
:1004D000030069466B4805F0E5FA0220ADF800001C
:1004E00048208DF803006946664805F0DBFA2020B5
:1004F000ADF8000010208DF8030003208DF80200F5
:100500002021604805F07BFB69465E4805F0CAFA89
:100510004020ADF8000010208DF8030003208DF876
:10052000020000224021574805F06DFB69465548FE
:1005300005F0B8FA8020ADF8000010208DF8030017
:1005400003208DF8020080214E4805F058FB6946D3
:100550004C4805F0A7FA4FF48070ADF80000102069
:100560008DF8030003208DF802004FF48071454898
:1005700005F045FB6946434805F094FA4FF40070D6
:10058000ADF8000010208DF8030003208DF8020064
:100590004FF400713B4805F032FB6946394805F0DD
:1005A00081FA4FF48060ADF8000048208DF8030018
:1005B0006946344805F076FA4FF40060ADF8000063
:1005C00048208DF8030069462E4805F06BFA4FF479
:1005D0008050ADF8000010208DF8030003208DF846
:1005E000020000224FF48051264805F00CFB6946BA
:1005F000244805F057FA4FF40050ADF800001820D9
:100600008DF8030003208DF8020000224FF4005102
:100610001C4805F0F8FA69461A4805F043FA4FF409
:100620008040ADF8000018208DF803006946154899
:1006300005F038FA4FF40040ADF80000482023E000
:1006400018ED00E000E400E0040000204400002079
:100650008D00002000080140080000201E0000203E
:1006600022000020380000203C0000204000002034
:10067000A0BB0D0048000020001002400010014007
:1006800040190100000C01408DF803006946FA484A
:1006900005F008FA0121112004F06EFFFF20ADF8EB
:1006A000000010208DF8030003208DF80200FF21C8
:1006B000F24805F0A4FA6946F04805F0F3F94FF462
:1006C0008070ADF8000048208DF803006946EB48C3
:1006D00005F0E8F94FF48060ADF8000010208DF8C7
:1006E000030003208DF8020000224FF48061E348EC
:1006F00005F089FA6946E14805F0D4F94FF4006045
:10070000ADF8000014208DF8030003208DF80200DE
:100710004FF40061D94805F072FA6946D74805F0F0
:10072000C1F94FF44050ADF8000010208DF80300DF
:1007300003208DF802004FF48051D04805F061FA93
:100740004FF40051CD4805F05CFA6946CB4805F0FE
:10075000A9F90121212004F00FFF0420ADF80000C9
:1007600010208DF8030003208DF8020000220421E0
:10077000C34805F048FA6946C14805F093F94FF4BB
:100780000070ADF8000010208DF8030003208DF8F4
:1007900002004FF40071B94805F031FA6946B748D4
:1007A00005F080F94CF25030FFF7ECFD4FF480601B
:1007B000ADF8000010208DF8030003208DF8020032
:1007C0004FF48061AD4805F01AFA6946AB4805F070
:1007D00069F94FF40070ADF8000004208DF80300B3
:1007E0006946A84805F05EF9A748806940F0010015
:1007F000A5498861A5488068A44988600846806842
:100800008860A348006840F40070A1490860A048CF
:100810000C38006840F400709D490C3908600F21C5
:100820001720FFF70BFD172001218140420992009C
:1008300002F1E022C2F8001100BF08BD10B50CF0B3
:10084000D5F80CF0B7F810BD10B504218D4805F0AF
:10085000BCF910B98F48007840B18D480830006865
:1008600040F002008A490831086020E004F000FBF3
:100870000120FFF78CFDFFF7E1FF002401E000BF3E
:10088000641C85488442FAD30122D1027B4805F0DA
:10089000BAF94FF48061794805F0B3F94FF400716B
:1008A000764805F0AEF901E006F023FDFCE710BD47
:1008B00008B526208DF8000000208DF802000120E8
:1008C0008DF80300684604F080FC08BD0246100461
:1008D000B0FBF1F0714B1B681844704B1860184660
:1008E0000068B0EB024F01D3002018606B4800682D
:1008F000000C70472DE9FC414FF47A7425E00CF0B0
:1009000075F8012108460CF09AFA654A002165A0A5
:100910000CF0E5FA012108460CF091FAC4F57A7062
:1009200018F013FB07460022634B18F007F9054641
:100930002A460B4661A1684614F0B2FF584A0021CE
:1009400068460CF0CCFA0CF035F82000A4F1010454
:10095000D5D1BDE8FC812DE9FE4F04464FF00009DA
:10096000CA4600200CF03FF8002021237D221E21E2
:10097000009001200CF099F9204618F0FDFA074686
:10098000504A514B18F08EFB054617F0F1FF824696
:100990000AE000200CF027F8012009F0FF022123D3
:1009A0001E2100900CF081F9484609F1010919F067
:1009B0007BF80546514619F0A3F8EAD9012108460B
:1009C0000CF03DFA364A002140A00CF088FA0121D3
:1009D00067200CF034FA224640A101A814F060FF11
:1009E0002F4A002101A80CF07AFA0BF0E3FFBDE8D2
:1009F000FE8F70B5002503F0D7FF002014F034FC03
:100A000004467CB109E0002014F02EFC044604B931
:100A100007E042F21070FFF7B5FC28466D1C052870
:100A2000F1D300BF0BF06EFE204670BD7CB50025F3
:100A30000026FFF7DEFF0120FFF7A9FC06F059FCB6
:100A40000BF0D4FF02F004FAC6B20020FFF79FFCBF
:100A500006F04FFC0121182003F0E8FC00210C20D7
:100A600003F0E4FC00211A2003F0E0FC01210F2038
:100A700003F0DCFC3C243EE0000C0140001001408F
:100A80000014014000080140001002400000014035
:100A90000C0401402C000020FFFF1F0094000020E8
:100AA0007CB50208D4EEF0ECE0F2E8F0EEE2E0ED26
:100AB000E8E52E2E2E00000000002440252E316691
:100AC00025250000D7A3703D0AD7F33FD4EEF0EC04
:100AD000E0F2E8F0EEE2E0EDE8E53A0025642525F5
:100AE000000000002046FFF736FF4FF4FA70FFF7D2
:100AF00049FC601C44B2502CF4DBFFF77AFF04F091
:100B000020FAC6B2502408E02046FFF724FF4FF435
:100B1000FA70FFF737FC601C44B2642CF4DDF54832
:100B2000FFF730FC0BF062FF012108460CF087F95B
:100B3000F1A1684614F0B4FEF34A002168460CF0B7
:100B4000CEF90C2101200CF07AF9F0A1684614F0DE
:100B5000A7FEED4A002168460CF0C1F90BF02AFF10
:100B600006F0C7FBE348FFF70DFC0021442006F028
:100B70001EFB01207CBD70B50646E74800680028D2
:100B80006DD1E649E648006818F0BAFF28D24FF068
:100B90008041E348006819F0B3F821D2E1480068C9
:100BA000F0B9E1480078D8B90BF020FF14210520F6
:100BB0000CF045F9D44A0021DCA00CF090F91E217C
:100BC00005200CF03CF9D04A0021DDA00CF087F99B
:100BD0000BF0F0FE0120D3490860DD48FFF7D2FB9F
:100BE000D1480078002839D1DA48006818F0C4FDEF
:100BF0000446D94AD94B18F019FA2FD80BF0F6FE53
:100C0000142105200CF01BF9BF4A0021D4A00CF0E0
:100C100066F91E2105200CF012F9BB4A0021D3A071
:100C20000CF05DF90BF0C6FED348FFF7ABFB0BF001
:100C3000DDFE19211C200CF002F9D04A0021D0A0C1
:100C40000CF04DF90BF0B6FEC148FFF79BFB0120FD
:100C5000B44908604102CD4804F0D3FF55E002F0EA
:100C600013F80A2825D802F00FF8022821D9AD4838
:100C70000068F0B9AC480078D8B90BF0B7FE142181
:100C800005200CF0DCF8A04A0021A8A00CF027F900
:100C90001E2105200CF0D3F89B4A0021A8A00CF0DF
:100CA0001EF90BF087FE01209E490860A848FFF757
:100CB00069FB01F0E9FF012827D89B48007820BB99
:100CC0009848006808BB0BF091FE142105200CF039
:100CD000B6F88D4A0021A2A00CF001F91E210520D2
:100CE0000CF0ADF8884A0021A0A00CF0F8F80BF049
:100CF00061FEA748FFF746FB0BF078FE0BF05AFEAB
:100D00004FF40071A14804F07CFF70BD10B51020B5
:100D100003F020FB0446012C06D0022C0AD0042C40
:100D20000ED0082C14D111E0112003F013FB40EA7F
:100D300004240FE0122003F00DFB40EA042409E034
:100D4000132003F007FB40EA042403E0240201E03F
:100D5000002400BF00BF8F480068A04219D0A1B294
:100D60000A2003F063FB8B4804608B48818C0420CD
:100D700003F05CFB8848818D052003F057FB864813
:100D8000818E062003F052FB8348818F072003F0F9
:100D90004DFB10BD70B503F0F7FDA8B303F020FDC7
:100DA000012003F0CBFD04462146002003F03EFB6A
:100DB000032003F0C3FD0546022003F0BFFD00EB56
:100DC000C00101EB001005EB800084B22146012038
:100DD00003F02CFB052003F0B1FD0546042003F0D1
:100DE000ADFD00EBC00101EB001005EB800084B20B
:100DF0002146022003F01AFB062003F09FFD044663
:100E00002146032003F012FB70BD10B5002204211F
:100E1000624804F0F8FE02F0B5FB00210B2003F05D
:100E200005FB082003F096FA40F001042146082053
:100E300003F0FCFA46F2A811594802F08EFB10BDEF
:100E400010B502F0F9FD082003F084FA20F0010447
:100E50002146082003F0EAFA0B2003F07BFA28B9B8
:100E60004D48B0F85C100B2003F0E0FA10BD10B54F
:100E700004464C480078002802DD4B484B49086086
:100E800004214B4804F0A1FE012802D146484749FD
:100E9000086048480078012808D1444800680028C4
:100EA00004DC4FF40071394804F0ABFE10BD2DE9AD
:100EB000FC5F192003F04EFA064618F00DFE0546B9
:100EC0003D4918F0F3FC3D4908600A2003F042FA5E
:100ED00040F20122811A90420BD07CDCB0F5827F77
:100EE0006FD071DCA0F2011010B101286BD184E049
:100EF0007BE0A2E060E31600D4EEF0ECE0F2E8F074
:100F0000EEE2E0EDE8E500007CB50208E7E0E2E5AE
:100F1000F0F8E5EDEE2E00005C000020000020411E
:100F20007C0000203400002014000020C7E0F0FF07
:100F3000E420E0EAEAF3ECF3EBFFF2EEF0E000008D
:100F4000ECE5EDFCF8E520313025202E2E2E0000BA
:100F5000A025260080000020CDCCCCCCCCCC0440F9
:100F6000C0EAEAF3ECF3EBFFF2EEF000F0E0E7F0BA
:100F7000FFE6E5ED2E000000E067350084C30208BF
:100F8000C2DBCACBDED7C5CDC8C50000001001400A
:100F9000404B4C0098000020529E02080014014073
:100FA000080E002010060020C027090008000020BD
:100FB000000801408D00002000007A442400002039
:100FC00009E022E000E098E0B0F5847F25D0B0F59C
:100FD000887F8BD129E001293BD003294ED00729F6
:100FE00061D0B1F5007FF4D172E0F949F9480068A9
:100FF00018F05CFCF749086080E0F549F5480068A6
:1010000018F054FCF349086078E0F149F1480068B1
:1010100018F04CFCEF49086070E0ED49ED480068BD
:1010200018F044FCEB49086068E0E949E9480068C9
:1010300018F03CFCE749086060E0E749E5480068D3
:1010400018F092FD0546E24918F030FCE1490860CD
:1010500054E0E048006818F08FFBE04AE04BCDE92F
:10106000000118F01FF807460022DE4B17F066FD5E
:10107000054617F07DFCD74908603FE0D548006879
:1010800018F07AFBD54AD64BCDE9000118F00AF8E2
:1010900005460022D34B17F051FD074617F068FCB8
:1010A000CC4908602AE0CB48006818F065FB05468B
:1010B000CA4ACB4B17F0F6FF0022CA4BCDE900011C
:1010C00017F03CFD074617F053FCC249086015E0D5
:1010D000C048006818F050FB0746C34AC34B17F0DE
:1010E000E1FF05460022C24B17F028FDCDE90001C3
:1010F00017F03EFCB749086000E000BF00BFBD48E4
:1011000001F03BFC0546B3480168284618F02CFD69
:1011100081460A2003F01EF940F20121884211D1D4
:101120004946484618F020FDB349019018F01AFED0
:10113000834618F021FB074617F0C7FB054617F05A
:1011400017FC8146484618F08FFC85B229460420DA
:1011500003F06CF9A74801F02CFC8246A54801F089
:1011600033FC0546A54918F0FFFC044621465046CD
:1011700018F0C6FC00D2A24696480168504618F006
:10118000F3FC82460A2003F0E5F840F201118842A0
:101190000ED14FF08141504618F0B2FD06D24FF00B
:1011A0008141504618F0DEFD824601E04FF0000A12
:1011B0000A2003F0CFF8B0F5817F0ED14FF08141C6
:1011C000504618F09DFD06D24FF08141504618F070
:1011D000C9FD824601E04FF0000A0A2003F0BAF888
:1011E000B0F5827F0CD18649504618F089FD05D2B2
:1011F0008349504618F0B6FD824601E04FF0000AE0
:101200000A2003F0A7F8B0F5847F0CD17D49504641
:1012100018F076FD05D27B49504618F0A3FD8246B2
:1012200001E04FF0000A0A2003F094F840F2012197
:1012300088420CD17449504618F062FD05D27249BB
:10124000504618F08FFD824601E04FF0000A0A2058
:1012500003F080F840F2022188420ED14FF0824123
:10126000504618F04DFD06D24FF08241504618F01E
:1012700079FD824601E04FF0000A0A2003F06AF887
:10128000B0F5017F0ED14FF08241504618F038FD85
:1012900006D24FF08241504618F064FD824601E0CC
:1012A0004FF0000A0A2003F055F8B0F5027F0CD188
:1012B0005649504618F024FD05D25449504618F0BE
:1012C00051FD824601E04FF0000A0A2003F042F887
:1012D00040F2014188420CD14D49504618F010FDB2
:1012E00005D24B49504618F03DFD824601E04FF0D3
:1012F000000A504618F0B8FB85B22946052003F0D5
:1013000095F84349484618F0FBFC05D2494650463B
:1013100018F0CCFA824601E04FF0000A3D495046F1
:1013200018F022FC064618F09FFB85B229460720DC
:1013300003F07CF82F4801F052FB05462548016870
:10134000284618F011FC82460021504618F0D8FBC0
:1013500001D24FF0000A0A2002F0FCFF40F2011116
:1013600088420ED14FF08241504618F0C9FC06D297
:101370004FF08241504618F0F5FC824601E04FF0F4
:10138000000A0A2002F0E6FFB0F5817F0ED14FF08F
:101390008241504618F0B4FC06D24FF082415046CC
:1013A00018F0E0FC824601E04FF0000A0A2002F04B
:1013B000D1FFB0F5827F31D11249504618F0A0FC20
:1013C0002AD21049504618F0CDFC824626E0000093
:1013D00000004040240000200000E442D122DBF95C
:1013E0007EEA34400000084085EB51B81EB97840D1
:1013F00000C0724068D100200000C843000080BFD8
:101400000000E0400000604100008C4200002041EC
:101410000000A0400000C8424FF0000A0A2002F07D
:1014200099FFB0F5847F0CD1FE49504618F068FC56
:1014300005D2FC49504618F095FC824601E04FF079
:10144000000A0A2002F086FF40F2012188420CD1F6
:10145000F549504618F054FC05D2F349504618F0AF
:1014600081FC824601E04FF0000A0A2002F072FF80
:1014700040F2022188420CD1EC49504618F040FC61
:1014800005D2EA49504618F06DFC824601E04FF063
:10149000000A0A2002F05EFFB0F5017F0CD1E3499B
:1014A000504618F02DFC05D2E049504618F05AFC81
:1014B000824601E04FF0000A0A2002F04BFFB0F52F
:1014C000027F0CD1D949504618F01AFC05D2D749F1
:1014D000504618F047FC824601E04FF0000A0A200F
:1014E00002F038FF40F2014188420CD1D049504609
:1014F00018F006FC05D2CE49504618F033FC82465F
:1015000001E04FF0000A504618F0AEFA85B22946C5
:10151000062002F08BFFBDE8FC9F70B504466568AD
:101520002E462068FEF783FEA4F100614FF00060B4
:1015300003F07DFEB04770BD2DE9F84F01F0D4FBFC
:10154000824618F0C9FA81464FF08B4118F0AEF987
:10155000044618F011F907464FF06632B54B17F004
:10156000A1FD054617F004FAB34908600846016872
:10157000B24818F0F7FBB0490860B149AE480068BE
:1015800018F094F9804618F0F7F80646AD4AAE4BCD
:1015900017F088FD044617F0EBF9A749086001F041
:1015A000CDFB009018F098FA83464FF08B4118F06D
:1015B0007DF9824618F0E0F880464FF066329D4B88
:1015C00017F070FD0646A14AA14B17F06BFD0446CB
:1015D00017F0CEF99F4908609F48006818F064FA38
:1015E00005469E480168284618F0BCFB04469C4905
:1015F00018F05CF99B4908609748006818F054FAA5
:1016000096490860974801688B48006818F0ACFA62
:101610000446954918F04AF99449086094480068CE
:10162000012807D1084601689248006818F0D0F8F0
:10163000904908608E48006838B98C4801688D4828
:10164000006818F08FFB8B4908601F2002F082FEB3
:1016500018B989488949086002E0894887490860C3
:101660007C48006818F088F80446864A864B17F0D4
:10167000DDFC03D80020854908600CE084497D48E2
:10168000006818F071FA04467C480168204618F09A
:101690000DF97E4908607748006818F06DF8064635
:1016A0007C4A7D4B17F04AFA804617F077F80446DB
:1016B00017F0D8FB1FFA80FA5146282005F077FD75
:1016C0006C480068BDE8F88F30B5ADF5117D002598
:1016D0000024012271A1724811F0B8FD112271A1FC
:1016E00001A811F0DEFD7249087008460078B0B913
:1016F00000BF12E004EBC40101A812F071F96C49BB
:10170000087001AA09218AA813F0FDF969498AA87D
:1017100012F099FA00B96D1C641C0A2CEAD301A8D6
:1017200012F08FF800225DA1104611F08FFD2846BF
:101730000DF5117D30BD2DE9F047ADF58E6D00241E
:101740000027A146012004904FF6FF750BF04EF9DB
:10175000012108460BF073FB574A002157A00BF0FC
:10176000BEFB0F2101200BF06AFB534A002156A05B
:101770000BF0B5FB1E2101200BF061FB4E4A00214E
:1017800055A00BF0ACFB2D2101200BF058FB4A4A71
:10179000002154A00BF0A3FB0BF00CF971B672B64C
:1017A00010E0082002F0ABFD18B94FF00060FFF721
:1017B000B4FE0421514804F008FA012800D102E0E7
:1017C00005F097FDEDE700BF012234A18FA811F0CD
:1017D0003DFD814611224AA106A811F062FD814615
:1017E0001EE004AB012205A906A811F00DFE8146FA
:1017F000049800B98AE09DF81400454000270BE0EA
:101800002E46354606F001086D10B8F1000F02D0E3
:101810004AF2010045407F1C082FF1D305F069FD15
:10182000DFE700000000F041000002430000A0419B
:101830000000204166660A40640000203333D33F35
:10184000A4709D407B14AE47E17AF03FE17A14AE7C
:1018500047E1004080000020040000206C000020D0
:1018600000007A44680000200000614570000020FC
:1018700060000020740000209A99193F8800002021
:101880009A99993FCDCCCCCCCCCC04407C000020A4
:101890000000C84225D910F84533F33E303A000025
:1018A00080070020526F6164732E7478740000000A
:1018B00000000020D80B00207CB50208CEE1EDEE40
:1018C000E2EBE5EDE8E50000E7E0E3F0F3E7F7E859
:1018D000EAE02E2E2E000000CFEEE4EAEBFEF7E861
:1018E000F2E50000E7E0F0FFE4EDEEE520F3F1F2D1
:1018F000F0EEE9F1F2E2EE2E0000000000080140F7
:10190000626F6F74312E62696E00000000BF002D9F
:1019100035D00BF06BF8012108460BF090FAFA4A2B
:101920000021FAA00BF0DBFA0F2101200BF087FA5F
:10193000F54A0021FAA00BF0D2FA1E2101200BF08B
:101940007EFAF14A0021F9A00BF0C9FA2D210120FD
:101950000BF075FAEC4A0021F9A00BF0C0FA0BF07D
:1019600029F801E005F0C5FC0421F84804F02DF940
:101970000028F7D14FF00060FFF7CFFD8EE00BF0AD
:1019800035F8012108460BF05AFADF4A0021AFF280
:10199000D4000BF0A4FA142101200BF050FADA4A1B
:1019A0000021AFF2DC000BF09AFA0BF003F805F01F
:1019B000D6FC002406E04FF0006101EBC42005F0E6
:1019C00015FD641C202CF6D31122AFF2CC0106A821
:1019D00011F067FC8146B9F1000F21D100241DE010
:1019E00004AB0422694606A811F00EFD8146049856
:1019F00000B914E04FF0006202EB8400009905F09A
:101A000086FD042801D1012000E000205FEA000AE1
:101A100001D0641C00E002E005F06BFCE0E700BFD1
:101A200006A811F00EFF814605F09FFC0AF0DEFFCC
:101A3000012108460BF003FAB34A0021C4A00BF0C1
:101A40004EFA142101200BF0FAF9AF4A0021B7A099
:101A50000BF045FA232101200BF0F1F9AA4A0021ED
:101A6000B7A00BF03CFA0AF0A5FF01E005F041FC3D
:101A70000421B64804F0A9F80028F7D1AFF280108D
:101A800012F0DEF981460022AFF2F011104611F09B
:101A9000DDFB81464FF00060FFF73FFD61B662B6A7
:101AA0000022AFF20821104611F0D0FB81460DF55F
:101AB0008E6DBDE8F08796B000BF00201490002422
:101AC000002500BF0C904FF0010AA7490870FEF7EF
:101AD00096FCA648FEF756FC01229102A44804F0A9
:101AE00092F8A248FEF74EFC03F03EFB0120FEF701
:101AF0004EFC00F093FF06F00BFC0AF08EFF012075
:101B00009C49086002F02AFE8146B9F1000F05D118
:101B10009948006840F0010097490860FEF769FFA6
:101B2000C6B2002E34D00020944908700AF05EFF3F
:101B30000A2105200BF083F9734A002190A00BF0D5
:101B4000CEF9142105200BF07AF96F4A002191A0FB
:101B50000BF0C5F9282105200BF071F96A4A002124
:101B600091A00BF0BCF9322105200BF068F9664A10
:101B7000002191A00BF0B3F90AF01CFF9348FEF787
:101B800001FC7D48006840F002007B49086002E0EB
:101B900001207A49087002F095FD8146B9F1000FE5
:101BA00005D17548006840F00400734908602020A2
:101BB00002F0D0FB86490880684608F027F93022F9
:101BC0006946844814F056FA0BF0B3F90AF0F2FEB5
:101BD000002401E000BF641C7F488442FAD3142033
:101BE00001F0B6F90CF012F8FFF76EFD7B490860C2
:101BF00008460068052803D901207949086002E0F9
:101C00000020774908600020FEF7C1FB012002F0A8
:101C10008AFB30B9022002F086FB10B980200BF05D
:101C2000F2FF192002F096FB804617F055FF074699
:101C30006C4917F03BFE6C4908606C496A480068C3
:101C400017F034FE684908600C2005F0BCFA6849BA
:101C50000880442005F0B7FA664908604FF4004157
:101C6000654803F0B2FF65490860282005F0ABFA2B
:101C7000099017F031FF834617F07EFD0746604A52
:101C8000604B17F00FFACDE90A0116F071FE5E49BC
:101C900008601F2002F05EFB18B95C485C490860D0
:101CA00002E05C485A4908605B495748006817F0F1
:101CB0005BFF074656480168384617F0F7FD57495D
:101CC00008604E48006830B90846006817F0B0FE5A
:101CD0005349086003E000F0D7FF514908604FF412
:101CE0000041454803F071FF01280CD108204D49FF
:101CF00008801020C8700821144803F082FF494969
:101D0000124803F0CFFE7CE27CB50208D4E0E9EB98
:101D100020EFEEE2F0E5E6E4E5ED2C200000000027
:101D2000EEF8E8E1EAE0204352432E00CEF2EAEB7F
:101D3000FEF7E8F2E520E7E0F0FFE4EDEEE5000075
:101D4000F3F1F2F0EEE9F1F2E2EE2E0000080140CC
:101D5000CEE1EDEEE2EBE5EDE8E520E7E0E2E5F0EF
:101D6000F8E5EDEE2E00000014000020E0930400E2
:101D700000100140300000200C0000208C000020EA
:101D8000D4F3EDEAF6E8EEEDE0EB20F0E0E1EEF280
:101D9000FB000000EFF0E8E1EEF0E020EEE3F0E021
:101DA000EDE8F7E5ED2E0000CEE1F0E0F2E8F2E537
:101DB000F1FC20E200000000F1E5F0E2E8F1EDFBCB
:101DC000E920F6E5EDF2F02E0000000080F0FA02C6
:101DD0002C6C0040F80B0020FFFF2F0018000020A3
:101DE0005807002000007A44240000200000964399
:101DF00020000020DC060020000C01405C000020D8
:101E000025D910F84533F33E740000209A99193F04
:101E1000880000209A99993F0000C8427C00002069
:101E20004C0000208E000020F648007850B3F648A1
:101E30000088B0F5616F18D10E2002F08BFAF249DC
:101E40000880084600884FF6E851884209DAEE48D3
:101E50000088401C80B2EC4A108001460E2002F03F
:101E6000E5FA0020E849088004E0E7480088401CC3
:101E7000E54908800020E3490870E34801880C2008
:101E800005F095F945F2555005F02AFA062005F0BF
:101E90002AFA4FF4806005F029FA05F02FFAFFF7CF
:101EA0004BFB1E2002F056FAD8490870D84800783B
:101EB000D84908600421D84803F087FED74909684B
:101EC00088427DD00421D44803F07FFED3490860C6
:101ED0000846006880B1FEF7B3FF0020D0490870C3
:101EE00002F0C6FFCF48FEF74DFA0120FEF74FFA89
:101EF0000020CD490870C4E00120CB4908700020C3
:101F0000CA4908700AF072FD012108460AF097FFDD
:101F1000C74A0021C7A00AF0E2FF0AF04BFD0020EB
:101F20001590149072B671B60122AFF29061C54857
:101F300011F08CF900250FE000231A46C2A10DA86C
:101F4000009513F0ADFCC7490DA811F07CFE10B947
:101F50001598401C15906D1CFF2DEDD905F0C9F9A1
:101F60000A22AFF2C061C04811F09BF90022BFA164
:101F70000DA813F095FC0DA9BB4812F054FEBA4908
:101F80000A2012F00BFE012417E02246BAA10DA888
:101F900013F086FCB3490DA811F055FE50B90DA9F8
:101FA000B14812F040FEB0490A2012F0F7FD149833
:101FB000401C149005F09DF9641CFF2CE5D300E053
:101FC00071E0A94811F03DFC00220DA99CA012F07F
:101FD0004BF9ACA10DA814F0FBF810B1A9A012F0B8
:101FE000A2F90022AFF24C71104611F02FF962B63F
:101FF00061B6FFF769FBA54908601598401C81B2DE
:102000000F2002F013FA00240025A1A1A1A013F0D3
:10201000D8FE40B14FF00060FFF77FFA0020A149E1
:102020000860A14908600122AFF29071854811F063
:102030000DF98C49AFF2387011F005FE8246BAF105
:10204000000F0DD1002097490860974908600022D1
:10205000AFF2B871104611F0F9F88246FFF76BFB4A
:102060000022AFF2C871104611F0F0F80020FEF720
:102070008EF96C48FEF786F902F0CCFE00200FF0D6
:1020800060FA8A48006810B96548007838B100F0F5
:10209000FBFD8749086000F0F7FD864908605F484E
:1020A000006806F043F95D480068002870D10120FF
:1020B0008149086000205C4908701E2002F04AF93E
:1020C000012801D1FEF7D3FE4FF480517B4803F085
:1020D00098FD4FF40051794803F093FD5048007883
:1020E00010B90020FEF747FD4D48007830B90420B4
:1020F00002F005F910B901204949087048480078F4
:1021000001280ED1802002F0FAF850B9022044498B
:1021100008706B48007820B90120FEF738F9FEF707
:1021200074FE3F480078022806D1042002F0E7F848
:1021300010B903203A49087039480078032806D1BD
:10214000802002F0DCF810B90020354908703448CE
:10215000007840B9FEF774FE01F08AFC00B9641CF7
:102160000020FEF714F9082002F0F4F800F0010056
:10217000002810DD0A2002F0EDF8B0F5006F08D15C
:1021800001F07EFC074639460B2002F04FF902E0D1
:1021900020E0FEF78CFE4B480078002809DD08207F
:1021A00002F0D8F840F008073946082002F03EF95E
:1021B00008E0082002F0CEF820F008073946082091
:1021C00002F034F900203F4908700FF0FAFCFEF7E6
:1021D0009DFD16E03C48007880B93C48FEF7D2F8F7
:1021E0003948007818B902200FF0ABF909E0012056
:1021F0000FF0A7F900203049086002E001200FF03D
:10220000A0F911E622000020200000208D0000200F
:102210005606002054000020000801401000002055
:1022200014000020400D03002C00002015000020A9
:102230007CB50208CFEEE4EEE6E4E8F2E52E2E2EC1
:102240000000000080070020303A253033752E252D
:102250003033752F5369676E616C2025642E64617D
:1022600074000000D80B0020B4090020526F616494
:102270002E25303175202000526F61642E253033B9
:102280006400000050494F4E00000000180000207C
:10229000726200004D3A5C70726F67312E62696E37
:1022A00000000000D4060020E00600205C000020B2
:1022B0004C00002050000020600000200010014071
:1022C000AC060020DC000020570600208096980015
:1022D000704700BFFEE700BFFEE700BFFEE700BF9C
:1022E000FEE770477047704710B5FDF7D1FF10BD8E
:1022F00010B540F225510F4803F030FB48B10D48AE
:1023000003F0C3FA0C49087008460178094803F045
:10231000B8FA40F22661074803F020FB40B14021A3
:10232000044803F012FB04480078401E024908707C
:1023300010BD0000004400409C0000202DE9F04149
:1023400006460F461446F9480078012802D10020BD
:10235000BDE8F081022C00DC0CB90020F8E7F3485E
:1023600001780078401CF14A107001EB810000EB0D
:10237000C100EF4901EB80052C704FF0000800BF51
:10238000002105F11C0040F824100C3040F8241006
:1023900056F82410281D40F8241057F824100C304B
:1023A00040F8241034B1281D50F82410404617F08E
:1023B0000FFA804605F1100050F82410404617F03F
:1023C00007FA8046201EA4F10101CCB2D8DC2846D1
:1023D000BEE72DE9F04704460D460026E16921627B
:1023E000A16AE162E561A168E06A17F0BDFB804681
:1023F0006169206A17F0B8FB81462169E06917F02E
:10240000B3FB8246494617F0E3F90746414617F009
:10241000DFF90646A662A06ABDE8F0872DE9F84F0D
:1024200004460D460026216A6162E16A2163E16982
:102430002162A16AE162E561E168206B17F094FB1B
:102440008146A168E06A17F08FFB8246494617F083
:10245000BFF90746A169606A17F086FB00906169C1
:10246000206A17F081FB82462169E06917F07CFB46
:102470008346514617F0ACF98146009917F0A8F948
:102480008046394617F0A4F90646A662A06ABDE860
:10249000F88F2DE9BF4F82468B461446A548007839
:1024A000062803D1002004B0BDE8B08F022C00DC68
:1024B0000CB90020F7E79F4801780078401C9D4A3E
:1024C000107001EB810000EBC1009B4901EB80091A
:1024D00089F80040002500BF002109F11C0040F8E8
:1024E00024100C3040F824100AEBC40000224FF0F6
:1024F0008043D0E90071384616F098FD21D20AEBEE
:10250000C40000224FF04043D0E90071384616F075
:10251000C7FE16D20AEBC4000022884BD0E9007136
:10252000384616F0BFFD0022854BCDE9000116F0BC
:10253000B9FDCDE9020116F0ABF909F1040141F84A
:1025400024000BEBC40000224FF08043D0E900715F
:10255000384616F06BFD21D20BEBC40000224FF081
:102560004043D0E90071384616F09AFE16D20BEBC4
:10257000C401D1E900710022704B384616F092FD7B
:1025800000226F4BCDE9000116F08CFDCDE9020170
:1025900016F07EF909F1100141F8240024B109F187
:1025A000040050F82400451909F1100050F82400E7
:1025B0004519201EA4F10101CCB28DDC484672E71A
:1025C0000146002009E0002301F11C0242F82030FE
:1025D0000C3242F82030421CD0B20328F3DB7047A3
:1025E0002DE9FC5F064689461546002434E006EBDB
:1025F000C4000022514BD0E90071384616F052FD5C
:1026000000224F4BCDE9000116F04CFD824616F03A
:102610003FF9291D41F8240009EBC4000022474B73
:10262000D0E90071384616F03DFD82460022444B49
:1026300016F038FDCDE9000116F02AF905F1100178
:1026400041F82400002105F11C0040F824100C3052
:1026500040F82410601CC4B22878401CA042C6DC9C
:10266000BDE8FC9F2DE9F043024600BF156A5562A4
:10267000D56A1563D5691562956AD562D161156908
:10268000D06980FB0550176A566987FB0667AD194C
:102690007841576A966987FB0667AE197841D76A11
:1026A000956887FB0597D2F80CC0D2F8308088FB7C
:1026B0000CC83D4619EB0C0745EB0805F31940EB38
:1026C00005044FF000569E1944F10000850045EACC
:1026D00096709062906ABDE8F083F0B5024600BF44
:1026E000D5691562956AD562D1611569D06980FB9B
:1026F0000550176A566987FB0667AD197841D76A96
:10270000966887FB0667AB1940EB07044FF000574C
:10271000DE1944F10000850045EA96709062094D8B
:10272000906AA84210DD2846F0BD00009D00002000
:10273000980C00209E000020CC0C00200000F040EF
:102740000000D0400080FF3F906AB0F1404F02DAB5
:102750004FF04040E8E7906AE6E72DE9F043024693
:1027600000BF156A5562D56A1563D5691562956A09
:10277000D562D1611569D06980FB0550176A566929
:1027800087FB0676ED197041576A966987FB0667E5
:10279000AE197841D76A956887FB05C5D2F83080B5
:1027A000D76888FB0787B9461CEB080745EB090586
:1027B000F31940EB05044FF000569E1944F1000058
:1027C000850045EA967090628F4D906AA84202DDBE
:1027D0002846BDE8F083906AB0F1404F02DA4FF02E
:1027E0004040F6E7906AF4E72DE9F047034600BF62
:1027F0001E6A5E62DE6A1E63DE691E629E6ADE62B9
:10280000DA611E69D86980FB0670D3F820C05E6962
:102810008CFB06C6B04617EB0C0640EB0800D3F85D
:1028200024C09F698CFB077CF71940EB0C00D3F8A0
:102830002CC09E688CFB0686D3F80CC0D3F8309071
:1028400089FB0C9CE24618EB090C46EB0A0617EBD9
:102850000C0440EB06054FF0005C14EB0C0745F14F
:102860000000860046EA9770986200BF0E6A4E62CA
:10287000CE6A0E63CE690E628E6ACE62986AC861B5
:102880000E69C86980FB0670D1F820C04E698CFBC8
:1028900006C6B04617EB0C0640EB0800D1F824C082
:1028A0008F698CFB077CF71940EB0C00D1F82CC02A
:1028B0008E688CFB0686D1F80CC0D1F8309089FB6D
:1028C0000C9C18EB090846EB0C0617EB080440EBD0
:1028D00006054FF00056A61945F10000870047EAAB
:1028E00096708862484E886AB04202DD3046BDE884
:1028F000F087886AB0F1404F02DA4FF04040F6E7C7
:10290000886AF4E741810023036043600022C260CB
:1029100002618261C261028180F828200262426203
:10292000704730B5C2688A4200DAC16002698A42E3
:1029300000DD016101F58042D11381FB0153D0E933
:10294000004264195A41C0E900420289521C0281C6
:10295000028943899A420FDBD0E90023C0E90623AC
:10296000C2680262026942620022C26002610260C1
:102970004260028180F8282030BD2DE9FC47804666
:10298000B8F80A0016F0F8FA04460D46D8E9062110
:10299000104616F005FB064622462B4616F0CEF8EA
:1029A000814615F092FFCDE9000115F0E1FFBDE889
:1029B000FC8770B50446206A17F076F805464FF09C
:1029C0008E4116F073FF70BD70B50446606A17F053
:1029D0006BF805464FF08E4116F068FF70BD70B57C
:1029E00004462046FFF7F0FF05462046FFF7E1FFCB
:1029F0000646294617F0B6F970BD014691F8280041
:102A000000F00100704700000080FF3F10B5044651
:102A100021464FF4007002F0AFFD10BD00B585B047
:102A2000012140F2012002F0A7FD002000908DF866
:102A300004008DF805004FF4602002900020039000
:102A400001208DF810006946D14803F090F9072362
:102A500001220321CE4803F022FA0121CC4803F0E1
:102A6000B2F9CB4803F0D1F900BFC94803F0D2F95D
:102A70000028FAD1C64803F0D7F900BFC44803F0D4
:102A8000D8F90028FAD1012003F02EFB0021C0481C
:102A900003F099F905B000BD2DE9F04100240025AF
:102AA000002780260120FFF7B1FF0121B84803F07D
:102AB0008AF9072301221121B54803F0F0F900BF7C
:102AC0000EE00121B24803F0BEF900BF0221B04878
:102AD00003F02AFB0028F9D0AD4803F047FA05447B
:102AE0003000A6F10101CEB2EBD1ED094FF4960012
:102AF000B0FBF5F7072301221146A54803F0CFF9F3
:102B000080260EE00121A24803F09DF900BF0221BA
:102B10009F4803F009FB0028F9D09D4803F026FAEE
:102B200004443000A6F10101CEB2EBD10021984857
:102B300003F049F90020FFF769FFE40904FB07F0FF
:102B40004FF4006101EB400040F6FF71B0FBF1F47F
:102B50002046BDE8F08110B5FFF79EFF044641F224
:102B60003600844201D964240DE040F61C408442C2
:102B700001D2002407E0A4F61C446420604340F224
:102B80001A41B0FBF1F48348008864280CD18248D4
:102B900000686421B0FBF1F08049087000207E4994
:102BA00008607C49088004E07B48006820447A493A
:102BB000086078480088401C76490880774800788B
:102BC000FA2801D175490C707448007810BD2DE9C0
:102BD000F04100240025002780260120FFF716FF82
:102BE00001216B4803F0EFF8072301221121684807
:102BF00003F055F900BF0EE00121654803F023F909
:102C000000BF0221624803F08FFA0028F9D0604823
:102C100003F0ACF905443000A6F10101CEB2EBD1CE
:102C2000ED095F48B0FBF5F707230122114658482C
:102C300003F035F980260EE00121554803F003F931
:102C400000BF0221524803F06FFA0028F9D0504823
:102C500003F08CF904443000A6F10101CEB2EBD1AF
:102C600000214B4803F0AFF80020FFF7CFFEE40946
:102C700004FB07F040F6CA0101EB40004900B0FB3D
:102C8000F1F42046BDE8F08110B5FFF7A0FF04463F
:102C9000B4F5616F01D964240CE0B4F5486F01D23A
:102CA000002407E0A4F54864642060434FF4C87131
:102CB000B0FBF1F4204610BD10B5FFF788FF0446C5
:102CC000B4F57A6F01D964240CE0B4F5486F01D2F1
:102CD000002407E0A4F54864642060434FF4487181
:102CE000B0FBF1F4204610BD70B50026002480250D
:102CF0000120FFF78BFE0121254803F064F807232C
:102D000001220321224803F0CAF800BF0EE001218E
:102D10001F4803F098F800BF02211D4803F004FA91
:102D20000028F9D01A4803F021F904442800A5F13D
:102D30000101CDB2EBD1E409204670BD70B500268B
:102D4000002480250120FFF761FE0121104803F0D7
:102D50003AF80723012211460D4803F0A0F800BFFE
:102D60000EE001210A4803F06EF800BF0221084876
:102D700003F0DAF90028F9D0054803F0F7F8044425
:102D80002800A5F10101CDB2EBD1E409204670BDC8
:102D900000240140A8000020A4000020A000002082
:102DA000C0655200012070472DE9F04104460D46F0
:102DB0001746002012F008FB06462EB101225BA147
:102DC0005B4810F043FA064672B671B601232246FC
:102DD0002946002012F043FB064662B661B6002287
:102DE00052A1104610F032FA06460120BDE8F081EB
:102DF0002DE9F04104460D461746002012F0E4FA92
:102E000006462EB1012249A1494810F01FFA064694
:102E100072B671B6012322462946002012F0DBFA71
:102E2000064662B661B6002240A1104610F00EFAC6
:102E300006460120BDE8F08101463E48C068486072
:102E40003C48C08A08813B48C08A488101207047BD
:102E500070B504F04EFA72B671B63748FDF792FAC3
:102E600009F050FC0546012230A1314810F0EEF97E
:102E70000546002211462DA011F016FB044604F071
:102E800038FA2EA011F04FFA0546002227A110466D
:102E900010F0DCF9054662B661B6204670BD2948DF
:102EA000294948602948486070472748006940F030
:102EB00080002549086170472348C06800F0010080
:102EC00080F00100704700B501461F48006940F0DE
:102ED00002001D4A106110464161006940F0400047
:102EE000106100BFFFF7E8FF0028FBD0164800691B
:102EF00020F00200144A106100BD014608687047C6
:102F0000114A126942F001020F4B1A6100BF0E4ACA
:102F1000D26802F00102002AF9D101800A4A12693E
:102F200022F00102084B1A6170470000303A00009D
:102F300080070020F80B0020A086010050494F4E6A
:102F4000000000002301674500200240AB89EFCD5F
:102F500010B58AB004460121C80202F00DFB012C15
:102F600004DD601E80B2ADF8200002E00120ADF863
:102F700020004720ADF81C000020ADF82200ADF87D
:102F80001E008DF8240007A9FE4803F07DFB0121F7
:102F9000FC4804F0DFF819208DF8180000208DF8A7
:102FA00019008DF81A0001208DF81B0006A802F008
:102FB0000CF90121880302F0ECFA0020ADF80400BE
:102FC0004FF48270ADF806000020ADF80800022032
:102FD000ADF80A000120ADF80C004002ADF80E007B
:102FE0000020ADF81000ADF812000720ADF8140075
:102FF00001A9E54803F086F90222E44901F118002D
:10300000FFF747FAE24908600222E24901F118009D
:10301000FFF73FFAE04908600222E04901F1180099
:10302000FFF737FADE4908600222DE4901F1180095
:10303000FFF72FFADC4908600222DC4901F1180091
:10304000FFF727FADA4908600222D84901F118008F
:10305000FFF71FFAD74908600AB010BD10B5002469
:103060004FF48050D4490860086008600860086028
:103070000860086008600860086008600860086010
:103080000860086008600860086008600860086000
:1030900008600860086008600860086008600860F0
:1030A00008600860086008600860086008600860E0
:1030B00008600860086008600860086008600860D0
:1030C00008600860086008600860086008600860C0
:1030D0000860086008600860FF21AB4803F0E8F969
:1030E00000BFA9480830008800F002000028F8D08E
:1030F000FF21A54803F0DCF900BFA3480830008891
:1031000000F001000028F8D09F4803F0D3F90446EE
:1031100000BF9D480830008800F002000028F8D069
:10312000FF21994803F0C4F900BF97480830008890
:1031300000F001000028F8D0934803F0BBF940EA02
:10314000042400BF90480830008800F001000028E7
:10315000F8D08D4803F0AEF940EA04244FF48050D3
:103160009549091F0860A408A0B210BD70B54FF4BE
:103170000061924802F043FD192001F0EBF805468A
:1031800016F0AAFC04468E4916F090FB8D490860A3
:1031900001217C4803F0DEFFFFF760FFA0F500404F
:1031A000894908600846016888480078884A12788A
:1031B0001040884A42F8201084480078401C834917
:1031C00008700846007882490978084000286ED1C6
:1031D0007F480078012808D11046006811464968E8
:1031E00008444010784908600DE07A480068794941
:1031F000496808447749896808447649C968084499
:103200008010714908607048006847F6F461884290
:1032100004DC6D4800684942884205DA6E4800685F
:1032200010B901206D49087067480068C0036649FD
:1032300008606B48008840F20122811A904276D0E3
:1032400010DCB0F5827F48D005DCA0F20110C8B1D7
:1032500001286DD12CE0B0F5847F53D0B0F5887F84
:10326000F7D166E007296FD004DC01296DD003296E
:10327000EFD1D5E0B1F5007F68D0A1F2FF51002970
:10328000E7D122E15048026843480168404800689D
:10329000FFF7AAFA4C4908600846026842480168EC
:1032A0003F480068FFF7A0FA4749086019E14DE17F
:1032B000454802683848016835480068FFF794FAC5
:1032C0004149086008460268374801683448006888
:1032D000FFF78AFA3C49086003E13B4802682E4840
:1032E00001682B480068FFF77FFA374908600846F5
:1032F00002682D4801682A480068FFF775FA3249CC
:103300000860EEE030480268234801682048006801
:10331000FFF76AFA2C4908600846026822480168EB
:103320001F480068FFF760FA27490860D9E00EE0FF
:10333000D6E0254802681C48016819480068FFF774
:1033400053FA21490860CCE085E04EE09EE01E483B
:103350000268114801680E480068FFF745FA1A49EB
:1033600008600846016812480068FFF7F6F9164938
:103370000860084602680C48016809480068FFF7C1
:1033800033FA2FE0002C01400038004048010020B3
:10339000F805002078010020FC050020C80200206C
:1033A00000060020F802002004060020A8040020E7
:1033B000080600200C060020140C01400008014003
:1033C00000007A44E0000020CC000020E40000204F
:1033D000E500002058D10020D4000020DC000020AF
:1033E000D0000020FE4908607BE0FD480268FD48EF
:1033F0000168FD480068FFF7F7F9F94908600846D9
:103400000168FA480068FFF7A8F9F549086008461E
:103410000168F7480068FFF760F9F149086060E06B
:10342000EF480268EF480168EF480068FFF7DCF9F1
:10343000EB49086008460168EC480068FFF78DF921
:10344000E749086008460168E9480068FFF745F960
:10345000E349086045E0E2480268E2480168E24862
:103460000068FFF7C1F9DE49086008460168DF48D7
:103470000068FFF772F9DA49086008460168DC481D
:103480000068FFF72AF9D64908602AE0D4480268A4
:10349000D4480168D4480068FFF7A6F9D04908600D
:1034A00008460268D3480168D1480068FFF79CF9D4
:1034B000CB49086008460268CF480168CB480068DD
:1034C000FFF792F9C64908600BE0C5480268C94891
:1034D0000168C7480068FFF787F9C149086000E044
:1034E00000BF00BFC548006828B1C4480068401E3E
:1034F000C249086070BDBA480168C148FFF711FAB7
:10350000C0480088002821DDBE480088401EBD4913
:103510000880B348006816F0C7FA0546BA48016843
:10352000284616F021FB044616F082FAB7490860D7
:103530000846006800F58040C01300B2B44909682D
:103540000880B3480068801CB14908604FF40061EE
:10355000B04802F056FB00BFCCE70022A94B1A800E
:10356000AB4A1060AC4A118002E0002220F8112022
:103570000A00A1F1010399B2F7D1A74A1288A14B21
:103580001A80704710B500209E490880012211035F
:10359000A24802F038FB0020A1490860486088601A
:1035A000C860A049087046F2A810944908600A2033
:1035B00000F0D0FE9C4908808B480068FFF700F8B7
:1035C00088480068FEF7FCFF89480068FEF7F8FFAE
:1035D00088480068FEF7F4FF84480068FEF7F0FFB3
:1035E00085480068FEF7ECFF8F48008840F2012212
:1035F000811A90427DD010DCB0F5827F67D005DC67
:10360000A0F20110C8B1012874D13BE0B0F5847F6D
:1036100071D0B0F5887FF7D1AAE007296CD004DC1F
:1036200001296AD00329EFD15EE1B1F5007F65D0B1
:10363000A1F2FF510029E7D1D3E16B487B49026831
:1036400001F11800FEF7CCFF66487949026801F1E4
:103650001800FEF7C5FF66487649026801F11800B8
:10366000FEF7BEFF63487449026801F11800FEF7D7
:10367000B7FF03207149087046F2A8116048FFF7B0
:1036800041F9CAE158486E49026801F11800FEF795
:10369000A7FF54486B49026801F11800FEF7A0FF2C
:1036A00053486949026801F11800FEF799FF514833
:1036B0006649026801F11800FEF792FF01205F4998
:1036C000087046F2A8114E48FFF71CF9A5E14648DC
:1036D0005F49026801F11800FEF782FF41485D4929
:1036E000026801F11800FEF77BFF41485649026865
:1036F00005E062E090E116E01BE1D0E03EE101F17F
:103700001800FEF76DFF3B485049026801F11800B0
:10371000FEF766FF01204949087046F2A8113848B3
:10372000FFF7F0F879E130484B49026801F11800E1
:10373000FEF756FF2B484949026801F11800FEF7D1
:103740004FFF2B484049026801F11800FEF748FF7F
:1037500028483E49026801F11800FEF741FF0120A8
:103760003649087046F2A8112548FFF7CBF854E116
:103770001D483B49026801F11800FEF731FF194866
:103780003849026801F11800FEF72AFF18482E494F
:10379000026801F11800FEF723FF16482B49026862
:1037A00001F11800FEF71CFF01202449087046F2C1
:1037B000A8111348FFF7A6F82FE10B481B49026830
:1037C00001F11800FEF70CFF06481949026801F1E3
:1037D0001800FEF705FF06481649026844E000009D
:1037E000CC000020FC050020F80500200806002081
:1037F00000060020040600200C060020D400002053
:1038000068D10020C8000020E0000020D80000207F
:10381000C400002000080140CA000020000C014044
:1038200058D10020E4000020D0000020B803002080
:10383000E8030020C8020020F8020020E500002074
:1038400048010020780100202803002058030020B0
:10385000A8010020D8010020080200203802002022
:10386000680200209802002001F11800FEF7B8FE5F
:10387000FD48FE49026801F11800FEF7B1FEFC4860
:10388000FC49026801F11800FEF7AAFE0320FA497C
:10389000087046F2A811F948FFF734F8BDE0F8487F
:1038A000F849026801F11800FEF79AFEF648F74958
:1038B000026801F11800FEF793FEF548F549026829
:1038C00001F11800FEF78CFEE948F349026801F1A6
:1038D0001800FEF785FE0120E749087046F2A8119E
:1038E000E648FFF70FF898E0E548EC49026801F177
:1038F0001800FEF775FEE448E949026801F1180076
:10390000FEF76EFEE248E349026801F11800FEF797
:1039100067FED748E049026801F11800FEF760FE33
:103920000120D549087046F2A811D448FEF7EAFFF5
:1039300073E0D348DB49026801F11800FEF750FE3E
:10394000D148D949026801F11800FEF749FED04874
:10395000D049026801F11800FEF742FEC448CE4982
:10396000026801F11800FEF73BFE0120C249087011
:1039700046F2A811C148FEF7C5FF4EE0C048CB494A
:10398000026801F11800FEF72BFEBF48C849026823
:1039900001F11800FEF724FEBD48C649026801F196
:1039A0001800FEF71DFEB048C349026801F1180077
:1039B000FEF716FEAE48C149026801F11800FEF795
:1039C0000FFEBF48BF49026801F11800FEF708FE6C
:1039D0000320A949087046F2A811A848FEF792FFF3
:1039E0001BE0AB48B849026801F11800FEF7F8FD8A
:1039F0009D489E49026801F11800FEF7F1FD012083
:103A00009D4908704FF22440B049086046F2A81161
:103A10009A48FEF777FF00BF00BF00BF0121AC4806
:103A200002F015FD0121AB4803F0BAF8012211465E
:103A3000A84803F0D0F810BD10B50020A6490870C2
:103A400000220121A34803F0C6F80021A14803F099
:103A5000A7F801219F4803F07DFB00219C4802F05C
:103A6000F6FC00224FF480519C4802F0CCF810BDC7
:103A70009B480088002801DD012070470020FCE7FA
:103A80009848008800280CDD9648008894490988E9
:103A9000401A6421484393490988B0FBF1F0C0B251
:103AA00070470020FCE700B500BFFFF7E1FF0128E9
:103AB000FBD000BD2DE9F74F86B089469246012024
:103AC000FCF765FC45F6C0516C48FEF71BFF86A16C
:103AD000069812F076F98346BBF1000F7DD00022E4
:103AE0000421584612F0A2F80DE0BDF910004FF481
:103AF0008041C1EBC0344FF4967094FBF0F5294639
:103B00005E48FEF70EFF5B460122022104A813F077
:103B1000D7FE0128E9D05948FEF74BFF73490860EA
:103B20000868734916F020F8054615F09DFFA9F8BE
:103B300000006E4908686E4916F016F8054615F043
:103B400093FF80B2ADF80C0000220421584612F019
:103B50006DF845F6C0514948FEF7D4FE4848514932
:103B6000026801F11800FEF73BFD47484E49026824
:103B700001F11800FEF734FD45484649026801F19D
:103B80001800FEF72DFD3A484349026801F118007C
:103B9000FEF726FD31E0BDF910004FF48041C1EB86
:103BA000C03422463848016835480068FEF71CFEDC
:103BB000044621462E480068FEF7CFFD0446214604
:103BC00033480068FEF789FD0446204615F0BDF92C
:103BD000484A494BCDE9000100E033E015F062FAB4
:103BE00007460022454B14F0A9FF054615F03AF9A7
:103BF000014602902148FEF794FE5B460122022115
:103C000004A813F05DFE0128C5D01C48FEF7B5FEE0
:103C1000364948604868364915F0A6FF054615F054
:103C200023FFAAF8000031494868314915F09CFF8C
:103C3000054615F019FF80B2ADF80E00584612F097
:103C4000E7F804E00020A9F80000AAF800004FF40B
:103C5000FA70A9F8000041F2F450AAF8000003A895
:103C600009B0BDE8F08F000004060020F802002033
:103C700008060020A8040020E500002068D10020EC
:103C8000F805002048010020FC05002078010020F4
:103C9000000600208803002008050020A80100205D
:103CA000D80100200802002038020020E80000208F
:103CB0001801002098050020C805002038050020C4
:103CC0000C06002068050020C8020020D400002057
:103CD00000380040002C0140DC000020000C0140B6
:103CE000C8000020CA0000207200000098D1002007
:103CF0000000C842D122DBF97EEA344000C07240A5
:103D0000F8B506460120FCF742FB46F2A811CA4866
:103D1000FEF7F8FDAFF23001304612F052F80446DB
:103D2000002C59D000220421204611F07FFFC34807
:103D3000C349026801F11800FEF752FCC148C249AC
:103D4000026801F11800FEF74BFCC048C049026848
:103D500001F11800FEF744FCBE48BF49026801F1BA
:103D60001800FEF73DFC1DE0BDF900004FF4804156
:103D7000C1EBC0352A46B3480168B0480068FEF779
:103D800033FD05462A46B3480168B0480068FEF78F
:103D90002BFD05464FF4967095FBF0F73946A64883
:103DA000FEF7BFFD234601220221684613F088FD7D
:103DB0000128D9D0A048FEF7E0FDA84908602046B8
:103DC00012F026F8A5490868A54915F0CDFE07466A
:103DD00015F04AFE80B2F8BD0020FCE72DE9F14F56
:103DE00082B00120FCF7D3FA45F6C0519248FEF7A5
:103DF00089FDAFF20C11029811F0E3FF8346BBF18D
:103E0000000F71D000220421584611F00FFF46F236
:103E1000A8118948FEF776FD88488949026801F1B2
:103E20001800FEF7DDFB87488749026801F118009A
:103E3000FEF7D6FB85488B49026801F11800FEF7B2
:103E4000CFFB89488949026801F11800FEF7C8FBD9
:103E50002EE0BDF904004FF48041C1EBC03A524658
:103E60007848016875480068FEF7BEFC82465146F6
:103E70007D480068FEF771FC824651467348006831
:103E8000FEF72BFC8246504615F05FF80646784A4E
:103E9000784B15F007F904460022774B14F04EFEDC
:103EA000804614F0DFFF014600906348FEF739FDBD
:103EB0005B460122022101A813F002FD0128C8D0AF
:103EC0005D48FEF75AFD6D494860584611F0A0FF65
:103ED0006A494868624915F047FE044615F0C4FD7A
:103EE00080B2BDE8FE8FFFE70020FAE72DE9F14F31
:103EF00084B00120FCF74BFA41F288314E48FEF7BE
:103F000001FDAFF21C21049811F05BFF8246BAF16B
:103F1000000F7DD000220421504611F087FE474853
:103F20005749026801F11800FEF75AFB4548554908
:103F3000026801F11800FEF753FB44485249026839
:103F400001F11800FEF74CFB42485049026801F1AC
:103F50001800FEF745FB44484D49026801F118007E
:103F6000FEF73EFB4B484C49026801F11800FEF792
:103F700037FB40E0BDF90810BDF90A20881800EBB6
:103F8000D071491009B2ADF80810BDF908004FF41E
:103F90008041C1EBC03B5A462A4801682748006867
:103FA000FEF722FC83465A462A48016827480068E3
:103FB000FEF71AFC83465A46364801682A480068CC
:103FC000FEF712FC8346584615F06EFD009015F082
:103FD000D3FB0646314A324B15F064F80446002202
:103FE000254B14F0ABFD804614F03CFF01460190D8
:103FF0001148FEF796FC53460222114602A813F020
:104000005FFC0228B6D00C48FEF7B7FC254900E05B
:104010000FE04860504611F0FBFE22494868104905
:1040200015F0A2FD044615F01FFD80B205B0BDE8F5
:10403000F08F0020FAE7000068D10020F80500208A
:1040400008020020FC0500203802002000060020A5
:10405000280300200406002058030020A4D10020DB
:104060000000C84288030020080600200805002040
:10407000D122DBF97EEA344000C07240B0D100208A
:10408000E80000201801002098050020C805002045
:10409000380500200C0600206805002085EB51B88B
:1040A0001EB97840BCD1002010B54FF40061A34880
:1040B00001F08BFD30B9A248007840F00100A04922
:1040C000087005E09E48007820F001009C490870C7
:1040D0004FF480719B4801F078FD30B99848007822
:1040E00040F002009649087005E09548007820F0FD
:1040F0000200934908700121904801F066FD30B933
:104100008F48007840F004008D49087005E08C4825
:10411000007820F004008A4908704FF480618748D5
:1041200001F053FD30B98648007840F0080084491A
:10413000087005E08248007820F008008049087087
:1041400002217E4801F041FD30B97D48007840F001
:1041500010007B49087005E07948007820F01000D5
:1041600077490870764800787749097888427DD089
:1041700076480078002879D17348007800F0010073
:1041800050B96F48007800F0010028B1704800680D
:1041900040F001006E4908606B48007800F00200B2
:1041A00002280BD06648007800F00200022805D1F2
:1041B0006748006840F0020065490860624800787E
:1041C00000F0040004280BD05D48007800F00400E3
:1041D000042805D15E48006840F004005C4908608E
:1041E0005948007800F0080008280BD0544800789F
:1041F00000F00800082805D15548006840F0080084
:10420000534908605048007800F0100010280BD087
:104210004B48007800F01000102805D14C48006889
:1042200040F010004A4908604748007800F001005B
:1042300050B14348007800F0010028B944480068B4
:1042400040F02000424908603F48007800F002003A
:1042500002280DD13A48007800F00200022807D069
:104260003B48006840F04000394900E03DE008600C
:104270003548007800F0040004280BD1304800785D
:1042800000F00400042805D03148006840F08000A8
:104290002F4908602C48007800F0080008280BD14E
:1042A0002748007800F00800082805D02848006852
:1042B00040F48070264908602348007800F0100020
:1042C00010280BD11E48007800F01000102805D0EF
:1042D0001F48006840F400701D49086018480078C5
:1042E000194908701E2019490870184800780028DC
:1042F00004DD16480078401E1449087010BD0146C0
:1043000013480068084030B1114800688843104ADB
:104310001060002070470120FCE70D4909688143C7
:104320000B4A116070470146054800780840002894
:1043300001DD002070470120FCE70000000C014077
:104340001006002000100140110600201806002071
:104350001406002070B50446212C01D3002070BD46
:10436000EF4800EBC400807902282ED100F038FA23
:104370001CB9012000F0E2FAF1E7012C0ED1032074
:1043800000F0DCFA0546022000F0D8FA00EBC0018C
:1043900001EB001005EB800080B2E0E7022C0ED1AB
:1043A000052000F0CBFA0546042000F0C7FA00EB28
:1043B000C00101EB001005EB800080B2CFE7032CB9
:1043C00003D1062000F0BAFAC9E70D2C02D140F261
:1043D0006F10C4E7172C10D1D248FEF78EFD80B2C3
:1043E0004FF6FF71884203D1CF4830F81400B6E78A
:1043F000CC48FEF782FD80B2B1E7192C12D1C94832
:104400002030FEF77AFD80B24FF6FF71884203D16B
:10441000C54830F81400A2E7C2482030FEF76DFD11
:1044200080B29CE7C04830F8140098E773B50446A2
:10443000212C01D300207CBDB94800EBC40040888A
:10444000BDF80410884204DAB54800EBC400408887
:104450000190B34830F83400BDF80410884203DD01
:10446000AF4830F834000190AD4800EBC4008079CB
:10447000012812D1022000EB4401034601AA0120C9
:1044800011F0D0F9A84800EB4402022000EB4401EF
:104490000346012011F09AF950E0A14800EBC40056
:1044A0008079022845D100F09BF924B9BDF80410A9
:1044B000012000F0F5F9012C15D1BDF804006421AC
:1044C00090FBF1F085B22946022000F0E9F9BDF831
:1044D0000400642190FBF1F201FB120085B2294631
:1044E000032000F0DDF9022C19D1BDF8040064218D
:1044F00090FBF1F085B22946042000F0D1F9BDF817
:104500000400642190FBF1F201FB120085B2294600
:10451000052000F0C5F90021062000F0C1F9032CA8
:1045200004D1BDF80410062000F0BAF900F066F9D5
:1045300004E0BDF804107C4820F814107A4830F8E4
:104540001400BDF80410884201D0002073E7012058
:1045500071E7002007E0724901EBC0018A887249C7
:1045600021F81020401C2128F5D37047F8B5012709
:104570000024A2E06A4800EBC400807901287CD1C5
:10458000022000EB4405684800EB44020223294660
:10459000012011F01BF9172C2FD16248FEF7ADFC5A
:1045A00081B2614820F8141030F814004FF6FF7102
:1045B000884222D15C4800EB4402022329460120B4
:1045C00011F004F9FEF76BFC56482030FEF795FC1D
:1045D00086B25448FEF777FC52482030FEF773FC51
:1045E000514830F814104F48FEF78AFC31464D48C8
:1045F0002030FEF785FCFEF758FC192C2FD14948D6
:104600002030FEF77AFC81B2474820F8141030F8C9
:1046100014004FF6FF71884221D1434800EB440259
:1046200002232946012011F0D1F8FEF738FC3D485D
:10463000FEF763FC86B23B48FEF745FC3948203064
:10464000FEF741FC384830F8141036482030FEF7A9
:1046500057FC31463348FEF753FCFEF726FC324840
:1046600030F814002E4901EBC4014988884209DC66
:104670002D4830F814002A4900E01BE031F83410CE
:10468000884219DA264800EBC400021D022329469D
:10469000012011F0C7F802236A462946012011F0D3
:1046A00095F81F4800EBC4008088BDF800108842D0
:1046B00001D0002700E00127641C212CFFF45AAF31
:1046C0003846F8BD10B5FFF744FF0223164A921E84
:1046D0000021012011F07AF81348801E0088B0F5FF
:1046E000D35F19D04FF4D3500F49891E088044235B
:1046F0000A460021012011F095F802230A4A921E71
:104700000021012011F062F80748801E0088B0F5F2
:10471000D35F01D0002010BDFFF728FFFBE70000AA
:10472000529E0208C0FF0708CAD1002010B5002021
:104730009B490860486088600120C86000200861CB
:1047400046204861084611F0A8FD044601F06CFDC2
:10475000204601F036FD01F067FD10BD10B50121C6
:104760004FF0C05000F015FF8E48FBF70BFE012004
:1047700002F061FD042002F026FD4AF6AA218842DB
:1047800028D002F0EBFC012000F063FE00BF4120C6
:1047900000F0C7FD0028FAD04FF4807000F075FEDD
:1047A000012000F078FE01F048FD01F03DFD0121FF
:1047B000084601F0DDFC47F6FF7001F00FFD01F047
:1047C00033FDFFF7B3FF4AF6AA21042002F0EFFC05
:1047D000002010BD01F031FD01F026FD0120F8E7B9
:1047E00038B501F0E5FC0090684611F031FD044653
:1047F0002C2221466A4811F03DFC38BD10B56848AE
:1048000011F04BFD044601F00FFD204601F0D9FCEC
:1048100001F00AFDFFF7E4FF10BD40F26C71884221
:1048200004DBA0F26C715E4A516103E040F26C71EE
:104830005B4A516170470C2801DD0C2002E0012821
:1048400000DA0120411E564A116170471F2803DD1E
:104850001F21534AD16007E0012803DA0121504AA1
:10486000D16001E04E49C8607047172803DD172169
:104870004B4A916001E04A49886070473B2803DD5C
:104880003B21474A516001E04549486070473B2859
:1048900003DD3B21424A116001E041490860704755
:1048A000072848D2DFE800F04704121D2C353E00EF
:1048B00040F26C72914204DBA1F26C72384B5A6187
:1048C00003E040F26C72364B5A6135E00C2901DD91
:1048D0000C2102E0012900DA01214A1E304B1A6145
:1048E0002AE01F2903DD1F222D4BDA6007E0012992
:1048F00003DA01222A4BDA6001E0294AD1601BE089
:10490000172903DD1722264B9A6001E0244A9160A3
:1049100012E03B2903DD3B22214B5A6001E0204A93
:10492000516009E03B2903DD3B221D4B1A6001E089
:104930001B4A116000E000BF00BF70470146072915
:1049400020D2DFE801F01F040A0F13171B001448E0
:10495000808A00F26C7080B270471148008A401C57
:1049600080B2F9E70E48808980B2F5E70C480089EB
:1049700080B2F1E70A48808880B2EDE708480088F5
:1049800080B2E9E70020E7E710B5012001F067FCFD
:10499000012803D101F06EFC012010BD0020FCE7CE
:1049A0000CD20020400D0300FD48806940F001005A
:1049B000FB4988610846806940F004008861F94835
:1049C000006840F44030F74908600846006820F469
:1049D000402008601020F34910310860F148006859
:1049E00040F44010EF4908600846006820F4400099
:1049F00008600846006840F4000008600846006847
:104A000020F0407008600846006820F040600860B0
:104A10000846006840F0006008604020E14910311D
:104A20000860E048006840F04050DE4908600846F1
:104A3000006820F0404008600846006840F00040F0
:104A40000860D748806940F48050D54988610020CB
:104A5000D5498880042008800846008840F010006E
:104A600008800846008840F4807008800846008866
:104A700040F4007008800846008840F0400008803C
:104A80007047014600BFC848008900F002000028B6
:104A9000F9D0C548818100BFC348008900F00100FA
:104AA0000028F9D0C0488089C0B2704770B502466E
:104AB0000B460026BD48007820B9112A01D0182ADB
:104AC00000D15B024FF48010B6491031086042F00B
:104AD0004000FFF7D6FF180EFFF7D3FFC3F30740E0
:104AE000FFF7CFFFC3F30720FFF7CBFFD8B2FFF7E5
:104AF000C8FF082A03D18720FFF7C3FF02E09520F3
:104B0000FFF7BFFF05E03046711CCEB2FE2800DD86
:104B100005E0FF20FFF7B5FF0446FF28F3D000BFF4
:104B2000C4B93A2A16D1FF20FFF7ABFF054605F0BE
:104B3000400018B101209D49087002E000209B4907
:104B40000870FF20FFF79DFFFF20FFF79AFFFF206F
:104B5000FFF797FFFF20FFF794FF102091491031D6
:104B60000860204670BDF0B502270024FFF71CFF47
:104B700010208C4910310860002504E0FF20FFF769
:104B800080FF681CC5B20A2DF8DB4FF48010854900
:104B90001031086006E02046611C8CB2202801DD3F
:104BA0000220F0BD00210846FFF780FF0128F2D166
:104BB00010207C4910310860FF20FFF762FFFF20C2
:104BC000FFF75FFF002406E02046611C8CB2FE2840
:104BD00001DD012706E04FF4D5710820FFF766FFDD
:104BE0000128F1D100BF002400BF00213720FFF7CA
:104BF0005DFF06464FF080412920FFF757FF06462C
:104C0000601C84B240F6FE70844201DD0120C8E7DA
:104C1000002EEAD10024002064490870022F0DD133
:104C200005E02046611C8CB2FE2800DD05E0002175
:104C30003A20FFF73BFF0028F3D100BF0020B0E788
:104C400001F08000704770477047704770477047A9
:104C50002DE9F04107460C464FF000083946182070
:104C6000FFF724FF08B1BDE8F0814FF480104D49F3
:104C700010310860FE20FFF704FF002605E014F85D
:104C8000010BFFF7FEFE701C86B2B6F5007FF6DB67
:104C9000FF20FFF7F6FEFF20FFF7F3FEFF20FFF7F0
:104CA000F0FE054605F01F00052804D010203D4900
:104CB00010310860D7E70CE04046411C1FFA81F82C
:104CC0004FF6FE71884204DD10203649103108602D
:104CD000C9E7FF20FFF7D5FE0028EDD010203149AD
:104CE00010310860FF20FFF7CCFE4FF480102D49F3
:104CF000103108600CE04046411C1FFA81F84FF665
:104D0000FE71884204DD1020264910310860AAE7B0
:104D1000FF20FFF7B6FE0028EDD01020214910310A
:104D2000086000BF9FE770B506460C460025314677
:104D30001120FFF7BBFE00B170BD4FF48010194980
:104D4000103108600BE02846691C8DB24FF6FE71E9
:104D5000884204DD1020134910310860ECE7FF2081
:104D6000FFF78FFEFE28EED1002506E0FF20FFF7BB
:104D700088FE04F8010B681C85B2B5F5007FF5DBF1
:104D8000FF20FFF77EFEFF20FFF77BFEFF20FFF7EF
:104D900078FE102003491031086000BFCCE7000006
:104DA0000010024000080140003001401C060020B5
:104DB0002DE9F04107460C4616461D461449384673
:104DC000FFF7B1FF6019B0F5007F05DC104801194D
:104DD0002A46304611F009F9BDE8F0812DE9F0418D
:104DE00007460C4616461D4609493846FFF79BFF05
:104DF0006019B0F5007F05DC054908192A463146DF
:104E000011F0F3F802493846FFF722FFBDE8F081C0
:104E100038D2002000B585B000207E4908607EA110
:104E20007EA010F0CEFF7B49086008460068E0B124
:104E30006A467DA17748006810F06EFE75480068EC
:104E400010F0E6FF74A1684610F0BBFF71490860DE
:104E50000846006830B10846006810F0D9FF00200D
:104E600005B000BD4FF0FF30FAE74FF0FF30F7E735
:104E700010B56848006818B16648006810F0C8FFAF
:104E800010BD70B586B005460C4662480068B0B9E2
:104E900061A162A010F095FF5E49086001AA62A1BD
:104EA0005C48006810F038FE5A48006810F0B0FF07
:104EB00059A101A810F085FF5649086019E055482E
:104EC000006810F0A5FF54A154A010F07AFF5149DA
:104ED000086001AA54A14F48006810F01DFE4D481B
:104EE000006810F095FF4CA101A810F06AFF494935
:104EF00008601CB94FF0FF3006B070BD601E0101A4
:104F000000224448006810F091FE4248102201211E
:104F10000368284612F0D4FCC6B2102E0ED12878B1
:104F200030B91021284611F0DFF84FF0FF30E3E7E9
:104F30003848006810F06CFF0020DDE74FF0FF30CC
:104F4000DAE730B5ADF27C6D0024002572B671B69B
:104F500002F0CFF9012235A168460EF077F9054637
:104F60000A2233A10DF58B600EF09BF9054633A2A2
:104F70002DA10DF58B600FF056FE0DF58B61002015
:104F80000FF00CFE01240CE0234630A231A10DF5F8
:104F90008B600FF048FEE0B20DF58B610FF0FEFD67
:104FA000641CB4F5FA7FEFDBDDF864540DF58B601B
:104FB0000EF047FC02F09DF9212201211CA00FF008
:104FC00058F80A2227A10DF58B600EF06AF928A285
:104FD00015A10DF58B600FF026FE0DF58B600EF020
:104FE00030FC0A2224A18DA80EF05BF920A20EA1AC
:104FF0008DA80FF018FE8DA80EF023FC00220BA147
:1050000010460EF023F962B661B628460DF27C6DAB
:1050100030BD00002006002072000000526F616465
:105020002E6C6F670000000025730000303A00000E
:10503000303A526F61642E3000000000E1E5E72055
:10504000ECE0F0F8F0F3F2E020202000F2EEF7EAD6
:10505000E00000002573202530337520202020201B
:1050600020000000303A526F61642E6C6F670000C0
:10507000526F61642E300000303A526F6164732EBB
:10508000747874000CB500200190009048480068C6
:1050900040F480304649086000BF4548006800F48D
:1050A000003000900198401C0190009818B90198B8
:1050B000B0F5A06FF1D13E48006800F4003010B1A7
:1050C0000120009001E0002000900098012844D1C8
:1050D0003848006840F0100036490860084600680B
:1050E00020F0030008600846006840F002000860F5
:1050F0002F4840682E494860084640684860084686
:10510000406840F4806048600846406820F47C10A5
:1051100048600846406840F4E81048600846006867
:1051200040F08070086000BF2148006800F0007007
:105130000028F9D01E48406820F003001C49486050
:105140000846406840F00200486000BF18484068C8
:1051500000F00C000828F9D101E000BFFEE70CBD0B
:1051600010B5FFF78FFF10BD10B51148006840F073
:1051700001000F490860084640680F4908400C4983
:105180004860084600680D4908400949086008461B
:10519000006820F4802008600846406820F4FE0083
:1051A00048604FF41F008860FFF7DAFF10BD000071
:1051B00000100240002002400000FFF8FFFFF6FE52
:1051C00031490143314A1160704770B50021002315
:1051D0000F22C47804B32D4C246804F4E064C4F5B1
:1051E000E064210AC1F10403CA40447804FA03F1DF
:1051F0008478144021430901254C0678A155047890
:1052000004F01F050124AC4005786D11AD0005F1D7
:10521000E025C5F8004109E0047804F01F050124E9
:10522000AC401C4D0678761145F8264070BD1A4AF0
:105230000A400243154B1B1F1A60704739B1134ACD
:10524000121D12680243114B1B1D1A6006E00F4A23
:10525000121D126882430D4B1B1D1A6070470428F3
:1052600008D14FF0E021096941F004014FF0E0223C
:10527000116107E04FF0E021096921F004014FF0CE
:10528000E0221161704700000000FA050CED00E01B
:1052900000E400E080E100E080FFFF1FDF480068DD
:1052A00040F00100DD49086008464068DC490840DC
:1052B000DA49486008460068DA490840D74908607A
:1052C0000846006820F4802008600846406820F402
:1052D000FE0048604FF41F0088607047CF4909689E
:1052E00021F48031CD4A11601146096821F48021F2
:1052F0001160B0F5803F03D0B0F5802F0ED106E0ED
:10530000C649096841F48031C44A116007E0C349C5
:10531000096841F4A021C14A116000E000BF00BF4C
:10532000704710B501460022002300204A11012ACF
:1053300002D1BA4C236806E0022A02D1B74C236A94
:1053400001E0B64C636A01F01F02012494401C4046
:105350000CB1012000E0002010BD38B50020009005
:105360000024002500BF3120FFF7DBFF0546009831
:10537000401C00900098B0F5A06F01D0002DF2D035
:105380003120FFF7CEFF08B1012400E000242046C1
:1053900038BD01460020A14A106820F0F80040EA1C
:1053A000C10010607047A0490860704702460020A5
:1053B0009A4B586820F47C1042EA01031843974B3B
:1053C0005860704798490866704701460020934A24
:1053D000506820F003000843506070478F484068D1
:1053E00000F00C007047014600208C4A506820F005
:1053F000F00008435060704701460020874A50681B
:1054000020F4E06008435060704701460020834A62
:10541000506820F4605040EAC1005060704729B1E4
:105420007E4A527A02437D4B5A7204E07B4A527A9A
:1054300082437A4B5A7270477B49D8310860704773
:1054400001460020754A506820F4404008435060EF
:1054500070470021714A20321170704A82F8201082
:10546000012802D004280AD104E001216B4A20322D
:10547000117005E00521694A2032117000E000BF7B
:1054800000BF70476949086070476449096A014371
:10549000624A11627047654944390860704730B507
:1054A00000210022002400235C4D6D6805F00C01F2
:1054B00021B1042905D0082923D105E05C4D056000
:1054C00022E05B4D05601FE0544D6D6805F47012DD
:1054D000524D6D6805F48034022505EB92421CB9EB
:1054E000544D554305600BE04C4D6D6805F4003597
:1054F0001DB1504D5543056002E04D4D55430560CB
:1055000002E04B4D056000BF00BF444D6D6805F0E3
:10551000F0010909484D6B5C0568DD4045603F4D71
:105520006D6805F4E061090A434D6B5C4568DD4038
:1055300085603A4D6D6805F46051C90A3E4D6B5C5B
:105540004568DD40C560354D6D6805F44041890B07
:105550003A4D6B5CC568B5FBF3F5056130BD29B10B
:105560002E4A526902432D4B5A6104E02B4A52697C
:1055700082432A4B5A61704729B1284A92690243F3
:10558000264B9A6104E0254A92698243234B9A6133
:10559000704729B1214AD2690243204BDA6104E005
:1055A0001E4AD26982431D4BDA61704729B11B4AFA
:1055B000D2680243194BDA6004E0184AD268824389
:1055C000164BDA60704729B1144A12690243134B33
:1055D0001A6104E0114A12698243104B1A61704744
:1055E00012494039086070470F49C86470470B4939
:1055F000C87170470948406A40F0807007494862A6
:10560000704701460020054A92680A400AB101200D
:1056100000E0002070470149887270470010024086
:105620000000FFF8FFFFF6FE000042428004424205
:1056300000127A0000093D002406002034060020F4
:1056400010B50446E248844209D101218803FFF7DE
:10565000ADFF00214FF48040FFF7A8FF32E0DD48A6
:10566000844209D101214804FFF7ADFF00214FF426
:105670000030FFF7A8FF25E0D748844209D1012177
:105680008804FFF7A0FF00214FF48020FFF79BFF65
:1056900018E0D248844209D10121C804FFF793FFE2
:1056A00000214FF40020FFF78EFF0BE0CC4884422E
:1056B00008D101210805FFF786FF00214FF4801073
:1056C000FFF781FF10BD2DE9F04786B005460E4675
:1056D0000024A24600BF00BF0027B08900B100BF70
:1056E0002F462C8A4CF6FF700440F08804432C822D
:1056F000AC894EF6F3100440B088318908437189B3
:1057000008430443AC81AC8A4FF6FF400440B089A3
:105710000443AC8201A8FFF7C2FEAD48874202D124
:10572000DDF810A001E0DDF80CA00AEBCA0000EBE8
:105730000A1031688900B0FBF1F86420B8FBF0F082
:1057400004012009642101FB1089322000EB0910BB
:10575000B0FBF1F000F00F0004432C8106B0BDE86F
:10576000F0874FF41651016000218180C1800181D2
:105770000C21418100218181704710B50246002033
:10578000108A4FF2FF0318400B884C8823438C8803
:105790002343CC8823431843108210BD002101808D
:1057A00041808180C180704721B1828942F40052DA
:1057B000828104E082894DF6FF731A40828170472E
:1057C000F0B50346002400260025002040F66A17A5
:1057D000B94200D100BF1846C1F3421401F01F06C0
:1057E000012707FA06F5012C01D10C3004E0022C48
:1057F00001D1103000E014301AB107682F43076060
:1058000002E00768AF430760F0BD1AB1838A0B431B
:10581000838202E0838A8B4383827047028A4FF639
:10582000F0731A400282028A0A4302827047828918
:105830004FF2FF731A40828182890A438281704746
:1058400021B1828942F00202828104E082894FF60E
:10585000FD731A4082817047028A4FF6DF731A4047
:105860000282028A0A430282704721B1028A42F40C
:105870008042028204E0028A4BF6FF731A400282E1
:105880007047C1F308028280704701468888C0F3E0
:1058900008007047818941F0010181817047028BC6
:1058A000D2B20283028B42EA012202837047028B4A
:1058B00002F47F420283028B0A430283704721B1C4
:1058C000828A42F02002828204E0828A4FF6DF73ED
:1058D0001A408282704721B1828A42F0100282828D
:1058E00004E0828A4FF6EF731A408282704721B13A
:1058F000828A42F00802828204E0828A4FF6F773BD
:105900001A4082827047828A4FF6FB731A40828265
:10591000828A0A438282704721B1828A42F002025F
:10592000828204E0828A4FF6FD731A4082827047B9
:1059300002460020B1F5007F00D100BF13880B4064
:105940000BB1012000E00020704701F40072B2F5B5
:10595000007F00D100BFCA430280704770B5024685
:10596000002400230025002040F66A16B14200D131
:1059700000BFC1F3421501F01F03012606FA03F32D
:10598000012D02D19689334006E0022D02D1168AFC
:10599000334001E0968A33400C12012606FA04F4E3
:1059A0001688344013B10CB1012000E0002070BD16
:1059B00010B50022002340F66A14A14200D100BFB6
:1059C0000A1201249440A3B2DC43048010BD0000FD
:1059D000003801400044004000480040004C0040B6
:1059E0000050004010B50446C448844208D101214B
:1059F0000420FFF7DBFD00210420FFF7D7FD46E080
:105A0000BF48844208D101210820FFF7CFFD0021C3
:105A10000820FFF7CBFD3AE0BA48844208D10121C3
:105A20001020FFF7C3FD00211020FFF7BFFD2EE07F
:105A3000B548844208D101212020FFF7B7FD00219D
:105A40002020FFF7B3FD22E0B048844208D10121B5
:105A50004020FFF7ABFD00214020FFF7A7FD16E037
:105A6000AB48844208D101218020FFF79FFD00212F
:105A70008020FFF79BFD0AE0A648844207D1012160
:105A80008015FFF793FD0021A015FFF78FFD10BDD6
:105A900010B501210846FFF789FD00210120FFF71D
:105AA00085FD10BD2DE9F0410246002500260020AD
:105AB00000230024002791F803C00CF00F0591F893
:105AC00003C00CF0100CBCF1000F03D091F802C021
:105AD0004CEA050591F800C0BCF1000F31D0146804
