:020000040801F1
:1000000050F70020A16D0108551F0108571F010876
:100010005B1F01085F1F0108631F0108000000004B
:10002000000000000000000000000000671F010841
:10003000691F0108000000006B1F01086D1F010807
:10004000B76D0108B76D0108B76D0108B76D0108FC
:10005000B76D0108B76D0108B76D0108B76D0108EC
:10006000B76D0108B76D0108B76D0108B76D0108DC
:10007000B76D0108B76D0108B76D0108B76D0108CC
:10008000B76D0108B76D0108B76D0108B76D0108BC
:10009000A17A0108B76D0108B76D01081B080108B6
:1000A000B76D01086D2D0108B76D0108B76D010826
:1000B000B76D0108B76D0108B76D0108B76D01088C
:1000C000B76D0108B76D0108B76D0108B76D01087C
:1000D000B76D0108B76D0108751F0108B76D0108FC
:1000E000B76D0108B76D0108B76D010800F002F89F
:1000F00000F085F80AA090E8000C82448344AAF13D
:100100000107DA4501D100F07AF8AFF2090EBAE83A
:100110000F0013F0010F18BFFB1A43F0010318473B
:10012000D8DA0100F8DA010010F8013B0A4413F0B4
:10013000030408BF10F8014B1D1108BF10F8015B44
:10014000641E05D010F8016B641E01F8016BF9D133
:10015000002D15D010F8014B03F00C030C2BA1EB74
:1001600004040ABF10F8013BA4EB8314A4EB03249E
:1001700005F1010314F8016B5B1E01F8016BF9D561
:10018000914238BF10F8013BD1D3704700230024BF
:1001900000250026103A28BF78C1FBD8520728BF97
:1001A00030C148BF0B607047662918F03A81642956
:1001B00013F00486752913F00186632914F0BF85B6
:1001C000732914F0C485002070471FB59DE8030013
:1001D00015F024F815F006F804000020002116F0B0
:1001E00067FE401C60600020002116F04BFEE060BE
:1001F00015F0EAFA1FBD10B515F04FFB10BD15F054
:100200007FFB1146FFF7E1FF01F043FA15F0AAFE6C
:1002100003B4FFF7F0FF03BC07F074FDEFF30980B0
:10022000704780F309887047EFF30880704780F3C8
:100230000888704740BA7047C0BA704710B50028A8
:1002400007DA0A07140EFE4A00F00F031B1FD454EE
:1002500003E00A07130EFB4A135410BD10B5044601
:10026000B4F1807F01D3012010BD24F07F40401EF7
:100270004FF0E02148610F214FF0FF30FFF7DEFF24
:1002800000204FF0E0218861072008610020EBE7A3
:1002900010B506F06EFDEC480068401CEA490860A5
:1002A0000CF0D7FE03F000FDE8480068052802D1F5
:1002B0000020E64908601E2003F04CFE012804D10E
:1002C000E3480068401EE2490860E248008838B907
:1002D0004FF47A70DF4908800120DF49087004E09C
:1002E000DC480088401EDB490880DC480068B0F527
:1002F0007A7F0DD10020D9490860D9480068401C98
:10030000D7490860D7480068401CD649086004E017
:10031000D2480068401CD1490860D14800681E28B6
:1003200002D10020CE490860CE480068CE498842FC
:1003300002D10020CB490860C4480068401CC34972
:10034000086010BDC948806940F01000C749886145
:10035000C748406840F48030C5494860704700E0B5
:10036000401E0028FCDC704710B50446C4B1BF48ED
:10037000406800F00C00082824D0BC48406820F0F9
:100380000300BA4948600846406840F002004860EF
:1003900000BFB648406800F00C000828F9D111E011
:1003A000B248406800F00C0060B1B048406820F0EE
:1003B0000300AE49486000BFAC48406800F00C0044
:1003C0000028F9D11CB1AB48FFF748FF03E04FF418
:1003D000FA50FFF743FF10BD08B50121052004F0D6
:1003E0000BFE0120ADF8000010208DF80300032063
:1003F0008DF802006946A04805F094F80220ADF897
:10040000000000208DF8030069469B4805F08AF83B
:100410000420ADF8000028208DF8030069469648B6
:1004200005F080F80820ADF8000010208DF80300DA
:100430006946914805F076F81020ADF800008DF877
:10044000030003208DF8020010218B4805F017F9F6
:100450006946894805F066F8E020ADF800001820EC
:100460008DF8030003208DF802002021824805F05A
:1004700006F98021804805F002F969467E4805F0BA
:1004800051F84FF48070ADF8000048208DF803005B
:100490006946794805F046F80121092004F0ACFDD1
:1004A0000120ADF8000048208DF80300694673482C
:1004B00005F038F80220ADF8000048208DF8030060
:1004C00069466E4805F02EF82020ADF80000102097
:1004D0008DF8030003208DF802002021674805F005
:1004E000CEF86946654805F01DF84020ADF80000DB
:1004F00010208DF8030003208DF802000022402117
:100500005E4805F0C0F869465C4805F00BF88020AD
:10051000ADF8000010208DF8030003208DF80200D4
:100520008021564805F0ABF86946544804F0FAFFBC
:100530004FF48070ADF8000010208DF80300032008
:100540008DF802004FF480714C4805F098F8694628
:100550004A4804F0E7FF4FF40070ADF800001020A7
:100560008DF8030003208DF802004FF4007143481A
:1005700005F085F86946414804F0D4FF4FF48060E7
:10058000ADF8000048208DF8030069463B4804F0B0
:10059000C9FF4FF40060ADF8000048208DF803005B
:1005A0006946364804F0BEFF4FF48050ADF80000B5
:1005B00010208DF8030003208DF8020000224FF474
:1005C00080512E4805F05FF869462C4804F0AAFFD8
:1005D0004FF40050ADF8000018208DF80300032000
:1005E0008DF8020000224FF40051244805F04BF82A
:1005F0006946224804F096FF4FF48040ADF80000B1
:1006000018208DF8030069461C4804F08BFF4FF456
:100610000040ADF8000048208DF8030069461748F7
:1006200004F080FF0121112004F0E6FCFF20ADF86A
:10063000000010208DF8030003208DF802001FE059
:1006400018ED00E000E400E0040000204400002079
:10065000080000201E00002022000020380000209A
:100660003C00002040000020A0BB0D000010024014
:10067000001001404019010000080140000C014039
:10068000FF21FE4804F0FBFF6946FC4804F04AFFE6
:100690004FF48070ADF8000048208DF803006946E3
:1006A000F64804F03FFF4FF48060ADF800001020E2
:1006B0008DF8030003208DF8020000224FF48061C2
:1006C000EE4804F0E0FF6946EC4804F02BFF4FF4DD
:1006D0000060ADF8000014208DF8030003208DF8B1
:1006E00002004FF40061E54804F0C9FF6946E348A1
:1006F00004F018FF4FF44050ADF8000010208DF8C2
:10070000030003208DF802004FF48051DB4804F011
:10071000B8FF4FF40051D94804F0B3FF6946D748F9
:1007200004F000FF0121212004F066FC0420ADF854
:10073000000010208DF8030003208DF80200002235
:100740000421CF4804F09FFF6946CD4804F0EAFE3B
:100750004FF40070ADF8000010208DF80300032066
:100760008DF802004FF40071C44804F088FF694618
:10077000C24804F0D7FE4CF25030FFF7F0FD4FF4C2
:100780008060ADF8000010208DF8030003208DF884
:1007900002004FF48061B94804F071FF6946B74820
:1007A00004F0C0FE4FF40070ADF8000004208DF896
:1007B00003006946B34804F0B5FEB348806940F0D1
:1007C0000100B1498861B1488068B0498860084635
:1007D00080688860AE48006840F40070AC490860EA
:1007E000AB480C38006840F40070A9490C39086027
:1007F0000F211720FFF722FD172001218140420918
:10080000920002F1E022C2F8001100BF08BD10B54D
:100810000BF04EFB0BF030FB10BD10B504219948D6
:1008200004F013FF10B99B48007840B19848083095
:10083000006840F0020096490831086020E004F0AA
:1008400085F80120FFF790FDFFF7E1FF002401E0AC
:1008500000BF641C90488442FAD30122D102874829
:1008600004F011FF4FF48061844804F00AFF4FF454
:100870000071824804F005FF01E006F07AFAFCE717
:1008800010BD08B526208DF8000000208DF802006C
:1008900001208DF80300684604F0D7F908BD024630
:1008A0001004B0FBF1F07D4B1B6818447B4B1860C3
:1008B00018460068B0EB024F01D30020186077485B
:1008C0000068000C70472DE9FC414FF47A7425E074
:1008D0000BF0EEFA012108460BF013FD704A0021DF
:1008E00070A00BF05EFD142101200BF00AFDC4F591
:1008F0007A7016F0E0FD074600226F4B16F0D4FB2D
:1009000005462A460B466DA1684613F0F3F9644A82
:10091000002168460BF045FD0BF0AEFA2000A4F173
:100920000104D5D1BDE8FC8130B5ADF5037D0024CF
:1009300000250BF049F96348FFF711FD08F0C3FCEF
:100940000BF0B6FA002260A156A00CF0BEFB00200E
:100950000BF0ABFA002021237D221E210090012004
:100960000BF005FC0BF088FA00200BF09EFA01203A
:10097000212314221E2100900BF0F9FB0BF07CFACE
:1009800006F0F7F94FF4007103A813F075FD06F0B7
:10099000F0F902F08BF800200BF087FA00202123F9
:1009A0007D221E21009001200BF0E1FB0BF064FA88
:1009B00000200BF07AFA012021233C221E21009016
:1009C0000BF0D5FB0BF058FA06F0D3F901211820F3
:1009D00003F004FB00210C2003F000FB00211A208F
:1009E00003F0FCFA01210F2003F0F8FA06F0C1F938
:1009F00000200BF05AFA002021237D221E210090B6
:100A000001200BF0B4FB0BF037FA00200BF04DFA8D
:100A10000120212364221E2100900BF0A8FB0BF083
:100A20002BFA06F0A6F903F0CAFF05460BF040FAD0
:100A3000002225A11BA00CF048FB00200BF035FA8A
:100A4000002021237D221E21009001200BF08FFB2E
:100A50000BF012FA00200BF028FA012021237D224E
:100A60001E2100900BF083FB0BF006FA1748FFF7EE
:100A700076FC0BF01DFA0121084629E00010014028
:100A80000014014000080140001002400000014035
:100A90000C0401402C000020FFFF1F0088000020F4
:100AA000409B0208D4EEF0ECE0F2E8F0EEE2E0ED7C
:100AB000E8E52E2E2E00000000002440252E316691
:100AC00025250000A086010000000000C05C150084
:100AD0000BF017FCFCA101A813F00CF9FE4A002151
:100AE00001A80BF05EFC0C2101200BF00AFCFBA11D
:100AF00001A813F0FFF8F84A002101A80BF051FCFF
:100B00000BF0BAF906F035F9F748FFF728FC0BF0BF
:100B1000CFF919211C200BF0F4FBF44A0021F4A0BA
:100B20000BF03FFC0BF0A8F9EF48FFF718FC002191
:100B3000442006F07CF84FF40071F04804F0A1FD69
:100B400001200DF5037D30BD10B50BF03DF80446D6
:100B5000012C01D1002010BD012C02D9FFF7E4FEC9
:100B6000F9E70120F7E770B50646E5480068002878
:100B70006AD1E449E448006817F0ACFA2BD84FF08A
:100B80007E51E148006817F0A5FB24D2DF480068D9
:100B900008BBDF480078F0B90BF08AF91421052072
:100BA0000BF0AFFBCC4A0021DAA00BF0FAFB1E21C0
:100BB00005200BF0A6FBC84A0021DBA00BF0F1FBDF
:100BC0000BF05AF90120D1490860DB48FFF7C7FB59
:100BD00000200FF075FB0021CB48006817F0DEF90C
:100BE00031D1CB4800780028FAD1D448006817F0FA
:100BF00079F80446D24AD34B16F0CEFC7AD8C348D3
:100C00000068002876D10BF053F9142105200BF071
:100C100078FBB14A0021CCA00BF0C3FB1E210520BC
:100C20000BF06FFBAC4A0021CAA00BF0BAFB0BF033
:100C300023F9C148FFF793FB0BF03AF90BF01CF9CD
:100C40000120B249086055E001F060FE0A2828D86A
:100C500001F05CFE012824D9AC48006808BBAC4810
:100C60000078F0B90BF024F9142105200BF049FBB2
:100C7000994A0021A7A00BF094FB1E2105200BF040
:100C800040FB954A0021A8A00BF08BFB0BF0F4F879
:100C900001209E490860A848FFF761FB00200FF083
:100CA0000FFB01F033FE28BB9948007810BB974832
:100CB0000068F8B90BF0FCF8142105200BF021FBBB
:100CC000854A0021A0A00BF06CFB1E2105200BF033
:100CD00018FB814A00219FA00BF063FB0BF0CCF8BE
:100CE0009F48FFF73CFB0BF0E3F80BF0C5F8012041
:100CF0008649086070BD10B5102003F02BF904463A
:100D0000012C06D0022C0AD0042C0ED0082C14D1B1
:100D100011E0112003F01EF940EA04240FE0122034
:100D200003F018F940EA042409E0132003F012F953
:100D300040EA042403E0240201E0002400BF00BFD5
:100D400088480068A04219D0A1B20A2003F046F9F1
:100D5000844804608448818C042003F03FF9824871
:100D6000818D052003F03AF97F48818E062003F03B
:100D700035F97D48818F072003F030F910BD70B53B
:100D800003F072FBA8B303F09BFA012003F046FBCB
:100D900004462146002003F021F9032003F03EFB26
:100DA0000546022003F03AFB00EBC00101EB001006
:100DB00005EB800084B22146012003F00FF90520E5
:100DC00003F02CFB0546042003F028FB00EBC001D8
:100DD00001EB001005EB800084B22146022003F0F5
:100DE000FDF8062003F01AFB04462146032003F019
:100DF000F5F870BD10B5002204215C4804F043FCF6
:100E000002F0C0F900210B2003F0E8F8082003F0FD
:100E1000A1F840F001042146082003F0DFF846F273
:100E2000A811534802F099F910BD10B502F004FC66
:100E3000082003F08FF820F001042146082003F079
:100E4000CDF80B2003F086F828B94748B0F85C10BD
:100E50000B2003F0C3F810BD10B5044645480078D8
:100E6000002802DD4448454908600421444804F054
:100E7000ECFB10B140484149086040480068002838
:100E800004DC4FF400711D4804F0FBFB10BD2DE99C
:100E9000FC5F192003F05EF8064617F007F90546D7
:100EA000384916F0B9FF384908600A2003F052F8B3
:100EB00040F20122811A904205D077DCB0F5827FA2
:100EC00065D06CDC65E0A3E0D4EEF0ECE0F2E8F095
:100ED000EEE2E0EDE8E50000409B0208E7E0E2E535
:100EE000F0F8E5EDEE2E000060E3160048A90208D8
:100EF000C2DBCACBDED7C5CDC8C50000001001409B
:100F0000580000200000204178000020340000201C
:100F100014000020C7E0F0FFE420E0EAEAF3ECF37D
:100F2000EBFFF2EEF0E00000ECE5EDFCF8E520313F
:100F30003025202E2E2E0000A02526007C0000202B
:100F4000CDCCCCCCCCCC0440C0EAEAF3ECF3EBFF44
:100F5000F2EEF000F0E0E7F0FFE6E5ED2E00000035
:100F6000404B4C008C0000202684020800140140F5
:100F7000A017002000060020C0270900080000205C
:100F80000008014000007A44240000200EE027E021
:100F900005E0A0F2011098B101286FD118E0B0F57A
:100FA000847F25D0B0F5887FF7D129E001293BD097
:100FB00003294ED0072962D0B1F5007FEDD173E04F
:100FC000F949FA48006816F027FFF849086081E0FF
:100FD000F549F648006816F01FFFF449086079E00B
:100FE000F149F248006816F017FFF049086071E017
:100FF000ED49EE48006816F00FFFEC49086069E023
:10100000E949EA48006816F007FFE849086061E02E
:10101000E749E648006817F091F80546E24916F0FE
:10102000FBFEE249086055E0E048006816F05AFE11
:10103000E04AE14BCDE9000116F0EAFA074600224A
:10104000DE4B16F031F8054615F048FFD749086029
:1010500040E0D648006816F045FED64AD64BCDE9AA
:10106000000116F0D5FA05460022D44B16F01CF804
:10107000074615F033FFCD4908602BE029E0CB4847
:10108000006816F02FFE0546CA4ACB4B16F0C0FA90
:101090000022CA4BCDE9000116F006F8074615F00C
:1010A0001DFFC249086015E0C048006816F01AFE2E
:1010B0000746C34AC34B16F0ABFA05460022C24BA3
:1010C00015F0F2FFCDE9000115F008FFB7490860FF
:1010D00000E000BF00BFBD4801F091FA0546B348EB
:1010E0000168284617F02AF881460A2002F032FFEC
:1010F00040F20121884211D14946484617F01EF8B6
:10110000B349019017F018F9834616F0EBFD074636
:1011100015F092FE054615F0E1FE8146484616F0B0
:101120008DFF85B22946042002F058FFA74801F040
:1011300082FA8246A54801F089FA0546A54916F0CB
:10114000FDFF04462146504616F0C4FF00D2A246D9
:1011500096480168504616F0F1FF82460A2002F0D8
:10116000F9FE40F2011188420ED14FF08141504604
:1011700017F0B0F806D24FF08141504617F0DCF876
:10118000824601E04FF0000A0A2002F0E3FEB0F5CB
:10119000817F0ED14FF08141504617F09BF806D267
:1011A0004FF08141504617F0C7F8824601E04FF0FA
:1011B000000A0A2002F0CEFEB0F5827F0CD18649EB
:1011C000504617F087F805D28349504617F0B4F817
:1011D000824601E04FF0000A0A2002F0BBFEB0F5A3
:1011E000847F0CD17D49504617F074F805D27B49B5
:1011F000504617F0A1F8824601E04FF0000A0A209D
:1012000002F0A8FE40F2012188420CD174495046F8
:1012100017F060F805D27249504617F08DF88246F3
:1012200001E04FF0000A0A2002F094FE40F2022191
:1012300088420ED14FF08241504617F04BF806D24B
:101240004FF08241504617F077F8824601E04FF0A8
:10125000000A0A2002F07EFEB0F5017F0ED14FF0A9
:101260008241504617F036F806D24FF08241504680
:1012700017F062F8824601E04FF0000A0A2002F0FF
:1012800069FEB0F5027F0CD15649504617F022F89E
:1012900005D25449504617F04FF8824601E04FF00E
:1012A000000A0A2002F056FE40F2014188420CD1A9
:1012B0004D49504617F00EF805D24B49504617F0ED
:1012C0003BF8824601E04FF0000A504616F0B6FEA9
:1012D00085B22946052002F081FE4349484616F0B2
:1012E000F9FF05D24946504616F096FD824601E0C8
:1012F0004FF0000A3D49504616F020FF064616F012
:101300009DFE85B22946072002F068FE2F4801F0B5
:10131000A8F9054625480168284616F00FFF8246C1
:101320000021504616F0D6FE01D24FF0000A0A20E6
:1013300002F010FE40F2011188420ED14FF08241BE
:10134000504616F0C7FF06D24FF08241504616F0C5
:10135000F3FF824601E04FF0000A0A2002F0FAFD96
:10136000B0F5817F0ED14FF08241504616F0B2FFAA
:1013700006D24FF08241504616F0DEFF824601E071
:101380004FF0000A0A2002F0E5FDB0F5827F31D16E
:101390001249504616F09EFF2AD21049504616F0C8
:1013A000CBFF824626E000000000404024000020E1
:1013B0000000E442D122DBF97EEA3440000008401C
:1013C00085EB51B81EB9784000C0724000DB0020A8
:1013D0000000C843000080BF0000E0400000604102
:1013E00000008C42000020410000A0400000C842E4
:1013F0004FF0000A0A2002F0ADFDB0F5847F0CD159
:10140000FE49504616F066FF05D2FC49504616F0DC
:1014100093FF824601E04FF0000A0A2002F09AFD95
:1014200040F2012188420CD1F549504616F052FF96
:1014300005D2F349504616F07FFF824601E04FF097
:10144000000A0A2002F086FD40F2022188420CD1F7
:10145000EC49504616F03EFF05D2EA49504616F0D8
:101460006BFF824601E04FF0000A0A2002F072FD95
:10147000B0F5017F0CD1E349504616F02BFF05D2A1
:10148000E049504616F058FF824601E04FF0000A4E
:101490000A2002F05FFDB0F5027F0CD1D949504619
:1014A00016F018FF05D2D749504616F045FF824680
:1014B00001E04FF0000A0A2002F04CFD40F2014129
:1014C00088420CD1D049504616F004FF05D2CE49CF
:1014D000504616F031FF824601E04FF0000A5046B8
:1014E00016F0ACFD85B22946062002F077FDBDE876
:1014F000FC9F70B5044665682E462068FEF797FE8F
:10150000A4F100614FF0006003F0D1FBB04770BD63
:101510002DE9F84F01F02AFA824616F0C7FD814600
:101520004FF08B4116F078FC044616F0DBFB0746C3
:101530004FF06632B54B16F06BF8054615F0CEFC51
:10154000B349086008460168B24816F0F5FEB04994
:101550000860B149AE48006816F05EFC804616F09F
:10156000C1FB0646AD4AAE4B16F052F8044615F0E4
:10157000B5FCA749086001F023FA009016F096FD2B
:1015800083464FF08B4116F047FC824616F0AAFBCB
:1015900080464FF066329D4B16F03AF80646A14A57
:1015A000A14B16F035F8044615F098FC9F490860E9
:1015B0009F48006816F062FD05469E48016828466F
:1015C00016F0BAFE04469C4916F026FC9B490860BA
:1015D0009748006816F052FD9649086097480168E0
:1015E0008B48006816F0AAFD0446954916F014FCD5
:1015F0009449086094480068012807D108460168AA
:101600009248006816F09AFB904908608E4800687E
:1016100038B98C4801688D48006816F08DFE8B49FA
:1016200008608248006816F05DFB0446884A894BD2
:1016300015F0B2FF03D200208749086012E0874905
:101640008248006816F07AFD804616F04BFB06468D
:101650004FF03332824B15F027FD044615F03EFC67
:101660007D4908607F497948006816F067FD81462A
:1016700016F038FB074615F03BFB054615F0A8FEB3
:1016800084B22146282005F0D2FA70480068BDE8EF
:10169000F88F88B000BF0025002600BF00207249E7
:1016A0000870FEF799FE7148FEF759FE6F48FEF785
:1016B00056FE6E48FEF753FE012291026C4803F07D
:1016C000E2FF6A48FEF74BFE6848FEF748FE6748AF
:1016D000FEF745FE03F088FA0120FEF745FE00F014
:1016E000DFFF06F07BF80AF0FAFB01206149086091
:1016F00002F0A4FD28B96048006840F001005E498E
:101700000860FFF721FA28B95B48006840F0040040
:101710005949086002F049FD28B95748006840F06F
:1017200002005549086000205349086008460068D7
:1017300000284DD00024514A002151A00AF031FE6A
:101740004D48007800F0010068B1601C044600EBD1
:1017500080004006010E05200AF0D3FD474A002113
:1017600049A00AF01EFE4448007800F0020068B16B
:10177000601C044600EB80004006010E05200AF0C4
:10178000C0FD3E4A002142A00AF00BFE3A48007814
:1017900000F0040068B1601C044600EB80004006C5
:1017A000010E05200AF0ADFD344A00213DA00AF0EB
:1017B000F8FD0AF061FB4048FEF7D1FDFFF727F87E
:1017C0003D48FEF7CCFD4FF40071294803F059FF66
:1017D000182002F0BFFB00280FD1012108460AF0B3
:1017E00090FD264A002135A00AF0DBFD19210120D9
:1017F0000AF087FD214A00216AE0A0E00000F041E4
:10180000000002430000A0410000204166660A403B
:10181000600000203333D33FA4709D407B14AE475B
:10182000E17AF03FE17A14AE47E100407C0000200D
:10183000040000206800002000007A4464000020BA
:10184000000061456C0000205C000020700000205A
:10185000CDCCCCCCCCCC0440780000200000C842D9
:101860003333E33F0050C34714000020A08601003B
:1018700000100140300000200C000020409B0208B6
:101880004552524F523A0000D7E0F1FB00000000F1
:10189000C8EDE8F6E8E0EBE8E7E0F6E8FF20464CC4
:1018A00041534800C8EDE8F6E8E0EBE8E7E0F6E889
:1018B000FF2046415431360060AE0A00CEF8E8E120
:1018C000EAE020E7E0EFE8F1E82046415431360055
:1018D000FEA00AF066FD0AF0CFFA05F04AFA0020F1
:1018E000FEF742FD2AE0102002F009FBA0B90AF041
:1018F000DFFA0AF0C1FAFFF717F8FEF788FFF84899
:10190000FEF72DFD0AF0D4FA0AF0B6FA4FF4007192
:10191000F44803F0B6FE11E0082002F0F0FA68B9CE
:10192000FEF775FFEE48FEF71AFD0AF0C1FA0AF05D
:10193000A3FA4FF40071EB4803F0A3FED3E718209D
:1019400002F008FB074639460C2002F047FB1B203B
:1019500002F000FB64280AD00AF04DFD0AF08CFA70
:10196000002501E000BF6D1CDF488542FAD314203A
:1019700001F0EEF80BF0E1FB0020FEF7F5FC012092
:1019800002F0D1FA30B9022002F0CDFA10B980206D
:101990000BF0D0FB192002F0DDFA804616F086FB32
:1019A0000746D24916F038FAD1490860D149D048E3
:1019B000006816F031FACE4908600C2005F043F9B2
:1019C000CD490880CD48006860B9CD48006816F060
:1019D00019FBCC490860CA48006816F013FBCA49D5
:1019E000086007E000F092FFC649086000F08EFF33
:1019F000C5490860442005F026F9C44908604FF441
:101A00000041C34803F021FEBC490860282005F0CE
:101A10001AF960B90020BF4915F06AF9074615F0B8
:101A2000D7FC1FFA80F94946282005F000F9282044
:101A300005F009F9804616F039FB0746B64916F05D
:101A4000EBF9B649086075E2B548007850B3AA488A
:101A50000088B0F5616F18D10E2002F07BFAA6491C
:101A60000880084600884FF6E851884209DAA24803
:101A70000088401C80B2A04A108001460E2002F06F
:101A8000ADFA00209C49088004E09B480088401C77
:101A9000994908800020A2490870974801880C20C5
:101AA00005F0C5F845F2555005F05AF9062005F045
:101AB0005AF94FF4806005F059F905F05FF9FFF726
:101AC00027FD98480078984908600421974803F05A
:101AD000BCFD9749096888427CD00421934803F0F3
:101AE000B4FD934908600846006878B3FFF79DF994
:101AF00000209049087002F029FF8F48FEF72FFC64
:101B00001B2002F027FA642804D163211B2002F075
:101B100065FA14E064211B2002F060FA62B661B637
:101B200000BF8648006800F4E06085490843001D56
:101B300082490860BFF3408F00BF00BFFEE701206D
:101B4000FEF712FC00207F49087094E0FFE70120B7
:101B50007C49087000207C4908700AF0A9F901212D
:101B600008460AF0CEFB794A002179A00AF019FC58
:101B70000AF082F9002472B671B6012278A1794880
:101B800010F03AFA00260DE000231A4676A101A8CB
:101B9000009612F0AFF87B4901A810F02AFF00B9B7
:101BA000641C761CFF2EEFD905F0E3F80A2276A11B
:101BB000784810F04CFA002277A101A812F09AF8A8
:101BC00001A9744811F0F9FE72490A2011F0B0FE23
:101BD000012515E06EE02A4672A101A812F08AF8EC
:101BE000684901A810F005FF38B901A9694811F04A
:101BF000E4FE68490A2011F09BFE05F0BAF86D1C5E
:101C0000FF2DE8D3634810F0F2FC002201A953A095
:101C100011F000FA66A101A812F080FC10B164A0D6
:101C200011F057FA00224EA1104610F0E5F962B605
:101C300061B661480460601C81B20F2002F0CEF9E9
:101C4000002500265DA15EA012F0E5FA40B14FF03C
:101C50000060FFF74EFC00205D4908605D490860A8
:101C60000020FEF781FB3448FEF779FB02F042FECC
:101C700000200EF025FB2148006878B92D48007837
:101C800060B91F48006816F0BDF91E4908601C487D
:101C9000006816F0B7F91C49086007E000F036FE4E
:101CA0001849086000F032FE1749086020480068B3
:101CB00005F0A2FD1E480068002805D10120464914
:101CC000086000201F4989E016E10000D4EEF0EC26
:101CD000E0F2E8F0EEE2E0F2FC2E2E2E3F000000F3
:101CE00060AE0A0000100140FFFF2F0000007A44A0
:101CF000240000200000964320000020580000200F
:101D000078000020480000204C000020C010002077
:101D1000000C0140004CED400050C3477000002013
:101D2000220000203A10002050000020000801404E
:101D30001000002014000020400D03000CED00E016
:101D40000000FA052C00002015000020409B02082E
:101D5000CFEEE4EEE6E4E8F2E52E2E2E00000000E1
:101D6000303A00004C1100204D3A5C253033752E7E
:101D7000253033755C5369676E616C2025642E6471
:101D800061740000A4150020526F6164732E747892
:101D90007400000080130020526F61642E253031E2
:101DA00075202000526F61642E25303375000000CD
:101DB00050494F4E2D330000180000207262000081
:101DC0004D3A5C70726F67312E62696E00000000E0
:101DD000B8100020C41000205C00002008704FF4F0
:101DE0008051554803F04DFC4FF40051524803F028
:101DF00048FC5248007830B9042002F080F810B94D
:101E000001204E4908704D48007801280ED18020ED
:101E100002F075F850B90220484908704848007827
:101E200020B90120FEF7A0FAFEF7E4FF434800784E
:101E3000022806D1042002F062F810B903203F49BD
:101E400008703E480078032806D1802002F057F839
:101E500010B90020394908703848007840B9FEF7B9
:101E6000E4FF01F005FC00B96D1C0020FEF77CFAD0
:101E70003248007810B90020FEF775FE082002F005
:101E800069F800F0010000280FDD0A2002F062F876
:101E9000B0F5006F07D101F0F3FB074639460B2080
:101EA00002F09CF801E0FEF7F2FF264800780028D7
:101EB00009DD082002F04EF840F0080739460820F6
:101EC00002F08CF808E0082002F044F820F008073F
:101ED0003946082002F082F800201A4908700EF0F6
:101EE000ABFC30B11E2002F035F8012801D1FEF71D
:101EF000B3FFFEF700FF1DE01E2002F02BF80128C3
:101F000001D1FEF7A9FF1048007880B90F48FEF70D
:101F100026FA0D48007818B902200EF0D1F909E030
:101F200001200EF0CDF900200949086002E00120EF
:101F30000EF0C6F988E500000010014014000020F2
:101F400090100020CC0000203B10002080969800CC
:101F50005C000020704700BFFEE700BFFEE700BF47
:101F6000FEE700BFFEE770477047704710B5FEF709
:101F70008FF910BD10B540F225510F4803F02EFA2D
:101F800048B10D4803F0C1F90C49087008460178C2
:101F9000094803F0B6F940F22661074803F01EFA3B
:101FA00040B14021044803F010FA04480078401E74
:101FB0000249087010BD000000440040900000205D
:101FC0002DE9F04106460F461446F94800780128ED
:101FD00002D10020BDE8F081022C00DC0CB9002009
:101FE000F8E7F34801780078401CF14A107001EBE3
:101FF000810000EBC100EF4901EB80052C704FF030
:10200000000800BF002105F11C0040F824100C302E
:1020100040F8241056F82410281D40F8241057F8D2
:1020200024100C3040F8241034B1281D50F824102E
:10203000404615F083FE804605F1100050F824104C
:10204000404615F07BFE8046201EA4F10101CCB273
:10205000D8DC2846BEE72DE9F04704460D460026A9
:10206000E1692162A16AE162E561A168E06A16F0B6
:1020700065F880466169206A16F060F8814621693A
:10208000E06916F05BF88246494615F057FE0746B0
:10209000414615F053FE0646A662A06ABDE8F087E9
:1020A0002DE9F84F04460D460026216A6162E16A77
:1020B0002163E1692162A16AE162E561E168206B67
:1020C00016F03CF88146A168E06A16F037F88246BF
:1020D000494615F033FE0746A169606A16F02EF8EE
:1020E00000906169206A16F029F882462169E0694A
:1020F00016F024F88346514615F020FE81460099DB
:1021000015F01CFE8046394615F018FE0646A662FC
:10211000A06ABDE8F88F2DE9BF4F82468B46144672
:10212000A5480078062803D1002004B0BDE8B08F90
:10213000022C00DC0CB90020F7E79F4801780078FA
:10214000401C9D4A107001EB810000EBC1009B49CF
:1021500001EB800989F80040002500BF002109F14A
:102160001C0040F824100C3040F824100AEBC40086
:1021700000224FF08043D0E90071384615F00CFA88
:1021800021D20AEBC40000224FF04043D0E9007195
:10219000384615F03BFB16D20AEBC4000022884BF0
:1021A000D0E90071384615F033FA0022854BCDE9AD
:1021B000000115F02DFACDE9020114F020FE09F11D
:1021C000040141F824000BEBC40000224FF08043CF
:1021D000D0E90071384615F0DFF921D20BEBC400CD
:1021E00000224FF04043D0E90071384615F00EFB55
:1021F00016D20BEBC401D1E900710022704B3846B6
:1022000015F006FA00226F4BCDE9000115F000FA37
:10221000CDE9020114F0F3FD09F1100141F82400A9
:1022200024B109F1040050F82400451909F1100007
:1022300050F824004519201EA4F10101CCB28DDC18
:10224000484672E70146002009E0002301F11C0224
:1022500042F820300C3242F82030421CD0B2032821
:10226000F3DB70472DE9FC5F0646894615460024DE
:1022700034E006EBC4000022514BD0E9007138462F
:1022800015F0C6F900224F4BCDE9000115F0C0F959
:10229000824614F0B4FD291D41F8240009EBC40066
:1022A0000022474BD0E90071384615F0B1F982465B
:1022B0000022444B15F0ACF9CDE9000114F09FFD6C
:1022C00005F1100141F82400002105F11C0040F83F
:1022D00024100C3040F82410601CC4B22878401C34
:1022E000A042C6DCBDE8FC9F2DE9F043024600BFDA
:1022F000156A5562D56A1563D5691562956AD56206
:10230000D1611569D06980FB0550176A566987FB52
:102310000667AD197841576A966987FB0667AE195B
:102320007841D76A956887FB0597D2F80CC0D2F838
:10233000308088FB0CC83D4619EB0C0745EB0805BF
:10234000F31940EB05044FF000569E1944F10000CC
:10235000850045EA96709062906ABDE8F083F0B51A
:10236000024600BFD5691562956AD562D1611569CB
:10237000D06980FB0550176A566987FB0667AD195F
:102380007841D76A966887FB0667AB1940EB07046C
:102390004FF00057DE1944F10000850045EA9670C1
:1023A0009062094D906AA84210DD2846F0BD0000F9
:1023B00091000020341600209200002068160020B2
:1023C0000000F0400000D0400080FF3F906AB0F174
:1023D000404F02DA4FF04040E8E7906AE6E72DE927
:1023E000F043024600BF156A5562D56A1563D56988
:1023F0001562956AD562D1611569D06980FB055077
:10240000176A566987FB0676ED197041576A966917
:1024100087FB0667AE197841D76A956887FB05C5C3
:10242000D2F83080D76888FB0787B9461CEB0807CD
:1024300045EB0905F31940EB05044FF000569E19D2
:1024400044F10000850045EA967090628F4D906AD5
:10245000A84202DD2846BDE8F083906AB0F1404F03
:1024600002DA4FF04040F6E7906AF4E72DE9F047D2
:10247000034600BF1E6A5E62DE6A1E63DE691E627C
:102480009E6ADE62DA611E69D86980FB0670D3F845
:1024900020C05E698CFB06C6B04617EB0C0640EB0D
:1024A0000800D3F824C09F698CFB077CF71940EB28
:1024B0000C00D3F82CC09E688CFB0686D3F80CC0A9
:1024C000D3F8309089FB0C9CE24618EB090C46EBE4
:1024D0000A0617EB0C0440EB06054FF0005C14EB0A
:1024E0000C0745F10000860046EA9770986200BF2D
:1024F0000E6A4E62CE6A0E63CE690E628E6ACE623C
:10250000986AC8610E69C86980FB0670D1F820C05E
:102510004E698CFB06C6B04617EB0C0640EB080074
:10252000D1F824C08F698CFB077CF71940EB0C00B5
:10253000D1F82CC08E688CFB0686D1F80CC0D1F87F
:10254000309089FB0C9C18EB090846EB0C0617EB46
:10255000080440EB06054FF00056A61945F10000AF
:10256000870047EA96708862484E886AB04202DD6A
:102570003046BDE8F087886AB0F1404F02DA4FF08C
:102580004040F6E7886AF4E7418100230360436036
:102590000022C26002618261C261028180F828204B
:1025A00002624262704730B5C2688A4200DAC16096
:1025B00002698A4200DD016101F58042D11381FB8D
:1025C0000153D0E9004264195A41C0E9004202892E
:1025D000521C0281028943899A420FDBD0E9002311
:1025E000C0E90623C2680262026942620022C26038
:1025F000026102604260028180F8282030BD2DE92E
:10260000FC478046B8F80A0014F06CFF04460D46FB
:10261000D8E90621104614F079FF064622462B46DB
:1026200014F042FD814614F007FCCDE9000114F0DE
:1026300055FCBDE8FC8770B50446206A15F01EFD08
:1026400005464FF08E4115F0E7FB70BD70B50446AE
:10265000606A15F013FD05464FF08E4115F0DCFB66
:1026600070BD70B504462046FFF7F0FF05462046D2
:10267000FFF7E1FF0646294615F05EFE70BD0146F4
:1026800091F8280000F00100704700000080FF3F33
:1026900010B5044621464FF4007002F0ADFC10BDA9
:1026A00000B585B0012140F2012002F0A5FC002018
:1026B00000908DF804008DF805004FF46020029022
:1026C0000020039001208DF810006946D14803F0E6
:1026D0008EF8072301220321CE4803F020F90121BF
:1026E000CC4803F0B0F8CB4803F0CFF800BFC9489E
:1026F00003F0D0F80028FAD1C64803F0D5F800BF9F
:10270000C44803F0D6F80028FAD1012003F02CFACF
:102710000021C04803F097F805B000BD2DE9F04155
:1027200000240025002780260120FFF7B1FF0121AA
:10273000B84803F088F8072301221121B54803F0B7
:10274000EEF800BF0EE00121B24803F0BCF800BF74
:102750000221B04803F028FA0028F9D0AD4803F070
:1027600045F905443000A6F10101CEB2EBD1ED09E7
:102770004FF49600B0FBF5F7072301221146A54858
:1027800003F0CDF880260EE00121A24803F09BF86B
:1027900000BF02219F4803F007FA0028F9D09D48A6
:1027A00003F024F904443000A6F10101CEB2EBD1CC
:1027B0000021984803F047F80020FFF769FFE4097B
:1027C00004FB07F04FF4006101EB400040F6FF719D
:1027D000B0FBF1F42046BDE8F08110B5FFF79EFF95
:1027E000044641F23600844201D964240DE040F6EB
:1027F0001C40844201D2002407E0A4F61C4464205B
:10280000604340F21A41B0FBF1F483480088642829
:102810000CD1824800686421B0FBF1F08049087057
:1028200000207E4908607C49088004E07B480068FD
:1028300020447A49086078480088401C764908801E
:1028400077480078FA2801D175490C7074480078EF
:1028500010BD2DE9F041002400250027802601202D
:10286000FFF716FF01216B4802F0EDFF072301225D
:102870001121684803F053F800BF0EE001216548BC
:1028800003F021F800BF0221624803F08DF900280F
:10289000F9D0604803F0AAF805443000A6F1010120
:1028A000CEB2EBD1ED095F48B0FBF5F7072301226B
:1028B0001146584803F033F880260EE001215548B0
:1028C00003F001F800BF0221524803F06DF900281F
:1028D000F9D0504803F08AF804443000A6F1010111
:1028E000CEB2EBD100214B4802F0ADFF0020FFF744
:1028F000CFFEE40904FB07F040F6CA0101EB4000FB
:102900004900B0FBF1F42046BDE8F08110B5FFF7B7
:10291000A0FF0446B4F5616F01D964240CE0B4F55E
:10292000486F01D2002407E0A4F5486464206043A6
:102930004FF4C871B0FBF1F4204610BD10B5FFF79D
:1029400088FF0446B4F57A6F01D964240CE0B4F52D
:10295000486F01D2002407E0A4F548646420604376
:102960004FF44871B0FBF1F4204610BD70B500265D
:10297000002480250120FFF78BFE0121254802F06D
:1029800062FF072301220321224802F0C8FF00BF93
:102990000EE001211F4802F096FF00BF02211D48F2
:1029A00003F002F90028F9D01A4803F01FF8044494
:1029B0002800A5F10101CDB2EBD1E409204670BD9C
:1029C00070B50026002480250120FFF761FE01215B
:1029D000104802F038FF0723012211460D4802F08B
:1029E0009EFF00BF0EE001210A4802F06CFF00BF0D
:1029F0000221084803F0D8F80028F9D0054802F071
:102A0000F5FF04442800A5F10101CDB2EBD1E409A2
:102A1000204670BD002401409C000020980000204A
:102A200094000020C065520010B5002403E001F0BE
:102A30000AFE00B904E02046611CCCB20A28F6DB8D
:102A400000BF012010BD70B504460D46164638483B
:102A5000844213D24FF48051364802F010FE72B611
:102A600071B62946601C01F063FE62B661B64FF490
:102A70008051304802F005FE012070BD0020FCE7C7
:102A800070B504460D4616462948844209D272B6EE
:102A900071B62946601C01F0B6FE62B661B601202F
:102AA00070BD0020FCE701460120704710B504F01E
:102AB00060F972B671B604F05CF91F49012001F0AB
:102AC00037FE62B661B604F054F94FF47A740DE043
:102AD00004F04FF972B671B604F04BF9A01C174917
:102AE00001F026FE62B661B604F043F92000A4F1BD
:102AF0000104EDD172B671B604F03BF9012210A1C8
:102B000010480FF079FA002211460DA010F0A2FB38
:102B100004F02FF90CA010F0DCFA04F02AF90022DE
:102B200007A110460FF068FA62B661B6012010BD29
:102B300000963A00000801402806002028080020DE
:102B4000303A00004C11002050494F4E2D33000008
:102B500010B58AB004460121C80202F04DFA012CDA
:102B600004DD601E80B2ADF8200002E00120ADF867
:102B700020004720ADF81C000020ADF82200ADF881
:102B80001E008DF8240007A9FE4803F0BDFA0121BC
:102B9000FC4804F01FF819208DF8180000208DF86B
:102BA00019008DF81A0001208DF81B0006A802F00C
:102BB0004CF80121880302F02CFA0020ADF8040043
:102BC0004FF48270ADF806000020ADF80800022036
:102BD000ADF80A000120ADF80C004002ADF80E007F
:102BE0000020ADF81000ADF812000720ADF8140079
:102BF00001A9E54803F0C6F80222E44901F11800F2
:102C0000FFF789FAE24908600222E24901F118005F
:102C1000FFF781FAE04908600222E04901F118005B
:102C2000FFF779FADE4908600222DE4901F1180057
:102C3000FFF771FADC4908600222DC4901F1180053
:102C4000FFF769FADA4908600222D84901F1180051
:102C5000FFF761FAD74908600AB010BD10B500242B
:102C60004FF48050D449086008600860086008602C
:102C70000860086008600860086008600860086014
:102C80000860086008600860086008600860086004
:102C900008600860086008600860086008600860F4
:102CA00008600860086008600860086008600860E4
:102CB00008600860086008600860086008600860D4
:102CC00008600860086008600860086008600860C4
:102CD0000860086008600860FF21AB4803F028F92D
:102CE00000BFA9480830008800F002000028F8D092
:102CF000FF21A54803F01CF900BFA3480830008855
:102D000000F001000028F8D09F4803F013F90446B2
:102D100000BF9D480830008800F002000028F8D06D
:102D2000FF21994803F004F900BF97480830008854
:102D300000F001000028F8D0934803F0FBF840EAC7
:102D4000042400BF90480830008800F001000028EB
:102D5000F8D08D4803F0EEF840EA04244FF4805098
:102D60009549091F0860A408A0B210BD70B54FF4C2
:102D70000061924802F083FC192001F0EBF805464F
:102D800015F094F904468E4915F046F88D4908600F
:102D900001217C4803F01EFFFFF760FFA0F5004013
:102DA000894908600846016888480078884A12788E
:102DB0001040884A42F8201084480078401C83491B
:102DC00008700846007882490978084000286ED1CA
:102DD0007F480078012808D11046006811464968EC
:102DE00008444010784908600DE07A480068794945
:102DF000496808447749896808447649C96808449D
:102E00008010714908607048006847F6F461884294
:102E100004DC6D4800684942884205DA6E48006863
:102E200010B901206D49087067480068C003664901
:102E300008606B48008840F20122811A904276D0E7
:102E400010DCB0F5827F48D005DCA0F20110C8B1DB
:102E500001286DD12CE0B0F5847F53D0B0F5887F88
:102E6000F7D166E007296FD004DC01296DD0032972
:102E7000EFD1D5E0B1F5007F68D0A1F2FF51002974
:102E8000E7D122E1504802684348016840480068A1
:102E9000FFF7ECFA4C4908600846026842480168AE
:102EA0003F480068FFF7E2FA4749086019E14DE141
:102EB000454802683848016835480068FFF7D6FA87
:102EC000414908600846026837480168344800688C
:102ED000FFF7CCFA3C49086003E13B4802682E4802
:102EE00001682B480068FFF7C1FA374908600846B7
:102EF00002682D4801682A480068FFF7B7FA32498E
:102F00000860EEE030480268234801682048006805
:102F1000FFF7ACFA2C4908600846026822480168AD
:102F20001F480068FFF7A2FA27490860D9E00EE0C1
:102F3000D6E0254802681C48016819480068FFF778
:102F400095FA21490860CCE085E04EE09EE01E48FD
:102F50000268114801680E480068FFF787FA1A49AD
:102F600008600846016812480068FFF738FA1649F9
:102F70000860084602680C48016809480068FFF7C5
:102F800075FA2FE0002C0140003800403801002085
:102F9000E805002068010020EC050020B8020020B0
:102FA000F0050020E8020020F4050020980400202D
:102FB000F8050020FC050020140C01400008014029
:102FC00000007A44D0000020BC000020D400002083
:102FD000D5000020F0DA0020C4000020CC00002042
:102FE000C0000020FE4908607BE0FD480268FD4803
:102FF0000168FD480068FFF739FAF949086008469A
:103000000168FA480068FFF7EAF9F54908600846E0
:103010000168F7480068FFF7A2F9F149086060E02D
:10302000EF480268EF480168EF480068FFF71EFAB2
:10303000EB49086008460168EC480068FFF7CFF9E3
:10304000E749086008460168E9480068FFF787F922
:10305000E349086045E0E2480268E2480168E24866
:103060000068FFF703FADE49086008460168DF4898
:103070000068FFF7B4F9DA49086008460168DC48DF
:103080000068FFF76CF9D64908602AE0D448026866
:10309000D4480168D4480068FFF7E8F9D0490860CF
:1030A00008460268D3480168D1480068FFF7DEF996
:1030B000CB49086008460268CF480168CB480068E1
:1030C000FFF7D4F9C64908600BE0C5480268C94853
:1030D0000168C7480068FFF7C9F9C149086000E006
:1030E00000BF00BFC548006828B1C4480068401E42
:1030F000C249086070BDBA480168C148FFF753FA79
:10310000C0480088002821DDBE480088401EBD4917
:103110000880B348006814F0B1FF0546BA4801685A
:10312000284615F00BF8044614F06CFFB749086008
:103130000846006800F58040C01300B2B449096831
:103140000880B3480068801CB14908604FF40061F2
:10315000B04802F096FA00BFCCE70022A94B1A80D3
:10316000AB4A1060AC4A118002E0002220F8112026
:103170000A00A1F1010399B2F7D1A74A1288A14B25
:103180001A80704710B500209E4908800122110363
:10319000A24802F078FA0020A149086048608860DF
:1031A000C860A049087046F2A810944908600A2037
:1031B00000F0D0FE9C4908808B480068FFF742F879
:1031C00088480068FFF73EF889480068FFF73AF83A
:1031D00088480068FFF736F884480068FFF732F83F
:1031E00085480068FFF72EF88F48008840F20122DA
:1031F000811A90427DD010DCB0F5827F67D005DC6B
:10320000A0F20110C8B1012874D13BE0B0F5847F71
:1032100071D0B0F5887FF7D1AAE007296CD004DC23
:1032200001296AD00329EFD15EE1B1F5007F65D0B5
:10323000A1F2FF510029E7D1D3E16B487B49026835
:1032400001F11800FFF70EF866487949026801F1AC
:103250001800FFF707F866487649026801F1180080
:10326000FFF700F863487449026801F11800FEF79F
:10327000F9FF03207149087046F2A8116048FFF772
:1032800083F9CAE158486E49026801F11800FEF757
:10329000E9FF54486B49026801F11800FEF7E2FFAC
:1032A00053486949026801F11800FEF7DBFF5148F5
:1032B0006649026801F11800FEF7D4FF01205F495A
:1032C000087046F2A8114E48FFF75EF9A5E146489E
:1032D0005F49026801F11800FEF7C4FF41485D49EB
:1032E000026801F11800FEF7BDFF41485649026827
:1032F00005E062E090E116E01BE1D0E03EE101F183
:103300001800FEF7AFFF3B485049026801F1180072
:10331000FEF7A8FF01204949087046F2A811384875
:10332000FFF732F979E130484B49026801F11800A2
:10333000FEF798FF2B484949026801F11800FEF793
:1033400091FF2B484049026801F11800FEF78AFFFF
:1033500028483E49026801F11800FEF783FF01206A
:103360003649087046F2A8112548FFF70DF954E1D7
:103370001D483B49026801F11800FEF773FF194828
:103380003849026801F11800FEF76CFF18482E4911
:10339000026801F11800FEF765FF16482B49026824
:1033A00001F11800FEF75EFF01202449087046F283
:1033B000A8111348FFF7E8F82FE10B481B490268F2
:1033C00001F11800FEF74EFF06481949026801F1A5
:1033D0001800FEF747FF06481649026844E000005F
:1033E000BC000020EC050020E8050020F8050020C6
:1033F000F0050020F4050020FC050020C40000209A
:1034000000DB0020B8000020D0000020C800002011
:10341000B400002000080140BA000020000C014068
:10342000F0DA0020D4000020C0000020A803002013
:10343000D8030020B8020020E8020020D5000020B8
:1034400038010020680100201803002048030020F4
:1034500098010020C8010020F80100202802002067
:10346000580200208802002001F11800FEF7FAFE41
:10347000FD48FE49026801F11800FEF7F3FEFC4822
:10348000FC49026801F11800FEF7ECFE0320FA493E
:10349000087046F2A811F948FFF776F8BDE0F84841
:1034A000F849026801F11800FEF7DCFEF648F7491A
:1034B000026801F11800FEF7D5FEF548F5490268EB
:1034C00001F11800FEF7CEFEE948F349026801F168
:1034D0001800FEF7C7FE0120E749087046F2A81160
:1034E000E648FFF751F898E0E548EC49026801F139
:1034F0001800FEF7B7FEE448E949026801F1180038
:10350000FEF7B0FEE248E349026801F11800FEF759
:10351000A9FED748E049026801F11800FEF7A2FEB3
:103520000120D549087046F2A811D448FFF72CF8BD
:1035300073E0D348DB49026801F11800FEF792FE00
:10354000D148D949026801F11800FEF78BFED04836
:10355000D049026801F11800FEF784FEC448CE4944
:10356000026801F11800FEF77DFE0120C2490870D3
:1035700046F2A811C148FFF707F84EE0C048CB4912
:10358000026801F11800FEF76DFEBF48C8490268E5
:1035900001F11800FEF766FEBD48C649026801F158
:1035A0001800FEF75FFEB048C349026801F1180039
:1035B000FEF758FEAE48C149026801F11800FEF757
:1035C00051FEBF48BF49026801F11800FEF74AFEEC
:1035D0000320A949087046F2A811A848FEF7D4FFB5
:1035E0001BE0AB48B849026801F11800FEF73AFE4B
:1035F0009D489E49026801F11800FEF733FE012044
:103600009D4908704FF22440B049086046F2A81165
:103610009A48FEF7B9FF00BF00BF00BF0121AC48C8
:1036200002F055FC0121AB4802F0FAFF01221146DD
:10363000A84803F010F810BD10B50020A649087086
:1036400000220121A34803F006F80021A14802F05E
:10365000E7FF01219F4803F0BDFA00219C4802F0DA
:1036600036FC00224FF480519C4802F00CF810BD4B
:103670009B480088002801DD012070470020FCE7FE
:103680009848008800280CDD9648008894490988ED
:10369000401A6421484393490988B0FBF1F0C0B255
:1036A00070470020FCE700B500BFFFF7E1FF0128ED
:1036B000FBD000BD2DE9F74F86B089469246012028
:1036C000FCF752FE45F6C0516C48FEF75DFF86A13F
:1036D000069810F0A0FD8346BBF1000F7DD00022BC
:1036E0000421584610F0CCFC0DE0BDF910004FF459
:1036F0008041C1EBC0344FF4967094FBF0F529463D
:103700005E48FEF750FF5B460122022104A812F03A
:1037100081FB0128E9D05948FEF78DFF7349086005
:103720000868734914F00AFD054614F087FCA9F8EF
:1037300000006E4908686E4914F000FD054614F05B
:103740007DFC80B2ADF80C0000220421584610F038
:1037500097FC45F6C0514948FEF716FF48485149C5
:10376000026801F11800FEF77DFD47484E490268E6
:1037700001F11800FEF776FD45484649026801F15F
:103780001800FEF76FFD3A484349026801F118003E
:10379000FEF768FD31E0BDF910004FF48041C1EB48
:1037A000C03422463848016835480068FEF75EFE9E
:1037B000044621462E480068FEF711FE04462146C5
:1037C00033480068FEF7CBFD0446204613F073FE35
:1037D000484A494BCDE9000100E033E013F018FFFF
:1037E00007460022454B13F05FFC054613F0F0FD41
:1037F000014602902148FEF7D6FE5B4601220221D7
:1038000004A812F007FB0128C5D01C48FEF7F7FEFC
:10381000364948604868364914F090FC054614F073
:103820000DFCAAF8000031494868314914F086FCC3
:10383000054614F003FC80B2ADF80E00584610F0B7
:1038400011FD04E00020A9F80000AAF800004FF4E0
:10385000FA70A9F8000041F2F450AAF8000003A899
:1038600009B0BDE8F08F0000F4050020E802002058
:10387000F805002098040020D500002000DB00207F
:10388000E805002038010020EC0500206801002038
:10389000F005002078030020F804002098010020A3
:1038A000C8010020F801002028020020D8000020D4
:1038B0000801002088050020B80500202805002008
:1038C000FC05002058050020B8020020C40000209C
:1038D00000380040002C0140CC000020000C0140CA
:1038E000B8000020BA0000207200000030DB002089
:1038F0000000C842D122DBF97EEA344000C07240A9
:10390000F8B506460120FCF72FFD46F2A811CA487B
:10391000FEF73AFEAFF23001304610F07CFC044670
:10392000002C59D000220421204610F0A9FBC348E6
:10393000C349026801F11800FEF794FCC148C2496E
:10394000026801F11800FEF78DFCC048C04902680A
:1039500001F11800FEF786FCBE48BF49026801F17C
:103960001800FEF77FFC1DE0BDF900004FF4804118
:10397000C1EBC0352A46B3480168B0480068FEF77D
:1039800075FD05462A46B3480168B0480068FEF751
:103990006DFD05464FF4967095FBF0F73946A64845
:1039A000FEF701FE234601220221684612F032FA98
:1039B0000128D9D0A048FEF722FEA8490860204679
:1039C00010F050FCA5490868A54914F0B7FB07465C
:1039D00014F034FB80B2F8BD0020FCE72DE9F14F74
:1039E00082B00120FCF7C0FC45F6C0519248FEF7BA
:1039F000CBFDAFF20C11029810F00DFC8346BBF129
:103A0000000F71D000220421584610F039FB46F215
:103A1000A8118948FEF7B8FD88488949026801F174
:103A20001800FEF71FFC87488749026801F118005B
:103A3000FEF718FC85488B49026801F11800FEF773
:103A400011FC89488949026801F11800FEF70AFC57
:103A50002EE0BDF904004FF48041C1EBC03A52465C
:103A60007848016875480068FEF700FD82465146B7
:103A70007D480068FEF7B3FC8246514673480068F3
:103A8000FEF76DFC8246504613F015FD0646784A57
:103A9000784B13F0BDFD04460022774B13F004FB76
:103AA000804613F095FC014600906348FEF77BFDCD
:103AB0005B460122022101A812F0ACF90128C8D00E
:103AC0005D48FEF79CFD6D494860584610F0CAFB02
:103AD0006A494868624914F031FB044614F0AEFAB2
:103AE00080B2BDE8FE8FFFE70020FAE72DE9F14F35
:103AF00084B00120FCF738FC41F288314E48FEF7D3
:103B000043FDAFF21C21049810F085FB8246BAF108
:103B1000000F7DD000220421504610F0B1FA474832
:103B20005749026801F11800FEF79CFB45485549CA
:103B3000026801F11800FEF795FB444852490268FB
:103B400001F11800FEF78EFB42485049026801F16E
:103B50001800FEF787FB44484D49026801F1180040
:103B6000FEF780FB4B484C49026801F11800FEF754
:103B700079FB40E0BDF90810BDF90A20881800EB78
:103B8000D071491009B2ADF80810BDF908004FF422
:103B90008041C1EBC03B5A462A480168274800686B
:103BA000FEF764FC83465A462A48016827480068A5
:103BB000FEF75CFC83465A46364801682A4800688E
:103BC000FEF754FC8346584614F058FA009014F05F
:103BD00089F80646314A324B13F01AFD044600229A
:103BE000254B13F061FA804613F0F2FB0146019079
:103BF0001148FEF7D8FC53460222114602A812F0E3
:103C000009F90228B6D00C48FEF7F9FC254900E076
:103C10000FE04860504610F025FB224948681049E3
:103C200014F08CFA044614F009FA80B205B0BDE82D
:103C3000F08F0020FAE7000000DB0020E8050020FC
:103C4000F8010020EC05002028020020F0050020EB
:103C500018030020F4050020480300203CDB00206E
:103C60000000C84278030020F8050020F804002076
:103C7000D122DBF97EEA344000C0724048DB0020EC
:103C8000D80000200801002088050020B805002089
:103C900028050020FC0500205805002085EB51B8C0
:103CA0001EB9784054DB002010B54FF40061A348E2
:103CB00001F0CBFC30B9A248007840F00100A049E7
:103CC000087005E09E48007820F001009C490870CB
:103CD0004FF480719B4801F0B8FC30B998480078E7
:103CE00040F002009649087005E09548007820F001
:103CF0000200934908700121904801F0A6FC30B9F8
:103D00008F48007840F004008D49087005E08C4829
:103D1000007820F004008A4908704FF480618748D9
:103D200001F093FC30B98648007840F008008449DF
:103D3000087005E08248007820F00800804908708B
:103D400002217E4801F081FC30B97D48007840F0C6
:103D500010007B49087005E07948007820F01000D9
:103D600077490870764800787749097888427DD08D
:103D700076480078002879D17348007800F0010077
:103D800050B96F48007800F0010028B17048006811
:103D900040F001006E4908606B48007800F00200B6
:103DA00002280BD06648007800F00200022805D1F6
:103DB0006748006840F00200654908606248007882
:103DC00000F0040004280BD05D48007800F00400E7
:103DD000042805D15E48006840F004005C49086092
:103DE0005948007800F0080008280BD054480078A3
:103DF00000F00800082805D15548006840F0080088
:103E0000534908605048007800F0100010280BD08B
:103E10004B48007800F01000102805D14C4800688D
:103E200040F010004A4908604748007800F001005F
:103E300050B14348007800F0010028B944480068B8
:103E400040F02000424908603F48007800F002003E
:103E500002280DD13A48007800F00200022807D06D
:103E60003B48006840F04000394900E03DE0086010
:103E70003548007800F0040004280BD13048007861
:103E800000F00400042805D03148006840F08000AC
:103E90002F4908602C48007800F0080008280BD152
:103EA0002748007800F00800082805D02848006856
:103EB00040F48070264908602348007800F0100024
:103EC00010280BD11E48007800F01000102805D0F3
:103ED0001F48006840F400701D49086018480078C9
:103EE000194908701E2019490870184800780028E0
:103EF00004DD16480078401E1449087010BD0146C4
:103F000013480068084030B1114800688843104ADF
:103F10001060002070470120FCE70D4909688143CB
:103F20000B4A116070470146054800780840002898
:103F300001DD002070470120FCE70000000C01407B
:103F400000060020001001400106002008060020A5
:103F50000406002070B504461F2C01D3002070BD5C
:103F6000A84800EBC400807902282ED100F0A8F9FF
:103F70001CB9012000F052FAF1E7012C0ED1032008
:103F800000F04CFA0546022000F048FA00EBC001B0
:103F900001EB001005EB800080B2E0E7022C0ED1AF
:103FA000052000F03BFA0546042000F037FA00EB4C
:103FB000C00101EB001005EB800080B2CFE7032CBD
:103FC00003D1062000F02AFAC9E70D2C02D14FF4E4
:103FD000AD70C4E78C4830F81400C0E773B50446F0
:103FE0001F2C01D300207CBD864800EBC400408814
:103FF000BDF80410884204DA824800EBC40040880F
:104000000190804830F83400BDF80410884203DD88
:104010007C4830F8340001907A4800EBC400807985
:10402000012814D1022000EB440081B2022301AA2E
:10403000002000F043FC744800EB4402022000EB37
:10404000440081B20223002000F022FC50E06D48C1
:1040500000EBC4008079022845D100F031F924B981
:10406000BDF80410012000F08BF9012C15D1BDF82A
:104070000400642190FBF1F085B22946022000F093
:104080007FF9BDF80400642190FBF1F201FB1200FE
:1040900085B22946032000F073F9022C19D1BDF82E
:1040A0000400642190FBF1F085B22946042000F061
:1040B00067F9BDF80400642190FBF1F201FB1200E6
:1040C00085B22946052000F05BF90021062000F0AA
:1040D00057F9032C04D1BDF80410062000F050F964
:1040E00000F0FCF804E0BDF80410474820F8141074
:1040F000454830F81400BDF80410884201D0002073
:1041000071E701206FE7002007E03E4901EBC001A5
:104110008A883D4921F81020401C1F28F5D370479C
:10412000F8B5012600243CE0364800EBC400807955
:10413000012835D1022000EB4405334800EB44024E
:10414000A9B20223002000F0A3FB2F4830F814008E
:104150002C4901EBC4014988884207DC2A4830F821
:104160001400284931F83410884219DA254800EB48
:10417000C400021DA9B20223002000F09FFBA9B2D7
:1041800002236A46002000F083FB1E4800EBC400B7
:104190008088BDF80010884201D0002600E001268A
:1041A000641C1F2CC0D33046F8BD10B5FFF7ABFF21
:1041B0000223154A921E0021084600F069FB1248AE
:1041C000801E0088B0F5D35F19D04FF4D3500E494C
:1041D000891E088040230A460021084600F06EFB35
:1041E0000223094A921E0021084600F051FB0648AE
:1041F000801E0088B0F5D35F01D0002010BDFFF70E
:104200008FFFFBE72684020862DB002010B5002048
:104210009B490860486088600120C86000200861F0
:1042200046204861084610F0DEF9044601F03CFDE6
:10423000204601F006FD01F037FD10BD10B501214B
:104240004FF0C05000F0E5FE8E48FCF788F80120E2
:1042500002F031FD042002F0F6FC4AF6AA21884261
:1042600028D002F0BBFC012000F033FE00BF41204B
:1042700000F097FD0028FAD04FF4807000F045FE62
:10428000012000F048FE01F018FD01F00DFD0121B4
:10429000084601F0ADFC47F6FF7001F0DFFC01F0CD
:1042A00003FDFFF7B3FF4AF6AA21042002F0BFFC8A
:1042B000002010BD01F001FD01F0F6FC0120F8E73F
:1042C00038B501F0B5FC0090684610F067F9044677
:1042D0002C2221466A4810F073F838BD10B56848A2
:1042E00010F081F9044601F0DFFC204601F0A9FC42
:1042F00001F0DAFCFFF7E4FF10BD40F26C71884278
:1043000004DBA0F26C715E4A516103E040F26C7113
:104310005B4A516170470C2801DD0C2002E0012846
:1043200000DA0120411E564A116170471F2803DD43
:104330001F21534AD16007E0012803DA0121504AC6
:10434000D16001E04E49C8607047172803DD17218E
:104350004B4A916001E04A49886070473B2803DD81
:104360003B21474A516001E04549486070473B287E
:1043700003DD3B21424A116001E04149086070477A
:10438000072848D2DFE800F04704121D2C353E0014
:1043900040F26C72914204DBA1F26C72384B5A61AC
:1043A00003E040F26C72364B5A6135E00C2901DDB6
:1043B0000C2102E0012900DA01214A1E304B1A616A
:1043C0002AE01F2903DD1F222D4BDA6007E00129B7
:1043D00003DA01222A4BDA6001E0294AD1601BE0AE
:1043E000172903DD1722264B9A6001E0244A9160C9
:1043F00012E03B2903DD3B22214B5A6001E0204AB9
:10440000516009E03B2903DD3B221D4B1A6001E0AE
:104410001B4A116000E000BF00BF7047014607293A
:1044200020D2DFE801F01F040A0F13171B00144805
:10443000808A00F26C7080B270471148008A401C7C
:1044400080B2F9E70E48808980B2F5E70C48008910
:1044500080B2F1E70A48808880B2EDE7084800881A
:1044600080B2E9E70020E7E710B5012001F037FC52
:10447000012803D101F03EFC012010BD0020FCE723
:10448000A0DB0020400D0300FD48806940F00100E2
:10449000FB4988610846806940F004008861F9485A
:1044A000006840F44030F74908600846006820F48E
:1044B000402008601020F34910310860F14800687E
:1044C00040F44010EF4908600846006820F44000BE
:1044D00008600846006840F400000860084600686C
:1044E00020F0407008600846006820F040600860D6
:1044F0000846006840F0006008604020E149103143
:104500000860E048006840F04050DE490860084616
:10451000006820F0404008600846006840F0004015
:104520000860D748806940F48050D54988610020F0
:10453000D5498880042008800846008840F0100093
:1045400008800846008840F480700880084600888B
:1045500040F4007008800846008840F04000088061
:104560007047014600BFC848008900F002000028DB
:10457000F9D0C548818100BFC348008900F001001F
:104580000028F9D0C0488089C0B2704770B5024693
:104590000B460026BD48007820B9112A01D0182A00
:1045A00000D15B024FF48010B6491031086042F030
:1045B0004000FFF7D6FF180EFFF7D3FFC3F3074005
:1045C000FFF7CFFFC3F30720FFF7CBFFD8B2FFF70A
:1045D000C8FF082A03D18720FFF7C3FF02E0952018
:1045E000FFF7BFFF05E03046711CCEB2FE2800DDAC
:1045F00005E0FF20FFF7B5FF0446FF28F3D000BF1A
:10460000C4B93A2A16D1FF20FFF7ABFF054605F0E3
:10461000400018B101209D49087002E000209B492C
:104620000870FF20FFF79DFFFF20FFF79AFFFF2094
:10463000FFF797FFFF20FFF794FF102091491031FB
:104640000860204670BDF0B502270024FFF71CFF6C
:1046500010208C4910310860002504E0FF20FFF78E
:1046600080FF681CC5B20A2DF8DB4FF48010854925
:104670001031086006E02046611C8CB2202801DD64
:104680000220F0BD00210846FFF780FF0128F2D18B
:1046900010207C4910310860FF20FFF762FFFF20E7
:1046A000FFF75FFF002406E02046611C8CB2FE2865
:1046B00001DD012706E04FF4D5710820FFF766FF02
:1046C0000128F1D100BF002400BF00213720FFF7EF
:1046D0005DFF06464FF080412920FFF757FF064651
:1046E000601C84B240F6FE70844201DD0120C8E700
:1046F000002EEAD10024002064490870022F0DD159
:1047000005E02046611C8CB2FE2800DD05E000219A
:104710003A20FFF73BFF0028F3D100BF0020B0E7AD
:1047200001F08000704770477047704770477047CE
:104730002DE9F04107460C464FF000083946182095
:10474000FFF724FF08B1BDE8F0814FF480104D4918
:1047500010310860FE20FFF704FF002605E014F882
:10476000010BFFF7FEFE701C86B2B6F5007FF6DB8C
:10477000FF20FFF7F6FEFF20FFF7F3FEFF20FFF715
:10478000F0FE054605F01F00052804D010203D4925
:1047900010310860D7E70CE04046411C1FFA81F851
:1047A0004FF6FE71884204DD102036491031086052
:1047B000C9E7FF20FFF7D5FE0028EDD010203149D2
:1047C00010310860FF20FFF7CCFE4FF480102D4918
:1047D000103108600CE04046411C1FFA81F84FF68A
:1047E000FE71884204DD1020264910310860AAE7D6
:1047F000FF20FFF7B6FE0028EDD010202149103130
:10480000086000BF9FE770B506460C46002531469C
:104810001120FFF7BBFE00B170BD4FF480101949A5
:10482000103108600BE02846691C8DB24FF6FE710E
:10483000884204DD1020134910310860ECE7FF20A6
:10484000FFF78FFEFE28EED1002506E0FF20FFF7E0
:1048500088FE04F8010B681C85B2B5F5007FF5DB16
:10486000FF20FFF77EFEFF20FFF77BFEFF20FFF714
:1048700078FE102003491031086000BFCCE700002B
:104880000010024000080140003001400C060020EA
:104890002DE9F04107460C4616461D461449384698
:1048A000FFF7B1FF6019B0F5007F05DC1048011972
:1048B0002A4630460FF03FFDBDE8F0812DE9F0417A
:1048C00007460C4616461D4609493846FFF79BFF2A
:1048D0006019B0F5007F05DC054908192A46314604
:1048E0000FF029FD02493846FFF722FFBDE8F081AD
:1048F000CCDB002000B585B06548006830B965A103
:1049000065A00FF088FC6249086009E06048006813
:104910000FF0A8FC5FA160A00FF07DFC5C4908606F
:104920005B48006878B16A465EA1594800680FF09C
:104930001DFB574800680FF095FC56A168460FF024
:104940006AFC53490860002005B000BD10B550480E
:10495000006818B14E4800680FF084FC10BD70B5B7
:1049600005460C464A48006810B94FF0FF3070BD4C
:104970002022102128460FF055FD14B94FF0FF30CA
:10498000F5E7601E01010022414800680FF078FB46
:104990003F48102201210368284611F03BFA1028F5
:1049A0000AD1287830B9102128460FF043FD4FF086
:1049B000FF30DCE70020DAE74FF0FF30D7E730B513
:1049C000ADF27C6D0024002507F0FEF83648FBF7B9
:1049D000C6FC04F078FC72B671B6012233A16846B9
:1049E0000DF00AFB0A2232A10DF58B600DF02FFBB2
:1049F00032A22CA10DF58B600EF0DFFF0DF58B615F
:104A000000200EF095FF01240CE023462FA231A1D7
:104A10000DF58B600EF0D1FFE0B20DF58B610EF05D
:104A200087FF641CB4F57A7FEFDBDDF864540DF585
:104A30008B600DF0DCFD212201211DA00EF0EFF9AD
:104A40000A2228A10DF58B600DF001FB28A215A10B
:104A50000DF58B600EF0B1FF0DF58B600DF0C7FD0D
:104A60000A2225A18DA80DF0F2FA21A20DA18DA890
:104A70000EF0A3FF8DA80DF0BAFD00220BA1104689
:104A80000DF0BAFA62B661B628460DF27C6D30BD03
:104A900010060020720000004D3A5C526F61642ED7
:104AA0006C6F670025730000A0860100303A00009B
:104AB000303A526F61642E3000000000E1E5E720DB
:104AC000ECE0F0F8F0F3F2E020202000F2EEF7EA5C
:104AD000E0000000257320253033752020202020A1
:104AE00020000000303A526F61642E6C6F67000046
:104AF000526F61642E300000303A526F6164732E41
:104B0000747874000CB5002001900090484800684B
:104B100040F480304649086000BF4548006800F412
:104B2000003000900198401C0190009818B901983D
:104B3000B0F5A06FF1D13E48006800F4003010B12C
:104B40000120009001E0002000900098012844D14D
:104B50003848006840F01000364908600846006890
:104B600020F0030008600846006840F0020008607A
:104B70002F4840682E49486008464068486008460B
:104B8000406840F4806048600846406820F47C102B
:104B900048600846406840F4E810486008460068ED
:104BA00040F08070086000BF2148006800F000708D
:104BB0000028F9D01E48406820F003001C494860D6
:104BC0000846406840F00200486000BF184840684E
:104BD00000F00C000828F9D101E000BFFEE70CBD91
:104BE00010B5FFF78FFF10BD10B51148006840F0F9
:104BF00001000F490860084640680F4908400C4909
:104C00004860084600680D490840094908600846A0
:104C1000006820F4802008600846406820F4FE0008
:104C200048604FF41F008860FFF7DAFF10BD0000F6
:104C300000100240002002400000FFF8FFFFF6FED7
:104C400031490143314A1160704770B5002100239A
:104C50000F22C47804B32D4C246804F4E064C4F536
:104C6000E064210AC1F10403CA40447804FA03F164
:104C70008478144021430901254C0678A155047815
:104C800004F01F050124AC4005786D11AD0005F15D
:104C9000E025C5F8004109E0047804F01F0501246F
:104CA000AC401C4D0678761145F8264070BD1A4A76
:104CB0000A400243154B1B1F1A60704739B1134A53
:104CC000121D12680243114B1B1D1A6006E00F4AA9
:104CD000121D126882430D4B1B1D1A607047042879
:104CE00008D14FF0E021096941F004014FF0E022C2
:104CF000116107E04FF0E021096921F004014FF054
:104D0000E0221161704700000000FA050CED00E0A0
:104D100000E400E080E100E080FFFF1FDF48006862
:104D200040F00100DD49086008464068DC49084061
:104D3000DA49486008460068DA490840D7490860FF
:104D40000846006820F4802008600846406820F487
:104D5000FE0048604FF41F0088607047CF49096823
:104D600021F48031CD4A11601146096821F4802177
:104D70001160B0F5803F03D0B0F5802F0ED106E072
:104D8000C649096841F48031C44A116007E0C3494B
:104D9000096841F4A021C14A116000E000BF00BFD2
:104DA000704710B501460022002300204A11012A55
:104DB00002D1BA4C236806E0022A02D1B74C236A1A
:104DC00001E0B64C636A01F01F02012494401C40CC
:104DD0000CB1012000E0002010BD38B5002000908B
:104DE0000024002500BF3120FFF7DBFF05460098B7
:104DF000401C00900098B0F5A06F01D0002DF2D0BB
:104E00003120FFF7CEFF08B1012400E00024204646
:104E100038BD01460020A14A106820F0F80040EAA1
:104E2000C10010607047A04908607047024600202A
:104E30009A4B586820F47C1042EA01031843974BC0
:104E40005860704798490866704701460020934AA9
:104E5000506820F003000843506070478F48406856
:104E600000F00C007047014600208C4A506820F08A
:104E7000F00008435060704701460020874A5068A0
:104E800020F4E06008435060704701460020834AE8
:104E9000506820F4605040EAC1005060704729B16A
:104EA0007E4A527A02437D4B5A7204E07B4A527A20
:104EB00082437A4B5A7270477B49D83108607047F9
:104EC00001460020754A506820F440400843506075
:104ED00070470021714A20321170704A82F8201008
:104EE000012802D004280AD104E001216B4A2032B3
:104EF000117005E00521694A2032117000E000BF01
:104F000000BF70476949086070476449096A0143F6
:104F1000624A11627047654944390860704730B58C
:104F200000210022002400235C4D6D6805F00C0177
:104F300021B1042905D0082923D105E05C4D056085
:104F400022E05B4D05601FE0544D6D6805F4701262
:104F5000524D6D6805F48034022505EB92421CB970
:104F6000544D554305600BE04C4D6D6805F400351C
:104F70001DB1504D5543056002E04D4D5543056050
:104F800002E04B4D056000BF00BF444D6D6805F069
:104F9000F0010909484D6B5C0568DD4045603F4DF7
:104FA0006D6805F4E061090A434D6B5C4568DD40BE
:104FB00085603A4D6D6805F46051C90A3E4D6B5CE1
:104FC0004568DD40C560354D6D6805F44041890B8D
:104FD0003A4D6B5CC568B5FBF3F5056130BD29B191
:104FE0002E4A526902432D4B5A6104E02B4A526902
:104FF00082432A4B5A61704729B1284A9269024379
:10500000264B9A6104E0254A92698243234B9A61B8
:10501000704729B1214AD2690243204BDA6104E08A
:105020001E4AD26982431D4BDA61704729B11B4A7F
:10503000D2680243194BDA6004E0184AD26882430E
:10504000164BDA60704729B1144A12690243134BB8
:105050001A6104E0114A12698243104B1A617047C9
:1050600012494039086070470F49C86470470B49BE
:10507000C87170470948406A40F08070074948622B
:10508000704701460020054A92680A400AB1012093
:1050900000E000207047014988727047001002400C
:1050A0000000FFF8FFFFF6FE00004242800442428B
:1050B00000127A0000093D0014060020240600209A
:1050C00010B50446E248844209D101218803FFF764
:1050D000ADFF00214FF48040FFF7A8FF32E0DD482C
:1050E000844209D101214804FFF7ADFF00214FF4AC
:1050F0000030FFF7A8FF25E0D748844209D10121FD
:105100008804FFF7A0FF00214FF48020FFF79BFFEA
:1051100018E0D248844209D10121C804FFF793FF67
:1051200000214FF40020FFF78EFF0BE0CC488442B3
:1051300008D101210805FFF786FF00214FF48010F8
:10514000FFF781FF10BD2DE9F04786B005460E46FA
:105150000024A24600BF00BF0027B08900B100BFF5
:105160002F462C8A4CF6FF700440F08804432C82B2
:10517000AC894EF6F3100440B08831890843718938
:1051800008430443AC81AC8A4FF6FF400440B08929
:105190000443AC8201A8FFF7C2FEAD48874202D1AA
:1051A000DDF810A001E0DDF80CA00AEBCA0000EB6E
:1051B0000A1031688900B0FBF1F86420B8FBF0F008
:1051C00004012009642101FB1089322000EB091041
:1051D000B0FBF1F000F00F0004432C8106B0BDE8F5
:1051E000F0874FF41651016000218180C180018158
:1051F0000C21418100218181704710B502460020B9
:10520000108A4FF2FF0318400B884C8823438C8888
:105210002343CC8823431843108210BD0021018012
:1052200041808180C180704721B1828942F400525F
:10523000828104E082894DF6FF731A4082817047B3
:10524000F0B50346002400260025002040F66A172A
:10525000B94200D100BF1846C1F3421401F01F0645
:10526000012707FA06F5012C01D10C3004E0022CCD
:1052700001D1103000E014301AB107682F430760E5
:1052800002E00768AF430760F0BD1AB1838A0B43A1
:10529000838202E0838A8B4383827047028A4FF6BF
:1052A000F0731A400282028A0A430282704782899E
:1052B0004FF2FF731A40828182890A4382817047CC
:1052C00021B1828942F00202828104E082894FF694
:1052D000FD731A4082817047028A4FF6DF731A40CD
:1052E0000282028A0A430282704721B1028A42F492
:1052F0008042028204E0028A4BF6FF731A40028267
:105300007047C1F308028280704701468888C0F365
:1053100008007047818941F0010181817047028B4B
:10532000D2B20283028B42EA012202837047028BCF
:1053300002F47F420283028B0A430283704721B149
:10534000828A42F02002828204E0828A4FF6DF7372
:105350001A408282704721B1828A42F01002828212
:1053600004E0828A4FF6EF731A408282704721B1BF
:10537000828A42F00802828204E0828A4FF6F77342
:105380001A4082827047828A4FF6FB731A408282EB
:10539000828A0A438282704721B1828A42F00202E5
:1053A000828204E0828A4FF6FD731A40828270473F
:1053B00002460020B1F5007F00D100BF13880B40EA
:1053C0000BB1012000E00020704701F40072B2F53B
:1053D000007F00D100BFCA430280704770B502460B
:1053E000002400230025002040F66A16B14200D1B7
:1053F00000BFC1F3421501F01F03012606FA03F3B3
:10540000012D02D19689334006E0022D02D1168A81
:10541000334001E0968A33400C12012606FA04F468
:105420001688344013B10CB1012000E0002070BD9B
:1054300010B50022002340F66A14A14200D100BF3B
:105440000A1201249440A3B2DC43048010BD000082
:10545000003801400044004000480040004C00403B
:105460000050004010B50446C448844208D10121D0
:105470000420FFF7DBFD00210420FFF7D7FD46E005
:10548000BF48844208D101210820FFF7CFFD002149
:105490000820FFF7CBFD3AE0BA48844208D1012149
:1054A0001020FFF7C3FD00211020FFF7BFFD2EE005
:1054B000B548844208D101212020FFF7B7FD002123
:1054C0002020FFF7B3FD22E0B048844208D101213B
:1054D0004020FFF7ABFD00214020FFF7A7FD16E0BD
:1054E000AB48844208D101218020FFF79FFD0021B5
:1054F0008020FFF79BFD0AE0A648844207D10121E6
:105500008015FFF793FD0021A015FFF78FFD10BD5B
:1055100010B501210846FFF789FD00210120FFF7A2
:1055200085FD10BD2DE9F041024600250026002032
:1055300000230024002791F803C00CF00F0591F818
:1055400003C00CF0100CBCF1000F03D091F802C0A6
:105550004CEA050591F800C0BCF1000F31D0146889
:1055600000202BE04FF0010C0CFA00F3B1F800C062
:105570000CEA03069E4220D183004FF00F0C0CFA78
:1055800003F7BC4305FA03FC4CEA040491F803C09A
:10559000BCF1280F06D14FF0010C0CFA00FCC2F848
:1055A00014C00AE091F803C0BCF1480F05D14FF0D8
:1055B000010C0CFA00FCC2F810C0401C0828D1D322
:1055C0001460B1F800C0BCF1FF0F34DD5468002056
:1055D0002EE000F1080C4FF0010808FA0CF3B1F8C6
:1055E00000C00CEA03069E4221D183004FF00F0C4D
:1055F0000CFA03F7BC4305FA03FC4CEA040491F8E7
:1056000003C0BCF1280F05D100F1080C08FA0CF812
:10561000C2F8148091F803C0BCF1480F07D100F123
:10562000080C4FF0010808FA0CF8C2F81080401C72
:105630000828CED35460BDE8F0814FF6FF71018099
:10564000022181700421C1707047024600209368D6
:105650000B400BB1012000E0002070470146886834
:1056600080B2704702460020D3680B400BB1012086
:1056700000E0002070470146C86880B270470161B1
:105680007047416170470AB1016100E041617047B4
:10569000C16070474FF480320A4382618161826148
:1056A000826982697047024600203B4B18684FF6BA
:1056B0008073184040EA02100843374B1860704767
:1056C0003649C8617047F0B50A460023002400211E
:1056D0000025314E7168C0F3034583B200F44016D3
:1056E000B6F5401F08D121F070612B4E766826F088
:1056F0007066294F7E6012E000F48016B6F5801FB8
:1057000006D1032606FA05F4A14341F0706106E0D4
:10571000460D360103FA06F6B14341F0706122B13D
:10572000460D360103FA06F631431B4E7160F0BD9B
:1057300030B500228B071C0F0F2303FA04F2164B1F
:1057400008338C1053F824309343134C08348D10D5
:1057500044F8253023468C1053F824308C07240F4E
:1057600000FA04F423430C4C08348D1044F825301F
:1057700030BD0A49DC310860704700000008014074
:10578000000C0140001001400014014000180140CD
:10579000001C0140002001400000014000002042A8
:1057A00010B50446FA48844208D101214015FFF79C
:1057B0003DFC00216015FFF739FC17E0F5488442F5
:1057C00008D101210015FFF731FC00212015FFF75A
:1057D0002DFC0BE0F048844208D10121C803FFF7FB
:1057E00025FC00214FF40040FFF720FC10BD30B530
:1057F0000246002000235068E84C20400D790C68D8
:1058000044EA0524204350609068E54C2040D1E9EB
:1058100002542C434D7944EA450420439060D06AF9
:1058200020F470000C7C641EE4B2234340EA035071
:10583000D06230BD00210160017141718160C160A1
:1058400001210174704721B1826842F00102826037
:1058500003E0826822F001028260704721B1826811
:1058600042F48072826003E0826822F48072826077
:10587000704710B50023CBB21AB144681C43446092
:1058800002E044689C43446010BD816841F0080117
:1058900081607047014600208A6802F008020AB160
:1058A000012000E000207047816841F00401816020
:1058B0007047014600208A6802F004020AB1012004
:1058C00000E00020704721B1826842F4A0028260AB
:1058D00003E0826822F4A002826070470146002043
:1058E0008A6802F480020AB1012000E000207047BB
:1058F00010B50A4600210023416821F46041531E7F
:1059000041EA4331416010BD21B1426842F4006276
:10591000426003E0426822F4006242607047F0B5E2
:1059200004460D4600200021092D11DDE068A5F197
:105930000A0606EB4607072606FA07F18843A5F193
:105940000A0606EB460603FA06F10843E0600CE09F
:10595000206905EB4507072606FA07F1884305EBA2
:10596000450603FA06F108432061072A0FDA606B47
:10597000561E06EB86071F2606FA07F18843561EB9
:1059800006EB860605FA06F10843606322E00D2A5D
:105990000FDA206BD61F06EB86071F2606FA07F1E3
:1059A0008843D61F06EB860605FA06F108432063F6
:1059B00010E0E06AA2F10D0606EB86071F2606FA44
:1059C00007F18843A2F10D0606EB860605FA06F1FB
:1059D0000843E062F0BD21B1826842F48012826027
:1059E00003E0826822F48012826070470146C86C2E
:1059F00080B2704766484C300068704721B14268F9
:105A000042F48062426003E0426822F480624260B5
:105A1000704721B1426842F48052426003E042681C
:105A200022F48052426070470A460021816821F4C6
:105A3000E04111438160704721B1826842F4004225
:105A4000826003E0826822F400428260704721B1E4
:105A5000826842F40212826003E0826822F4021239
:105A600082607047014600208A6802F400120AB181
:105A7000012000E000207047F0B5044615460020E4
:105A800000220026092911DDE068A1F10A0707EBD1
:105A9000470C072707FA0CF29043A1F10A0707EB1E
:105AA000470703FA07F21043E0600CE0206901EBBE
:105AB000410C072707FA0CF2904301EB410703FA68
:105AC00007F210432061A06BC0F30156EF1C06F1F2
:105AD000010CA7EB0C0707EB870C1F2707FA0CF24A
