:020000040801F1
:10000000C0EE0020356C0108B11D0108B31D0108C8
:10001000B71D0108BB1D0108BF1D0108000000003D
:10002000000000000000000000000000C31D0108E7
:10003000C51D010800000000C71D0108C91D0108F9
:100040004B6C01084B6C01084B6C01084B6C0108B0
:100050004B6C01084B6C01084B6C01084B6C0108A0
:100060004B6C01084B6C01084B6C01084B6C010890
:100070004B6C01084B6C01084B6C01084B6C010880
:100080004B6C01084B6C01084B6C01084B6C010870
:10009000D17901084B6C01084B6C01083508010847
:1000A0004B6C0108A92B01084B6C01084B6C010833
:1000B0004B6C01084B6C01084B6C01084B6C010840
:1000C0004B6C01084B6C01084B6C01084B6C010830
:1000D0004B6C01084B6C0108D11D01084B6C0108E9
:1000E0004B6C01084B6C01084B6C010800F002F8E6
:1000F00000F085F80AA090E8000C82448344AAF13D
:100100000107DA4501D100F07AF8AFF2090EBAE83A
:100110000F0013F0010F18BFFB1A43F0010318473B
:1001200020E7010040E7010010F8013B0A4413F00A
:10013000030408BF10F8014B1D1108BF10F8015B44
:10014000641E05D010F8016B641E01F8016BF9D133
:10015000002D15D010F8014B03F00C030C2BA1EB74
:1001600004040ABF10F8013BA4EB8314A4EB03249E
:1001700005F1010314F8016B5B1E01F8016BF9D561
:10018000914238BF10F8013BD1D3704700230024BF
:1001900000250026103A28BF78C1FBD8520728BF97
:1001A00030C148BF0B607047662918F04487642946
:1001B00014F0CE84752914F0CB84632915F00D85D5
:1001C000732915F01285002070471FB59DE80300C4
:1001D00015F072FE15F054FE04000020002117F007
:1001E000A5FC401C60600020002117F089FCE06045
:1001F00016F034F91FBD10B516F099F910BD16F0C0
:10020000C9F91146FFF7E1FF01F054FA16F0F4FCCA
:1002100003B4FFF7F0FF03BC07F00CFDEFF3098018
:10022000704780F309887047EFF30880704780F3C8
:100230000888704740BA7047C0BA704710B50028A8
:1002400007DA0A07140EFE4A00F00F031B1FD454EE
:1002500003E00A07130EFB4A135410BD10B5044601
:10026000B4F1807F01D3012010BD24F07F40401EF7
:100270004FF0E02148610F214FF0FF30FFF7DEFF24
:1002800000204FF0E0218861072008610020EBE7A3
:1002900010B506F0B8FCEC480068401CEA4908605C
:1002A0000CF073FE03F01EFCE8480068052802D13C
:1002B0000020E6490860E6480068401EE4490860FE
:1002C000E448008838B94FF47A70E2490880012088
:1002D000E149087004E0DF480088401EDD490880DD
:1002E000DE480068B0F57A7F0DD10020DB49086058
:1002F000DB480068401CDA490860DA480068401CA6
:10030000D849086004E0D5480068401CD34908601B
:10031000D34800681E2802D10020D1490860D14886
:100320000068D149884202D10020CE490860C74800
:100330000068401CC5490860CC4800680A2805D1FF
:1003400014F0F1FA0020C949086004E0C7480068C9
:10035000401CC649086010BDC548806940F01000C7
:10036000C3498861C348406840F48030C14948604F
:10037000704700E0401E0028FCDC704710B50446C2
:10038000C4B1BB48406800F00C00082824D0B8482D
:10039000406820F00300B64948600846406840F0D5
:1003A0000200486000BFB248406800F00C00082816
:1003B000F9D111E0AE48406800F00C0060B1AC48E3
:1003C000406820F00300AA49486000BFA848406880
:1003D00000F00C000028F9D11CB1A748FFF73EFF40
:1003E00003E04FF4FA50FFF739FF10BD08B50121C3
:1003F000052004F04BFD0120ADF8000010208DF821
:10040000030003208DF8020069469C4804F0D4FFE5
:100410000220ADF8000000208DF8030069469748DF
:1004200004F0CAFF0420ADF8000028208DF8030076
:100430006946924804F0C0FF0820ADF80000002093
:100440008DF8030069468D4804F0B6FF1020ADF822
:1004500000008DF8030003208DF80200102187486A
:1004600005F057F86946854804F0A6FFE020ADF88E
:10047000000018208DF8030003208DF802002021D1
:100480007E4805F046F880217C4805F042F8694630
:100490007A4804F091FF4FF48070ADF800004820D6
:1004A0008DF803006946754804F086FF0121092094
:1004B00004F0ECFC0120ADF8000048208DF80300AA
:1004C00069466F4804F078FF0220ADF8000048202C
:1004D0008DF8030069466A4804F06EFF2020ADF8ED
:1004E000000010208DF8030003208DF80200202169
:1004F000634805F00EF86946614804F05DFF40204E
:10050000ADF8000010208DF8030003208DF80200E4
:10051000002240215A4805F000F86946584804F086
:100520004BFF8020ADF8000010208DF80300032061
:100530008DF802008021524804F0EBFF69465048D4
:1005400004F03AFF4FF48070ADF8000010208DF8F1
:10055000030003208DF802004FF48071484804F036
:10056000D8FF6946464804F027FF4FF40070ADF805
:10057000000010208DF8030003208DF802004FF4D6
:1005800000713F4804F0C5FF69463D4804F014FF80
:100590004FF48060ADF8000048208DF803006946F4
:1005A000374804F009FF4FF40060ADF80000482020
:1005B0008DF803006946324804F0FEFE4FF4805087
:1005C000ADF8000010208DF8030003208DF8020024
:1005D00000224FF480512A4804F09FFF69462848C2
:1005E00004F0EAFE4FF40050ADF8000018208DF83A
:1005F000030003208DF8020000224FF40051204830
:1006000004F08BFF69461E4804F0D6FE4FF480408C
:10061000ADF8000018208DF803006946184804F072
:10062000CBFE4FF40040ADF8000048208DF80300E9
:100630006946134804F0C0FE0121112022E00000A9
:1006400018ED00E000E400E0040000204400002079
:10065000080000201E00002022000020380000209A
:100660003C00002040000020A0BB0D0048000020FE
:100670000010024000100140401901000008014034
:10068000000C014004F002FCFF20ADF80000102037
:100690008DF8030003208DF80200FF21FE4804F0CE
:1006A00038FF6946FC4804F087FE4FF48070ADF8CF
:1006B000000048208DF803006946F74804F07CFEEE
:1006C0004FF48060ADF8000010208DF80300032087
:1006D0008DF8020000224FF48061EF4804F01DFF06
:1006E0006946ED4804F068FE4FF40060ADF8000084
:1006F00014208DF8030003208DF802004FF40061F0
:10070000E54804F006FF6946E34804F055FE4FF45F
:100710004050ADF8000010208DF8030003208DF844
:1007200002004FF48051DC4804F0F5FE4FF4005114
:10073000D94804F0F0FE6946D74804F03DFE012197
:10074000212004F0A3FB0420ADF8000010208DF858
:10075000030003208DF8020000220421CF4804F09A
:10076000DCFE6946CD4804F027FE4FF40070ADF87A
:10077000000010208DF8030003208DF802004FF4D4
:100780000071C54804F0C5FE6946C34804F014FE74
:100790004CF25030FFF7EDFD4FF48060ADF80000F3
:1007A00010208DF8030003208DF802004FF48061C3
:1007B000B94804F0AEFE6946B74804F0FDFD4FF4B9
:1007C0000070ADF8000004208DF803006946B448BD
:1007D00004F0F2FDB348806940F00100B14988613E
:1007E000B1488068B0498860084680688860AF4832
:1007F000006840F40070AD490860AC480C380068EF
:1008000040F40070A9490C3908600F211720FFF748
:1008100015FD1720012181404209920002F1E022DA
:10082000C2F8001100BF08BD10B50BF0DDFA0BF0E7
:10083000BFFA10BD10B50421994804F050FE10B95C
:100840009B48007840B199480830006840F00200A9
:1008500096490831086020E003F096FF0120FFF779
:100860008DFDFFF7E1FF002401E000BF641C91480B
:100870008442FAD30122D102874804F04EFE4FF49D
:100880008061854804F047FE4FF40071824804F00F
:1008900042FE01E006F0B7F9FCE710BD08B52620DE
:1008A0008DF8000000208DF8020001208DF8030073
:1008B000684604F014F908BD02461004B0FBF1F0DC
:1008C0007D4B1B6818447C4B186018460068B0EBE1
:1008D000024F01D30020186077480068000C704771
:1008E0002DE9FC414FF47A7425E00BF07DFA0121EB
:1008F00008460BF0A2FC714A002171A00BF0EDFC40
:10090000012108460BF099FCC4F57A7017F011FC30
:10091000074600226F4B17F005FA05462A460B469C
:100920006DA1684614F0B0F8644A002168460BF0E7
:10093000D4FC0BF03DFA2000A4F10104D5D1BDE8B0
:10094000FC812DE9FE4F04464FF00009CA46002005
:100950000BF047FA002021237D221E210090012068
:100960000BF0A1FB204617F0FBFB07465C4A5D4BF2
:1009700017F08CFC054617F0EFF882460AE00020DD
:100980000BF02FFA012009F0FF0221231E21009015
:100990000BF089FB484609F1010918F079F9054681
:1009A000514618F0A1F9EAD9012108460BF045FC9F
:1009B000424A00214CA00BF090FC012167200BF073
:1009C0003CFC22464CA101A814F05EF83B4A0021F1
:1009D00001A80BF082FC0BF0EBF9BDE8FE8F7CB5B3
:1009E000002500260120FFF7C9FC06F00CF90BF0EA
:1009F000FBF901F09DFFC6B20020FFF7BFFC06F037
:100A000002F90121182003F007FA00210C2003F05D
:100A100003FA00211A2003F0FFF901210F2003F04F
:100A2000FBF93C2408E02046FFF78BFF4FF4FA70F7
:100A3000FFF79FFC601C44B2502CF4DB03F00DFF69
:100A4000C6B2502408E02046FFF77BFF4FF4FA704F
:100A5000FFF78FFC601C44B2642CF4DD2848FFF7DC
:100A600088FC0BF0C1F9012108460BF0E6FB25A13B
:100A7000684614F009F8114A002168460BF02DFC75
:100A80000C2101200BF0D9FB22A1684613F0FCFFDA
:100A90000A4A0021684643E000100140001401406A
:100AA0000008014000100240000001400C04014019
:100AB0002C000020FFFF1F00900000205CA7020810
:100AC000D4EEF0ECE0F2E8F0EEE2E0EDE8E52E2E18
:100AD0002E00000000002440252E31662525000050
:100AE000D7A3703D0AD7F33FD4EEF0ECE0F2E8F084
:100AF000EEE2E0EDE8E53A0025642525000000007F
:100B000060E31600D4EEF0ECE0F2E8F0EEE2E0EDA7
:100B1000E8E50000E7E0E2E5F0F8E5EDEE2E0000A4
:100B20000BF0DBFB0BF044F906F06DF8F948FFF72A
:100B300020FC0BF059F919211C200BF07EFBF64A22
:100B40000021F6A00BF0C9FB0BF032F9F148FFF7DA
:100B500010FC0021442005F0B4FF4FF40071F2486E
:100B600004F0D9FC01207CBD70B5002503F0A8FB82
:100B7000002013F079FC04467CB109E0002013F05A
:100B800073FC044604B907E042F21070FFF7F1FB72
:100B900028466D1C0528F1D300BF0AF0B1FF0446BA
:100BA000012070BD70B50646E048006800286DD190
:100BB000DF49E048006818F097F828D24FF08041EC
:100BC000DC48006818F090F921D2DB480068F0B9E1
:100BD000DA480078D8B90BF007F9142105200BF09A
:100BE0002CFBD74A0021D7A00BF077FB1E21052054
:100BF0000BF023FBD24A0021D7A00BF06EFB0BF0C9
:100C0000D7F80120CC490860D748FFF7B2FBCB48A2
:100C10000078002839D1D548006817F0A1FE0446B5
:100C2000D34AD44B17F0F6FA2FD80BF0DDF8142185
:100C300005200BF002FBC24A0021CFA00BF04DFBB8
:100C40001E2105200BF0F9FABD4A0021CDA00BF0C2
:100C500044FB0BF0ADF8CE48FFF78BFB0BF0C4F86C
:100C600019211C200BF0E9FAAB4A0021ABA00BF0D4
:100C700034FB0BF09DF8BC48FFF77BFB0120AE492D
:100C800008604102A84804F046FC55E001F06CFD04
:100C90000A2825D801F068FD022821D9A648006855
:100CA000F0B9A6480078D8B90BF09EF814210520B9
:100CB0000BF0C3FAA24A0021A2A00BF00EFB1E21EA
:100CC00005200BF0BAFA9E4A0021A3A00BF005FB09
:100CD0000BF06EF8012098490860A348FFF749FB24
:100CE00001F042FD012827D89448007820BB9248A3
:100CF000006808BB0BF078F8142105200BF09DFA72
:100D00008F4A00219CA00BF0E8FA1E2105200BF071
:100D100094FA8B4A00219BA00BF0DFFA0BF048F805
:100D20009C48FFF726FB0BF05FF80BF041F84FF4FF
:100D300000717D4804F0EFFB70BD10B5102003F08A
:100D400027F80446012C06D0022C0AD0042C0ED021
:100D5000082C14D111E0112003F01AF840EA042401
:100D60000FE0122003F014F840EA042409E01320F5
:100D700003F00EF840EA042403E0240201E000241A
:100D800000BF00BF84480068A04219D0A1B20A2069
:100D900003F042F8804804608048818C042003F00E
:100DA0003BF87E48818D052003F036F87B48818E24
:100DB000062003F031F87948818F072003F02CF8E2
:100DC00010BD70B503F06CFAA8B303F095F90120DB
:100DD00003F040FA04462146002003F01DF80320EA
:100DE00003F038FA0546022003F034FA00EBC001A4
:100DF00001EB001005EB800084B22146012003F0D6
:100E00000BF8052003F026FA0546042003F022FA29
:100E100000EBC00101EB001005EB800084B221461D
:100E2000022002F0F9FF062003F014FA04462146DE
:100E3000032002F0F1FF70BD10B5002204215848D4
:100E400004F06BFB02F0BCF800210B2002F0E4FF81
:100E5000082002F09DFF40F001042146082002F026
:100E6000DBFF46F2A8114F4802F095F810BD10B50F
:100E700002F000FB082002F08BFF20F00104214665
:100E8000082002F0C9FF0B2002F082FF28B9434876
:100E9000B0F85C100B2002F0BFFF10BD10B5044687
:100EA00041480078002802DD404841490860404838
:100EB0000068002804DC4FF400711B4804F02BFB91
:100EC00010BD2DE9FC5F192002F062FF064617F005
:100ED000F7FE0546374917F0DDFD374908600A205F
:100EE00002F056FF40F20122811A904270D065DC78
:100EF000B0F5827F6DD005DCA0F2011048B1012869
:100F000068D170E0B0F5847F7ED0B0F5887FF7D1EE
:100F100082E060E060E3160064B50208C2DBCACB81
:100F2000DED7C5CDC8C50000001001405C00002020
:100F3000000020417C00002034000020140000202C
:100F40005CA70208C7E0F0FFE420E0EAEAF3ECF374
:100F5000EBFFF2EEF0E00000ECE5EDFCF8E520310F
:100F60003025202E2E2E0000A025260080000020F7
:100F7000CDCCCCCCCCCC0440C0EAEAF3ECF3EBFF14
:100F8000F2EEF000F0E0E7F0FFE6E5ED2E00000005
:100F9000E0673500404B4C00940000203A90020876
:100FA00000140140F80D002008060020C0270900A9
:100FB0000800002000007A442400002001293FD0CE
:100FC000032952D0072965D0B1F5007F98D176E08A
:100FD0002AE011E088E0F949F948006817F05AFD65
:100FE000F749086081E0F549F548006817F052FDBF
:100FF000F349086079E007E0F049F148006817F02C
:1010000049FDEF49086070E0EC49ED48006817F0D1
:1010100041FDEB49086068E0E849E948006817F0DD
:1010200039FDE749086060E0E649E548006817F0E7
:101030008FFE0546E14917F02DFDE149086054E0B7
:10104000DF48006817F08CFCDF4AE04BCDE9000177
:1010500017F01CF907460022DD4B16F063FE05462B
:1010600016F07AFDD64908603FE0D548006817F0D1
:1010700077FCD54AD54BCDE9000117F007F90546B5
:101080000022D34B16F04EFE074616F065FDCC4904
:1010900008602AE0CA48006817F062FC0546CA4AA0
:1010A000CA4B17F0F3F80022C94BCDE9000116F046
:1010B00039FE074616F050FDC149086015E0C048EA
:1010C000006817F04DFC0746C24AC34B17F0DEF824
:1010D00005460022C14B16F025FECDE9000116F0B1
:1010E0003BFDB749086000E000BF00BFBC4801F00D
:1010F000B4F90546B2480168284617F029FE814632
:101100000A2002F045FE40F20121884211D14946F1
:10111000484617F01DFEB349019017F017FF8346AC
:1011200017F01EFC074616F0C4FC054616F014FD29
:101130008146484617F08CFD85B22946042002F00E
:101140006BFEA74801F0A5F98246A54801F0ACF96D
:101150000546A54917F0FCFD04462146504617F008
:10116000C3FD00D2A24696480168504617F0F0FD34
:1011700082460A2002F00CFE40F2011188420ED194
:101180004FF08141504617F0AFFE06D24FF081413B
:10119000504617F0DBFE824601E04FF0000A0A20BD
:1011A00002F0F6FDB0F5817F0ED14FF0814150463F
:1011B00017F09AFE06D24FF08141504617F0C6FE56
:1011C000824601E04FF0000A0A2002F0E1FDB0F58E
:1011D000827F0CD18549504617F086FE05D283499F
:1011E000504617F0B3FE824601E04FF0000A0A2095
:1011F00002F0CEFDB0F5847F0CD17D49504617F04A
:1012000073FE05D27A49504617F0A0FE824601E0EF
:101210004FF0000A0A2002F0BBFD40F20121884293
:101220000CD17449504617F05FFE05D27149504603
:1012300017F08CFE824601E04FF0000A0A2002F00F
:10124000A7FD40F2022188420ED14FF08241504664
:1012500017F04AFE06D24FF08241504617F076FE54
:10126000824601E04FF0000A0A2002F091FDB0F53D
:10127000017F0ED14FF08241504617F035FE06D265
:101280004FF08241504617F061FE824601E04FF078
:10129000000A0A2002F07CFDB0F5027F0CD156490D
:1012A000504617F021FE05D25349504617F04EFE26
:1012B000824601E04FF0000A0A2002F069FD40F288
:1012C000014188420CD14D49504617F00DFE05D220
:1012D0004A49504617F03AFE824601E04FF0000AB4
:1012E000504617F0B5FC85B22946052002F094FD62
:1012F0004249484617F0F8FD05D24946504617F0D6
:10130000C9FB824601E04FF0000A3D49504617F004
:101310001FFD064617F09CFC85B22946072002F007
:101320007BFD2F4801F0CBF805462548016828468B
:1013300017F00EFD82460021504617F0D5FC01D271
:101340004FF0000A0A2002F023FD40F2011188420A
:101350000ED14FF08241504617F0C6FD06D24FF035
:101360008241504617F0F2FD824601E04FF0000A3C
:101370000A2002F00DFDB0F5817F0ED14FF08241C1
:10138000504617F0B1FD06D24FF08241504617F09B
:10139000DDFD824601E04FF0000A0A2002F0F8FC71
:1013A000B0F5827F30D11249504617F09DFD29D209
:1013B0000F49504617F0CAFD824625E00000404024
:1013C000240000200000E442D122DBF97EEA344010
:1013D0000000084085EB51B81EB9784000C072404B
:1013E00058D100200000C843000080BF0000E0404A
:1013F0000000604100008C42000020410000A0403D
:101400000000C8424FF0000A0A2002F0C1FCB0F50B
:10141000847F0CD1FE49504617F066FD05D2FC4989
:10142000504617F093FD824601E04FF0000A0A2073
:1014300002F0AEFC40F2012188420CD1F549504641
:1014400017F052FD05D2F349504617F07FFD824652
:1014500001E04FF0000A0A2002F09AFC40F202215B
:1014600088420CD1EC49504617F03EFD05D2EA49BE
:10147000504617F06BFD824601E04FF0000A0A204B
:1014800002F086FCB0F5017F0CD1E349504617F01D
:101490002BFD05D2E049504617F058FD824601E089
:1014A0004FF0000A0A2002F073FCB0F5027F0CD165
:1014B000D949504617F018FD05D2D749504617F0C4
:1014C00045FD824601E04FF0000A0A2002F060FC70
:1014D00040F2014188420CD1D049504617F004FD3A
:1014E00005D2CE49504617F031FD824601E04FF05B
:1014F000000A504617F0ACFB85B22946062002F0E0
:101500008BFCBDE8FC9F70B5044665682E462068DC
:10151000FEF78DFEA4F100614FF0006003F011FBB7
:10152000B04770BD2DE9F84F01F04EF9824617F033
:10153000C7FB81464FF08B4117F0ACFA044617F019
:101540000FFA07464FF06632B54B16F09FFE054680
:1015500016F002FBB349086008460168B24817F06C
:10156000F5FCB0490860B149AE48006817F092FA3E
:10157000804617F0F5F90646AD4AAE4B16F086FEEA
:10158000044616F0E9FAA749086001F047F900900F
:1015900017F096FB83464FF08B4117F07BFA82469B
:1015A00017F0DEF980464FF066329D4B16F06EFE66
:1015B0000646A14AA14B16F069FE044616F0CCFA85
:1015C0009F4908609F48006817F062FB05469E48E7
:1015D0000168284617F0BAFC04469C4917F05AFAED
:1015E0009B4908609748006817F052FB96490860CD
:1015F000974801688B48006817F0AAFB0446954994
:1016000017F048FA9449086094480068012807D107
:10161000084601689248006817F0CEF990490860C2
:101620008E48006838B98C4801688D48006817F00A
:101630008DFC8B4908601F2002F0AAFB18B989486D
:101640008949086002E08948874908607C48006849
:1016500017F086F90446864A864B16F0DBFD03D860
:101660000020854908600CE084497D48006817F037
:101670006FFB04467C480168204617F00BFA7E4950
:1016800008607748006817F06BF906467C4A7D4B86
:1016900016F048FB804616F075F9044616F0D6FCA5
:1016A0001FFA80FA5146282005F00BFA6C480068B2
:1016B000BDE8F88F94B000BF0024A24600BF002010
:1016C00071490870FEF792FE7048FEF752FE6F48AF
:1016D000FEF74FFE6D48FEF74CFE012291026C486A
:1016E00003F01BFF6948FEF744FE6848FEF741FE21
:1016F0006648FEF73EFE03F0C1F90120FEF73EFE0C
:1017000000F0FCFE06F002F80AF085FB01206149BA
:10171000086002F0AFFC28B95F48006840F00100A3
:101720005D490860FFF720FA28B95B48006840F07F
:1017300004005949086002F054FC28B95648006872
:1017400040F002005449086001A807F05DFD302216
:1017500001A9524813F082FD0AF0E9FD0AF028FBC6
:10176000002401E000BF641C4D488442FAD31420D9
:1017700001F00CF90BF048FC0020FEF7FFFD012002
:1017800002F0EFFA30B9022002F0EBFA10B9802033
:101790000BF037FC192002F0FBFA064617F090FA1E
:1017A00005462A4917F076F93E4908603E493D480A
:1017B000006817F06FF93B4908600C2005F08DF9BF
:1017C0003A490880442005F088F9394908604FF407
:1017D0000041384803F083FE37490860282005F0AF
:1017E0007CF90C9017F06CFA834617F0B9F80746AD
:1017F000234A244B16F04AFD054616F0ADF9184968
:1018000008601F2002F0C4FA00B957E05AE0000057
:101810000000F041000002430000A0410000204110
:1018200066660A40640000203333D33FA4709D40B5
:101830007B14AE47E17AF03FE17A14AE47E1004015
:1018400080000020040000206C00002000007A448A
:10185000680000200000614570000020600000204A
:10186000740000209A99193F880000209A99993FA6
:10187000CDCCCCCCCCCC04407C0000200000C842B5
:1018800025D910F84533F33E14000020A08601004E
:1018900000100140300000200C000020E80B002068
:1018A000FFFF2F00240000200000964320000020AE
:1018B000D4060020000C01405C000020F748F849E5
:1018C000086002E0F748F6490860F749F748006801
:1018D00017F03EFA0546F2480168284617F0DAF894
:1018E000F3490860F348006830B90846006817F00B
:1018F00093F9F149086003E000F036FFEE49086013
:101900004FF40041ED4803F0EAFD01280CD1082016
:10191000EB4908801020C8700821EA4803F0FBFD5D
:10192000E749E84803F048FD3EE2E748007850B355
:10193000E6480088B0F5616F18D10E2002F028FA51
:10194000E2490880084600884FF6E851884209DAE3
:10195000DE480088401C80B2DC4A108001460E2020
:1019600002F05AFA0020D949088004E0D7480088DC
:10197000401CD64908800020D3490870D34801880C
:101980000C2005F09EF845F2555005F033F906207D
:1019900005F033F94FF4806005F032F905F038F9BD
:1019A000FFF7C0FDCA480078CA4908600421C5484D
:1019B00003F095FDC849096888427DD00421C148DB
:1019C00003F08DFDC44908600846006880B1FFF748
:1019D0004EFA0020C149087002F0D6FEC048FEF75A
:1019E000C8FC0120FEF7CAFC0020BE4908709CE03C
:1019F0000120BC4908700020BB4908700AF0F4F9C6
:101A0000012108460AF019FCB84A0021B8A00AF0E2
:101A100064FC0AF0CDF94FF0000972B671B60122EC
:101A2000B7A1B84810F012FD4FF0000A10E00023F3
:101A30001A46B5A10DA8CDF800A013F025F8B949B4
:101A40000DA811F000FA08B909F101090AF1010A1B
:101A5000BAF1FF0FEBD905F0D6F80A22B2A1B548CA
:101A600010F01FFD0022B4A10DA813F00DF80DA970
:101A7000B04812F0D8F9AF490A2012F08FF90124CA
:101A800014E02246AFA10DA812F0FEFFA5490DA853
:101A900011F0D9F938B90DA9A64812F0C4F9A54931
:101AA0000A2012F07BF905F0AEF8641CFF2CE8D395
:101AB000A04810F0C6FF00E049E000220DA98FA069
:101AC00011F0D2FCA2A10DA813F076FC10B1A0A0D9
:101AD00011F029FD00228AA1104610F0B7FC62B671
:101AE00061B69D48C0F8009009F1010081B20F2055
:101AF00002F092F90024A24698A199A013F055FA99
:101B000040B14FF00060FFF7FEFC002098490860EC
:101B1000984908600020FEF731FC7148FEF729FC67
:101B200002F004FE00200EF09AFE6248006810B930
:101B30006A48007838B100F017FE5F49086000F08D
:101B400013FE8D4908606448006805F0EDFD6248A9
:101B50000068002870D10120884908600020614990
:101B600008701E2002F014F9012801D1FFF796F940
:101B70004FF48051824803F0CEFC4FF4005180486E
:101B800003F0C9FC5548007810B90020FFF70AF8A7
:101B90005248007830B9042002F0CFF810B9012083
:101BA0004E4908704D48007801280ED1802002F07F
:101BB000C4F850B90220494908707248007820B929
:101BC0000120FEF7DBFBFFF737F9444800780228D5
:101BD00006D1042002F0B1F810B903203F49087083
:101BE0003E480078032806D1802002F0A6F810B9FC
:101BF00000203A4908703948007840B9FFF737F9B2
:101C000001F054FC00B9641C0020FEF7B7FB08206B
:101C100002F0BEF800F00100002810DD0A2002F0FA
:101C2000B7F8B0F5006F08D101F048FC0546294629
:101C30000B2002F0F1F802E020E0FFF742F95248F1
:101C40000078002809DD082002F0A2F840F008051D
:101C50002946082002F0E0F808E0082002F098F891
:101C600020F008052946082002F0D6F80020464951
:101C700008700FF093F8FFF760F895E0434800789C
:101C800048B94348FEF775FB4048007820B9022068
:101C90000EF0E5FD88E084E07CE000009A99193FB1
:101CA000880000209A99993F0000C84274000020E3
:101CB0007C0000205C0000204C000020000C014053
:101CC0008C0000200008014022000020200000209D
:101CD0004E060020540000201000002014000020B8
:101CE000400D03002C000020150000205CA7020816
:101CF000CFEEE4EEE6E4E8F2E52E2E2E0000000042
:101D0000303A000070070020303A253033752E2518
:101D10003033752F5369676E616C2025642E6461C2
:101D200074000000C80B0020526F6164732E747839
:101D300074000000A4090020526F61642E25303128
:101D400075202000526F61642E253033750000002D
:101D500050494F4E00000000180000207262000041
:101D60004D3A5C70726F67312E62696E0000000040
:101D7000CC060020D8060020500000206000002083
:101D800000100140A4060020D40000204F060020CF
:101D90008096980001200EF062FD00200349086043
:101DA00002E001200EF05BFDBFE5000060000020B6
:101DB000704700BFFEE700BFFEE700BFFEE700BFC1
:101DC000FEE770477047704710B5FEF761FA10BD27
:101DD00010B540F225510F4803F04AFA48B10D48BA
:101DE00003F0DDF90C49087008460178094803F052
:101DF000D2F940F22661074803F03AFA40B1402197
:101E0000044803F02CFA04480078401E0249087088
:101E100010BD000000440040980000202DE9F04172
:101E200006460F461446F9480078012802D10020E2
:101E3000BDE8F081022C00DC0CB90020F8E7F34883
:101E400001780078401CF14A107001EB810000EB32
:101E5000C100EF4901EB80052C704FF0000800BF76
:101E6000002105F11C0040F824100C3040F824102B
:101E700056F82410281D40F8241057F824100C3070
:101E800040F8241034B1281D50F82410404616F0B4
:101E900093FD804605F1100050F82410404616F0DE
:101EA0008BFD8046201EA4F10101CCB2D8DC28466F
:101EB000BEE72DE9F04704460D460026E1692162A0
:101EC000A16AE162E561A168E06A16F041FF80461F
:101ED0006169206A16F03CFF81462169E06916F0CD
:101EE00037FF8246494616F067FD0746414616F021
:101EF00063FD0646A662A06ABDE8F0872DE9F84FAB
:101F000004460D460026216A6162E16A2163E169A7
:101F10002162A16AE162E561E168206B16F018FFB9
:101F20008146A168E06A16F013FF8246494616F022
:101F300043FD0746A169606A16F00AFF00906169D7
:101F4000206A16F005FF82462169E06916F000FF5D
:101F50008346514616F030FD8146009916F02CFD5F
:101F60008046394616F028FD0646A662A06ABDE8FE
:101F7000F88F2DE9BF4F82468B461446A54800785E
:101F8000062803D1002004B0BDE8B08F022C00DC8D
:101F90000CB90020F7E79F4801780078401C9D4A63
:101FA000107001EB810000EBC1009B4901EB80093F
:101FB00089F80040002500BF002109F11C0040F80D
:101FC00024100C3040F824100AEBC40000224FF01B
:101FD0008043D0E90071384616F01CF921D20AEB93
:101FE000C40000224FF04043D0E90071384616F09B
:101FF0004BFA16D20AEBC4000022884BD0E90071DC
:10200000384616F043F90022854BCDE9000116F061
:102010003DF9CDE9020115F02FFD09F1040141F868
:1020200024000BEBC40000224FF08043D0E9007184
:10203000384616F0EFF821D20BEBC40000224FF027
:102040004043D0E90071384616F01EFA16D20BEB69
:10205000C401D1E900710022704B384616F016F920
:1020600000226F4BCDE9000116F010F9CDE9020115
:1020700015F002FD09F1100141F8240024B109F125
:10208000040050F82400451909F1100050F824000C
:102090004519201EA4F10101CCB28DDC484672E73F
:1020A0000146002009E0002301F11C0242F8203023
:1020B0000C3242F82030421CD0B20328F3DB7047C8
:1020C0002DE9FC5F064689461546002434E006EB00
:1020D000C4000022514BD0E90071384616F0D6F802
:1020E00000224F4BCDE9000116F0D0F8824615F0E2
:1020F000C3FC291D41F8240009EBC4000022474B12
:10210000D0E90071384616F0C1F882460022444BEF
:1021100016F0BCF8CDE9000115F0AEFC05F1100198
:1021200041F82400002105F11C0040F824100C3077
:1021300040F82410601CC4B22878401CA042C6DCC1
:10214000BDE8FC9F2DE9F043024600BF156A5562C9
:10215000D56A1563D5691562956AD562D16115692D
:10216000D06980FB0550176A566987FB0667AD1971
:102170007841576A966987FB0667AE197841D76A36
:10218000956887FB0597D2F80CC0D2F8308088FBA1
:102190000CC83D4619EB0C0745EB0805F31940EB5D
:1021A00005044FF000569E1944F10000850045EAF1
:1021B00096709062906ABDE8F083F0B5024600BF69
:1021C000D5691562956AD562D1611569D06980FBC0
:1021D0000550176A566987FB0667AD197841D76ABB
:1021E000966887FB0667AB1940EB07044FF0005772
:1021F000DE1944F10000850045EA96709062094DB1
:10220000906AA84210DD2846F0BD00009900002029
:10221000880C00209A000020BC0C00200000F04038
:102220000000D0400080FF3F906AB0F1404F02DADA
:102230004FF04040E8E7906AE6E72DE9F0430246B8
:1022400000BF156A5562D56A1563D5691562956A2E
:10225000D562D1611569D06980FB0550176A56694E
:1022600087FB0676ED197041576A966987FB06670A
:10227000AE197841D76A956887FB05C5D2F83080DA
:10228000D76888FB0787B9461CEB080745EB0905AB
:10229000F31940EB05044FF000569E1944F100007D
:1022A000850045EA967090628F4D906AA84202DDE3
:1022B0002846BDE8F083906AB0F1404F02DA4FF053
:1022C0004040F6E7906AF4E72DE9F047034600BF87
:1022D0001E6A5E62DE6A1E63DE691E629E6ADE62DE
:1022E000DA611E69D86980FB0670D3F820C05E6988
:1022F0008CFB06C6B04617EB0C0640EB0800D3F883
:1023000024C09F698CFB077CF71940EB0C00D3F8C5
:102310002CC09E688CFB0686D3F80CC0D3F8309096
:1023200089FB0C9CE24618EB090C46EB0A0617EBFE
:102330000C0440EB06054FF0005C14EB0C0745F174
:102340000000860046EA9770986200BF0E6A4E62EF
:10235000CE6A0E63CE690E628E6ACE62986AC861DA
:102360000E69C86980FB0670D1F820C04E698CFBED
:1023700006C6B04617EB0C0640EB0800D1F824C0A7
:102380008F698CFB077CF71940EB0C00D1F82CC04F
:102390008E688CFB0686D1F80CC0D1F8309089FB92
:1023A0000C9C18EB090846EB0C0617EB080440EBF5
:1023B00006054FF00056A61945F10000870047EAD0
:1023C00096708862484E886AB04202DD3046BDE8A9
:1023D000F087886AB0F1404F02DA4FF04040F6E7EC
:1023E000886AF4E741810023036043600022C260F1
:1023F00002618261C261028180F828200262426229
:10240000704730B5C2688A4200DAC16002698A4208
:1024100000DD016101F58042D11381FB0153D0E958
:10242000004264195A41C0E900420289521C0281EB
:10243000028943899A420FDBD0E90023C0E90623D1
:10244000C2680262026942620022C26002610260E6
:102450004260028180F8282030BD2DE9FC4780468B
:10246000B8F80A0015F07CFE04460D46D8E90621AE
:10247000104615F089FE064622462B4615F052FC02
:10248000814615F016FBCDE9000115F065FBBDE8AE
:10249000FC8770B50446206A16F0FAFB05464FF03B
:1024A0008E4116F0F7FA70BD70B50446606A16F0FA
:1024B000EFFB05464FF08E4116F0ECFA70BD70B59B
:1024C00004462046FFF7F0FF05462046FFF7E1FFF0
:1024D0000646294616F03AFD70BD014691F82800DF
:1024E00000F00100704700000080FF3F10B5044677
:1024F00021464FF4007002F0C9FC10BD00B585B054
:10250000012140F2012002F0C1FC002000908DF872
:1025100004008DF805004FF4602002900020039025
:1025200001208DF810006946D14803F0AAF807236E
:1025300001220321CE4803F03CF90121CC4803F0ED
:10254000CCF8CB4803F0EBF800BFC94803F0ECF837
:102550000028FAD1C64803F0F1F800BFC44803F0E0
:10256000F2F80028FAD1012003F048FA0021C0480F
:1025700003F0B3F805B000BD2DE9F04100240025BB
:10258000002780260120FFF7B1FF0121B84803F0A2
:10259000A4F8072301221121B54803F00AF900BF6E
:1025A0000EE00121B24803F0D8F800BF0221B04884
:1025B00003F044FA0028F9D0AD4803F061F905446E
:1025C0003000A6F10101CEB2EBD1ED094FF4960037
:1025D000B0FBF5F7072301221146A54803F0E9F8FF
:1025E00080260EE00121A24803F0B7F800BF0221C7
:1025F0009F4803F023FA0028F9D09D4803F040F9E2
:1026000004443000A6F10101CEB2EBD1002198487C
:1026100003F063F80020FFF769FFE40904FB07F00B
:102620004FF4006101EB400040F6FF71B0FBF1F4A4
:102630002046BDE8F08110B5FFF79EFF044641F249
:102640003600844201D964240DE040F61C408442E7
:1026500001D2002407E0A4F61C446420604340F249
:102660001A41B0FBF1F48348008864280CD18248F9
:1026700000686421B0FBF1F08049087000207E49B9
:1026800008607C49088004E07B48006820447A495F
:10269000086078480088401C7649088077480078B0
:1026A000FA2801D175490C707448007810BD2DE9E5
:1026B000F04100240025002780260120FFF716FFA7
:1026C00001216B4803F009F8072301221121684812
:1026D00003F06FF800BF0EE00121654803F03DF8FC
:1026E00000BF0221624803F0A9F90028F9D0604830
:1026F00003F0C6F805443000A6F10101CEB2EBD1DB
:10270000ED095F48B0FBF5F7072301221146584851
:1027100003F04FF880260EE00121554803F01DF824
:1027200000BF0221524803F089F90028F9D050482F
:1027300003F0A6F804443000A6F10101CEB2EBD1BB
:1027400000214B4802F0C9FF0020FFF7CFFEE4094B
:1027500004FB07F040F6CA0101EB40004900B0FB62
:10276000F1F42046BDE8F08110B5FFF7A0FF044664
:10277000B4F5616F01D964240CE0B4F5486F01D25F
:10278000002407E0A4F54864642060434FF4C87156
:10279000B0FBF1F4204610BD10B5FFF788FF0446EA
:1027A000B4F57A6F01D964240CE0B4F5486F01D216
:1027B000002407E0A4F54864642060434FF44871A6
:1027C000B0FBF1F4204610BD70B500260024802532
:1027D0000120FFF78BFE0121254802F07EFF072331
:1027E00001220321224802F0E4FF00BF0EE0012194
:1027F0001F4802F0B2FF00BF02211D4803F01EF97E
:102800000028F9D01A4803F03BF804442800A5F149
:102810000101CDB2EBD1E409204670BD70B50026B0
:10282000002480250120FFF761FE0121104802F0FD
:1028300054FF0723012211460D4802F0BAFF00BFE2
:102840000EE001210A4802F088FF00BF022108487B
:1028500003F0F4F80028F9D0054803F011F8044417
:102860002800A5F10101CDB2EBD1E409204670BDED
:1028700000240140A4000020A00000209C000020B3
:10288000C0655200012070472DE9F04104460D4615
:102890001746002011F098FE06462EB1012236A1FF
:1028A00036480FF0D3FD064672B671B601232246B4
:1028B0002946002011F0D3FE064662B661B600221A
:1028C0002DA110460FF0C2FD06460120BDE8F081A3
:1028D0002DE9F04104460D461746002011F074FE24
:1028E00006462EB1012224A124480FF0AFFD064672
:1028F00072B671B6012322462946002011F06BFE04
:10290000064662B661B600221BA110460FF09EFD7E
:1029100006460120BDE8F08101461948C0684860BC
:102920001748C08A08811648C08A4881012070472C
:1029300070B572B671B604F066F909F0E1F80122DB
:102940000DA10E480FF082FD0546002211460AA097
:1029500010F0AAFE044604F056F90AA010F0E3FDB8
:102960000546002204A110460FF070FD054662B630
:1029700061B6204670BD0000303A000070070020AC
:10298000E80B002050494F4E0000000010B58AB0FF
:1029900004460121C80202F079FA012C04DD601E10
:1029A00080B2ADF8200002E00120ADF82000472001
:1029B000ADF81C000020ADF82200ADF81E008DF827
:1029C000240007A9FE4803F0E9FA0121FC4804F0BD
:1029D0004BF819208DF8180000208DF819008DF89B
:1029E0001A0001208DF81B0006A802F078F80121DA
:1029F000880302F058FA0020ADF804004FF482700A
:102A0000ADF806000020ADF808000220ADF80A007D
:102A10000120ADF80C004002ADF80E000020ADF82A
:102A20001000ADF812000720ADF8140001A9E54828
:102A300003F0F2F80222E44901F11800FFF799FAD5
:102A4000E24908600222E24901F11800FFF791FA19
:102A5000E04908600222E04901F11800FFF789FA15
:102A6000DE4908600222DE4901F11800FFF781FA11
:102A7000DC4908600222DC4901F11800FFF779FA0D
:102A8000DA4908600222D84901F11800FFF771FA0B
:102A9000D74908600AB010BD10B500244FF480502B
:102AA000D449086008600860086008600860086031
:102AB00008600860086008600860086008600860D6
:102AC00008600860086008600860086008600860C6
:102AD00008600860086008600860086008600860B6
:102AE00008600860086008600860086008600860A6
:102AF0000860086008600860086008600860086096
:102B00000860086008600860086008600860086085
:102B100008600860FF21AB4803F054F900BFA948E2
:102B20000830008800F002000028F8D0FF21A548F6
:102B300003F048F900BFA3480830008800F0010006
:102B40000028F8D09F4803F03FF9044600BF9D4895
:102B50000830008800F002000028F8D0FF219948D2
:102B600003F030F900BF97480830008800F00100FA
:102B70000028F8D0934803F027F940EA042400BF66
:102B800090480830008800F001000028F8D08D48F7
:102B900003F01AF940EA04244FF480509549091FC4
:102BA0000860A408A0B210BD70B54FF4006192484F
:102BB00002F0AFFC192001F0EBF8054616F080F8A2
:102BC00004468E4915F066FF8D49086001217C4856
:102BD00003F04AFFFFF760FFA0F500408949086055
:102BE0000846016888480078884A12781040884A68
:102BF00042F8201084480078401C83490870084639
:102C0000007882490978084000286ED17F48007812
:102C1000012808D110460068114649680844401050
:102C2000784908600DE07A480068794949680844A5
:102C30007749896808447649C96808448010714911
:102C400008607048006847F6F461884204DC6D480B
:102C500000684942884205DA6E48006810B90120D0
:102C60006D49087067480068C003664908606B4892
:102C7000008840F20122811A904276D010DCB0F533
:102C8000827F48D005DCA0F20110C8B101286DD1C7
:102C90002CE0B0F5847F53D0B0F5887FF7D166E0A3
:102CA00007296FD004DC01296DD00329EFD1D5E0CD
:102CB000B1F5007F68D0A1F2FF510029E7D122E1F0
:102CC000504802684348016840480068FFF7FCFA32
:102CD0004C49086008460268424801683F4800685D
:102CE000FFF7F2FA4749086019E14DE145480268EB
:102CF0003848016835480068FFF7E6FA414908603E
:102D0000084602683748016834480068FFF7DCFA73
:102D10003C49086003E13B4802682E4801682B48A3
:102D20000068FFF7D1FA37490860084602682D4865
:102D300001682A480068FFF7C7FA32490860EEE0E8
:102D4000304802682348016820480068FFF7BCFA51
:102D50002C49086008460268224801681F4800683C
:102D6000FFF7B2FA27490860D9E00EE0D6E025481F
:102D700002681C48016819480068FFF7A5FA214954
:102D80000860CCE085E04EE09EE01E4802681148F5
:102D900001680E480068FFF797FA1A49086008466C
:102DA000016812480068FFF748FA164908600846AB
:102DB00002680C48016809480068FFF785FA2FE0AF
:102DC000002C01400038004040010020F0050020A8
:102DD00070010020F4050020C0020020F80500204A
:102DE000F0020020FC050020A004002000060020C6
:102DF00004060020140C01400008014000007A4441
:102E0000D8000020C4000020DC000020DD000020ED
:102E100048D10020CC000020D4000020C8000020B1
:102E2000FE4908607BE0FD480268FD480168FD48F6
:102E30000068FFF749FAF949086008460168FA484E
:102E40000068FFF7FAF9F549086008460168F74895
:102E50000068FFF7B2F9F149086060E0EF480268E6
:102E6000EF480168EF480068FFF72EFAEB49086069
:102E700008460168EC480068FFF7DFF9E749086099
:102E800008460168E9480068FFF797F9E3490860D8
:102E900045E0E2480268E2480168E2480068FFF75E
:102EA00013FADE49086008460168DF480068FFF74A
:102EB000C4F9DA49086008460168DC480068FFF791
:102EC0007CF9D64908602AE0D4480268D4480168F1
:102ED000D4480068FFF7F8F9D0490860084602684E
:102EE000D3480168D1480068FFF7EEF9CB49086084
:102EF00008460268CF480168CB480068FFF7E4F94C
:102F0000C64908600BE0C5480268C9480168C7485F
:102F10000068FFF7D9F9C149086000E000BF00BFB1
:102F2000C548006828B1C4480068401EC24908600E
:102F300070BDBA480168C148FFF763FAC04800880D
:102F4000002821DDBE480088401EBD490880B348E6
:102F5000006815F09DFE0546BA480168284615F040
:102F6000F7FE044615F058FEB749086008460068A9
:102F700000F58040C01300B2B44909680880B34826
:102F80000068801CB14908604FF40061B04802F04D
:102F9000C2FA00BFCCE70022A94B1A80AB4A1060EE
:102FA000AC4A118002E0002220F811200A00A1F1B1
:102FB000010399B2F7D1A74A1288A14B1A80704732
:102FC00010B500209E49088001221103A24802F09A
:102FD000A4FA0020A149086048608860C860A04940
:102FE000087046F2A810944908600A2000F0D0FE4C
:102FF0009C4908808B480068FFF752F888480068B1
:10300000FFF74EF889480068FFF74AF888480068DB
:10301000FFF746F884480068FFF742F885480068E3
:10302000FFF73EF88F48008840F20122811A904253
:103030007DD010DCB0F5827F67D005DCA0F20110F6
:10304000C8B1012874D13BE0B0F5847F71D0B0F5F0
:10305000887FF7D1AAE007296CD004DC01296AD067
:103060000329EFD15EE1B1F5007F65D0A1F2FF51F8
:103070000029E7D1D3E16B487B49026801F11800D0
:10308000FFF71EF866487949026801F11800FFF75A
:1030900017F866487649026801F11800FFF710F842
:1030A00063487449026801F11800FFF709F803202A
:1030B0007149087046F2A8116048FFF793F9CAE118
:1030C00058486E49026801F11800FEF7F9FF5448AC
:1030D0006B49026801F11800FEF7F2FF5348694995
:1030E000026801F11800FEF7EBFF514866490268DB
:1030F00001F11800FEF7E4FF01205F49087046F275
:10310000A8114E48FFF76EF9A5E146485F490268ED
:1031100001F11800FEF7D4FF41485D49026801F152
:103120001800FEF7CDFF41485649026805E062E00D
:1031300090E116E01BE1D0E03EE101F11800FEF75E
:10314000BFFF3B485049026801F11800FEF7B8FF85
:1031500001204949087046F2A8113848FFF742F9A2
:1031600079E130484B49026801F11800FEF7A8FFE9
:103170002B484949026801F11800FEF7A1FF2B48CE
:103180004049026801F11800FEF79AFF28483E49BD
:10319000026801F11800FEF793FF0120364908701C
:1031A00046F2A8112548FFF71DF954E11D483B4997
:1031B000026801F11800FEF783FF194838490268D8
:1031C00001F11800FEF77CFF18482E49026801F152
:1031D0001800FEF775FF16482B49026801F1180028
:1031E000FEF76EFF01202449087046F2A81113482B
:1031F000FFF7F8F82FE10B481B49026801F11800AE
:10320000FEF75EFF06481949026801F11800FEF753
:1032100057FF06481649026844E00000C400002039
:10322000F4050020F005002000060020F80500202D
:10323000FC05002004060020CC00002058D100200E
:10324000C0000020D8000020D0000020BC000020DA
:1032500000080140C2000020000C014048D10020BD
:10326000DC000020C8000020B0030020E0030020A4
:10327000C0020020F0020020DD00002040010020FC
:10328000700100202003002050030020A001002036
:10329000D001002000020020300200206002002047
:1032A0009002002001F11800FEF70AFFFD48FE49D8
:1032B000026801F11800FEF703FFFC48FC490268B0
:1032C00001F11800FEF7FCFE0320FA49087046F2EF
:1032D000A811F948FFF786F8BDE0F848F8490268F8
:1032E00001F11800FEF7ECFEF648F749026801F11B
:1032F0001800FEF7E5FEF548F549026801F11800EF
:10330000FEF7DEFEE948F349026801F11800FEF716
:10331000D7FE0120E749087046F2A811E648FFF7FA
:1033200061F898E0E548EC49026801F11800FEF701
:10333000C7FEE448E949026801F11800FEF7C0FE43
:10334000E248E349026801F11800FEF7B9FED748E8
:10335000E049026801F11800FEF7B2FE0120D549EC
:10336000087046F2A811D448FFF73CF873E0D34840
:10337000DB49026801F11800FEF7A2FED148D949E5
:10338000026801F11800FEF79BFED048D0490268A0
:1033900001F11800FEF794FEC448CE49026801F11D
:1033A0001800FEF78DFE0120C249087046F2A811F0
:1033B000C148FFF717F84EE0C048CB49026801F159
:1033C0001800FEF77DFEBF48C849026801F11800E9
:1033D000FEF776FEBD48C649026801F11800FEF707
:1033E0006FFEB048C349026801F11800FEF768FE9D
:1033F000AE48C149026801F11800FEF761FEBF48FE
:10340000BF49026801F11800FEF75AFE0320A949DE
:10341000087046F2A811A848FEF7E4FF1BE0AB488D
:10342000B849026801F11800FEF74AFE9D489E491E
:10343000026801F11800FEF743FE01209D49087063
:103440004FF22440B049086046F2A8119A48FEF7AE
:10345000C9FF00BF00BF00BF0121AC4802F081FCE2
:103460000121AB4803F026F801221146A84803F0D9
:103470003CF810BD10B50020A649087000220121BB
:10348000A34803F032F80021A14803F013F801210A
:103490009F4803F0E9FA00219C4802F062FC0022F8
:1034A0004FF480519C4802F038F810BD9B480088CA
:1034B000002801DD012070470020FCE798480088C3
:1034C00000280CDD9648008894490988401A642138
:1034D000484393490988B0FBF1F0C0B2704700201F
:1034E000FCE700B500BFFFF7E1FF0128FBD000BDFE
:1034F0002DE9F74F86B0894692460120FCF73EFF42
:1035000045F6C0516C48FEF76DFF86A1069811F094
:103510004CFD8346BBF1000F7DD0002204215846AC
:1035200011F078FC0DE0BDF910004FF48041C1EBC3
:10353000C0344FF4967094FBF0F529465E48FEF7D0
:1035400060FF5B460122022104A813F0ADFA0128B6
:10355000E9D05948FEF79DFF734908600868734930
:1035600015F0F6FB054615F073FBA9F800006E494F
:1035700008686E4915F0ECFB054615F069FB80B252
:10358000ADF80C0000220421584611F043FC45F62A
:10359000C0514948FEF726FF48485149026801F1E9
:1035A0001800FEF78DFD47484E49026801F11800EA
:1035B000FEF786FD45484649026801F11800FEF70E
:1035C0007FFD3A484349026801F11800FEF778FD93
:1035D00031E0BDF910004FF48041C1EBC034224608
:1035E0003848016835480068FEF76EFE04462146FB
:1035F0002E480068FEF721FE044621463348006845
:10360000FEF7DBFD0446204614F093FD484A494B83
:10361000CDE9000100E033E014F038FE0746002257
:10362000454B14F07FFB054614F010FD0146029057
:103630002148FEF7E6FE5B460122022104A813F0B2
:1036400033FA0128C5D01C48FEF707FF3649486009
:103650004868364915F07CFB054615F0F9FAAAF8DA
:10366000000031494868314915F072FB054615F0F4
:10367000EFFA80B2ADF80E00584611F0BDFC04E040
:103680000020A9F80000AAF800004FF4FA70A9F889
:10369000000041F2F450AAF8000003A809B0BDE808
:1036A000F08F0000FC050020F00200200006002042
:1036B000A0040020DD00002058D10020F0050020EB
:1036C00040010020F405002070010020F8050020D2
:1036D0008003002000050020A0010020D001002070
:1036E0000002002030020020E00000201001002035
:1036F00090050020C00500203005002004060020B1
:1037000060050020C0020020CC00002000380040EE
:10371000002C0140D4000020000C0140C00000201B
:10372000C20000207200000088D100200000C842C2
:10373000D122DBF97EEA344000C07240F8B506467B
:103740000120FCF71BFE46F2A811CA48FEF74AFE0C
:10375000AFF23001304611F028FC0446002C59D05D
:1037600000220421204611F055FBC348C3490268DA
:1037700001F11800FEF7A4FCC148C249026801F13A
:103780001800FEF79DFCC048C049026801F118000E
:10379000FEF796FCBE48BF49026801F11800FEF72B
:1037A0008FFC1DE0BDF900004FF48041C1EBC03536
:1037B0002A46B3480168B0480068FEF785FD054613
:1037C0002A46B3480168B0480068FEF77DFD05460B
:1037D0004FF4967095FBF0F73946A648FEF711FEB8
:1037E000234601220221684613F05EF90128D9D050
:1037F000A048FEF732FEA8490860204611F0FCFB05
:10380000A5490868A54915F0A3FA074615F020FA5E
:1038100080B2F8BD0020FCE72DE9F14F82B0012015
:10382000FCF7ACFD45F6C0519248FEF7DBFDAFF268
:103830000C11029811F0B9FB8346BBF1000F71D057
:1038400000220421584611F0E5FA46F2A8118948F1
:10385000FEF7C8FD88488949026801F11800FEF7A3
:103860002FFC87488749026801F11800FEF728FC01
:1038700085488B49026801F11800FEF721FC894850
:103880008949026801F11800FEF71AFC2EE0BDF923
:1038900004004FF48041C1EBC03A524678480168B9
:1038A00075480068FEF710FD824651467D48006865
:1038B000FEF7C3FC8246514673480068FEF77DFC64
:1038C0008246504614F035FC0646784A784B14F090
:1038D000DDFC04460022774B14F024FA804614F0F5
:1038E000B5FB014600906348FEF78BFD5B46012265
:1038F000022101A813F0D8F80128C8D05D48FEF7CE
:10390000ACFD6D494860584611F076FB6A4948683D
:10391000624915F01DFA044615F09AF980B2BDE827
:10392000FE8FFFE70020FAE72DE9F14F84B0012078
:10393000FCF724FD41F288314E48FEF753FDAFF20B
:103940001C21049811F031FB8246BAF1000F7DD0A2
:1039500000220421504611F05DFA47485749026899
:1039600001F11800FEF7ACFB45485549026801F12A
:103970001800FEF7A5FB44485249026801F11800FF
:10398000FEF79EFB42485049026801F11800FEF71D
:1039900097FB44484D49026801F11800FEF790FB7F
:1039A0004B484C49026801F11800FEF789FB40E0E2
:1039B000BDF90810BDF90A20881800EBD071491034
:1039C00009B2ADF80810BDF908004FF48041C1EB11
:1039D000C03B5A462A48016827480068FEF774FC35
:1039E00083465A462A48016827480068FEF76CFC5F
:1039F00083465A46364801682A480068FEF764FC48
:103A00008346584615F044F9009014F0A9FF064685
:103A1000314A324B14F03AFC04460022254B14F094
:103A200081F9804614F012FB014601901148FEF71F
:103A3000E8FC53460222114602A813F035F802288A
:103A4000B6D00C48FEF709FD254900E00FE04860BC
:103A5000504611F0D1FA22494868104915F078F91A
:103A6000044615F0F5F880B205B0BDE8F08F0020EF
:103A7000FAE7000058D10020F005002000020020E5
:103A8000F405002030020020F8050020200300206B
:103A9000FC0500205003002094D100200000C84203
:103AA000800300200006002000050020D122DBF961
:103AB0007EEA344000C07240A0D10020E000002027
:103AC0001001002090050020C005002030050020D6
:103AD000040600206005002085EB51B81EB978402F
:103AE000ACD1002010B54FF40061A34801F0F7FC01
:103AF00030B9A248007840F00100A049087005E004
:103B00009E48007820F001009C4908704FF48071B5
:103B10009B4801F0E4FC30B99848007840F002007E
:103B20009649087005E09548007820F00200934916
:103B300008700121904801F0D2FC30B98F4800781C
:103B400040F004008D49087005E08C48007820F0B2
:103B500004008A4908704FF48061874801F0BFFC77
:103B600030B98648007840F008008449087005E0C4
:103B70008248007820F008008049087002217E48C1
:103B800001F0ADFC30B97D48007840F010007B4971
:103B9000087005E07948007820F010007749087037
:103BA000764800787749097888427DD07648007851
:103BB000002879D17348007800F0010050B96F48AF
:103BC000007800F0010028B17048006840F0010062
:103BD0006E4908606B48007800F0020002280BD0A4
:103BE0006648007800F00200022805D167480068A6
:103BF00040F00200654908606248007800F0040067
:103C000004280BD05D48007800F00400042805D19A
:103C10005E48006840F004005C490860594800783C
:103C200000F0080008280BD05448007800F0080085
:103C3000082805D15548006840F00800534908603D
:103C40005048007800F0100010280BD04B48007846
:103C500000F01000102805D14C48006840F010001A
:103C60004A4908604748007800F0010050B14348D5
:103C7000007800F0010028B94448006840F02000B6
:103C8000424908603F48007800F0020002280DD148
:103C90003A48007800F00200022807D03B4800684C
:103CA00040F04000394900E03DE0086035480078C8
:103CB00000F0040004280BD13048007800F0040024
:103CC000042805D03148006840F080002F49086082
:103CD0002C48007800F0080008280BD1274800780D
:103CE00000F00800082805D02848006840F48070DB
:103CF000264908602348007800F0100010280BD1F6
:103D00001E48007800F01000102805D01F480068F9
:103D100040F400701D49086018480078194908707F
:103D20001E201949087018480078002804DD16483C
:103D30000078401E1449087010BD01461348006801
:103D4000084030B1114800688843104A10600020D4
:103D500070470120FCE70D49096881430B4A116057
:103D600070470146054800780840002801DD002022
:103D700070470120FCE70000000C0140080600200D
:103D80000010014009060020100600200C0600204B
:103D900070B50446202C01D3002070BDA74800EB6D
:103DA000C400807902282ED100F0A6F91CB90120A8
:103DB00000F050FAF1E7012C0ED1032000F04AFA8E
:103DC0000546022000F046FA00EBC00101EB0010AE
:103DD00005EB800080B2E0E7022C0ED1052000F058
:103DE00039FA0546042000F035FA00EBC00101EB7A
:103DF000001005EB800080B2CFE7032C03D1062032
:103E000000F028FAC9E70D2C02D140F26910C4E78E
:103E10008B4830F81400C0E773B50446202C01D35A
:103E200000207CBD854800EBC4004088BDF804102C
:103E3000884204DA814800EBC400408801907F4842
:103E400030F83400BDF80410884203DD7B4830F8B8
:103E500034000190794800EBC4008079012812D128
:103E6000022000EB4401034601AA012010F0D5FD19
:103E7000734800EB4402022000EB4401034601209A
:103E800010F0A4FD50E06D4800EBC40080790228DA
:103E900045D100F031F924B9BDF80410012000F03B
:103EA0008BF9012C15D1BDF80400642190FBF1F0D1
:103EB00085B22946022000F07FF9BDF80400642194
:103EC00090FBF1F201FB120085B22946032000F0BD
:103ED00073F9022C19D1BDF80400642190FBF1F0B4
:103EE00085B22946042000F067F9BDF8040064217A
:103EF00090FBF1F201FB120085B22946052000F08B
:103F00005BF90021062000F057F9032C04D1BDF81D
:103F10000410062000F050F900F0FCF804E0BDF8B1
:103F20000410474820F81410454830F81400BDF834
:103F30000410884201D0002073E7012071E70020BF
:103F400007E03E4901EBC0018A883D4921F8102075
:103F5000401C2028F5D37047F8B5012600243CE02A
:103F6000364800EBC4008079012835D1022000EBEF
:103F70004405334800EB440202232946012010F097
:103F800025FD2F4830F814002C4901EBC401498865
:103F9000884207DC2A4830F81400284931F83410E8
:103FA000884219DA254800EBC400021D0223294685
:103FB000012010F032FD02236A462946012010F04C
:103FC00005FD1E4800EBC4008088BDF80010884243
:103FD00001D0002600E00126641C202CC0D330460E
:103FE000F8BD10B5FFF7ABFF0223154A921E002162
:103FF000012010F0EBFC1248801E0088B0F5D35F62
:1040000019D04FF4D3500E49891E088042230A4626
:104010000021012010F001FD0223094A921E002117
:10402000012010F0D3FC0648801E0088B0F5D35F55
:1040300001D0002010BDFFF78FFFFBE73A90020888
:10404000BAD1002010B500209B4908604860886004
:104050000120C8600020086146204861084611F030
:1040600010FA044601F06AFD204601F034FD01F02B
:1040700065FD10BD10B501214FF0C05000F013FFD9
:104080008E48FCF776F9012002F05FFD042002F073
:1040900024FD4AF6AA21884228D002F0E9FC01203A
:1040A00000F061FE00BF412000F0C5FD0028FAD0FD
:1040B0004FF4807000F073FE012000F076FE01F0F6
:1040C00046FD01F03BFD0121084601F0DBFC47F60F
:1040D000FF7001F00DFD01F031FDFFF7B3FF4AF66F
:1040E000AA21042002F0EDFC002010BD01F02FFDFC
:1040F00001F024FD0120F8E738B501F0E3FC009061
:10410000684611F099F904462C2221466A4811F0BC
:10411000A5F838BD10B5684811F0B3F9044601F0B0
:104120000DFD204601F0D7FC01F008FDFFF7E4FF8C
:1041300010BD40F26C71884204DBA0F26C715E4AE3
:10414000516103E040F26C715B4A516170470C2889
:1041500001DD0C2002E0012800DA0120411E564A50
:10416000116170471F2803DD1F21534AD16007E00A
:10417000012803DA0121504AD16001E04E49C860AC
:104180007047172803DD17214B4A916001E04A4927
:10419000886070473B2803DD3B21474A516001E0BE
:1041A0004549486070473B2803DD3B21424A116086
:1041B00001E0414908607047072848D2DFE800F075
:1041C0004704121D2C353E0040F26C72914204DB14
:1041D000A1F26C72384B5A6103E040F26C72364BBC
:1041E0005A6135E00C2901DD0C2102E0012900DAD9
:1041F00001214A1E304B1A612AE01F2903DD1F22CC
:104200002D4BDA6007E0012903DA01222A4BDA603C
:1042100001E0294AD1601BE0172903DD1722264B54
:104220009A6001E0244A916012E03B2903DD3B22C1
:10423000214B5A6001E0204A516009E03B2903DD2F
:104240003B221D4B1A6001E01B4A116000E000BFD9
:1042500000BF70470146072920D2DFE801F01F04A4
:104260000A0F13171B001448808A00F26C7080B28A
:1042700070471148008A401C80B2F9E70E488089D7
:1042800080B2F5E70C48008980B2F1E70A488088DF
:1042900080B2EDE70848008880B2E9E70020E7E750
:1042A00010B5012001F065FC012803D101F06CFC80
:1042B000012010BD0020FCE7FCD10020400D0300D0
:1042C000FD48806940F00100FB498861084680692B
:1042D00040F004008861F948006840F44030F74934
:1042E00008600846006820F4402008601020F34968
:1042F00010310860F148006840F44010EF49086050
:104300000846006820F4400008600846006840F451
:10431000000008600846006820F040700860084609
:10432000006820F0406008600846006840F00060C7
:1043300008604020E14910310860E048006840F022
:104340004050DE4908600846006820F040400860A0
:104350000846006840F000400860D748806940F493
:104360008050D54988610020D54988800420088084
:104370000846008840F0100008800846008840F495
:10438000807008800846008840F400700880084665
:10439000008840F0400008807047014600BFC848D0
:1043A000008900F002000028F9D0C548818100BFD3
:1043B000C348008900F001000028F9D0C048808976
:1043C000C0B2704770B502460B460026BD48007863
:1043D00020B9112A01D0182A00D15B024FF48010B5
:1043E000B6491031086042F04000FFF7D6FF180EC2
:1043F000FFF7D3FFC3F30740FFF7CFFFC3F3072057
:10440000FFF7CBFFD8B2FFF7C8FF082A03D18720F8
:10441000FFF7C3FF02E09520FFF7BFFF05E030463E
:10442000711CCEB2FE2800DD05E0FF20FFF7B5FFCE
:104430000446FF28F3D000BFC4B93A2A16D1FF20A2
:10444000FFF7ABFF054605F0400018B101209D497C
:10445000087002E000209B490870FF20FFF79DFFD5
:10446000FF20FFF79AFFFF20FFF797FFFF20FFF7DE
:1044700094FF1020914910310860204670BDF0B5BE
:1044800002270024FFF71CFF10208C491031086020
:10449000002504E0FF20FFF780FF681CC5B20A2D4D
:1044A000F8DB4FF4801085491031086006E02046A3
:1044B000611C8CB2202801DD0220F0BD00210846DD
:1044C000FFF780FF0128F2D110207C4910310860ED
:1044D000FF20FFF762FFFF20FFF75FFF002406E0E9
:1044E0002046611C8CB2FE2801DD012706E04FF456
:1044F000D5710820FFF766FF0128F1D100BF002425
:1045000000BF00213720FFF75DFF06464FF08041D6
:104510002920FFF757FF0646601C84B240F6FE7064
:10452000844201DD0120C8E7002EEAD100240020EA
:1045300064490870022F0DD105E02046611C8CB241
:10454000FE2800DD05E000213A20FFF73BFF0028B0
:10455000F3D100BF0020B0E701F080007047704742
:1045600070477047704770472DE9F04107460C4689
:104570004FF0000839461820FFF724FF08B1BDE8C6
:10458000F0814FF480104D4910310860FE20FFF794
:1045900004FF002605E014F8010BFFF7FEFE701C77
:1045A00086B2B6F5007FF6DBFF20FFF7F6FEFF20B0
:1045B000FFF7F3FEFF20FFF7F0FE054605F01F00B2
:1045C000052804D010203D4910310860D7E70CE0E1
:1045D0004046411C1FFA81F84FF6FE71884204DD07
:1045E0001020364910310860C9E7FF20FFF7D5FEDB
:1045F0000028EDD01020314910310860FF20FFF76E
:10460000CCFE4FF480102D49103108600CE040467C
:10461000411C1FFA81F84FF6FE71884204DD10201C
:10462000264910310860AAE7FF20FFF7B6FE0028F0
:10463000EDD0102021491031086000BF9FE770B510
:1046400006460C46002531461120FFF7BBFE00B19F
:1046500070BD4FF480101949103108600BE02846F6
:10466000691C8DB24FF6FE71884204DD102013499B
:1046700010310860ECE7FF20FFF78FFEFE28EED137
:10468000002506E0FF20FFF788FE04F8010B681CF8
:1046900085B2B5F5007FF5DBFF20FFF77EFEFF203A
:1046A000FFF77BFEFF20FFF778FE10200349103153
:1046B000086000BFCCE70000001002400008014085
:1046C00000300140140600202DE9F04107460C4659
:1046D00016461D4614493846FFF7B1FF6019B0F57C
:1046E000007F05DC104801192A46304610F071FDA4
:1046F000BDE8F0812DE9F04107460C4616461D46FF
:1047000009493846FFF79BFF6019B0F5007F05DCCB
:10471000054908192A46314610F05BFD0249384622
:10472000FFF722FFBDE8F08128D2002000B585B058
:1047300000207D4908607DA17DA010F036FC7A49FB
:10474000086008460068E0B16A467CA176480068C7
:1047500010F0D6FA7448006810F04EFC73A1684659
:1047600010F023FC704908600846006830B1084624
:10477000006810F041FC002005B000BD4FF0FF3094
:10478000FAE74FF0FF30F7E710B56748006818B157
:104790006548006810F030FC10BD70B586B0054665
:1047A0000C4661480068B0B960A161A010F0FDFB43
:1047B0005D49086001AA61A15B48006810F0A0FA99
:1047C0005948006810F018FC58A101A810F0EDFB42
:1047D0005549086019E05448006810F00DFC53A1D9
:1047E00053A010F0E2FB5049086001AA53A14E48C3
:1047F000006810F085FA4C48006810F0FDFB4BA1F2
:1048000001A810F0D2FB484908601CB94FF0FF30F6
:1048100006B070BD601E010100224348006810F020
:10482000F9FA4148102201210368284612F03CF9A8
:10483000C6B2102E0ED1287830B91021284610F0BB
:1048400047FD4FF0FF30E3E73748006810F0D4FB36
:104850000020DDE74FF0FF30DAE730B5ADF27C6DD8
:104860000024002572B671B6012235A168460DF00C
:10487000EDFD0A2233A10DF58B600DF012FE34A27E
:104880002EA10DF58B600FF0CEFA0DF58B61002097
:104890000FF084FA02F0B7F901240CE0234630A2AD
:1048A00031A10DF58B600FF0BEFAE0B20DF58B6112
:1048B0000FF074FA641CB4F5FA7FEFDBDDF8645492
:1048C0000DF58B600EF0BDF802F09DF9212201215B
:1048D0001CA00EF0CEFC0A2227A10DF58B600DF076
:1048E000E0FD28A215A10DF58B600FF09CFA0DF5E7
:1048F0008B600EF0A6F80A2224A18DA80DF0D1FD40
:1049000020A20EA18DA80FF08EFA8DA80EF099F8B6
:1049100000220BA110460DF099FD62B661B6284643
:104920000DF27C6D30BD0000180600207200000002
:10493000526F61642E6C6F670000000025730000E9
:10494000303A0000303A526F61642E3000000000AF
:10495000E1E5E720ECE0F0F8F0F3F2E020202000C1
:10496000F2EEF7EAE00000002573202530337520D1
:104970002020202020000000303A526F61642E6C0D
:104980006F670000526F61642E300000303A526F42
:104990006164732E747874000CB50020019000904F
:1049A0004848006840F480304649086000BF4548E8
:1049B000006800F4003000900198401C01900098BD
:1049C00018B90198B0F5A06FF1D13E48006800F425
:1049D000003010B10120009001E00020009000980C
:1049E000012844D13848006840F01000364908607A
:1049F0000846006820F0030008600846006840F0A0
:104A0000020008602F4840682E4948600846406808
:104A100048600846406840F4806048600846406846
:104A200020F47C1048600846406840F4E810486074
:104A30000846006840F08070086000BF21480068A8
:104A400000F000700028F9D01E48406820F00300F4
:104A50001C4948600846406840F00200486000BFBA
:104A60001848406800F00C000828F9D101E000BFA8
:104A7000FEE70CBD10B5FFF78FFF10BD10B5114854
:104A8000006840F001000F490860084640680F497F
:104A900008400C494860084600680D49084009492B
:104AA00008600846006820F48020086008464068D6
:104AB00020F4FE0048604FF41F008860FFF7DAFF23
:104AC00010BD000000100240002002400000FFF86E
:104AD000FFFFF6FE31490143314A1160704770B55E
:104AE000002100230F22C47804B32D4C246804F461
:104AF000E064C4F5E064210AC1F10403CA404478CB
:104B000004FA03F18478144021430901254C067806
:104B1000A155047804F01F050124AC4005786D11FF
:104B2000AD0005F1E025C5F8004109E0047804F086
:104B30001F050124AC401C4D0678761145F826402F
:104B400070BD1A4A0A400243154B1B1F1A6070477A
:104B500039B1134A121D12680243114B1B1D1A6012
:104B600006E00F4A121D126882430D4B1B1D1A608E
:104B70007047042808D14FF0E021096941F0040191
:104B80004FF0E022116107E04FF0E021096921F0C8
:104B900004014FF0E0221161704700000000FA05A7
:104BA0000CED00E000E400E080E100E080FFFF1F8A
:104BB000DF48006840F00100DD49086008464068B1
:104BC000DC490840DA49486008460068DA4908408C
:104BD000D74908600846006820F48020086008462D
:104BE000406820F4FE0048604FF41F008860704762
:104BF000CF49096821F48031CD4A11601146096816
:104C000021F480211160B0F5803F03D0B0F5802FF2
:104C10000ED106E0C649096841F48031C44A1160EA
:104C200007E0C349096841F4A021C14A116000E0CE
:104C300000BF00BF704710B50146002200230020CE
:104C40004A11012A02D1BA4C236806E0022A02D195
:104C5000B74C236A01E0B64C636A01F01F020124DD
:104C600094401C400CB1012000E0002010BD38B57C
:104C7000002000900024002500BF3120FFF7DBFF5B
:104C800005460098401C00900098B0F5A06F01D038
:104C9000002DF2D03120FFF7CEFF08B1012400E053
:104CA0000024204638BD01460020A14A106820F0AB
:104CB000F80040EAC10010607047A04908607047E2
:104CC000024600209A4B586820F47C1042EA010307
:104CD0001843974B586070479849086670470146DB
:104CE0000020934A506820F003000843506070474A
:104CF0008F48406800F00C007047014600208C4A45
:104D0000506820F0F00008435060704701460020D2
:104D1000874A506820F4E0600843506070470146BD
:104D20000020834A506820F4605040EAC10050607F
:104D3000704729B17E4A527A02437D4B5A7204E091
:104D40007B4A527A82437A4B5A7270477B49D831F8
:104D50000860704701460020754A506820F44040C2
:104D60000843506070470021714A20321170704A28
:104D700082F82010012802D004280AD104E0012181
:104D80006B4A2032117005E00521694A203211700A
:104D900000E000BF00BF7047694908607047644980
:104DA000096A0143624A11627047654944390860E3
:104DB000704730B500210022002400235C4D6D684F
:104DC00005F00C0121B1042905D0082923D105E003
:104DD0005C4D056022E05B4D05601FE0544D6D6841
:104DE00005F47012524D6D6805F48034022505EB10
:104DF00092421CB9544D554305600BE04C4D6D6813
:104E000005F400351DB1504D5543056002E04D4D90
:104E10005543056002E04B4D056000BF00BF444DA7
:104E20006D6805F0F0010909484D6B5C0568DD40CF
:104E300045603F4D6D6805F4E061090A434D6B5CC8
:104E40004568DD4085603A4D6D6805F46051C90ADA
:104E50003E4D6B5C4568DD40C560354D6D6805F4C1
:104E60004041890B3A4D6B5CC568B5FBF3F50561B4
:104E700030BD29B12E4A526902432D4B5A6104E0DC
:104E80002B4A526982432A4B5A61704729B1284AFA
:104E900092690243264B9A6104E0254A9269824353
:104EA000234B9A61704729B1214AD2690243204BB2
:104EB000DA6104E01E4AD26982431D4BDA61704711
:104EC00029B11B4AD2680243194BDA6004E0184A40
:104ED000D2688243164BDA60704729B1144A1269CE
:104EE0000243134B1A6104E0114A12698243104BCA
:104EF0001A61704712494039086070470F49C86409
:104F000070470B49C87170470948406A40F080708B
:104F100007494862704701460020054A92680A40E6
:104F20000AB1012000E000207047014988727047F3
:104F3000001002400000FFF8FFFFF6FE00004242B2
:104F40008004424200127A0000093D001C06002045
:104F50002C06002010B50446E248844209D1012104
:104F60008803FFF7ADFF00214FF48040FFF7A8FF53
:104F700032E0DD48844209D101214804FFF7ADFF4A
:104F800000214FF40030FFF7A8FF25E0D748844206
:104F900009D101218804FFF7A0FF00214FF48020F0
:104FA000FFF79BFF18E0D248844209D10121C804D1
:104FB000FFF793FF00214FF40020FFF78EFF0BE077
:104FC000CC48844208D101210805FFF786FF002163
:104FD0004FF48010FFF781FF10BD2DE9F04786B038
:104FE00005460E460024A24600BF00BF0027B08938
:104FF00000B100BF2F462C8A4CF6FF700440F088A9
:1050000004432C82AC894EF6F3100440B0883189F9
:105010000843718908430443AC81AC8A4FF6FF40D2
:105020000440B0890443AC8201A8FFF7C2FEAD483A
:10503000874202D1DDF810A001E0DDF80CA00AEBF8
:10504000CA0000EB0A1031688900B0FBF1F8642057
:10505000B8FBF0F004012009642101FB1089322023
:1050600000EB0910B0FBF1F000F00F0004432C81BD
:1050700006B0BDE8F0874FF4165101600021818031
:10508000C18001810C21418100218181704710B5CF
:1050900002460020108A4FF2FF0318400B884C880C
:1050A00023438C882343CC8823431843108210BDAC
:1050B0000021018041808180C180704721B18289B7
:1050C00042F40052828104E082894DF6FF731A4057
:1050D00082817047F0B50346002400260025002099
:1050E00040F66A17B94200D100BF1846C1F3421416
:1050F00001F01F06012707FA06F5012C01D10C303B
:1051000004E0022C01D1103000E014301AB107681D
:105110002F43076002E00768AF430760F0BD1AB194
:10512000838A0B43838202E0838A8B4383827047A6
:10513000028A4FF6F0731A400282028A0A43028200
:10514000704782894FF2FF731A40828182890A4335
:105150008281704721B1828942F00202828104E09B
:1051600082894FF6FD731A4082817047028A4FF69A
:10517000DF731A400282028A0A430282704721B119
:10518000028A42F48042028204E0028A4BF6FF73F4
:105190001A4002827047C1F30802828070470146BC
:1051A0008888C0F308007047818941F0010181813E
:1051B0007047028BD2B20283028B42EA0122028341
:1051C0007047028B02F47F420283028B0A43028300
:1051D000704721B1828A42F02002828204E0828AF2
:1051E0004FF6DF731A408282704721B1828A42F003
:1051F0001002828204E0828A4FF6EF731A408282A4
:10520000704721B1828A42F00802828204E0828AD9
:105210004FF6F7731A4082827047828A4FF6FB730B
:105220001A408282828A0A438282704721B1828A2E
:1052300042F00202828204E0828A4FF6FD731A4035
:105240008282704702460020B1F5007F00D100BF86
:1052500013880B400BB1012000E00020704701F4DF
:105260000072B2F5007F00D100BFCA4302807047D0
:1052700070B50246002400230025002040F66A167F
:10528000B14200D100BFC1F3421501F01F03012656
:1052900006FA03F3012D02D19689334006E0022D70
:1052A00002D1168A334001E0968A33400C1201265F
:1052B00006FA04F41688344013B10CB1012000E062
:1052C000002070BD10B50022002340F66A14A142F0
:1052D00000D100BF0A1201249440A3B2DC43048031
:1052E00010BD00000038014000440040004800406C
:1052F000004C00400050004010B50446C4488442B1
:1053000008D101210420FFF7DBFD00210420FFF775
:10531000D7FD46E0BF48844208D101210820FFF7AD
:10532000CFFD00210820FFF7CBFD3AE0BA488442C8
:1053300008D101211020FFF7C3FD00211020FFF745
:10534000BFFD2EE0B548844208D101212020FFF79F
:10535000B7FD00212020FFF7B3FD22E0B0488442D2
:1053600008D101214020FFF7ABFD00214020FFF7CD
:10537000A7FD16E0AB48844208D101218020FFF749
:105380009FFD00218020FFF79BFD0AE0A648844294
:1053900007D101218015FFF793FD0021A015FFF72C
:1053A0008FFD10BD10B501210846FFF789FD0021D2
:1053B0000120FFF785FD10BD2DE9F04102460025D3
:1053C0000026002000230024002791F803C00CF0E1
:1053D0000F0591F803C00CF0100CBCF1000F03D0C6
:1053E00091F802C04CEA050591F800C0BCF1000F2D
:1053F00031D0146800202BE04FF0010C0CFA00F3C0
:10540000B1F800C00CEA03069E4220D183004FF0A1
:105410000F0C0CFA03F7BC4305FA03FC4CEA040436
:1054200091F803C0BCF1280F06D14FF0010C0CFA23
:1054300000FCC2F814C00AE091F803C0BCF1480FA8
:1054400005D14FF0010C0CFA00FCC2F810C0401C52
:105450000828D1D31460B1F800C0BCF1FF0F34DDCF
:10546000546800202EE000F1080C4FF0010808FA03
:105470000CF3B1F800C00CEA03069E4221D1830070
:105480004FF00F0C0CFA03F7BC4305FA03FC4CEA8F
:10549000040491F803C0BCF1280F05D100F1080CF9
:1054A00008FA0CF8C2F8148091F803C0BCF1480F58
:1054B00007D100F1080C4FF0010808FA0CF8C2F807
:1054C0001080401C0828CED35460BDE8F0814FF610
:1054D000FF710180022181700421C1707047024672
:1054E000002093680B400BB1012000E000207047C2
:1054F0000146886880B2704702460020D3680B409E
:105500000BB1012000E0002070470146C86880B25E
:10551000704701617047416170470AB1016100E065
:1055200041617047C16070474FF480320A43826125
:1055300081618261826982697047024600203B4B2B
:1055400018684FF68073184040EA02100843374B42
:10555000186070473649C8617047F0B50A460023A5
:10556000002400210025314E7168C0F3034583B249
:1055700000F44016B6F5401F08D121F070612B4EA3
:10558000766826F07066294F7E6012E000F480167F
:10559000B6F5801F06D1032606FA05F4A14341F0B3
:1055A000706106E0460D360103FA06F6B14341F09C
:1055B000706122B1460D360103FA06F631431B4EE7
:1055C0007160F0BD30B500228B071C0F0F2303FA6A
:1055D00004F2164B08338C1053F824309343134CC9
:1055E00008348D1044F8253023468C1053F82430AD
:1055F0008C07240F00FA04F423430C4C08348D105C
:1056000044F8253030BD0A49DC310860704700009D
:1056100000080140000C014000100140001401404E
:1056200000180140001C0140002001400000014022
:105630000000204210B50446FA48844208D10121F6
:105640004015FFF73DFC00216015FFF739FC17E01E
:10565000F548844208D101210015FFF731FC0021F3
:105660002015FFF72DFC0BE0F048844208D1012102
:10567000C803FFF725FC00214FF40040FFF720FC92
:1056800010BD30B50246002000235068E84C204091
:105690000D790C6844EA0524204350609068E54C7D
:1056A0002040D1E902542C434D7944EA450420437B
:1056B0009060D06A20F470000C7C641EE4B2234336
:1056C00040EA0350D06230BD002101600171417198
:1056D0008160C16001210174704721B1826842F08C
:1056E0000102826003E0826822F00102826070475A
:1056F00021B1826842F48072826003E0826822F401
:1057000080728260704710B50023CBB21AB1446832
:105710001C43446002E044689C43446010BD8168BF
:1057200041F0080181607047014600208A6802F05C
:1057300008020AB1012000E000207047816841F0B2
:10574000040181607047014600208A6802F004026B
:105750000AB1012000E00020704721B1826842F4C4
:10576000A002826003E0826822F4A0028260704797
:10577000014600208A6802F480020AB1012000E09C
:105780000020704710B50A4600210023416821F42B
:105790006041531E41EA4331416010BD21B142686E
:1057A00042F40062426003E0426822F40062426018
:1057B0007047F0B504460D4600200021092D11DD8B
:1057C000E068A5F10A0606EB4607072606FA07F188
:1057D0008843A5F10A0606EB460603FA06F10843DC
:1057E000E0600CE0206905EB4507072606FA07F1A3
:1057F000884305EB450603FA06F108432061072AB2
:105800000FDA606B561E06EB86071F2606FA07F1B5
:105810008843561E06EB860605FA06F108436063C8
:1058200022E00D2A0FDA206BD61F06EB86071F2613
:1058300006FA07F18843D61F06EB860605FA06F13D
:105840000843206310E0E06AA2F10D0606EB86072C
:105850001F2606FA07F18843A2F10D0606EB86061D
:1058600005FA06F10843E062F0BD21B1826842F416
:105870008012826003E0826822F4801282607047A6
:105880000146C86C80B2704766484C30006870476B
:1058900021B1426842F48062426003E0426822F42F
:1058A00080624260704721B1426842F48052426097
:1058B00003E0426822F48052426070470A460021A9
:1058C000816821F4E04111438160704721B1826811
:1058D00042F40042826003E0826822F40042826067
:1058E000704721B1826842F40212826003E082684C
:1058F00022F4021282607047014600208A6802F496
:1059000000120AB1012000E000207047F0B5044603
:105910001546002000220026092911DDE068A1F1CA
:105920000A0707EB470C072707FA0CF29043A1F18F
:105930000A0707EB470703FA07F21043E0600CE0A1
:10594000206901EB410C072707FA0CF2904301EBA9
:10595000410703FA07F210432061A06BC0F3015620
:10596000EF1C06F1010CA7EB0C0707EB870C1F27B8
:1059700007FA0CF29043EF1C06F1010CA7EB0C07A1
:1059800007EB870701FA07F21043A063F0BD10B5DB
:105990000A4600210023816B21F44011531E41EA85
:1059A0000351816310BD08B5002300930090009B54
:1059B0000B440093009B1A6008BD08B50246002006
:1059C0000090009201F12800009B1844009000987C
:1059D000006880B208BD0A4600214168164B194094
:1059E0001143416070474162826270470A4600215C
:1059F000416821F01F0111434160704740B10949DE
:105A00000831096841F40001064A0832116007E0D4
:105A100004490831096821F40001024A0832116082
:105A2000704700000024014000280140003C014074
:105A3000FFFEF0FFFDF7F1FFFFFD3FFF02460020F4
:105A400013680B400BB1012000E000207047CA43EF
:105A50000260704770B502460020002300240B123C
:105A60005568CEB205EA060415681D4015B10CB1A3
:105A7000012000E0002070BD00220A12D343036021
:105A80007047000029B1504A128802434E4B1A80D9
:105A900004E04D4A128882434B4B1A8070474A48B3
:105AA000001D008840F010004749091D088070471C
:105AB0004548001D00884FF6EF7108404249091D16
:105AC00008807047002140481C300188001F008872
:105AD00041EA0040704700B50246FFF7E0FF100CB6
