:020000040801F1
:10000000C8EE0020C9690108251B0108271B01084B
:100010002B1B01082F1B0108331B010800000000E7
:10002000000000000000000000000000371B010875
:10003000391B0108000000003B1B01083D1B0108A3
:10004000DF690108DF690108DF690108DF6901086C
:10005000DF690108DF690108DF690108DF6901085C
:10006000DF690108DF690108DF690108DF6901084C
:10007000DF690108DF690108DF690108DF6901083C
:10008000DF690108DF690108DF690108DF6901082C
:1000900049770108DF690108DF69010835080108AF
:1000A000DF69010829290108DF690108DF69010802
:1000B000DF690108DF690108DF690108DF690108FC
:1000C000DF690108DF690108DF690108DF690108EC
:1000D000DF690108DF690108451B0108DF690108C4
:1000E000DF690108DF690108DF69010800F002F833
:1000F00000F085F80AA090E8000C82448344AAF13D
:100100000107DA4501D100F07AF8AFF2090EBAE83A
:100110000F0013F0010F18BFFB1A43F0010318473B
:100120008CE40100ACE4010010F8013B0A4413F038
:10013000030408BF10F8014B1D1108BF10F8015B44
:10014000641E05D010F8016B641E01F8016BF9D133
:10015000002D15D010F8014B03F00C030C2BA1EB74
:1001600004040ABF10F8013BA4EB8314A4EB03249E
:1001700005F1010314F8016B5B1E01F8016BF9D561
:10018000914238BF10F8013BD1D3704700230024BF
:1001900000250026103A28BF78C1FBD8520728BF97
:1001A00030C148BF0B607047662918F0FA85642992
:1001B00014F08483752914F08183632915F0C383B7
:1001C000732915F0C883002070471FB59DE8030010
:1001D00015F028FD15F00AFD04000020002117F09D
:1001E0005BFB401C60600020002117F03FFBE060DB
:1001F00015F0EAFF1FBD10B516F04FF810BD16F050
:100200007FF81146FFF7E1FF01F044FA16F0AAFB70
:1002100003B4FFF7F0FF03BC07F0C8FBEFF309805E
:10022000704780F309887047EFF30880704780F3C8
:100230000888704740BA7047C0BA704710B50028A8
:1002400007DA0A07140EFE4A00F00F031B1FD454EE
:1002500003E00A07130EFB4A135410BD10B5044601
:10026000B4F1807F01D3012010BD24F07F40401EF7
:100270004FF0E02148610F214FF0FF30FFF7DEFF24
:1002800000204FF0E0218861072008610020EBE7A3
:1002900010B506F082FBEC480068401CEA49086093
:1002A0000CF02FFD03F0DEFAE8480068052802D1C3
:1002B0000020E6490860E6480068401EE4490860FE
:1002C000E448008838B94FF47A70E2490880012088
:1002D000E149087004E0DF480088401EDD490880DD
:1002E000DE480068B0F57A7F0DD10020DB49086058
:1002F000DB480068401CDA490860DA480068401CA6
:10030000D849086004E0D5480068401CD34908601B
:10031000D34800681E2802D10020D1490860D14886
:100320000068D149884202D10020CE490860C74800
:100330000068401CC5490860CC4800680A2805D1FF
:1003400014F09BF90020C949086004E0C748006820
:10035000401CC649086010BDC548806940F01000C7
:10036000C3498861C348406840F48030C14948604F
:10037000704700E0401E0028FCDC704710B50446C2
:10038000C4B1BB48406800F00C00082824D0B8482D
:10039000406820F00300B64948600846406840F0D5
:1003A0000200486000BFB248406800F00C00082816
:1003B000F9D111E0AE48406800F00C0060B1AC48E3
:1003C000406820F00300AA49486000BFA848406880
:1003D00000F00C000028F9D11CB1A748FFF73EFF40
:1003E00003E04FF4FA50FFF739FF10BD08B50121C3
:1003F000052004F015FC0120ADF8000010208DF858
:10040000030003208DF8020069469C4804F09EFE1C
:100410000220ADF8000000208DF8030069469748DF
:1004200004F094FE0420ADF8000028208DF80300AD
:100430006946924804F08AFE0820ADF800000020CA
:100440008DF8030069468D4804F080FE1020ADF859
:1004500000008DF8030003208DF80200102187486A
:1004600004F021FF6946854804F070FEE020ADF8F5
:10047000000018208DF8030003208DF802002021D1
:100480007E4804F010FF80217C4804F00CFF694690
:100490007A4804F05BFE4FF48070ADF8000048200D
:1004A0008DF803006946754804F050FE01210920CB
:1004B00004F0B6FB0120ADF8000048208DF80300E1
:1004C00069466F4804F042FE0220ADF80000482063
:1004D0008DF8030069466A4804F038FE2020ADF824
:1004E000000010208DF8030003208DF80200202169
:1004F000634804F0D8FE6946614804F027FE4020B6
:10050000ADF8000010208DF8030003208DF80200E4
:10051000002240215A4804F0CAFE6946584804F0B7
:1005200015FE8020ADF8000010208DF80300032098
:100530008DF802008021524804F0B5FE694650480B
:1005400004F004FE4FF48070ADF8000010208DF828
:10055000030003208DF802004FF48071484804F036
:10056000A2FE6946464804F0F1FD4FF40070ADF874
:10057000000010208DF8030003208DF802004FF4D6
:1005800000713F4804F08FFE69463D4804F0DEFDEF
:100590004FF48060ADF8000048208DF803006946F4
:1005A000374804F0D3FD4FF40060ADF80000482058
:1005B0008DF803006946324804F0C8FD4FF48050BE
:1005C000ADF8000010208DF8030003208DF8020024
:1005D00000224FF480512A4804F069FE69462848F9
:1005E00004F0B4FD4FF40050ADF8000018208DF871
:1005F000030003208DF8020000224FF40051204830
:1006000004F055FE69461E4804F0A0FD4FF48040FA
:10061000ADF8000018208DF803006946184804F072
:1006200095FD4FF40040ADF8000048208DF8030020
:100630006946134804F08AFD0121112022E00000E0
:1006400018ED00E000E400E0040000204400002079
:10065000080000201E00002022000020380000209A
:100660003C00002040000020A0BB0D0048000020FE
:100670000010024000100140401901000008014034
:10068000000C014004F0CCFAFF20ADF8000010206F
:100690008DF8030003208DF80200FF21FB4804F0D1
:1006A00002FE6946F94804F051FD4FF48070ADF840
:1006B000000048208DF803006946F44804F046FD28
:1006C0004FF48060ADF8000010208DF80300032087
:1006D0008DF8020000224FF48061EC4804F0E7FD41
:1006E0006946EA4804F032FD4FF40060ADF80000BE
:1006F00014208DF8030003208DF802004FF40061F0
:10070000E24804F0D0FD6946E04804F01FFD4FF4D4
:100710004050ADF8000010208DF8030003208DF844
:1007200002004FF48051D94804F0BFFD4FF400514E
:10073000D64804F0BAFD6946D44804F007FD01210B
:10074000212004F06DFA0420ADF8000010208DF88F
:10075000030003208DF8020000220421CC4804F09D
:10076000A6FD6946CA4804F0F1FC4FF40070ADF8EC
:10077000000010208DF8030003208DF802004FF4D4
:100780000071C24804F08FFD6946C04804F0DEFCE9
:100790004CF25030FFF7EDFD4FF48060ADF80000F3
:1007A00010208DF8030003208DF802004FF48061C3
:1007B000B64804F078FD6946B44804F0C7FC4FF42D
:1007C0000070ADF8000004208DF803006946B148C0
:1007D00004F0BCFCB048806940F00100AE4988617B
:1007E000AE488068AD498860084680688860AC483B
:1007F000006840F40070AA490860A9480C380068F5
:1008000040F40070A6490C3908600F211720FFF74B
:1008100015FD1720012181404209920002F1E022DA
:10082000C2F8001100BF08BD10B50BF099F90BF02C
:100830007BF910BD10B50421964804F01AFD10B9DB
:100840009848007840B196480830006840F00200AF
:1008500093490831086020E003F05EFE0120FFF7B5
:100860008DFDFFF7E1FF002401E000BF641C8E480E
:100870008442FAD30122D102844804F018FD4FF4D7
:100880008061824804F011FD4FF400717F4804F04C
:100890000CFD01E006F081F8FCE710BD08B526204C
:1008A0008DF8000000208DF8020001208DF8030073
:1008B000684603F0DEFF08BD02461004B0FBF1F00D
:1008C0007A4B1B681844794B186018460068B0EBE7
:1008D000024F01D30020186074480068000C704774
:1008E0002DE9FC414FF47A7425E00BF039F9012130
:1008F00008460BF05EFB6E4A00216EA00BF0A9FBD0
:10090000012108460BF055FBC4F57A7017F0C7FAC1
:10091000074600226C4B17F0BBF805462A460B46EB
:100920006AA1684613F066FF614A002168460BF031
:1009300090FB0BF0F9F82000A4F10104D5D1BDE83B
:10094000FC812DE9FE4F04464FF00009CA46002005
:100950000BF003F9002021237D221E2100900120AD
:100960000BF05DFA204617F0B1FA0746594A5A4B88
:1009700017F042FB054616F0A5FF82460AE000206C
:100980000BF0EBF8012009F0FF0221231E2100905B
:100990000BF045FA484609F1010918F02FF8054611
:1009A000514618F057F8EAD9012108460BF001FB2F
:1009B0003F4A002149A00BF04CFB012167200BF0BE
:1009C000F8FA224649A101A813F014FF384A002181
:1009D00001A80BF03EFB0BF0A7F8BDE8FE8F70B549
:1009E000002503F035FB002013F0E8FB04467CB142
:1009F00009E0002013F0E2FB044604B907E042F2EC
:100A00001070FFF7B6FC28466D1C0528F1D300BF17
:100A10000AF032FF0446204670BD7CB50025002652
:100A2000FFF7DDFF0120FFF7A9FC05F0B6FF0BF093
:100A300097F801F037FEC6B20020FFF79FFC05F0E3
:100A4000ACFF0121182003F0A7F800210C2003F0CF
:100A5000A3F800211A2003F09FF801210F2003F0D2
:100A60009BF83C2408E02046FFF76BFF4FF4FA7038
:100A7000FFF77FFC601C44B2502CF4DBFFF7AFFFA4
:100A800003F0B3FDC6B250243DE000000010014069
:100A90000014014000080140001002400000014025
:100AA0000C0401402C000020FFFF1F0094000020D8
:100AB000C8A40208D4EEF0ECE0F2E8F0EEE2E0EDDB
:100AC000E8E52E2E2E00000000002440252E316681
:100AD00025250000D7A3703D0AD7F33FD4EEF0ECF4
:100AE000E0F2E8F0EEE2E0EDE8E53A0025642525E5
:100AF000000000002046FFF724FF4FF4FA70FFF7D4
:100B000038FC601C44B2642CF4DDF748FFF731FC7C
:100B10000BF026F8012108460BF04BFAF3A16846CA
:100B200013F068FEF54A002168460BF092FA0C219A
:100B300001200BF03EFAF2A1684613F05BFEEF4A8B
:100B4000002168460BF085FA0AF0EEFF05F025FF5C
:100B5000E548FFF70EFC0021442005F07CFE012053
:100B60007CBD70B50646E948006800286DD1E849AB
:100B7000E848006817F06EFF28D24FF08041E54842
:100B8000006818F067F821D2E3480068F0B9E3483C
:100B90000078D8B90AF0E4FF142105200BF009FA17
:100BA000D64A0021DEA00BF054FA1E2105200BF0DE
:100BB00000FAD24A0021DFA00BF04BFA0AF0B4FF92
:100BC0000120D5490860DF48FFF7D3FBD348007800
:100BD000002839D1DC48006817F078FD0446DB4A6C
:100BE000DB4B17F0CDF92FD80AF0BAFF14210520FE
:100BF0000BF0DFF9C14A0021D6A00BF02AFA1E2122
:100C000005200BF0D6F9BD4A0021D5A00BF021FA42
:100C10000AF08AFFD548FFF7ACFB0AF0A1FF1921C3
:100C20001C200BF0C6F9D24A0021D2A00BF011FA19
:100C30000AF07AFFC348FFF79CFB0120B649086021
:100C40004102CF4804F031FB55E001F047FC0A288F
:100C500025D801F043FC022821D9AF480068F0B93B
:100C6000AE480078D8B90AF07BFF142105200BF0BC
:100C7000A0F9A24A0021AAA00BF0EBF91E21052041
:100C80000BF097F99D4A0021AAA00BF0E2F90AF0B7
:100C90004BFF0120A0490860AA48FFF76AFB01F05A
:100CA0001DFC012827D89D48007820BB9A48006881
:100CB00008BB0AF055FF142105200BF07AF98F4A82
:100CC0000021A4A00BF0C5F91E2105200BF071F93D
:100CD0008A4A0021A2A00BF0BCF90AF025FFA9481E
:100CE000FFF747FB0AF03CFF0AF01EFF4FF40071CC
:100CF000A34804F0DAFA70BD10B5102002F008FF26
:100D00000446012C06D0022C0AD0042C0ED0082C4C
:100D100014D111E0112002F0FBFE40EA04240FE0A0
:100D2000122002F0F5FE40EA042409E0132002F04C
:100D3000EFFE40EA042403E0240201E0002400BFA7
:100D400000BF91480068A04219D0A1B20A2002F069
:100D500023FF8D4804608D48818C042002F01CFF25
:100D60008A48818D052002F017FF8848818E062071
:100D700002F012FF8548818F072002F00DFF10BDA1
:100D800070B503F053F9A8B303F07CF8012003F029
:100D900027F904462146002002F0FEFE032003F05E
:100DA0001FF90546022003F01BF900EBC00101EB1F
:100DB000001005EB800084B22146012002F0ECFE19
:100DC000052003F00DF90546042003F009F900EBB6
:100DD000C00101EB001005EB800084B22146022027
:100DE00002F0DAFE062003F0FBF804462146032059
:100DF00002F0D2FE70BD10B500220421644804F058
:100E000056FA01F09DFF00210B2002F0C5FE0820DC
:100E100002F07EFE40F001042146082002F0BCFEF4
:100E200046F2A8115B4801F076FF10BD10B502F044
:100E3000E1F9082002F06CFE20F0010421460820B0
:100E400002F0AAFE0B2002F063FE28B94F48B0F86A
:100E50005C100B2002F0A0FE10BD10B504464E48F9
:100E60000078002802DD4D484D4908604C48006874
:100E7000002804DC4FF40071414804F016FA10BD5C
:100E80002DE9FC5F192002F043FE064617F0CEFD67
:100E90000546444917F0B4FC434908600A2002F0B3
:100EA00037FE40F20122811A90421CD010DCB0F5CE
:100EB000827F7BD005DCA0F2011098B1012876D1A9
:100EC00082E0B0F5847F73D0B0F5887FF7D193E0EE
:100ED00001296ED003296DD007296CD0B1F5007FB0
:100EE000EDD1DCE068E08FE060E31600D4EEF0ECDA
:100EF000E0F2E8F0EEE2E0EDE8E50000C8A4020868
:100F0000E7E0E2E5F0F8E5EDEE2E00005C00002001
:100F1000000020417C00002034000020140000204C
:100F2000C7E0F0FFE420E0EAEAF3ECF3EBFFF2EED7
:100F3000F0E00000ECE5EDFCF8E520313025202E56
:100F40002E2E0000A025260080000020CDCCCCCC89
:100F5000CCCC0440C0EAEAF3ECF3EBFFF2EEF00095
:100F6000F0E0E7F0FFE6E5ED2E000000E067350079
:100F7000D0B20208C2DBCACBDED7C5CDC8C50000DF
:100F800000100140404B4C0098000020A68D020844
:100F900000140140000E002010060020C0270900A8
:100FA0000800002000007A442400002014E08BE0B8
:100FB0001AE035E049E05DE0F849F948006817F0CB
:100FC0001FFCF749086080E0F449F548006817F015
:100FD00017FCF349086078E0F049F148006817F021
:100FE0000FFCEF49086070E0EC49ED48006817F02D
:100FF00007FCEB49086068E0E849E948006817F039
:10100000FFFBE749086060E0E649E548006817F043
:1010100055FD0546E14917F0F3FBE149086054E04E
:10102000DF48006817F052FBDF4AE04BCDE90001D2
:1010300016F0E2FF07460022DD4B16F029FD0546BB
:1010400016F040FCD64908603FE0D548006817F02C
:101050003DFBD54AD54BCDE9000116F0CDFF054645
:101060000022D34B16F014FD074616F02BFCCC499A
:1010700008602AE0CA48006817F028FB0546CA4AFB
:10108000CA4B16F0B9FF0022C94BCDE9000116F09A
:10109000FFFC074616F016FCC149086015E0C04881
:1010A000006817F013FB0746C24AC34B16F0A4FFB3
:1010B00005460022C14B16F0EBFCCDE9000116F00D
:1010C00001FCB749086000E000BF00BFBC4801F068
:1010D0007EF80546B2480168284617F0EFFC8146C5
:1010E0000A2002F015FD40F20121884211D1494643
:1010F000484617F0E3FCB349019017F0DDFD834645
:1011000017F0E4FA074616F08AFB054616F0DAFBFC
:101110008146484617F052FC85B22946042002F069
:101120003BFDA74801F06FF88246A54801F076F82C
:101130000546A54917F0C2FC04462146504617F063
:1011400089FC00D2A24696480168504617F0B6FCCA
:1011500082460A2002F0DCFC40F2011188420ED1E6
:101160004FF08141504617F075FD06D24FF0814196
:10117000504617F0A1FD824601E04FF0000A0A2018
:1011800002F0C6FCB0F5817F0ED14FF08141504690
:1011900017F060FD06D24FF08141504617F08CFDEC
:1011A000824601E04FF0000A0A2002F0B1FCB0F5DF
:1011B000827F0CD18549504617F04CFD05D28349FA
:1011C000504617F079FD824601E04FF0000A0A20F0
:1011D00002F09EFCB0F5847F0CD17D49504617F09B
:1011E00039FD05D27A49504617F066FD824601E086
:1011F0004FF0000A0A2002F08BFC40F201218842E5
:101200000CD17449504617F025FD05D2714950465E
:1012100017F052FD824601E04FF0000A0A2002F06A
:1012200077FC40F2022188420ED14FF082415046B5
:1012300017F010FD06D24FF08241504617F03CFDEA
:10124000824601E04FF0000A0A2002F061FCB0F58E
:10125000017F0ED14FF08241504617F0FBFC06D2C1
:101260004FF08241504617F027FD824601E04FF0D3
:10127000000A0A2002F04CFCB0F5027F0CD156495E
:10128000504617F0E7FC05D25349504617F014FDBD
:10129000824601E04FF0000A0A2002F039FC40F2D9
:1012A000014188420CD14D49504617F0D3FC05D27C
:1012B0004A49504617F000FD824601E04FF0000A0F
:1012C000504617F07BFB85B22946052002F064FCEE
:1012D0004249484617F0BEFC05D24946504617F031
:1012E0008FFA824601E04FF0000A3D49504617F060
:1012F000E5FB064617F062FB85B22946072002F09F
:101300004BFC2F4800F095FF05462548016828460C
:1013100017F0D4FB82460021504617F09BFB01D208
:101320004FF0000A0A2002F0F3FB40F2011188425C
:101330000ED14FF08241504617F08CFC06D24FF090
:101340008241504617F0B8FC824601E04FF0000A97
:101350000A2002F0DDFBB0F5817F0ED14FF0824113
:10136000504617F077FC06D24FF08241504617F0F6
:10137000A3FC824601E04FF0000A0A2002F0C8FBFD
:10138000B0F5827F30D11249504617F063FC29D264
:101390000F49504617F090FC824625E0000040407F
:1013A000240000200000E442D122DBF97EEA344030
:1013B0000000084085EB51B81EB9784000C072406B
:1013C00060D100200000C843000080BF0000E04062
:1013D0000000604100008C42000020410000A0405D
:1013E0000000C8424FF0000A0A2002F091FBB0F55D
:1013F000847F0CD1FA49504617F02CFC05D2F849ED
:10140000504617F059FC824601E04FF0000A0A20CE
:1014100002F07EFB40F2012188420CD1F149504696
:1014200017F018FC05D2EF49504617F045FC8246EC
:1014300001E04FF0000A0A2002F06AFB40F20221AC
:1014400088420CD1E849504617F004FC05D2E64921
:10145000504617F031FC824601E04FF0000A0A20A6
:1014600002F056FBB0F5017F0CD1DF49504617F072
:10147000F1FB05D2DC49504617F01EFC824601E024
:101480004FF0000A0A2002F043FBB0F5027F0CD1B6
:10149000D549504617F0DEFB05D2D349504617F028
:1014A0000BFC824601E04FF0000A0A2002F030FBFC
:1014B00040F2014188420CD1CC49504617F0CAFB9A
:1014C00005D2CA49504617F0F7FB824601E04FF0BB
:1014D000000A504617F072FA85B22946062002F03B
:1014E0005BFBBDE8FC9F70B5044665682E4620682E
:1014F000FEF79DFEA4F100614FF0006003F0EBF9F0
:10150000B04770BD2DE9F84F01F018F8824617F08A
:101510008DFA81464FF08B4117F072F9044617F0AF
:10152000D5F807464FF06632B14B16F065FD05461B
:1015300016F0C8F9AF49086008460168AE4817F0D0
:10154000BBFBAC490860AD49AA48006817F058F9E0
:10155000804617F0BBF80646A94AAA4B16F04CFD88
:10156000044616F0AFF9A349086001F011F80090A5
:1015700017F05CFA83464FF08B4117F041F9824631
:1015800017F0A4F880464FF06632994B16F034FD00
:1015900006469D4A9D4B16F02FFD044616F092F923
:1015A0009B4908609B48006817F028FA05469A484E
:1015B0000168284617F080FB0446984917F020F987
:1015C000974908609348006817F018FA9249086034
:1015D000934801688748006817F070FA04469149FB
:1015E00017F00EF99049086090480068012807D16B
:1015F000084601688E48006817F094F88C49086026
:101600008A48006838B9884801688948006817F036
:1016100053FB874908601F2002F07AFA18B9854801
:101620008549086002E08548834908607848006879
:1016300017F04CF80446824A824B16F0A1FC03D8FE
:101640000020814908600CE080497948006817F063
:1016500035FA044678480168204617F0D1F87A49EF
:1016600008607348006817F031F80646784A794BED
:1016700016F00EFA804616F03BF8044616F09CFB76
:101680001FFA80FA5146282005F0E5F868480068FE
:10169000BDE8F88F8CB000BF002400BF00BF002061
:1016A0006D490870FEF7A2FE6C48FEF762FE01224B
:1016B00091026B4803F0FBFD6848FEF75AFE03F009
:1016C000A7F80120FEF75AFE00F0D2FD05F0DAFE81
:1016D0000AF05DFA0120634908606349087002F06E
:1016E00089FB28B96148006840F001005F49086043
:1016F000FFF775F928B95D48006840F004005B49C0
:10170000086002F02EFB28B95848006840F002003B
:1017100056490860684607F033FC30226946544851
:1017200013F052FC0AF0BFFC0AF0FEF9002401E0BD
:1017300000BF641C4F488442FAD3142000F0E6FF37
:101740000BF01EFB0020FEF719FE012002F0C9F984
:1017500030B9022002F0C5F910B980200BF00DFB62
:10176000192002F0D5F9064617F060F905462B4915
:1017700017F046F84049086040493F48006817F0B4
:101780003FF83D4908600C2005F071F83C4908809D
:10179000442005F06CF83B4908604FF400413A489A
:1017A00003F067FD39490860282005F060F882469B
:1017B00017F03CF9814616F089FF0746244A254B6D
:1017C00016F01AFC054616F07DF8194908601F202E
:1017D00002F09EF918B91748174908605BE057E016
:1017E0000000F041000002430000A0410000204141
:1017F00066660A40640000203333D33FA4709D40E6
:101800007B14AE47E17AF03FE17A14AE47E1004045
:1018100080000020040000206C00002000007A44BA
:10182000680000200000614570000020600000207A
:10183000740000209A99193F880000209A99993FD6
:10184000CDCCCCCCCCCC04407C0000200000C842E5
:1018500025D910F84533F33E14000020E09304002E
:1018600000100140300000208C0000200C000020FF
:10187000F00B0020FFFF2F00240000200000964303
:1018800020000020DC060020000C01405C0000204D
:101890008F489049086090499048006817F00EF909
:1018A00005468C480168284616F0AAFF8C49086056
:1018B0008C48006830B90846006817F063F88A4918
:1018C000086003E000F00AFE874908604FF4004119
:1018D000864803F0CEFC01280CD1082084490880FA
:1018E0001020C8700821834803F0DFFC804981483C
:1018F00003F02CFCEAE08048007850B37F48008871
:10190000B0F5616F18D10E2002F002F97B49088012
:10191000084600884FF6E851884209DA774800887F
:10192000401C80B2754A108001460E2002F034F946
:1019300000207249088004E070480088401C6F490C
:10194000088000206C4908706C4801880C2004F065
:1019500082FF45F2555005F017F8062005F017F8FC
:101960004FF4806005F016F805F01CF8FFF7CAFD8B
:1019700063480068002870D1012062490860002097
:10198000614908701E2002F0C3F8012801D1FFF759
:1019900064FA4FF480515D4803F087FC4FF4005126
:1019A0005A4803F082FC5A48007810B90020FFF72B
:1019B000D8F85748007830B9042002F07EF810B902
:1019C0000120534908705248007801280ED1802028
:1019D00002F073F850B902204D4908704D48007864
:1019E00020B90120FEF7CAFCFFF705FA4848007845
:1019F000022806D1042002F060F810B903204449FF
:101A0000087043480078032806D1802002F055F87A
:101A100010B900203E4908703D48007840B9FFF7F2
:101A200005FA01F003FC00B9641C0020FEF7A6FCD7
:101A3000082002F06DF800F00100002810DD0A20F7
:101A400002F066F8B0F5006F08D101F0F7FB05462B
:101A500029460B2002F0A0F802E020E0FFF710FA80
:101A60002D480078002809DD082002F051F840F0E8
:101A700008052946082002F08FF808E0082002F047
:101A800047F820F008052946082002F085F80020D4
:101A9000214908700FF029F8FFF72EF916E01F48CA
:101AA000007880B91E48FEF764FC1C48007818B91D
:101AB00002200EF06BFD09E001200EF067FD002012
:101AC0001049086002E001200EF060FD13E70000FD
:101AD0009A99993F880000200000C84274000020B5
:101AE0007C0000205C0000204C000020000C014025
:101AF0008E0000200008014022000020200000206D
:101B000010000020600000202C0000200010014088
:101B100014000020AC060020DC0000205706002046
:101B200080969800704700BFFEE700BFFEE700BF49
:101B3000FEE700BFFEE770477047704710B5FEF73D
:101B4000A7FB10BD10B540F225510F4803F05AFA1B
:101B500048B10D4803F0EDF90C49087008460178CA
:101B6000094803F0E2F940F22661074803F04AFA17
:101B700040B14021044803F03CFA04480078401E7C
:101B80000249087010BD0000004400409C00002085
:101B90002DE9F04106460F461446F9480078012821
:101BA00002D10020BDE8F081022C00DC0CB900203D
:101BB000F8E7F34801780078401CF14A107001EB17
:101BC000810000EBC100EF4901EB80052C704FF064
:101BD000000800BF002105F11C0040F824100C3063
:101BE00040F8241056F82410281D40F8241057F807
:101BF00024100C3040F8241034B1281D50F8241063
:101C0000404616F08FFD804605F1100050F8241074
:101C1000404616F087FD8046201EA4F10101CCB29B
:101C2000D8DC2846BEE72DE9F04704460D460026DD
:101C3000E1692162A16AE162E561A168E06A16F0EA
:101C40003DFF80466169206A16F038FF81462169B0
:101C5000E06916F033FF8246494616F063FD0746F9
:101C6000414616F05FFD0646A662A06ABDE8F08711
:101C70002DE9F84F04460D460026216A6162E16AAB
:101C80002163E1692162A16AE162E561E168206B9B
:101C900016F014FF8146A168E06A16F00FFF824635
:101CA000494616F03FFD0746A169606A16F006FF37
:101CB00000906169206A16F001FF82462169E0699F
:101CC00016F0FCFE8346514616F02CFD8146009925
:101CD00016F028FD8046394616F024FD0646A66219
:101CE000A06ABDE8F88F2DE9BF4F82468B461446A7
:101CF000A5480078062803D1002004B0BDE8B08FC5
:101D0000022C00DC0CB90020F7E79F48017800782E
:101D1000401C9D4A107001EB810000EBC1009B4903
:101D200001EB800989F80040002500BF002109F17E
:101D30001C0040F824100C3040F824100AEBC400BA
:101D400000224FF08043D0E90071384616F018F9B0
:101D500021D20AEBC40000224FF04043D0E90071C9
:101D6000384616F047FA16D20AEBC4000022884B18
:101D7000D0E90071384616F03FF90022854BCDE9D5
:101D8000000116F039F9CDE9020115F02BFD09F13A
:101D9000040141F824000BEBC40000224FF0804303
:101DA000D0E90071384616F0EBF821D20BEBC400F5
:101DB00000224FF04043D0E90071384616F01AFA7D
:101DC00016D20BEBC401D1E900710022704B3846EA
:101DD00016F012F900226F4BCDE9000116F00CF954
:101DE000CDE9020115F0FEFC09F1100141F82400D3
:101DF00024B109F1040050F82400451909F110003C
:101E000050F824004519201EA4F10101CCB28DDC4C
:101E1000484672E70146002009E0002301F11C0258
:101E200042F820300C3242F82030421CD0B2032855
:101E3000F3DB70472DE9FC5F064689461546002412
:101E400034E006EBC4000022514BD0E90071384663
:101E500016F0D2F800224F4BCDE9000116F0CCF875
:101E6000824615F0BFFC291D41F8240009EBC4008F
:101E70000022474BD0E90071384616F0BDF8824683
:101E80000022444B16F0B8F8CDE9000115F0AAFC89
:101E900005F1100141F82400002105F11C0040F873
:101EA00024100C3040F82410601CC4B22878401C68
:101EB000A042C6DCBDE8FC9F2DE9F043024600BF0E
:101EC000156A5562D56A1563D5691562956AD5623A
:101ED000D1611569D06980FB0550176A566987FB87
:101EE0000667AD197841576A966987FB0667AE1990
:101EF0007841D76A956887FB0597D2F80CC0D2F86D
:101F0000308088FB0CC83D4619EB0C0745EB0805F3
:101F1000F31940EB05044FF000569E1944F1000000
:101F2000850045EA96709062906ABDE8F083F0B54E
:101F3000024600BFD5691562956AD562D1611569FF
:101F4000D06980FB0550176A566987FB0667AD1993
:101F50007841D76A966887FB0667AB1940EB0704A0
:101F60004FF00057DE1944F10000850045EA9670F5
:101F70009062094D906AA84210DD2846F0BD00002D
:101F80009D000020900C00209E000020C40C00202A
:101F90000000F0400000D0400080FF3F906AB0F1A8
:101FA000404F02DA4FF04040E8E7906AE6E72DE95B
:101FB000F043024600BF156A5562D56A1563D569BC
:101FC0001562956AD562D1611569D06980FB0550AB
:101FD000176A566987FB0676ED197041576A96694C
:101FE00087FB0667AE197841D76A956887FB05C5F8
:101FF000D2F83080D76888FB0787B9461CEB080702
:1020000045EB0905F31940EB05044FF000569E1906
:1020100044F10000850045EA967090628F4D906A09
:10202000A84202DD2846BDE8F083906AB0F1404F37
:1020300002DA4FF04040F6E7906AF4E72DE9F04706
:10204000034600BF1E6A5E62DE6A1E63DE691E62B0
:102050009E6ADE62DA611E69D86980FB0670D3F879
:1020600020C05E698CFB06C6B04617EB0C0640EB41
:102070000800D3F824C09F698CFB077CF71940EB5C
:102080000C00D3F82CC09E688CFB0686D3F80CC0DD
:10209000D3F8309089FB0C9CE24618EB090C46EB18
:1020A0000A0617EB0C0440EB06054FF0005C14EB3E
:1020B0000C0745F10000860046EA9770986200BF61
:1020C0000E6A4E62CE6A0E63CE690E628E6ACE6270
:1020D000986AC8610E69C86980FB0670D1F820C093
:1020E0004E698CFB06C6B04617EB0C0640EB0800A9
:1020F000D1F824C08F698CFB077CF71940EB0C00EA
:10210000D1F82CC08E688CFB0686D1F80CC0D1F8B3
:10211000309089FB0C9C18EB090846EB0C0617EB7A
:10212000080440EB06054FF00056A61945F10000E3
:10213000870047EA96708862484E886AB04202DD9E
:102140003046BDE8F087886AB0F1404F02DA4FF0C0
:102150004040F6E7886AF4E741810023036043606A
:102160000022C26002618261C261028180F828207F
:1021700002624262704730B5C2688A4200DAC160CA
:1021800002698A4200DD016101F58042D11381FBC1
:102190000153D0E9004264195A41C0E90042028962
:1021A000521C0281028943899A420FDBD0E9002345
:1021B000C0E90623C2680262026942620022C2606C
:1021C000026102604260028180F8282030BD2DE962
:1021D000FC478046B8F80A0015F078FE04460D4624
:1021E000D8E90621104615F085FE064622462B4604
:1021F00015F04EFC814615F012FBCDE9000115F0FB
:1022000061FBBDE8FC8770B50446206A16F0F6FB5A
:1022100005464FF08E4116F0F3FA70BD70B50446D6
:10222000606A16F0EBFB05464FF08E4116F0E8FAB7
:1022300070BD70B504462046FFF7F0FF0546204606
:10224000FFF7E1FF0646294616F036FD70BD014650
:1022500091F8280000F00100704700000080FF3F67
:1022600010B5044621464FF4007002F0D9FC10BDB1
:1022700000B585B0012140F2012002F0D1FC002020
:1022800000908DF804008DF805004FF46020029056
:102290000020039001208DF810006946D14803F01A
:1022A000BAF8072301220321CE4803F04CF901219B
:1022B000CC4803F0DCF8CB4803F0FBF800BFC9487A
:1022C00003F0FCF80028FAD1C64803F001F900BF7A
:1022D000C44803F002F90028FAD1012003F058FAAB
:1022E0000021C04803F0C3F805B000BD2DE9F0415E
:1022F00000240025002780260120FFF7B1FF0121DF
:10230000B84803F0B4F8072301221121B54803F0BF
:102310001AF900BF0EE00121B24803F0E8F800BF4F
:102320000221B04803F054FA0028F9D0AD4803F078
:1023300071F905443000A6F10101CEB2EBD1ED09EF
:102340004FF49600B0FBF5F7072301221146A5488C
:1023500003F0F9F880260EE00121A24803F0C7F847
:1023600000BF02219F4803F033FA0028F9D09D48AE
:1023700003F050F904443000A6F10101CEB2EBD1D4
:102380000021984803F073F80020FFF769FFE40983
:1023900004FB07F04FF4006101EB400040F6FF71D1
:1023A000B0FBF1F42046BDE8F08110B5FFF79EFFC9
:1023B000044641F23600844201D964240DE040F61F
:1023C0001C40844201D2002407E0A4F61C4464208F
:1023D000604340F21A41B0FBF1F48348008864285E
:1023E0000CD1824800686421B0FBF1F0804908708C
:1023F00000207E4908607C49088004E07B48006832
:1024000020447A49086078480088401C7649088052
:1024100077480078FA2801D175490C707448007823
:1024200010BD2DE9F0410024002500278026012061
:10243000FFF716FF01216B4803F019F8072301226B
:102440001121684803F07FF800BF0EE001216548C4
:1024500003F04DF800BF0221624803F0B9F90028EB
:10246000F9D0604803F0D6F805443000A6F1010128
:10247000CEB2EBD1ED095F48B0FBF5F7072301229F
:102480001146584803F05FF880260EE001215548B8
:1024900003F02DF800BF0221524803F099F90028FB
:1024A000F9D0504803F0B6F804443000A6F1010119
:1024B000CEB2EBD100214B4802F0D9FF0020FFF74C
:1024C000CFFEE40904FB07F040F6CA0101EB40002F
:1024D0004900B0FBF1F42046BDE8F08110B5FFF7EC
:1024E000A0FF0446B4F5616F01D964240CE0B4F593
:1024F000486F01D2002407E0A4F5486464206043DB
:102500004FF4C871B0FBF1F4204610BD10B5FFF7D1
:1025100088FF0446B4F57A6F01D964240CE0B4F561
:10252000486F01D2002407E0A4F5486464206043AA
:102530004FF44871B0FBF1F4204610BD70B5002691
:10254000002480250120FFF78BFE0121254802F0A1
:102550008EFF072301220321224802F0F4FF00BF6F
:102560000EE001211F4802F0C2FF00BF02211D48FA
:1025700003F02EF90028F9D01A4803F04BF8044470
:102580002800A5F10101CDB2EBD1E409204670BDD0
:1025900070B50026002480250120FFF761FE01218F
:1025A000104802F064FF0723012211460D4802F093
:1025B000CAFF00BF0EE001210A4802F098FF00BFE9
:1025C0000221084803F004F90028F9D0054803F077
:1025D00021F804442800A5F10101CDB2EBD1E409B2
:1025E000204670BD00240140A8000020A400002067
:1025F000A0000020C0655200012070472DE9F04185
:1026000004460D461746002011F088FE06462EB1FE
:10261000012238A138480FF0C3FD064672B671B6E4
:10262000012322462946002011F0C3FE064662B669
:1026300061B600222FA110460FF0B2FD0646012020
:10264000BDE8F0812DE9F04104460D461746002013
:1026500011F064FE06462EB1012226A126480FF095
:102660009FFD064672B671B6012322462946002018
:1026700011F05BFE064662B661B600221DA110464F
:102680000FF08EFD06460120BDE8F08101461B4893
:10269000C06848601948C08A08811848C08A4881C3
:1026A0000120704770B504F078F972B671B614481D
:1026B000FDF75FFE09F0E0F8054601220DA10E4886
:1026C0000FF06EFD0546002211460AA010F096FE9E
:1026D000044604F062F90BA010F0CFFD054600227D
:1026E00004A110460FF05CFD054662B661B62046B7
:1026F00070BD0000303A000078070020F00B002089
:10270000A086010050494F4E0000000010B58AB06D
:1027100004460121C80202F083FA012C04DD601E88
:1027200080B2ADF8200002E00120ADF82000472083
:10273000ADF81C000020ADF82200ADF81E008DF8A9
:10274000240007A9FE4803F0F3FA0121FC4804F035
:1027500055F819208DF8180000208DF819008DF813
:102760001A0001208DF81B0006A802F082F8012152
:10277000880302F062FA0020ADF804004FF4827082
:10278000ADF806000020ADF808000220ADF80A0000
:102790000120ADF80C004002ADF80E000020ADF8AD
:1027A0001000ADF812000720ADF8140001A9E548AB
:1027B00003F0FCF80222E44901F11800FFF793FA54
:1027C000E24908600222E24901F11800FFF78BFAA2
:1027D000E04908600222E04901F11800FFF783FA9E
:1027E000DE4908600222DE4901F11800FFF77BFA9A
:1027F000DC4908600222DC4901F11800FFF773FA96
:10280000DA4908600222D84901F11800FFF76BFA93
:10281000D74908600AB010BD10B500244FF48050AD
:10282000D4490860086008600860086008600860B3
:102830000860086008600860086008600860086058
:102840000860086008600860086008600860086048
:102850000860086008600860086008600860086038
:102860000860086008600860086008600860086028
:102870000860086008600860086008600860086018
:102880000860086008600860086008600860086008
:1028900008600860FF21AB4803F05EF900BFA9485B
:1028A0000830008800F002000028F8D0FF21A54879
:1028B00003F052F900BFA3480830008800F001007F
:1028C0000028F8D09F4803F049F9044600BF9D480E
:1028D0000830008800F002000028F8D0FF21994855
:1028E00003F03AF900BF97480830008800F0010073
:1028F0000028F8D0934803F031F940EA042400BFDF
:1029000090480830008800F001000028F8D08D4879
:1029100003F024F940EA04244FF480509549091F3C
:102920000860A408A0B210BD70B54FF400619248D1
:1029300002F0B9FC192001F0EBF8054616F076F824
:1029400004468E4915F05CFF8D49086001217C48E2
:1029500003F054FFFFF760FFA0F5004089490860CD
:102960000846016888480078884A12781040884AEA
:1029700042F8201084480078401C834908700846BB
:10298000007882490978084000286ED17F48007895
:10299000012808D1104600681146496808444010D3
:1029A000784908600DE07A48006879494968084428
:1029B0007749896808447649C96808448010714994
:1029C00008607048006847F6F461884204DC6D488E
:1029D00000684942884205DA6E48006810B9012053
:1029E0006D49087067480068C003664908606B4815
:1029F000008840F20122811A904276D010DCB0F5B6
:102A0000827F48D005DCA0F20110C8B101286DD149
:102A10002CE0B0F5847F53D0B0F5887FF7D166E025
:102A200007296FD004DC01296DD00329EFD1D5E04F
:102A3000B1F5007F68D0A1F2FF510029E7D122E172
:102A4000504802684348016840480068FFF7F6FABA
:102A50004C49086008460268424801683F480068DF
:102A6000FFF7ECFA4749086019E14DE14548026873
:102A70003848016835480068FFF7E0FA41490860C6
:102A8000084602683748016834480068FFF7D6FAFC
:102A90003C49086003E13B4802682E4801682B4826
:102AA0000068FFF7CBFA37490860084602682D48EE
:102AB00001682A480068FFF7C1FA32490860EEE071
:102AC000304802682348016820480068FFF7B6FADA
:102AD0002C49086008460268224801681F480068BF
:102AE000FFF7ACFA27490860D9E00EE0D6E02548A8
:102AF00002681C48016819480068FFF79FFA2149DD
:102B00000860CCE085E04EE09EE01E480268114877
:102B100001680E480068FFF791FA1A4908600846F4
:102B2000016812480068FFF742FA16490860084633
:102B300002680C48016809480068FFF77FFA2FE037
:102B4000002C01400038004048010020F80500201A
:102B500078010020FC050020C802002000060020AB
:102B6000F802002004060020A80400200806002027
:102B70000C060020140C01400008014000007A44BB
:102B8000E0000020CC000020E4000020E500002050
:102B900050D10020D4000020DC000020D000002014
:102BA000FE4908607BE0FD480268FD480168FD4879
:102BB0000068FFF743FAF949086008460168FA48D7
:102BC0000068FFF7F4F9F549086008460168F7481E
:102BD0000068FFF7ACF9F149086060E0EF4802686F
:102BE000EF480168EF480068FFF728FAEB490860F2
:102BF00008460168EC480068FFF7D9F9E749086022
:102C000008460168E9480068FFF791F9E349086060
:102C100045E0E2480268E2480168E2480068FFF7E0
:102C20000DFADE49086008460168DF480068FFF7D2
:102C3000BEF9DA49086008460168DC480068FFF719
:102C400076F9D64908602AE0D4480268D448016879
:102C5000D4480068FFF7F2F9D049086008460268D6
:102C6000D3480168D1480068FFF7E8F9CB4908600C
:102C700008460268CF480168CB480068FFF7DEF9D4
:102C8000C64908600BE0C5480268C9480168C748E2
:102C90000068FFF7D3F9C149086000E000BF00BF3A
:102CA000C548006828B1C4480068401EC249086091
:102CB00070BDBA480168C148FFF75DFAC048008896
:102CC000002821DDBE480088401EBD490880B34869
:102CD000006815F093FE0546BA480168284615F0CD
:102CE000EDFE044615F04EFEB74908600846006840
:102CF00000F58040C01300B2B44909680880B348A9
:102D00000068801CB14908604FF40061B04802F0CF
:102D1000CCFA00BFCCE70022A94B1A80AB4A106066
:102D2000AC4A118002E0002220F811200A00A1F133
:102D3000010399B2F7D1A74A1288A14B1A807047B4
:102D400010B500209E49088001221103A24802F01C
:102D5000AEFA0020A149086048608860C860A049B8
:102D6000087046F2A810944908600A2000F0D0FECE
:102D70009C4908808B480068FFF74CF88848006839
:102D8000FFF748F889480068FFF744F8884800686A
:102D9000FFF740F884480068FFF73CF88548006872
:102DA000FFF738F88F48008840F20122811A9042DC
:102DB0007DD010DCB0F5827F67D005DCA0F2011079
:102DC000C8B1012874D13BE0B0F5847F71D0B0F573
:102DD000887FF7D1AAE007296CD004DC01296AD0EA
:102DE0000329EFD15EE1B1F5007F65D0A1F2FF517B
:102DF0000029E7D1D3E16B487B49026801F1180053
:102E0000FFF718F866487949026801F11800FFF7E2
:102E100011F866487649026801F11800FFF70AF8D0
:102E200063487449026801F11800FFF703F80320B2
:102E30007149087046F2A8116048FFF78DF9CAE1A0
:102E400058486E49026801F11800FEF7F3FF544834
:102E50006B49026801F11800FEF7ECFF534869491D
:102E6000026801F11800FEF7E5FF51486649026863
:102E700001F11800FEF7DEFF01205F49087046F2FD
:102E8000A8114E48FFF768F9A5E146485F49026876
:102E900001F11800FEF7CEFF41485D49026801F1DB
:102EA0001800FEF7C7FF41485649026805E062E096
:102EB00090E116E01BE1D0E03EE101F11800FEF7E1
:102EC000B9FF3B485049026801F11800FEF7B2FF14
:102ED00001204949087046F2A8113848FFF73CF92B
:102EE00079E130484B49026801F11800FEF7A2FF72
:102EF0002B484949026801F11800FEF79BFF2B4857
:102F00004049026801F11800FEF794FF28483E4945
:102F1000026801F11800FEF78DFF012036490870A4
:102F200046F2A8112548FFF717F954E11D483B491F
:102F3000026801F11800FEF77DFF19483849026860
:102F400001F11800FEF776FF18482E49026801F1DA
:102F50001800FEF76FFF16482B49026801F11800B0
:102F6000FEF768FF01202449087046F2A8111348B3
:102F7000FFF7F2F82FE10B481B49026801F1180036
:102F8000FEF758FF06481949026801F11800FEF7DC
:102F900051FF06481649026844E00000CC000020BA
:102FA000FC050020F805002008060020000600208F
:102FB000040600200C060020D400002060D1002070
:102FC000C8000020E0000020D8000020C40000203D
:102FD00000080140CA000020000C014050D1002030
:102FE000E4000020D0000020B8030020E803002007
:102FF000C8020020F8020020E5000020480100205F
:10300000780100202803002058030020A801002098
:10301000D8010020080200203802002068020020A9
:103020009802002001F11800FEF704FFFD48FE4958
:10303000026801F11800FEF7FDFEFC48FC49026839
:1030400001F11800FEF7F6FE0320FA49087046F277
:10305000A811F948FFF780F8BDE0F848F849026880
:1030600001F11800FEF7E6FEF648F749026801F1A3
:103070001800FEF7DFFEF548F549026801F1180077
:10308000FEF7D8FEE948F349026801F11800FEF79F
:10309000D1FE0120E749087046F2A811E648FFF783
:1030A0005BF898E0E548EC49026801F11800FEF78A
:1030B000C1FEE448E949026801F11800FEF7BAFED2
:1030C000E248E349026801F11800FEF7B3FED74871
:1030D000E049026801F11800FEF7ACFE0120D54975
:1030E000087046F2A811D448FFF736F873E0D348C9
:1030F000DB49026801F11800FEF79CFED148D9496E
:10310000026801F11800FEF795FED048D049026828
:1031100001F11800FEF78EFEC448CE49026801F1A5
:103120001800FEF787FE0120C249087046F2A81178
:10313000C148FFF711F84EE0C048CB49026801F1E1
:103140001800FEF777FEBF48C849026801F1180071
:10315000FEF770FEBD48C649026801F11800FEF78F
:1031600069FEB048C349026801F11800FEF762FE2B
:10317000AE48C149026801F11800FEF75BFEBF4886
:10318000BF49026801F11800FEF754FE0320A94967
:10319000087046F2A811A848FEF7DEFF1BE0AB4816
:1031A000B849026801F11800FEF744FE9D489E49A7
:1031B000026801F11800FEF73DFE01209D490870EC
:1031C0004FF22440B049086046F2A8119A48FEF731
:1031D000C3FF00BF00BF00BF0121AC4802F08BFC61
:1031E0000121AB4803F030F801221146A84803F052
:1031F00046F810BD10B50020A64908700022012134
:10320000A34803F03CF80021A14803F01DF8012178
:103210009F4803F0F3FA00219C4802F06CFC002266
:103220004FF480519C4802F042F810BD9B48008842
:10323000002801DD012070470020FCE79848008845
:1032400000280CDD9648008894490988401A6421BA
:10325000484393490988B0FBF1F0C0B270470020A1
:10326000FCE700B500BFFFF7E1FF0128FBD000BD80
:103270002DE9F74F86B0894692460120FDF77EF88A
:1032800045F6C0516C48FEF767FF86A1069811F01D
:1032900042FD8346BBF1000F7DD000220421584639
:1032A00011F06EFC0DE0BDF910004FF48041C1EB50
:1032B000C0344FF4967094FBF0F529465E48FEF753
:1032C0005AFF5B460122022104A813F0A3FA012849
:1032D000E9D05948FEF797FF7349086008687349B9
:1032E00015F0ECFB054615F069FBA9F800006E49E6
:1032F00008686E4915F0E2FB054615F05FFB80B2E9
:10330000ADF80C0000220421584611F039FC45F6B6
:10331000C0514948FEF720FF48485149026801F171
:103320001800FEF787FD47484E49026801F1180072
:10333000FEF780FD45484649026801F11800FEF796
:1033400079FD3A484349026801F11800FEF772FD21
:1033500031E0BDF910004FF48041C1EBC03422468A
:103360003848016835480068FEF768FE0446214683
:103370002E480068FEF71BFE0446214633480068CD
:10338000FEF7D5FD0446204614F089FD484A494B16
:10339000CDE9000100E033E014F02EFE07460022E4
:1033A000454B14F075FB054614F006FD01460290EE
:1033B0002148FEF7E0FE5B460122022104A813F03B
:1033C00029FA0128C5D01C48FEF701FF364948609C
:1033D0004868364915F072FB054615F0EFFAAAF871
:1033E000000031494868314915F068FB054615F081
:1033F000E5FA80B2ADF80E00584611F0B3FC04E0D7
:103400000020A9F80000AAF800004FF4FA70A9F80B
:10341000000041F2F450AAF8000003A809B0BDE88A
:10342000F08F000004060020F802002008060020AB
:10343000A8040020E500002060D10020F80500204D
:1034400048010020FC050020780100200006002033
:103450008803002008050020A8010020D8010020D2
:103460000802002038020020E80000201801002097
:1034700098050020C8050020380500200C06002013
:1034800068050020C8020020D40000200038004059
:10349000002C0140DC000020000C0140C80000208E
:1034A000CA0000207200000090D100200000C84235
:1034B000D122DBF97EEA344000C07240F8B50646FE
:1034C0000120FCF75BFF46F2A811CA48FEF744FE54
:1034D000AFF23001304611F01EFC0446002C59D0EA
:1034E00000220421204611F04BFBC348C349026867
:1034F00001F11800FEF79EFCC148C249026801F1C3
:103500001800FEF797FCC048C049026801F1180096
:10351000FEF790FCBE48BF49026801F11800FEF7B3
:1035200089FC1DE0BDF900004FF48041C1EBC035BE
:103530002A46B3480168B0480068FEF77FFD05469B
:103540002A46B3480168B0480068FEF777FD054693
:103550004FF4967095FBF0F73946A648FEF70BFE40
:10356000234601220221684613F054F90128D9D0DC
:10357000A048FEF72CFEA8490860204611F0F2FB97
:10358000A5490868A54915F099FA074615F016FAF5
:1035900080B2F8BD0020FCE72DE9F14F82B0012098
:1035A000FCF7ECFE45F6C0519248FEF7D5FDAFF2B0
:1035B0000C11029811F0AFFB8346BBF1000F71D0E4
:1035C00000220421584611F0DBFA46F2A81189487E
:1035D000FEF7C2FD88488949026801F11800FEF72C
:1035E00029FC87488749026801F11800FEF722FC90
:1035F00085488B49026801F11800FEF71BFC8948D9
:103600008949026801F11800FEF714FC2EE0BDF9AB
:1036100004004FF48041C1EBC03A5246784801683B
:1036200075480068FEF70AFD824651467D480068ED
:10363000FEF7BDFC8246514673480068FEF777FCF2
:103640008246504614F02BFC0646784A784B14F01C
:10365000D3FC04460022774B14F01AFA804614F08B
:10366000ABFB014600906348FEF785FD5B460122F7
:10367000022101A813F0CEF80128C8D05D48FEF75A
:10368000A6FD6D494860584611F06CFB6A494868D0
:10369000624915F013FA044615F090F980B2BDE8BE
:1036A000FE8FFFE70020FAE72DE9F14F84B00120FB
:1036B000FCF764FE41F288314E48FEF74DFDAFF253
:1036C0001C21049811F027FB8246BAF1000F7DD02F
:1036D00000220421504611F053FA47485749026826
:1036E00001F11800FEF7A6FB45485549026801F1B3
:1036F0001800FEF79FFB44485249026801F1180088
:10370000FEF798FB42485049026801F11800FEF7A5
:1037100091FB44484D49026801F11800FEF78AFB0D
:103720004B484C49026801F11800FEF783FB40E06A
:10373000BDF90810BDF90A20881800EBD0714910B6
:1037400009B2ADF80810BDF908004FF48041C1EB93
:10375000C03B5A462A48016827480068FEF76EFCBD
:1037600083465A462A48016827480068FEF766FCE7
:1037700083465A46364801682A480068FEF75EFCD0
:103780008346584615F03AF9009014F09FFF06461C
:10379000314A324B14F030FC04460022254B14F021
:1037A00077F9804614F008FB014601901148FEF7B6
:1037B000E2FC53460222114602A813F02BF802281D
:1037C000B6D00C48FEF703FD254900E00FE0486045
:1037D000504611F0C7FA22494868104915F06EF9B1
:1037E000044615F0EBF880B205B0BDE8F08F00207C
:1037F000FAE7000060D10020F80500200802002050
:10380000FC050020380200200006002028030020CC
:1038100004060020580300209CD100200000C8426C
:10382000880300200806002008050020D122DBF9CB
:103830007EEA344000C07240A8D10020E800002099
:103840001801002098050020C80500203805002038
:103850000C0600206805002085EB51B81EB97840A1
:10386000B4D1002010B54FF40061A34801F001FD70
:1038700030B9A248007840F00100A049087005E086
:103880009E48007820F001009C4908704FF4807138
:103890009B4801F0EEFC30B99848007840F00200F7
:1038A0009649087005E09548007820F00200934999
:1038B00008700121904801F0DCFC30B98F48007895
:1038C00040F004008D49087005E08C48007820F035
:1038D00004008A4908704FF48061874801F0C9FCF0
:1038E00030B98648007840F008008449087005E047
:1038F0008248007820F008008049087002217E4844
:1039000001F0B7FC30B97D48007840F010007B49E9
:10391000087005E07948007820F0100077490870B9
:10392000764800787749097888427DD076480078D3
:10393000002879D17348007800F0010050B96F4831
:10394000007800F0010028B17048006840F00100E4
:103950006E4908606B48007800F0020002280BD026
:103960006648007800F00200022805D16748006828
:1039700040F00200654908606248007800F00400E9
:1039800004280BD05D48007800F00400042805D11D
:103990005E48006840F004005C49086059480078BF
:1039A00000F0080008280BD05448007800F0080008
:1039B000082805D15548006840F0080053490860C0
:1039C0005048007800F0100010280BD04B480078C9
:1039D00000F01000102805D14C48006840F010009D
:1039E0004A4908604748007800F0010050B1434858
:1039F000007800F0010028B94448006840F0200039
:103A0000424908603F48007800F0020002280DD1CA
:103A10003A48007800F00200022807D03B480068CE
:103A200040F04000394900E03DE00860354800784A
:103A300000F0040004280BD13048007800F00400A6
:103A4000042805D03148006840F080002F49086004
:103A50002C48007800F0080008280BD1274800788F
:103A600000F00800082805D02848006840F480705D
:103A7000264908602348007800F0100010280BD178
:103A80001E48007800F01000102805D01F4800687C
:103A900040F400701D490860184800781949087002
:103AA0001E201949087018480078002804DD1648BF
:103AB0000078401E1449087010BD01461348006884
:103AC000084030B1114800688843104A1060002057
:103AD00070470120FCE70D49096881430B4A1160DA
:103AE00070470146054800780840002801DD0020A5
:103AF00070470120FCE70000000C01401006002088
:103B000000100140110600201806002014060020B5
:103B100070B50446202C01D3002070BDA74800EBEF
:103B2000C400807902282ED100F0ACF91CB9012024
:103B300000F056FAF1E7012C0ED1032000F050FA04
:103B40000546022000F04CFA00EBC00101EB00102A
:103B500005EB800080B2E0E7022C0ED1052000F0DA
:103B60003FFA0546042000F03BFA00EBC00101EBF0
:103B7000001005EB800080B2CFE7032C03D10620B4
:103B800000F02EFAC9E70D2C02D140F26910C4E70B
:103B90008B4830F81400C0E773B50446202C01D3DD
:103BA00000207CBD854800EBC4004088BDF80410AF
:103BB000884204DA814800EBC400408801907F48C5
:103BC00030F83400BDF80410884203DD7B4830F83B
:103BD00034000190794800EBC4008079012812D1AB
:103BE000022000EB4401034601AA012010F0C4FDAD
:103BF000734800EB4402022000EB4401034601201D
:103C000010F08EFD50E06D4800EBC4008079022872
:103C100045D100F037F924B9BDF80410012000F0B7
:103C200091F9012C15D1BDF80400642190FBF1F04D
:103C300085B22946022000F085F9BDF80400642110
:103C400090FBF1F201FB120085B22946032000F03F
:103C500079F9022C19D1BDF80400642190FBF1F030
:103C600085B22946042000F06DF9BDF804006421F6
:103C700090FBF1F201FB120085B22946052000F00D
:103C800061F90021062000F05DF9032C04D1BDF894
:103C90000410062000F056F900F002F904E0BDF827
:103CA0000410474820F81410454830F81400BDF8B7
:103CB0000410884201D0002073E7012071E7002042
:103CC00007E03E4901EBC0018A883D4921F81020F8
:103CD000401C2028F5D37047F8B5012600243CE0AD
:103CE000364800EBC4008079012835D1022000EB72
:103CF0004405334800EB440202232946012010F01A
:103D00000FFD2F4830F814002C4901EBC4014988FD
:103D1000884207DC2A4830F81400284931F834106A
:103D2000884219DA254800EBC400021D0223294607
:103D3000012010F021FD02236A462946012010F0DF
:103D4000EFFC1E4800EBC4008088BDF800108842DC
:103D500001D0002600E00126641C202CC0D3304690
:103D6000F8BD10B5FFF7ABFF0223154A921E0021E4
:103D7000012010F0D5FC1248801E0088B0F5D35FFA
:103D800019D04FF4D3500E49891E088042230A46A9
:103D90000021012010F0F0FC0223094A921E0021AC
:103DA000012010F0BDFC0648801E0088B0F5D35FEE
:103DB00001D0002010BDFFF78FFFFBE7A68D0208A2
:103DC000C2D1002010B500209E490860486088607C
:103DD0000120C8600020086146204861084611F0B3
:103DE00006FA044601F074FD204601F03EFD01F0A4
:103DF0006FFD10BD10B501214FF0C05000F01DFF48
:103E00009148FCF7B6FA012002F069FD8F4800885E
:103E100040F024008D490880042002F028FD4AF675
:103E2000AA21884228D002F0EDFC012000F065FEB6
:103E300000BF412000F0C9FD0028FAD04FF4807087
:103E400000F077FE012000F07AFE01F04AFD01F05B
:103E50003FFD0121084601F0DFFC47F6FF7001F04D
:103E600011FD01F035FDFFF7ADFF4AF6AA21042050
:103E700002F0F1FC002010BD01F033FD01F028FD3F
:103E80000120F8E738B501F0E7FC0090684611F032
:103E900089F904462C2221466A4811F095F838BD6C
:103EA00010B5684811F0A3F9044601F011FD204651
:103EB00001F0DBFC01F00CFDFFF7E4FF10BD40F268
:103EC0006C71884204DBA0F26C715E4A516103E0C0
:103ED00040F26C715B4A516170470C2801DD0C2087
:103EE00002E0012800DA0120411E564A11617047A4
:103EF0001F2803DD1F21534AD16007E0012803DAA0
:103F00000121504AD16001E04E49C860704717282E
:103F100003DD17214B4A916001E04A4988607047F0
:103F20003B2803DD3B21474A516001E04549486099
:103F300070473B2803DD3B21424A116001E04149C3
:103F400008607047072848D2DFE800F04704121DD8
:103F50002C353E0040F26C72914204DBA1F26C728F
:103F6000384B5A6103E040F26C72364B5A6135E0CF
:103F70000C2901DD0C2102E0012900DA01214A1E91
:103F8000304B1A612AE01F2903DD1F222D4BDA6016
:103F900007E0012903DA01222A4BDA6001E0294A0D
:103FA000D1601BE0172903DD1722264B9A6001E040
:103FB000244A916012E03B2903DD3B22214B5A60E9
:103FC00001E0204A516009E03B2903DD3B221D4B03
:103FD0001A6001E01B4A116000E000BF00BF70479B
:103FE0000146072920D2DFE801F01F040A0F13174A
:103FF0001B001448808A00F26C7080B27047114830
:10400000008A401C80B2F9E70E48808980B2F5E74B
:104010000C48008980B2F1E70A48808880B2EDE759
:104020000848008880B2E9E70020E7E710B50120E2
:1040300001F069FC012803D101F070FC012010BDE2
:104040000020FCE704D20020400D03002C6C00404F
:10405000FD48806940F00100FB498861084680699D
:1040600040F004008861F948006840F44030F749A6
:1040700008600846006820F4402008601020F349DA
:1040800010310860F148006840F44010EF490860C2
:104090000846006820F4400008600846006840F4C4
:1040A000000008600846006820F04070086008467C
:1040B000006820F0406008600846006840F000603A
:1040C00008604020E14910310860E048006840F095
:1040D0004050DE4908600846006820F04040086013
:1040E0000846006840F000400860D748806940F406
:1040F0008050D54988610020D549888004200880F7
:104100000846008840F0100008800846008840F407
:10411000807008800846008840F4007008800846D7
:10412000008840F0400008807047014600BFC84842
:10413000008900F002000028F9D0C548818100BF45
:10414000C348008900F001000028F9D0C0488089E8
:10415000C0B2704770B502460B460026BD480078D5
:1041600020B9112A01D0182A00D15B024FF4801027
:10417000B6491031086042F04000FFF7D6FF180E34
:10418000FFF7D3FFC3F30740FFF7CFFFC3F30720C9
:10419000FFF7CBFFD8B2FFF7C8FF082A03D187206B
:1041A000FFF7C3FF02E09520FFF7BFFF05E03046B1
:1041B000711CCEB2FE2800DD05E0FF20FFF7B5FF41
:1041C0000446FF28F3D000BFC4B93A2A16D1FF2015
:1041D000FFF7ABFF054605F0400018B101209D49EF
:1041E000087002E000209B490870FF20FFF79DFF48
:1041F000FF20FFF79AFFFF20FFF797FFFF20FFF751
:1042000094FF1020914910310860204670BDF0B530
:1042100002270024FFF71CFF10208C491031086092
:10422000002504E0FF20FFF780FF681CC5B20A2DBF
:10423000F8DB4FF4801085491031086006E0204615
:10424000611C8CB2202801DD0220F0BD002108464F
:10425000FFF780FF0128F2D110207C49103108605F
:10426000FF20FFF762FFFF20FFF75FFF002406E05B
:104270002046611C8CB2FE2801DD012706E04FF4C8
:10428000D5710820FFF766FF0128F1D100BF002497
:1042900000BF00213720FFF75DFF06464FF0804149
:1042A0002920FFF757FF0646601C84B240F6FE70D7
:1042B000844201DD0120C8E7002EEAD1002400205D
:1042C00064490870022F0DD105E02046611C8CB2B4
:1042D000FE2800DD05E000213A20FFF73BFF002823
:1042E000F3D100BF0020B0E701F0800070477047B5
:1042F00070477047704770472DE9F04107460C46FC
:104300004FF0000839461820FFF724FF08B1BDE838
:10431000F0814FF480104D4910310860FE20FFF706
:1043200004FF002605E014F8010BFFF7FEFE701CE9
:1043300086B2B6F5007FF6DBFF20FFF7F6FEFF2022
:10434000FFF7F3FEFF20FFF7F0FE054605F01F0024
:10435000052804D010203D4910310860D7E70CE053
:104360004046411C1FFA81F84FF6FE71884204DD79
:104370001020364910310860C9E7FF20FFF7D5FE4D
:104380000028EDD01020314910310860FF20FFF7E0
:10439000CCFE4FF480102D49103108600CE04046EF
:1043A000411C1FFA81F84FF6FE71884204DD10208F
:1043B000264910310860AAE7FF20FFF7B6FE002863
:1043C000EDD0102021491031086000BF9FE770B583
:1043D00006460C46002531461120FFF7BBFE00B112
:1043E00070BD4FF480101949103108600BE0284669
:1043F000691C8DB24FF6FE71884204DD102013490E
:1044000010310860ECE7FF20FFF78FFEFE28EED1A9
:10441000002506E0FF20FFF788FE04F8010B681C6A
:1044200085B2B5F5007FF5DBFF20FFF77EFEFF20AC
:10443000FFF77BFEFF20FFF778FE102003491031C5
:10444000086000BFCCE700000010024000080140F7
:10445000003001401C0600202DE9F04107460C46C3
:1044600016461D4614493846FFF7B1FF6019B0F5EE
:10447000007F05DC104801192A46304610F05FFD28
:10448000BDE8F0812DE9F04107460C4616461D4671
:1044900009493846FFF79BFF6019B0F5007F05DC3E
:1044A000054908192A46314610F049FD02493846A7
:1044B000FFF722FFBDE8F08130D2002000B585B0C3
:1044C00000207E4908607EA17EA010F024FC7B497C
:1044D000086008460068E0B16A467DA17748006838
:1044E00010F0C4FA7548006810F03CFC74A16846EE
:1044F00010F011FC714908600846006830B10846A8
:10450000006810F02FFC002005B000BD4FF0FF3018
:10451000FAE74FF0FF30F7E710B56848006818B1C8
:104520006648006810F01EFC10BD70B586B00546E8
:104530000C4662480068B0B961A162A010F0EBFBC4
:104540005E49086001AA62A15C48006810F08EFA1A
:104550005A48006810F006FC59A101A810F0DBFBD6
:104560005649086019E05548006810F0FBFB54A15B
:1045700054A010F0D0FB5149086001AA54A14F4843
:10458000006810F073FA4D48006810F0EBFB4CA186
:1045900001A810F0C0FB494908601CB94FF0FF307A
:1045A00006B070BD601E010100224448006810F092
:1045B000E7FA4248102201210368284612F02AF93E
:1045C000C6B2102E0ED1287830B91021284610F02E
:1045D00035FD4FF0FF30E3E73848006810F0C2FBCC
:1045E0000020DDE74FF0FF30DAE730B5ADF27C6D4B
:1045F0000024002572B671B602F0CFF9012235A170
:1046000068460DF0CDFD05460A2233A10DF58B60FD
:104610000DF0F1FD054633A22DA10DF58B600FF0D5
:10462000ACFA0DF58B6100200FF062FA01240CE06A
:10463000234630A231A10DF58B600FF09EFAE0B257
:104640000DF58B610FF054FA641CB4F5FA7FEFDBC3
:10465000DDF864540DF58B600EF09DF802F09DF9C5
:10466000212201211CA00EF0AEFC0A2227A10DF58B
:104670008B600DF0C0FD28A215A10DF58B600FF029
:104680007CFA0DF58B600EF086F80A2224A18DA825
:104690000DF0B1FD20A20EA18DA80FF06EFA8DA82D
:1046A0000EF079F800220BA110460DF079FD62B6EC
:1046B00061B628460DF27C6D30BD0000200600205A
:1046C00072000000526F61642E6C6F670000000082
:1046D00025730000303A0000303A526F61642E308A
:1046E00000000000E1E5E720ECE0F0F8F0F3F2E094
:1046F00020202000F2EEF7EAE000000025732025DC
:10470000303375202020202020000000303A526FE6
:1047100061642E6C6F670000526F61642E30000080
:10472000303A526F6164732E747874000CB50020B7
:10473000019000904848006840F480304649086085
:1047400000BF4548006800F4003000900198401C0C
:104750000190009818B90198B0F5A06FF1D13E48CA
:10476000006800F4003010B10120009001E000204A
:1047700000900098012844D13848006840F01000AB
:10478000364908600846006820F0030008600846C3
:10479000006840F0020008602F4840682E494860D9
:1047A0000846406848600846406840F480604860B9
:1047B0000846406820F47C1048600846406840F491
:1047C000E81048600846006840F08070086000BF4C
:1047D0002148006800F000700028F9D01E484068A9
:1047E00020F003001C4948600846406840F0020081
:1047F000486000BF1848406800F00C000828F9D154
:1048000001E000BFFEE70CBD10B5FFF78FFF10BD44
:1048100010B51148006840F001000F4908600846D3
:1048200040680F4908400C494860084600680D4937
:104830000840094908600846006820F480200860A4
:104840000846406820F4FE0048604FF41F0088606E
:10485000FFF7DAFF10BD0000001002400020024008
:104860000000FFF8FFFFF6FE31490143314A1160B5
:10487000704770B5002100230F22C47804B32D4C7B
:10488000246804F4E064C4F5E064210AC1F104037F
:10489000CA40447804FA03F18478144021430901A2
:1048A000254C0678A155047804F01F050124AC407E
:1048B00005786D11AD0005F1E025C5F8004109E06E
:1048C000047804F01F050124AC401C4D06787611D5
:1048D00045F8264070BD1A4A0A400243154B1B1F7B
:1048E0001A60704739B1134A121D12680243114B06
:1048F0001B1D1A6006E00F4A121D126882430D4B01
:104900001B1D1A607047042808D14FF0E021096987
:1049100041F004014FF0E022116107E04FF0E02187
:10492000096921F004014FF0E02211617047000095
:104930000000FA050CED00E000E400E080E100E09A
:1049400080FFFF1FDF48006840F00100DD4908607C
:1049500008464068DC490840DA4948600846006873
:10496000DA490840D74908600846006820F48020EA
:1049700008600846406820F4FE0048604FF41F00BD
:1049800088607047CF49096821F48031CD4A1160B1
:104990001146096821F480211160B0F5803F03D0F1
:1049A000B0F5802F0ED106E0C649096841F4803188
:1049B000C44A116007E0C349096841F4A021C14A13
:1049C000116000E000BF00BF704710B50146002233
:1049D000002300204A11012A02D1BA4C236806E0C4
:1049E000022A02D1B74C236A01E0B64C636A01F097
:1049F0001F02012494401C400CB1012000E0002063
:104A000010BD38B5002000900024002500BF3120E3
:104A1000FFF7DBFF05460098401C00900098B0F5BA
:104A2000A06F01D0002DF2D03120FFF7CEFF08B1EA
:104A3000012400E00024204638BD01460020A14AA0
:104A4000106820F0F80040EAC10010607047A049EB
:104A500008607047024600209A4B586820F47C108A
:104A600042EA01031843974B58607047984908661B
:104A7000704701460020934A506820F00300084325
:104A8000506070478F48406800F00C007047014646
:104A900000208C4A506820F0F000084350607047B6
:104AA00001460020874A506820F4E06008435060C7
:104AB000704701460020834A506820F4605040EA65
:104AC000C1005060704729B17E4A527A02437D4B43
:104AD0005A7204E07B4A527A82437A4B5A72704788
:104AE0007B49D8310860704701460020754A5068FC
:104AF00020F440400843506070470021714A203242
:104B00001170704A82F82010012802D004280AD1BE
:104B100004E001216B4A2032117005E00521694A49
:104B20002032117000E000BF00BF70476949086083
:104B300070476449096A0143624A116270476549D6
:104B400044390860704730B500210022002400235A
:104B50005C4D6D6805F00C0121B1042905D00829D0
:104B600023D105E05C4D056022E05B4D05601FE050
:104B7000544D6D6805F47012524D6D6805F4803423
:104B8000022505EB92421CB9544D554305600BE0DC
:104B90004C4D6D6805F400351DB1504D5543056011
:104BA00002E04D4D5543056002E04B4D056000BFEE
:104BB00000BF444D6D6805F0F0010909484D6B5C7C
:104BC0000568DD4045603F4D6D6805F4E061090A08
:104BD000434D6B5C4568DD4085603A4D6D6805F47A
:104BE0006051C90A3E4D6B5C4568DD40C560354D7E
:104BF0006D6805F44041890B3A4D6B5CC568B5FBA7
:104C0000F3F5056130BD29B12E4A526902432D4B9F
:104C10005A6104E02B4A526982432A4B5A61704719
:104C200029B1284A92690243264B9A6104E0254A39
:104C300092698243234B9A61704729B1214AD26914
:104C40000243204BDA6104E01E4AD26982431D4BC5
:104C5000DA61704729B11B4AD2680243194BDA6006
:104C600004E0184AD2688243164BDA60704729B1D3
:104C7000144A12690243134B1A6104E0114A126983
:104C80008243104B1A6170471249403908607047DF
:104C90000F49C86470470B49C87170470948406A9A
:104CA00040F0807007494862704701460020054A7D
:104CB00092680A400AB1012000E0002070470149D3
:104CC00088727047001002400000FFF8FFFFF6FEF8
:104CD000000042428004424200127A0000093D0076
:104CE000240600203406002010B50446E248844221
:104CF00009D101218803FFF7ADFF00214FF4804067
:104D0000FFF7A8FF32E0DD48844209D101214804C1
:104D1000FFF7ADFF00214FF40030FFF7A8FF25E0BB
:104D2000D748844209D101218804FFF7A0FF002160
:104D30004FF48020FFF79BFF18E0D248844209D14E
:104D40000121C804FFF793FF00214FF40020FFF773
:104D50008EFF0BE0CC48844208D101210805FFF703
:104D600086FF00214FF48010FFF781FF10BD2DE971
:104D7000F04786B005460E460024A24600BF00BF9D
:104D80000027B08900B100BF2F462C8A4CF6FF7077
:104D90000440F08804432C82AC894EF6F3100440A2
:104DA000B08831890843718908430443AC81AC8AD7
:104DB0004FF6FF400440B0890443AC8201A8FFF7DE
:104DC000C2FEAD48874202D1DDF810A001E0DDF857
:104DD0000CA00AEBCA0000EB0A1031688900B0FB96
:104DE000F1F86420B8FBF0F004012009642101FB14
:104DF0001089322000EB0910B0FBF1F000F00F0039
:104E000004432C8106B0BDE8F0874FF416510160D1
:104E100000218180C18001810C214181002181819B
:104E2000704710B502460020108A4FF2FF03184069
:104E30000B884C8823438C882343CC882343184316
:104E4000108210BD0021018041808180C1807047A7
:104E500021B1828942F40052828104E082894DF6B8
:104E6000FF731A4082817047F0B503460024002684
:104E70000025002040F66A17B94200D100BF18464D
:104E8000C1F3421401F01F06012707FA06F5012CB1
:104E900001D10C3004E0022C01D1103000E01430BC
:104EA0001AB107682F43076002E00768AF43076045
:104EB000F0BD1AB1838A0B43838202E0838A8B435D
:104EC00083827047028A4FF6F0731A400282028A88
:104ED0000A430282704782894FF2FF731A4082812F
:104EE00082890A438281704721B1828942F002029D
:104EF000828104E082894FF6FD731A4082817047F7
:104F0000028A4FF6DF731A400282028A0A43028243
:104F1000704721B1028A42F48042028204E0028A90
:104F20004BF6FF731A4002827047C1F30802828079
:104F3000704701468888C0F308007047818941F0B6
:104F4000010181817047028BD2B20283028B42EA57
:104F5000012202837047028B02F47F420283028B9C
:104F60000A430283704721B1828A42F02002828282
:104F700004E0828A4FF6DF731A408282704721B1C3
:104F8000828A42F01002828204E0828A4FF6EF7336
:104F90001A408282704721B1828A42F008028282DE
:104FA00004E0828A4FF6F7731A4082827047828A41
:104FB0004FF6FB731A408282828A0A4382827047CC
:104FC00021B1828A42F00202828204E0828A4FF694
:104FD000FD731A408282704702460020B1F5007FBF
:104FE00000D100BF13880B400BB1012000E000206E
:104FF000704701F40072B2F5007F00D100BFCA43D0
:105000000280704770B5024600240023002500206E
:1050100040F66A16B14200D100BFC1F3421501F05B
:105020001F03012606FA03F3012D02D196893340AE
:1050300006E0022D02D1168A334001E0968A334001
:105040000C12012606FA04F41688344013B10CB190
:10505000012000E0002070BD10B50022002340F6C2
:105060006A14A14200D100BF0A1201249440A3B2E5
:10507000DC43048010BD00000038014000440040C3
:1050800000480040004C00400050004010B504466D
:10509000C448844208D101210420FFF7DBFD002130
:1050A0000420FFF7D7FD46E0BF48844208D1012124
:1050B0000820FFF7CFFD00210820FFF7CBFD3AE0E5
:1050C000BA48844208D101211020FFF7C3FD002116
:1050D0001020FFF7BFFD2EE0B548844208D1012122
:1050E0002020FFF7B7FD00212020FFF7B3FD22E0CD
:1050F000B048844208D101214020FFF7ABFD0021D8
:105100004020FFF7A7FD16E0AB48844208D10121FB
:105110008020FFF79FFD00218020FFF79BFD0AE024
:10512000A648844207D101218015FFF793FD002195
:10513000A015FFF78FFD10BD10B501210846FFF740
:1051400089FD00210120FFF785FD10BD2DE9F0410B
:10515000024600250026002000230024002791F8A5
:1051600003C00CF00F0591F803C00CF0100CBCF15B
:10517000000F03D091F802C04CEA050591F800C079
:10518000BCF1000F31D0146800202BE04FF0010C6F
:105190000CFA00F3B1F800C00CEA03069E4220D1DD
:1051A00083004FF00F0C0CFA03F7BC4305FA03FC25
:1051B0004CEA040491F803C0BCF1280F06D14FF06B
:1051C000010C0CFA00FCC2F814C00AE091F803C00C
:1051D000BCF1480F05D14FF0010C0CFA00FCC2F8ED
:1051E00010C0401C0828D1D31460B1F800C0BCF135
:1051F000FF0F34DD546800202EE000F1080C4FF062
:10520000010808FA0CF3B1F800C00CEA03069E424C
:1052100021D183004FF00F0C0CFA03F7BC4305FAC1
:1052200003FC4CEA040491F803C0BCF1280F05D13B
:1052300000F1080C08FA0CF8C2F8148091F803C0C9
:10524000BCF1480F07D100F1080C4FF0010808FA33
:105250000CF8C2F81080401C0828CED35460BDE87A
:10526000F0814FF6FF710180022181700421C1702D
:1052700070470246002093680B400BB1012000E00C
:10528000002070470146886880B2704702460020BF
:10529000D3680B400BB1012000E0002070470146AD
:1052A000C86880B2704701617047416170470AB1B8
:1052B000016100E041617047C16070474FF4803286
:1052C0000A43826181618261826982697047024614
:1052D00000203B4B18684FF68073184040EA0210DC
:1052E0000843374B186070473649C8617047F0B5BE
:1052F0000A460023002400210025314E7168C0F3C6
:10530000034583B200F44016B6F5401F08D121F0E2
:1053100070612B4E766826F07066294F7E6012E031
:1053200000F48016B6F5801F06D1032606FA05F4B0
:10533000A14341F0706106E0460D360103FA06F61E
:10534000B14341F0706122B1460D360103FA06F611
:1053500031431B4E7160F0BD30B500228B071C0F2E
:105360000F2303FA04F2164B08338C1053F8243041
:105370009343134C08348D1044F8253023468C1089
:1053800053F824308C07240F00FA04F423430C4C08
:1053900008348D1044F8253030BD0A49DC310860EE
:1053A0007047000000080140000C0140001001405F
:1053B0000014014000180140001C01400020014081
:1053C000000001400000204210B50446FA48844223
:1053D00008D101214015FFF73DFC00216015FFF7C2
:1053E00039FC17E0F548844208D101210015FFF788
:1053F00031FC00212015FFF72DFC0BE0F048844222
:1054000008D10121C803FFF725FC00214FF400401B
:10541000FFF720FC10BD30B5024600200023506885
:10542000E84C20400D790C6844EA05242043506084
:105430009068E54C2040D1E902542C434D7944EA70
:10544000450420439060D06A20F470000C7C641EF8
:10545000E4B2234340EA0350D06230BD0021016032
:10546000017141718160C16001210174704721B1F6
:10547000826842F00102826003E0826822F0010249
:105480008260704721B1826842F48072826003E0DA
:10549000826822F480728260704710B50023CBB21C
:1054A0001AB144681C43446002E044689C43446071
:1054B00010BD816841F008018160704701460020FD
:1054C0008A6802F008020AB1012000E0002070475B
:1054D000816841F0040181607047014600208A68BC
:1054E00002F004020AB1012000E00020704721B15F
:1054F000826842F4A002826003E0826822F4A00283
:1055000082607047014600208A6802F480020AB176
:10551000012000E00020704710B50A46002100235A
:10552000416821F46041531E41EA4331416010BD9E
:1055300021B1426842F40062426003E0426822F412
:10554000006242607047F0B504460D46002000211D
:10555000092D11DDE068A5F10A0606EB46070726CE
:1055600006FA07F18843A5F10A0606EB460603FA98
:1055700006F10843E0600CE0206905EB45070726CB
:1055800006FA07F1884305EB450603FA06F10843DE
:105590002061072A0FDA606B561E06EB86071F266E
:1055A00006FA07F18843561E06EB860605FA06F151
:1055B0000843606322E00D2A0FDA206BD61F06EB4A
:1055C00086071F2606FA07F18843D61F06EB8606D4
:1055D00005FA06F10843206310E0E06AA2F10D0627
:1055E00006EB86071F2606FA07F18843A2F10D068F
:1055F00006EB860605FA06F10843E062F0BD21B12C
:10560000826842F48012826003E0826822F4801291
:10561000826070470146C86C80B2704766484C3063
:105620000068704721B1426842F48062426003E042
:10563000426822F480624260704721B1426842F4BD
:105640008052426003E0426822F480524260704718
:105650000A460021816821F4E041114381607047CE
:1056600021B1826842F40042826003E0826822F441
:1056700000428260704721B1826842F40212826067
:1056800003E0826822F40212826070470146002023
:105690008A6802F400120AB1012000E0002070477D
:1056A000F0B504461546002000220026092911DD28
:1056B000E068A1F10A0707EB470C072707FA0CF28D
:1056C0009043A1F10A0707EB470703FA07F21043DB
:1056D000E0600CE0206901EB410C072707FA0CF2AF
:1056E000904301EB410703FA07F210432061A06BDE
:1056F000C0F30156EF1C06F1010CA7EB0C0707EBFA
:10570000870C1F2707FA0CF29043EF1C06F1010CDF
:10571000A7EB0C0707EB870701FA07F21043A0631A
:10572000F0BD10B50A4600210023816B21F4401121
:10573000531E41EA0351816310BD08B50023009355
:105740000090009B0B440093009B1A6008BD08B5B5
:10575000024600200090009201F12800009B1844AE
:1057600000900098006880B208BD0A460021416898
:10577000164B194011434160704741628262704785
:105780000A460021416821F01F0111434160704722
:1057900040B109490831096841F40001064A08325C
:1057A000116007E004490831096821F40001024A48
:1057B00008321160704700000024014000280140B9
:1057C000003C0140FFFEF0FFFDF7F1FFFFFD3FFF52
:1057D0000246002013680B400BB1012000E00020BE
:1057E0007047CA430260704770B50246002000232C
:1057F00000240B125568CEB205EA060415681D4058
:1058000015B10CB1012000E0002070BD00220A1289
:10581000D34303607047000029B1504A1288024305
:105820004E4B1A8004E04D4A128882434B4B1A803B
:1058300070474A48001D008840F010004749091D84
:10584000088070474548001D00884FF6EF710840FA
:105850004249091D08807047002140481C300188DA
:10586000001F008841EA0040704700B50246FFF77C
:10587000E0FF100C394918310880091D0A80FFF734
:10588000E1FF00BD00B50246FFF7D3FFC2F30340BE
:10589000324908310880091D0A80FFF7D3FF00BD97
:1058A00000B50246FFF7C5FF100C2C4920310880D7
:1058B000091D0A80FFF7C6FF00BD002027491031EF
:1058C00009880907080B25491431098808437047DE
:1058D00000BF2248001D008800F020000028F8D0FA
:1058E00070471E48001D00884FF6F77108401B499D
:1058F000091D088000BF1948001D008800F008003D
:105900000028F8D0704701460020144A121D128862
:105910000A400AB1012000E0002070470F49091D2C
:10592000098881430D4A121D1180704701460020ED
:105930000A4A121D12880A40D0B2084A12880A4048
:1059400012B108B1012000E0002070470349091D91
:1059500009888143014A121D1180704700280040C8
:1059600010B50446BE48844208D101218014FFF7D7
:1059700071F90021A014FFF76DF916E0B9488442CF
:1059800008D101210014FFF772F900212014FFF75C
:105990006EF90AE0B448844207D10121C013FFF731
:1059A00066F90021E013FFF762F910BD10B500227F
:1059B000028802F441520B884C8823438C8823438D
:1059C000CC8823430C8923434C8923438C8923436C
:1059D000CC8923431A430280838B4FF2FF74234008
:1059E00083830B8A038210BD2DE9F04F85B00546F5
:1059F0000C464FF0000902274FF000084FF0010B52
:105A00000026B246A88B4FF240010840A88302202E
:105A10002884B5F81C902089022801D100BF38E005
:105A2000A08810B94FF0010B01E04FF0020B8D4838
:105A3000854200D100E000BF6846FFF784F8DDF83A
:105A400000A0E088B0F5007F0AD14FEA1A2000EBF1
:105A5000800040002189B0FBF1F0401D86B20BE0D0
:105A60004FEA4B10BAFBF0F000EB800040002189B8
:105A7000B0FBF1F0401D86B20A20B6FBF0F606F04E
:105A80000108A6EB0800C0F34F074FF6FF7000EACD
:105A90000828022F01DBFF2F02DD02274FF000084C
:105AA000E08840EA080038432884A08861890843D8
:105AB000618808432188084340F4006040EA0909EE
:105AC000A5F81C9005B0BDE8F08F00210180418051
:105AD0008180C180018141818181C1810721018251
