:020000040801F1
:10000000F8F100202D660108491C01084B1C01086D
:100010004F1C0108531C0108571C01080000000078
:100020000000000000000000000000005B1C010850
:100030005D1C0108000000005F1C0108611C010834
:1000400043660108436601084366010843660108E8
:1000500043660108436601084366010843660108D8
:1000600043660108436601084366010843660108C8
:1000700043660108436601084366010843660108B8
:1000800043660108436601084366010843660108A8
:10009000B573010843660108436601082108010899
:1000A00043660108252A01084366010843660108E2
:1000B0004366010843660108436601084366010878
:1000C0004366010843660108436601084366010868
:1000D0004366010843660108691C0108436601087C
:1000E00043660108436601084366010800F002F810
:1000F00000F085F80AA090E8000C82448344AAF13D
:100100000107DA4501D100F07AF8AFF2090EBAE83A
:100110000F0013F0010F18BFFB1A43F0010318473B
:10012000A8DE0100C8DE010010F8013B0A4413F00C
:10013000030408BF10F8014B1D1108BF10F8015B44
:10014000641E05D010F8016B641E01F8016BF9D133
:10015000002D15D010F8014B03F00C030C2BA1EB74
:1001600004040ABF10F8013BA4EB8314A4EB03249E
:1001700005F1010314F8016B5B1E01F8016BF9D561
:10018000914238BF10F8013BD1D3704700230024BF
:1001900000250026103A28BF78C1FBD8520728BF97
:1001A00030C148BF0B607047662918F00883642986
:1001B00014F00680752914F00380632914F0C187B8
:1001C000732914F0C687002070471FB59DE803000F
:1001D00015F026FA15F008FA04000020002117F0A7
:1001E00069F8401C60600020002117F04DF8E060C5
:1001F00015F0ECFC1FBD10B515F051FD10BD15F04C
:1002000081FD1146FFF7E1FF01F0C2FA16F0ACF8EC
:1002100003B4FFF7F0FF03BC07F0FEF9EFF309802A
:10022000704780F309887047EFF30880704780F3C8
:100230000888704740BA7047C0BA704710B50028A8
:1002400007DA0A07140EFE4A00F00F031B1FD454EE
:1002500003E00A07130EFB4A135410BD10B5044601
:10026000B4F1807F01D3012010BD24F07F40401EF7
:100270004FF0E02148610F214FF0FF30FFF7DEFF24
:1002800000204FF0E0218861072008610020EBE7A3
:1002900010B506F0B4F9EC480068401CEA49086063
:1002A0000CF05BFB03F05CFB1E2003F0AFFC0128AD
:1002B00004D1E6480068401EE4490860E44800882C
:1002C00038B94FF47A70E24908800120E14908709A
:1002D00004E0DF480088401EDD490880DE480068F1
:1002E000B0F57A7F0DD10020DB490860DB4800685B
:1002F000401CDA490860DA480068401CD8490860A8
:1003000004E0D5480068401CD3490860D348006821
:100310001E2802D10020D1490860D1480068D14987
:10032000884202D10020CE490860CF4800680A28E0
:1003300005D113F05AFE0020CB49086004E0CA48FA
:100340000068401CC849086010BDC848806940F07A
:100350001000C6498861C648406840F48030C449EE
:100360004860704700E0401E0028FCDC704710B574
:100370000446C4B1BD48406800F00C00082824D0F1
:10038000BA48406820F00300B84948600846406811
:1003900040F00200486000BFB448406800F00C0024
:1003A0000828F9D111E0B148406800F00C0060B1B4
:1003B000AE48406820F00300AC49486000BFAB483D
:1003C000406800F00C000028F9D11CB1A948FFF7E3
:1003D00045FF03E04FF4FA50FFF740FF10BD08B5AA
:1003E0000121052004F04EFA0120ADF80000102094
:1003F0008DF8030003208DF8020069469E4804F042
:10040000D7FC0220ADF8000000208DF803006946FB
:10041000994804F0CDFC0420ADF8000028208DF8A8
:1004200003006946944804F0C3FC0820ADF80000BE
:1004300000208DF8030069468F4804F0B9FC1020B5
:10044000ADF800008DF8030003208DF802001021A4
:10045000894804F05AFD6946874804F0A9FCE02069
:10046000ADF8000018208DF8030003208DF802007D
:100470002021814804F049FD80217F4804F045FD9A
:1004800069467D4804F094FC4FF48070ADF800009C
:1004900048208DF803006946774804F089FC012163
:1004A000092004F0EFF90120ADF8000048208DF894
:1004B00003006946714804F07BFC0220ADF800009F
:1004C00048208DF8030069466C4804F071FC202038
:1004D000ADF8000010208DF8030003208DF8020015
:1004E0002021664804F011FD6946644804F060FC70
:1004F0004020ADF8000010208DF8030003208DF897
:100500000200002240215D4804F003FD69465B487B
:1005100004F04EFC8020ADF8000010208DF80300A0
:1005200003208DF802008021544804F0EEFC694657
:10053000524804F03DFC4FF48070ADF800001020EC
:100540008DF8030003208DF802004FF480714B48B2
:1005500004F0DBFC6946494804F02AFC4FF40070C3
:10056000ADF8000010208DF8030003208DF8020084
:100570004FF40071414804F0C8FC69463F4804F05C
:1005800017FC4FF48060ADF8000048208DF80300A0
:1005900069463A4804F00CFC4FF40060ADF80000E6
:1005A00048208DF803006946344804F001FC4FF4FC
:1005B0008050ADF8000010208DF8030003208DF866
:1005C000020000224FF480512C4804F0A2FC69463E
:1005D0002A4804F0EDFB4FF40050ADF8000018205D
:1005E0008DF8030003208DF8020000224FF4005123
:1005F000224804F08EFC6946204804F0D9FB4FF4F1
:100600008040ADF8000018208DF8030069461B48B3
:1006100004F0CEFB4FF40040ADF8000048208DF808
:1006200003006946154804F0C3FB0121112004F0C2
:1006300029F9FF20ADF8000010208DF803001FE01D
:1006400018ED00E000E400E00400002008000020B5
:100650001E00002022000020380000203C00002066
:1006600040000020A0BB0D0044000020001002400C
:10067000001001404019010000080140000C014039
:1006800003208DF80200FF21FE4804F03EFC69467D
:10069000FC4804F08DFB4FF48070ADF8000048205A
:1006A0008DF803006946F74804F082FB4FF4806040
:1006B000ADF8000010208DF8030003208DF8020033
:1006C00000224FF48061EF4804F023FC6946ED48B6
:1006D00004F06EFB4FF40060ADF8000014208DF8BC
:1006E000030003208DF802004FF40061E54804F098
:1006F0000CFC6946E34804F05BFB4FF44050ADF856
:10070000000010208DF8030003208DF802004FF444
:100710008051DC4804F0FBFB4FF40051D94804F051
:10072000F6FB6946D74804F043FB0121212004F081
:10073000A9F80420ADF8000010208DF80300032074
:100740008DF8020000220421CF4804F0E2FB694644
:10075000CD4804F02DFB4FF40070ADF800001020E0
:100760008DF8030003208DF802004FF40071C54896
:1007700004F0CBFB6946C34804F01AFB4CF250303E
:10078000FFF7F0FD4FF48060ADF8000010208DF809
:10079000030003208DF802004FF48061B94804F093
:1007A000B4FB6946B74804F003FB4FF40070ADF8A2
:1007B000000004208DF803006946B44804F0F8FAFC
:1007C000B348806940F00100B1498861B148806850
:1007D000B0498860084680688860AF48006840F487
:1007E0000070AD490860AC480C38006840F40070F7
:1007F000A9490C3908600F211720FFF71FFD1720AA
:10080000012181404209920002F1E022C2F8001168
:1008100000BF08BD10B50AF0CFFF0AF0B1FF10BD50
:1008200010B50421994804F056FB10B99B48007894
:1008300040B199480830006840F0020096490831FC
:10084000086020E003F0A5FC0120FFF790FDFFF712
:10085000E1FF002401E000BF641C91488442FAD308
:100860000122D102874804F054FB4FF4806185488F
:1008700004F04DFB4FF40071824804F048FB01E0A6
:1008800005F0BDFEFCE710BD08B526208DF8000080
:1008900000208DF8020001208DF80300684603F067
:1008A0001AFE08BD02461004B0FBF1F07D4B1B6838
:1008B00018447C4B186018460068B0EB024F01D317
:1008C0000020186077480068000C70472DE9FC4153
:1008D0004FF47A7425E00AF06FFF012108460BF00F
:1008E00094F9714A002171A00BF0DFF91421012065
:1008F0000BF08BF9C4F57A7016F0DFFF0746002283
:100900006F4B16F0D3FD05462A460B466DA168468F
:1009100013F0F2FB644A002168460BF0C6F90AF0B6
:100920002FFF2000A4F10104D5D1BDE8FC8130B532
:10093000ADF5037D002400250AF0CAFD6348FFF7EA
:1009400011FD08F04AF90AF037FF002260A157A014
:100950000CF03FF800200AF02CFF002021237D221C
:100960001E21009001200BF086F80AF009FF0020FC
:100970000AF01FFF0120212314221E2100900BF0FA
:100980007AF80AF0FDFE05F03AFE4FF4007103A874
:1009900013F074FF05F033FE01F00EFF00200AF0A3
:1009A00008FF002021237D221E21009001200BF052
:1009B00062F80AF0E5FE00200AF0FBFE0120212388
:1009C0003C221E2100900BF056F80AF0D9FE05F0EB
:1009D00016FE0121182003F05DF900210C2003F020
:1009E00059F900211A2003F055F901210F2003F0D5
:1009F00051F905F004FE00200AF0DBFE002021235F
:100A00007D221E21009001200BF035F80AF0B8FE7F
:100A100000200AF0CEFE0120212364221E21009036
:100A20000BF029F80AF0ACFE05F0E9FD03F01BFC21
:100A300005460AF0C1FE002225A11CA00BF0C9FF4B
:100A400000200AF0B6FE002021237D221E21009006
:100A500001200BF010F80AF093FE00200AF0A9FE26
:100A6000012021237D221E2100900BF004F80AF0C2
:100A700087FE1848FFF776FC0AF09EFE0121084623
:100A80002AE000000010014000140140000801406D
:100A900000100240000001400C0401402C00002026
:100AA000FFFF1F008C000020E49E0208D4EEF0EC53
:100AB000E0F2E8F0EEE2E0EDE8E52E2E2E00000098
:100AC00000002440252E316625250000A086010067
:100AD00000000000C05C15000BF097F8FCA101A815
:100AE00013F00AFBFE4A002101A80BF0DEF80C21EE
:100AF00001200BF08AF8FBA101A813F0FDFAF84AD7
:100B0000002101A80BF0D1F80AF03AFE05F077FDBC
:100B1000F748FFF727FC0AF04FFE19211C200BF0C5
:100B200074F8F44A0021F4A00BF0BFF80AF028FE94
:100B3000EF48FFF717FC0021442005F0BEFC4FF4FE
:100B40000071F04804F0E3F901200DF5037D30BD9C
:100B5000ED48806940F00100EB49886108468069F2
:100B600040F004008861E948006840F44030E749FB
:100B700008600846006820F4402008601020E3491F
:100B800010310860E148006840F44010DF49086017
:100B90000846006820F4400008600846006840F4F9
:100BA000000008600846006820F0407008600846B1
:100BB000006820F0406008600846006840F000606F
:100BC00008604020D14910310860D048006840F0EA
:100BD0004050CE4908600846006820F04040086058
:100BE0000846006840F000400860C748806940F44B
:100BF0008050C54988610020C5498880042008804C
:100C00000846008840F0100008800846008840F43C
:100C1000807008800846008840F40070088008460C
:100C2000008840F040000880704710B5FFF790FF43
:100C3000002012F07BFF04460AF04AFC0446012023
:100C400010BD70B50646B348006800286DD1B249A2
:100C5000B248006817F00CFC28D24FF08041AF4832
:100C6000006817F005FD21D2AD480068F0B9AD4825
:100C70000078D8B90AF0A0FD142105200AF0C5FFBC
:100C8000974A0021A8A00BF010F81E2105200AF0B9
:100C9000BCFF934A0021A9A00BF007F80AF070FDF1
:100CA00001209F490860A948FFF75CFB9D48007838
:100CB000002839D1A648006817F016FA0446A54A5C
:100CC000A54B16F06BFE2FD80AF076FD14210520F7
:100CD0000AF09BFF824A0021A0A00AF0E6FF1E2135
:100CE00005200AF092FF7E4A00219FA00AF0DDFF56
:100CF0000AF046FD9F48FFF735FB0AF05DFD19211C
:100D00001C200AF082FF7B4A00217BA00AF0CDFF65
:100D10000AF036FD8D48FFF725FB01208049086069
:100D20004102784804F0F3F855E001F069FC0A2824
:100D300025D801F065FC022821D979480068F0B96E
:100D400078480078D8B90AF037FD142105200AF058
:100D50005CFF634A002174A00AF0A7FF1E21052052
:100D60000AF053FF5E4A002174A00AF09EFF0AF0C9
:100D700007FD01206A4908607448FFF7F3FA01F0A3
:100D80003FFC012827D86748007820BB64480068EA
:100D900008BB0AF011FD142105200AF036FF504A65
:100DA00000216EA00AF081FF1E2105200AF02DFF10
:100DB0004B4A00216CA00AF078FF0AF0E1FC6E4873
:100DC000FFF7D0FA0AF0F8FC0AF0DAFC4FF40071F1
:100DD0004C4804F09CF870BD10B5102002F016FFCE
:100DE0000446012C06D0022C0AD0042C0ED0082C6C
:100DF00014D111E0112002F009FF40EA04240FE0B1
:100E0000122002F003FF40EA042409E0132002F05C
:100E1000FDFE40EA042403E0240201E0002400BFB8
:100E200000BF56480068A04219D0A1B20A2002F0C3
:100E300031FF524804605248818C042002F02AFF9E
:100E40004F48818D052002F025FF4D48818E0620F8
:100E500002F020FF4A48818F072002F01BFF10BDDF
:100E600070B503F05DF988B303F086F8012003F054
:100E700031F904462146002002F00CFF032003F064
:100E800029F90546022003F025F900EBC00101EB2A
:100E9000001005EB800084B22146012002F0FAFE2A
:100EA000052003F017F90546042003F013F900EBC1
:100EB000C00101EB001005EB800084B22146022046
:100EC00002F0E8FE062003F005F95BE05FE00000B9
:100ED000D4EEF0ECE0F2E8F0EEE2E0EDE8E5000060
:100EE000E49E0208E7E0E2E5F0F8E5EDEE2E000012
:100EF00060E31600ECAC0208C2DBCACBDED7C5CD7E
:100F0000C8C5000000100140001002400008014068
:100F100000300140580000200000204178000020EF
:100F20003400002014000020C7E0F0FFE420E0EAD5
:100F3000EAF3ECF3EBFFF2EEF0E00000ECE5EDFCA1
:100F4000F8E520313025202E2E2E0000A025260089
:100F50007C000020CDCCCCCCCCCC0440C0EAEAF361
:100F6000ECF3EBFFF2EEF000F0E0E7F0FFE6E5ED8A
:100F70002E000000E0673500404B4C009000002040
:100F8000C287020804462146032002F083FE70BD9A
:100F900010B500220421FE4803F0BBFF01F04EFF14
:100FA00000210B2002F076FE082002F02FFE40F018
:100FB00001042146082002F06DFE46F2A811F54812
:100FC00001F027FF10BD10B502F092F9082002F0E1
:100FD0001DFE20F001042146082002F05BFE0B20DC
:100FE00002F014FE28B9EC48B0F85C100B2002F0B7
:100FF00051FE10BD10B50446E8480078002802DD17
:10100000E748E84908600421E74803F064FF10B1AD
:10101000E348E4490860E3480068002804DC4FF432
:101020000071E24803F073FF10BD2DE9FC5F192049
:1010300002F0ECFD064617F007FA0546DC4917F00A
:10104000EDF8DC4908600A2002F0E0FD40F20122E0
:10105000811A904243D010DCB0F5827F27D005DCA6
:10106000A0F2011098B101286FD118E0B0F5847F8B
:1010700025D0B0F5887FF7D129E001293BD003299D
:101080004ED0072962D0B1F5007FEDD173E0CA4997
:10109000C848006817F0C2F8C649086081E0C64930
:1010A000C448006817F0BAF8C249086079E0C2493C
:1010B000C048006817F0B2F8BE49086071E0BE4948
:1010C000BC48006817F0AAF8BA49086069E0BA4954
:1010D000B848006817F0A2F8B649086061E0B7495F
:1010E000B448006817F0F8F90546B34917F096F8C8
:1010F000B049086055E0AF48006816F0F5FFB04A07
:10110000B04BCDE9000116F085FC07460022AE4B3E
:1011100016F0CCF9054616F0E3F8A649086040E061
:10112000A448006816F0E0FFA54AA64BCDE90001EF
:1011300016F070FC05460022A34B16F0B7F90746DF
:1011400016F0CEF89B4908602BE029E0994800682A
:1011500016F0CAFF05469A4A9A4B16F05BFC00222D
:10116000994BCDE9000116F0A1F9074616F0B8F841
:101170009049086015E08F48006816F0B5FF0746F3
:10118000924A934B16F046FC05460022914B16F00E
:101190008DF9CDE9000116F0A3F88649086000E05A
:1011A00000BF00BF8C4801F0A4F8054681480168E3
:1011B000284617F091F981460A2002F027FD40F2F7
:1011C0000121884211D14946484617F085F98349E3
:1011D000019017F07FFA834616F086FF074616F057
:1011E0002DF8054616F07CF88146484617F0F4F8CD
:1011F00085B22946042002F04DFD774801F095F8AC
:101200008246754801F09CF80546754917F064F967
:1012100004462146504617F02BF900D2A2466548F5
:101220000168504617F058F982460A2002F0EEFC99
:1012300040F2011188420ED14FF08141504617F023
:1012400017FA06D24FF08141504617F043FA824612
:1012500001E04FF0000A0A2002F0D8FCB0F5817FCF
:101260000ED14FF08141504617F002FA06D24FF0EE
:101270008141504617F02EFA824601E04FF0000AF5
:101280000A2002F0C3FCB0F5827F0CD155495046CC
:1012900017F0EEF905D25349504617F01BFA824673
:1012A00001E04FF0000A0A2002F0B0FCB0F5847FA4
:1012B0000CD14D49504617F0DBF905D24A4950464A
:1012C00017F008FA824601E04FF0000A0A2002F007
:1012D0009DFC40F2012188420CD14449504617F050
:1012E000C7F905D24149504617F0F4F9824601E0AA
:1012F0004FF0000A0A2002F089FC40F202218842E5
:101300000ED14FF08241504617F0B2F906D24FF09D
:101310008241504617F0DEF9824601E04FF0000AA4
:101320000A2002F073FCB0F5017F0ED14FF082412C
:10133000504617F09DF906D24FF08241504617F003
:10134000C9F9824601E04FF0000A0A2002F05EFC73
:10135000B0F5027F0CD12649504617F089F905D225
:101360002349504617F0B6F9824601E04FF0000AD3
:101370000A2002F04BFC40F20141884242D11D4953
:10138000504617F075F93BD21A49504634E0000038
:1013900000140140F00D0020C2870208080600205A
:1013A000C02709000800002000080140001001408B
:1013B00000007A4424000020000040400000E44285
:1013C000D122DBF97EEA34400000084085EB51B8B9
:1013D0001EB9784000C0724050D100200000C843C0
:1013E000000080BF0000E0400000604100008C422F
:1013F000000020410000A04017F06CF9824601E097
:101400004FF0000A504616F0E7FF85B22946052046
:1014100002F040FCFE49484617F02AF905D2494639
:10142000504616F0FBFE824601E04FF0000AF949F3
:10143000504617F051F8064616F0CEFF85B2294601
:10144000072002F027FCF44800F085FF0546F3482A
:101450000168284617F040F882460021504617F0F0
:1014600007F801D24FF0000A0A2002F0CFFB40F249
:10147000011188420ED14FF08241504617F0F8F822
:1014800006D24FF08241504617F024F9824601E01F
:101490004FF0000A0A2002F0B9FBB0F5817F0ED1AF
:1014A0004FF08241504617F0E3F806D24FF08241E8
:1014B000504617F00FF9824601E04FF0000A0A206B
:1014C00002F0A4FBB0F5827F0CD1D549504617F04D
:1014D000CFF805D2D249504617F0FCF8824601E019
:1014E0004FF0000A0A2002F091FBB0F5847F0CD186
:1014F000CC49504617F0BCF805D2CA49504617F0FF
:10150000E9F8824601E04FF0000A0A2002F07EFB73
:1015100040F2012188420CD1C349504617F0A8F887
:1015200005D2C149504617F0D5F8824601E04FF088
:10153000000A0A2002F06AFB40F2022188420CD124
:10154000BA49504617F094F805D2B849504617F0FA
:10155000C1F8824601E04FF0000A0A2002F056FB73
:10156000B0F5017F0CD1B149504617F081F805D292
:10157000AE49504617F0AEF8824601E04FF0000A3F
:101580000A2002F043FBB0F5027F0CD1A749504678
:1015900017F06EF805D2A549504617F09BF8824621
:1015A00001E04FF0000A0A2002F030FB40F2014156
:1015B00088420CD19E49504617F05AF805D29C49F2
:1015C000504617F087F8824601E04FF0000A504677
:1015D00016F002FF85B22946062002F05BFBBDE84B
:1015E000FC9F70B5044665682E462068FEF71FFE16
:1015F000A4F100614FF0006002F09FFFB04770BDA2
:101600002DE9F84F01F02CF8824616F01DFF8146B7
:101610004FF08B4116F002FE044616F065FD0746BA
:101620004FF06632834B16F0F5F9054615F058FE7B
:101630008149086008460168804817F04BF87E49E8
:1016400008607F497C48006816F0E8FD804616F087
:101650004BFD06467B4A7C4B16F0DCF9044615F040
:101660003FFE7549086001F025F8009016F0ECFE89
:1016700083464FF08B4116F0D1FD824616F034FDC3
:1016800080464FF066326B4B16F0C4F906466F4A3F
:101690006F4B16F0BFF9044615F022FE6D49086045
:1016A0006D48006816F0B8FE05466C48016828468B
:1016B00017F010F804466A4916F0B0FD6949086051
:1016C0006548006816F0A8FE64490860654801682E
:1016D0005948006816F000FF0446634916F09EFD65
:1016E0006249086062480068012807D1084601681D
:1016F0006048006816F024FD5E4908605C48006898
:1017000038B95A4801685B48006816F0E3FF594948
:1017100008601F2002F07AFA18B957485749086044
:1017200002E05748554908604A48006816F0DCFC5A
:101730000446544A544B16F031F903D8002053495B
:1017400008600CE033494B48006816F0C5FE0446BB
:101750004A480168204616F061FD4C49086045483A
:10176000006816F0C1FC0646494A4A4B15F09EFE39
:10177000804615F0BFFC044616F02CF81FFA80FADC
:101780005146282004F099FE3A480068BDE8F88FD9
:101790008CB000BF002400BF00BF00203E4908708D
:1017A000FEF71DFE3D48FEF7DDFD3C48FEF7DAFD85
:1017B0003A48FEF7D7FD01229102394803F0A9FB10
:1017C0003648FEF7CFFD3548FEF7CCFD3348FEF72F
:1017D000C9FD02F04FFE0120FEF7C9FD00F0DAFD61
:1017E0000AF001F801202F49086002F083FB28B9B4
:1017F0002D48006840F001002B490860FFF715FAFA
:1018000020B92948006840F004004FE050E0000093
:101810000000A0400000C84250D100202400002059
:10182000000060410000F041000002430000A041C0
:101830000000204166660A40600000203333D33F39
:10184000A4709D407B14AE47E17AF03FE17A14AE7C
:1018500047E100407C0000200400002068000020D8
:1018600000007A4464000020000061456C00002004
:101870005C000020700000209A99193F840000202D
:101880009A99993FCDCCCCCCCCCC044078000020A8
:1018900025D910F84533F33E14000020A08601003E
:1018A00000100140300000200C000020C7490860F3
:1018B000684607F098F930226946C54812F082FF61
:1018C00005F016FC02F0CDFA28B9C048006840F0D7
:1018D0000200BE4908600AF012FA09F051FFBD4843
:1018E000FEF740FD142000F08FFF0BF0AAF8002057
:1018F000FEF73DFD012002F072F930B9022002F03E
:101900006EF910B980200BF099F8192002F07EF9D9
:10191000064616F099FD0546AF4916F07FFCAF4923
:101920000860AF49AD48006816F078FCAB49086024
:101930000C2004F0CEFDAB490880442004F0C9FD22
:10194000A94908604FF40041A84803F0C4FAA84927
:101950000860282004F0BDFD824616F075FD814622
:1019600016F0C2FB0746A34AA34B16F053F80546F0
:1019700015F0B6FCA14908601F2002F047F918B91C
:101980009F48A049086002E09F489E4908609F491F
:101990009A48006816F0A0FD05469A480168284656
:1019A00016F03CFC9A4908609148006830B9084636
:1019B000006816F0F5FC9749086003E000F020FE8F
:1019C000944908604FF40041884803F084FA0128E4
:1019D0000CD10820904908801020C87008218F4839
:1019E00003F095FA8C498D4803F0E2F945F2555021
:1019F00004F0FCFD062004F0FCFD4FF4806004F0D0
:101A0000FBFD04F001FEDFE08548007850B3754827
:101A10000088B0F5616F18D10E2002F0F7F8714917
:101A20000880084600884FF6E851884209DA6D4878
:101A30000088401C80B26B4A108001460E2002F0E4
:101A400029F900206749088004E066480088401CA6
:101A500064490880002072490870624801880C209F
:101A600004F02BFDFFF7CCFD6E480068002873D111
:101A700001206D49086000206C4908704FF48051C6
:101A80006B4803F044FA4FF40051694803F03FFA01
:101A90006848007830B9042002F08DF810B90120B0
:101AA000644908706348007801280ED1802002F054
:101AB00082F850B902205F4908705F48007820B969
:101AC0000120FEF754FCFFF763FA5A480078022819
:101AD00006D1042002F06FF810B9032055490870B0
:101AE00054480078032806D1802002F064F810B929
:101AF0000020504908704F48007840B9FFF763FA5A
:101B000001F012FC00B9641C0020FEF730FC082034
:101B100002F07CF800F0010000280FDD0A2002F03E
:101B200075F8B0F5006F07D101F006FC05462946AF
:101B30000B2002F0AFF801E0FFF777FA3F4800789A
:101B400000280ADD082002F061F840F00805294667
:101B5000082002F09FF809E018E0082002F056F88B
:101B600020F008052946082002F094F800203349A7
:101B700008700EF074FC30B11E2002F047F8012806
:101B800001D1FFF737FAFFF727F91DE01E2002F019
:101B90003DF8012801D1FFF72DFA2948007880B9D6
:101BA0002848FEF7DFFB2648007818B902200EF01F
:101BB000B5F909E001200EF0B1F900201A490860DA
:101BC00002E001200EF0AAF91EE700000C00002040
:101BD000E00B0020404B4C0000007A442400002021
:101BE0000000964320000020CC060020000C01409D
:101BF0005800002025D910F84533F33E700000202E
:101C00009A99193F840000209A99993F0000C84290
:101C100078000020480000208800002000080140D3
:101C200022000020100000205C0000202C0000207A
:101C300000100140140000209C060020D400002069
:101C40004706002080969800704700BFFEE700BF5F
:101C5000FEE700BFFEE700BFFEE770477047704732
:101C600010B5FEF715FB10BD10B540F225510F4819
:101C700002F0FAFF48B10D4802F08DFF0C490870E0
:101C800008460178094802F082FF40F226610748C1
:101C900002F0EAFF40B14021044802F0DCFF0448B2
:101CA0000078401E0249087010BD0000004400404A
:101CB000940000202DE9F04106460F461446F948ED
:101CC0000078012802D10020BDE8F081022C00DC60
:101CD0000CB90020F8E7F34801780078401CF14A7D
:101CE000107001EB810000EBC100EF4901EB8005B2
:101CF0002C704FF0000800BF002105F11C0040F8D7
:101D000024100C3040F8241056F82410281D40F8F8
:101D1000241057F824100C3040F8241034B1281D3A
:101D200050F82410404616F00BFA804605F11000DA
:101D300050F82410404616F003FA8046201EA4F105
:101D40000101CCB2D8DC2846BEE72DE9F0470446B5
:101D50000D460026E1692162A16AE162E561A168A0
:101D6000E06A16F0B9FB80466169206A16F0B4FBA0
:101D700081462169E06916F0AFFB8246494616F0BC
:101D8000DFF90746414616F0DBF90646A662A06A6F
:101D9000BDE8F0872DE9F84F04460D460026216A7C
:101DA0006162E16A2163E1692162A16AE162E56140
:101DB000E168206B16F090FB8146A168E06A16F09E
:101DC0008BFB8246494616F0BBF90746A169606A5B
:101DD00016F082FB00906169206A16F07DFB824656
:101DE0002169E06916F078FB8346514616F0A8F9A0
:101DF0008146009916F0A4F98046394616F0A0F9FC
:101E00000646A662A06ABDE8F88F2DE9BF4F82465C
:101E10008B461446A5480078062803D1002004B05C
:101E2000BDE8B08F022C00DC0CB90020F7E79F481A
:101E300001780078401C9D4A107001EB810000EB96
:101E4000C1009B4901EB800989F80040002500BFD3
:101E5000002109F11C0040F824100C3040F8241037
:101E60000AEBC40000224FF08043D0E900713846ED
:101E700015F094FD21D20AEBC40000224FF040433C
:101E8000D0E90071384615F0C3FE16D20AEBC40043
:101E90000022884BD0E90071384615F0BBFD0022C6
:101EA000854BCDE9000115F0B5FDCDE9020115F036
:101EB000A8F909F1040141F824000BEBC400002249
:101EC0004FF08043D0E90071384615F067FD21D20C
:101ED0000BEBC40000224FF04043D0E900713846BC
:101EE00015F096FE16D20BEBC401D1E90071002269
:101EF000704B384615F08EFD00226F4BCDE9000186
:101F000015F088FDCDE9020115F07BF909F110010A
:101F100041F8240024B109F1040050F824004519C7
:101F200009F1100050F824004519201EA4F1010108
:101F3000CCB28DDC484672E70146002009E0002360
:101F400001F11C0242F820300C3242F82030421CD1
:101F5000D0B20328F3DB70472DE9FC5F06468946C3
:101F60001546002434E006EBC4000022514BD0E9B2
:101F70000071384615F04EFD00224F4BCDE90001AF
:101F800015F048FD824615F03CF9291D41F8240062
:101F900009EBC4000022474BD0E90071384615F028
:101FA00039FD82460022444B15F034FDCDE9000195
:101FB00015F027F905F1100141F82400002105F181
:101FC0001C0040F824100C3040F82410601CC4B2EF
:101FD0002878401CA042C6DCBDE8FC9F2DE9F043F8
:101FE000024600BF156A5562D56A1563D569156248
:101FF000956AD562D1611569D06980FB0550176A71
:10200000566987FB0667AD197841576A966987FB61
:102010000667AE197841D76A956887FB0597D2F8AD
:102020000CC0D2F8308088FB0CC83D4619EB0C0779
:1020300045EB0805F31940EB05044FF000569E19D7
:1020400044F10000850045EA96709062906ABDE810
:10205000F083F0B5024600BFD5691562956AD56276
:10206000D1611569D06980FB0550176A566987FBF5
:102070000667AD197841D76A966887FB0667AB1982
:1020800040EB07044FF00057DE1944F100008500D3
:1020900045EA96709062094D906AA84210DD284684
:1020A000F0BD000095000020800C0020960000206C
:1020B000B40C00200000F0400000D0400080FF3F42
:1020C000906AB0F1404F02DA4FF04040E8E7906A82
:1020D000E6E72DE9F043024600BF156A5562D56A6E
:1020E0001563D5691562956AD562D1611569D069A4
:1020F00080FB0550176A566987FB0676ED1970411B
:10210000576A966987FB0667AE197841D76A956862
:1021100087FB05C5D2F83080D76888FB0787B946AA
:102120001CEB080745EB0905F31940EB05044FF0DC
:1021300000569E1944F10000850045EA96709062B1
:102140008F4D906AA84202DD2846BDE8F083906A70
:10215000B0F1404F02DA4FF04040F6E7906AF4E702
:102160002DE9F047034600BF1E6A5E62DE6A1E6309
:10217000DE691E629E6ADE62DA611E69D86980FBD2
:102180000670D3F820C05E698CFB06C6B04617EB1C
:102190000C0640EB0800D3F824C09F698CFB077C39
:1021A000F71940EB0C00D3F82CC09E688CFB068618
:1021B000D3F80CC0D3F8309089FB0C9CE24618EBA6
:1021C000090C46EB0A0617EB0C0440EB06054FF032
:1021D000005C14EB0C0745F10000860046EA97709E
:1021E000986200BF0E6A4E62CE6A0E63CE690E62BE
:1021F0008E6ACE62986AC8610E69C86980FB0670F3
:10220000D1F820C04E698CFB06C6B04617EB0C0611
:1022100040EB0800D1F824C08F698CFB077CF719CC
:1022200040EB0C00D1F82CC08E688CFB0686D1F8F0
:102230000CC0D1F8309089FB0C9C18EB090846EBD8
:102240000C0617EB080440EB06054FF00056A619E4
:1022500045F10000870047EA96708862484E886A18
:10226000B04202DD3046BDE8F087886AB0F1404FE9
:1022700002DA4FF04040F6E7886AF4E74181002334
:10228000036043600022C26002618261C261028118
:1022900080F8282002624262704730B5C2688A42E4
:1022A00000DAC16002698A4200DD016101F5804205
:1022B000D11381FB0153D0E9004264195A41C0E9AE
:1022C00000420289521C0281028943899A420FDB33
:1022D000D0E90023C0E90623C268026202694262B3
:1022E0000022C260026102604260028180F8282000
:1022F00030BD2DE9FC478046B8F80A0015F0F4FA25
:1023000004460D46D8E90621104615F001FB0646A5
:1023100022462B4615F0CAF8814614F08FFFCDE90E
:10232000000114F0DDFFBDE8FC8770B50446206AAB
:1023300016F072F805464FF08E4115F06FFF70BD34
:1023400070B50446606A16F067F805464FF08E4196
:1023500015F064FF70BD70B504462046FFF7F0FF2E
:1023600005462046FFF7E1FF0646294616F0B2F97A
:1023700070BD014691F8280000F001007047000090
:102380000080FF3F10B5044621464FF4007002F074
:1023900079FA10BD00B585B0012140F2012002F0AC
:1023A00071FA002000908DF804008DF805004FF4BC
:1023B000602002900020039001208DF810006946F3
:1023C000D14802F05AFE072301220321CE4802F031
:1023D000ECFE0121CC4802F07CFECB4802F09BFED3
:1023E00000BFC94802F09CFE0028FAD1C64802F09E
:1023F000A1FE00BFC44802F0A2FE0028FAD10120CD
:1024000002F0F8FF0021C04802F063FE05B000BDF5
:102410002DE9F04100240025002780260120FFF748
:10242000B1FF0121B84802F054FE07230122112117
:10243000B54802F0BAFE00BF0EE00121B24802F03A
:1024400088FE00BF0221B04802F0F4FF0028F9D056
:10245000AD4802F011FF05443000A6F10101CEB2F3
:10246000EBD1ED094FF49600B0FBF5F707230122FD
:102470001146A54802F099FE80260EE00121A248EF
:1024800002F067FE00BF02219F4802F0D3FF002840
:10249000F9D09D4802F0F0FE04443000A6F101019D
:1024A000CEB2EBD10021984802F013FE0020FFF7D6
:1024B00069FFE40904FB07F04FF4006101EB400001
:1024C00040F6FF71B0FBF1F42046BDE8F08110B595
:1024D000FFF79EFF044641F23600844201D964248E
:1024E0000DE040F61C40844201D2002407E0A4F62F
:1024F0001C446420604340F21A41B0FBF1F483486D
:10250000008864280CD1824800686421B0FBF1F097
:102510008049087000207E4908607C49088004E0FA
:102520007B48006820447A49086078480088401C4D
:102530007649088077480078FA2801D175490C70EF
:102540007448007810BD2DE9F041002400250027D3
:1025500080260120FFF716FF01216B4802F0B9FD2C
:10256000072301221121684802F01FFE00BF0EE080
:102570000121654802F0EDFD00BF0221624802F032
:1025800059FF0028F9D0604802F076FE054430007B
:10259000A6F10101CEB2EBD1ED095F48B0FBF5F732
:1025A000072301221146584802F0FFFD80260EE065
:1025B0000121554802F0CDFD00BF0221524802F032
:1025C00039FF0028F9D0504802F056FE044430008C
:1025D000A6F10101CEB2EBD100214B4802F079FD0A
:1025E0000020FFF7CFFEE40904FB07F040F6CA0124
:1025F00001EB40004900B0FBF1F42046BDE8F0815A
:1026000010B5FFF7A0FF0446B4F5616F01D964244B
:102610000CE0B4F5486F01D2002407E0A4F548644B
:10262000642060434FF4C871B0FBF1F4204610BD44
:1026300010B5FFF788FF0446B4F57A6F01D964241A
:102640000CE0B4F5486F01D2002407E0A4F548641B
:10265000642060434FF44871B0FBF1F4204610BD94
:1026600070B50026002480250120FFF78BFE012194
:10267000254802F02EFD072301220321224802F003
:1026800094FD00BF0EE001211F4802F062FD00BF73
:1026900002211D4802F0CEFE0028F9D01A4802F0AF
:1026A000EBFD04442800A5F10101CDB2EBD1E40912
:1026B000204670BD70B50026002480250120FFF75C
:1026C00061FE0121104802F004FD0723012211469A
:1026D0000D4802F06AFD00BF0EE001210A4802F039
:1026E00038FD00BF0221084802F0A4FE0028F9D0FE
:1026F000054802F0C1FD04442800A5F10101CDB256
:10270000EBD1E409204670BD00240140A000002068
:102710009C00002098000020C06552007047F0B572
:10272000ADF50D7D04460D461746002011F0AEFABA
:1027300006462EB1012230A168460FF0F3F9064695
:1027400072B671B6012322462946002011F0E9FA3B
:10275000064662B661B6002227A110460FF0E2F9E4
:10276000064601200DF50D7DF0BD2DE9F041044632
:102770000D461746002011F089FA06462EB10122B7
:102780001DA11E480FF0CEF9064672B671B60123A0
:1027900022462946002011F080FA064662B661B64C
:1027A000002215A110460FF0BDF906460120BDE834
:1027B000F08101460120704710B572B671B603F082
:1027C0001EFF01220CA10D480FF0ACF900221146AA
:1027D00009A010F0D5FA03F012FF09A010F00FFACB
:1027E00003F00DFF002204A110460FF09BF962B622
:1027F00061B6012010BD0000303A000068070020DB
:1028000050494F4E2D33000010B58AB004460121C7
:10281000C80202F037F8012C04DD601E80B2ADF86A
:10282000200002E00120ADF820004720ADF81C0098
:102830000020ADF82200ADF81E008DF8240007A995
:10284000FE4803F0A7F80121FC4803F009FE192017
:102850008DF8180000208DF819008DF81A0001205D
:102860008DF81B0006A801F036FE0121880302F056
:1028700016F80020ADF804004FF48270ADF80600A1
:102880000020ADF808000220ADF80A000120ADF8E4
:102890000C004002ADF80E000020ADF81000ADF8BD
:1028A00012000720ADF8140001A9E54802F0B0FEBF
:1028B0000222E44901F11800FFF7A7FAE249086093
:1028C0000222E24901F11800FFF79FFAE04908608F
:1028D0000222E04901F11800FFF797FADE4908608B
:1028E0000222DE4901F11800FFF78FFADC49086087
:1028F0000222DC4901F11800FFF787FADA49086083
:102900000222D84901F11800FFF77FFAD749086081
:102910000AB010BD10B500244FF48050D4490860AF
:102920000860086008600860086008600860086067
:102930000860086008600860086008600860086057
:102940000860086008600860086008600860086047
:102950000860086008600860086008600860086037
:102960000860086008600860086008600860086027
:102970000860086008600860086008600860086017
:102980000860086008600860086008600860086007
:10299000FF21AB4802F012FF00BFA94808300088B1
:1029A00000F002000028F8D0FF21A54802F006FF41
:1029B00000BFA3480830008800F001000028F8D0CC
:1029C0009F4802F0FDFE044600BF9D480830008885
:1029D00000F002000028F8D0FF21994802F0EEFE36
:1029E00000BF97480830008800F001000028F8D0A8
:1029F000934802F0E5FE40EA042400BF9048083006
:102A0000008800F001000028F8D08D4802F0D8FEC0
:102A100040EA04244FF480509549091F0860A40837
:102A2000A0B210BD70B54FF40061924802F06DFA8B
:102A3000192001F0EBF8054615F006FD04468E4915
:102A400015F0ECFB8D49086001217C4803F008FD7E
:102A5000FFF760FFA0F5004089490860084601685B
:102A600088480078884A12781040884A42F8201036
:102A700084480078401C83490870084600788249E1
:102A80000978084000286ED17F480078012808D1D5
:102A900010460068114649680844401078490860AB
:102AA0000DE07A480068794949680844774989689F
:102AB00008447649C9680844801071490860704824
:102AC000006847F6F461884204DC6D4800684942BA
:102AD000884205DA6E48006810B901206D49087017
:102AE00067480068C003664908606B48008840F288
:102AF0000122811A904276D010DCB0F5827F48D056
:102B000005DCA0F20110C8B101286DD12CE0B0F5B0
:102B1000847F53D0B0F5887FF7D166E007296FD066
:102B200004DC01296DD00329EFD1D5E0B1F5007F98
:102B300068D0A1F2FF510029E7D122E15048026894
:102B40004348016840480068FFF70AFB4C490860A9
:102B500008460268424801683F480068FFF700FBEA
:102B60004749086019E14DE1454802683848016865
:102B700035480068FFF7F4FA4149086008460268E2
:102B80003748016834480068FFF7EAFA3C490860B2
:102B900003E13B4802682E4801682B480068FFF7B4
:102BA000DFFA37490860084602682D4801682A485C
:102BB0000068FFF7D5FA32490860EEE03048026855
:102BC0002348016820480068FFF7CAFA2C490860CA
:102BD00008460268224801681F480068FFF7C0FAEB
:102BE00027490860D9E00EE0D6E0254802681C4875
:102BF000016819480068FFF7B3FA21490860CCE082
:102C000085E04EE09EE01E480268114801680E48CB
:102C10000068FFF7A5FA1A490860084601681248DB
:102C20000068FFF756FA16490860084602680C4823
:102C3000016809480068FFF793FA2FE0002C014073
:102C40000038004040010020F00500207001002005
:102C5000F4050020C0020020F8050020F00200204A
:102C6000FC050020A004002000060020040600202F
:102C7000140C01400008014000007A44D8000020F4
:102C8000C4000020DC000020DD00002040D1002036
:102C9000CC000020D4000020C8000020FE490860BD
:102CA0007BE0FD480268FD480168FD480068FFF7C9
:102CB00057FAF949086008460168FA480068FFF7C2
:102CC00008FAF549086008460168F7480068FFF708
:102CD000C0F9F149086060E0EF480268EF48016818
:102CE000EF480068FFF73CFAEB49086008460168C6
:102CF000EC480068FFF7EDF9E7490860084601680D
:102D0000E9480068FFF7A5F9E349086045E0E248B3
:102D10000268E2480168E2480068FFF721FADE49EC
:102D2000086008460168DF480068FFF7D2F9DA4911
:102D3000086008460168DC480068FFF78AF9D64950
:102D400008602AE0D4480268D4480168D448006882
:102D5000FFF706FAD049086008460268D3480168C0
:102D6000D1480068FFF7FCF9CB49086008460268C3
:102D7000CF480168CB480068FFF7F2F9C649086000
:102D80000BE0C5480268C9480168C7480068FFF7FA
:102D9000E7F9C149086000E000BF00BFC54800680E
:102DA00028B1C4480068401EC249086070BDBA48D6
:102DB0000168C148FFF771FAC0480088002821DD8A
:102DC000BE480088401EBD490880B348006815F021
:102DD00023FB0546BA480168284615F07DFB0446EA
:102DE00015F0DEFAB74908600846006800F5804033
:102DF000C01300B2B44909680880B3480068801C59
:102E0000B14908604FF40061B04802F080F800BF9B
:102E1000CCE70022A94B1A80AB4A1060AC4A118063
:102E200002E0002220F811200A00A1F1010399B26A
:102E3000F7D1A74A1288A14B1A80704710B500201D
:102E40009E49088001221103A24802F062F8002086
:102E5000A149086048608860C860A049087046F2CF
:102E6000A810944908600A2000F0D0FE9C49088010
:102E70008B480068FFF760F888480068FFF75CF847
:102E800089480068FFF758F888480068FFF754F849
:102E900084480068FFF750F885480068FFF74CF851
:102EA0008F48008840F20122811A90427DD010DCC8
:102EB000B0F5827F67D005DCA0F20110C8B101280F
:102EC00074D13BE0B0F5847F71D0B0F5887FF7D145
:102ED000AAE007296CD004DC01296AD00329EFD1CC
:102EE0005EE1B1F5007F65D0A1F2FF510029E7D185
:102EF000D3E16B487B49026801F11800FFF72CF819
:102F000066487949026801F11800FFF725F866481C
:102F10007649026801F11800FFF71EF8634874490A
:102F2000026801F11800FFF717F8032071490870D3
:102F300046F2A8116048FFF7A1F9CAE158486E4966
:102F4000026801F11800FFF707F854486B4902685E
:102F500001F11800FFF700F853486949026801F1D0
:102F60001800FEF7F9FF51486649026801F11800A0
:102F7000FEF7F2FF01205F49087046F2A8114E48A3
:102F8000FFF77CF9A5E146485F49026801F11800A6
:102F9000FEF7E2FF41485D49026801F11800FEF7C3
:102FA000DBFF41485649026805E062E090E116E027
:102FB0001BE1D0E03EE101F11800FEF7CDFF3B48F8
:102FC0005049026801F11800FEF7C6FF0120494987
:102FD000087046F2A8113848FFF750F979E13048F7
:102FE0004B49026801F11800FEF7B6FF2B4849492A
:102FF000026801F11800FEF7AFFF2B484049026854
:1030000001F11800FEF7A8FF28483E49026801F1C7
:103010001800FEF7A1FF01203649087046F2A811FA
:103020002548FFF72BF954E11D483B49026801F19F
:103030001800FEF791FF19483849026801F118009D
:10304000FEF78AFF18482E49026801F11800FEF7C2
:1030500083FF16482B49026801F11800FEF77CFF38
:1030600001202449087046F2A8111348FFF706F919
:103070002FE10B481B49026801F11800FEF76CFFB5
:1030800006481949026801F11800FEF765FF064875
:103090001649026844E00000C4000020F405002046
:1030A000F005002000060020F8050020FC050020A7
:1030B00004060020CC00002050D10020C0000020D9
:1030C000D8000020D0000020BC00002000080140F3
:1030D000C2000020000C014040D10020DC00002094
:1030E000C8000020B0030020E0030020C002002040
:1030F000F0020020DD0000204001002070010020CF
:103100002003002050030020A0010020D001002057
:103110000002002030020020600200209002002007
:1031200001F11800FEF718FFFD48FE49026801F1A1
:103130001800FEF711FFFC48FC49026801F1180075
:10314000FEF70AFF0320FA49087046F2A811F94871
:10315000FFF794F8BDE0F848F849026801F118005B
:10316000FEF7FAFEF648F749026801F11800FEF78B
:10317000F3FEF548F549026801F11800FEF7ECFE90
:10318000E948F349026801F11800FEF7E5FE012065
:10319000E749087046F2A811E648FFF76FF898E093
:1031A000E548EC49026801F11800FEF7D5FEE44855
:1031B000E949026801F11800FEF7CEFEE248E34952
:1031C000026801F11800FEF7C7FED748E04902681F
:1031D00001F11800FEF7C0FE0120D549087046F243
:1031E000A811D448FFF74AF873E0D348DB490268D6
:1031F00001F11800FEF7B0FED148D949026801F18B
:103200001800FEF7A9FED048D049026801F1180065
:10321000FEF7A2FEC448CE49026801F11800FEF78D
:103220009BFE0120C249087046F2A811C148FFF771
:1032300025F84EE0C048CB49026801F11800FEF7BE
:103240008BFEBF48C849026801F11800FEF784FEF2
:10325000BD48C649026801F11800FEF77DFEB0487E
:10326000C349026801F11800FEF776FEAE48C14975
:10327000026801F11800FEF76FFEBF48BF490268FF
:1032800001F11800FEF768FE0320A949087046F214
:10329000A811A848FEF7F2FF1BE0AB48B849026846
:1032A00001F11800FEF758FE9D489E49026801F1A1
:1032B0001800FEF751FE01209D4908704FF224408E
:1032C000B049086046F2A8119A48FEF7D7FF00BF40
:1032D00000BF00BF0121AC4802F03FFA0121AB481A
:1032E00002F0E4FD01221146A84802F0FAFD10BDEB
:1032F00010B50020A649087000220121A34802F061
:10330000F0FD0021A14802F0D1FD01219F4803F00A
:10331000A7F800219C4802F020FA00224FF48051C7
:103320009C4801F0F6FD10BD9B480088002801DD97
:10333000012070470020FCE79848008800280CDD39
:103340009648008894490988401A64214843934963
:103350000988B0FBF1F0C0B270470020FCE700B56F
:1033600000BFFFF7E1FF0128FBD000BD2DE9F74FBB
:1033700086B0894692460120FCF7F9FF45F6C05118
:103380006C48FEF77BFF86A1069811F046F983464C
:10339000BBF1000F7DD000220421584611F072F8D5
:1033A0000DE0BDF910004FF48041C1EBC0344FF483
:1033B000967094FBF0F529465E48FEF76EFF5B467B
:1033C0000122022104A812F027FF0128E9D0594860
:1033D000FEF7ABFF734908600868734915F07CF885
:1033E000054614F0F9FFA9F800006E4908686E4917
:1033F00015F072F8054614F0EFFF80B2ADF80C003E
:1034000000220421584611F03DF845F6C0514948C4
:10341000FEF734FF48485149026801F11800FEF7F1
:103420009BFD47484E49026801F11800FEF794FDE4
:1034300045484649026801F11800FEF78DFD3A48FB
:103440004349026801F11800FEF786FD31E0BDF93D
:1034500010004FF48041C1EBC03422463848016867
:1034600035480068FEF77CFE044621462E48006879
:10347000FEF72FFE0446214633480068FEF7E9FDBB
:103480000446204614F019FA484A494BCDE9000198
:1034900000E033E014F0BEFA07460022454B14F07A
:1034A00005F8054614F096F9014602902148FEF70A
:1034B000F4FE5B460122022104A812F0ADFE0128B1
:1034C000C5D01C48FEF715FF3649486048683649A4
:1034D00015F002F8054614F07FFFAAF80000314904
:1034E0004868314914F0F8FF054614F075FF80B2C2
:1034F000ADF80E00584611F0B7F804E00020A9F826
:103500000000AAF800004FF4FA70A9F8000041F298
:10351000F450AAF8000003A809B0BDE8F08F00003D
:10352000FC050020F002002000060020A00400207E
:10353000DD00002050D10020F005002040010020D7
:10354000F405002070010020F80500208003002011
:1035500000050020A0010020D00100200002002072
:1035600030020020E0000020100100209005002023
:10357000C005002030050020040600206005002062
:10358000C0020020CC00002000380040002C014088
:10359000D4000020000C0140C0000020C200002028
:1035A0007200000080D100200000C842D122DBF967
:1035B0007EEA344000C07240F8B506460120FCF7B0
:1035C000D6FE46F2A811CA48FEF758FEAFF2300107
:1035D000304611F022F80446002C59D00022042174
:1035E000204610F04FFFC348C349026801F118009C
:1035F000FEF7B2FCC148C249026801F11800FEF7AB
:10360000ABFCC048C049026801F11800FEF7A4FCF9
:10361000BE48BF49026801F11800FEF79DFC1DE09D
:10362000BDF900004FF48041C1EBC0352A46B348D4
:103630000168B0480068FEF793FD05462A46B34886
:103640000168B0480068FEF78BFD05464FF49670A0
:1036500095FBF0F73946A648FEF71FFE23460122E8
:103660000221684612F0D8FD0128D9D0A048FEF703
:1036700040FEA8490860204610F0F6FFA5490868FA
:10368000A54914F029FF074614F0A6FE80B2F8BD44
:103690000020FCE72DE9F14F82B00120FCF767FE26
:1036A00045F6C0519248FEF7E9FDAFF20C110298C1
:1036B00010F0B3FF8346BBF1000F71D0002204214C
:1036C000584610F0DFFE46F2A8118948FEF7D6FDF5
:1036D00088488949026801F11800FEF73DFC8748D7
:1036E0008749026801F11800FEF736FC85488B49CE
:1036F000026801F11800FEF72FFC89488949026829
:1037000001F11800FEF728FC2EE0BDF904004FF48B
:103710008041C1EBC03A524678480168754800685C
:10372000FEF71EFD824651467D480068FEF7D1FC3B
:103730008246514673480068FEF78BFC824650462D
:1037400014F0BBF80646784A784B14F063F9044647
:103750000022774B13F0AAFE804614F03BF8014696
:1037600000906348FEF799FD5B460122022101A803
:1037700012F052FD0128C8D05D48FEF7BAFD6D4930
:103780004860584610F070FF6A494868624914F072
:10379000A3FE044614F020FE80B2BDE8FE8FFFE7D2
:1037A0000020FAE72DE9F14F84B00120FCF7DFFD9E
:1037B00041F288314E48FEF761FDAFF21C210498BA
:1037C00010F02BFF8246BAF1000F7DD000220421B9
:1037D000504610F057FE47485749026801F118005B
:1037E000FEF7BAFB45485549026801F11800FEF79B
:1037F000B3FB44485249026801F11800FEF7ACFBE4
:1038000042485049026801F11800FEF7A5FB444800
:103810004D49026801F11800FEF79EFB4B484C49E8
:10382000026801F11800FEF797FB40E0BDF90810AF
:10383000BDF90A20881800EBD071491009B2ADF823
:103840000810BDF908004FF48041C1EBC03B5A4657
:103850002A48016827480068FEF782FC83465A46DA
:103860002A48016827480068FEF77AFC83465A46D2
:10387000364801682A480068FEF772FC83465846BD
:1038800014F0CAFD009014F02FFC0646314A324B6A
:1038900014F0C0F804460022254B13F007FE8046C2
:1038A00013F098FF014601901148FEF7F6FC5346CD
:1038B0000222114602A812F0AFFC0228B6D00C4832
:1038C000FEF717FD254900E00FE04860504610F074
:1038D000CBFE22494868104914F0FEFD044614F05E
:1038E0007BFD80B205B0BDE8F08F0020FAE7000054
:1038F00050D10020F005002000020020F405002037
:1039000030020020F805002020030020FC050020E4
:10391000500300208CD100200000C842800300200A
:103920000006002000050020D122DBF97EEA3440A9
:1039300000C0724098D10020E0000020100100205B
:1039400090050020C005002030050020040600205E
:103950006005002085EB51B81EB97840A4D1002045
:1039600010B54FF40061A34801F0B5FA30B9A24890
:10397000007840F00100A049087005E09E480078FA
:1039800020F001009C4908704FF480719B4801F0C1
:10399000A2FA30B99848007840F0020096490870C1
:1039A00005E09548007820F0020093490870012155
:1039B000904801F090FA30B98F48007840F0040048
:1039C0008D49087005E08C48007820F004008A4991
:1039D00008704FF48061874801F07DFA30B986485D
:1039E000007840F008008449087005E082480078BB
:1039F00020F008008049087002217E4801F06BFA2F
:103A000030B97D48007840F010007B49087005E02F
:103A10007948007820F010007749087076480078DF
:103A20007749097888427DD076480078002879D196
:103A30007348007800F0010050B96F48007800F03A
:103A4000010028B17048006840F001006E4908602C
:103A50006B48007800F0020002280BD0664800781E
:103A600000F00200022805D16748006840F002001B
:103A7000654908606248007800F0040004280BD013
:103A80005D48007800F00400042805D15E48006815
:103A900040F004005C4908605948007800F00800D4
:103AA00008280BD05448007800F00800082805D1F9
:103AB0005548006840F008005349086050480078B5
:103AC00000F0100010280BD04B48007800F01000D8
:103AD000102805D14C48006840F010004A490860A1
:103AE0004748007800F0010050B14348007800F0EA
:103AF000010028B94448006840F0200042490860AD
:103B00003F48007800F0020002280DD13A480078C2
:103B100000F00200022807D03B48006840F0400057
:103B2000394900E03DE008603548007800F00400C5
:103B300004280BD13048007800F00400042805D098
:103B40003148006840F080002F4908602C48007818
:103B500000F0080008280BD12748007800F0080082
:103B6000082805D02848006840F48070264908607D
:103B70002348007800F0100010280BD11E48007870
:103B800000F01000102805D01F48006840F40070B5
:103B90001D49086018480078194908701E20194905
:103BA000087018480078002804DD16480078401E88
:103BB0001449087010BD014613480068084030B130
:103BC000114800688843104A1060002070470120A7
:103BD000FCE70D49096881430B4A116070470146B3
:103BE000054800780840002801DD002070470120CA
:103BF000FCE70000000C0140080600200010014016
:103C000009060020100600200C06002070B50446AE
:103C1000202C01D3002070BDA84800EBC40080799F
:103C200002282ED100F0A8F91CB9012000F052FAA8
:103C3000F1E7012C0ED1032000F04CFA05460220DA
:103C400000F048FA00EBC00101EB001005EB80002A
:103C500080B2E0E7022C0ED1052000F03BFA0546C9
:103C6000042000F037FA00EBC00101EB001005EB77
:103C7000800080B2CFE7032C03D1062000F02AFA9F
:103C8000C9E70D2C02D14FF4B270C4E78C4830F86C
:103C90001400C0E773B50446202C01D300207CBD7E
:103CA000864800EBC4004088BDF80410884204DA5E
:103CB000824800EBC40040880190804830F834000E
:103CC000BDF80410884203DD7C4830F834000190D0
:103CD0007A4800EBC4008079012814D1022000EB5F
:103CE000440081B2022301AA012010F0CFF97448E8
:103CF00000EB4402022000EB440081B202230120C9
:103D000010F0A4F950E06D4800EBC400807902285F
:103D100045D100F031F924B9BDF80410012000F0BC
:103D20008BF9012C15D1BDF80400642190FBF1F052
:103D300085B22946022000F07FF9BDF80400642115
:103D400090FBF1F201FB120085B22946032000F03E
:103D500073F9022C19D1BDF80400642190FBF1F035
:103D600085B22946042000F067F9BDF804006421FB
:103D700090FBF1F201FB120085B22946052000F00C
:103D80005BF90021062000F057F9032C04D1BDF89F
:103D90000410062000F050F900F0FCF804E0BDF833
:103DA0000410474820F81410454830F81400BDF8B6
:103DB0000410884201D0002071E701206FE7002045
:103DC00007E03E4901EBC0018A883D4921F81020F7
:103DD000401C2028F5D37047F8B5012600243CE0AC
:103DE000364800EBC4008079012835D1022000EB71
:103DF0004405334800EB4402A9B20223012010F02D
:103E000025F92F4830F814002C4901EBC4014988EA
:103E1000884207DC2A4830F81400284931F8341069
:103E2000884219DA254800EBC400021DA9B202231A
:103E3000012010F02BF9A9B202236A46012010F0EC
:103E400005F91E4800EBC4008088BDF800108842C8
:103E500001D0002600E00126641C202CC0D330468F
:103E6000F8BD10B5FFF7ABFF0223154A921E0021E3
:103E7000012010F0EBF81248801E0088B0F5D35FE7
:103E800019D04FF4D3500E49891E088042230A46A8
:103E90000021012010F0FAF80223094A921E0021A5
:103EA000012010F0D3F80648801E0088B0F5D35FDB
:103EB00001D0002010BDFFF78FFFFBE7C28702088B
:103EC000B2D1002010B500209B490860486088608E
:103ED0000120C8600020086146204861084610F0B3
:103EE00084FD044601F026FB204601F0F0FA01F0C3
:103EF00021FB10BD10B501214FF0C05000F0CFFCE8
:103F00008E48FCF72FFA012002F01BFB042002F080
:103F1000E0FA4AF6AA21884228D002F0A5FA012048
:103F200000F01DFC00BF412000F081FB0028FAD00A
:103F30004FF4807000F02FFC012000F032FC01F003
:103F400002FB01F0F7FA0121084601F097FA47F663
:103F5000FF7001F0C9FA01F0EDFAFFF7B3FF4AF67E
:103F6000AA21042002F0A9FA002010BD01F0EBFA0A
:103F700001F0E0FA0120F8E738B501F09FFA00906F
:103F8000684610F00DFD04462C2221466A4810F0C8
:103F900019FC38BD10B5684810F027FD044601F043
:103FA000C9FA204601F093FA01F0C4FAFFF7E4FFE2
:103FB00010BD40F26C71884204DBA0F26C715E4A65
:103FC000516103E040F26C715B4A516170470C280B
:103FD00001DD0C2002E0012800DA0120411E564AD2
:103FE000116170471F2803DD1F21534AD16007E08C
:103FF000012803DA0121504AD16001E04E49C8602E
:104000007047172803DD17214B4A916001E04A49A8
:10401000886070473B2803DD3B21474A516001E03F
:104020004549486070473B2803DD3B21424A116007
:1040300001E0414908607047072848D2DFE800F0F6
:104040004704121D2C353E0040F26C72914204DB95
:10405000A1F26C72384B5A6103E040F26C72364B3D
:104060005A6135E00C2901DD0C2102E0012900DA5A
:1040700001214A1E304B1A612AE01F2903DD1F224D
:104080002D4BDA6007E0012903DA01222A4BDA60BE
:1040900001E0294AD1601BE0172903DD1722264BD6
:1040A0009A6001E0244A916012E03B2903DD3B2243
:1040B000214B5A6001E0204A516009E03B2903DDB1
:1040C0003B221D4B1A6001E01B4A116000E000BF5B
:1040D00000BF70470146072920D2DFE801F01F0426
:1040E0000A0F13171B001448808A00F26C7080B20C
:1040F00070471148008A401C80B2F9E70E48808959
:1041000080B2F5E70C48008980B2F1E70A48808860
:1041100080B2EDE70848008880B2E9E70020E7E7D1
:1041200010B5012001F021FA012803D101F028FA8D
:10413000012010BD0020FCE7F4D10020400D030059
:1041400010B586B0012279A179480DF0EBFC01226F
:1041500078A17B480DF011FD044644B178480DF07C
:10416000DCFF0A2273A176480DF007FD04466B467A
:10417000142201A972480DF0B3FD044670480DF0F9
:10418000CCFF002269A110460DF0CCFC60B206B055
:1041900010BD10B56A480DF0C0FF10BD70B5ADF58B
:1041A0008E6D04460D4625B94FF0FF300DF58E6D2E
:1041B00070BD00200FF06AFD064601225BA189A8B0
:1041C0000DF0B0FC064601225AA168460DF0D5FC60
:1041D00006460DF26C4314220DF58B6168460DF016
:1041E0007FFD064668460DF098FF01220DF58B61B4
:1041F00068460DF0C2FC064620221021204610F031
:1042000013FB681E01014E480EF056F80DF26C4388
:104210001022214668460DF063FD0646DDF86C0469
:10422000102814D1207830B91021204610F004FB5A
:104230004FF0FF30BAE768460DF06FFF06460022E8
:104240003AA110460DF06EFC06460020AEE7684627
:104250000DF063FF0646002234A110460DF062FC0B
:10426000064600BFA2E730B5ADF27C6D0024002504
:1042700072B671B601222DA168460DF053FC0A22D8
:1042800030A10DF58B600DF078FC31A234A10DF555
:104290008B600FF028F90DF58B6100200FF0DEF830
:1042A00001240CE023462FA230A10DF58B600FF006
:1042B0001AF9E0B20DF58B610FF0D0F8641CB4F57B
:1042C0007A7FEFDBDDF864540DF58B600DF025FF90
:1042D000212201211BA00EF038FB0A2215A10DF5A9
:1042E0008B600DF04AFC25A21DA10DF58B600FF02F
:1042F000FAF80DF58B600DF010FF0A2221A18DA8B0
:104300000DF03BFC1DA216A18DA80FF0ECF88DA8B6
:104310000DF003FF002205A110460DF003FC62B66C
:1043200061B628460DF27C6D30BD0000303A0000C9
:1043300030D40020303A526F61642E6C6F670000F9
:1043400064D60020303A526F61642E3000000000C5
:10435000E1E5E720ECE0F0F8F0F3F2E020202000C7
:1043600025730000F2EEF7EAE00000002573202537
:10437000303375202020202020000000526F61641F
:104380002E300000303A526F6164732E74787400DE
:104390000CB50020019000904848006840F480303F
:1043A0004649086000BF4548006800F400300090AE
:1043B0000198401C0190009818B90198B0F5A06FC1
:1043C000F1D13E48006800F4003010B101200090A7
:1043D00001E0002000900098012844D1384800688E
:1043E00040F01000364908600846006820F00300DD
:1043F00008600846006840F0020008602F484068E6
:104400002E4948600846406848600846406840F4C5
:10441000806048600846406820F47C104860084688
:10442000406840F4E81048600846006840F080703A
:10443000086000BF2148006800F000700028F9D033
:104440001E48406820F003001C4948600846406848
:1044500040F00200486000BF1848406800F00C00BF
:104460000828F9D101E000BFFEE70CBD10B5FFF749
:104470008FFF10BD10B51148006840F001000F49D2
:104480000860084640680F4908400C4948600846E3
:1044900000680D490840094908600846006820F492
:1044A000802008600846406820F4FE0048604FF411
:1044B0001F008860FFF7DAFF10BD00000010024007
:1044C000002002400000FFF8FFFFF6FE31490143E3
:1044D000314A1160704770B5002100230F22C47863
:1044E00004B32D4C246804F4E064C4F5E064210AAC
:1044F000C1F10403CA40447804FA03F184781440FB
:1045000021430901254C0678A155047804F01F05C4
:104510000124AC4005786D11AD0005F1E025C5F82A
:10452000004109E0047804F01F050124AC401C4D53
:104530000678761145F8264070BD1A4A0A400243B3
:10454000154B1B1F1A60704739B1134A121D1268B0
:104550000243114B1B1D1A6006E00F4A121D126820
:1045600082430D4B1B1D1A607047042808D14FF081
:10457000E021096941F004014FF0E022116107E0F8
:104580004FF0E021096921F004014FF0E0221161B0
:10459000704700000000FA050CED00E000E400E0C8
:1045A00080E100E080FFFF1FDF48006840F001006D
:1045B000DD49086008464068DC490840DA4948603F
:1045C00008460068DA490840D7490860084600688C
:1045D00020F4802008600846406820F4FE0048600F
:1045E0004FF41F0088607047CF49096821F480317B
:1045F000CD4A11601146096821F480211160B0F59F
:10460000803F03D0B0F5802F0ED106E0C64909687F
:1046100041F48031C44A116007E0C349096841F49C
:10462000A021C14A116000E000BF00BF704710B573
:1046300001460022002300204A11012A02D1BA4C6F
:10464000236806E0022A02D1B74C236A01E0B64C87
:10465000636A01F01F02012494401C400CB1012048
:1046600000E0002010BD38B5002000900024002597
:1046700000BF3120FFF7DBFF05460098401C00908B
:104680000098B0F5A06F01D0002DF2D03120FFF7D7
:10469000CEFF08B1012400E00024204638BD0146C9
:1046A0000020A14A106820F0F80040EAC100106024
:1046B0007047A04908607047024600209A4B58682E
:1046C00020F47C1042EA01031843974B586070476E
:1046D00098490866704701460020934A506820F0C8
:1046E00003000843506070478F48406800F00C009A
:1046F0007047014600208C4A506820F0F0000843C3
:104700005060704701460020874A506820F4E060FE
:1047100008435060704701460020834A506820F4E7
:10472000605040EAC1005060704729B17E4A527A19
:1047300002437D4B5A7204E07B4A527A82437A4BA1
:104740005A7270477B49D831086070470146002093
:10475000754A506820F4404008435060704700217B
:10476000714A20321170704A82F82010012802D05C
:1047700004280AD104E001216B4A2032117005E0BF
:104780000521694A2032117000E000BF00BF704768
:104790006949086070476449096A0143624A1162C5
:1047A0007047654944390860704730B500210022E0
:1047B000002400235C4D6D6805F00C0121B1042933
:1047C00005D0082923D105E05C4D056022E05B4D52
:1047D00005601FE0544D6D6805F47012524D6D6810
:1047E00005F48034022505EB92421CB9544D554323
:1047F00005600BE04C4D6D6805F400351DB1504D62
:104800005543056002E04D4D5543056002E04B4DB8
:10481000056000BF00BF444D6D6805F0F001090957
:10482000484D6B5C0568DD4045603F4D6D6805F4A3
:10483000E061090A434D6B5C4568DD4085603A4D97
:104840006D6805F46051C90A3E4D6B5C4568DD40FA
:10485000C560354D6D6805F44041890B3A4D6B5C80
:10486000C568B5FBF3F5056130BD29B12E4A526923
:1048700002432D4B5A6104E02B4A526982432A4B72
:104880005A61704729B1284A92690243264B9A61BE
:1048900004E0254A92698243234B9A61704729B10B
:1048A000214AD2690243204BDA6104E01E4AD269F0
:1048B00082431D4BDA61704729B11B4AD26802431B
:1048C000194BDA6004E0184AD2688243164BDA606A
:1048D000704729B1144A12690243134B1A6104E06C
:1048E000114A12698243104B1A61704712494039CC
:1048F000086070470F49C86470470B49C87170471A
:104900000948406A40F08070074948627047014694
:104910000020054A92680A400AB1012000E0002008
:104920007047014988727047001002400000FFF88C
:10493000FFFFF6FE000042428004424200127A006D
:1049400000093D00110600202106002010B5044694
:10495000E248844209D101218803FFF7ADFF00211D
:104960004FF48040FFF7A8FF32E0DD48844209D1D0
:1049700001214804FFF7ADFF00214FF40030FFF79D
:10498000A8FF25E0D748844209D101218804FFF718
:10499000A0FF00214FF48020FFF79BFF18E0D248D2
:1049A000844209D10121C804FFF793FF00214FF48D
:1049B0000020FFF78EFF0BE0CC48844208D1012194
:1049C0000805FFF786FF00214FF48010FFF781FFF5
:1049D00010BD2DE9F04786B005460E460024A246DC
:1049E00000BF00BF0027B08900B100BF2F462C8A4E
:1049F0004CF6FF700440F08804432C82AC894EF6DC
:104A0000F3100440B0883189084371890843044396
:104A1000AC81AC8A4FF6FF400440B0890443AC82BD
:104A200001A8FFF7C2FEAD48874202D1DDF810A011
:104A300001E0DDF80CA00AEBCA0000EB0A103168B7
:104A40008900B0FBF1F86420B8FBF0F00401200904
:104A5000642101FB1089322000EB0910B0FBF1F05A
:104A600000F00F0004432C8106B0BDE8F0874FF43E
:104A70001651016000218180C18001810C2141819A
:104A800000218181704710B502460020108A4FF244
:104A9000FF0318400B884C8823438C882343CC8821
:104AA00023431843108210BD002101804180818082
:104AB000C180704721B1828942F40052828104E0B2
:104AC00082894DF6FF731A4082817047F0B5034624
:104AD000002400260025002040F66A17B94200D1C4
:104AE00000BF1846C1F3421401F01F06012707FA60
:104AF00006F5012C01D10C3004E0022C01D110305C
:104B000000E014301AB107682F43076002E007681D
:104B1000AF430760F0BD1AB1838A0B43838202E082
:104B2000838A8B4383827047028A4FF6F0731A4060
:104B30000282028A0A430282704782894FF2FF731F
:104B40001A40828182890A438281704721B1828919
:104B500042F00202828104E082894FF6FD731A401E
:104B600082817047028A4FF6DF731A400282028AFE
:104B70000A430282704721B1028A42F480420282D3
:104B800004E0028A4BF6FF731A4002827047C1F3B9
:104B900008028280704701468888C0F30800704789
:104BA000818941F0010181817047028BD2B2028379
:104BB000028B42EA012202837047028B02F47F4299
:104BC0000283028B0A430283704721B1828A42F03A
:104BD0002002828204E0828A4FF6DF731A408282CA
:104BE000704721B1828A42F01002828204E0828AF8
:104BF0004FF6EF731A408282704721B1828A42F0E9
:104C00000802828204E0828A4FF6F7731A40828299
:104C10007047828A4FF6FB731A408282828A0A4367
:104C20008282704721B1828A42F00202828204E0CD
:104C3000828A4FF6FD731A40828270470246002036
:104C4000B1F5007F00D100BF13880B400BB10120EC
:104C500000E00020704701F40072B2F5007F00D13F
:104C600000BFCA430280704770B50246002400238B
:104C70000025002040F66A16B14200D100BFC1F302
:104C8000421501F01F03012606FA03F3012D02D19C
:104C90009689334006E0022D02D1168A334001E0A6
:104CA000968A33400C12012606FA04F41688344022
:104CB00013B10CB1012000E0002070BD10B500223E
:104CC000002340F66A14A14200D100BF0A12012459
:104CD0009440A3B2DC43048010BD000000380140C2
:104CE0000044004000480040004C0040005000409C
:104CF00010B50446C448844208D101210420FFF7BE
:104D0000DBFD00210420FFF7D7FD46E0BF488442C9
:104D100008D101210820FFF7CFFD00210820FFF76F
:104D2000CBFD3AE0BA48844208D101211020FFF7B8
:104D3000C3FD00211020FFF7BFFD2EE0B5488442DF
:104D400008D101212020FFF7B7FD00212020FFF727
:104D5000B3FD22E0B048844208D101214020FFF792
:104D6000ABFD00214020FFF7A7FD16E0AB488442D1
:104D700008D101218020FFF79FFD00218020FFF74F
:104D80009BFD0AE0A648844207D101218015FFF768
:104D900093FD0021A015FFF78FFD10BD10B5012177
:104DA0000846FFF789FD00210120FFF785FD10BDB2
:104DB0002DE9F041024600250026002000230024B2
:104DC000002791F803C00CF00F0591F803C00CF018
:104DD000100CBCF1000F03D091F802C04CEA05059D
:104DE00091F800C0BCF1000F31D0146800202BE016
:104DF0004FF0010C0CFA00F3B1F800C00CEA030606
:104E00009E4220D183004FF00F0C0CFA03F7BC43F5
:104E100005FA03FC4CEA040491F803C0BCF1280F26
:104E200006D14FF0010C0CFA00FCC2F814C00AE0E5
:104E300091F803C0BCF1480F05D14FF0010C0CFAFA
:104E400000FCC2F810C0401C0828D1D31460B1F88F
:104E500000C0BCF1FF0F34DD546800202EE000F1EB
:104E6000080C4FF0010808FA0CF3B1F800C00CEA86
:104E700003069E4221D183004FF00F0C0CFA03F77A
:104E8000BC4305FA03FC4CEA040491F803C0BCF1EE
:104E9000280F05D100F1080C08FA0CF8C2F81480AC
:104EA00091F803C0BCF1480F07D100F1080C4FF096
:104EB000010808FA0CF8C2F81080401C0828CED36C
:104EC0005460BDE8F0814FF6FF71018002218170CE
:104ED0000421C17070470246002093680B400BB15B
:104EE000012000E0002070470146886880B27047CA
:104EF00002460020D3680B400BB1012000E00020E7
:104F000070470146C86880B27047016170474161CF
:104F100070470AB1016100E041617047C1607047AC
:104F20004FF480320A4382618161826182698269C1
:104F30007047024600203B4B18684FF680731840BC
:104F400040EA02100843374B186070473649C86181
:104F50007047F0B50A460023002400210025314E99
:104F60007168C0F3034583B200F44016B6F5401FE4
:104F700008D121F070612B4E766826F07066294FBB
:104F80007E6012E000F48016B6F5801F06D103267D
:104F900006FA05F4A14341F0706106E0460D3601C2
:104FA00003FA06F6B14341F0706122B1460D3601B5
:104FB00003FA06F631431B4E7160F0BD30B5002296
:104FC0008B071C0F0F2303FA04F2164B08338C10C7
:104FD00053F824309343134C08348D1044F8253093
:104FE00023468C1053F824308C07240F00FA04F465
:104FF00023430C4C08348D1044F8253030BD0A4949
:10500000DC3108607047000000080140000C0140DE
:10501000001001400014014000180140001C014034
:1050200000200140000001400000204210B504466D
:10503000FA48844208D101214015FFF73DFC0021C8
:105040006015FFF739FC17E0F548844208D10121CB
:105050000015FFF731FC00212015FFF72DFC0BE0B8
:10506000F048844208D10121C803FFF725FC002144
:105070004FF40040FFF720FC10BD30B50246002081
:1050800000235068E84C20400D790C6844EA052460
:10509000204350609068E54C2040D1E902542C43F5
:1050A0004D7944EA450420439060D06A20F47000B2
:1050B0000C7C641EE4B2234340EA0350D06230BD4E
:1050C00000210160017141718160C16001210174A1
:1050D000704721B1826842F00102826003E0826879
:1050E00022F001028260704721B1826842F480722E
:1050F000826003E0826822F480728260704710B59B
:105100000023CBB21AB144681C43446002E04468F7
:105110009C43446010BD816841F008018160704784
:10512000014600208A6802F008020AB1012000E06E
:1051300000207047816841F004018160704701469A
:1051400000208A6802F004020AB1012000E0002079
:10515000704721B1826842F4A002826003E0826855
:1051600022F4A00282607047014600208A6802F49F
:1051700080020AB1012000E00020704710B50A4605
:1051800000210023416821F46041531E41EA43316C
:10519000416010BD21B1426842F40062426003E008
:1051A000426822F4006242607047F0B504460D4642
:1051B00000200021092D11DDE068A5F10A0606EBAB
:1051C0004607072606FA07F18843A5F10A0606EB0B
:1051D000460603FA06F10843E0600CE0206905EB9F
:1051E0004507072606FA07F1884305EB450603FA4B
:1051F00006F108432061072A0FDA606B561E06EBA2
:1052000086071F2606FA07F18843561E06EB860618
:1052100005FA06F10843606322E00D2A0FDA206BDD
:10522000D61F06EB86071F2606FA07F18843D61F0E
:1052300006EB860605FA06F10843206310E0E06AF3
:10524000A2F10D0606EB86071F2606FA07F1884332
:10525000A2F10D0606EB860605FA06F10843E062A8
:10526000F0BD21B1826842F48012826003E082685E
:1052700022F48012826070470146C86C80B2704789
:1052800066484C300068704721B1426842F4806241
:10529000426003E0426822F480624260704721B1BC
:1052A000426842F48052426003E0426822F4805235
:1052B000426070470A460021816821F4E0411143B1
:1052C0008160704721B1826842F40042826003E04D
:1052D000826822F400428260704721B1826842F401
:1052E0000212826003E0826822F402128260704738
:1052F000014600208A6802F400120AB1012000E091
:1053000000207047F0B50446154600200022002614
:10531000092911DDE068A1F10A0707EB470C07270F
:1053200007FA0CF29043A1F10A0707EB470703FACB
:1053300007F21043E0600CE0206901EB410C072705
:1053400007FA0CF2904301EB410703FA07F210430E
:105350002061A06BC0F30156EF1C06F1010CA7EB16
:105360000C0707EB870C1F2707FA0CF29043EF1C82
:1053700006F1010CA7EB0C0707EB870701FA07F210
:105380001043A063F0BD10B50A4600210023816BD5
:1053900021F44011531E41EA0351816310BD08B549
:1053A000002300930090009B0B440093009B1A6025
:1053B00008BD08B5024600200090009201F12800C7
:1053C000009B184400900098006880B208BD0A460F
:1053D00000214168164B19401143416070474162FA
:1053E000826270470A460021416821F01F01114383
:1053F0004160704740B109490831096841F4000132
:10540000064A0832116007E004490831096821F4AE
:105410000001024A08321160704700000024014078
:1054200000280140003C0140FFFEF0FFFDF7F1FFC6
:10543000FFFD3FFF0246002013680B400BB1012027
:1054400000E000207047CA430260704770B5024612
:105450000020002300240B125568CEB205EA060492
:1054600015681D4015B10CB1012000E0002070BD91
:1054700000220A12D34303607047000029B1504A4A
:10548000128802434E4B1A8004E04D4A1288824330
:105490004B4B1A8070474A48001D008840F01000AE
:1054A0004749091D088070474548001D00884FF690
:1054B000EF7108404249091D0880704700214048AB
:1054C0001C300188001F008841EA0040704700B589
:1054D0000246FFF7E0FF100C394918310880091D1A
:1054E0000A80FFF7E1FF00BD00B50246FFF7D3FFDA
:1054F000C2F30340324908310880091D0A80FFF7D2
:10550000D3FF00BD00B50246FFF7C5FF100C2C49C4
:1055100020310880091D0A80FFF7C6FF00BD00206A
:105520002749103109880907080B254914310988D2
:105530000843704700BF2248001D008800F020008B
:105540000028F8D070471E48001D00884FF6F771FC
:1055500008401B49091D088000BF1948001D00882C
:1055600000F008000028F8D0704701460020144AD7
:10557000121D12880A400AB1012000E00020704785
:105580000F49091D098881430D4A121D118070477A
:10559000014600200A4A121D12880A40D0B2084A69
:1055A00012880A4012B108B1012000E000207047C3
:1055B0000349091D09888143014A121D1180704762
:1055C0000028004010B50446BE48844208D101219D
:1055D0008014FFF771F90021A014FFF76DF916E0B0
:1055E000B948844208D101210014FFF772F9002163
:1055F0002014FFF76EF90AE0B448844207D1012174
:10560000C013FFF766F90021E013FFF762F910BD40
:1056100010B50022028802F441520B884C882343C3
:105620008C882343CC8823430C8923434C89234310
:105630008C892343CC8923431A430280838B4FF206
:10564000FF74234083830B8A038210BD2DE9F04F42
:1056500085B005460C464FF0000902274FF00008C0
:105660004FF0010B0026B246A88B4FF240010840D4
:10567000A88302202884B5F81C902089022801D133
:1056800000BF38E0A08810B94FF0010B01E04FF0E7
:10569000020B8D48854200D100E000BF6846FFF74D
:1056A00084F8DDF800A0E088B0F5007F0AD14FEA69
:1056B0001A2000EB800040002189B0FBF1F0401D72
:1056C00086B20BE04FEA4B10BAFBF0F000EB800023
:1056D00040002189B0FBF1F0401D86B20A20B6FBE4
:1056E000F0F606F00108A6EB0800C0F34F074FF6EE
:1056F000FF7000EA0828022F01DBFF2F02DD0227DE
:105700004FF00008E08840EA080038432884A08869
:1057100061890843618808432188084340F4006098
:1057200040EA0909A5F81C9005B0BDE8F08F0021FA
:10573000018041808180C180018141818181C1815D
:105740000721018270470021018041808180C18052
:105750000221018100214181704721B1028842F07C
:105760004002028004E002884FF6BF731A400280B4
:10577000704721B1828B42F48062828304E0828B85
:105780004FF6FF331A408283704730B50024002360
:105790000C110125A540ABB21AB185881D43858047
:1057A00002E085889D43858030BD1AB183880B4314
:1057B000838002E083888B438380704781817047B8
:1057C0000146888970474FF6FF62914204D00288F3
:1057D00042F48072028004E002884FF6FF631A40B0
:1057E0000280704721B1828842F00402828004E086
:1057F00082884FF6FB731A408280704702884FF20E
:10580000FF731A40028002880A43028070470188B1
:1058100041F480510180704721B1028842F4005266
:10582000028004E002884DF6FF731A400280704740
:1058300002460020012901D0108B00E0908A7047B9
:105840000146088A7047B1F5804F04D1028842F4BE
:105850008042028004E002884BF6FF731A40028007
:1058600070470246002013890B400BB1012000E075
:1058700000207047CA4302817047F0B502460020FD
:1058800000240023002501F00F070126BE40B4B21A
:105890000B1101269E40B3B2968806EA03051689CD
:1058A000264016B10DB1012000E00020F0BD10B57A
:1058B000002201F00F040123A3409AB2D3430381D5
:1058C00010BD00000030014000380040003C0040A6
:1058D00010B50446FE48844208D10121C014FEF7E9
:1058E000EBFF0021E014FEF7E7FF52E0B4F1804F38
:1058F00008D101210846FEF7ECFF00210120FEF748
:10590000E8FF46E0F348844208D101210220FEF777
:10591000E0FF00210220FEF7DCFF3AE0EE4884427F
:1059200008D101210420FEF7D4FF00210420FEF756
:10593000D0FF2EE0E948844208D101210820FEF77B
:10594000C8FF00210820FEF7C4FF22E0E44884429B
:1059500008D101211020FEF7BCFF00211020FEF726
:10596000B8FF16E0DF48844208D101212020FEF76D
:10597000B0FF00212020FEF7ACFF0AE0DA488442A5
:1059800007D101214014FEF797FF00216014FEF7B4
:1059900093FF10BD028802F08F020280CA884B88F4
:1059A0001A4303881A4302808A8882850A880285FE
:1059B000C74A904202D0CC4A904201D10A7A02866C
:1059C00001228282704770B5002400220023058CDA
:1059D0004FF6FE7635400584028C8388048B4FF6A3
:1059E0008F752C400D882C43751E2A400D892A4343
:1059F0004D882A43CD888586B54DA84202D0BA4D40
:105A0000A84213D14FF6F7752A404D892A434FF625
:105A1000FB752A408D882A4347F6FF652B4047F6E1
:105A2000FF552B408D892B43CD892B4383800483E5
:105A3000028470BD70B5002400220023058C4FF64F
:105A4000EF7635400584028C8388048B48F6FF7519
:105A50002C400D884FF6FF7606EA05252C434FF6BD
:105A6000DF752A400D8906EA05152A434D8806EAA6
:105A700005152A43CD880587954DA84202D09A4D39
:105A8000A8421DD14FF67F752A404D894FF6FF760B
:105A900006EA05152A434FF6BF752A408D8806EAA7
:105AA00005152A4347F6FF352B4047F2FF752B407B
:105AB0008D8906EA85052B43CD8906EA85052B43AA
:105AC00083800483028470BD70B50024002200230B
:105AD000058C4FF6FF6635400584028C8388848BE5
