:020000040801F1
:10000000E8F10020BD780108D5220108D7220108B7
:10001000DB220108DF220108E322010800000000C2
:10002000000000000000000000000000E7220108BE
:10003000E922010800000000EB220108ED2201087E
:10004000D3780108D3780108D3780108D378010860
:10005000D3780108D3780108D3780108D378010850
:10006000D3780108D3780108D3780108D378010840
:10007000D3780108D3780108D3780108D378010830
:10008000D3780108D3780108D3780108D378010820
:100090003D860108D3780108D37801084908010892
:1000A000D378010871310108D3780108D3780108A9
:1000B000D3780108D3780108D3780108D3780108F0
:1000C000D3780108D3780108D3780108D3780108E0
:1000D000D3780108D3780108F5220108D378010804
:1000E000D3780108D3780108D378010800F002F82A
:1000F00000F085F80AA090E8000C82448344AAF13D
:100100000107DA4501D100F07AF8AFF2090EBAE83A
:100110000F0013F0010F18BFFB1A43F0010318473B
:10012000DC010200FC01020010F8013B0A4413F05C
:10013000030408BF10F8014B1D1108BF10F8015B44
:10014000641E05D010F8016B641E01F8016BF9D133
:10015000002D15D010F8014B03F00C030C2BA1EB74
:1001600004040ABF10F8013BA4EB8314A4EB03249E
:1001700005F1010314F8016B5B1E01F8016BF9D561
:10018000914238BF10F8013BD1D3704700230024BF
:1001900000250026103A28BF78C1FBD8520728BF97
:1001A00030C148BF0B607047662919F01E8764296B
:1001B00015F03284752915F02F84632916F0E78431
:1001C000732916F0EC84002070471FB59DE80300EA
:1001D00016F04CFE16F02EFE04000020002118F050
:1001E0007FFC401C60600020002118F063FCE06090
:1001F00017F00EF91FBD10B517F073F910BD17F009
:10020000A3F91146FFF7E1FF01F059FC17F0CEFC0E
:1002100003B4FFF7F0FF03BC08F042FBEFF30980E3
:10022000704780F309887047EFF30880704780F3C8
:100230000888704740BA7047C0BA704710B50028A8
:1002400007DA0A07140EFE4A00F00F031B1FD454EE
:1002500003E00A07130EFB4A135410BD10B5044601
:10026000B4F1807F01D3012010BD24F07F40401EF7
:100270004FF0E02148610F214FF0FF30FFF7DEFF24
:1002800000204FF0E0218861072008610020EBE7A3
:1002900010B507F062F8EC480068401CEA490860B5
:1002A0000DF0A9FC03F034FFE8480068052802D1EE
:1002B0000020E6490860E6480078012809D10421B9
:1002C000E44805F0B6FC20B9E3480068401EE24966
:1002D0000860E248008838B94FF47A70DF49088036
:1002E0000120DF49087004E0DC480088401EDB493B
:1002F0000880DC480068B0F57A7F0DD10020D9492C
:100300000860D9480068401CD7490860D748006891
:10031000401CD649086004E0D2480068401CD1491E
:100320000860D14800681E2802D10020CE4908602C
:10033000CE480068CE49884202D10020CB490860EF
:10034000C2480068401CC1490860CA4800680A28C1
:1003500005D115F01CFA0020C649086004E0C54824
:100360000068401CC349086010BDC348806940F064
:100370001000C1498861C148406840F48030BF49DD
:100380004860704700E0401E0028FCDC704710B554
:100390000446C4B1B848406800F00C00082824D0D6
:1003A000B548406820F00300B349486008464068FB
:1003B00040F00200486000BFAF48406800F00C0009
:1003C0000828F9D111E0AC48406800F00C0060B199
:1003D000A948406820F00300A749486000BFA6482C
:1003E000406800F00C000028F9D11CB1A448FFF7C8
:1003F00035FF03E04FF4FA50FFF730FF10BD08B5AA
:100400000121052005F0ECF80120ADF800001020D6
:100410008DF8030003208DF8020069468D4805F031
:1004200075FB0220ADF8000000208DF8030069463E
:10043000884805F06BFB0420ADF8000028208DF8FB
:1004400003006946834805F061FB0820ADF8000011
:1004500000208DF8030069467E4805F057FB102008
:10046000ADF800008DF8030003208DF80200102184
:10047000784805F0F8FB6946764805F047FBE02030
:10048000ADF8000018208DF8030003208DF802005D
:100490002021704805F0E7FB80216E4805F0E3FB62
:1004A00069466C4805F032FB4FF48070ADF80000EF
:1004B00048208DF803006946664805F027FB0121B6
:1004C000092005F08DF80120ADF8000048208DF8D6
:1004D000030069466B4805F019FB0220ADF80000E7
:1004E00048208DF803006946664805F00FFB202080
:1004F000ADF8000010208DF8030003208DF80200F5
:100500002021604805F0AFFB69465E4805F0FEFA21
:100510004020ADF8000010208DF8030003208DF876
:10052000020000224021574805F0A1FB69465548CA
:1005300005F0ECFA8020ADF8000010208DF80300E3
:1005400003208DF8020080214E4805F08CFB69469F
:100550004C4805F0DBFA4FF48070ADF80000102035
:100560008DF8030003208DF802004FF48071454898
:1005700005F079FB6946434805F0C8FA4FF400706E
:10058000ADF8000010208DF8030003208DF8020064
:100590004FF400713B4805F066FB6946394805F0A9
:1005A000B5FA4FF48060ADF8000048208DF80300E4
:1005B0006946344805F0AAFA4FF40060ADF800002F
:1005C00048208DF8030069462E4805F09FFA4FF445
:1005D0008050ADF8000010208DF8030003208DF846
:1005E000020000224FF48051264805F040FB694686
:1005F000244805F08BFA4FF40050ADF800001820A5
:100600008DF8030003208DF8020000224FF4005102
:100610001C4805F02CFB69461A4805F077FA4FF4A0
:100620008040ADF8000018208DF803006946154899
:1006300005F06CFA4FF40040ADF80000482023E0CC
:1006400018ED00E000E400E0040000204400002079
:100650008D00002000080140080000201E0000203E
:1006600022000020380000203C0000204000002034
:10067000A0BB0D0048000020001002400010014007
:1006800040190100000C01408DF803006946FA484A
:1006900005F03CFA0121112004F0A2FFFF20ADF883
:1006A000000010208DF8030003208DF80200FF21C8
:1006B000F24805F0D8FA6946F04805F027FA4FF4F9
:1006C0008070ADF8000048208DF803006946EB48C3
:1006D00005F01CFA4FF48060ADF8000010208DF892
:1006E000030003208DF8020000224FF48061E348EC
:1006F00005F0BDFA6946E14805F008FA4FF40060DC
:10070000ADF8000014208DF8030003208DF80200DE
:100710004FF40061D94805F0A6FA6946D74805F0BC
:10072000F5F94FF44050ADF8000010208DF80300AB
:1007300003208DF802004FF48051D04805F095FA5F
:100740004FF40051CD4805F090FA6946CB4805F0CA
:10075000DDF90121212004F043FF0420ADF8000061
:1007600010208DF8030003208DF8020000220421E0
:10077000C34805F07CFA6946C14805F0C7F94FF453
:100780000070ADF8000010208DF8030003208DF8F4
:1007900002004FF40071B94805F065FA6946B748A0
:1007A00005F0B4F94CF25030FFF7ECFD4FF48060E7
:1007B000ADF8000010208DF8030003208DF8020032
:1007C0004FF48061AD4805F04EFA6946AB4805F03C
:1007D0009DF94FF40070ADF8000004208DF803007F
:1007E0006946A84805F092F9A748806940F00100E1
:1007F000A5498861A5488068A44988600846806842
:100800008860A348006840F40070A1490860A048CF
:100810000C38006840F400709D490C3908600F21C5
:100820001720FFF70BFD172001218140420992009C
:1008300002F1E022C2F8001100BF08BD10B50CF0B3
:1008400009F90CF0EBF810BD10B504218D4805F046
:10085000F0F910B98F48007840B18D480830006831
:1008600040F002008A490831086020E004F034FBBF
:100870000120FFF78CFDFFF7E1FF002401E000BF3E
:10088000641C85488442FAD30122D1027B4805F0DA
:10089000EEF94FF48061794805F0E7F94FF4007103
:1008A000764805F0E2F901E006F057FDFCE710BDDF
:1008B00008B526208DF8000000208DF802000120E8
:1008C0008DF80300684604F0B4FC08BD024610042D
:1008D000B0FBF1F0714B1B681844704B1860184660
:1008E0000068B0EB024F01D3002018606B4800682D
:1008F000000C70472DE9FC414FF47A7425E00CF0B0
:10090000A9F8012108460CF0CEFA654A002165A03D
:100910000CF019FB012108460CF0C5FAC4F57A70F9
:1009200018F0E1FB07460022634B18F0D5F90546A5
:100930002A460B4661A1684615F00AF8584A00217C
:1009400068460CF000FB0CF069F82000A4F10104EB
:10095000D5D1BDE8FC812DE9FE4F04464FF00009DA
:10096000CA4600200CF073F8002021237D221E21AE
:10097000009001200CF0CDF9204618F0CBFB074683
:10098000504A514B18F05CFC054618F0BFF88246FF
:100990000AE000200CF05BF8012009F0FF0221239F
:1009A0001E2100900CF0B5F9484609F1010919F033
:1009B00049F90546514619F071F9EAD9012108466D
:1009C0000CF071FA364A002140A00CF0BCFA01216B
:1009D00067200CF068FA224640A101A814F0B8FF85
:1009E0002F4A002101A80CF0AEFA0CF017F8BDE870
:1009F000FE8F70B5002504F00BF8002014F068FCA1
:100A000004467CB109E0002014F062FC044604B9FD
:100A100007E042F21070FFF7B5FC28466D1C052870
:100A2000F1D300BF0BF0A2FE204670BD7CB50025BF
:100A30000026FFF7DEFF0120FFF7A9FC06F08DFC82
:100A40000CF008F802F006FAC6B20020FFF79FFC8F
:100A500006F083FC0121182003F01CFD00210C206E
:100A600003F018FD00211A2003F014FD01210F20CE
:100A700003F010FD3C243EE0000C0140001001405A
:100A80000014014000080140001002400000014035
:100A90000C0401402C000020FFFF1F0094000020E8
:100AA00018B70208D4EEF0ECE0F2E8F0EEE2E0ED88
:100AB000E8E52E2E2E00000000002440252E316691
:100AC00025250000D7A3703D0AD7F33FD4EEF0EC04
:100AD000E0F2E8F0EEE2E0EDE8E53A0025642525F5
:100AE000000000002046FFF736FF4FF4FA70FFF7D2
:100AF00049FC601C44B2502CF4DBFFF77AFF04F091
:100B000054FAC6B2502408E02046FFF724FF4FF401
:100B1000FA70FFF737FC601C44B2642CF4DDF74830
:100B2000FFF730FC0BF096FF012108460CF0BBF9F3
:100B3000F3A1684614F00CFFF54A002168460CF05A
:100B400002FA0C2101200CF0AEF9F2A1684614F073
:100B5000FFFEEF4A002168460CF0F5F90BF05EFF4E
:100B600006F0FBFBE548FFF70DFC0021442006F0F2
:100B700052FB01207CBD70B50646E948006800289C
:100B800072D1E849E848006819F088F828D24FF097
:100B90008041E548006819F081F921D2E3480068F6
:100BA000F0B9E3480078D8B90BF054FF14210520C0
:100BB0000CF079F9D64A0021DEA00CF0C4F91E2110
:100BC00005200CF070F9D24A0021DFA00CF0BBF92F
:100BD0000BF024FF0120D5490860DF48FFF7D2FB66
:100BE000D348007800283DD1DC48006818F092FE18
:100BF0000446DB4ADB4B18F0E7FA33D80BF02AFF48
:100C0000142105200CF04FF9C14A0021D6A00CF0A8
:100C10009AF91E2105200CF046F9BD4A0021D5A005
:100C20000CF091F90BF0FAFED548FFF7ABFB0BF097
:100C300011FF19211C200CF036F9D24A0021D2A054
:100C40000CF081F90BF0EAFE0021282006F0E3FA0F
:100C5000C148FFF797FB0120B44908604102CD4825
:100C600005F003F856E0FFE702F010F80A2825D84F
:100C700002F00CF8022821D9AC480068F0B9AC4861
:100C80000078D8B90BF0E6FE142105200CF00BF922
:100C90009F4A0021A7A00CF056F91E2105200CF058
:100CA00002F99B4A0021A8A00CF04DF90BF0B6FE0A
:100CB00001209E490860A848FFF764FB01F0E6FFA9
:100CC000012827D89A48007820BB9848006808BBBC
:100CD0000BF0C0FE142105200CF0E5F88C4A002131
:100CE000A1A00CF030F91E2105200CF0DCF8884A98
:100CF0000021A0A00CF027F90BF090FEA648FFF70A
:100D000041FB0BF0A7FE0BF089FE4FF40071A148E8
:100D100004F0ABFF70BD10B5102003F04FFB04468C
:100D2000012C06D0022C0AD0042C0ED0082C14D191
:100D300011E0112003F042FB40EA04240FE01220EE
:100D400003F03CFB40EA042409E0132003F036FBE7
:100D500040EA042403E0240201E0002400BF00BFB5
:100D60008E480068A04219D0A1B20A2003F092FB7D
:100D70008A4804608A48818C042003F08BFB8848F1
:100D8000818D052003F086FB8548818E062003F0C7
:100D900081FB8348818F072003F07CFB10BD70B579
:100DA00003F026FEA8B303F04FFD012003F0FAFD87
:100DB00004462146002003F06DFB032003F0F2FD02
:100DC0000546022003F0EEFD00EBC00101EB001030
:100DD00005EB800084B22146012003F05BFB052077
:100DE00003F0E0FD0546042003F0DCFD00EBC0014C
:100DF00001EB001005EB800084B22146022003F0D5
:100E000049FB062003F0CEFD04462146032003F0F3
:100E100041FB70BD10B500220421624804F027FF99
:100E200002F0DEFB00210B2003F034FB082003F06E
:100E3000C5FA40F001042146082003F02BFB46F2DE
:100E4000A811594802F0B7FB10BD10B502F01AFE08
:100E5000082003F0B3FA20F001042146082003F033
:100E600019FB0B2003F0AAFA28B94D48B0F85C1022
:100E70000B2003F00FFB10BD10B504464B48007863
:100E8000002802DD4A484B49086004214A4804F022
:100E9000D0FE012802D146484649086047480078FC
:100EA000012808D143480068002804DC4FF4007191
:100EB000384804F0DAFE10BD2DE9FC5F192003F07C
:100EC0007DFA064618F0D6FE05463D4918F0BCFDF1
:100ED0003C4908600A2003F071FA40F20122811AAD
:100EE000904271D07CDCB0F5827F6FD071DCA0F2D3
:100EF000011010B101286BD184E07BE060E31600A3
:100F0000D4EEF0ECE0F2E8F0EEE2E0EDE8E500002F
:100F100018B70208E7E0E2E5F0F8E5EDEE2E000094
:100F20005C000020000020417C00002034000020F4
:100F300014000020C7E0F0FFE420E0EAEAF3ECF35D
:100F4000EBFFF2EEF0E00000ECE5EDFCF8E520311F
:100F50003025202E2E2E0000A02526008000002007
:100F6000CDCCCCCCCCCC0440C0EAEAF3ECF3EBFF24
:100F7000F2EEF000F0E0E7F0FFE6E5ED2E00000015
:100F8000E067350020C50208C2DBCACBDED7C5CD7D
:100F9000C8C5000000100140404B4C0098000020E4
:100FA000EE9F020800140140100E002018060020D9
:100FB000C027090008000020000801408D00002023
:100FC00000007A44240000203CE009E022E000E038
:100FD00098E0B0F5847F25D0B0F5887F8BD129E0EB
:100FE00001293BD003294ED0072961D0B1F5007FFC
:100FF000F4D172E0F849F948006818F025FDF74986
:10100000086080E0F449F548006818F01DFDF349D8
:10101000086078E0F049F148006818F015FDEF49E4
:10102000086070E0EC49ED48006818F00DFDEB49F0
:10103000086068E0E849E948006818F005FDE749FC
:10104000086060E0E649E548006818F05BFE054688
:10105000E14918F0F9FCE149086054E0DF48006814
:1010600018F058FCDF4AE04BCDE9000118F0E8F831
:1010700007460022DD4B17F02FFE054617F046FD10
:10108000D64908603FE0D548006818F043FCD54ACF
:10109000D54BCDE9000118F0D3F805460022D34B1B
:1010A00017F01AFE074617F031FDCC4908602AE018
:1010B000CA48006818F02EFC0546CA4ACA4B18F008
:1010C000BFF80022C94BCDE9000117F005FE074625
:1010D00017F01CFDC149086015E0C048006818F011
:1010E00019FC0746C24AC34B18F0AAF8054600226D
:1010F000C14B17F0F1FDCDE9000117F007FDB7492D
:10110000086000E000BF00BFBC4801F038FC0546A5
:10111000B2480168284618F0F5FD81460A2003F020
:101120004DF940F20121884211D14946484618F054
:10113000E9FDB349019018F0E3FE834618F0EAFB9D
:10114000074617F090FC054617F0E0FC814648463C
:1011500018F058FD85B22946042003F09BF9A748F2
:1011600001F029FC8246A54801F030FC0546A5495E
:1011700018F0C8FD04462146504618F08FFD00D2F5
:10118000A24696480168504618F0BCFD82460A20E7
:1011900003F014F940F2011188420ED14FF0814161
:1011A000504618F07BFE06D24FF08141504618F0B1
:1011B000A7FE824601E04FF0000A0A2003F0FEF885
:1011C000B0F5817F0ED14FF08141504618F066FE98
:1011D00006D24FF08141504618F092FE824601E05F
:1011E0004FF0000A0A2003F0E9F8B0F5827F0CD135
:1011F0008549504618F052FE05D28349504618F0F2
:101200007FFE824601E04FF0000A0A2003F0D6F884
:10121000B0F5847F0CD17D49504618F03FFE05D2D1
:101220007A49504618F06CFE824601E04FF0000A01
:101230000A2003F0C3F840F2012188420CD174491E
:10124000504618F02BFE05D27149504618F058FE52
:10125000824601E04FF0000A0A2003F0AFF840F2A6
:10126000022188420ED14FF08241504618F016FEFE
:1012700006D24FF08241504618F042FE824601E00D
:101280004FF0000A0A2003F099F8B0F5017F0ED163
:101290004FF08241504618F001FE06D24FF08241D5
:1012A000504618F02DFE824601E04FF0000A0A2059
:1012B00003F084F8B0F5027F0CD15649504618F07F
:1012C000EDFD05D25349504618F01AFE824601E062
:1012D0004FF0000A0A2003F071F840F20141884201
:1012E0000CD14D49504618F0D9FD05D24A49504617
:1012F00018F006FE824601E04FF0000A504618F052
:1013000081FC85B22946052003F0C4F842494846CD
:1013100018F0C4FD05D24946504618F095FB8246A8
:1013200001E04FF0000A3D49504618F0EBFC06463C
:1013300018F068FC85B22946072003F0ABF82F4867
:1013400001F04FFB054625480168284618F0DAFCF5
:1013500082460021504618F0A1FC01D24FF0000A4D
:101360000A2003F02BF840F2011188420ED14FF011
:101370008241504618F092FD06D24FF0824150460D
:1013800018F0BEFD824601E04FF0000A0A2003F08B
:1013900015F8B0F5817F0ED14FF08241504618F01C
:1013A0007DFD06D24FF08241504618F0A9FD8246DD
:1013B00001E04FF0000A0A2003F000F8B0F5827F48
:1013C00030D11249504618F069FD29D20F495046D4
:1013D00018F096FD824625E00000404024000020E1
:1013E0000000E442D122DBF97EEA344000000840EC
:1013F00085EB51B81EB9784000C0724070D1002012
:101400000000C843000080BF0000E04000006041D1
:1014100000008C42000020410000A0400000C842B3
:101420004FF0000A0A2002F0C9FFB0F5847F0CD10A
:10143000FE49504618F032FD05D2FC49504618F0DE
:101440005FFD824601E04FF0000A0A2002F0B6FF7D
:1014500040F2012188420CD1F549504618F01EFD9A
:1014600005D2F349504618F04BFD824601E04FF09B
:10147000000A0A2002F0A2FF40F2022188420CD1A9
:10148000EC49504618F00AFD05D2EA49504618F0DA
:1014900037FD824601E04FF0000A0A2002F08EFF7D
:1014A000B0F5017F0CD1E349504618F0F7FC05D2A6
:1014B000E049504618F024FD824601E04FF0000A52
:1014C0000A2002F07BFFB0F5027F0CD1D9495046CB
:1014D00018F0E4FC05D2D749504618F011FD8246B9
:1014E00001E04FF0000A0A2002F068FF40F20141DB
:1014F00088420CD1D049504618F0D0FC05D2CE49D4
:10150000504618F0FDFC824601E04FF0000A5046BC
:1015100018F078FB85B22946062002F0BBFFBDE833
:10152000FC9F70B5044665682E462068FEF77FFE76
:10153000A4F100614FF0006003F0ADFEB04770BD54
:101540002DE9F84F01F0D2FB824618F093FB81465B
:101550004FF08B4118F078FA044618F0DBF9074693
:101560004FF06632B54B17F06BFE054617F0CEFA1A
:10157000B349086008460168B24818F0C1FCB04998
:101580000860B149AE48006818F05EFA804618F06D
:10159000C1F90646AD4AAE4B17F052FE044617F0AD
:1015A000B5FAA749086001F0CBFB009018F062FB88
:1015B00083464FF08B4118F047FA824618F0AAF99B
:1015C00080464FF066329D4B17F03AFE0646A14A20
:1015D000A14B17F035FE044617F098FA9F490860B2
:1015E0009F48006818F02EFB05469E480168284673
:1015F00018F086FC04469C4918F026FA9B490860BE
:101600009748006818F01EFB9649086097480168E3
:101610008B48006818F076FB0446954918F014FAD8
:101620009449086094480068012807D10846016879
:101630009248006818F09AF9904908608E4800684E
:1016400038B98C4801688D48006818F059FC8B49FE
:1016500008601F2002F0B2FE18B989488949086065
:1016600002E08948874908607C48006818F052F910
:101670000446864A864B17F0A7FD03D8002085490B
:1016800008600CE084497D48006818F03BFB044684
:101690007C480168204618F0D7F97E4908607748F1
:1016A000006818F037F906467C4A7D4B17F014FBAA
:1016B000804617F041F9044617F0A2FC1FFA80FAA1
:1016C0005146282005F0A7FD6C480068BDE8F88F5A
:1016D00030B5ADF5117D00250024012271A17248BD
:1016E00011F0E8FD112271A101A811F00EFE72495E
:1016F000087008460078B0B900BF12E004EBC401DE
:1017000001A812F0A1F96C49087001AA09218AA860
:1017100013F02DFA69498AA812F0C9FA00B96D1CB4
:10172000641C0A2CEAD301A812F0BFF800225DA1C4
:10173000104611F0BFFD28460DF5117D30BD2DE995
:10174000F047ADF58E6D00240027A14601200490DE
:101750004FF6FF750BF07EF9012108460BF0A3FB55
:10176000574A002157A00BF0EEFB0F2101200BF090
:101770009AFB534A002156A00BF0E5FB1E210120E5
:101780000BF091FB4E4A002155A00BF0DCFB2D2104
:1017900001200BF088FB4A4A002154A00BF0D3FB38
:1017A0000BF03CF910E0082002F0DDFD18B94FF015
:1017B0000060FFF7B6FE0421524804F03AFA01280F
:1017C00000D102E005F0C9FDEDE700BF71B672B6C9
:1017D000012234A18FA811F06DFD814611224AA18A
:1017E00006A811F092FD81461EE004AB012205A976
:1017F00006A811F03DFE8146049800B98AE09DF8E4
:101800001400454000270BE02E46354606F001083F
:101810006D10B8F1000F02D04AF2010045407F1C64
:10182000082FF1D305F099FDDFE700000000F0413B
:10183000000002430000A0410000204166660A400B
:10184000640000203333D33FA4709D407B14AE4727
:10185000E17AF03FE17A14AE47E1004080000020D9
:10186000040000206C00002000007A446800002082
:10187000000061457000002060000020740000201E
:101880009A99193F880000209A99993FCDCCCCCCE9
:10189000CCCC04407C0000200000C84225D910F8C0
:1018A0004533F33E303A000088070020526F6164F0
:1018B000732E74787400000000000020E00B0020FC
:1018C00018B70208CEE1EDEEE2EBE5EDE8E5000049
:1018D000E7E0E3F0F3E7F7E8EAE02E2E2E00000061
:1018E000CFEEE4EAEBFEF7E8F2E50000E7E0F0FF18
:1018F000E4EDEEE520F3F1F2F0EEE9F1F2E2EE2EA6
:101900000000000000080140626F6F74312E6269B0
:101910006E00000000BF002D35D00BF09BF80121B8
:1019200008460BF0C0FAFE4A0021FEA00BF00BFBAC
:101930000F2101200BF0B7FAF94A0021FEA00BF0AD
:1019400002FB1E2101200BF0AEFAF54A0021FDA09A
:101950000BF0F9FA2D2101200BF0A5FAF04A002135
:10196000FDA00BF0F0FA0BF059F801E005F0F5FCE2
:101970000421FC4804F05DF90028F7D14FF0006025
:10198000FFF7CFFD8EE00BF065F8012108460BF064
:101990008AFAE34A0021AFF2D4000BF0D4FA142102
:1019A00001200BF080FADE4A0021AFF2DC000BF0E0
:1019B000CAFA0BF033F805F006FD002406E04FF0FC
:1019C000006101EBC42005F045FD641C202CF6D31A
:1019D0001122AFF2CC0106A811F097FC8146B9F1B3
:1019E000000F21D100241DE004AB0422694606A8A3
:1019F00011F03EFD8146049800B914E04FF00062FA
:101A000002EB8400009905F0B6FD042801D1012005
:101A100000E000205FEA000A01D0641C00E002E060
:101A200005F09BFCE0E700BF06A811F03EFF8146F1
:101A300005F0CFFC0BF00EF8012108460BF033FA4D
:101A4000B74A0021C8A00BF07EFA142101200BF048
:101A50002AFAB34A0021BBA00BF075FA232101201A
:101A60000BF021FAAE4A0021BBA00BF06CFA0AF091
:101A7000D5FF01E005F071FC0421BA4804F0D9F863
:101A80000028F7D1AFF2801012F00EFA8146002242
:101A9000AFF2F011104611F00DFC81464FF00060DE
:101AA000FFF73FFD61B662B60022AFF20821104693
:101AB00011F000FC81460DF58E6DBDE8F08796B003
:101AC00000BF002014900024002500BF0C904FF0B0
:101AD000010AAB490870FEF792FCAA48FEF752FCD7
:101AE00001229102A84804F0C2F8A648FEF74AFC79
:101AF00003F06EFB0120FEF74AFC00F091FF06F0B8
:101B00003BFC0AF0BEFF0120A049086002F05AFE2B
:101B10008146B9F1000F05D19D48006840F00100F1
:101B20009B490860FEF765FFC6B2002E34D0002046
:101B3000984908700AF08EFF0A2105200BF0B3F9CE
:101B4000774A002194A00BF0FEF9142105200BF038
:101B5000AAF9734A002195A00BF0F5F92821052078
:101B60000BF0A1F96E4A002195A00BF0ECF932219F
:101B700005200BF098F96A4A002195A00BF0E3F9D3
:101B80000AF04CFF9748FEF7FDFB8148006840F0E3
:101B900002007F49086002E001207E49087002F0DF
:101BA000C5FD8146B9F1000F05D17948006840F0C4
:101BB000040077490860202002F000FC8A49088070
:101BC000684608F057F930226946884814F0AAFAA6
:101BD0000BF0E3F90AF022FF002401E000BF641CCF
:101BE00083488442FAD3142001F0B4F90CF042F88F
:101BF000FFF76EFD7F49086008460068052803D995
:101C000001207D49086002E000207B490860002037
:101C1000FEF7BDFB012002F0BAFB30B9022002F052
:101C2000B6FB10B980200CF022F8192002F0C6FB98
:101C3000804618F01FF80746704917F005FF7049F5
:101C4000086070496E48006817F0FEFE6C49086035
:101C50000C2005F0ECFA6C490880442005F0E7FA06
:101C60006A4908604FF40041694803F0E2FF69499E
:101C70000860282005F0DBFA099017F0FBFF834687
:101C800017F048FE0746644A644B17F0D9FACDE9CD
:101C90000A0116F03BFF6249086062486249086029
:101CA00062495F48006818F02DF807465E480168F1
:101CB000384617F0C9FE5E4908605648006830B9DA
:101CC0000846006817F082FF5A49086003E000F0F8
:101CD000DDFF584908604FF400414D4803F0A9FF6B
:101CE00001280CD10820544908801020C870082110
:101CF0001C4803F0BAFF50491A4803F007FF81E27D
:101D00004E48007850B140480088B0F5616F06D168
:101D10000E2002F053FB3C49088091E0B1E0A3E0C3
:101D200018B70208D4E0E9EB20EFEEE2F0E5E6E4D4
:101D3000E5ED2C2000000000EEF8E8E1EAE02043A9
:101D400052432E00CEF2EAEBFEF7E8F2E520E7E0A0
:101D5000F0FFE4EDEEE50000F3F1F2F0EEE9F1F270
:101D6000E2EE2E0000080140CEE1EDEEE2EBE5ED03
:101D7000E8E520E7E0E2E5F0F8E5EDEE2E00000012
:101D800014000020E0930400001001403000002007
:101D90000C0000208C000020D4F3EDEAF6E8EEED14
:101DA000E0EB20F0E0E1EEF2FB000000EFF0E8E114
:101DB000EEF0E020EEE3F0E0EDE8F7E5ED2E0000D8
:101DC000CEE1F0E0F2E8F2E5F1FC20E200000000F4
:101DD000F1E5F0E2E8F1EDFBE920F6E5EDF2F02EB9
:101DE0000000000080F0FA022C6C0040000C002083
:101DF000FFFF2F00180000206007002000007A4439
:101E0000240000200000964320000020E40600206B
:101E1000000C01405C00002025D910F84533F33E4A
:101E2000740000209A99193F880000200000C842E1
:101E30007C0000204C0000208E00002022000020AA
:101E4000084600884FF6E851884209DAEE480088D3
:101E5000401C80B2EC4A108001460E2002F01AFBB2
:101E60000020E949088004E0E7480088401CE64972
:101E700008800020E5490870E34801880C2005F03F
:101E8000CAF945F2555005F05FFA062005F05FFAF1
:101E90004FF4806005F05EFA05F064FAFFF750FB3E
:101EA0001E2002F08BFADA490870DA480078DA4925
:101EB00008600421D94803F0BCFED949096888426A
:101EC0007ED00421D54803F0B4FED5490860084609
:101ED000006880B1FEF7B9FF0020D249087002F017
:101EE000FBFFD148FEF74EFA0120FEF750FA002022
:101EF000CE490870C6E00120CC4908700020CC49CA
:101F000008700AF0A7FD012108460AF0CCFFC94A73
:101F10000021C9A00BF017F80AF080FD00201590F1
:101F2000149072B671B60122AFF28861C64811F002
:101F3000C1F9002511E000231A46C4A10DA800959F
:101F400013F006FDC8490DA811F0B1FE10B915989F
:101F5000401C159005F001FA6D1CFF2DEBD905F022
:101F6000FCF90A22AFF2BC61C04811F0CEF90022A0
:101F7000BFA10DA813F0ECFC0DA9BC4812F087FE20
:101F8000BA490A2012F03EFE012417E02246BBA106
:101F90000DA813F0DDFCB4490DA811F088FE50B96E
:101FA0000DA9B24812F073FEB0490A2012F02AFEC1
:101FB0001498401C149005F0D0F9641CFF2C00E02C
:101FC00072E0E3D3A94811F070FC00220DA99DA096
:101FD00012F07EF9ACA10DA814F052F910B1AAA02C
:101FE00012F0D5F90022AFF24471104611F062F9F7
:101FF00062B661B6FFF76CFBA54908601598401CF6
:1020000081B20F2002F046FA00240025A1A1A2A06F
:1020100013F02FFF40B14FF00060FFF782FA00206D
:10202000A1490860A14908600122AFF28871864881
:1020300011F040F98C49AFF2307011F038FE824651
:10204000BAF1000F0DD10020974908609749086048
:102050000022AFF2B071104611F02CF98246FFF762
:102060006EFB0022AFF2C471104611F023F900207C
:10207000FEF78DF96C48FEF785F902F0FFFE0020AF
:102080000FF093FA8A48006810B96648007838B1B2
:1020900000F0FCFD8749086000F0F8FD8649086003
:1020A0005F48006806F076F95D480068002870D146
:1020B00001208249086000205C4908701E2002F05F
:1020C0007DF9012801D1FEF7D7FE4FF480517C48FD
:1020D00003F0CBFD4FF40051794803F0C6FD5148A1
:1020E000007810B90020FEF746FD4E48007830B960
:1020F000042002F038F910B901204A490870494813
:10210000007801280ED1802002F02DF950B902206C
:10211000444908706B48007820B90120FEF737F970
:10212000FEF778FE3F480078022806D1042002F02E
:102130001AF910B903203B4908703A48007803287F
:1021400006D1802002F00FF910B90020354908703F
:102150003448007840B9FEF778FE01F0AFFC00B9D2
:10216000641C0020FEF713F9082002F027F900F0A4
:102170000100002810DD0A2002F020F9B0F5006F00
:1021800008D101F0A3FC074639460B2002F082F982
:1021900002E020E0FEF790FE4B480078002809DDC1
:1021A000082002F00BF940F008073946082002F039
:1021B00071F908E0082002F001F920F0080739461B
:1021C000082002F067F900203F4908700FF02DFD4C
:1021D000FEF7A1FD16E03D48007880B93C48FEF7C7
:1021E000D1F83A48007818B902200FF0DEF909E07A
:1021F00001200FF0DAF900203049086002E00120E8
:102200000FF0D3F97CE50000200000202200002020
:102210008D0000205E0600205400002000080140D0
:102220001000002014000020400D03002C000020AE
:102230001500002018B70208CFEEE4EEE6E4E8F25D
:10224000E52E2E2E0000000088070020303A2530B1
:1022500033752E253033752F5369676E616C2025D9
:10226000642E646174000000E00B0020BC090020B3
:10227000526F61642E25303175202000526F6164E9
:102280002E2530336400000050494F4E00000000FE
:1022900018000020726200004D3A5C70726F673166
:1022A0002E62696E00000000DC060020E8060020B7
:1022B0005C0000204C000020500000206000002046
:1022C00000100140B4060020E40000205F0600205A
:1022D00080969800704700BFFEE700BFFEE700BF92
:1022E000FEE700BFFEE770477047704710B5FDF787
:1022F000CFFF10BD10B540F225510F4803F062FB2F
:1023000048B10D4803F0F5FA0C4908700846017809
:10231000094803F0EAFA40F22661074803F052FB4D
:1023200040B14021044803F044FB04480078401EBB
:102330000249087010BD0000004400409C000020CD
:102340002DE9F04106460F461446F9480078012869
:1023500002D10020BDE8F081022C00DC0CB9002085
:10236000F8E7F34801780078401CF14A107001EB5F
:10237000810000EBC100EF4901EB80052C704FF0AC
:10238000000800BF002105F11C0040F824100C30AB
:1023900040F8241056F82410281D40F8241057F84F
:1023A00024100C3040F8241034B1281D50F82410AB
:1023B000404617F0DBFA804605F1100050F8241073
:1023C000404617F0D3FA8046201EA4F10101CCB29A
:1023D000D8DC2846BEE72DE9F04704460D46002626
:1023E000E1692162A16AE162E561A168E06A17F032
:1023F00089FC80466169206A17F084FC8146216966
:10240000E06917F07FFC8246494617F0AFFA0746AD
:10241000414617F0ABFA0646A662A06ABDE8F0870F
:102420002DE9F84F04460D460026216A6162E16AF3
:102430002163E1692162A16AE162E561E168206BE3
:1024400017F060FC8146A168E06A17F05BFC8246E9
:10245000494617F08BFA0746A169606A17F052FCEB
:1024600000906169206A17F04DFC82462169E0699D
:1024700017F048FC8346514617F078FA81460099D8
:1024800017F074FA8046394617F070FA0646A662CD
:10249000A06ABDE8F88F2DE9BF4F82468B461446EF
:1024A000A5480078062803D1002004B0BDE8B08F0D
:1024B000022C00DC0CB90020F7E79F480178007877
:1024C000401C9D4A107001EB810000EBC1009B494C
:1024D00001EB800989F80040002500BF002109F1C7
:1024E0001C0040F824100C3040F824100AEBC40003
:1024F00000224FF08043D0E90071384616F064FEA8
:1025000021D20AEBC40000224FF04043D0E9007111
:10251000384616F093FF16D20AEBC4000022884B0F
:10252000D0E90071384616F08BFE0022854BCDE9CC
:10253000000116F085FECDE9020116F077FA09F1E7
:10254000040141F824000BEBC40000224FF080434B
:10255000D0E90071384616F037FE21D20BEBC400EB
:1025600000224FF04043D0E90071384616F066FF74
:1025700016D20BEBC401D1E900710022704B384632
:1025800016F05EFE00226F4BCDE9000116F058FEFA
:10259000CDE9020116F04AFA09F1100141F82400D0
:1025A00024B109F1040050F82400451909F1100084
:1025B00050F824004519201EA4F10101CCB28DDC95
:1025C000484672E70146002009E0002301F11C02A1
:1025D00042F820300C3242F82030421CD0B203289E
:1025E000F3DB70472DE9FC5F06468946154600245B
:1025F00034E006EBC4000022514BD0E900713846AC
:1026000016F01EFE00224F4BCDE9000116F018FE19
:10261000824616F00BFA291D41F8240009EBC4008C
:102620000022474BD0E90071384616F009FE824679
:102630000022444B16F004FECDE9000116F0F6F935
:1026400005F1100141F82400002105F11C0040F8BB
:1026500024100C3040F82410601CC4B22878401CB0
:10266000A042C6DCBDE8FC9F2DE9F043024600BF56
:10267000156A5562D56A1563D5691562956AD56282
:10268000D1611569D06980FB0550176A566987FBCF
:102690000667AD197841576A966987FB0667AE19D8
:1026A0007841D76A956887FB0597D2F80CC0D2F8B5
:1026B000308088FB0CC83D4619EB0C0745EB08053C
:1026C000F31940EB05044FF000569E1944F1000049
:1026D000850045EA96709062906ABDE8F083F0B597
:1026E000024600BFD5691562956AD562D161156948
:1026F000D06980FB0550176A566987FB0667AD19DC
:102700007841D76A966887FB0667AB1940EB0704E8
:102710004FF00057DE1944F10000850045EA96703D
:102720009062094D906AA84210DD2846F0BD000075
:102730009D000020A00C00209E000020D40C002052
:102740000000F0400000D0400080FF3F906AB0F1F0
:10275000404F02DA4FF04040E8E7906AE6E72DE9A3
:10276000F043024600BF156A5562D56A1563D56904
:102770001562956AD562D1611569D06980FB0550F3
:10278000176A566987FB0676ED197041576A966994
:1027900087FB0667AE197841D76A956887FB05C540
:1027A000D2F83080D76888FB0787B9461CEB08074A
:1027B00045EB0905F31940EB05044FF000569E194F
:1027C00044F10000850045EA967090628F4D906A52
:1027D000A84202DD2846BDE8F083906AB0F1404F80
:1027E00002DA4FF04040F6E7906AF4E72DE9F0474F
:1027F000034600BF1E6A5E62DE6A1E63DE691E62F9
:102800009E6ADE62DA611E69D86980FB0670D3F8C1
:1028100020C05E698CFB06C6B04617EB0C0640EB89
:102820000800D3F824C09F698CFB077CF71940EBA4
:102830000C00D3F82CC09E688CFB0686D3F80CC025
:10284000D3F8309089FB0C9CE24618EB090C46EB60
:102850000A0617EB0C0440EB06054FF0005C14EB86
:102860000C0745F10000860046EA9770986200BFA9
:102870000E6A4E62CE6A0E63CE690E628E6ACE62B8
:10288000986AC8610E69C86980FB0670D1F820C0DB
:102890004E698CFB06C6B04617EB0C0640EB0800F1
:1028A000D1F824C08F698CFB077CF71940EB0C0032
:1028B000D1F82CC08E688CFB0686D1F80CC0D1F8FC
:1028C000309089FB0C9C18EB090846EB0C0617EBC3
:1028D000080440EB06054FF00056A61945F100002C
:1028E000870047EA96708862484E886AB04202DDE7
:1028F0003046BDE8F087886AB0F1404F02DA4FF009
:102900004040F6E7886AF4E74181002303604360B2
:102910000022C26002618261C261028180F82820C7
:1029200002624262704730B5C2688A4200DAC16012
:1029300002698A4200DD016101F58042D11381FB09
:102940000153D0E9004264195A41C0E900420289AA
:10295000521C0281028943899A420FDBD0E900238D
:10296000C0E90623C2680262026942620022C260B4
:10297000026102604260028180F8282030BD2DE9AA
:10298000FC478046B8F80A0016F0C4FB04460D4622
:10299000D8E90621104616F0D1FB064622462B4602
:1029A00016F09AF9814616F05EF8CDE9000116F0AE
:1029B000ADF8BDE8FC8770B50446206A17F042F90F
:1029C00005464FF08E4117F03FF870BD70B50446D4
:1029D000606A17F037F905464FF08E4117F034F86A
:1029E00070BD70B504462046FFF7F0FF054620464F
:1029F000FFF7E1FF0646294617F082FA70BD01464F
:102A000091F8280000F00100704700000080FF3FAF
:102A100010B5044621464FF4007002F0E1FD10BDF0
:102A200000B585B0012140F2012002F0D9FD00205F
:102A300000908DF804008DF805004FF4602002909E
:102A40000020039001208DF810006946D14803F062
:102A5000C2F9072301220321CE4803F054FA0121D1
:102A6000CC4803F0E4F9CB4803F003FA00BFC948AF
:102A700003F004FA0028FAD1C64803F009FA00BFAF
:102A8000C44803F00AFA0028FAD1012003F060FBE1
:102A90000021C04803F0CBF905B000BD2DE9F0419D
:102AA00000240025002780260120FFF7B1FF012127
:102AB000B84803F0BCF9072301221121B54803F0FF
:102AC00022FA00BF0EE00121B24803F0F0F900BF86
:102AD0000221B04803F05CFB0028F9D0AD4803F0B8
:102AE00079FA05443000A6F10101CEB2EBD1ED092F
:102AF0004FF49600B0FBF5F7072301221146A548D5
:102B000003F001FA80260EE00121A24803F0CFF97C
:102B100000BF02219F4803F03BFB0028F9D09D48ED
:102B200003F058FA04443000A6F10101CEB2EBD113
:102B30000021984803F07BF90020FFF769FFE409C2
:102B400004FB07F04FF4006101EB400040F6FF7119
:102B5000B0FBF1F42046BDE8F08110B5FFF79EFF11
:102B6000044641F23600844201D964240DE040F667
:102B70001C40844201D2002407E0A4F61C446420D7
:102B8000604340F21A41B0FBF1F4834800886428A6
:102B90000CD1824800686421B0FBF1F080490870D4
:102BA00000207E4908607C49088004E07B4800687A
:102BB00020447A49086078480088401C764908809B
:102BC00077480078FA2801D175490C70744800786C
:102BD00010BD2DE9F04100240025002780260120AA
:102BE000FFF716FF01216B4803F021F907230122AB
:102BF0001121684803F087F900BF0EE00121654804
:102C000003F055F900BF0221624803F0C1FA002821
:102C1000F9D0604803F0DEF905443000A6F1010167
:102C2000CEB2EBD1ED095F48B0FBF5F707230122E7
:102C30001146584803F067F980260EE001215548F7
:102C400003F035F900BF0221524803F0A1FA002831
:102C5000F9D0504803F0BEF904443000A6F1010158
:102C6000CEB2EBD100214B4803F0E1F80020FFF792
:102C7000CFFEE40904FB07F040F6CA0101EB400077
:102C80004900B0FBF1F42046BDE8F08110B5FFF734
:102C9000A0FF0446B4F5616F01D964240CE0B4F5DB
:102CA000486F01D2002407E0A4F548646420604323
:102CB0004FF4C871B0FBF1F4204610BD10B5FFF71A
:102CC00088FF0446B4F57A6F01D964240CE0B4F5AA
:102CD000486F01D2002407E0A4F5486464206043F3
:102CE0004FF44871B0FBF1F4204610BD70B50026DA
:102CF000002480250120FFF78BFE0121254803F0E9
:102D000096F8072301220321224803F0FCF800BFB4
:102D10000EE001211F4803F0CAF800BF02211D4840
:102D200003F036FA0028F9D01A4803F053F90444A6
:102D30002800A5F10101CDB2EBD1E409204670BD18
:102D400070B50026002480250120FFF761FE0121D7
:102D5000104803F06CF80723012211460D4803F0D8
:102D6000D2F800BF0EE001210A4803F0A0F800BF2E
:102D70000221084803F00CFA0028F9D0054803F0B6
:102D800029F904442800A5F10101CDB2EBD1E409F1
:102D9000204670BD00240140A8000020A4000020AF
:102DA000A0000020C0655200012070472DE9F041CD
:102DB00004460D461746002012F03AFB06462EB197
:102DC00001225BA15B4810F075FA064672B671B637
:102DD000012322462946002012F075FB064662B602
:102DE00061B6002252A1104610F064FA0646012096
:102DF000BDE8F0812DE9F04104460D46174600205C
:102E000012F016FB06462EB1012249A1494810F0E6
:102E100051FA064672B671B60123224629460020B1
:102E200012F00DFB064662B661B6002240A11046C4
:102E300010F040FA06460120BDE8F08101463E4808
:102E4000C06848603C48C08A08813B48C08A4881C5
:102E50000120704770B504F080FA72B671B6374839
:102E6000FDF790FA09F082FC0546012230A13148B5
:102E700010F020FA0546002211462DA011F048FB63
:102E8000044604F06AFA2EA011F081FA05460022E9
:102E900027A1104610F00EFA054662B661B620462C
:102EA00070BD29482949486029484860704727482B
:102EB000006940F080002549086170472348C068D8
:102EC00000F0010080F00100704700B501461F4886
:102ED000006940F002001D4A10611046416100691E
:102EE00040F04000106100BFFFF7E8FF0028FBD072
:102EF0001648006920F00200144A106100BD014626
:102F000008687047114A126942F001020F4B1A61BA
:102F100000BF0E4AD26802F00102002AF9D10180F6
:102F20000A4A126922F00102084B1A617047000038
:102F3000303A000088070020000C0020A086010025
:102F400050494F4E00000000230167450020024019
:102F5000AB89EFCD10B58AB004460121C80202F05A
:102F60003FFB012C04DD601E80B2ADF8200002E0C2
:102F70000120ADF820004720ADF81C000020ADF87E
:102F80002200ADF81E008DF8240007A9FA4803F0CE
:102F9000AFFB0121F84804F011F919208DF8180051
:102FA00000208DF819008DF81A0001208DF81B0003
:102FB00006A802F03EF90121880302F01EFB002062
:102FC000ADF804004FF48270ADF806000020ADF8B3
:102FD00008000220ADF80A000120ADF80C00400204
:102FE000ADF80E000020ADF81000ADF8120007207B
:102FF000ADF8140001A9E14803F0B8F90222E04954
:1030000001F11800FFF747FADE4908600222DE49A5
:1030100001F11800FFF73FFADC4908600222DC49A1
:1030200001F11800FFF737FADA4908600222DA499D
:1030300001F11800FFF72FFAD84908600222D84999
:1030400001F11800FFF727FAD64908600222D44997
:1030500001F11800FFF71FFAD34908600AB010BD4C
:1030600010B500244FF48050D04908600860086013
:103070000860086008600860086008600860086010
:103080000860086008600860086008600860086000
:1030900008600860086008600860086008600860F0
:1030A00008600860086008600860086008600860E0
:1030B00008600860086008600860086008600860D0
:1030C00008600860086008600860086008600860C0
:1030D000086008600860086008600860FF21A74871
:1030E00003F01AFA00BFA5480830008800F002007B
:1030F0000028F8D0FF21A14803F00EFA00BF9F4836
:103100000830008800F001000028F8D09B4803F048
:1031100005FA044600BF99480830008800F0020014
:103120000028F8D0FF21954803F0F6F900BF934836
:103130000830008800F001000028F8D08F4803F024
:10314000EDF940EA042400BF8C480830008800F004
:1031500001000028F8D0894803F0E0F940EA04248F
:103160004FF480509149091F0860A408A0B210BD17
:103170002DE9F041192001F021F900B28C490880B5
:103180004FF400618B4802F06EFD01217A4804F093
:1031900015F8FFF765FFA0F50040C117864A03C286
:1031A0008548006885490978854A12781140854A22
:1031B00042F8210081480078401C80490870084688
:1031C00000787F490978084000287CD17C48007845
:1031D000012809D11046006811464968084440108A
:1031E000C117754A03C20EE0764800687549496800
:1031F00008447449896808447249C96808448010C1
:10320000C1176D4A03C26C4847F6F46306C8002034
:10321000591A904107DB6848D0E900205B42D21A76
:1032200070F1FF3005DA6848006810B9012067497D
:1032300008706148D0E90010C00340EA5140C9035A
:103240005D4AC2E900106248008840F20122811AFA
:1032500090427DD010DCB0F5827F4CD005DCA0F22E
:103260000110C8B1012874D12EE0B0F5847F59D087
:10327000B0F5887FF7D171E007296BD004DC012914
:1032800069D00329EFD1E3E0B1F5007F72D0A1F25C
:10329000FF510029E7D139E1474802683B480168FE
:1032A00038480068FFF7A2FAC117434A03C24248F0
:1032B00002683A48016837480068FFF797FAC11773
:1032C0003D4A03C22FE16FE13B4802682F48016885
:1032D0002C480068FFF78AFAC117374A03C23648FC
:1032E00002682E4801682B480068FFF77FFAC11773
:1032F000314A03C217E13048026824480168214876
:103300000068FFF773FAC1172B4A03C22A48026804
:10331000224801681F480068FFF768FAC117264A6B
:1033200003C200E124480268184801681548006893
:10333000FFF75CFAC117204A03C21F48026817480A
:10334000016814480068FFF751FAC1171A4A03E0F0
:1033500040E0E7E09AE05DE003C2E4E0164802687E
:103360000E4801680B480068FFF740FAC117124A7F
:1033700003C2D8E0A8E00000002C01400038004063
:1033800050010020000600208001002004060020DB
:10339000D002002008060020000300200C060020B8
:1033A000B00400201006002014060020140C014078
:1033B000EC00002000080140D0000020EE000020BA
:1033C000EF00002060D10020DC000020E40000209D
:1033D000D8000020FD480268FD480168FD480068EB
:1033E000FFF704FAC117F94A03C2F8480168FA481E
:1033F0000068FFF7B4F9C117F44A03C2F348026842
:10340000F6480168F6480068FFF7F0F9C117EF4A7F
:1034100003C288E0ED480268ED480168ED480068A5
:10342000FFF7E4F9C117E94A03C2E8480168EA482E
:103430000068FFF794F9C117E44A03C2E348016842
:10344000E7480068FFF74BF9C117E04A03C26AE09A
:10345000DE480268DE480168DE480068FFF7C6F90A
:10346000C117DA4A03C2D9480168DB480068FFF790
:1034700076F9C117D54A03C2D4480168D848006814
:10348000FFF72DF9C117D14A03C24CE0CF480268BB
:10349000CF480168CF480068FFF7A8F9C117CB4AA9
:1034A00003C2CA480168CC480068FFF758F9C11741
:1034B000C64A03C2C5480168C9480068FFF70FF94A
:1034C000C117C24A03C22EE0C0480268C048016862
:1034D000C0480068FFF78AF9C117BC4A03C2BB485D
:1034E0000268BE480168BE480068FFF77FF9C1174F
:1034F000B64A03C2B5480268BA480168B6480068CF
:10350000FFF774F9C117B14A03C20CE0AF48026873
:10351000B2480168B2480068FFF768F9C117AB4AC2
:1035200003C200E000BF00BFAF48006830B1AE4842
:103530000068401EAC490860BDE8F081A3480168FE
:10354000AA48FFF7F0F9AA48008800282CDDA8480F
:103550000088401EA64908809C480CC8A548B0F9C0
:103560000000C617A2FB004703FB007002FB060128
:103570004FF47A720023204612F0C6F9934A03C230
:103580009248D0E900104FF48042891840F10000C1
:10359000420442EAD13000B297490968088096484F
:1035A0000068801C944908604FF40061934802F061
:1035B0005CFB00BFC0E700228D4B1A808E4A106072
:1035C0008F4A118002E0002220F811200A00A1F1A8
:1035D000010399B2F7D18A4A1288854B1A80704745
:1035E00010B500208249088001221103854802F0AD
:1035F0003EFB00208449086048608860C8608349B9
:10360000087046F2A810784908600A2000F0D6FE3B
:103610007F4908806F480068FEF7D4FF6C48006857
:10362000FEF7D0FF6E480068FEF7CCFF6B480068DD
:10363000FEF7C8FF68480068FEF7C4FF69480068E5
:10364000FEF7C0FF7248008840F20122811A9042C2
:103650007DD010DCB0F5827F67D005DCA0F20110D0
:10366000C8B1012874D13BE0B0F5847F71D0B0F5CA
:10367000887FF7D1E8E007296CD004DC01296AD003
:103680000329EFD156E1B1F5007F65D0A1F2FF51DA
:103690000029E7D1CBE14F485E49026801F11800EB
:1036A000FEF7A0FF4A485C49026801F11800FEF7E6
:1036B00099FF4B485949026801F11800FEF792FF43
:1036C00046485749026801F11800FEF78BFF0320B6
:1036D0005449087046F2A8114448FFF715F9C2E1B1
:1036E0003C485149026801F11800FEF77BFF384859
:1036F0004E49026801F11800FEF774FF38484C4942
:10370000026801F11800FEF76DFF3448494902686C
:1037100001F11800FEF766FF01204249087046F2E9
:10372000A8113248FFF7F0F89DE12A4842490268A3
:1037300001F11800FEF756FF25484049026801F1E3
:103740001800FEF74FFF26483949026805E0A0E05F
:1037500088E116E013E1C8E036E101F11800FEF758
:1037600041FF1E483349026801F11800FEF73AFF95
:1037700001202C49087046F2A8111C48FFF7C4F834
:1037800071E114482E49026801F11800FEF72AFF82
:103790000F482C49026801F11800FEF723FF10487A
:1037A0002349026801F11800FEF71CFF0B4821496C
:1037B000026801F11800FEF715FF01201949087091
:1037C00046F2A8110948FFF79FF84CE1D00000200D
:1037D0000406002000060020100600200C06002031
:1037E0000806002014060020DC00002070D1002014
:1037F000C8000020EC000020C400002000080140A8
:10380000CA000020000C014060D10020EE00002022
:10381000D8000020C0030020F0030020D0020020C8
:1038200000030020EF000020500100208001002054
:103830003003002060030020B0010020E0010020E0
:103840001002002040020020FD48FE49026801F1FC
:103850001800FEF7C7FEFC48FC49026801F1180099
:10386000FEF7C0FEFA48FB49026801F11800FEF7B6
:10387000B9FEF948F949026801F11800FEF7B2FEF5
:103880000120F749087046F2A811F648FFF73CF806
:10389000E9E0EB48F449026801F11800FEF7A2FEE6
:1038A000E948F249026801F11800FEF79BFEE8487A
:1038B000EF49026801F11800FEF794FEE648ED4971
:1038C000026801F11800FEF78DFEEB48EB49026833
:1038D00001F11800FEF786FE0320E149087046F268
:1038E000A811E048FFF710F8BDE0D548E4490268A8
:1038F00001F11800FEF776FED348E249026801F1B3
:103900001800FEF76FFED248DF49026801F1180087
:10391000FEF768FED848DD49026801F11800FEF79D
:1039200061FE0120CE49087046F2A811CD48FEF78D
:10393000EBFF98E0C248D649026801F11800FEF793
:1039400051FEC148D349026801F11800FEF74AFE52
:10395000BF48CD49026801F11800FEF743FEC64892
:10396000CA49026801F11800FEF73CFE0120BC497B
:10397000087046F2A811BB48FEF7C6FF73E0B048D6
:10398000C549026801F11800FEF72CFEAE48C34994
:10399000026801F11800FEF725FEAD48BA49026839
:1039A00001F11800FEF71EFEB348B849026801F1A4
:1039B0001800FEF717FE0120A949087046F2A81169
:1039C000A848FEF7A1FF4EE09D48B549026801F105
:1039D0001800FEF707FE9C48B249026801F1180082
:1039E000FEF700FE9A48B049026801F11800FEF7A0
:1039F000F9FD9948AD49026801F11800FEF7F2FDA2
:103A00009D48AB49026801F11800FEF7EBFDA9489B
:103A1000A949026801F11800FEF7E4FD032090496E
:103A2000087046F2A8118F48FEF76EFF1BE0884829
:103A30008F49026801F11800FEF7D4FD86488D49D0
:103A4000026801F11800FEF7CDFD012084490870DD
:103A50004FF224409949086046F2A8118148FEF7C8
:103A600053FF00BF00BF00BF0121954802F023FDB6
:103A70000121944803F0C8F801221146914803F04F
:103A8000DEF810BD10B500208F490870002201211A
:103A90008C4803F0D4F800218A4803F0B5F80121DE
:103AA000884803F08BFB0021854802F004FD0022CA
:103AB0004FF48051854802F0DAF810BD8448008840
:103AC000002801DD012070470020FCE781480088C4
:103AD00000280CDD7F4800887D490988401A642150
:103AE00048437C490988B0FBF1F0C0B27047002020
:103AF000FCE700B500BFFFF7E1FF0128FBD000BDE8
:103B00002DE9F74F86B0894692460120FCF73FFC2D
:103B100045F6C0515348FEF7F7FE6FA1069812F024
:103B2000A8F98346BBF1000F7DD00022042158463E
:103B300012F0D4F80DE0BDF910004FF48041C1EB54
:103B4000C0344FF4967094FBF0F529464548FEF7D3
:103B5000EAFE5B460122022104A813F07FFF012840
:103B6000E9D04048FEF727FF5C49086008685C49D7
:103B700016F0C8F8054616F045F8A9F800005749B0
:103B80000868574916F0BEF8054616F03BF880B2B3
:103B9000ADF80C0000220421584612F09FF845F6BB
:103BA000C0513048FEF7B0FE25483B49026801F19C
:103BB0001800FEF717FD24483849026801F1180083
:103BC000FEF710FD22483049026801F11800FEF7A7
:103BD00009FD29482D49026801F11800FEF702FD90
:103BE0008AE0BDF910004FF48041C1EBC034224699
:103BF0001548016812480068FEF7F8FD04462146A2
:103C00001D480068FEF7ABFD0446214610480068D9
:103C1000FEF765FD0446204615F065FA314A324B41
:103C2000CDE9000100E08DE015F00AFB0746002217
:103C30002E4B15F051F8054615F0E2F9014657E014
:103C4000000600207002002004060020A0020020D0
:103C500008060020300300200C060020600300202E
:103C6000EF00002070D10020C0030020F0030020EE
:103C7000D00200200003002010060020B004002025
:103C8000500100208001002090030020100500203A
:103C9000B0010020E00100201002002040020020BE
:103CA000F000002020010020A0050020D005002009
:103CB000400500201406002070050020DC000020D4
:103CC00000380040002C0140E4000020000C0140BE
:103CD000C8000020CA00002072000000A0D100200F
:103CE0000000C842D122DBF97EEA344000C07240B5
:103CF0000290EA48FEF717FE5B460122022104A863
:103D000013F0ACFE01283FF46CAFE448FEF737FE39
:103D1000E34948604868E34915F0F4FF054615F0AB
:103D200071FFAAF80000DE494868DE4915F0EAFF95
:103D3000054615F067FF80B2ADF80E00584612F048
:103D4000BFF804E00020A9F80000AAF800004FF432
:103D5000FA70A9F8000041F2F450AAF8000003A894
:103D600009B0BDE8F08FF8B506460120FCF70FFB5F
:103D700046F2A811C948FEF7C7FDAFF2A4013046CC
:103D800012F077F80446002C59D000220421204676
:103D900011F0A4FFC448C549026801F11800FEF7FC
:103DA00021FCC348C349026801F11800FEF71AFC60
:103DB000C148C249026801F11800FEF713FCC0486F
:103DC000C049026801F11800FEF70CFC1DE0BDF9C6
:103DD00000004FF48041C1EBC0352A46B448016869
:103DE000B1480068FEF702FD05462A46B44801685E
:103DF000B1480068FEF7FAFC05464FF4967095FB53
:103E0000F0F73946A548FEF78EFD23460122022130
:103E1000684613F023FE0128D9D0A048FEF7AFFD75
:103E2000A9490860204612F04BF8A74908689D4947
:103E300015F068FF074615F0E5FE80B2F8BD0020DA
:103E4000FCE72DE9F14F82B00120FCF7A0FA45F61E
:103E5000C0519248FEF758FDAFF28411029812F05B
:103E600008F88346BBF1000F71D0002204215846A8
:103E700011F034FF46F2A8118848FEF745FD8A4844
:103E80008A49026801F11800FEF7ACFB88488949AD
:103E9000026801F11800FEF7A5FB87488B4902680C
:103EA00001F11800FEF79EFB89488A49026801F17A
:103EB0001800FEF797FB2EE0BDF904004FF4804197
:103EC000C1EBC03A52467A48016877480068FEF76D
:103ED0008DFC824651467E480068FEF740FC8246D3
:103EE000514675480068FEF7FAFB8246504615F0C9
:103EF000FAF80646784A794B15F0A2F904460022F2
:103F0000774B14F0E9FE804615F07AF801460090F0
:103F10006248FEF708FD5B460122022101A813F06A
:103F20009DFD0128C8D05D48FEF729FD6D49486018
:103F3000584611F0C5FF6B4948685A4915F0E2FE32
:103F4000044615F05FFE80B2BDE8FE8FFFE700205B
:103F5000FAE72DE9F14F84B00120FCF718FA41F29D
:103F600088314E48FEF7D0FCAFF29421049811F04E
:103F700080FF8246BAF1000F7ED000220421504615
:103F800011F0ACFE48485849026801F11800FEF7EC
:103F900029FB47485549026801F11800FEF722FB4A
:103FA00045485349026801F11800FEF71BFB4448DD
:103FB0005049026801F11800FEF714FB44484E49CD
:103FC000026801F11800FEF70DFB4C484C490268ED
:103FD00001F11800FEF706FB40E0BDF90810BDF93D
:103FE0000A20881800EBD071491009B2ADF808100A
:103FF000BDF908004FF48041C1EBC03B5A462C4844
:10400000016829480068FEF7F1FB83465A462C48B0
:10401000016829480068FEF7E9FB83465A4637489D
:1040200001682B480068FEF7E1FB8346584615F00F
:1040300009FE009015F06EFC0646324A324B15F030
:10404000FFF804460022264B14F046FE804614F08A
:10405000D7FF014601901148FEF765FC5346022246
:10406000114602A813F0FAFC0228B6D00B48FEF75E
:1040700086FC2649486000E00EE0504611F020FF23
:1040800022494868074915F03DFE044615F0BAFD7F
:1040900080B205B0BDE8F08F0020FAE770D10020B3
:1040A000A0D100200000C84200060020100200201D
:1040B00004060020400200200806002030030020F3
:1040C0000C06002060030020ACD1002090030020EB
:1040D0001006002010050020D122DBF97EEA3440D2
:1040E00000C07240B8D10020F00000202001002064
:1040F000A0050020D0050020400500201406002067
:104100007005002085EB51B81EB97840C4D100205D
:1041100010B54FF40061A34801F08BFD30B9A248FF
:10412000007840F00100A049087005E09E48007842
:1041300020F001009C4908704FF480719B4801F009
:1041400078FD30B99848007840F002009649087030
:1041500005E09548007820F002009349087001219D
:10416000904801F066FD30B98F48007840F00400B7
:104170008D49087005E08C48007820F004008A49D9
:1041800008704FF48061874801F053FD30B98648CC
:10419000007840F008008449087005E08248007803
:1041A00020F008008049087002217E4801F041FD9E
:1041B00030B97D48007840F010007B49087005E078
:1041C0007948007820F01000774908707648007828
:1041D0007749097888427DD076480078002879D1DF
:1041E0007348007800F0010050B96F48007800F083
:1041F000010028B17048006840F001006E49086075
:104200006B48007800F0020002280BD06648007866
:1042100000F00200022805D16748006840F0020063
:10422000654908606248007800F0040004280BD05B
:104230005D48007800F00400042805D15E4800685D
:1042400040F004005C4908605948007800F008001C
:1042500008280BD05448007800F00800082805D141
:104260005548006840F008005349086050480078FD
:1042700000F0100010280BD04B48007800F0100020
:10428000102805D14C48006840F010004A490860E9
:104290004748007800F0010050B14348007800F032
:1042A000010028B94448006840F0200042490860F5
:1042B0003F48007800F0020002280DD13A4800780B
:1042C00000F00200022807D03B48006840F04000A0
:1042D000394900E03DE008603548007800F004000E
:1042E00004280BD13048007800F00400042805D0E1
:1042F0003148006840F080002F4908602C48007861
:1043000000F0080008280BD12748007800F00800CA
:10431000082805D02848006840F4807026490860C5
:104320002348007800F0100010280BD11E480078B8
:1043300000F01000102805D01F48006840F40070FD
:104340001D49086018480078194908701E2019494D
:10435000087018480078002804DD16480078401ED0
:104360001449087010BD014613480068084030B178
:10437000114800688843104A1060002070470120EF
:10438000FCE70D49096881430B4A116070470146FB
:10439000054800780840002801DD00207047012012
:1043A000FCE70000000C014018060020001001404E
:1043B00019060020200600201C06002070B50446C7
:1043C000212C01D3002070BDEF4800EBC4008079A0
:1043D00002282ED100F038FA1CB9012000F0E2FAD0
:1043E000F1E7012C0ED1032000F0DCFA0546022093
:1043F00000F0D8FA00EBC00101EB001005EB8000E3
:1044000080B2E0E7022C0ED1052000F0CBFA054681
:10441000042000F0C7FA00EBC00101EB001005EB2F
:10442000800080B2CFE7032C03D1062000F0BAFA57
:10443000C9E70D2C02D140F27310C4E7172C10D13C
:10444000D248FEF75CFD80B24FF6FF71884203D17F
:10445000CF4830F81400B6E7CC48FEF750FD80B2E4
:10446000B1E7192C12D1C9482030FEF748FD80B2BF
:104470004FF6FF71884203D1C54830F81400A2E717
:10448000C2482030FEF73BFD80B29CE7C04830F8C0
:10449000140098E773B50446212C01D300207CBD9D
:1044A000B94800EBC4004088BDF80410884204DA23
:1044B000B54800EBC40040880190B34830F83400A0
:1044C000BDF80410884203DDAF4830F83400019095
:1044D000AD4800EBC4008079012812D1022000EB26
:1044E0004401034601AA012011F0D0F9A84800EBCD
:1044F0004402022000EB44010346012011F09AF926
:1045000050E0A14800EBC4008079022845D100F0BA
:104510009BF924B9BDF80410012000F0F5F9012C35
:1045200015D1BDF80400642190FBF1F085B2294655
:10453000022000F0E9F9BDF80400642190FBF1F2DB
:1045400001FB120085B22946032000F0DDF9022CA0
:1045500019D1BDF80400642190FBF1F085B2294621
:10456000042000F0D1F9BDF80400642190FBF1F2C1
:1045700001FB120085B22946052000F0C5F9002193
:10458000062000F0C1F9032C04D1BDF80410062068
:1045900000F0BAF900F066F904E0BDF804107C48B8
:1045A00020F814107A4830F81400BDF8041088423E
:1045B00001D0002073E7012071E7002007E0724975
:1045C00001EBC0018A88724921F81020401C212883
:1045D000F5D37047F8B501270024A2E06A4800EB44
:1045E000C400807901287CD1022000EB4405684892
:1045F00000EB440202232946012011F01BF9172C7D
:104600002FD16248FEF77BFC81B2614820F814107C
:1046100030F814004FF6FF71884222D15C4800EB5D
:10462000440202232946012011F004F9FEF739FC67
:1046300056482030FEF763FC86B25448FEF745FC2E
:1046400052482030FEF741FC514830F814104F48D2
:10465000FEF758FC31464D482030FEF753FCFEF77C
:1046600026FC192C2FD149482030FEF748FC81B296
:10467000474820F8141030F814004FF6FF718842B4
:1046800021D1434800EB440202232946012011F0C6
:10469000D1F8FEF706FC3D48FEF731FC86B23B48F8
:1046A000FEF713FC39482030FEF70FFC384830F88D
:1046B000141036482030FEF725FC31463348FEF70B
:1046C00021FCFEF7F4FB324830F814002E4901EBD0
:1046D000C4014988884209DC2D4830F814002A4971
:1046E00000E01BE031F83410884219DA264800EB6C
:1046F000C400021D02232946012011F0C7F802233D
:104700006A462946012011F095F81F4800EBC400C5
:104710008088BDF80010884201D0002700E0012702
:10472000641C212CFFF45AAF3846F8BD10B5FFF7D2
:1047300044FF0223164A921E0021012011F07AF84C
:104740001348801E0088B0F5D35F19D04FF4D350C2
:104750000F49891E088044230A460021012011F0D8
:1047600095F802230A4A921E0021012011F062F8F6
:104770000748801E0088B0F5D35F01D0002010BD2F
:10478000FFF728FFFBE70000EE9F0208C0FF0708C5
:10479000D2D1002010B500209B4908604860886095
:1047A0000120C8600020086146204861084611F0D9
:1047B000CCFD044601F06CFD204601F036FD01F011
:1047C00067FD10BD10B501214FF0C05000F015FF7E
:1047D0008E48FBF7D7FD012002F061FD042002F0B6
:1047E00026FD4AF6AA21884228D002F0EBFC0120DF
:1047F00000F063FE00BF412000F0C7FD0028FAD0A2
:104800004FF4807000F075FE012000F078FE01F09A
:1048100048FD01F03DFD0121084601F0DDFC47F6B1
:10482000FF7001F00FFD01F033FDFFF7B3FF4AF613
:10483000AA21042002F0EFFC002010BD01F031FDA0
:1048400001F026FD0120F8E738B501F0E5FC009005
:10485000684611F055FD04462C2221466A4811F0A5
:1048600061FC38BD10B5684811F06FFD044601F0D9
:104870000FFD204601F0D9FC01F00AFDFFF7E4FF2F
:1048800010BD40F26C71884204DBA0F26C715E4A8C
:10489000516103E040F26C715B4A516170470C2832
:1048A00001DD0C2002E0012800DA0120411E564AF9
:1048B000116170471F2803DD1F21534AD16007E0B3
:1048C000012803DA0121504AD16001E04E49C86055
:1048D0007047172803DD17214B4A916001E04A49D0
:1048E000886070473B2803DD3B21474A516001E067
:1048F0004549486070473B2803DD3B21424A11602F
:1049000001E0414908607047072848D2DFE800F01D
:104910004704121D2C353E0040F26C72914204DBBC
:10492000A1F26C72384B5A6103E040F26C72364B64
:104930005A6135E00C2901DD0C2102E0012900DA81
:1049400001214A1E304B1A612AE01F2903DD1F2274
:104950002D4BDA6007E0012903DA01222A4BDA60E5
:1049600001E0294AD1601BE0172903DD1722264BFD
:104970009A6001E0244A916012E03B2903DD3B226A
:10498000214B5A6001E0204A516009E03B2903DDD8
:104990003B221D4B1A6001E01B4A116000E000BF82
:1049A00000BF70470146072920D2DFE801F01F044D
:1049B0000A0F13171B001448808A00F26C7080B233
:1049C00070471148008A401C80B2F9E70E48808980
:1049D00080B2F5E70C48008980B2F1E70A48808888
:1049E00080B2EDE70848008880B2E9E70020E7E7F9
:1049F00010B5012001F067FC012803D101F06EFC25
:104A0000012010BD0020FCE714D20020400D03005F
:104A1000FD48806940F00100FB49886108468069D3
:104A200040F004008861F948006840F44030F749DC
:104A300008600846006820F4402008601020F34910
:104A400010310860F148006840F44010EF490860F8
:104A50000846006820F4400008600846006840F4FA
:104A6000000008600846006820F0407008600846B2
:104A7000006820F0406008600846006840F0006070
:104A800008604020E14910310860E048006840F0CB
:104A90004050DE4908600846006820F04040086049
:104AA0000846006840F000400860D748806940F43C
:104AB0008050D54988610020D5498880042008802D
:104AC0000846008840F0100008800846008840F43E
:104AD000807008800846008840F40070088008460E
:104AE000008840F0400008807047014600BFC84879
:104AF000008900F002000028F9D0C548818100BF7C
:104B0000C348008900F001000028F9D0C04880891E
:104B1000C0B2704770B502460B460026BD4800780B
:104B200020B9112A01D0182A00D15B024FF480105D
:104B3000B6491031086042F04000FFF7D6FF180E6A
:104B4000FFF7D3FFC3F30740FFF7CFFFC3F30720FF
:104B5000FFF7CBFFD8B2FFF7C8FF082A03D18720A1
:104B6000FFF7C3FF02E09520FFF7BFFF05E03046E7
:104B7000711CCEB2FE2800DD05E0FF20FFF7B5FF77
:104B80000446FF28F3D000BFC4B93A2A16D1FF204B
:104B9000FFF7ABFF054605F0400018B101209D4925
:104BA000087002E000209B490870FF20FFF79DFF7E
:104BB000FF20FFF79AFFFF20FFF797FFFF20FFF787
:104BC00094FF1020914910310860204670BDF0B567
:104BD00002270024FFF71CFF10208C4910310860C9
:104BE000002504E0FF20FFF780FF681CC5B20A2DF6
:104BF000F8DB4FF4801085491031086006E020464C
:104C0000611C8CB2202801DD0220F0BD0021084685
:104C1000FFF780FF0128F2D110207C491031086095
:104C2000FF20FFF762FFFF20FFF75FFF002406E091
:104C30002046611C8CB2FE2801DD012706E04FF4FE
:104C4000D5710820FFF766FF0128F1D100BF0024CD
:104C500000BF00213720FFF75DFF06464FF080417F
:104C60002920FFF757FF0646601C84B240F6FE700D
:104C7000844201DD0120C8E7002EEAD10024002093
:104C800064490870022F0DD105E02046611C8CB2EA
:104C9000FE2800DD05E000213A20FFF73BFF002859
:104CA000F3D100BF0020B0E701F0800070477047EB
:104CB00070477047704770472DE9F04107460C4632
:104CC0004FF0000839461820FFF724FF08B1BDE86F
:104CD000F0814FF480104D4910310860FE20FFF73D
:104CE00004FF002605E014F8010BFFF7FEFE701C20
:104CF00086B2B6F5007FF6DBFF20FFF7F6FEFF2059
:104D0000FFF7F3FEFF20FFF7F0FE054605F01F005A
:104D1000052804D010203D4910310860D7E70CE089
:104D20004046411C1FFA81F84FF6FE71884204DDAF
:104D30001020364910310860C9E7FF20FFF7D5FE83
:104D40000028EDD01020314910310860FF20FFF716
:104D5000CCFE4FF480102D49103108600CE0404625
:104D6000411C1FFA81F84FF6FE71884204DD1020C5
:104D7000264910310860AAE7FF20FFF7B6FE002899
:104D8000EDD0102021491031086000BF9FE770B5B9
:104D900006460C46002531461120FFF7BBFE00B148
:104DA00070BD4FF480101949103108600BE028469F
:104DB000691C8DB24FF6FE71884204DD1020134944
:104DC00010310860ECE7FF20FFF78FFEFE28EED1E0
:104DD000002506E0FF20FFF788FE04F8010B681CA1
:104DE00085B2B5F5007FF5DBFF20FFF77EFEFF20E3
:104DF000FFF77BFEFF20FFF778FE102003491031FC
:104E0000086000BFCCE7000000100240000801402D
:104E100000300140240600202DE9F04107460C46F1
:104E200016461D4614493846FFF7B1FF6019B0F524
:104E3000007F05DC104801192A46304611F02DF993
:104E4000BDE8F0812DE9F04107460C4616461D46A7
:104E500009493846FFF79BFF6019B0F5007F05DC74
:104E6000054908192A46314611F017F90249384612
:104E7000FFF722FFBDE8F08140D2002000B585B0E9
:104E800000207E4908607EA17EA010F0F2FF7B49E1
:104E9000086008460068E0B16A467DA1774800686E
:104EA00010F092FE7548006811F00AF874A1684687
:104EB00010F0DFFF714908600846006830B108460D
:104EC000006810F0FDFF002005B000BD4FF0FF307E
:104ED000FAE74FF0FF30F7E710B56848006818B1FF
:104EE0006648006810F0ECFF10BD70B586B005464E
:104EF0000C4662480068B0B961A162A010F0B9FF29
:104F00005E49086001AA62A15C48006810F05CFE7E
:104F10005A48006810F0D4FF59A101A810F0A9FF69
:104F20005649086019E05548006810F0C9FF54A1BF
:104F300054A010F09EFF5149086001AA54A14F48A7
:104F4000006810F041FE4D48006810F0B9FF4CA118
:104F500001A810F08EFF494908601CB94FF0FF30DE
:104F600006B070BD601E010100224448006810F0C8
:104F7000B5FE4248102201210368284612F06EFD5A
:104F8000C6B2102E0ED1287830B91021284611F063
:104F900003F94FF0FF30E3E73848006810F090FF66
:104FA0000020DDE74FF0FF30DAE730B5ADF27C6D81
:104FB0000024002572B671B602F0CFF9012235A1A6
:104FC00068460EF077F905460A2233A10DF58B608D
:104FD0000EF09BF9054633A22DA10DF58B600FF065
:104FE00056FE0DF58B6100200FF00CFE01240CE045
:104FF000234630A231A10DF58B600FF048FEE0B2E0
:105000000DF58B610FF0FEFD641CB4F5FA7FEFDB4C
:10501000DDF864540DF58B600EF047FC02F09DF94D
:10502000212201211CA00FF058F80A2227A10DF51A
:105030008B600EF06AF928A215A10DF58B600FF0B8
:1050400026FE0DF58B600EF030FC0A2224A18DA8FF
:105050000EF05BF920A20EA18DA80FF018FE8DA80E
:105060000EF023FC00220BA110460EF023F962B6CD
:1050700061B628460DF27C6D30BD00002806002088
:1050800072000000526F61642E6C6F6700000000B8
:1050900025730000303A0000303A526F61642E30C0
:1050A00000000000E1E5E720ECE0F0F8F0F3F2E0CA
:1050B00020202000F2EEF7EAE00000002573202512
:1050C000303375202020202020000000303A526F1D
:1050D00061642E6C6F670000526F61642E300000B7
:1050E000303A526F6164732E747874000CB50020EE
:1050F000019000904848006840F4803046490860BC
:1051000000BF4548006800F4003000900198401C42
:105110000190009818B90198B0F5A06FF1D13E4800
:10512000006800F4003010B10120009001E0002080
:1051300000900098012844D13848006840F01000E1
:10514000364908600846006820F0030008600846F9
:10515000006840F0020008602F4840682E4948600F
:105160000846406848600846406840F480604860EF
:105170000846406820F47C1048600846406840F4C7
:10518000E81048600846006840F08070086000BF82
:105190002148006800F000700028F9D01E484068DF
:1051A00020F003001C4948600846406840F00200B7
:1051B000486000BF1848406800F00C000828F9D18A
:1051C00001E000BFFEE70CBD10B5FFF78FFF10BD7B
:1051D00010B51148006840F001000F49086008460A
:1051E00040680F4908400C494860084600680D496E
:1051F0000840094908600846006820F480200860DB
:105200000846406820F4FE0048604FF41F008860A4
:10521000FFF7DAFF10BD000000100240002002403E
:105220000000FFF8FFFFF6FE31490143314A1160EB
:10523000704770B5002100230F22C47804B32D4CB1
:10524000246804F4E064C4F5E064210AC1F10403B5
:10525000CA40447804FA03F18478144021430901D8
:10526000254C0678A155047804F01F050124AC40B4
:1052700005786D11AD0005F1E025C5F8004109E0A4
:10528000047804F01F050124AC401C4D067876110B
:1052900045F8264070BD1A4A0A400243154B1B1FB1
:1052A0001A60704739B1134A121D12680243114B3C
:1052B0001B1D1A6006E00F4A121D126882430D4B37
:1052C0001B1D1A607047042808D14FF0E0210969BE
:1052D00041F004014FF0E022116107E04FF0E021BE
:1052E000096921F004014FF0E022116170470000CC
:1052F0000000FA050CED00E000E400E080E100E0D1
:1053000080FFFF1FDF48006840F00100DD490860B2
:1053100008464068DC490840DA49486008460068A9
:10532000DA490840D74908600846006820F4802020
:1053300008600846406820F4FE0048604FF41F00F3
:1053400088607047CF49096821F48031CD4A1160E7
:105350001146096821F480211160B0F5803F03D027
:10536000B0F5802F0ED106E0C649096841F48031BE
:10537000C44A116007E0C349096841F4A021C14A49
:10538000116000E000BF00BF704710B50146002269
:10539000002300204A11012A02D1BA4C236806E0FA
:1053A000022A02D1B74C236A01E0B64C636A01F0CD
:1053B0001F02012494401C400CB1012000E0002099
:1053C00010BD38B5002000900024002500BF31201A
:1053D000FFF7DBFF05460098401C00900098B0F5F1
:1053E000A06F01D0002DF2D03120FFF7CEFF08B121
:1053F000012400E00024204638BD01460020A14AD7
:10540000106820F0F80040EAC10010607047A04921
:1054100008607047024600209A4B586820F47C10C0
:1054200042EA01031843974B586070479849086651
:10543000704701460020934A506820F0030008435B
:10544000506070478F48406800F00C00704701467C
:1054500000208C4A506820F0F000084350607047EC
:1054600001460020874A506820F4E06008435060FD
:10547000704701460020834A506820F4605040EA9B
:10548000C1005060704729B17E4A527A02437D4B79
:105490005A7204E07B4A527A82437A4B5A727047BE
:1054A0007B49D8310860704701460020754A506832
:1054B00020F440400843506070470021714A203278
:1054C0001170704A82F82010012802D004280AD1F5
:1054D00004E001216B4A2032117005E00521694A80
:1054E0002032117000E000BF00BF704769490860BA
:1054F00070476449096A0143624A1162704765490D
:1055000044390860704730B5002100220024002390
:105510005C4D6D6805F00C0121B1042905D0082906
:1055200023D105E05C4D056022E05B4D05601FE086
:10553000544D6D6805F47012524D6D6805F4803459
:10554000022505EB92421CB9544D554305600BE012
:105550004C4D6D6805F400351DB1504D5543056047
:1055600002E04D4D5543056002E04B4D056000BF24
:1055700000BF444D6D6805F0F0010909484D6B5CB2
:105580000568DD4045603F4D6D6805F4E061090A3E
:10559000434D6B5C4568DD4085603A4D6D6805F4B0
:1055A0006051C90A3E4D6B5C4568DD40C560354DB4
:1055B0006D6805F44041890B3A4D6B5CC568B5FBDD
:1055C000F3F5056130BD29B12E4A526902432D4BD6
:1055D0005A6104E02B4A526982432A4B5A61704750
:1055E00029B1284A92690243264B9A6104E0254A70
:1055F00092698243234B9A61704729B1214AD2694B
:105600000243204BDA6104E01E4AD26982431D4BFB
:10561000DA61704729B11B4AD2680243194BDA603C
:1056200004E0184AD2688243164BDA60704729B109
:10563000144A12690243134B1A6104E0114A1269B9
:105640008243104B1A617047124940390860704715
:105650000F49C86470470B49C87170470948406AD0
:1056600040F0807007494862704701460020054AB3
:1056700092680A400AB1012000E000207047014909
:1056800088727047001002400000FFF8FFFFF6FE2E
:10569000000042428004424200127A0000093D00AC
:1056A0002C0600203C06002010B50446E248844247
:1056B00009D101218803FFF7ADFF00214FF480409D
:1056C000FFF7A8FF32E0DD48844209D101214804F8
:1056D000FFF7ADFF00214FF40030FFF7A8FF25E0F2
:1056E000D748844209D101218804FFF7A0FF002197
:1056F0004FF48020FFF79BFF18E0D248844209D185
:105700000121C804FFF793FF00214FF40020FFF7A9
:105710008EFF0BE0CC48844208D101210805FFF739
:1057200086FF00214FF48010FFF781FF10BD2DE9A7
:10573000F04786B005460E460024A24600BF00BFD3
:105740000027B08900B100BF2F462C8A4CF6FF70AD
:105750000440F08804432C82AC894EF6F3100440D8
:10576000B08831890843718908430443AC81AC8A0D
:105770004FF6FF400440B0890443AC8201A8FFF714
:10578000C2FEAD48874202D1DDF810A001E0DDF88D
:105790000CA00AEBCA0000EB0A1031688900B0FBCC
:1057A000F1F86420B8FBF0F004012009642101FB4A
:1057B0001089322000EB0910B0FBF1F000F00F006F
:1057C00004432C8106B0BDE8F0874FF41651016008
:1057D00000218180C18001810C21418100218181D2
:1057E000704710B502460020108A4FF2FF031840A0
:1057F0000B884C8823438C882343CC88234318434D
:10580000108210BD0021018041808180C1807047DD
:1058100021B1828942F40052828104E082894DF6EE
:10582000FF731A4082817047F0B5034600240026BA
:105830000025002040F66A17B94200D100BF184683
:10584000C1F3421401F01F06012707FA06F5012CE7
:1058500001D10C3004E0022C01D1103000E01430F2
:105860001AB107682F43076002E00768AF4307607B
:10587000F0BD1AB1838A0B43838202E0838A8B4393
:1058800083827047028A4FF6F0731A400282028ABE
:105890000A430282704782894FF2FF731A40828165
:1058A00082890A438281704721B1828942F00202D3
:1058B000828104E082894FF6FD731A40828170472D
:1058C000028A4FF6DF731A400282028A0A4302827A
:1058D000704721B1028A42F48042028204E0028AC7
:1058E0004BF6FF731A4002827047C1F308028280B0
:1058F000704701468888C0F308007047818941F0ED
:10590000010181817047028BD2B20283028B42EA8D
:10591000012202837047028B02F47F420283028BD2
:105920000A430283704721B1828A42F020028282B8
:1059300004E0828A4FF6DF731A408282704721B1F9
:10594000828A42F01002828204E0828A4FF6EF736C
:105950001A408282704721B1828A42F00802828214
:1059600004E0828A4FF6F7731A4082827047828A77
:105970004FF6FB731A408282828A0A438282704702
:1059800021B1828A42F00202828204E0828A4FF6CA
:10599000FD731A408282704702460020B1F5007FF5
:1059A00000D100BF13880B400BB1012000E00020A4
:1059B000704701F40072B2F5007F00D100BFCA4306
:1059C0000280704770B502460024002300250020A5
:1059D00040F66A16B14200D100BFC1F3421501F092
:1059E0001F03012606FA03F3012D02D196893340E5
:1059F00006E0022D02D1168A334001E0968A334038
:105A00000C12012606FA04F41688344013B10CB1C6
:105A1000012000E0002070BD10B50022002340F6F8
:105A20006A14A14200D100BF0A1201249440A3B21B
:105A3000DC43048010BD00000038014000440040F9
:105A400000480040004C00400050004010B50446A3
:105A5000C448844208D101210420FFF7DBFD002166
:105A60000420FFF7D7FD46E0BF48844208D101215A
:105A70000820FFF7CFFD00210820FFF7CBFD3AE01B
:105A8000BA48844208D101211020FFF7C3FD00214C
:105A90001020FFF7BFFD2EE0B548844208D1012158
:105AA0002020FFF7B7FD00212020FFF7B3FD22E003
:105AB000B048844208D101214020FFF7ABFD00210E
:105AC0004020FFF7A7FD16E0AB48844208D1012132
:105AD0008020FFF79FFD00218020FFF79BFD0AE05B
