:020000040801F1
:10000000A8EF00209D6C01086D1E01086F1E0108FD
:10001000731E0108771E01087B1E01080000000006
:100020000000000000000000000000007F1E01082A
:10003000811E010800000000831E0108851E0108C2
:10004000B36C0108B36C0108B36C0108B36C010810
:10005000B36C0108B36C0108B36C0108B36C010800
:10006000B36C0108B36C0108B36C0108B36C0108F0
:10007000B36C0108B36C0108B36C0108B36C0108E0
:10008000B36C0108B36C0108B36C0108B36C0108D0
:10009000397A0108B36C0108B36C0108350801080E
:1000A000B36C0108752C0108B36C0108B36C01082E
:1000B000B36C0108B36C0108B36C0108B36C0108A0
:1000C000B36C0108B36C0108B36C0108B36C010890
:1000D000B36C0108B36C01088D1E0108B36C0108F4
:1000E000B36C0108B36C0108B36C010800F002F8AE
:1000F00000F085F80AA090E8000C82448344AAF13D
:100100000107DA4501D100F07AF8AFF2090EBAE83A
:100110000F0013F0010F18BFFB1A43F0010318473B
:1001200094E50100B4E5010010F8013B0A4413F026
:10013000030408BF10F8014B1D1108BF10F8015B44
:10014000641E05D010F8016B641E01F8016BF9D133
:10015000002D15D010F8014B03F00C030C2BA1EB74
:1001600004040ABF10F8013BA4EB8314A4EB03249E
:1001700005F1010314F8016B5B1E01F8016BF9D561
:10018000914238BF10F8013BD1D3704700230024BF
:1001900000250026103A28BF78C1FBD8520728BF97
:1001A00030C148BF0B607047662918F07E8664290D
:1001B00014F07C83752914F07983632915F0378353
:1001C000732915F03C83002070471FB59DE803009C
:1001D00015F09CFD15F07EFD04000020002117F0B5
:1001E000DFFB401C60600020002117F0C3FBE060D3
:1001F00016F062F81FBD10B516F0C7F810BD16F066
:10020000F7F81146FFF7E1FF01F04EFA16F022FC75
:1002100003B4FFF7F0FF03BC07F040FDEFF30980E4
:10022000704780F309887047EFF30880704780F3C8
:100230000888704740BA7047C0BA704710B50028A8
:1002400007DA0A07140EFE4A00F00F031B1FD454EE
:1002500003E00A07130EFB4A135410BD10B5044601
:10026000B4F1807F01D3012010BD24F07F40401EF7
:100270004FF0E02148610F214FF0FF30FFF7DEFF24
:1002800000204FF0E0218861072008610020EBE7A3
:1002900010B506F0ECFCEC480068401CEA49086028
:1002A0000CF09FFE03F084FCE8480068052802D1AA
:1002B0000020E6490860E6480068401EE4490860FE
:1002C000E448008838B94FF47A70E2490880012088
:1002D000E149087004E0DF480088401EDD490880DD
:1002E000DE480068B0F57A7F0DD10020DB49086058
:1002F000DB480068401CDA490860DA480068401CA6
:10030000D849086004E0D5480068401CD34908601B
:10031000D34800681E2802D10020D1490860D14886
:100320000068D149884202D10020CE490860C74800
:100330000068401CC5490860CC4800680A2805D1FF
:1003400014F0C9F90020C949086004E0C7480068F2
:10035000401CC649086010BDC548806940F01000C7
:10036000C3498861C348406840F48030C14948604F
:10037000704700E0401E0028FCDC704710B50446C2
:10038000C4B1BB48406800F00C00082824D0B8482D
:10039000406820F00300B64948600846406840F0D5
:1003A0000200486000BFB248406800F00C00082816
:1003B000F9D111E0AE48406800F00C0060B1AC48E3
:1003C000406820F00300AA49486000BFA848406880
:1003D00000F00C000028F9D11CB1A748FFF73EFF40
:1003E00003E04FF4FA50FFF739FF10BD08B50121C3
:1003F000052004F07FFD0120ADF8000010208DF8ED
:10040000030003208DF8020069469C4805F008F8B7
:100410000220ADF8000000208DF8030069469748DF
:1004200004F0FEFF0420ADF8000028208DF8030042
:100430006946924804F0F4FF0820ADF8000000205F
:100440008DF8030069468D4804F0EAFF1020ADF8EE
:1004500000008DF8030003208DF80200102187486A
:1004600005F08BF86946854804F0DAFFE020ADF826
:10047000000018208DF8030003208DF802002021D1
:100480007E4805F07AF880217C4805F076F86946C8
:100490007A4804F0C5FF4FF48070ADF800004820A2
:1004A0008DF803006946754804F0BAFF0121092060
:1004B00004F020FD0120ADF8000048208DF8030075
:1004C00069466F4804F0ACFF0220ADF800004820F8
:1004D0008DF8030069466A4804F0A2FF2020ADF8B9
:1004E000000010208DF8030003208DF80200202169
:1004F000634805F042F86946614804F091FF4020E6
:10050000ADF8000010208DF8030003208DF80200E4
:10051000002240215A4805F034F86946584804F052
:100520007FFF8020ADF8000010208DF8030003202D
:100530008DF802008021524805F01FF869465048A6
:1005400004F06EFF4FF48070ADF8000010208DF8BD
:10055000030003208DF802004FF48071484805F035
:100560000CF86946464804F05BFF4FF40070ADF8A4
:10057000000010208DF8030003208DF802004FF4D6
:1005800000713F4804F0F9FF69463D4804F048FF18
:100590004FF48060ADF8000048208DF803006946F4
:1005A000374804F03DFF4FF40060ADF800004820EC
:1005B0008DF803006946324804F032FF4FF4805052
:1005C000ADF8000010208DF8030003208DF8020024
:1005D00000224FF480512A4804F0D3FF694628488E
:1005E00004F01EFF4FF40050ADF8000018208DF805
:1005F000030003208DF8020000224FF40051204830
:1006000004F0BFFF69461E4804F00AFF4FF4804023
:10061000ADF8000018208DF803006946184804F072
:10062000FFFE4FF40040ADF8000048208DF80300B5
:100630006946134804F0F4FE0121112022E0000075
:1006400018ED00E000E400E0040000204400002079
:10065000080000201E00002022000020380000209A
:100660003C00002040000020A0BB0D0048000020FE
:100670000010024000100140401901000008014034
:10068000000C014004F036FCFF20ADF80000102003
:100690008DF8030003208DF80200FF21FD4804F0CF
:1006A0006CFF6946FB4804F0BBFE4FF48070ADF868
:1006B000000048208DF803006946F64804F0B0FEBB
:1006C0004FF48060ADF8000010208DF80300032087
:1006D0008DF8020000224FF48061EE4804F051FFD3
:1006E0006946EC4804F09CFE4FF40060ADF8000051
:1006F00014208DF8030003208DF802004FF40061F0
:10070000E44804F03AFF6946E24804F089FE4FF4F9
:100710004050ADF8000010208DF8030003208DF844
:1007200002004FF48051DB4804F029FF4FF40051E0
:10073000D84804F024FF6946D64804F071FE012130
:10074000212004F0D7FB0420ADF8000010208DF824
:10075000030003208DF8020000220421CE4804F09B
:1007600010FF6946CC4804F05BFE4FF40070ADF812
:10077000000010208DF8030003208DF802004FF4D4
:100780000071C44804F0F9FE6946C24804F048FE0E
:100790004CF25030FFF7EDFD4FF48060ADF80000F3
:1007A00010208DF8030003208DF802004FF48061C3
:1007B000B84804F0E2FE6946B64804F031FE4FF452
:1007C0000070ADF8000004208DF803006946B348BE
:1007D00004F026FEB248806940F00100B04988610B
:1007E000B0488068AF498860084680688860AE4835
:1007F000006840F40070AC490860AB480C380068F1
:1008000040F40070A8490C3908600F211720FFF749
:1008100015FD1720012181404209920002F1E022DA
:10082000C2F8001100BF08BD10B50BF009FB0BF0BA
:10083000EBFA10BD10B50421984804F084FE10B9FD
:100840009A48007840B198480830006840F00200AB
:1008500095490831086020E003F0FAFF0120FFF716
:100860008DFDFFF7E1FF002401E000BF641C90480C
:100870008442FAD30122D102864804F082FE4FF46A
:100880008061844804F07BFE4FF40071814804F0DD
:1008900076FE01E006F0EBF9FCE710BD08B5262076
:1008A0008DF8000000208DF8020001208DF8030073
:1008B000684604F048F908BD02461004B0FBF1F0A8
:1008C0007C4B1B6818447B4B186018460068B0EBE3
:1008D000024F01D30020186076480068000C704772
:1008E0002DE9FC414FF47A7425E00BF0A9FA0121BF
:1008F00008460BF0CEFC704A002170A00BF019FDE9
:10090000142101200BF0C5FCC4F57A7017F04BFBE5
:10091000074600226E4B17F03FF905462A460B4664
:100920006CA1684613F05EFF634A002168460BF035
:1009300000FD0BF069FA2000A4F10104D5D1BDE857
:10094000FC8130B5ADF5037D002400250BF078FA6D
:10095000002262A159A00CF080FB00200BF06DFA80
:10096000002021237D221E21009001200BF0C7FBD7
:100970000BF04AFA00200BF060FA01202123142228
:100980001E2100900BF0BBFB0BF03EFA06F06FF956
:100990004FF4007103A814F0E7FA02F027F80020E2
:1009A0000BF04BFA002021237D221E210090012014
:1009B0000BF0A5FB0BF028FA00200BF03EFA01200B
:1009C00021233C221E2100900BF099FB0BF01CFA16
:1009D00006F04DF90121182003F084FA00210C20C3
:1009E00003F080FA00211A2003F07CFA01210F2085
:1009F00003F078FA06F03BF900200BF01EFA002015
:100A000021237D221E21009001200BF078FB0BF0AA
:100A1000FBF900200BF011FA0120212364221E2192
:100A200000900BF06CFB0BF0EFF906F020F903F0EF
:100A300048FF054600200BF000FA002021237D220C
:100A40001E21009001200BF05AFB0BF0DDF9002075
:100A50000BF0F3F9012021237D221E2100900BF0E1
:100A60004EFB0BF0D1F91E48FFF783FC0BF0E8F9C1
:100A7000012108460BF00DFC1AA101A813F0B2FEEB
:100A80000D4A002101A80BF054FC0C2101200BF0B1
:100A900000FC2FE00010014000140140000801405C
:100AA00000100240000001400C0401402C00002016
:100AB000FFFF1F0090000020D0A50208D4EEF0EC4C
:100AC000E0F2E8F0EEE2E0EDE8E52E2E2E00000088
:100AD00000002440252E316625250000000000007E
:100AE000C05C1500D4EEF0ECE0F2E8F0EEE2E0EDF0
:100AF000E8E50000FDA101A813F074FEFE4A002104
:100B000001A80BF016FC0BF07FF906F0B0F8FB48DB
:100B1000FFF72FFC0BF094F919211C200BF0B9FB07
:100B2000F74A0021F7A00BF004FC0BF06DF9F34835
:100B3000FFF71FFC0021442005F0F7FF4FF4007180
:100B4000F34804F01CFD01200DF5037D30BD70B5A8
:100B5000002503F01BFC002013F05EFB04467CB173
:100B600009E0002013F058FB044604B907E042F204
:100B70001070FFF7FEFB28466D1C0528F1D300BF5F
:100B80000AF0EAFF0446012070BD70B50646E14850
:100B9000006800286DD1E049E048006817F0DEFFEA
:100BA00028D24FF08041DD48006818F0D7F821D2F4
:100BB000DB480068F0B9DB480078D8B90BF040F9A1
:100BC000142105200BF065FBCB4A0021D6A00BF0C9
:100BD000B0FB1E2105200BF05CFBC74A0021D7A00B
:100BE0000BF0A7FB0BF010F90120CD490860D748A6
:100BF000FFF7BFFBCB480078002839D1D448006804
:100C000017F0E8FD0446D34AD34B17F03DFA2FD82E
:100C10000BF016F9142105200BF03BFBB64A00211E
:100C2000CEA00BF086FB1E2105200BF032FBB24A52
:100C30000021CDA00BF07DFB0BF0E6F8CD48FFF7CF
:100C400098FB0BF0FDF819211C200BF022FBAC4A9D
:100C50000021ACA00BF06DFB0BF0D6F8BB48FFF702
:100C600088FB0120AE4908604102A94804F087FCD6
:100C700055E001F0D7FD0A2825D801F0D3FD022860
:100C800021D9A7480068F0B9A6480078D8B90BF078
:100C9000D7F8142105200BF0FCFA974A0021A2A0F6
:100CA0000BF047FB1E2105200BF0F3FA924A0021BE
:100CB000A2A00BF03EFB0BF0A7F8012098490860BA
:100CC000A248FFF756FB01F0ADFD012827D8954853
:100CD000007820BB9248006808BB0BF0B1F81421E3
:100CE00005200BF0D6FA844A00219CA00BF021FBD2
:100CF0001E2105200BF0CDFA7F4A00219AA00BF0AF
:100D000018FB0BF081F89C48FFF733FB0BF098F8C9
:100D10000BF07AF84FF400717D4804F030FC70BDA0
:100D200010B5102003F09AF80446012C06D0022CCE
:100D30000AD0042C0ED0082C14D111E0112003F09D
:100D40008DF840EA04240FE0122003F087F840EA0F
:100D5000042409E0132003F081F840EA042403E0AE
:100D6000240201E0002400BF00BF84480068A042C4
:100D700019D0A1B20A2003F0B5F880480460804879
:100D8000818C042003F0AEF87D48818D052003F0AE
:100D9000A9F87B48818E062003F0A4F87848818F5B
:100DA000072003F09FF810BD70B503F0DFFAA8B379
:100DB00003F008FA012003F0B3FA044621460020AC
:100DC00003F090F8032003F0ABFA0546022003F08D
:100DD000A7FA00EBC00101EB001005EB800084B224
:100DE0002146012003F07EF8052003F099FA05461C
:100DF000042003F095FA00EBC00101EB001005EBB5
:100E0000800084B22146022003F06CF8062003F033
:100E100087FA04462146032003F064F870BD10B53C
:100E200000220421574804F0ACFB02F02FF9002106
:100E30000B2003F057F8082003F010F840F00104ED
:100E40002146082003F04EF846F2A8114E4802F061
:100E500008F910BD10B502F073FB082002F0FEFF88
:100E600020F001042146082003F03CF80B2002F09A
:100E7000F5FF28B94248B0F85C100B2003F032F8B7
:100E800010BD10B5044641480078002802DD4048F6
:100E9000404908603F480068002804DC4FF40071B6
:100EA0001B4804F06CFB10BD2DE9FC5F192002F01B
:100EB000D5FF064617F03EFE0546374917F024FDDC
:100EC000364908600A2002F0C9FF40F20122811A67
:100ED00090420AD06DDCB0F5827F74D062DCA0F263
:100EE000011008B101285BE06EE095E0E7E0E2E583
:100EF000F0F8E5EDEE2E0000D0A5020860E3160044
:100F0000D8B30208C2DBCACBDED7C5CDC8C5000046
:100F1000001001405C000020000020417C00002007
:100F20003400002014000020C7E0F0FFE420E0EAD5
:100F3000EAF3ECF3EBFFF2EEF0E00000ECE5EDFCA1
:100F4000F8E520313025202E2E2E0000A025260089
:100F500080000020CDCCCCCCCCCC0440C0EAEAF35D
:100F6000ECF3EBFFF2EEF000F0E0E7F0FFE6E5ED8A
:100F70002E000000E0673500404B4C00940000203C
:100F8000AE8E020800140140F80D00200806002073
:100F9000C02709000800002000007A442400002037
:100FA00070D119E0B0F5847F26D0B0F5887FF7D1F5
:100FB0002AE001293CD003294FD0072963D0B1F59D
:100FC000007FEDD174E00FE0F949FA48006817F0AE
:100FD0009BFCF849086081E0F549F648006817F085
:100FE00093FCF449086079E0F149F248006817F091
:100FF0008BFCF049086071E0ED49EE48006817F09D
:1010000083FCEC49086069E0E949EA48006817F0A8
:101010007BFCE849086061E0E749E648006817F0B2
:10102000D1FD0546E24917F06FFCE249086055E042
:10103000E048006817F0CEFBE04AE14BCDE9000143
:1010400017F05EF807460022DE4B16F0A5FD0546B8
:1010500016F0BCFCD749086040E0D648006817F09D
:10106000B9FBD64AD64BCDE9000117F049F8054641
:101070000022D44B16F090FD074616F0A7FCCD4990
:1010800008602BE029E0CB48006817F0A3FB054679
:10109000CA4ACB4B17F034F80022CA4BCDE9000105
:1010A00016F07AFD074616F091FCC249086015E07B
:1010B000C048006817F08EFB0746C34AC34B17F0C1
:1010C0001FF805460022C24B16F066FDCDE900016F
:1010D00016F07CFCB749086000E000BF00BFBD48C7
:1010E00001F019FA0546B3480168284617F06AFD71
:1010F00081460A2002F0B2FE40F20121884211D15D
:101100004946484617F05EFDB349019017F058FE76
:10111000834617F05FFB074616F006FC054616F0FF
:1011200055FC8146484617F0CDFC85B2294604207F
:1011300002F0D8FEA74801F00AFA8246A54801F05D
:1011400011FA0546A54917F03DFD044621465046D3
:1011500017F004FD00D2A24696480168504617F0E9
:1011600031FD82460A2002F079FE40F201118842E8
:101170000ED14FF08141504617F0F0FD06D24FF0EE
:101180008141504617F01CFE824601E04FF0000AF4
:101190000A2002F063FEB0F5817F0ED14FF081414D
:1011A000504617F0DBFD06D24FF08141504617F054
:1011B00007FE824601E04FF0000A0A2002F04EFED0
:1011C000B0F5827F0CD18649504617F0C7FD05D295
:1011D0008349504617F0F4FD824601E04FF0000AC3
:1011E0000A2002F03BFEB0F5847F0CD17D495046C9
:1011F00017F0B4FD05D27B49504617F0E1FD824659
:1012000001E04FF0000A0A2002F028FE40F201211E
:1012100088420CD17449504617F0A0FD05D272499E
:10122000504617F0CDFD824601E04FF0000A0A203B
:1012300002F014FE40F2022188420ED14FF08241AA
:10124000504617F08BFD06D24FF08241504617F002
:10125000B7FD824601E04FF0000A0A2002F0FEFDD1
:10126000B0F5017F0ED14FF08241504617F076FD68
:1012700006D24FF08241504617F0A2FD824601E0AF
:101280004FF0000A0A2002F0E9FDB0F5027F0CD110
:101290005649504617F062FD05D25449504617F0A2
:1012A0008FFD824601E04FF0000A0A2002F0D6FDD1
:1012B00040F2014188420CD14D49504617F04EFD95
:1012C00005D24B49504617F07BFD824601E04FF0B6
:1012D000000A504617F0F6FB85B22946052002F0B9
:1012E00001FE4349484617F039FD05D249465046AC
:1012F00017F00AFB824601E04FF0000A3D495046D4
:1013000017F060FC064617F0DDFB85B22946072082
:1013100002F0E8FD2F4801F030F905462548016844
:10132000284617F04FFC82460021504617F016FC65
:1013300001D24FF0000A0A2002F090FD40F20111A4
:1013400088420ED14FF08241504617F007FD06D279
:101350004FF08241504617F033FD824601E04FF0D6
:10136000000A0A2002F07AFDB0F5817F0ED14FF01D
:101370008241504617F0F2FC06D24FF082415046AF
:1013800017F01EFD824601E04FF0000A0A2002F02D
:1013900065FDB0F5827F31D11249504617F0DEFC71
:1013A0002AD21049504617F00BFD824626E0000075
:1013B00000004040240000200000E442D122DBF97C
:1013C0007EEA34400000084085EB51B81EB97840F1
:1013D00000C0724058D100200000C843000080BF08
:1013E0000000E0400000604100008C42000020410D
:1013F0000000A0400000C8424FF0000A0A2002F09E
:101400002DFDB0F5847F0CD1F749504617F0A6FCAE
:1014100005D2F549504617F0D3FC824601E04FF063
:10142000000A0A2002F01AFD40F2012188420CD184
:10143000EE49504617F092FC05D2EC49504617F0A1
:10144000BFFC824601E04FF0000A0A2002F006FDD0
:1014500040F2022188420CD1E549504617F07EFC4B
:1014600005D2E349504617F0ABFC824601E04FF04D
:10147000000A0A2002F0F2FCB0F5017F0CD1DC4931
:10148000504617F06BFC05D2D949504617F098FC2E
:10149000824601E04FF0000A0A2002F0DFFCB0F5BE
:1014A000027F0CD1D249504617F058FC05D2D049E2
:1014B000504617F085FC824601E04FF0000A0A20F2
:1014C00002F0CCFC40F2014188420CD1C94950469F
:1014D00017F044FC05D2C749504617F071FC82460C
:1014E00001E04FF0000A504617F0ECFA85B22946A9
:1014F000062002F0F7FCBDE8FC9F70B50446656865
:101500002E462068FEF793FEA4F100614FF00060C4
:1015100003F04BFBB04770BD2DE9F84F01F0B2F975
:10152000824617F007FB81464FF08B4117F0ECF92C
:10153000044617F04FF907464FF06632AE4B16F0EF
:10154000DFFD054616F042FAAC490860084601681E
:10155000AB4817F035FCA9490860AA49A7480068BC
:1015600017F0D2F9804617F035F90646A64AA74B80
:1015700016F0C6FD044616F029FAA049086001F0ED
:10158000ABF9009017F0D6FA83464FF08B4117F075
:10159000BBF9824617F01EF980464FF06632964B33
:1015A00016F0AEFD06469A4A9A4B16F0A9FD04467F
:1015B00016F00CFA984908609848006817F0A2FAEB
:1015C000054697480168284617F0FAFB04469549F6
:1015D00017F09AF9944908609048006817F092FA59
:1015E0008F490860904801688448006817F0EAFA5B
:1015F00004468E4917F088F98D4908608D480068C7
:10160000012807D1084601688B48006817F00EF9D9
:10161000894908608748006838B985480168864864
:10162000006817F0CDFB844908601F2002F016FC0B
:1016300018B982488249086002E0824880490860FF
:101640007548006817F0C6F804467F4A7F4B16F0CD
:101650001BFD03D800207E4908600CE07D497648D8
:10166000006817F0AFFA044675480168204617F085
:101670004BF9774908607048006817F0ABF80646E8
:10168000754A764B16F088FA804616F0A9F804469B
:1016900016F016FC1FFA80FA5146282005F045FA8C
:1016A00065480068BDE8F88F94B000BF4FF00009AE
:1016B000CA4600BF00206A490870FEF797FE6948D5
:1016C000FEF757FE6748FEF754FE6648FEF751FEE8
:1016D00001229102644803F054FF6248FEF749FE7C
:1016E0006048FEF746FE5F48FEF743FE03F0FAF956
:1016F0000120FEF743FE00F05FFF06F03BF80AF022
:10170000B6FB01205949086002F01AFD28B9584873
:10171000006840F0010056490860FFF718FA28B940
:101720005348006840F004005149086002F0BFFCD3
:1017300028B94F48006840F002004D49086001A8F0
:1017400007F096FD302201A94A4813F0B1FB484842
:101750000068002840D00024474A002147A00AF032
:10176000E8FD4348007800F0010068B1601C0446C1
:1017700000EB80004006010E05200AF08AFD3E4A7B
:10178000002140A00AF0D5FD3948007800F00200A1
:1017900068B1601C044600EB80004006010E052085
:1017A0000AF077FD344A002138A00AF0C2FD304823
:1017B000007800F0040068B1601C044600EB800073
:1017C0004006010E05200AF064FD2B4A002134A0DA
:1017D0000AF0AFFD0AF018FB0AF0D5FD0AF014FB81
:1017E0004FF0000969E000000000F04100000243F2
:1017F0000000A0410000204166660A40640000200D
:101800003333D33FA4709D407B14AE47E17AF03F61
:10181000E17A14AE47E1004080000020040000207F
:101820006C00002000007A44680000200000614540
:101830007000002060000020740000209A99193F79
:10184000880000209A99993FCDCCCCCCCCCC0440D8
:101850007C0000200000C84225D910F84533F33E33
:1018600014000020A086010000100140300000207C
:101870000C000020E80B0020D0A502084552524F72
:10188000523A0000D7E0F1FB00000000C8EDE8F696
:10189000E8E0EBE8E7E0F6E8FF20464C415348007B
:1018A000C8EDE8F6E8E0EBE8E7E0F6E8FF204641BF
:1018B0005400000000BF09F10109FE488145F9D339
:1018C000142001F0C9F80BF000FC0020FEF756FDD3
:1018D000012002F0ACFA30B9022002F0A8FA10B9E7
:1018E00080200BF0EFFB192002F0B8FA064617F043
:1018F00021F90546F04917F007F8F0490860F0496A
:10190000EE48006817F000F8EC4908600C2005F07C
:1019100018F9EC490880442005F013F9EA490860F9
:101920004FF40041E94803F00EFEE9490860282021
:1019300005F007F90C9017F0FDF8834616F04AFF02
:101940000746E44AE44B16F0DBFB054616F03EF88A
:10195000E24908601F2002F081FA18B9E048E14925
:10196000086002E0E048DF490860E049DB480068C1
:1019700017F028F90546DB480168284616F0C4FF31
:10198000DB490860D248006830B90846006817F0A3
:101990007DF8D849086003E000F044FFD5490860AD
:1019A0004FF40041C94803F0CEFD01280CD10820B6
:1019B000D14908801020C8700821D04803F0DFFD0D
:1019C000CD49CE4803F02CFD47E2CD48007850B316
:1019D000BC480088B0F5616F18D10E2002F03EFAC5
:1019E000B8490880084600884FF6E851884209DA6D
:1019F000B4480088401C80B2B24A108001460E20D4
:101A000002F070FA0020AF49088004E0AD48008879
:101A1000401CAC4908800020B9490870A9480188D9
:101A20000C2005F082F845F2555005F017F9062014
:101A300005F017F94FF4806005F016F905F01CF970
:101A4000FFF76AFDAF480078AF4908600421AB4852
:101A500003F079FDAD49096888427CD00421A7488C
:101A600003F071FDA94908600846006880B1FFF7DE
:101A7000F1F90020A649087002F0EAFEA548FEF739
:101A800078FC0120FEF77AFC0020A34908709CE056
:101A90000120A14908700020A04908700AF0D0F97F
:101AA000012108460AF0F5FB9D4A00219DA00AF09D
:101AB00040FC0AF0A9F9002472B671B601229DA17A
:101AC0009D4810F0A5FB4FF0000A0FE000231A46D6
:101AD0009AA10DA8CDF800A012F084FE9E490DA891
:101AE00011F093F800B9641C0AF1010ABAF1FF0F72
:101AF000ECD905F0BCF80A2298A19B4810F0B3FB82
:101B000000229AA10DA812F06DFE0DA9964812F0C0
:101B100060F895490A2012F017F84FF0010915E016
:101B20004A4695A10DA812F05DFE8B490DA811F053
:101B30006CF838B90DA98C4812F04BF88A490A2084
:101B400012F002F805F093F809F10109B9F1FF0F5D
:101B5000E6D3854800E04AE010F055FE00220DA9CA
:101B600073A011F063FB87A10DA813F04FFA10B119
:101B700084A011F0BAFB00226EA1104610F048FBC1
:101B800062B661B681480460601C81B20F2002F029
:101B9000A9F94FF00009CA467DA17EA013F0B3F861
:101BA00040B14FF00060FFF7A8FC00207D490860BD
:101BB0007D4908600020FEF7E1FB5648FEF7D9FB9F
:101BC00002F01AFE00200EF033FD4148006810B903
:101BD0004F48007838B100F025FE4649086000F013
:101BE00021FE724908604948006805F0D1FD474868
:101BF000006800285BD101206D490860002046493B
:101C000008701E2002F02AF9012801D1FFF739F9E6
:101C10004FF48051674803F0B2FC4FF4005165481F
:101C200003F0ADFC3A48007810B90020FEF7ADFF94
:101C30003748007830B9042002F0E5F810B90120E7
:101C4000334908703248007801280ED1802002F014
:101C5000DAF850B902202E4908705748007820B9A8
:101C60000120FEF78BFBFFF7DAF8294800780228FD
:101C700006D1042002F0C7F810B9032024490870E7
:101C800023480078032806D1802002F0BCF810B960
:101C900000201F4908701E48007848B9FFF7DAF89D
:101CA00001F06AFC08B909F10109002086E0BDE0F5
:101CB00086E00000FFFF2F0000007A44240000208F
:101CC0000000964320000020D4060020000C0140B4
:101CD0005C00002025D910F84533F33E7400002045
:101CE0009A99193F880000209A99993F0000C842AC
:101CF0007C0000204C0000208C00002000080140E7
:101D0000220000204E060020540000201000002079
:101D100014000020400D03002C00002015000020BE
:101D2000D0A50208CFEEE4EEE6E4E8F2E52E2E2E92
:101D300000000000303A000070070020303A2530E3
:101D400033752E253033752F5369676E616C2025EE
:101D5000642E646174000000C80B0020526F61643F
:101D6000732E747874000000A4090020526F61641F
:101D70002E25303175202000526F61642E253033BE
:101D80007500000050494F4E000000001800002070
:101D9000726200004D3A5C70726F67312E62696E3C
:101DA00000000000CC060020D806002050000020D3
:101DB0006000002000100140A4060020FEF7DEFABB
:101DC000082002F04BF800F0010000280FDD0A2087
:101DD00002F044F8B0F5006F07D101F0D5FB0546DD
:101DE00029460B2002F07EF801E0FFF75DF81B4862
:101DF0000078002809DD082002F030F840F00805DE
:101E00002946082002F06EF808E0082002F026F8C3
:101E100020F008052946082002F064F800200F4948
:101E200008700EF0B7FEFEF77BFF16E00C48007856
:101E300080B90C48FEF79DFA0948007818B90220CD
:101E40000EF0F6FB09E001200EF0F2FB002006493F
:101E5000086002E001200EF0EBFBB6E5D4000020A4
:101E60004F0600208096980060000020704700BF59
:101E7000FEE700BFFEE700BFFEE700BFFEE77047DA
:101E80007047704710B5FEF703FA10BD10B540F269
:101E900025510F4803F020FA48B10D4803F0B3F97B
:101EA0000C49087008460178094803F0A8F940F287
:101EB0002661074803F010FA40B14021044803F0BE
:101EC00002FA04480078401E0249087010BD000064
:101ED00000440040980000202DE9F04106460F46DE
:101EE0001446F9480078012802D10020BDE8F081AD
:101EF000022C00DC0CB90020F8E7F34801780078E8
:101F0000401CF14A107001EB810000EBC100EF4969
:101F100001EB80052C704FF0000800BF002105F197
:101F20001C0040F824100C3040F8241056F82410FF
:101F3000281D40F8241057F824100C3040F82410C5
:101F400034B1281D50F82410404616F06FFC80462E
:101F500005F1100050F82410404616F067FC80464A
:101F6000201EA4F10101CCB2D8DC2846BEE72DE941
:101F7000F04704460D460026E1692162A16AE1624C
:101F8000E561A168E06A16F01DFE80466169206A7D
:101F900016F018FE81462169E06916F013FE8246AC
:101FA000494616F043FC0746414616F03FFC0646FC
:101FB000A662A06ABDE8F0872DE9F84F04460D46F9
:101FC0000026216A6162E16A2163E1692162A16AF6
:101FD000E162E561E168206B16F0F4FD8146A168DD
:101FE000E06A16F0EFFD8246494616F01FFC0746F0
:101FF000A169606A16F0E6FD00906169206A16F03A
:10200000E1FD82462169E06916F0DCFD8346514618
:1020100016F00CFC8146009916F008FC8046394603
:1020200016F004FC0646A662A06ABDE8F88F2DE90A
:10203000BF4F82468B461446A5480078062803D138
:10204000002004B0BDE8B08F022C00DC0CB90020E9
:10205000F7E79F4801780078401C9D4A107001EB1B
:10206000810000EBC1009B4901EB800989F8004029
:10207000002500BF002109F11C0040F824100C309D
:1020800040F824100AEBC40000224FF08043D0E94E
:102090000071384615F0F8FF21D20AEBC400002287
:1020A0004FF04043D0E90071384616F027F916D2B8
:1020B0000AEBC4000022884BD0E90071384616F0C4
:1020C0001FF80022854BCDE9000116F019F8CDE983
:1020D000020115F00CFC09F1040141F824000BEB9E
:1020E000C40000224FF08043D0E90071384615F05B
:1020F000CBFF21D20BEBC40000224FF04043D0E9CC
:102100000071384616F0FAF816D20BEBC401D1E98B
:1021100000710022704B384615F0F2FF00226F4B21
:10212000CDE9000115F0ECFFCDE9020115F0DFFB70
:1021300009F1100141F8240024B109F1040050F81C
:102140002400451909F1100050F824004519201EFB
:10215000A4F10101CCB28DDC484672E701460020B3
:1021600009E0002301F11C0242F820300C3242F851
:102170002030421CD0B20328F3DB70472DE9FC5F0E
:10218000064689461546002434E006EBC4000022CA
:10219000514BD0E90071384615F0B2FF00224F4B89
:1021A000CDE9000115F0ACFF824615F0A0FB291D1A
:1021B00041F8240009EBC4000022474BD0E900712C
:1021C000384615F09DFF82460022444B15F098FFDB
:1021D000CDE9000115F08BFB05F1100141F8240059
:1021E000002105F11C0040F824100C3040F82410A8
:1021F000601CC4B22878401CA042C6DCBDE8FC9F2D
:102200002DE9F043024600BF156A5562D56A156391
:10221000D5691562956AD562D1611569D06980FB6F
:102220000550176A566987FB0667AD197841576AEA
:10223000966987FB0667AE197841D76A956887FB70
:102240000597D2F80CC0D2F8308088FB0CC83D4608
:1022500019EB0C0745EB0805F31940EB05044FF0AB
:1022600000569E1944F10000850045EA9670906280
:10227000906ABDE8F083F0B5024600BFD5691562EB
:10228000956AD562D1611569D06980FB0550176ADE
:10229000566987FB0667AD197841D76A966887FB50
:1022A0000667AB1940EB07044FF00057DE1944F105
:1022B0000000850045EA96709062094D906AA84238
:1022C00010DD2846F0BD000099000020880C002099
:1022D0009A000020BC0C00200000F0400000D0401C
:1022E0000080FF3F906AB0F1404F02DA4FF040406B
:1022F000E8E7906AE6E72DE9F043024600BF156A79
:102300005562D56A1563D5691562956AD562D16142
:102310001569D06980FB0550176A566987FB0676F8
:10232000ED197041576A966987FB0667AE197841C7
:10233000D76A956887FB05C5D2F83080D76888FBD7
:102340000787B9461CEB080745EB0905F31940EB75
:1023500005044FF000569E1944F10000850045EA3F
:10236000967090628F4D906AA84202DD2846BDE8C3
:10237000F083906AB0F1404F02DA4FF04040F6E748
:10238000906AF4E72DE9F047034600BF1E6A5E62DB
:10239000DE6A1E63DE691E629E6ADE62DA611E69A3
:1023A000D86980FB0670D3F820C05E698CFB06C636
:1023B000B04617EB0C0640EB0800D3F824C09F6929
:1023C0008CFB077CF71940EB0C00D3F82CC09E68FF
:1023D0008CFB0686D3F80CC0D3F8309089FB0C9C9C
:1023E000E24618EB090C46EB0A0617EB0C0440EB2F
:1023F00006054FF0005C14EB0C0745F10000860069
:1024000046EA9770986200BF0E6A4E62CE6A0E630B
:10241000CE690E628E6ACE62986AC8610E69C8691A
:1024200080FB0670D1F820C04E698CFB06C6B04612
:1024300017EB0C0640EB0800D1F824C08F698CFB29
:10244000077CF71940EB0C00D1F82CC08E688CFB90
:102450000686D1F80CC0D1F8309089FB0C9C18EBA3
:10246000090846EB0C0617EB080440EB06054FF095
:102470000056A61945F10000870047EA9670886269
:10248000484E886AB04202DD3046BDE8F087886A6F
:10249000B0F1404F02DA4FF04040F6E7886AF4E7C7
:1024A00041810023036043600022C26002618261B7
:1024B000C261028180F8282002624262704730B512
:1024C000C2688A4200DAC16002698A4200DD0161A5
:1024D00001F58042D11381FB0153D0E90042641918
:1024E0005A41C0E900420289521C02810289438993
:1024F0009A420FDBD0E90023C0E90623C2680262DA
:10250000026942620022C26002610260426002818E
:1025100080F8282030BD2DE9FC478046B8F80A0035
:1025200015F058FD04460D46D8E90621104615F071
:1025300065FD064622462B4615F02EFB814615F01A
:10254000F3F9CDE9000115F041FABDE8FC8770B55B
:102550000446206A16F0D6FA05464FF08E4116F072
:10256000D3F970BD70B50446606A16F0CBFA054623
:102570004FF08E4116F0C8F970BD70B50446204684
:10258000FFF7F0FF05462046FFF7E1FF0646294624
:1025900016F016FC70BD014691F8280000F001000D
:1025A000704700000080FF3F10B5044621464FF4FD
:1025B000007002F09FFC10BD00B585B0012140F213
:1025C000012002F097FC002000908DF804008DF8A7
:1025D00005004FF4602002900020039001208DF848
:1025E00010006946D14803F080F807230122032137
:1025F000CE4803F012F90121CC4803F0A2F8CB48F1
:1026000003F0C1F800BFC94803F0C2F80028FAD1AE
:10261000C64803F0C7F800BFC44803F0C8F8002854
:10262000FAD1012003F01EFA0021C04803F089F816
:1026300005B000BD2DE9F0410024002500278026CB
:102640000120FFF7B1FF0121B84803F07AF8072312
:1026500001221121B54803F0E0F800BF0EE001218E
:10266000B24803F0AEF800BF0221B04803F01AFAF6
:102670000028F9D0AD4803F037F905443000A6F141
:102680000101CEB2EBD1ED094FF49600B0FBF5F7A6
:10269000072301221146A54803F0BFF880260EE06B
:1026A0000121A24803F08DF800BF02219F4803F0EA
:1026B000F9F90028F9D09D4803F016F904443000D8
:1026C000A6F10101CEB2EBD10021984803F039F810
:1026D0000020FFF769FFE40904FB07F04FF40061F5
:1026E00001EB400040F6FF71B0FBF1F42046BDE87D
:1026F000F08110B5FFF79EFF044641F23600844298
:1027000001D964240DE040F61C40844201D200242B
:1027100007E0A4F61C446420604340F21A41B0FB79
:10272000F1F48348008864280CD182480068642151
:10273000B0FBF1F08049087000207E4908607C49B8
:10274000088004E07B48006820447A4908607848A3
:102750000088401C7649088077480078FA2801D123
:1027600075490C707448007810BD2DE9F0410024C3
:102770000025002780260120FFF716FF01216B4866
:1027800002F0DFFF072301221121684803F045F81A
:1027900000BF0EE00121654803F013F800BF0221DD
:1027A000624803F07FF90028F9D0604803F09CF8F4
:1027B00005443000A6F10101CEB2EBD1ED095F482E
:1027C000B0FBF5F7072301221146584803F025F81E
:1027D00080260EE00121554802F0F3FF00BF0221E0
:1027E000524803F05FF90028F9D0504803F07CF814
:1027F00004443000A6F10101CEB2EBD100214B48D8
:1028000002F09FFF0020FFF7CFFEE40904FB07F072
:1028100040F6CA0101EB40004900B0FBF1F420464C
:10282000BDE8F08110B5FFF7A0FF0446B4F5616F75
:1028300001D964240CE0B4F5486F01D2002407E00C
:10284000A4F54864642060434FF4C871B0FBF1F410
:10285000204610BD10B5FFF788FF0446B4F57A6F27
:1028600001D964240CE0B4F5486F01D2002407E0DC
:10287000A4F54864642060434FF44871B0FBF1F460
:10288000204610BD70B50026002480250120FFF7EA
:102890008BFE0121254802F054FF0723012203216A
:1028A000224802F0BAFF00BF0EE001211F4802F0EB
:1028B00088FF00BF02211D4803F0F4F80028F9D07A
:1028C0001A4803F011F804442800A5F10101CDB223
:1028D000EBD1E409204670BD70B5002600248025A8
:1028E0000120FFF761FE0121104802F02AFF0723B3
:1028F000012211460D4802F090FF00BF0EE00121B9
:102900000A4802F05EFF00BF0221084803F0CAF83F
:102910000028F9D0054802F0E7FF04442800A5F19B
:102920000101CDB2EBD1E409204670BD0024014085
:10293000A4000020A00000209C000020C0655200E0
:10294000012070472DE9F04104460D46174600204E
:1029500011F012FD06462EB1012239A139480FF0BF
:1029600057FC064672B671B601232246294600205E
:1029700011F04DFD064662B661B6002230A1104648
:102980000FF046FC06460120BDE8F0812DE9F0413C
:1029900004460D461746002011F0EEFC06462EB107
:1029A000012227A127480FF033FC064672B671B604
:1029B000012322462946002011F0E5FC064662B6B6
:1029C00061B600221EA110460FF022FC064601202F
:1029D000BDE8F08101461C48C06848601A48C08ABA
:1029E00008811948C08A48810120704710B572B625
:1029F00071B604F03CF91448C0681449884216D3F3
:102A000001220FA10F480FF003FC044600221146DB
:102A10000BA010F02BFD04460DA010F066FC044640
:102A2000002207A110460FF0F3FB044603E008A0C4
:102A300006F076FE044662B661B6012010BD0000C5
:102A4000303A000070070020E80B0020BF9D7600A0
:102A500050494F4E0000000010B58AB004460121D5
:102A6000C80202F047FA012C04DD601E80B2ADF806
:102A7000200002E00120ADF820004720ADF81C0046
:102A80000020ADF82200ADF81E008DF8240007A943
:102A9000FE4803F0B7FA0121FC4804F019F81920A8
:102AA0008DF8180000208DF819008DF81A0001200B
:102AB0008DF81B0006A802F046F80121880302F0F9
:102AC00026FA0020ADF804004FF48270ADF806003D
:102AD0000020ADF808000220ADF80A000120ADF892
:102AE0000C004002ADF80E000020ADF81000ADF86B
:102AF00012000720ADF8140001A9E54803F0C0F862
:102B00000222E44901F11800FFF791FAE249086056
:102B10000222E24901F11800FFF789FAE049086052
:102B20000222E04901F11800FFF781FADE4908604E
:102B30000222DE4901F11800FFF779FADC4908604A
:102B40000222DC4901F11800FFF771FADA49086046
:102B50000222D84901F11800FFF769FAD749086045
:102B60000AB010BD10B500244FF48050D44908605D
:102B70000860086008600860086008600860086015
:102B80000860086008600860086008600860086005
:102B900008600860086008600860086008600860F5
:102BA00008600860086008600860086008600860E5
:102BB00008600860086008600860086008600860D5
:102BC00008600860086008600860086008600860C5
:102BD00008600860086008600860086008600860B5
:102BE000FF21AB4803F022F900BFA9480830008854
:102BF00000F002000028F8D0FF21A54803F016F9E4
:102C000000BFA3480830008800F001000028F8D079
:102C10009F4803F00DF9044600BF9D480830008826
:102C200000F002000028F8D0FF21994803F0FEF8D8
:102C300000BF97480830008800F001000028F8D055
:102C4000934803F0F5F840EA042400BF90480830A8
:102C5000008800F001000028F8D08D4803F0E8F863
:102C600040EA04244FF480509549091F0860A408E5
:102C7000A0B210BD70B54FF40061924802F07DFC27
:102C8000192001F0EBF8054615F054FF04468E4973
:102C900015F03AFE8D49086001217C4803F018FFC9
:102CA000FFF760FFA0F50040894908600846016809
:102CB00088480078884A12781040884A42F82010E4
:102CC00084480078401C834908700846007882498F
:102CD0000978084000286ED17F480078012808D183
:102CE0001046006811464968084440107849086059
:102CF0000DE07A480068794949680844774989684D
:102D000008447649C96808448010714908607048D1
:102D1000006847F6F461884204DC6D480068494267
:102D2000884205DA6E48006810B901206D490870C4
:102D300067480068C003664908606B48008840F235
:102D40000122811A904276D010DCB0F5827F48D003
:102D500005DCA0F20110C8B101286DD12CE0B0F55E
:102D6000847F53D0B0F5887FF7D166E007296FD014
:102D700004DC01296DD00329EFD1D5E0B1F5007F46
:102D800068D0A1F2FF510029E7D122E15048026842
:102D90004348016840480068FFF7F4FA4C4908606E
:102DA00008460268424801683F480068FFF7EAFAAF
:102DB0004749086019E14DE1454802683848016813
:102DC00035480068FFF7DEFA4149086008460268A6
:102DD0003748016834480068FFF7D4FA3C49086076
:102DE00003E13B4802682E4801682B480068FFF762
:102DF000C9FA37490860084602682D4801682A4820
:102E00000068FFF7BFFA32490860EEE03048026818
:102E10002348016820480068FFF7B4FA2C4908608D
:102E200008460268224801681F480068FFF7AAFAAE
:102E300027490860D9E00EE0D6E0254802681C4822
:102E4000016819480068FFF79DFA21490860CCE045
:102E500085E04EE09EE01E480268114801680E4879
:102E60000068FFF78FFA1A4908600846016812489F
:102E70000068FFF740FA16490860084602680C48E7
:102E8000016809480068FFF77DFA2FE0002C014037
:102E90000038004040010020F005002070010020B3
:102EA000F4050020C0020020F8050020F0020020F8
:102EB000FC050020A00400200006002004060020DD
:102EC000140C01400008014000007A44D8000020A2
:102ED000C4000020DC000020DD00002048D10020DC
:102EE000CC000020D4000020C8000020FE4908606B
:102EF0007BE0FD480268FD480168FD480068FFF777
:102F000041FAF949086008460168FA480068FFF785
:102F1000F2F9F549086008460168F7480068FFF7CC
:102F2000AAF9F149086060E0EF480268EF480168DB
:102F3000EF480068FFF726FAEB4908600846016889
:102F4000EC480068FFF7D7F9E749086008460168D0
:102F5000E9480068FFF78FF9E349086045E0E24877
:102F60000268E2480168E2480068FFF70BFADE49B0
:102F7000086008460168DF480068FFF7BCF9DA49D5
:102F8000086008460168DC480068FFF774F9D64914
:102F900008602AE0D4480268D4480168D448006830
:102FA000FFF7F0F9D049086008460268D348016885
:102FB000D1480068FFF7E6F9CB4908600846026887
:102FC000CF480168CB480068FFF7DCF9C6490860C4
:102FD0000BE0C5480268C9480168C7480068FFF7A8
:102FE000D1F9C149086000E000BF00BFC5480068D2
:102FF00028B1C4480068401EC249086070BDBA4884
:103000000168C148FFF75BFAC0480088002821DD4D
:10301000BE480088401EBD490880B348006815F0CE
:1030200071FD0546BA480168284615F0CBFD0446F7
:1030300015F02CFDB74908600846006800F580408F
:10304000C01300B2B44909680880B3480068801C06
:10305000B14908604FF40061B04802F090FA00BF37
:10306000CCE70022A94B1A80AB4A1060AC4A118011
:1030700002E0002220F811200A00A1F1010399B218
:10308000F7D1A74A1288A14B1A80704710B50020CB
:103090009E49088001221103A24802F072FA002022
:1030A000A149086048608860C860A049087046F27D
:1030B000A810944908600A2000F0D0FE9C490880BE
:1030C0008B480068FFF74AF888480068FFF746F821
:1030D00089480068FFF742F888480068FFF73EF823
:1030E00084480068FFF73AF885480068FFF736F82B
:1030F0008F48008840F20122811A90427DD010DC76
:10310000B0F5827F67D005DCA0F20110C8B10128BC
:1031100074D13BE0B0F5847F71D0B0F5887FF7D1F2
:10312000AAE007296CD004DC01296AD00329EFD179
:103130005EE1B1F5007F65D0A1F2FF510029E7D132
:10314000D3E16B487B49026801F11800FFF716F8DC
:1031500066487949026801F11800FFF70FF86648E0
:103160007649026801F11800FFF708F863487449CE
:10317000026801F11800FFF701F803207149087097
:1031800046F2A8116048FFF78BF9CAE158486E492A
:10319000026801F11800FEF7F1FF54486B4902681C
:1031A00001F11800FEF7EAFF53486949026801F18E
:1031B0001800FEF7E3FF51486649026801F1180064
:1031C000FEF7DCFF01205F49087046F2A8114E4867
:1031D000FFF766F9A5E146485F49026801F118006A
:1031E000FEF7CCFF41485D49026801F11800FEF787
:1031F000C5FF41485649026805E062E090E116E0EB
:103200001BE1D0E03EE101F11800FEF7B7FF3B48BB
:103210005049026801F11800FEF7B0FF012049494A
:10322000087046F2A8113848FFF73AF979E13048BA
:103230004B49026801F11800FEF7A0FF2B484949ED
:10324000026801F11800FEF799FF2B484049026817
:1032500001F11800FEF792FF28483E49026801F18B
:103260001800FEF78BFF01203649087046F2A811BE
:103270002548FFF715F954E11D483B49026801F163
:103280001800FEF77BFF19483849026801F1180061
:10329000FEF774FF18482E49026801F11800FEF786
:1032A0006DFF16482B49026801F11800FEF766FF12
:1032B00001202449087046F2A8111348FFF7F0F8DE
:1032C0002FE10B481B49026801F11800FEF756FF79
:1032D00006481949026801F11800FEF74FFF064839
:1032E0001649026844E00000C4000020F4050020F4
:1032F000F005002000060020F8050020FC05002055
:1033000004060020CC00002058D10020C00000207E
:10331000D8000020D0000020BC00002000080140A0
:10332000C2000020000C014048D10020DC00002039
:10333000C8000020B0030020E0030020C0020020ED
:10334000F0020020DD00002040010020700100207C
:103350002003002050030020A0010020D001002005
:1033600000020020300200206002002090020020B5
:1033700001F11800FEF702FFFD48FE49026801F165
:103380001800FEF7FBFEFC48FC49026801F118003A
:10339000FEF7F4FE0320FA49087046F2A811F94836
:1033A000FFF77EF8BDE0F848F849026801F118001F
:1033B000FEF7E4FEF648F749026801F11800FEF74F
:1033C000DDFEF548F549026801F11800FEF7D6FE6A
:1033D000E948F349026801F11800FEF7CFFE012029
:1033E000E749087046F2A811E648FFF759F898E057
:1033F000E548EC49026801F11800FEF7BFFEE44819
:10340000E949026801F11800FEF7B8FEE248E34915
:10341000026801F11800FEF7B1FED748E0490268E2
:1034200001F11800FEF7AAFE0120D549087046F206
:10343000A811D448FFF734F873E0D348DB49026899
:1034400001F11800FEF79AFED148D949026801F14E
:103450001800FEF793FED048D049026801F1180029
:10346000FEF78CFEC448CE49026801F11800FEF751
:1034700085FE0120C249087046F2A811C148FFF735
:103480000FF84EE0C048CB49026801F11800FEF782
:1034900075FEBF48C849026801F11800FEF76EFECC
:1034A000BD48C649026801F11800FEF767FEB04842
:1034B000C349026801F11800FEF760FEAE48C14939
:1034C000026801F11800FEF759FEBF48BF490268C3
:1034D00001F11800FEF752FE0320A949087046F2D8
:1034E000A811A848FEF7DCFF1BE0AB48B84902680A
:1034F00001F11800FEF742FE9D489E49026801F165
:103500001800FEF73BFE01209D4908704FF2244051
:10351000B049086046F2A8119A48FEF7C1FF00BF03
:1035200000BF00BF0121AC4802F04FFC0121AB48B5
:1035300002F0F4FF01221146A84803F00AF810BD7A
:1035400010B50020A649087000220121A34803F00D
:1035500000F80021A14802F0E1FF01219F4803F09B
:10356000B7FA00219C4802F030FC00224FF4805151
:103570009C4802F006F810BD9B480088002801DD39
:10358000012070470020FCE79848008800280CDDE7
:103590009648008894490988401A64214843934911
:1035A0000988B0FBF1F0C0B270470020FCE700B51D
:1035B00000BFFFF7E1FF0128FBD000BD2DE9F74F69
:1035C00086B0894692460120FCF7D8FE45F6C051E8
:1035D0006C48FEF765FF86A1069811F094FB8346C0
:1035E000BBF1000F7DD000220421584611F0C0FA33
:1035F0000DE0BDF910004FF48041C1EBC0344FF431
:10360000967094FBF0F529465E48FEF758FF5B463E
:103610000122022104A813F075F90128E9D05948C4
:10362000FEF795FF734908600868734915F0CAFAF8
:10363000054615F047FAA9F800006E4908686E497A
:1036400015F0C0FA054615F03DFA80B2ADF80C0051
:1036500000220421584611F08BFA45F6C051494822
:10366000FEF71EFF48485149026801F11800FEF7B5
:1036700085FD47484E49026801F11800FEF77EFDBE
:1036800045484649026801F11800FEF777FD3A48BF
:103690004349026801F11800FEF770FD31E0BDF901
:1036A00010004FF48041C1EBC03422463848016815
:1036B00035480068FEF766FE044621462E4800683D
:1036C000FEF719FE0446214633480068FEF7D3FD95
:1036D0000446204614F067FC484A494BCDE90001F6
:1036E00000E033E014F00CFD07460022454B14F0D7
:1036F00053FA054614F0E4FB014602902148FEF718
:10370000DEFE5B460122022104A813F0FBF801282B
:10371000C5D01C48FEF7FFFE364948604868364968
:1037200015F050FA054615F0CDF9AAF80000314918
:103730004868314915F046FA054615F0C3F980B2DC
:10374000ADF80E00584611F005FB04E00020A9F882
:103750000000AAF800004FF4FA70A9F8000041F246
:10376000F450AAF8000003A809B0BDE8F08F0000EB
:10377000FC050020F002002000060020A00400202C
:10378000DD00002058D10020F0050020400100207D
:10379000F405002070010020F805002080030020BF
:1037A00000050020A0010020D00100200002002020
:1037B00030020020E00000201001002090050020D1
:1037C000C005002030050020040600206005002010
:1037D000C0020020CC00002000380040002C014036
:1037E000D4000020000C0140C0000020C2000020D6
:1037F0007200000088D100200000C842D122DBF90D
:103800007EEA344000C07240F8B506460120FCF75D
:10381000B5FD46F2A811CA48FEF742FEAFF23001EC
:10382000304611F070FA0446002C59D000220421D1
:10383000204611F09DF9C348C349026801F1180000
:10384000FEF79CFCC148C249026801F11800FEF76E
:1038500095FCC048C049026801F11800FEF78EFCD3
:10386000BE48BF49026801F11800FEF787FC1DE061
:10387000BDF900004FF48041C1EBC0352A46B34882
:103880000168B0480068FEF77DFD05462A46B3484A
:103890000168B0480068FEF775FD05464FF4967064
:1038A00095FBF0F73946A648FEF709FE23460122AC
:1038B0000221684613F026F80128D9D0A048FEF767
:1038C0002AFEA8490860204611F044FAA549086874
:1038D000A54915F077F9074615F0F4F880B2F8BD60
:1038E0000020FCE72DE9F14F82B00120FCF746FDF6
:1038F00045F6C0519248FEF7D3FDAFF20C11029885
:1039000011F001FA8346BBF1000F71D000220421AF
:10391000584611F02DF946F2A8118948FEF7C0FD6E
:1039200088488949026801F11800FEF727FC87489A
:103930008749026801F11800FEF720FC85488B4991
:10394000026801F11800FEF719FC894889490268EC
:1039500001F11800FEF712FC2EE0BDF904004FF44F
:103960008041C1EBC03A524678480168754800680A
:10397000FEF708FD824651467D480068FEF7BBFC15
:103980008246514673480068FEF775FC82465046F1
:1039900014F009FB0646784A784B14F0B1FB044654
:1039A0000022774B14F0F8F8804614F089FA0146AB
:1039B00000906348FEF783FD5B460122022101A8C7
:1039C00012F0A0FF0128C8D05D48FEF7A4FD6D49A4
:1039D0004860584611F0BEF96A494868624915F0D6
:1039E000F1F8044615F06EF880B2BDE8FE8FFFE7EF
:1039F0000020FAE72DE9F14F84B00120FCF7BEFC6E
:103A000041F288314E48FEF74BFDAFF21C2104987D
:103A100011F079F98246BAF1000F7DD0002204211D
:103A2000504611F0A5F847485749026801F11800BF
:103A3000FEF7A4FB45485549026801F11800FEF75E
:103A40009DFB44485249026801F11800FEF796FBBD
:103A500042485049026801F11800FEF78FFB4448C4
:103A60004D49026801F11800FEF788FB4B484C49AC
:103A7000026801F11800FEF781FB40E0BDF9081073
:103A8000BDF90A20881800EBD071491009B2ADF8D1
:103A90000810BDF908004FF48041C1EBC03B5A4605
:103AA0002A48016827480068FEF76CFC83465A469E
:103AB0002A48016827480068FEF764FC83465A4696
:103AC000364801682A480068FEF75CFC8346584681
:103AD00015F018F8009014F07DFE0646314A324B7E
:103AE00014F00EFB04460022254B14F055F88046D6
:103AF00014F0E6F9014601901148FEF7E0FC534648
:103B00000222114602A812F0FDFE0228B6D00C488F
:103B1000FEF701FD254900E00FE04860504611F036
:103B200019F922494868104915F04CF8044614F078
:103B3000C9FF80B205B0BDE8F08F0020FAE70000B1
:103B400058D10020F005002000020020F4050020DC
:103B500030020020F805002020030020FC05002092
:103B60005003002094D100200000C84280030020B0
:103B70000006002000050020D122DBF97EEA344057
:103B800000C07240A0D10020E00000201001002001
:103B900090050020C005002030050020040600200C
:103BA0006005002085EB51B81EB97840ACD10020EB
:103BB00010B54FF40061A34801F0C5FC30B9A2482C
:103BC000007840F00100A049087005E09E480078A8
:103BD00020F001009C4908704FF480719B4801F06F
:103BE000B2FC30B99848007840F00200964908705D
:103BF00005E09548007820F0020093490870012103
:103C0000904801F0A0FC30B98F48007840F00400E3
:103C10008D49087005E08C48007820F004008A493E
:103C200008704FF48061874801F08DFC30B98648F8
:103C3000007840F008008449087005E08248007868
:103C400020F008008049087002217E4801F07BFCCA
:103C500030B97D48007840F010007B49087005E0DD
:103C60007948007820F0100077490870764800788D
:103C70007749097888427DD076480078002879D144
:103C80007348007800F0010050B96F48007800F0E8
:103C9000010028B17048006840F001006E490860DA
:103CA0006B48007800F0020002280BD066480078CC
:103CB00000F00200022805D16748006840F00200C9
:103CC000654908606248007800F0040004280BD0C1
:103CD0005D48007800F00400042805D15E480068C3
:103CE00040F004005C4908605948007800F0080082
:103CF00008280BD05448007800F00800082805D1A7
:103D00005548006840F00800534908605048007862
:103D100000F0100010280BD04B48007800F0100085
:103D2000102805D14C48006840F010004A4908604E
:103D30004748007800F0010050B14348007800F097
:103D4000010028B94448006840F02000424908605A
:103D50003F48007800F0020002280DD13A48007870
:103D600000F00200022807D03B48006840F0400005
:103D7000394900E03DE008603548007800F0040073
:103D800004280BD13048007800F00400042805D046
:103D90003148006840F080002F4908602C480078C6
:103DA00000F0080008280BD12748007800F0080030
:103DB000082805D02848006840F48070264908602B
:103DC0002348007800F0100010280BD11E4800781E
:103DD00000F01000102805D01F48006840F4007063
:103DE0001D49086018480078194908701E201949B3
:103DF000087018480078002804DD16480078401E36
:103E00001449087010BD014613480068084030B1DD
:103E1000114800688843104A106000207047012054
:103E2000FCE70D49096881430B4A11607047014660
:103E3000054800780840002801DD00207047012077
:103E4000FCE70000000C01400806002000100140C3
:103E500009060020100600200C06002070B504465C
:103E6000202C01D3002070BDA74800EBC40080794E
:103E700002282ED100F0A6F91CB9012000F050FA5A
:103E8000F1E7012C0ED1032000F04AFA054602208A
:103E900000F046FA00EBC00101EB001005EB8000DA
:103EA00080B2E0E7022C0ED1052000F039FA054679
:103EB000042000F035FA00EBC00101EB001005EB27
:103EC000800080B2CFE7032C03D1062000F028FA4F
:103ED000C9E70D2C02D14FF4B370C4E78B4830F81A
:103EE0001400C0E773B50446202C01D300207CBD2C
:103EF000854800EBC4004088BDF80410884204DA0D
:103F0000814800EBC400408801907F4830F83400BD
:103F1000BDF80410884203DD7B4830F8340001907E
:103F2000794800EBC4008079012812D1022000EB0F
:103F30004401034601AA012010F018FC734800EB6D
:103F40004402022000EB44010346012010F0E7FB8D
:103F500050E06D4800EBC4008079022845D100F0A4
:103F600031F924B9BDF80410012000F08BF9012CBF
:103F700015D1BDF80400642190FBF1F085B229460B
:103F8000022000F07FF9BDF80400642190FBF1F2FB
:103F900001FB120085B22946032000F073F9022CC0
:103FA00019D1BDF80400642190FBF1F085B22946D7
:103FB000042000F067F9BDF80400642190FBF1F2E1
:103FC00001FB120085B22946052000F05BF90021B3
:103FD000062000F057F9032C04D1BDF80410062088
:103FE00000F050F900F0FCF804E0BDF80410474878
:103FF00020F81410454830F81400BDF80410884229
:1040000001D0002073E7012071E7002007E03E495E
:1040100001EBC0018A883D4921F81020401C20286E
:10402000F5D37047F8B5012600243CE0364800EB94
:10403000C4008079012835D1022000EB44053348C3
:1040400000EB440202232946012010F068FB2F48B0
:1040500030F814002C4901EBC4014988884207DC80
:104060002A4830F81400284931F83410884219DA07
:10407000254800EBC400021D02232946012010F050
:1040800075FB02236A462946012010F048FB1E48B2
:1040900000EBC4008088BDF80010884201D00026E3
:1040A00000E00126641C202CC0D33046F8BD10B5BA
:1040B000FFF7ABFF0223154A921E0021012010F0EA
:1040C0002EFB1248801E0088B0F5D35F19D04FF444
:1040D000D3500E49891E088042230A460021012040
:1040E00010F044FB0223094A921E0021012010F027
:1040F00016FB0648801E0088B0F5D35F01D0002073
:1041000010BDFFF78FFFFBE7AE8E0208BAD100208B
:1041100010B500209B490860486088600120C86095
:104120000020086146204861084610F0D4FF04468C
:1041300001F038FD204601F002FD01F033FD10BD15
:1041400010B501214FF0C05000F0E1FE8E48FCF7A1
:1041500010F9012002F02DFD042002F0F2FC4AF6D5
:10416000AA21884228D002F0B7FC012000F02FFEDF
:1041700000BF412000F093FD0028FAD04FF480707A
:1041800000F041FE012000F044FE01F014FD01F0BA
:1041900009FD0121084601F0A9FC47F6FF7001F076
:1041A000DBFC01F0FFFCFFF7B3FF4AF6AA21042075
:1041B00002F0BBFC002010BD01F0FDFC01F0F2FCA0
:1041C0000120F8E738B501F0B1FC0090684610F026
:1041D0005DFF04462C2221466A4810F069FE38BD76
:1041E00010B5684810F077FF044601F0DBFC20466C
:1041F00001F0A5FC01F0D6FCFFF7E4FF10BD40F292
:104200006C71884204DBA0F26C715E4A516103E07C
:1042100040F26C715B4A516170470C2801DD0C2043
:1042200002E0012800DA0120411E564A1161704760
:104230001F2803DD1F21534AD16007E0012803DA5C
:104240000121504AD16001E04E49C86070471728EB
:1042500003DD17214B4A916001E04A4988607047AD
:104260003B2803DD3B21474A516001E04549486056
:1042700070473B2803DD3B21424A116001E0414980
:1042800008607047072848D2DFE800F04704121D95
:104290002C353E0040F26C72914204DBA1F26C724C
:1042A000384B5A6103E040F26C72364B5A6135E08C
:1042B0000C2901DD0C2102E0012900DA01214A1E4E
:1042C000304B1A612AE01F2903DD1F222D4BDA60D3
:1042D00007E0012903DA01222A4BDA6001E0294ACA
:1042E000D1601BE0172903DD1722264B9A6001E0FD
:1042F000244A916012E03B2903DD3B22214B5A60A6
:1043000001E0204A516009E03B2903DD3B221D4BBF
:104310001A6001E01B4A116000E000BF00BF704757
:104320000146072920D2DFE801F01F040A0F131706
:104330001B001448808A00F26C7080B270471148EC
:10434000008A401C80B2F9E70E48808980B2F5E708
:104350000C48008980B2F1E70A48808880B2EDE716
:104360000848008880B2E9E70020E7E710B501209F
:1043700001F033FC012803D101F03AFC012010BD0B
:104380000020FCE7FCD10020400D0300FD488069BF
:1043900040F00100FB4988610846806940F0040054
:1043A0008861F948006840F44030F74908600846E1
:1043B000006820F4402008601020F34910310860A4
:1043C000F148006840F44010EF4908600846006872
:1043D00020F4400008600846006840F400000860CF
:1043E0000846006820F0407008600846006820F029
:1043F000406008600846006840F0006008604020A7
:10440000E14910310860E048006840F04050DE4962
:1044100008600846006820F04040086008460068D0
:1044200040F000400860D748806940F48050D5498A
:1044300088610020D54988800420088008460088CB
:1044400040F0100008800846008840F48070088022
:104450000846008840F4007008800846008840F054
:10446000400008807047014600BFC848008900F03E
:1044700002000028F9D0C548818100BFC3480089E7
:1044800000F001000028F9D0C0488089C0B2704710
:1044900070B502460B460026BD48007820B9112AA7
:1044A00001D0182A00D15B024FF48010B6491031B8
:1044B000086042F04000FFF7D6FF180EFFF7D3FF69
:1044C000C3F30740FFF7CFFFC3F30720FFF7CBFF8E
:1044D000D8B2FFF7C8FF082A03D18720FFF7C3FF30
:1044E00002E09520FFF7BFFF05E03046711CCEB219
:1044F000FE2800DD05E0FF20FFF7B5FF0446FF289A
:10450000F3D000BFC4B93A2A16D1FF20FFF7ABFFA2
:10451000054605F0400018B101209D49087002E0F1
:1045200000209B490870FF20FFF79DFFFF20FFF749
:104530009AFFFF20FFF797FFFF20FFF794FF10205F
:10454000914910310860204670BDF0B50227002463
:10455000FFF71CFF10208C4910310860002504E093
:10456000FF20FFF780FF681CC5B20A2DF8DB4FF46F
:10457000801085491031086006E02046611C8CB22D
:10458000202801DD0220F0BD00210846FFF780FF52
:104590000128F2D110207C4910310860FF20FFF77C
:1045A00062FFFF20FFF75FFF002406E02046611C4A
:1045B0008CB2FE2801DD012706E04FF4D5710820FA
:1045C000FFF766FF0128F1D100BF002400BF0021E2
:1045D0003720FFF75DFF06464FF080412920FFF7A7
:1045E00057FF0646601C84B240F6FE70844201DD2F
:1045F0000120C8E7002EEAD1002400206449087099
:10460000022F0DD105E02046611C8CB2FE2800DD92
:1046100005E000213A20FFF73BFF0028F3D100BF5F
:104620000020B0E701F08000704770477047704786
:10463000704770472DE9F04107460C464FF00008DF
:1046400039461820FFF724FF08B1BDE8F0814FF488
:1046500080104D4910310860FE20FFF704FF00264E
:1046600005E014F8010BFFF7FEFE701C86B2B6F5EC
:10467000007FF6DBFF20FFF7F6FEFF20FFF7F3FEDB
:10468000FF20FFF7F0FE054605F01F00052804D0C7
:1046900010203D4910310860D7E70CE04046411C2E
:1046A0001FFA81F84FF6FE71884204DD102036496A
:1046B00010310860C9E7FF20FFF7D5FE0028EDD0D4
:1046C0001020314910310860FF20FFF7CCFE4FF475
:1046D00080102D49103108600CE04046411C1FFA43
:1046E00081F84FF6FE71884204DD10202649103112
:1046F0000860AAE7FF20FFF7B6FE0028EDD01020E3
:1047000021491031086000BF9FE770B506460C468E
:10471000002531461120FFF7BBFE00B170BD4FF4FC
:1047200080101949103108600BE02846691C8DB2D1
:104730004FF6FE71884204DD1020134910310860E5
:10474000ECE7FF20FFF78FFEFE28EED1002506E004
:10475000FF20FFF788FE04F8010B681C85B2B5F551
:10476000007FF5DBFF20FFF77EFEFF20FFF77BFEDB
:10477000FF20FFF778FE102003491031086000BFCA
:10478000CCE700000010024000080140003001406A
:10479000140600202DE9F04107460C4616461D463A
:1047A00014493846FFF7B1FF6019B0F5007F05DC0A
:1047B000104801192A46304610F035FBBDE8F0815B
:1047C0002DE9F04107460C4616461D460949384674
:1047D000FFF79BFF6019B0F5007F05DC054908195C
:1047E0002A46314610F01FFB02493846FFF722FFE8
:1047F000BDE8F08128D2002000B585B0644800688B
:1048000030B964A164A010F07EFA6149086009E043
:104810005F48006810F09EFA5EA15FA010F073FA86
:104820005B4908605A48006878B16A465DA15848FB
:10483000006810F013F95648006810F08BFA55A183
:10484000684610F060FA52490860002005B000BDCB
:1048500010B54F48006818B14D48006810F07AFA5A
:1048600010BD70B505460C464948006810B94FF0B8
:10487000FF3070BD20221021284610F04BFB14B9E8
:104880004FF0FF30F5E7601E01010022404800684C
:1048900010F06EF93E48102201210368284612F0FC
:1048A00031F810280AD1287830B91021284610F0A4
:1048B00039FB4FF0FF30DCE70020DAE74FF0FF3044
:1048C000D7E730B5ADF27C6D0024002572B671B625
:1048D000012235A168460DF09BFC0A2233A10DF59B
:1048E0008B600DF0C0FC34A22EA10DF58B600FF093
:1048F00070F90DF58B6100200FF026F902F0B7F981
:1049000001240CE0234630A231A10DF58B600FF09D
:1049100060F9E0B20DF58B610FF016F9641CB4F587
:104920007A7FEFDBDDF864540DF58B600DF06BFFE3
:1049300002F09DF9212201211CA00EF07CFB0A222D
:1049400027A10DF58B600DF08EFC28A215A10DF5A9
:104950008B600FF03EF90DF58B600DF054FF0A22CD
:1049600024A18DA80DF07FFC20A20EA18DA80FF030
:1049700030F98DA80DF047FF00220BA110460DF075
:1049800047FC62B661B628460DF27C6D30BD000072
:1049900018060020720000004D3A5C526F61642ED0
:1049A0006C6F670025730000303A0000303A526F98
:1049B00061642E3000000000E1E5E720ECE0F0F853
:1049C000F0F3F2E020202000F2EEF7EAE000000031
:1049D0002573202530337520202020202000000062
:1049E000303A526F61642E6C6F670000526F6164E1
:1049F0002E300000303A526F6164732E7478740068
:104A00000CB50020019000904848006840F48030C8
:104A10004649086000BF4548006800F40030009037
:104A20000198401C0190009818B90198B0F5A06F4A
:104A3000F1D13E48006800F4003010B10120009030
:104A400001E0002000900098012844D13848006817
:104A500040F01000364908600846006820F0030066
:104A600008600846006840F0020008602F4840686F
:104A70002E4948600846406848600846406840F44F
:104A8000806048600846406820F47C104860084612
:104A9000406840F4E81048600846006840F08070C4
:104AA000086000BF2148006800F000700028F9D0BD
:104AB0001E48406820F003001C49486008464068D2
:104AC00040F00200486000BF1848406800F00C0049
:104AD0000828F9D101E000BFFEE70CBD10B5FFF7D3
:104AE0008FFF10BD10B51148006840F001000F495C
:104AF0000860084640680F4908400C49486008466D
:104B000000680D490840094908600846006820F41B
:104B1000802008600846406820F4FE0048604FF49A
:104B20001F008860FFF7DAFF10BD00000010024090
:104B3000002002400000FFF8FFFFF6FE314901436C
:104B4000314A1160704770B5002100230F22C478EC
:104B500004B32D4C246804F4E064C4F5E064210A35
:104B6000C1F10403CA40447804FA03F18478144084
:104B700021430901254C0678A155047804F01F054E
:104B80000124AC4005786D11AD0005F1E025C5F8B4
:104B9000004109E0047804F01F050124AC401C4DDD
:104BA0000678761145F8264070BD1A4A0A4002433D
:104BB000154B1B1F1A60704739B1134A121D12683A
:104BC0000243114B1B1D1A6006E00F4A121D1268AA
:104BD00082430D4B1B1D1A607047042808D14FF00B
:104BE000E021096941F004014FF0E022116107E082
:104BF0004FF0E021096921F004014FF0E02211613A
:104C0000704700000000FA050CED00E000E400E051
:104C100080E100E080FFFF1FDF48006840F00100F6
:104C2000DD49086008464068DC490840DA494860C8
:104C300008460068DA490840D74908600846006815
:104C400020F4802008600846406820F4FE00486098
:104C50004FF41F0088607047CF49096821F4803104
:104C6000CD4A11601146096821F480211160B0F528
:104C7000803F03D0B0F5802F0ED106E0C649096809
:104C800041F48031C44A116007E0C349096841F426
:104C9000A021C14A116000E000BF00BF704710B5FD
:104CA00001460022002300204A11012A02D1BA4CF9
:104CB000236806E0022A02D1B74C236A01E0B64C11
:104CC000636A01F01F02012494401C400CB10120D2
:104CD00000E0002010BD38B5002000900024002521
:104CE00000BF3120FFF7DBFF05460098401C009015
:104CF0000098B0F5A06F01D0002DF2D03120FFF761
:104D0000CEFF08B1012400E00024204638BD014652
:104D10000020A14A106820F0F80040EAC1001060AD
:104D20007047A04908607047024600209A4B5868B7
:104D300020F47C1042EA01031843974B58607047F7
:104D400098490866704701460020934A506820F051
:104D500003000843506070478F48406800F00C0023
:104D60007047014600208C4A506820F0F00008434C
:104D70005060704701460020874A506820F4E06088
:104D800008435060704701460020834A506820F471
:104D9000605040EAC1005060704729B17E4A527AA3
:104DA00002437D4B5A7204E07B4A527A82437A4B2B
:104DB0005A7270477B49D83108607047014600201D
:104DC000754A506820F44040084350607047002105
:104DD000714A20321170704A82F82010012802D0E6
:104DE00004280AD104E001216B4A2032117005E049
:104DF0000521694A2032117000E000BF00BF7047F2
:104E00006949086070476449096A0143624A11624E
:104E10007047654944390860704730B50021002269
:104E2000002400235C4D6D6805F00C0121B10429BC
:104E300005D0082923D105E05C4D056022E05B4DDB
:104E400005601FE0544D6D6805F47012524D6D6899
:104E500005F48034022505EB92421CB9544D5543AC
:104E600005600BE04C4D6D6805F400351DB1504DEB
:104E70005543056002E04D4D5543056002E04B4D42
:104E8000056000BF00BF444D6D6805F0F0010909E1
:104E9000484D6B5C0568DD4045603F4D6D6805F42D
:104EA000E061090A434D6B5C4568DD4085603A4D21
:104EB0006D6805F46051C90A3E4D6B5C4568DD4084
:104EC000C560354D6D6805F44041890B3A4D6B5C0A
:104ED000C568B5FBF3F5056130BD29B12E4A5269AD
:104EE00002432D4B5A6104E02B4A526982432A4BFC
:104EF0005A61704729B1284A92690243264B9A6148
:104F000004E0254A92698243234B9A61704729B194
:104F1000214AD2690243204BDA6104E01E4AD26979
:104F200082431D4BDA61704729B11B4AD2680243A4
:104F3000194BDA6004E0184AD2688243164BDA60F3
:104F4000704729B1144A12690243134B1A6104E0F5
:104F5000114A12698243104B1A6170471249403955
:104F6000086070470F49C86470470B49C8717047A3
:104F70000948406A40F0807007494862704701461E
:104F80000020054A92680A400AB1012000E0002092
:104F90007047014988727047001002400000FFF816
:104FA000FFFFF6FE000042428004424200127A00F7
:104FB00000093D001C0600202C06002010B5044608
:104FC000E248844209D101218803FFF7ADFF0021A7
:104FD0004FF48040FFF7A8FF32E0DD48844209D15A
:104FE00001214804FFF7ADFF00214FF40030FFF727
:104FF000A8FF25E0D748844209D101218804FFF7A2
:10500000A0FF00214FF48020FFF79BFF18E0D2485B
:10501000844209D10121C804FFF793FF00214FF416
:105020000020FFF78EFF0BE0CC48844208D101211D
:105030000805FFF786FF00214FF48010FFF781FF7E
:1050400010BD2DE9F04786B005460E460024A24665
:1050500000BF00BF0027B08900B100BF2F462C8AD7
:105060004CF6FF700440F08804432C82AC894EF665
:10507000F3100440B0883189084371890843044320
:10508000AC81AC8A4FF6FF400440B0890443AC8247
:1050900001A8FFF7C2FEAD48874202D1DDF810A09B
:1050A00001E0DDF80CA00AEBCA0000EB0A10316841
:1050B0008900B0FBF1F86420B8FBF0F0040120098E
:1050C000642101FB1089322000EB0910B0FBF1F0E4
:1050D00000F00F0004432C8106B0BDE8F0874FF4C8
:1050E0001651016000218180C18001810C21418124
:1050F00000218181704710B502460020108A4FF2CE
:10510000FF0318400B884C8823438C882343CC88AA
:1051100023431843108210BD00210180418081800B
:10512000C180704721B1828942F40052828104E03B
:1051300082894DF6FF731A4082817047F0B50346AD
:10514000002400260025002040F66A17B94200D14D
:1051500000BF1846C1F3421401F01F06012707FAE9
:1051600006F5012C01D10C3004E0022C01D11030E5
:1051700000E014301AB107682F43076002E00768A7
:10518000AF430760F0BD1AB1838A0B43838202E00C
:10519000838A8B4383827047028A4FF6F0731A40EA
:1051A0000282028A0A430282704782894FF2FF73A9
:1051B0001A40828182890A438281704721B18289A3
:1051C00042F00202828104E082894FF6FD731A40A8
:1051D00082817047028A4FF6DF731A400282028A88
:1051E0000A430282704721B1028A42F4804202825D
:1051F00004E0028A4BF6FF731A4002827047C1F343
:1052000008028280704701468888C0F30800704712
:10521000818941F0010181817047028BD2B2028302
:10522000028B42EA012202837047028B02F47F4222
:105230000283028B0A430283704721B1828A42F0C3
:105240002002828204E0828A4FF6DF731A40828253
:10525000704721B1828A42F01002828204E0828A81
:105260004FF6EF731A408282704721B1828A42F072
:105270000802828204E0828A4FF6F7731A40828223
:105280007047828A4FF6FB731A408282828A0A43F1
:105290008282704721B1828A42F00202828204E057
:1052A000828A4FF6FD731A408282704702460020C0
:1052B000B1F5007F00D100BF13880B400BB1012076
:1052C00000E00020704701F40072B2F5007F00D1C9
:1052D00000BFCA430280704770B502460024002315
:1052E0000025002040F66A16B14200D100BFC1F38C
:1052F000421501F01F03012606FA03F3012D02D126
:105300009689334006E0022D02D1168A334001E02F
:10531000968A33400C12012606FA04F416883440AB
:1053200013B10CB1012000E0002070BD10B50022C7
:10533000002340F66A14A14200D100BF0A120124E2
:105340009440A3B2DC43048010BD0000003801404B
:105350000044004000480040004C00400050004025
:1053600010B50446C448844208D101210420FFF747
:10537000DBFD00210420FFF7D7FD46E0BF48844253
:1053800008D101210820FFF7CFFD00210820FFF7F9
:10539000CBFD3AE0BA48844208D101211020FFF742
:1053A000C3FD00211020FFF7BFFD2EE0B548844269
:1053B00008D101212020FFF7B7FD00212020FFF7B1
:1053C000B3FD22E0B048844208D101214020FFF71C
:1053D000ABFD00214020FFF7A7FD16E0AB4884425B
:1053E00008D101218020FFF79FFD00218020FFF7D9
:1053F0009BFD0AE0A648844207D101218015FFF7F2
:1054000093FD0021A015FFF78FFD10BD10B5012100
:105410000846FFF789FD00210120FFF785FD10BD3B
:105420002DE9F0410246002500260020002300243B
:10543000002791F803C00CF00F0591F803C00CF0A1
:10544000100CBCF1000F03D091F802C04CEA050526
:1054500091F800C0BCF1000F31D0146800202BE09F
:105460004FF0010C0CFA00F3B1F800C00CEA03068F
:105470009E4220D183004FF00F0C0CFA03F7BC437F
:1054800005FA03FC4CEA040491F803C0BCF1280FB0
:1054900006D14FF0010C0CFA00FCC2F814C00AE06F
:1054A00091F803C0BCF1480F05D14FF0010C0CFA84
:1054B00000FCC2F810C0401C0828D1D31460B1F819
:1054C00000C0BCF1FF0F34DD546800202EE000F175
:1054D000080C4FF0010808FA0CF3B1F800C00CEA10
:1054E00003069E4221D183004FF00F0C0CFA03F704
:1054F000BC4305FA03FC4CEA040491F803C0BCF178
:10550000280F05D100F1080C08FA0CF8C2F8148035
:1055100091F803C0BCF1480F07D100F1080C4FF01F
:10552000010808FA0CF8C2F81080401C0828CED3F5
:105530005460BDE8F0814FF6FF7101800221817057
:105540000421C17070470246002093680B400BB1E4
:10555000012000E0002070470146886880B2704753
:1055600002460020D3680B400BB1012000E0002070
:1055700070470146C86880B2704701617047416159
:1055800070470AB1016100E041617047C160704736
:105590004FF480320A43826181618261826982694B
:1055A0007047024600203B4B18684FF68073184046
:1055B00040EA02100843374B186070473649C8610B
:1055C0007047F0B50A460023002400210025314E23
:1055D0007168C0F3034583B200F44016B6F5401F6E
:1055E00008D121F070612B4E766826F07066294F45
:1055F0007E6012E000F48016B6F5801F06D1032607
:1056000006FA05F4A14341F0706106E0460D36014B
:1056100003FA06F6B14341F0706122B1460D36013E
:1056200003FA06F631431B4E7160F0BD30B500221F
:105630008B071C0F0F2303FA04F2164B08338C1050
:1056400053F824309343134C08348D1044F825301C
:1056500023468C1053F824308C07240F00FA04F4EE
:1056600023430C4C08348D1044F8253030BD0A49D2
:10567000DC3108607047000000080140000C014068
:10568000001001400014014000180140001C0140BE
:1056900000200140000001400000204210B50446F7
:1056A000FA48844208D101214015FFF73DFC002152
:1056B0006015FFF739FC17E0F548844208D1012155
:1056C0000015FFF731FC00212015FFF72DFC0BE042
:1056D000F048844208D10121C803FFF725FC0021CE
:1056E0004FF40040FFF720FC10BD30B5024600200B
:1056F00000235068E84C20400D790C6844EA0524EA
:10570000204350609068E54C2040D1E902542C437E
:105710004D7944EA450420439060D06A20F470003B
:105720000C7C641EE4B2234340EA0350D06230BDD7
:1057300000210160017141718160C160012101742A
:10574000704721B1826842F00102826003E0826802
:1057500022F001028260704721B1826842F48072B7
:10576000826003E0826822F480728260704710B524
:105770000023CBB21AB144681C43446002E0446881
:105780009C43446010BD816841F00801816070470E
:10579000014600208A6802F008020AB1012000E0F8
:1057A00000207047816841F0040181607047014624
:1057B00000208A6802F004020AB1012000E0002003
:1057C000704721B1826842F4A002826003E08268DF
:1057D00022F4A00282607047014600208A6802F429
:1057E00080020AB1012000E00020704710B50A468F
:1057F00000210023416821F46041531E41EA4331F6
:10580000416010BD21B1426842F40062426003E091
:10581000426822F4006242607047F0B504460D46CB
:1058200000200021092D11DDE068A5F10A0606EB34
:105830004607072606FA07F18843A5F10A0606EB94
:10584000460603FA06F10843E0600CE0206905EB28
:105850004507072606FA07F1884305EB450603FAD4
:1058600006F108432061072A0FDA606B561E06EB2B
:1058700086071F2606FA07F18843561E06EB8606A2
:1058800005FA06F10843606322E00D2A0FDA206B67
:10589000D61F06EB86071F2606FA07F18843D61F98
:1058A00006EB860605FA06F10843206310E0E06A7D
:1058B000A2F10D0606EB86071F2606FA07F18843BC
:1058C000A2F10D0606EB860605FA06F10843E06232
:1058D000F0BD21B1826842F48012826003E08268E8
:1058E00022F48012826070470146C86C80B2704713
:1058F00066484C300068704721B1426842F48062CB
:10590000426003E0426822F480624260704721B145
:10591000426842F48052426003E0426822F48052BE
:10592000426070470A460021816821F4E04111433A
:105930008160704721B1826842F40042826003E0D6
:10594000826822F400428260704721B1826842F48A
:105950000212826003E0826822F4021282607047C1
:10596000014600208A6802F400120AB1012000E01A
:1059700000207047F0B5044615460020002200269E
:10598000092911DDE068A1F10A0707EB470C072799
:1059900007FA0CF29043A1F10A0707EB470703FA55
:1059A00007F21043E0600CE0206901EB410C07278F
:1059B00007FA0CF2904301EB410703FA07F2104398
:1059C0002061A06BC0F30156EF1C06F1010CA7EBA0
:1059D0000C0707EB870C1F2707FA0CF29043EF1C0C
:1059E00006F1010CA7EB0C0707EB870701FA07F29A
:1059F0001043A063F0BD10B50A4600210023816B5F
:105A000021F44011531E41EA0351816310BD08B5D2
:105A1000002300930090009B0B440093009B1A60AE
:105A200008BD08B5024600200090009201F1280050
:105A3000009B184400900098006880B208BD0A4698
:105A400000214168164B1940114341607047416283
:105A5000826270470A460021416821F01F0111430C
:105A60004160704740B109490831096841F40001BB
:105A7000064A0832116007E004490831096821F438
:105A80000001024A08321160704700000024014002
:105A900000280140003C0140FFFEF0FFFDF7F1FF50
:105AA000FFFD3FFF0246002013680B400BB10120B1
:105AB00000E000207047CA430260704770B502469C
:105AC0000020002300240B125568CEB205EA06041C
:105AD00015681D4015B10CB1012000E0002070BD1B
