:020000040801F1
:10000000A0EB00203D670108A91E0108AB1E0108F6
:10001000AF1E0108B31E0108B71E01080000000052
:10002000000000000000000000000000BB1E0108EE
:10003000BD1E010800000000BF1E0108C11E01080E
:1000400053670108536701085367010853670108A4
:100050005367010853670108536701085367010894
:100060005367010853670108536701085367010884
:100070005367010853670108536701085367010874
:100080005367010853670108536701085367010864
:10009000D974010853670108536701082108010852
:1000A00053670108212C01085367010853670108B1
:1000B0005367010853670108536701085367010834
:1000C0005367010853670108536701085367010824
:1000D0005367010853670108C91E010853670108E7
:1000E00053670108536701085367010800F002F8DD
:1000F00000F085F80AA090E8000C82448344AAF13D
:100100000107DA4501D100F07AF8AFF2090EBAE83A
:100110000F0013F0010F18BFFB1A43F0010318473B
:10012000F0DE010010DF010010F8013B0A4413F07B
:10013000030408BF10F8014B1D1108BF10F8015B44
:10014000641E05D010F8016B641E01F8016BF9D133
:10015000002D15D010F8014B03F00C030C2BA1EB74
:1001600004040ABF10F8013BA4EB8314A4EB03249E
:1001700005F1010314F8016B5B1E01F8016BF9D561
:10018000914238BF10F8013BD1D3704700230024BF
:1001900000250026103A28BF78C1FBD8520728BF97
:1001A00030C148BF0B607047662918F02C83642962
:1001B00014F02A80752914F02780632914F0E5874C
:1001C000732914F0EA87002070471FB59DE80300EB
:1001D00015F04AFA15F02CFA04000020002117F05F
:1001E0008DF8401C60600020002117F071F8E0607D
:1001F00015F010FD1FBD10B515F075FD10BD15F003
:10020000A5FD1146FFF7E1FF01F0C2FA16F0D0F8A4
:1002100003B4FFF7F0FF03BC07F090FAEFF3098097
:10022000704780F309887047EFF30880704780F3C8
:100230000888704740BA7047C0BA704710B50028A8
:1002400007DA0A07140EFE4A00F00F031B1FD454EE
:1002500003E00A07130EFB4A135410BD10B5044601
:10026000B4F1807F01D3012010BD24F07F40401EF7
:100270004FF0E02148610F214FF0FF30FFF7DEFF24
:1002800000204FF0E0218861072008610020EBE7A3
:1002900010B506F03CFAEC480068401CEA490860DA
:1002A0000CF0EDFB03F05AFC1E2003F0ADFD01281D
:1002B00004D1E6480068401EE4490860E44800882C
:1002C00038B94FF47A70E24908800120E14908709A
:1002D00004E0DF480088401EDD490880DE480068F1
:1002E000B0F57A7F0DD10020DB490860DB4800685B
:1002F000401CDA490860DA480068401CD8490860A8
:1003000004E0D5480068401CD3490860D348006821
:100310001E2802D10020D1490860D1480068D14987
:10032000884202D10020CE490860CF4800680528E5
:1003300005D113F0C6FE0020CB49086004E0CA488E
:100340000068401CC849086010BDC848806940F07A
:100350001000C6498861C648406840F48030C449EE
:100360004860704700E0401E0028FCDC704710B574
:100370000446C4B1BD48406800F00C00082824D0F1
:10038000BA48406820F00300B84948600846406811
:1003900040F00200486000BFB448406800F00C0024
:1003A0000828F9D111E0B148406800F00C0060B1B4
:1003B000AE48406820F00300AC49486000BFAB483D
:1003C000406800F00C000028F9D11CB1A948FFF7E3
:1003D00045FF03E04FF4FA50FFF740FF10BD08B5AA
:1003E0000121052004F0D6FA0120ADF8000010200C
:1003F0008DF8030003208DF8020069469E4804F042
:100400005FFD0220ADF8000000208DF80300694672
:10041000994804F055FD0420ADF8000028208DF81F
:1004200003006946944804F04BFD0820ADF8000035
:1004300000208DF8030069468F4804F041FD10202C
:10044000ADF800008DF8030003208DF802001021A4
:10045000894804F0E2FD6946874804F031FDE02058
:10046000ADF8000018208DF8030003208DF802007D
:100470002021814804F0D1FD80217F4804F0CDFD8A
:1004800069467D4804F01CFD4FF48070ADF8000013
:1004900048208DF803006946774804F011FD0121DA
:1004A000092004F077FA0120ADF8000048208DF80B
:1004B00003006946714804F003FD0220ADF8000016
:1004C00048208DF8030069466C4804F0F9FC2020B0
:1004D000ADF8000010208DF8030003208DF8020015
:1004E0002021664804F099FD6946644804F0E8FC60
:1004F0004020ADF8000010208DF8030003208DF897
:100500000200002240215D4804F08BFD69465B48F3
:1005100004F0D6FC8020ADF8000010208DF8030018
:1005200003208DF802008021544804F076FD6946CE
:10053000524804F0C5FC4FF48070ADF80000102064
:100540008DF8030003208DF802004FF480714B48B2
:1005500004F063FD6946494804F0B2FC4FF40070B2
:10056000ADF8000010208DF8030003208DF8020084
:100570004FF40071414804F050FD69463F4804F0D3
:100580009FFC4FF48060ADF8000048208DF8030018
:1005900069463A4804F094FC4FF40060ADF800005E
:1005A00048208DF803006946344804F089FC4FF474
:1005B0008050ADF8000010208DF8030003208DF866
:1005C000020000224FF480512C4804F02AFD6946B5
:1005D0002A4804F075FC4FF40050ADF800001820D4
:1005E0008DF8030003208DF8020000224FF4005123
:1005F000224804F016FD6946204804F061FC4FF4DF
:100600008040ADF8000018208DF8030069461B48B3
:1006100004F056FC4FF40040ADF8000048208DF87F
:1006200003006946154804F04BFC0121112004F039
:10063000B1F9FF20ADF8000010208DF803001FE095
:1006400018ED00E000E400E00400002008000020B5
:100650001E00002022000020380000203C00002066
:1006600040000020A0BB0D0044000020001002400C
:10067000001001404019010000080140000C014039
:1006800003208DF80200FF21FE4804F0C6FC6946F5
:10069000FC4804F015FC4FF48070ADF800004820D1
:1006A0008DF803006946F74804F00AFC4FF48060B7
:1006B000ADF8000010208DF8030003208DF8020033
:1006C00000224FF48061EF4804F0ABFC6946ED482E
:1006D00004F0F6FB4FF40060ADF8000014208DF834
:1006E000030003208DF802004FF40061E54804F098
:1006F00094FC6946E34804F0E3FB4FF44050ADF846
:10070000000010208DF8030003208DF802004FF444
:100710008051DC4804F083FC4FF40051D94804F0C8
:100720007EFC6946D74804F0CBFB0121212004F070
:1007300031F90420ADF8000010208DF803000320EB
:100740008DF8020000220421CF4804F06AFC6946BB
:10075000CD4804F0B5FB4FF40070ADF80000102058
:100760008DF8030003208DF802004FF40071C54896
:1007700004F053FC6946C34804F0A2FB4CF250302D
:10078000FFF7F0FD4FF48060ADF8000010208DF809
:10079000030003208DF802004FF48061B94804F093
:1007A0003CFC6946B74804F08BFB4FF40070ADF891
:1007B000000004208DF803006946B44804F080FB73
:1007C000B348806940F00100B1498861B148806850
:1007D000B0498860084680688860AF48006840F487
:1007E0000070AD490860AC480C38006840F40070F7
:1007F000A9490C3908600F211720FFF71FFD1720AA
:10080000012181404209920002F1E022C2F8001168
:1008100000BF08BD10B50BF061F80BF043F810BD38
:1008200010B50421994804F0DEFB10B99B4800780C
:1008300040B199480830006840F0020096490831FC
:10084000086020E003F050FD0120FFF790FDFFF766
:10085000E1FF002401E000BF641C91488442FAD308
:100860000122D102874804F0DCFB4FF48061854807
:1008700004F0D5FB4FF40071824804F0D0FB01E096
:1008800005F045FFFCE710BD08B526208DF80000F7
:1008900000208DF8020001208DF80300684603F067
:1008A000A2FE08BD02461004B0FBF1F07D4B1B68B0
:1008B00018447C4B186018460068B0EB024F01D317
:1008C0000020186077480068000C70472DE9FC4153
:1008D0004FF47A7425E00BF001F8012108460BF083
:1008E00026FA714A002171A00BF071FA142101203F
:1008F0000BF01DFAC4F57A7017F003F807460022D2
:100900006F4B16F0F7FD05462A460B466DA168466B
:1009100013F016FC644A002168460BF058FA0AF0FE
:10092000C1FF2000A4F10104D5D1BDE8FC8130B5A0
:10093000ADF5037D002400250AF05CFE6348FFF757
:1009400011FD08F0DCF90AF0C9FF002260A157A0F0
:100950000CF0D1F800200AF0BEFF002021237D22F8
:100960001E21009001200BF018F90AF09BFF0020D7
:100970000AF0B1FF0120212314221E2100900BF068
:100980000CF90AF08FFF05F0C2FE4FF4007103A8C6
:1009900013F098FF05F0BBFE02F00CF800200AF0FF
:1009A0009AFF002021237D221E21009001200BF0C0
:1009B000F4F80AF077FF00200AF08DFF01202123D0
:1009C0003C221E2100900BF0E8F80AF06BFF05F0C6
:1009D0009EFE0121182003F05BFA00210C2003F099
:1009E00057FA00211A2003F053FA01210F2003F0D7
:1009F0004FFA05F08CFE00200AF06DFF0020212345
:100A00007D221E21009001200BF0C7F80AF04AFF5A
:100A100000200AF060FF0120212364221E210090A3
:100A20000BF0BBF80AF03EFF05F071FE03F095FCF9
:100A300005460AF053FF002225A11CA00CF05BF82C
:100A400000200AF048FF002021237D221E21009073
:100A500001200BF0A2F80AF025FF00200AF03BFF6E
:100A6000012021237D221E2100900BF096F80AF030
:100A700019FF1848FFF776FC0AF030FF01210846FD
:100A80002AE000000010014000140140000801406D
:100A900000100240000001400C0401402C00002026
:100AA000FFFF1F008C0000202C9F0208D4EEF0EC0A
:100AB000E0F2E8F0EEE2E0EDE8E52E2E2E00000098
:100AC00000002440252E316625250000A086010067
:100AD00000000000C05C15000BF029F9FCA101A882
:100AE00013F02EFBFE4A002101A80BF070F90C2137
:100AF00001200BF01CF9FBA101A813F021FBF84A1F
:100B0000002101A80BF063F90AF0CCFE05F0FFFD0F
:100B1000F748FFF727FC0AF0E1FE19211C200BF033
:100B200006F9F44A0021F4A00BF051F90AF0BAFEDC
:100B3000EF48FFF717FC0021442005F046FD4FF475
:100B40000071F04804F06BFA01200DF5037D30BD13
:100B5000ED48806940F00100EB49886108468069F2
:100B600040F004008861E948006840F44030E749FB
:100B700008600846006820F4402008601020E3491F
:100B800010310860E148006840F44010DF49086017
:100B90000846006820F4400008600846006840F4F9
:100BA000000008600846006820F0407008600846B1
:100BB000006820F0406008600846006840F000606F
:100BC00008604020D14910310860D048006840F0EA
:100BD0004050CE4908600846006820F04040086058
:100BE0000846006840F000400860C748806940F44B
:100BF0008050C54988610020C5498880042008804C
:100C00000846008840F0100008800846008840F43C
:100C1000807008800846008840F40070088008460C
:100C2000008840F040000880704710B5FFF790FF43
:100C3000002012F0E7FF04460AF0DCFC0446012025
:100C400010BD70B50646B348006800286DD1B249A2
:100C5000B248006817F030FC28D24FF08041AF480E
:100C6000006817F029FD21D2AD480068F0B9AD4801
:100C70000078D8B90AF032FE142105200BF057F89D
:100C8000974A0021A8A00BF0A2F81E2105200BF026
:100C90004EF8934A0021A9A00BF099F80AF002FE41
:100CA00001209F490860A948FFF75CFB9D48007838
:100CB000002839D1A648006817F03AFA0446A54A38
:100CC000A54B16F08FFE2FD80AF008FE1421052040
:100CD0000BF02DF8824A0021A0A00BF078F81E211D
:100CE00005200BF024F87E4A00219FA00BF06FF83E
:100CF0000AF0D8FD9F48FFF735FB0AF0EFFD1921F8
:100D00001C200BF014F87B4A00217BA00BF05FF84D
:100D10000AF0C8FD8D48FFF725FB012080490860D7
:100D20004102784804F07BF955E001F099FD0A286A
:100D300025D801F095FD022821D979480068F0B93D
:100D400078480078D8B90AF0C9FD142105200AF0C6
:100D5000EEFF634A002174A00BF039F81E21052034
:100D60000AF0E5FF5E4A002174A00BF030F80AF0AB
:100D700099FD01206A4908607448FFF7F3FA01F011
:100D80006FFD012827D86748007820BB64480068B9
:100D900008BB0AF0A3FD142105200AF0C8FF504A41
:100DA00000216EA00BF013F81E2105200AF0BFFFF2
:100DB0004B4A00216CA00BF00AF80AF073FD6E4854
:100DC000FFF7D0FA0AF08AFD0AF06CFD4FF40071CB
:100DD0004C4804F024F970BD10B5102003F014F84D
:100DE0000446012C06D0022C0AD0042C0ED0082C6C
:100DF00014D111E0112003F007F840EA04240FE0B9
:100E0000122003F001F840EA042409E0132002F064
:100E1000FBFF40EA042403E0240201E0002400BFB9
:100E200000BF56480068A04219D0A1B20A2003F0C2
:100E30002FF8524804605248818C042003F028F8AF
:100E40004F48818D052003F023F84D48818E062000
:100E500003F01EF84A48818F072003F019F810BDEF
:100E600070B503F005FA88B303F02EF9012003F002
:100E7000D9F904462146002003F00AF8032003F0C4
:100E8000D1F90546022003F0CDF900EBC00101EBDA
:100E9000001005EB800084B22146012002F0F8FF2B
:100EA000052003F0BFF90546042003F0BBF900EB71
:100EB000C00101EB001005EB800084B22146022046
:100EC00002F0E6FF062003F0ADF95BE05FE0000012
:100ED000D4EEF0ECE0F2E8F0EEE2E0EDE8E5000060
:100EE0002C9F0208E7E0E2E5F0F8E5EDEE2E0000C9
:100EF00060E3160034AD0208C2DBCACBDED7C5CD35
:100F0000C8C5000000100140001002400008014068
:100F100000300140580000200000204178000020EF
:100F20003400002014000020C7E0F0FFE420E0EAD5
:100F3000EAF3ECF3EBFFF2EEF0E00000ECE5EDFCA1
:100F4000F8E520313025202E2E2E0000A025260089
:100F50007C000020CDCCCCCCCCCC0440C0EAEAF361
:100F6000ECF3EBFFF2EEF000F0E0E7F0FFE6E5ED8A
:100F70002E000000E0673500404B4C009000002040
:100F80000A88020804462146032002F081FF70BD52
:100F900010B500220421FE4804F043F802F04CF89A
:100FA00000210B2002F074FF082002F02DFF40F01A
:100FB00001042146082002F06BFF46F2A811F54813
:100FC00002F025F810BD10B502F090FA082002F0EA
:100FD0001BFF20F001042146082002F059FF0B20DE
:100FE00002F012FF28B9EC48B0F85C100B2002F0B8
:100FF0004FFF10BD10B50446E8480078002802DD18
:10100000E748E84908600421E74803F0ECFF10B125
:10101000E348E4490860E3480068002804DC4FF432
:101020000071E24803F0FBFF10BD2DE9FC5F1920C1
:1010300002F0EAFE064617F02BFA0546DC4917F0E7
:1010400011F9DC4908600A2002F0DEFE40F20122BC
:10105000811A904243D010DCB0F5827F27D005DCA6
:10106000A0F2011098B101286FD118E0B0F5847F8B
:1010700025D0B0F5887FF7D129E001293BD003299D
:101080004ED0072962D0B1F5007FEDD173E0CA4997
:10109000C848006817F0E6F8C649086081E0C6490C
:1010A000C448006817F0DEF8C249086079E0C24918
:1010B000C048006817F0D6F8BE49086071E0BE4924
:1010C000BC48006817F0CEF8BA49086069E0BA4930
:1010D000B848006817F0C6F8B649086061E0B7493B
:1010E000B448006817F01CFA0546B34917F0BAF87F
:1010F000B049086055E0AF48006817F019F8B04AE9
:10110000B04BCDE9000116F0A9FC07460022AE4B1A
:1011100016F0F0F9054616F007F9A649086040E018
:10112000A448006817F004F8A54AA64BCDE90001D1
:1011300016F094FC05460022A34B16F0DBF9074697
:1011400016F0F2F89B4908602BE029E09948006806
:1011500016F0EEFF05469A4A9A4B16F07FFC0022E5
:10116000994BCDE9000116F0C5F9074616F0DCF8F9
:101170009049086015E08F48006816F0D9FF0746CF
:10118000924A934B16F06AFC05460022914B16F0EA
:10119000B1F9CDE9000116F0C7F88649086000E012
:1011A00000BF00BF8C4801F0D4F9054681480168B2
:1011B000284617F0B5F981460A2002F025FE40F2D4
:1011C0000121884211D14946484617F0A9F98349BF
:1011D000019017F0A3FA834616F0AAFF074616F00F
:1011E00051F8054616F0A0F88146484617F018F960
:1011F00085B22946042002F04BFE774801F0C5F97C
:101200008246754801F0CCF90546754917F088F912
:1012100004462146504617F04FF900D2A2466548D1
:101220000168504617F07CF982460A2002F0ECFD76
:1012300040F2011188420ED14FF08141504617F023
:101240003BFA06D24FF08141504617F067FA8246CA
:1012500001E04FF0000A0A2002F0D6FDB0F5817FD0
:101260000ED14FF08141504617F026FA06D24FF0CA
:101270008141504617F052FA824601E04FF0000AD1
:101280000A2002F0C1FDB0F5827F0CD155495046CD
:1012900017F012FA05D25349504617F03FFA82462A
:1012A00001E04FF0000A0A2002F0AEFDB0F5847FA5
:1012B0000CD14D49504617F0FFF905D24A49504626
:1012C00017F02CFA824601E04FF0000A0A2002F0E3
:1012D0009BFD40F2012188420CD14449504617F051
:1012E000EBF905D24149504617F018FA824601E061
:1012F0004FF0000A0A2002F087FD40F202218842E6
:101300000ED14FF08241504617F0D6F906D24FF079
:101310008241504617F002FA824601E04FF0000A7F
:101320000A2002F071FDB0F5017F0ED14FF082412D
:10133000504617F0C1F906D24FF08241504617F0DF
:10134000EDF9824601E04FF0000A0A2002F05CFD50
:10135000B0F5027F0CD12649504617F0ADF905D201
:101360002349504617F0DAF9824601E04FF0000AAF
:101370000A2002F049FD40F20141884242D11D4954
:10138000504617F099F93BD21A49504634E0000014
:1013900000140140F00D00200A8802080806002011
:1013A000C02709000800002000080140001001408B
:1013B00000007A4424000020000040400000E44285
:1013C000D122DBF97EEA34400000084085EB51B8B9
:1013D0001EB9784000C0724050D100200000C843C0
:1013E000000080BF0000E0400000604100008C422F
:1013F000000020410000A04017F090F9824601E073
:101400004FF0000A504617F00BF885B22946052028
:1014100002F03EFDFE49484617F04EF905D2494616
:10142000504616F01FFF824601E04FF0000AF949CE
:10143000504617F075F8064616F0F2FF85B22946B9
:10144000072002F025FDF44801F0B5F80546F34801
:101450000168284617F064F882460021504617F0CC
:101460002BF801D24FF0000A0A2002F0CDFC40F226
:10147000011188420ED14FF08241504617F01CF9FD
:1014800006D24FF08241504617F048F9824601E0FB
:101490004FF0000A0A2002F0B7FCB0F5817F0ED1B0
:1014A0004FF08241504617F007F906D24FF08241C3
:1014B000504617F033F9824601E04FF0000A0A2047
:1014C00002F0A2FCB0F5827F0CD1D549504617F04E
:1014D000F3F805D2D249504617F020F9824601E0D0
:1014E0004FF0000A0A2002F08FFCB0F5847F0CD187
:1014F000CC49504617F0E0F805D2CA49504617F0DB
:101500000DF9824601E04FF0000A0A2002F07CFC4F
:1015100040F2012188420CD1C349504617F0CCF863
:1015200005D2C149504617F0F9F8824601E04FF064
:10153000000A0A2002F068FC40F2022188420CD125
:10154000BA49504617F0B8F805D2B849504617F0D6
:10155000E5F8824601E04FF0000A0A2002F054FC50
:10156000B0F5017F0CD1B149504617F0A5F805D26E
:10157000AE49504617F0D2F8824601E04FF0000A1B
:101580000A2002F041FCB0F5027F0CD1A749504679
:1015900017F092F805D2A549504617F0BFF88246D9
:1015A00001E04FF0000A0A2002F02EFC40F2014157
:1015B00088420CD19E49504617F07EF805D29C49CE
:1015C000504617F0ABF8824601E04FF0000A504653
:1015D00016F026FF85B22946062002F059FCBDE828
:1015E000FC9F70B5044665682E462068FEF71FFE16
:1015F000A4F100614FF0006003F027F8B04770BD20
:101600002DE9F84F01F05CF9824616F041FF814662
:101610004FF08B4116F026FE044616F089FD074672
:101620004FF06632834B16F019FA054615F07CFE32
:101630008149086008460168804817F06FF87E49C4
:1016400008607F497C48006816F00CFE804616F062
:101650006FFD06467B4A7C4B16F000FA044615F0F7
:1016600063FE7549086001F055F9009016F010FF0F
:1016700083464FF08B4116F0F5FD824616F058FD7B
:1016800080464FF066326B4B16F0E8F906466F4A1B
:101690006F4B16F0E3F9044615F046FE6D490860FD
:1016A0006D48006816F0DCFE05466C480168284667
:1016B00017F034F804466A4916F0D4FD6949086009
:1016C0006548006816F0CCFE64490860654801680A
:1016D0005948006816F024FF0446634916F0C2FD1D
:1016E0006249086062480068012807D1084601681D
:1016F0006048006816F048FD5E4908605C48006874
:1017000038B95A4801685B48006817F007F859492A
:1017100008601F2002F078FB18B957485749086045
:1017200002E05748554908604A48006816F000FD35
:101730000446544A544B16F055F903D80020534937
:1017400008600CE033494B48006816F0E9FE044697
:101750004A480168204616F085FD4C490860454816
:10176000006816F0E5FC0646494A4A4B15F0C2FEF1
:10177000804615F0E3FC044616F050F81FFA80FA94
:101780005146282004F021FF3A480068BDE8F88F50
:1017900094B000BF0024A24600BF00203E4908705C
:1017A000FEF71DFE3D48FEF7DDFD3C48FEF7DAFD85
:1017B0003A48FEF7D7FD01229102394803F031FC87
:1017C0003648FEF7CFFD3548FEF7CCFD3348FEF72F
:1017D000C9FD02F0D7FE0120FEF7C9FD00F00AFFA7
:1017E0000AF093F801202F49086002F02BFC28B979
:1017F0002D48006840F001002B490860FFF715FAFA
:1018000020B92948006840F004004FE050E0000093
:101810000000A0400000C84250D100202400002059
:10182000000060410000F041000002430000A041C0
:101830000000204166660A40600000203333D33F39
:10184000A4709D407B14AE47E17AF03FE17A14AE7C
:1018500047E100407C0000200400002068000020D8
:1018600000007A4464000020000061456C00002004
:101870005C000020700000209A99193F840000202D
:101880009A99993FCDCCCCCCCCCC044078000020A8
:1018900025D910F84533F33E14000020A08601003E
:1018A00000100140300000200C000020FE490860BC
:1018B00001A807F02AFA302201A9FC4812F0A6FF7D
:1018C00005F0A8FC02F089FB28B9F748006840F051
:1018D0000200F54908600020F34908600AF0A1FA07
:1018E00009F0E0FF142001F08DF80BF03CF9002026
:1018F000FEF73DFD012002F070FA30B9022002F03F
:101900006CFA10B980200BF02BF9192002F07CFA48
:10191000064616F0BDFD0546E54916F0A3FCE5496F
:101920000860E549E348006816F09CFCE14908605E
:101930000C2004F056FEE1490880442004F051FEDA
:10194000DF4908604FF40041DE4803F04CFBDE49FC
:101950000860282004F045FE0C9016F099FD83469F
:1019600016F0E6FB0746D94AD94B16F077F805463C
:1019700015F0DAFCD74908601F2002F045FA18B9C3
:10198000D548D649086002E0D548D4490860D54911
:10199000D048006816F0C4FD0546D04801682846C6
:1019A00016F060FCD0490860C748006830B90846A6
:1019B000006816F019FDCD49086003E000F050FF03
:1019C000CA4908604FF40041BE4803F00CFB0128EF
:1019D0000CD10820C64908801020C8700821C548CD
:1019E00003F01DFBC249C34803F06AFA50E2C24843
:1019F000007850B3B1480088B0F5616F18D10E205F
:101A000002F002FAAD490880084600884FF6E85116
:101A1000884209DAA9480088401C80B2A74A108091
:101A200001460E2002F034FA0020A449088004E0A8
:101A3000A2480088401CA14908800020AE490870D7
:101A40009E4801880C2004F0C0FD45F2555004F07A
:101A500055FE062004F055FE4FF4806004F054FE5D
:101A600004F05AFEFFF7CCFDA4480078A4490860B2
:101A70000421A04803F0B7FAA249096888427DD042
:101A800004219C4803F0AFFA9E49086008460068AC
:101A900080B1FFF798FA00209B49087002F024FCFF
:101AA0009A48FEF75FFC0120FEF761FC0020984990
:101AB00008709CE001209649087000209549087044
:101AC00009F00CFF012108460AF031F9924A002181
:101AD00092A00AF07CF909F0E5FE4FF0000972B619
:101AE00071B6012291A1924810F088F84FF0000AD7
:101AF00010E000231A468FA10DA8CDF800A012F027
:101B00001FFB93490DA810F076FD08B909F10109F2
:101B10000AF1010ABAF1FF0FEBD904F0F8FD0A222D
:101B20008CA18F4810F095F800228EA10DA812F01C
:101B300007FB0DA98A4811F042FD89490A2011F0DE
:101B4000F9FC012414E0224689A10DA812F0F8FA4C
:101B50007F490DA810F04FFD38B90DA9804811F04C
:101B60002EFD7F490A2011F0E5FC04F0D0FD641C35
:101B7000FF2CE8D37A4810F03CFB00E049E000225B
:101B80000DA969A011F048F87CA10DA812F0ECFE97
:101B900010B17AA011F09FF8002264A1104610F055
:101BA0002DF862B661B67748C0F8009009F10100DF
:101BB00081B20F2002F06CF90024A24672A173A03A
:101BC00012F04FFD40B14FF00060FFF70AFD00201A
:101BD00072490860724908600020FEF7C8FB4B4854
:101BE000FEF7C0FB02F054FB00200EF013FA36485B
:101BF000006810B94448007838B100F031FE3B4924
:101C0000086000F02DFE674908603E48006805F056
:101C10000FFB3C480068002843D10120624908605E
:101C200000203B4908704FF48051604803F0F7F9F9
:101C30004FF400515D4803F0F2F93348007810B9D1
:101C40000020FEF7FEFF3048007830B9042002F093
:101C5000B0F810B901202C4908702B4800780128F1
:101C60000ED1802002F0A5F850B902202649087054
:101C70004F48007820B90120FEF779FBFFF788F97B
:101C800021480078022806D1042002F092F810B909
:101C900003201D4908701C480078032802D18020C9
:101CA00088E0D7E08CE000000C000020E40B00206E
:101CB00000007A4424000020000096432000002009
:101CC000D0060020000C01405800002025D910F853
:101CD0004533F33E700000209A99193F840000209C
:101CE0009A99993F0000C8427800002048000020DF
:101CF0008800002000080140220000204A06002041
:101D0000500000201000002014000020400D0300AF
:101D10002C000020150000202C9F0208CFEEE4EEDE
:101D2000E6E4E8F2E52E2E2E00000000303A000036
:101D30006C0700204D3A5C253033752E2530337505
:101D40005C5369676E616C2025642E6461740000C9
:101D5000C40B0020526F6164732E7478740000000D
:101D6000A0090020526F61642E25303175202000BB
:101D7000526F61642E2530337500000050494F4E7C
:101D80002D33000018000020726200004D3A5C7094
:101D9000726F67312E62696E00000000C806002075
:101DA000D40600204C0000205C0000200010014000
:101DB000A006002001F0FDFF10B900203549087091
:101DC0003448007840B9FFF7FEF801F0ABFB00B9EA
:101DD000641C0020FEF7CBFA082002F015F800F092
:101DE000010000280FDD0A2002F00EF8B0F5006FA8
:101DF00007D101F09FFB054629460B2002F048F869
:101E000001E0FFF712F924480078002809DD0820D6
:101E100001F0FAFF40F008052946082002F038F8E2
:101E200008E0082001F0F0FF20F00805294608200E
:101E300002F02EF80020184908700EF086FB30B131
:101E40001E2001F0E1FF012801D1FFF7D3F8FEF7D2
:101E5000C3FF1DE01E2001F0D7FF012801D1FFF7CD
:101E6000C9F80E48007880B90D48FEF77BFA0B4898
:101E7000007818B902200EF0CDF809E001200EF02C
:101E8000C9F800200749086002E001200EF0C2F8FE
:101E9000ADE5000014000020D40000204B06002017
:101EA000809698005C000020704700BFFEE700BFEE
:101EB000FEE700BFFEE700BFFEE7704770477047D0
:101EC00010B5FEF7E5F910BD10B540F225510F48E9
:101ED00002F052FF48B10D4802F0E5FE0C490870CF
:101EE00008460178094802F0DAFE40F22661074808
:101EF00002F042FF40B14021044802F034FF0448A0
:101F00000078401E0249087010BD000000440040E7
:101F1000940000202DE9F04106460F461446F9488A
:101F20000078012802D10020BDE8F081022C00DCFD
:101F30000CB90020F8E7F34801780078401CF14A1A
:101F4000107001EB810000EBC100EF4901EB80054F
:101F50002C704FF0000800BF002105F11C0040F874
:101F600024100C3040F8241056F82410281D40F896
:101F7000241057F824100C3040F8241034B1281DD8
:101F800050F82410404616F0FFF8804605F1100086
:101F900050F82410404616F0F7F88046201EA4F1B1
:101FA0000101CCB2D8DC2846BEE72DE9F047044653
:101FB0000D460026E1692162A16AE162E561A1683E
:101FC000E06A16F0ADFA80466169206A16F0A8FA58
:101FD00081462169E06916F0A3FA8246494616F067
:101FE000D3F80746414616F0CFF80646A662A06A27
:101FF000BDE8F0872DE9F84F04460D460026216A1A
:102000006162E16A2163E1692162A16AE162E561DD
:10201000E168206B16F084FA8146A168E06A16F048
:102020007FFA8246494616F0AFF80746A169606A12
:1020300016F076FA00906169206A16F071FA82460D
:102040002169E06916F06CFA8346514616F09CF857
:102050008146009916F098F88046394616F094F8B3
:102060000646A662A06ABDE8F88F2DE9BF4F8246FA
:102070008B461446A5480078062803D1002004B0FA
:10208000BDE8B08F022C00DC0CB90020F7E79F48B8
:1020900001780078401C9D4A107001EB810000EB34
:1020A000C1009B4901EB800989F80040002500BF71
:1020B000002109F11C0040F824100C3040F82410D5
:1020C0000AEBC40000224FF08043D0E9007138468B
:1020D00015F088FC21D20AEBC40000224FF04043E7
:1020E000D0E90071384615F0B7FD16D20AEBC400EE
:1020F0000022884BD0E90071384615F0AFFC002271
:10210000854BCDE9000115F0A9FCCDE9020115F0E0
:102110009CF809F1040141F824000BEBC4000022F3
:102120004FF08043D0E90071384615F05BFC21D2B6
:102130000BEBC40000224FF04043D0E90071384659
:1021400015F08AFD16D20BEBC401D1E90071002213
:10215000704B384615F082FC00226F4BCDE9000130
:1021600015F07CFCCDE9020115F06FF809F11001C2
:1021700041F8240024B109F1040050F82400451965
:1021800009F1100050F824004519201EA4F10101A6
:10219000CCB28DDC484672E70146002009E00023FE
:1021A00001F11C0242F820300C3242F82030421C6F
:1021B000D0B20328F3DB70472DE9FC5F0646894661
:1021C0001546002434E006EBC4000022514BD0E950
:1021D0000071384615F042FC00224F4BCDE900015A
:1021E00015F03CFC824615F030F8291D41F824001A
:1021F00009EBC4000022474BD0E90071384615F0C6
:102200002DFC82460022444B15F028FCCDE900014C
:1022100015F01BF805F1100141F82400002105F12B
:102220001C0040F824100C3040F82410601CC4B28C
:102230002878401CA042C6DCBDE8FC9F2DE9F04395
:10224000024600BF156A5562D56A1563D5691562E5
:10225000956AD562D1611569D06980FB0550176A0E
:10226000566987FB0667AD197841576A966987FBFF
:102270000667AE197841D76A956887FB0597D2F84B
:102280000CC0D2F8308088FB0CC83D4619EB0C0717
:1022900045EB0805F31940EB05044FF000569E1975
:1022A00044F10000850045EA96709062906ABDE8AE
:1022B000F083F0B5024600BFD5691562956AD56214
:1022C000D1611569D06980FB0550176A566987FB93
:1022D0000667AD197841D76A966887FB0667AB1920
:1022E00040EB07044FF00057DE1944F10000850071
:1022F00045EA96709062094D906AA84210DD284622
:10230000F0BD000095000020840C00209600002005
:10231000B80C00200000F0400000D0400080FF3FDB
:10232000906AB0F1404F02DA4FF04040E8E7906A1F
:10233000E6E72DE9F043024600BF156A5562D56A0B
:102340001563D5691562956AD562D1611569D06941
:1023500080FB0550176A566987FB0676ED197041B8
:10236000576A966987FB0667AE197841D76A956800
:1023700087FB05C5D2F83080D76888FB0787B94648
:102380001CEB080745EB0905F31940EB05044FF07A
:1023900000569E1944F10000850045EA967090624F
:1023A0008F4D906AA84202DD2846BDE8F083906A0E
:1023B000B0F1404F02DA4FF04040F6E7906AF4E7A0
:1023C0002DE9F047034600BF1E6A5E62DE6A1E63A7
:1023D000DE691E629E6ADE62DA611E69D86980FB70
:1023E0000670D3F820C05E698CFB06C6B04617EBBA
:1023F0000C0640EB0800D3F824C09F698CFB077CD7
:10240000F71940EB0C00D3F82CC09E688CFB0686B5
:10241000D3F80CC0D3F8309089FB0C9CE24618EB43
:10242000090C46EB0A0617EB0C0440EB06054FF0CF
:10243000005C14EB0C0745F10000860046EA97703B
:10244000986200BF0E6A4E62CE6A0E63CE690E625B
:102450008E6ACE62986AC8610E69C86980FB067090
:10246000D1F820C04E698CFB06C6B04617EB0C06AF
:1024700040EB0800D1F824C08F698CFB077CF7196A
:1024800040EB0C00D1F82CC08E688CFB0686D1F88E
:102490000CC0D1F8309089FB0C9C18EB090846EB76
:1024A0000C0617EB080440EB06054FF00056A61982
:1024B00045F10000870047EA96708862484E886AB6
:1024C000B04202DD3046BDE8F087886AB0F1404F87
:1024D00002DA4FF04040F6E7886AF4E741810023D2
:1024E000036043600022C26002618261C2610281B6
:1024F00080F8282002624262704730B5C2688A4282
:1025000000DAC16002698A4200DD016101F58042A2
:10251000D11381FB0153D0E9004264195A41C0E94B
:1025200000420289521C0281028943899A420FDBD0
:10253000D0E90023C0E90623C26802620269426250
:102540000022C260026102604260028180F828209D
:1025500030BD2DE9FC478046B8F80A0015F0E8F9CF
:1025600004460D46D8E90621104615F0F5F9064651
:1025700022462B4614F0BEFF814614F083FECDE9BF
:10258000000114F0D1FEBDE8FC8770B50446206A56
:1025900015F066FF05464FF08E4115F063FE70BDE5
:1025A00070B50446606A15F05BFF05464FF08E413A
:1025B00015F058FE70BD70B504462046FFF7F0FFD9
:1025C00005462046FFF7E1FF0646294616F0A6F825
:1025D00070BD014691F8280000F00100704700002E
:1025E0000080FF3F10B5044621464FF4007002F012
:1025F000D1F910BD00B585B0012140F2012002F0F3
:10260000C9F9002000908DF804008DF805004FF402
:10261000602002900020039001208DF81000694690
:10262000D14802F0B2FD072301220321CE4802F077
:1026300044FE0121CC4802F0D4FDCB4802F0F3FD6A
:1026400000BFC94802F0F4FD0028FAD1C64802F0E4
:10265000F9FD00BFC44802F0FAFD0028FAD10120BC
:1026600002F050FF0021C04802F0BBFD05B000BDE4
:102670002DE9F04100240025002780260120FFF7E6
:10268000B1FF0121B84802F0ACFD0723012211215E
:10269000B54802F012FE00BF0EE00121B24802F080
:1026A000E0FD00BF0221B04802F04CFF0028F9D045
:1026B000AD4802F069FE05443000A6F10101CEB23A
:1026C000EBD1ED094FF49600B0FBF5F7072301229B
:1026D0001146A54802F0F1FD80260EE00121A24836
:1026E00002F0BFFD00BF02219F4802F02BFF00282F
:1026F000F9D09D4802F048FE04443000A6F10101E3
:10270000CEB2EBD10021984802F06BFD0020FFF71C
:1027100069FFE40904FB07F04FF4006101EB40009E
:1027200040F6FF71B0FBF1F42046BDE8F08110B532
:10273000FFF79EFF044641F23600844201D964242B
:102740000DE040F61C40844201D2002407E0A4F6CC
:102750001C446420604340F21A41B0FBF1F483480A
:10276000008864280CD1824800686421B0FBF1F035
:102770008049087000207E4908607C49088004E098
:102780007B48006820447A49086078480088401CEB
:102790007649088077480078FA2801D175490C708D
:1027A0007448007810BD2DE9F04100240025002771
:1027B00080260120FFF716FF01216B4802F011FD72
:1027C000072301221121684802F077FD00BF0EE0C7
:1027D0000121654802F045FD00BF0221624802F078
:1027E000B1FE0028F9D0604802F0CEFD054430006B
:1027F000A6F10101CEB2EBD1ED095F48B0FBF5F7D0
:10280000072301221146584802F057FD80260EE0AA
:102810000121554802F025FD00BF0221524802F077
:1028200091FE0028F9D0504802F0AEFD044430007B
:10283000A6F10101CEB2EBD100214B4802F0D1FC50
:102840000020FFF7CFFEE40904FB07F040F6CA01C1
:1028500001EB40004900B0FBF1F42046BDE8F081F7
:1028600010B5FFF7A0FF0446B4F5616F01D96424E9
:102870000CE0B4F5486F01D2002407E0A4F54864E9
:10288000642060434FF4C871B0FBF1F4204610BDE2
:1028900010B5FFF788FF0446B4F57A6F01D96424B8
:1028A0000CE0B4F5486F01D2002407E0A4F54864B9
:1028B000642060434FF44871B0FBF1F4204610BD32
:1028C00070B50026002480250120FFF78BFE012132
:1028D000254802F086FC072301220321224802F04A
:1028E000ECFC00BF0EE001211F4802F0BAFC00BF63
:1028F00002211D4802F026FE0028F9D01A4802F0F5
:1029000043FD04442800A5F10101CDB2EBD1E40957
:10291000204670BD70B50026002480250120FFF7F9
:1029200061FE0121104802F05CFC072301221146E0
:102930000D4802F0C2FC00BF0EE001210A4802F07F
:1029400090FC00BF0221084802F0FCFD0028F9D0ED
:10295000054802F019FD04442800A5F10101CDB29B
:10296000EBD1E409204670BD00240140A000002006
:102970009C00002098000020C0655200704770B590
:1029800004460D461646012322462946002011F032
:1029900034FA012070BD70B504460D461646012379
:1029A00022462946002011F0E4F9012070BD0146BD
:1029B0000120704710B572B671B603F0A8FE01226F
:1029C0000CA10D480FF01AF90022114609A010F0D1
:1029D00043FA03F09CFE09A010F07DF903F097FE86
:1029E000002204A110460FF009F962B661B6012079
:1029F00010BD0000303A00006C07002050494F4ED7
:102A00002D33000010B58AB004460121C80201F040
:102A1000C1FF012C04DD601E80B2ADF8200002E091
:102A20000120ADF820004720ADF81C000020ADF8D3
:102A30002200ADF81E008DF8240007A9FE4803F01F
:102A400031F80121FC4803F093FD19208DF818009E
:102A500000208DF819008DF81A0001208DF81B0058
:102A600006A801F0C0FD0121880301F0A0FF0020AD
:102A7000ADF804004FF48270ADF806000020ADF808
:102A800008000220ADF80A000120ADF80C00400259
:102A9000ADF80E000020ADF81000ADF812000720D0
:102AA000ADF8140001A9E54802F03AFE0222E4491B
:102AB00001F11800FFF7D9FAE24908600222E24961
:102AC00001F11800FFF7D1FAE04908600222E0495D
:102AD00001F11800FFF7C9FADE4908600222DE4959
:102AE00001F11800FFF7C1FADC4908600222DC4955
:102AF00001F11800FFF7B9FADA4908600222D84953
:102B000001F11800FFF7B1FAD74908600AB010BD0B
:102B100010B500244FF48050D44908600860086064
:102B20000860086008600860086008600860086065
:102B30000860086008600860086008600860086055
:102B40000860086008600860086008600860086045
:102B50000860086008600860086008600860086035
:102B60000860086008600860086008600860086025
:102B70000860086008600860086008600860086015
:102B8000086008600860086008600860FF21AB48C2
:102B900002F09CFE00BFA9480830008800F0020047
:102BA0000028F8D0FF21A54802F090FE00BFA348FE
:102BB0000830008800F001000028F8D09F4802F09B
:102BC00087FE044600BF9D480830008800F00200E0
:102BD0000028F8D0FF21994802F078FE00BF9748FE
:102BE0000830008800F001000028F8D0934802F077
:102BF0006FFE40EA042400BF90480830008800F0CF
:102C000001000028F8D08D4802F062FE40EA04245A
:102C10004FF480509549091F0860A408A0B210BD68
:102C200070B54FF40061924802F0F7F9192001F0F5
:102C3000EBF8054615F02CFC04468E4915F012FB06
:102C40008D49086001217C4803F092FCFFF760FF8A
:102C5000A0F5004089490860084601688848007866
:102C6000884A12781040884A42F820108448007838
:102C7000401C83490870084600788249097808405A
:102C800000286ED17F480078012808D110460068DE
:102C90001146496808444010784908600DE07A48B8
:102CA0000068794949680844774989680844764941
:102CB000C96808448010714908607048006847F688
:102CC000F461884204DC6D4800684942884205DAB4
:102CD0006E48006810B901206D49087067480068A7
:102CE000C003664908606B48008840F20122811ADF
:102CF000904276D010DCB0F5827F48D005DCA0F29F
:102D00000110C8B101286DD12CE0B0F5847F53D0FB
:102D1000B0F5887FF7D166E007296FD004DC012980
:102D20006DD00329EFD1D5E0B1F5007F68D0A1F2D5
:102D3000FF510029E7D122E1504802684348016869
:102D400040480068FFF73CFB4C49086008460268B1
:102D5000424801683F480068FFF732FB4749086076
:102D600019E14DE145480268384801683548006876
:102D7000FFF726FB414908600846026837480168AA
:102D800034480068FFF71CFB3C49086003E13B48FE
:102D900002682E4801682B480068FFF711FB37498D
:102DA0000860084602682D4801682A480068FFF755
:102DB00007FB32490860EEE03048026823480168AA
:102DC00020480068FFF7FCFA2C49086008460268B2
:102DD000224801681F480068FFF7F2FA2749086097
:102DE000D9E00EE0D6E0254802681C480168194881
:102DF0000068FFF7E5FA21490860CCE085E04EE085
:102E00009EE01E480268114801680E480068FFF7FE
:102E1000D7FA1A4908600846016812480068FFF7A7
:102E200088FA16490860084602680C480168094893
:102E30000068FFF7C5FA2FE0002C01400038004081
:102E400040010020F005002070010020F405002062
:102E5000C0020020F8050020F0020020FC05002040
:102E6000A00400200006002004060020140C0140ED
:102E70000008014000007A44D8000020C40000206F
:102E8000DC000020DD00002040D10020CC0000202C
:102E9000D4000020C8000020FE4908607BE0FD4807
:102EA0000268FD480168FD480068FFF789FAF949A2
:102EB000086008460168FA480068FFF73AFAF549E1
:102EC000086008460168F7480068FFF7F2F9F14921
:102ED000086060E0EF480268EF480168EF4800686A
:102EE000FFF76EFAEB49086008460168EC48006895
:102EF000FFF71FFAE749086008460168E9480068DB
:102F0000FFF7D7F9E349086045E0E2480268E24884
:102F10000168E2480068FFF753FADE490860084696
:102F20000168DF480068FFF704FADA4908600846DC
:102F30000168DC480068FFF7BCF9D64908602AE060
:102F4000D4480268D4480168D4480068FFF738FACA
:102F5000D049086008460268D3480168D148006833
:102F6000FFF72EFACB49086008460268CF4801688F
:102F7000CB480068FFF724FAC64908600BE0C54853
:102F80000268C9480168C7480068FFF719FAC149D3
:102F9000086000E000BF00BFC548006828B1C44811
:102FA0000068401EC249086070BDBA480168C14847
:102FB000FFF7A3FAC0480088002821DDBE4800883A
:102FC000401EBD490880B348006815F049FA05461F
:102FD000BA480168284615F0A3FA044615F004FA29
:102FE000B74908600846006800F58040C01300B289
:102FF000B44909680880B3480068801CB14908607A
:103000004FF40061B04802F00AF800BFCCE700229C
:10301000A94B1A80AB4A1060AC4A118002E0002232
:1030200020F811200A00A1F1010399B2F7D1A74AB3
:103030001288A14B1A80704710B500209E49088065
:1030400001221103A24801F0ECFF0020A149086011
:1030500048608860C860A049087046F2A81094498A
:1030600008600A2000F0D0FE9C4908808B48006868
:10307000FFF792F888480068FFF78EF889480068E3
:10308000FFF78AF888480068FFF786F884480068E8
:10309000FFF782F885480068FFF77EF88F480088C0
:1030A00040F20122811A90427DD010DCB0F5827F7F
:1030B00067D005DCA0F20110C8B1012874D13BE053
:1030C000B0F5847F71D0B0F5887FF7D1AAE00729E9
:1030D0006CD004DC01296AD00329EFD15EE1B1F59F
:1030E000007F65D0A1F2FF510029E7D1D3E16B4801
:1030F0007B49026801F11800FFF75EF866487949DC
:10310000026801F11800FFF757F86648764902682F
:1031100001F11800FFF750F863487449026801F1A3
:103120001800FFF749F803207149087046F2A8110A
:103130006048FFF7D3F9CAE158486E49026801F1C7
:103140001800FFF739F854486B49026801F118007C
:10315000FFF732F853486949026801F11800FFF798
:103160002BF851486649026801F11800FFF724F86E
:1031700001205F49087046F2A8114E48FFF7AEF9EA
:10318000A5E146485F49026801F11800FFF714F80D
:1031900041485D49026801F11800FFF70DF8414808
:1031A0005649026805E062E090E116E01BE1D0E0DC
:1031B0003EE101F11800FEF7FFFF3B48504902686D
:1031C00001F11800FEF7F8FF01204949087046F2A6
:1031D000A8113848FFF782F979E130484B49026875
:1031E00001F11800FEF7E8FF2B484949026801F198
:1031F0001800FEF7E1FF2B484049026801F1180072
:10320000FEF7DAFF28483E49026801F11800FEF790
:10321000D3FF01203649087046F2A8112548FFF770
:103220005DF954E11D483B49026801F11800FEF7C1
:10323000C3FF19483849026801F11800FEF7BCFFC6
:1032400018482E49026801F11800FEF7B5FF16482C
:103250002B49026801F11800FEF7AEFF0120244956
:10326000087046F2A8111348FFF738F92FE10B4810
:103270001B49026801F11800FEF79EFF0648194934
:10328000026801F11800FEF797FF06481649026828
:1032900044E00000C4000020F4050020F0050020F8
:1032A00000060020F8050020FC0500200406002090
:1032B000CC00002050D10020C0000020D800002009
:1032C000D0000020BC00002000080140C200002007
:1032D000000C014040D10020DC000020C80000208C
:1032E000B0030020E0030020C0020020F002002014
:1032F000DD0000204001002070010020200300209C
:1033000050030020A0010020D00100200002002076
:1033100030020020600200209002002001F118001D
:10332000FEF74AFFFD48FE49026801F11800FEF76A
:1033300043FFFC48FC49026801F11800FEF73CFF1E
:103340000320FA49087046F2A811F948FFF7C6F8B9
:10335000BDE0F848F849026801F11800FEF72CFFBB
:10336000F648F749026801F11800FEF725FFF54815
:10337000F549026801F11800FEF71EFFE948F3491C
:10338000026801F11800FEF717FF0120E7490870F5
:1033900046F2A811E648FFF7A1F898E0E548EC49A5
:1033A000026801F11800FEF707FFE448E9490268E6
:1033B00001F11800FEF700FFE248E349026801F15D
:1033C0001800FEF7F9FED748E049026801F118003D
:1033D000FEF7F2FE0120D549087046F2A811D44844
:1033E000FFF77CF873E0D348DB49026801F118006D
:1033F000FEF7E2FED148D949026801F11800FEF754
:10340000DBFED048D049026801F11800FEF7D4FE77
:10341000C448CE49026801F11800FEF7CDFE012034
:10342000C249087046F2A811C148FFF757F84EE0AC
:10343000C048CB49026801F11800FEF7BDFEBF4845
:10344000C849026801F11800FEF7B6FEBD48C6493A
:10345000026801F11800FEF7AFFEB048C3490268E8
:1034600001F11800FEF7A8FEAE48C149026801F15B
:103470001800FEF7A1FEBF48BF49026801F118001D
:10348000FEF79AFE0320A949087046F2A811A84841
:10349000FFF724F81BE0AB48B849026801F11800B7
:1034A000FEF78AFE9D489E49026801F11800FEF76A
:1034B00083FE01209D4908704FF22440B049086006
:1034C00046F2A8119A48FFF709F800BF00BF00BFF5
:1034D0000121AC4802F0C9F90121AB4802F06EFDB0
:1034E00001221146A84802F084FD10BD10B500204D
:1034F000A649087000220121A34802F07AFD0021AC
:10350000A14802F05BFD01219F4803F031F8002142
:103510009C4802F0AAF900224FF480519C4801F027
:1035200080FD10BD9B480088002801DD0120704708
:103530000020FCE79848008800280CDD96480088A9
:1035400094490988401A6421484393490988B0FB8B
:10355000F1F0C0B270470020FCE700B500BFFFF7F4
:10356000E1FF0128FBD000BD2DE9F74F86B0894669
:1035700092460120FCF7FBFE45F6C0516C48FEF771
:10358000ADFF86A1069811F06CF88346BBF1000FE1
:103590007DD000220421584610F098FF0DE0BDF9BF
:1035A00010004FF48041C1EBC0344FF4967094FB8F
:1035B000F0F529465E48FEF7A0FF5B460122022196
:1035C00004A812F04DFE0128E9D05948FEF7DDFFAE
:1035D000734908600868734914F0A2FF054614F0A7
:1035E0001FFFA9F800006E4908686E4914F098FFA3
:1035F000054614F015FF80B2ADF80C00002204213E
:10360000584610F063FF45F6C0514948FEF766FF83
:1036100048485149026801F11800FEF7CDFD4748BE
:103620004E49026801F11800FEF7C6FD45484649BB
:10363000026801F11800FEF7BFFD3A4843490268ED
:1036400001F11800FEF7B8FD31E0BDF910004FF4AC
:103650008041C1EBC03422463848016835480068D3
:10366000FEF7AEFE044621462E480068FEF761FED6
:103670000446214633480068FEF71BFE04462046F8
:1036800014F03FF9484A494BCDE9000100E033E02E
:1036900014F0E4F907460022454B13F02BFF0546D2
:1036A00014F0BCF8014602902148FEF726FF5B4665
:1036B0000122022104A812F0D3FD0128C5D01C4824
:1036C000FEF747FF364948604868364914F028FF3E
:1036D000054614F0A5FEAAF80000314948683149B2
:1036E00014F01EFF054614F09BFE80B2ADF80E00EC
:1036F000584610F0DDFF04E00020A9F80000AAF809
:1037000000004FF4FA70A9F8000041F2F450AAF852
:10371000000003A809B0BDE8F08F0000FC05002000
:10372000F002002000060020A0040020DD000020A0
:1037300050D10020F005002040010020F4050020B9
:1037400070010020F8050020800300200005002003
:10375000A0010020D0010020000200203002002043
:10376000E00000201001002090050020C00500208E
:10377000300500200406002060050020C002002063
:10378000CC00002000380040002C0140D400002074
:10379000000C0140C0000020C200002072000000A8
:1037A00080D100200000C842D122DBF97EEA3440FB
:1037B00000C07240F8B506460120FCF7D8FD46F27D
:1037C000A811CA48FEF78AFEAFF23001304610F069
:1037D00048FF0446002C59D000220421204610F056
:1037E00075FEC348C349026801F11800FEF7E4FC06
:1037F000C148C249026801F11800FEF7DDFCC0486B
:10380000C049026801F11800FEF7D6FCBE48BF4966
:10381000026801F11800FEF7CFFC1DE0BDF90000C1
:103820004FF48041C1EBC0352A46B3480168B04827
:103830000068FEF7C5FD05462A46B3480168B04852
:103840000068FEF7BDFD05464FF4967095FBF0F756
:103850003946A648FEF751FE23460122022168465A
:1038600012F0FEFC0128D9D0A048FEF772FEA8494C
:103870000860204610F01CFFA5490868A54914F00F
:103880004FFE074614F0CCFD80B2F8BD0020FCE7E7
:103890002DE9F14F82B00120FCF769FD45F6C051DA
:1038A0009248FEF71BFEAFF20C11029810F0D9FE01
:1038B0008346BBF1000F71D000220421584610F05E
:1038C00005FE46F2A8118948FEF708FE8848894996
:1038D000026801F11800FEF76FFC8748874902680B
:1038E00001F11800FEF768FC85488B49026801F178
:1038F0001800FEF761FC89488949026801F1180047
:10390000FEF75AFC2EE0BDF904004FF48041C1EBF4
:10391000C03A52467848016875480068FEF750FD85
:10392000824651467D480068FEF703FD82465146B7
:1039300073480068FEF7BDFC8246504613F0E1FF75
:103940000646784A784B14F089F804460022774BF3
:1039500013F0D0FD804613F061FF014600906348EC
:10396000FEF7CBFD5B460122022101A812F078FC94
:103970000128C8D05D48FEF7ECFD6D494860584607
:1039800010F096FE6A494868624914F0C9FD044681
:1039900014F046FD80B2BDE8FE8FFFE70020FAE795
:1039A0002DE9F14F84B00120FCF7E1FC41F28831B0
:1039B0004E48FEF793FDAFF21C21049810F051FE23
:1039C0008246BAF1000F7DD000220421504610F04B
:1039D0007DFD47485749026801F11800FEF7ECFBEE
:1039E00045485549026801F11800FEF7E5FB4448D7
:1039F0005249026801F11800FEF7DEFB42485049C7
:103A0000026801F11800FEF7D7FB44484D490268EF
:103A100001F11800FEF7D0FB4B484C49026801F158
:103A20001800FEF7C9FB40E0BDF90810BDF90A20F7
:103A3000881800EBD071491009B2ADF80810BDF933
:103A400008004FF48041C1EBC03B5A462A48016848
:103A500027480068FEF7B4FC83465A462A480168A6
:103A600027480068FEF7ACFC83465A463648016892
:103A70002A480068FEF7A4FC8346584614F0F0FC80
:103A8000009014F055FB0646314A324B13F0E6FF26
:103A900004460022254B13F02DFD804613F0BEFE98
:103AA000014601901148FEF728FD534602221146B7
:103AB00002A812F0D5FB0228B6D00C48FEF749FD4B
:103AC000254900E00FE04860504610F0F1FD224922
:103AD0004868104914F024FD044614F0A1FC80B29B
:103AE00005B0BDE8F08F0020FAE7000050D10020BB
:103AF000F005002000020020F40500203002002024
:103B0000F805002020030020FC05002050030020C1
:103B10008CD100200000C842800300200006002055
:103B200000050020D122DBF97EEA344000C072405B
:103B300098D10020E0000020100100209005002016
:103B4000C00500203005002004060020600500208C
:103B500085EB51B81EB97840A4D1002010B54FF4C0
:103B60000061A34801F03FFA30B9A248007840F064
:103B70000100A049087005E09E48007820F001008F
:103B80009C4908704FF480719B4801F02CFA30B9C1
:103B90009848007840F002009649087005E0954882
:103BA000007820F00200934908700121904801F04C
:103BB0001AFA30B98F48007840F004008D49087037
:103BC00005E08C48007820F004008A4908704FF422
:103BD0008061874801F007FA30B98648007840F0E4
:103BE00008008449087005E08248007820F0080049
:103BF0008049087002217E4801F0F5F930B97D480E
:103C0000007840F010007B49087005E079480078A2
:103C100020F01000774908707648007877490978D5
:103C200088427DD076480078002879D173480078A2
:103C300000F0010050B96F48007800F0010028B191
:103C40007048006840F001006E4908606B480078D9
:103C500000F0020002280BD06648007800F0020055
:103C6000022805D16748006840F0020065490860F5
:103C70006248007800F0040004280BD05D4800780A
:103C800000F00400042805D15E48006840F00400FC
:103C90005C4908605948007800F0080008280BD0FB
:103CA0005448007800F00800082805D155480068FD
:103CB00040F00800534908605048007800F01000B8
:103CC00010280BD04B48007800F01000102805D1C8
:103CD0004C48006840F010004A49086047480078A6
:103CE00000F0010050B14348007800F0010028B90D
:103CF0004448006840F02000424908603F4800788E
:103D000000F0020002280DD13A48007800F00200CD
:103D1000022807D03B48006840F04000394900E0E5
:103D20003DE008603548007800F0040004280BD11D
:103D30003048007800F00400042805D031480068BD
:103D400040F080002F4908602C48007800F00800FF
:103D500008280BD12748007800F00800082805D073
:103D60002848006840F4807026490860234800789D
:103D700000F0100010280BD11E48007800F0100051
:103D8000102805D01F48006840F400701D490860E5
:103D900018480078194908701E20194908701848F9
:103DA0000078002804DD16480078401E1449087089
:103DB00010BD014613480068084030B11148006842
:103DC0008843104A1060002070470120FCE70D492D
:103DD000096881430B4A1160704701460548007825
:103DE0000840002801DD002070470120FCE70000AA
:103DF000000C0140080600200010014009060020C8
:103E0000100600200C06002070B50446202C01D3BB
:103E1000002070BD7D4800EBC400807902282ED1BF
:103E200000F052F91CB9012000F0FCF9F1E7012C77
:103E30000ED1032000F0F6F90546022000F0F2F959
:103E400000EBC00101EB001005EB800080B2E0E761
:103E5000022C0ED1052000F0E5F90546042000F003
:103E6000E1F900EBC00101EB001005EB800080B22E
:103E7000CFE7032C03D1062000F0D4F9C9E70D2CBD
:103E800002D140F26310C4E7614830F81400C0E783
:103E900070B504460D46202C01D3002070BD5B4850
:103EA00000EBC4004088A84203DA584800EBC40085
:103EB0004588564830F83400A84202DD534830F8AF
:103EC0003450524800EBC4008079012844D04F4858
:103ED00000EBC400807902283BD100F0F5F81CB952
:103EE0002946012000F050F9012C11D1642095FBE6
:103EF000F0F086B23146022000F046F9642095FBCE
:103F0000F0F100FB115086B23146032000F03CF97D
:103F1000022C15D1642095FBF0F086B231460420C6
:103F200000F032F9642095FBF0F100FB115086B2ED
:103F30003146052000F028F90021062000F024F980
:103F4000032C03D12946062000F01EF900F0CAF820
:103F500002E02F4820F814502D4830F81400A842F1
:103F600001D000209AE7012098E7002007E02749C8
:103F700001EBC0018A88264921F81020401C202826
:103F8000F5D3704730B50120002123E01F4C04EB2E
:103F9000C104A479012C1CD1022404EB41021C4C65
:103FA00034F81140194D05EBC1056D88AC4207DCB2
:103FB000174C34F81140154D35F83150AC4208DA41
:103FC000124C04EBC104A4889C4201D0002000E004
:103FD0000120491C2029D9D330BD00B5FFF7C5FF0A
:103FE0000B48801E0088B0F5D35F0BD04FF4D35040
:103FF0000749891E088008460088B0F5D35F01D0C4
:10400000002000BDFFF7BEFFFBE700000A880208A2
:10401000B2D1002010B500209B490860486088603C
:104020000120C8600020086146204861084610F061
:1040300000FD044601F006FB204601F0D0FA01F035
:1040400001FB10BD10B501214FF0C05000F0AFFCD6
:104050008E48FCF787F9012002F0FBFA042002F0F9
:10406000C0FA4AF6AA21884228D002F085FA012037
:1040700000F0FDFB00BF412000F061FB0028FAD0FA
:104080004FF4807000F00FFC012000F012FC01F0F2
:10409000E2FA01F0D7FA0121084601F077FA47F673
:1040A000FF7001F0A9FA01F0CDFAFFF7B3FF4AF66D
:1040B000AA21042002F089FA002010BD01F0CBFAF9
:1040C00001F0C0FA0120F8E738B501F07FFA00905E
:1040D000684610F089FC04462C2221466A4810F0FC
:1040E00095FB38BD10B5684810F0A3FC044601F0FC
:1040F000A9FA204601F073FA01F0A4FAFFF7E4FFF1
:1041000010BD40F26C71884204DBA0F26C715E4A13
:10411000516103E040F26C715B4A516170470C28B9
:1041200001DD0C2002E0012800DA0120411E564A80
:10413000116170471F2803DD1F21534AD16007E03A
:10414000012803DA0121504AD16001E04E49C860DC
:104150007047172803DD17214B4A916001E04A4957
:10416000886070473B2803DD3B21474A516001E0EE
:104170004549486070473B2803DD3B21424A1160B6
:1041800001E0414908607047072848D2DFE800F0A5
:104190004704121D2C353E0040F26C72914204DB44
:1041A000A1F26C72384B5A6103E040F26C72364BEC
:1041B0005A6135E00C2901DD0C2102E0012900DA09
:1041C00001214A1E304B1A612AE01F2903DD1F22FC
:1041D0002D4BDA6007E0012903DA01222A4BDA606D
:1041E00001E0294AD1601BE0172903DD1722264B85
:1041F0009A6001E0244A916012E03B2903DD3B22F2
:10420000214B5A6001E0204A516009E03B2903DD5F
:104210003B221D4B1A6001E01B4A116000E000BF09
:1042200000BF70470146072920D2DFE801F01F04D4
:104230000A0F13171B001448808A00F26C7080B2BA
:1042400070471148008A401C80B2F9E70E48808907
:1042500080B2F5E70C48008980B2F1E70A4880880F
:1042600080B2EDE70848008880B2E9E70020E7E780
:1042700010B5012001F001FA012803D101F008FA7C
:10428000012010BD0020FCE7F4D10020400D030008
:1042900000B585B06548006830B965A165A010F02B
:1042A000E0F96249086009E06048006810F000FA2F
:1042B0005FA160A010F0D5F95C4908605B48006818
:1042C00078B16A465EA15948006810F075F8574801
:1042D000006810F0EDF956A1684610F0C2F9534994
:1042E0000860002005B000BD10B55048006818B146
:1042F0004E48006810F0DCF910BD70B505460C465C
:104300004A48006810B94FF0FF3070BD20221021DC
:10431000284610F0ADFA14B94FF0FF30F5E7601EF3
:10432000010100224148006810F0D0F83F481022F7
:1043300001210368284611F093FF10280AD128783C
:1043400030B91021284610F09BFA4FF0FF30DCE71F
:104350000020DAE74FF0FF30D7E730B5ADF27C6DE3
:104360000024002507F046F93648FBF7FBFF04F070
:10437000C6FC72B671B6012233A168460DF03EFC50
:104380000A2232A10DF58B600DF063FC32A22CA144
:104390000DF58B600FF013F90DF58B6100200FF018
:1043A000C9F801240CE023462FA231A10DF58B6042
:1043B0000FF005F9E0B20DF58B610FF0BBF8641C4E
:1043C000B4F57A7FEFDBDDF864540DF58B600DF00A
:1043D00010FF212201211DA00EF023FB0A2228A19B
:1043E0000DF58B600DF035FC28A215A10DF58B6045
:1043F0000FF0E5F80DF58B600DF0FBFE0A2225A10C
:104400008DA80DF026FC21A20DA18DA80FF0D7F8E4
:104410008DA80DF0EEFE00220BA110460DF0EEFB74
:1044200062B661B628460DF27C6D30BD14060020E0
:10443000720000004D3A5C526F61642E6C6F670031
:1044400025730000A0860100303A0000303A526F18
:1044500061642E3000000000E1E5E720ECE0F0F8B8
:10446000F0F3F2E020202000F2EEF7EAE000000096
:1044700025732025303375202020202020000000C7
:10448000303A526F61642E6C6F670000526F616446
:104490002E300000303A526F6164732E74787400CD
:1044A0000CB50020019000904848006840F480302E
:1044B0004649086000BF4548006800F4003000909D
:1044C0000198401C0190009818B90198B0F5A06FB0
:1044D000F1D13E48006800F4003010B10120009096
:1044E00001E0002000900098012844D1384800687D
:1044F00040F01000364908600846006820F00300CC
:1045000008600846006840F0020008602F484068D4
:104510002E4948600846406848600846406840F4B4
:10452000806048600846406820F47C104860084677
:10453000406840F4E81048600846006840F0807029
:10454000086000BF2148006800F000700028F9D022
:104550001E48406820F003001C4948600846406837
:1045600040F00200486000BF1848406800F00C00AE
:104570000828F9D101E000BFFEE70CBD10B5FFF738
:104580008FFF10BD10B51148006840F001000F49C1
:104590000860084640680F4908400C4948600846D2
:1045A00000680D490840094908600846006820F481
:1045B000802008600846406820F4FE0048604FF400
:1045C0001F008860FFF7DAFF10BD000000100240F6
:1045D000002002400000FFF8FFFFF6FE31490143D2
:1045E000314A1160704770B5002100230F22C47852
:1045F00004B32D4C246804F4E064C4F5E064210A9B
:10460000C1F10403CA40447804FA03F184781440E9
:1046100021430901254C0678A155047804F01F05B3
:104620000124AC4005786D11AD0005F1E025C5F819
:10463000004109E0047804F01F050124AC401C4D42
:104640000678761145F8264070BD1A4A0A400243A2
:10465000154B1B1F1A60704739B1134A121D12689F
:104660000243114B1B1D1A6006E00F4A121D12680F
:1046700082430D4B1B1D1A607047042808D14FF070
:10468000E021096941F004014FF0E022116107E0E7
:104690004FF0E021096921F004014FF0E02211619F
:1046A000704700000000FA050CED00E000E400E0B7
:1046B00080E100E080FFFF1FDF48006840F001005C
:1046C000DD49086008464068DC490840DA4948602E
:1046D00008460068DA490840D7490860084600687B
:1046E00020F4802008600846406820F4FE004860FE
:1046F0004FF41F0088607047CF49096821F480316A
:10470000CD4A11601146096821F480211160B0F58D
:10471000803F03D0B0F5802F0ED106E0C64909686E
:1047200041F48031C44A116007E0C349096841F48B
:10473000A021C14A116000E000BF00BF704710B562
:1047400001460022002300204A11012A02D1BA4C5E
:10475000236806E0022A02D1B74C236A01E0B64C76
:10476000636A01F01F02012494401C400CB1012037
:1047700000E0002010BD38B5002000900024002586
:1047800000BF3120FFF7DBFF05460098401C00907A
:104790000098B0F5A06F01D0002DF2D03120FFF7C6
:1047A000CEFF08B1012400E00024204638BD0146B8
:1047B0000020A14A106820F0F80040EAC100106013
:1047C0007047A04908607047024600209A4B58681D
:1047D00020F47C1042EA01031843974B586070475D
:1047E00098490866704701460020934A506820F0B7
:1047F00003000843506070478F48406800F00C0089
:104800007047014600208C4A506820F0F0000843B1
:104810005060704701460020874A506820F4E060ED
:1048200008435060704701460020834A506820F4D6
:10483000605040EAC1005060704729B17E4A527A08
:1048400002437D4B5A7204E07B4A527A82437A4B90
:104850005A7270477B49D831086070470146002082
:10486000754A506820F4404008435060704700216A
:10487000714A20321170704A82F82010012802D04B
:1048800004280AD104E001216B4A2032117005E0AE
:104890000521694A2032117000E000BF00BF704757
:1048A0006949086070476449096A0143624A1162B4
:1048B0007047654944390860704730B500210022CF
:1048C000002400235C4D6D6805F00C0121B1042922
:1048D00005D0082923D105E05C4D056022E05B4D41
:1048E00005601FE0544D6D6805F47012524D6D68FF
:1048F00005F48034022505EB92421CB9544D554312
:1049000005600BE04C4D6D6805F400351DB1504D50
:104910005543056002E04D4D5543056002E04B4DA7
:10492000056000BF00BF444D6D6805F0F001090946
:10493000484D6B5C0568DD4045603F4D6D6805F492
:10494000E061090A434D6B5C4568DD4085603A4D86
:104950006D6805F46051C90A3E4D6B5C4568DD40E9
:10496000C560354D6D6805F44041890B3A4D6B5C6F
:10497000C568B5FBF3F5056130BD29B12E4A526912
:1049800002432D4B5A6104E02B4A526982432A4B61
:104990005A61704729B1284A92690243264B9A61AD
:1049A00004E0254A92698243234B9A61704729B1FA
:1049B000214AD2690243204BDA6104E01E4AD269DF
:1049C00082431D4BDA61704729B11B4AD26802430A
:1049D000194BDA6004E0184AD2688243164BDA6059
:1049E000704729B1144A12690243134B1A6104E05B
:1049F000114A12698243104B1A61704712494039BB
:104A0000086070470F49C86470470B49C871704708
:104A10000948406A40F08070074948627047014683
:104A20000020054A92680A400AB1012000E00020F7
:104A30007047014988727047001002400000FFF87B
:104A4000FFFFF6FE000042428004424200127A005C
:104A500000093D00180600202806002010B5044675
:104A6000E248844209D101218803FFF7ADFF00210C
:104A70004FF48040FFF7A8FF32E0DD48844209D1BF
:104A800001214804FFF7ADFF00214FF40030FFF78C
:104A9000A8FF25E0D748844209D101218804FFF707
:104AA000A0FF00214FF48020FFF79BFF18E0D248C1
:104AB000844209D10121C804FFF793FF00214FF47C
:104AC0000020FFF78EFF0BE0CC48844208D1012183
:104AD0000805FFF786FF00214FF48010FFF781FFE4
:104AE00010BD2DE9F04786B005460E460024A246CB
:104AF00000BF00BF0027B08900B100BF2F462C8A3D
:104B00004CF6FF700440F08804432C82AC894EF6CA
:104B1000F3100440B0883189084371890843044385
:104B2000AC81AC8A4FF6FF400440B0890443AC82AC
:104B300001A8FFF7C2FEAD48874202D1DDF810A000
:104B400001E0DDF80CA00AEBCA0000EB0A103168A6
:104B50008900B0FBF1F86420B8FBF0F004012009F3
:104B6000642101FB1089322000EB0910B0FBF1F049
:104B700000F00F0004432C8106B0BDE8F0874FF42D
:104B80001651016000218180C18001810C21418189
:104B900000218181704710B502460020108A4FF233
:104BA000FF0318400B884C8823438C882343CC8810
:104BB00023431843108210BD002101804180818071
:104BC000C180704721B1828942F40052828104E0A1
:104BD00082894DF6FF731A4082817047F0B5034613
:104BE000002400260025002040F66A17B94200D1B3
:104BF00000BF1846C1F3421401F01F06012707FA4F
:104C000006F5012C01D10C3004E0022C01D110304A
:104C100000E014301AB107682F43076002E007680C
:104C2000AF430760F0BD1AB1838A0B43838202E071
:104C3000838A8B4383827047028A4FF6F0731A404F
:104C40000282028A0A430282704782894FF2FF730E
:104C50001A40828182890A438281704721B1828908
:104C600042F00202828104E082894FF6FD731A400D
:104C700082817047028A4FF6DF731A400282028AED
:104C80000A430282704721B1028A42F480420282C2
:104C900004E0028A4BF6FF731A4002827047C1F3A8
:104CA00008028280704701468888C0F30800704778
:104CB000818941F0010181817047028BD2B2028368
:104CC000028B42EA012202837047028B02F47F4288
:104CD0000283028B0A430283704721B1828A42F029
:104CE0002002828204E0828A4FF6DF731A408282B9
:104CF000704721B1828A42F01002828204E0828AE7
:104D00004FF6EF731A408282704721B1828A42F0D7
:104D10000802828204E0828A4FF6F7731A40828288
:104D20007047828A4FF6FB731A408282828A0A4356
:104D30008282704721B1828A42F00202828204E0BC
:104D4000828A4FF6FD731A40828270470246002025
:104D5000B1F5007F00D100BF13880B400BB10120DB
:104D600000E00020704701F40072B2F5007F00D12E
:104D700000BFCA430280704770B50246002400237A
:104D80000025002040F66A16B14200D100BFC1F3F1
:104D9000421501F01F03012606FA03F3012D02D18B
:104DA0009689334006E0022D02D1168A334001E095
:104DB000968A33400C12012606FA04F41688344011
:104DC00013B10CB1012000E0002070BD10B500222D
:104DD000002340F66A14A14200D100BF0A12012448
:104DE0009440A3B2DC43048010BD000000380140B1
:104DF0000044004000480040004C0040005000408B
:104E000010B50446C448844208D101210420FFF7AC
:104E1000DBFD00210420FFF7D7FD46E0BF488442B8
:104E200008D101210820FFF7CFFD00210820FFF75E
:104E3000CBFD3AE0BA48844208D101211020FFF7A7
:104E4000C3FD00211020FFF7BFFD2EE0B5488442CE
:104E500008D101212020FFF7B7FD00212020FFF716
:104E6000B3FD22E0B048844208D101214020FFF781
:104E7000ABFD00214020FFF7A7FD16E0AB488442C0
:104E800008D101218020FFF79FFD00218020FFF73E
:104E90009BFD0AE0A648844207D101218015FFF757
:104EA00093FD0021A015FFF78FFD10BD10B5012166
:104EB0000846FFF789FD00210120FFF785FD10BDA1
:104EC0002DE9F041024600250026002000230024A1
:104ED000002791F803C00CF00F0591F803C00CF007
:104EE000100CBCF1000F03D091F802C04CEA05058C
:104EF00091F800C0BCF1000F31D0146800202BE005
:104F00004FF0010C0CFA00F3B1F800C00CEA0306F4
:104F10009E4220D183004FF00F0C0CFA03F7BC43E4
:104F200005FA03FC4CEA040491F803C0BCF1280F15
:104F300006D14FF0010C0CFA00FCC2F814C00AE0D4
:104F400091F803C0BCF1480F05D14FF0010C0CFAE9
:104F500000FCC2F810C0401C0828D1D31460B1F87E
:104F600000C0BCF1FF0F34DD546800202EE000F1DA
:104F7000080C4FF0010808FA0CF3B1F800C00CEA75
:104F800003069E4221D183004FF00F0C0CFA03F769
:104F9000BC4305FA03FC4CEA040491F803C0BCF1DD
:104FA000280F05D100F1080C08FA0CF8C2F814809B
:104FB00091F803C0BCF1480F07D100F1080C4FF085
:104FC000010808FA0CF8C2F81080401C0828CED35B
:104FD0005460BDE8F0814FF6FF71018002218170BD
:104FE0000421C17070470246002093680B400BB14A
:104FF000012000E0002070470146886880B27047B9
:1050000002460020D3680B400BB1012000E00020D5
:1050100070470146C86880B27047016170474161BE
:1050200070470AB1016100E041617047C16070479B
:105030004FF480320A4382618161826182698269B0
:105040007047024600203B4B18684FF680731840AB
:1050500040EA02100843374B186070473649C86170
:105060007047F0B50A460023002400210025314E88
:105070007168C0F3034583B200F44016B6F5401FD3
:1050800008D121F070612B4E766826F07066294FAA
:105090007E6012E000F48016B6F5801F06D103266C
:1050A00006FA05F4A14341F0706106E0460D3601B1
:1050B00003FA06F6B14341F0706122B1460D3601A4
:1050C00003FA06F631431B4E7160F0BD30B5002285
:1050D0008B071C0F0F2303FA04F2164B08338C10B6
:1050E00053F824309343134C08348D1044F8253082
:1050F00023468C1053F824308C07240F00FA04F454
:1051000023430C4C08348D1044F8253030BD0A4937
:10511000DC3108607047000000080140000C0140CD
:10512000001001400014014000180140001C014023
:1051300000200140000001400000204210B504465C
:10514000FA48844208D101214015FFF73DFC0021B7
:105150006015FFF739FC17E0F548844208D10121BA
:105160000015FFF731FC00212015FFF72DFC0BE0A7
:10517000F048844208D10121C803FFF725FC002133
:105180004FF40040FFF720FC10BD30B50246002070
:1051900000235068E84C20400D790C6844EA05244F
:1051A000204350609068E54C2040D1E902542C43E4
:1051B0004D7944EA450420439060D06A20F47000A1
:1051C0000C7C641EE4B2234340EA0350D06230BD3D
:1051D00000210160017141718160C1600121017490
:1051E000704721B1826842F00102826003E0826868
:1051F00022F001028260704721B1826842F480721D
:10520000826003E0826822F480728260704710B589
:105210000023CBB21AB144681C43446002E04468E6
:105220009C43446010BD816841F008018160704773
:10523000014600208A6802F008020AB1012000E05D
:1052400000207047816841F0040181607047014689
:1052500000208A6802F004020AB1012000E0002068
:10526000704721B1826842F4A002826003E0826844
:1052700022F4A00282607047014600208A6802F48E
:1052800080020AB1012000E00020704710B50A46F4
:1052900000210023416821F46041531E41EA43315B
:1052A000416010BD21B1426842F40062426003E0F7
:1052B000426822F4006242607047F0B504460D4631
:1052C00000200021092D11DDE068A5F10A0606EB9A
:1052D0004607072606FA07F18843A5F10A0606EBFA
:1052E000460603FA06F10843E0600CE0206905EB8E
:1052F0004507072606FA07F1884305EB450603FA3A
:1053000006F108432061072A0FDA606B561E06EB90
:1053100086071F2606FA07F18843561E06EB860607
:1053200005FA06F10843606322E00D2A0FDA206BCC
:10533000D61F06EB86071F2606FA07F18843D61FFD
:1053400006EB860605FA06F10843206310E0E06AE2
:10535000A2F10D0606EB86071F2606FA07F1884321
:10536000A2F10D0606EB860605FA06F10843E06297
:10537000F0BD21B1826842F48012826003E082684D
:1053800022F48012826070470146C86C80B2704778
:1053900066484C300068704721B1426842F4806230
:1053A000426003E0426822F480624260704721B1AB
:1053B000426842F48052426003E0426822F4805224
:1053C000426070470A460021816821F4E0411143A0
:1053D0008160704721B1826842F40042826003E03C
:1053E000826822F400428260704721B1826842F4F0
:1053F0000212826003E0826822F402128260704727
:10540000014600208A6802F400120AB1012000E07F
:1054100000207047F0B50446154600200022002603
:10542000092911DDE068A1F10A0707EB470C0727FE
:1054300007FA0CF29043A1F10A0707EB470703FABA
:1054400007F21043E0600CE0206901EB410C0727F4
:1054500007FA0CF2904301EB410703FA07F21043FD
:105460002061A06BC0F30156EF1C06F1010CA7EB05
:105470000C0707EB870C1F2707FA0CF29043EF1C71
:1054800006F1010CA7EB0C0707EB870701FA07F2FF
:105490001043A063F0BD10B50A4600210023816BC4
:1054A00021F44011531E41EA0351816310BD08B538
:1054B000002300930090009B0B440093009B1A6014
:1054C00008BD08B5024600200090009201F12800B6
:1054D000009B184400900098006880B208BD0A46FE
:1054E00000214168164B19401143416070474162E9
:1054F000826270470A460021416821F01F01114372
:105500004160704740B109490831096841F4000120
:10551000064A0832116007E004490831096821F49D
:105520000001024A08321160704700000024014067
:1055300000280140003C0140FFFEF0FFFDF7F1FFB5
:10554000FFFD3FFF0246002013680B400BB1012016
:1055500000E000207047CA430260704770B5024601
:105560000020002300240B125568CEB205EA060481
:1055700015681D4015B10CB1012000E0002070BD80
:1055800000220A12D34303607047000029B1504A39
:10559000128802434E4B1A8004E04D4A128882431F
:1055A0004B4B1A8070474A48001D008840F010009D
:1055B0004749091D088070474548001D00884FF67F
:1055C000EF7108404249091D08807047002140489A
:1055D0001C300188001F008841EA0040704700B578
:1055E0000246FFF7E0FF100C394918310880091D09
:1055F0000A80FFF7E1FF00BD00B50246FFF7D3FFC9
:10560000C2F30340324908310880091D0A80FFF7C0
:10561000D3FF00BD00B50246FFF7C5FF100C2C49B3
:1056200020310880091D0A80FFF7C6FF00BD002059
:105630002749103109880907080B254914310988C1
:105640000843704700BF2248001D008800F020007A
:105650000028F8D070471E48001D00884FF6F771EB
:1056600008401B49091D088000BF1948001D00881B
:1056700000F008000028F8D0704701460020144AC6
:10568000121D12880A400AB1012000E00020704774
:105690000F49091D098881430D4A121D1180704769
:1056A000014600200A4A121D12880A40D0B2084A58
:1056B00012880A4012B108B1012000E000207047B2
:1056C0000349091D09888143014A121D1180704751
:1056D0000028004010B50446BE48844208D101218C
:1056E0008014FFF771F90021A014FFF76DF916E09F
:1056F000B948844208D101210014FFF772F9002152
:105700002014FFF76EF90AE0B448844207D1012162
:10571000C013FFF766F90021E013FFF762F910BD2F
:1057200010B50022028802F441520B884C882343B2
:105730008C882343CC8823430C8923434C892343FF
:105740008C892343CC8923431A430280838B4FF2F5
:10575000FF74234083830B8A038210BD2DE9F04F31
:1057600085B005460C464FF0000902274FF00008AF
:105770004FF0010B0026B246A88B4FF240010840C3
:10578000A88302202884B5F81C902089022801D122
:1057900000BF38E0A08810B94FF0010B01E04FF0D6
:1057A000020B8D48854200D100E000BF6846FFF73C
:1057B00084F8DDF800A0E088B0F5007F0AD14FEA58
:1057C0001A2000EB800040002189B0FBF1F0401D61
:1057D00086B20BE04FEA4B10BAFBF0F000EB800012
:1057E00040002189B0FBF1F0401D86B20A20B6FBD3
:1057F000F0F606F00108A6EB0800C0F34F074FF6DD
:10580000FF7000EA0828022F01DBFF2F02DD0227CC
:105810004FF00008E08840EA080038432884A08858
:1058200061890843618808432188084340F4006087
:1058300040EA0909A5F81C9005B0BDE8F08F0021E9
:10584000018041808180C180018141818181C1814C
:105850000721018270470021018041808180C18041
:105860000221018100214181704721B1028842F06B
:105870004002028004E002884FF6BF731A400280A3
:10588000704721B1828B42F48062828304E0828B74
:105890004FF6FF331A408283704730B5002400234F
:1058A0000C110125A540ABB21AB185881D43858036
:1058B00002E085889D43858030BD1AB183880B4303
:1058C000838002E083888B438380704781817047A7
:1058D0000146888970474FF6FF62914204D00288E2
:1058E00042F48072028004E002884FF6FF631A409F
:1058F0000280704721B1828842F00402828004E075
:1059000082884FF6FB731A408280704702884FF2FC
:10591000FF731A40028002880A43028070470188A0
:1059200041F480510180704721B1028842F4005255
:10593000028004E002884DF6FF731A40028070472F
:1059400002460020012901D0108B00E0908A7047A8
:105950000146088A7047B1F5804F04D1028842F4AD
:105960008042028004E002884BF6FF731A400280F6
:1059700070470246002013890B400BB1012000E064
:1059800000207047CA4302817047F0B502460020EC
:1059900000240023002501F00F070126BE40B4B209
:1059A0000B1101269E40B3B2968806EA03051689BC
:1059B000264016B10DB1012000E00020F0BD10B569
:1059C000002201F00F040123A3409AB2D3430381C4
:1059D00010BD00000030014000380040003C004095
:1059E00010B50446FE48844208D10121C014FEF7D8
:1059F000EBFF0021E014FEF7E7FF52E0B4F1804F27
:105A000008D101210846FEF7ECFF00210120FEF736
:105A1000E8FF46E0F348844208D101210220FEF766
:105A2000E0FF00210220FEF7DCFF3AE0EE4884426E
:105A300008D101210420FEF7D4FF00210420FEF745
:105A4000D0FF2EE0E948844208D101210820FEF76A
:105A5000C8FF00210820FEF7C4FF22E0E44884428A
:105A600008D101211020FEF7BCFF00211020FEF715
:105A7000B8FF16E0DF48844208D101212020FEF75C
:105A8000B0FF00212020FEF7ACFF0AE0DA48844294
:105A900007D101214014FEF797FF00216014FEF7A3
:105AA00093FF10BD028802F08F020280CA884B88E3
:105AB0001A4303881A4302808A8882850A880285ED
:105AC000C74A904202D0CC4A904201D10A7A02865B
:105AD00001228282704770B5002400220023058CC9
