:020000040801F1
:1000000048F70020F16C0108DD1E0108DF1E010821
:10001000E31E0108E71E0108EB1E010800000000B6
:10002000000000000000000000000000EF1E0108BA
:10003000F11E010800000000F31E0108F51E010872
:10004000076D0108076D0108076D0108076D0108BC
:10005000076D0108076D0108076D0108076D0108AC
:10006000076D0108076D0108076D0108076D01089C
:10007000076D0108076D0108076D0108076D01088C
:10008000076D0108076D0108076D0108076D01087C
:10009000F1790108076D0108076D0108C50701081E
:1000A000076D0108DD2C0108076D0108076D0108C7
:1000B000076D0108076D0108076D0108076D01084C
:1000C000076D0108076D0108076D0108076D01083C
:1000D000076D0108076D0108FD1E0108076D010885
:1000E000076D0108076D0108076D010800F002F8AF
:1000F00000F081F80AA090E8000C82448344AAF141
:100100000107DA4501D100F076F8AFF2090EBAE83E
:100110000F0013F0010F18BFFB1A43F0010318473B
:1001200050D7010070D701000A444FF0000C10F8BE
:10013000013B13F0070408BF10F8014B1D1108BF65
:1001400010F8015B641E05D010F8016B641E01F805
:10015000016BF9D113F0080F1EBF10F8014BAD1C55
:100160000C1B09D16D1E58BF01F801CBFAD505E073
:1001700014F8016B01F8016B6D1EF9D59142D6D3CD
:10018000704700000023002400250026103A28BFF5
:1001900078C1FBD8520728BF30C148BF0B607047F9
:1001A000662918F09680642913F03285752913F0BA
:1001B0002F85632914F0ED84732914F0F284002054
:1001C00070471FB59DE8030014F052FF14F034FF90
:1001D00004000020002116F095FD401C6060002006
:1001E000002116F079FDE06015F018FA1FBD10B57A
:1001F00015F07DFA10BD15F0ADFA1146FFF7E1FFDD
:1002000001F010FA15F0D8FD03B4FFF7F0FF03BCBE
:1002100007F020FDEFF30980704780F309887047ED
:10022000EFF30880704780F30888704740BA704742
:10023000C0BA704710B5002807DA0A07140EFE4A44
:1002400000F00F031B1FD45403E00A07130EFB4AF0
:10025000135410BD10B50446B4F1807F01D30120C2
:1002600010BD24F07F40401E4FF0E02148610F2177
:100270004FF0FF30FFF7DEFF00204FF0E0218861F4
:10028000072008610020EBE710B506F01AFDEC48E6
:100290000068401CEA49086003F0AEFC0CF081FEE7
:1002A000E8480068401EE7490860E748008838B918
:1002B0004FF47A70E44908800120E449087004E0B2
:1002C000E1480088401EE0490880E1480068B0F538
:1002D0007A7F0DD10020DE490860DE480068401CAE
:1002E000DC490860DC480068401CDB49086004E029
:1002F000D7480068401CD6490860D64800681E28C8
:1003000002D10020D3490860D3480068D34988420D
:1003100002D10020D049086010BDD148806940F06A
:100320001000CF498861CF48406840F48030CD4903
:100330004860704700E0401E0028FCDC704710B5A4
:100340000446C4B1C648406800F00C00082824D018
:10035000C348406820F00300C1494860084640682F
:1003600040F00200486000BFBD48406800F00C004B
:100370000828F9D111E0BA48406800F00C0060B1DB
:10038000B748406820F00300B549486000BFB44852
:10039000406800F00C000028F9D11CB1B248FFF70A
:1003A00059FF03E04FF4FA50FFF754FF10BD08B5B2
:1003B0000121052004F0C8FD0120ADF80000102047
:1003C0008DF8030003208DF802006946A74805F068
:1003D00051F80420ADF8000028208DF8030069468C
:1003E000A24805F047F81020ADF800008DF8030092
:1003F00003208DF8020010219C4805F0E8F86946BA
:100400009A4805F037F8E020ADF8000018208DF884
:10041000030003208DF802002021944805F0D7F84E
:100420008021924805F0D3F86946904805F022F8FB
:100430004FF48070ADF8000048208DF80300694645
:100440008A4805F017F80121092004F07DFD0120FC
:10045000ADF8000048208DF803006946844805F097
:1004600009F80220ADF8000048208DF80300694625
:100470007F4804F0FFFF2020ADF8000010208DF829
:10048000030003208DF802002021794805F09FF831
:100490006946774804F0EEFF4020ADF800001020D8
:1004A0008DF8030003208DF80200002240217048DF
:1004B00005F091F869466E4804F0DCFF8020ADF845
:1004C000000010208DF8030003208DF80200802129
:1004D000674805F07CF86946654804F0CBFF4FF4A7
:1004E0008070ADF8000010208DF8030003208DF817
:1004F00002004FF480715E4805F069F869465C4877
:1005000004F0B8FF4FF40070ADF8000010208DF833
:10051000030003208DF802004FF40071544805F0E9
:1005200056F86946524804F0A5FF4FF48060ADF8D4
:10053000000048208DF8030069464D4804F09AFFFA
:100540004FF40060ADF8000048208DF803006946C4
:10055000474804F08FFF4FF48050ADF800001020A2
:100560008DF8030003208DF8020000224FF4805123
:100570003F4805F030F869463D4804F07BFF4FF4F2
:100580000050ADF8000018208DF8030003208DF80E
:10059000020000224FF40051354805F01CF869466E
:1005A000334804F067FF4FF48040ADF80000182096
:1005B0008DF8030069462E4804F05CFF4FF40040BC
:1005C000ADF8000048208DF803006946284804F083
:1005D00051FF0121112004F0B7FCFF20ADF800000D
:1005E00010208DF8030003208DF80200FF211D4824
:1005F00004F0EDFF69461B4804F03CFF4FF48070A7
:10060000ADF8000048208DF803006946154804F055
:1006100031FF4FF48060ADF8000010208DF803002A
:1006200003208DF8020000224FF480610D4804F091
:10063000D2FF69460B481DE018ED00E000E400E041
:1006400004000020080000201E00002022000020DE
:10065000380000203C00002040000020A0BB0D001E
:100660000010024000100140401901000008014044
:10067000000C014004F0FEFE4FF40060ADF80000F5
:1006800014208DF8030003208DF802004FF4006160
:10069000FE4804F09CFF6946FC4804F0EBFE4FF472
:1006A0004050ADF8000010208DF8030003208DF8B5
:1006B00002004FF48051F54804F08BFF4FF40051D5
:1006C000F24804F086FF6946F04804F0D3FE0121A9
:1006D000212004F039FC0420ADF8000010208DF832
:1006E000030003208DF8020000220421E84804F0F2
:1006F00072FF6946E64804F0BDFE4FF40070ADF8A5
:10070000000010208DF8030003208DF802004FF444
:100710000071DE4804F05BFF6946DC4804F0AAFE85
:100720004CF25030FFF706FE4FF48060ADF8000049
:1007300010208DF8030003208DF802004FF4806133
:10074000D24804F044FF6946D04804F093FE4FF4C9
:100750000070ADF8000004208DF803006946CD4814
:1007600004F088FECC48806940F00100CA498861E5
:10077000CA488068C9498860084680688860C84857
:10078000006840F40070C6490860C5480C3800682D
:1007900040F40070C2490C3908600F211720FFF7A0
:1007A00049FD1720012181404209920002F1E02217
:1007B000C2F8001100BF08BD10B50BF021FB0BF013
:1007C00003FB10BD10B50421B24804F0E6FE10B9D9
:1007D000B448007840B1B2480830006840F00200E8
:1007E000AF490831086020E004F058F80120FFF715
:1007F000A6FDFFF7E1FF002401E000BF641CAA484A
:100800008442FAD30122D102A04804F0E4FE4FF45E
:1008100080619E4804F0DDFE4FF400719B4804F0B7
:10082000D8FE01E006F04DFAFCE710BD08B5262021
:100830008DF8000000208DF8020001208DF80300E3
:10084000684604F0AAF908BD02461004B0FBF1F0B6
:10085000964B1B681844954B186018460068B0EB1F
:10086000024F01D30020186090480068000C7047C8
:100870002DE9FC414FF47A7425E00BF0C1FA012117
:1008800008460BF0E6FC8A4A00218AA00BF031FDF5
:10089000142101200BF0DDFCC4F57A7016F063FD25
:1008A00007460022884B16F029FB05462A460B46D0
:1008B00086A1684613F048F97D4A002168460BF08E
:1008C00018FD0BF081FA2000A4F10104D5D1BDE898
:1008D000FC8130B5ADF5037D002400250BF01CF93B
:1008E0007C48FFF727FD08F096FC0BF089FA002200
:1008F00079A170A00CF091FB00200BF07EFA002093
:1009000021237D221E21009001200BF0D8FB0BF04B
:100910005BFA00200BF071FA0120212314221E2122
:1009200000900BF0CCFB0BF04FFA06F0CAF94FF435
:10093000007103A813F0CAFC06F0C3F902F070F8C6
:1009400000200BF05AFA002021237D221E21009066
:1009500001200BF0B4FB0BF037FA00200BF04DFA3E
:10096000012021233C221E2100900BF0A8FB0BF05C
:100970002BFA06F0A6F90121182003F0D7FA00217E
:100980000C2003F0D3FA00211A2003F0CFFA012142
:100990000F2003F0CBFA06F094F900200BF02DFAAB
:1009A000002021237D221E21009001200BF087FBD7
:1009B0000BF00AFA00200BF020FA01202123642218
:1009C0001E2100900BF07BFB0BF0FEF906F079F98D
:1009D00003F09DFF05460BF013FA00223EA135A05F
:1009E0000CF01BFB00200BF008FA002021237D22D5
:1009F0001E21009001200BF062FB0BF0E5F90020B6
:100A00000BF0FBF9012021237D221E2100900BF029
:100A100056FB0BF0D9F93148FFF78CFC0BF0F0F9DD
:100A2000012108460BF015FC2DA101A813F08CF84C
:100A30001F4A002101A80BF05CFC0C2101200BF0E7
:100A400008FC2BA101A813F07FF8194A002101A886
:100A50000BF04FFC0BF0B8F906F033F92748FFF71D
:100A600069FC0BF0CDF919211C200BF0F2FB244A94
:100A7000002124A00BF03DFC0BF0A6F91F48FFF766
:100A800059FC0021442006F07AF841E000100140B2
:100A90000014014000080140001002400000014025
:100AA0000C0401402C000020FFFF1F0084000020E8
:100AB000E0990208D4EEF0ECE0F2E8F0EEE2E0EDCE
:100AC000E8E52E2E2E00000000002440252E316681
:100AD00025250000A086010000000000C05C150074
:100AE000D4EEF0ECE0F2E8F0EEE2E0EDE8E5000054
:100AF000E7E0E2E5F0F8E5EDEE2E000060E3160039
:100B0000E8A70208C2DBCACBDED7C5CDC8C5000046
:100B10004FF40071F74804F05CFD01200DF5037DF2
:100B200030BD10B50AF0F8FF0446012C01D10020B9
:100B300010BD012C02D9FFF7CCFEF9E70120F7E741
:100B400070B50646EC48006800286AD1EB49EC48CD
:100B5000006817F017FA2BD84FF07E51E84800686C
:100B600017F010FB24D2E748006808BBE64800787D
:100B7000F0B90BF045F9142105200BF06AFBE34AAC
:100B80000021E3A00BF0B5FB1E2105200BF061FB5B
:100B9000DE4A0021E3A00BF0ACFB0BF015F90120BD
:100BA000D8490860E348FFF7C5FB00200FF0FAFAC8
:100BB0000021D348006817F049F931D1D2480078B4
:100BC0000028FAD1DC48006816F0E4FF0446002251
:100BD000DA4B16F039FC7ED8CA48006800287AD172
:100BE0000BF00EF9142105200BF033FBC74A00214E
:100BF000D3A00BF07EFB1E2105200BF02AFBC34A7D
:100C00000021D2A00BF075FB0BF0DEF8C948FFF70E
:100C100091FB0BF0F5F80BF0D7F80120B94908600B
:100C200059E001F037FE0A2828D801F033FE0128E8
:100C300024D9B448006808BBB3480078F0B90BF079
:100C4000DFF8142105200BF004FBB04A0021B0A00E
:100C50000BF04FFB1E2105200BF0FBFAAB4A0021E5
:100C6000B0A00BF046FB0BF0AFF80120A5490860DF
:100C7000B048FFF75FFB00200FF094FA01F00AFE86
:100C800048BBA148007830BB0BF0BAF8142105200E
:100C90000BF0DFFA9D4A0021A9A00BF02AFB1E21D0
:100CA00005200BF0D6FA994A0021A8A00BF021FBF1
:100CB0000BF08AF8A848FFF73DFBFFF77DFDA6483B
:100CC000FFF738FB0BF09CF80BF07EF84FF4007147
:100CD000884804F07EFC70BD10B5102003F0E2F8E7
:100CE0000446012C06D0022C0AD0042C0ED0082C6D
:100CF00014D111E0112003F0D5F840EA04240FE0EC
:100D0000122003F0CFF840EA042409E0132003F096
:100D1000C9F840EA042403E0240201E0002400BFF3
:100D200000BF8E480068A04219D0A1B20A2003F08B
:100D3000FDF88A4804608A48818C042003F0F6F8A4
:100D40008748818D052003F0F1F88548818E0620C3
:100D500003F0ECF88248818F072003F0E7F810BD1C
:100D600070B503F029FBA8B303F052FA012003F099
:100D7000FDFA04462146002003F0D8F8032003F0D2
:100D8000F5FA0546022003F0F1FA00EBC00101EB91
:100D9000001005EB800084B22146012003F0C6F864
:100DA000052003F0E3FA0546042003F0DFFA00EB28
:100DB000C00101EB001005EB800084B22146022047
:100DC00003F0B4F8062003F0D1FA044621460320CC
:100DD00003F0ACF870BD10B500220421614804F0A6
:100DE000FAFB02F07BF900210B2003F09FF80820AA
:100DF00003F058F840F001042146082003F096F86B
:100E000046F2A811584802F054F910BD10B502F08E
:100E1000BCFB082003F046F820F00104214608201E
:100E200003F084F80B2003F03DF828B94C48B0F8E3
:100E30005C100B2003F07AF810BD10B504464B4847
:100E40000078002802DD4A484A49086004214A48DF
:100E500004F0A3FB10B146484649086010BD2DE9D7
:100E6000FC5F192003F01EF8064617F077F80546D8
:100E7000424916F029FF424908600A2003F012F89F
:100E800040F20122811A904233D010DCB0F5827F0B
:100E900027D005DCA0F2011098B1012874D118E028
:100EA000B0F5847F75D0B0F5887FF7D179E001295E
:100EB0006CD003296BD007296AD0B1F5007FEDD142
:100EC000C2E030492E48006816F0FEFE2C4908604A
:100ED000D0E02C492A48006816F0F6FE2849086040
:100EE000C8E028492648006816F0EEFE244908604C
:100EF000C0E05EE0001001405400002000002041EE
:100F0000740000203400002014000020E099020842
:100F1000C7E0F0FFE420E0EAEAF3ECF3EBFFF2EEE7
:100F2000F0E00000ECE5EDFCF8E520313025202E66
:100F30002E2E0000A025260078000020000004408E
:100F4000C0EAEAF3ECF3EBFFF2EEF000F0E0E7F0DA
:100F5000FFE6E5ED2E000000404B4C00880000202D
:100F6000D682020800140140A017002000060020CD
:100F7000C0270900080000200008014000007A4452
:100F8000240000200000404073E002E01DE031E05A
:100F900045E0FE49FE48006816F096FEFC490860F0
:100FA00068E0FA49FA48006816F08EFEF8490860D1
:100FB00060E0F849F648006817F018F80546F3496C
:100FC00016F082FEF249086054E0F148006816F01D
:100FD000E1FDF14AF14BCDE9000116F071FA074647
:100FE0000022EF4B15F08AFF054615F0A1FEE849F7
:100FF00008603FE0E648006816F0CCFDE64AE74BA3
:10100000CDE9000116F05CFA05460022E44B15F02C
:1010100075FF074615F08CFEDD4908602AE0DC48C4
:10102000006816F0B7FD0546DB4ADC4B16F048FABF
:101030000022DB4BCDE9000115F060FF074615F0FB
:1010400077FED349086015E0D148006816F0A2FD8C
:101050000746D44AD44B16F033FA05460022D34B48
:1010600015F04CFFCDE9000115F062FEC84908609B
:1010700000E000BF00BFCE4801F085FA0546C44835
:101080000168284616F0B2FF81460A2002F00AFFE6
:1010900040F20121884211D14946484616F0A6FF88
:1010A000C449019017F0A0F8834616F073FD074677
:1010B00015F0ECFD054615F03BFE8146484616F05E
:1010C00015FF85B22946042002F030FFB84801F030
:1010D00076FA8246B64801F07DFA0546B64916F022
:1010E00085FF04462146504616F04CFF00D2A2462A
:1010F000A7480168504616F079FF82460A2002F0A0
:10110000D1FE40F2011188420ED14FF0814150468C
:1011100017F038F806D24FF08141504617F064F8C6
:10112000824601E04FF0000A0A2002F0BBFEB0F553
:10113000817F0ED14FF08141504617F023F806D23F
:101140004FF08141504617F04FF8824601E04FF0D2
:10115000000A0A2002F0A6FEB0F5827F0CD1974962
:10116000504617F00FF805D29449504617F03CF856
:10117000824601E04FF0000A0A2002F093FEB0F52B
:10118000847F0CD18E49504616F0FCFF05D28C4965
:10119000504617F029F8824601E04FF0000A0A2075
:1011A00002F080FE40F2012188420CD18549504670
:1011B00016F0E8FF05D28349504617F015F882462D
:1011C00001E04FF0000A0A2002F06CFE40F202211A
:1011D00088420ED14FF08241504616F0D3FF06D21E
:1011E0004FF08241504616F0FFFF824601E04FF07B
:1011F000000A0A2002F056FEB0F5017F0ED14FF032
:101200008241504616F0BEFF06D24FF08241504652
:1012100016F0EAFF824601E04FF0000A0A2002F0D1
:1012200041FEB0F5027F0CD16749504616F0AAFF87
:1012300005D26549504616F0D7FF824601E04FF0CF
:10124000000A0A2002F02EFE40F2014188420CD131
:101250005E49504616F096FF05D25C49504616F09E
:10126000C3FF824601E04FF0000A504616F03EFEF2
:1012700085B22946052002F059FE5449484616F029
:1012800081FF05D24946504616F01EFD824601E018
:101290004FF0000A4E49504616F0A8FE064616F0DA
:1012A00025FE85B22946072002F040FE404801F0A5
:1012B0009CF9054636480168284616F097FE824696
:1012C0000021504616F05EFE01D24FF0000A0A20BF
:1012D00002F0E8FD40F2011188420ED14FF0824148
:1012E000504616F04FFF06D24FF08241504616F09E
:1012F0007BFF824601E04FF0000A0A2002F0D2FD97
:10130000B0F5817F0ED14FF08241504616F03AFF82
:1013100006D24FF08241504616F066FF824601E049
:101320004FF0000A0A2002F0BDFDB0F5827F0CD11B
:101330002349504616F026FF05D22149504616F0A3
:1013400053FF824601E04FF0000A0A2002F0AAFD96
:10135000B0F5847F0CD11F49504616F013FF05D21B
:101360001C49504616F040FF824601E04FF0000A4B
:101370000A2002F097FD40F20121884235D116493A
:10138000504616F0FFFE2ED2134927E000004040E1
:10139000240000200000E442D122DBF97EEA344040
:1013A0000000084085EB51B81EB9784000C072407B
:1013B00000DB00200000C843000080BF0000E040C8
:1013C0000000604100008C42000020410000A0406D
:1013D0000000C8420000F04100000243504616F0F1
:1013E00003FF824601E04FF0000A0A2002F05AFD96
:1013F00040F2022188420CD1F749504616F0C2FE55
:1014000005D2F549504616F0EFFE824601E04FF056
:10141000000A0A2002F046FDB0F5017F0CD1EE492A
:10142000504616F0AFFE05D2EB49504616F0DCFEF2
:10143000824601E04FF0000A0A2002F033FDB0F5C9
:10144000027F0CD1E449504616F09CFE05D2E249D9
:10145000504616F0C9FE824601E04FF0000A0A200D
:1014600002F020FD40F2014188420CD1DB49504698
:1014700016F088FE05D2D949504616F0B5FE8246D0
:1014800001E04FF0000A504616F030FD85B22946C3
:10149000062002F04BFDBDE8FC9F70B50446656870
:1014A0002E462068FEF7BFFEA4F100614FF00060F9
:1014B00003F0A5FBB04770BD2DE9F84F01F01AFA13
:1014C000824616F04BFD81464FF08B4116F0FCFB37
:1014D000044616F05FFB07464FF06632C04B15F02E
:1014E000EFFF054615F024FCBE4908600846016878
:1014F000BD4816F079FEBB490860BC49B948006890
:1015000016F0E2FB804616F045FB0646B84AB94B9A
:1015100015F0D6FF044615F00BFCB249086001F047
:1015200013FA009016F01AFD83464FF08B4116F027
:10153000CBFB824616F02EFB80464FF06632A84B5E
:1015400015F0BEFF0646AC4AAC4B15F0B9FF044699
:1015500015F0EEFBAA490860AA48006816F0E6FC00
:101560000546A9480168284616F03EFE0446A749EC
:1015700016F0AAFBA6490860A248006816F0D6FC3F
:10158000A1490860A24801689648006816F02EFD3F
:101590000446A04916F098FB9F4908609F480068E0
:1015A000012807D1084601689D48006816F01EFB17
:1015B0009B4908609248006816F0ECFA0446994A84
:1015C000994B15F041FF03D200209849086012E0C2
:1015D00097499348006816F009FD804616F0DAFA3C
:1015E00006464FF03332934B15F088FC044615F055
:1015F0009FFB8E49086090498948006816F0F6FC08
:10160000814616F0C7FA074615F09CFA054615F014
:1016100009FE84B22146282005F0B1FA804800680E
:10162000BDE8F88F88B000BF0025002600BF00206D
:1016300082490870FEF7BBFE8148FEF77BFE8048BA
:10164000FEF778FE7E48FEF775FE012291027D4886
:1016500003F0C1FF7A48FEF76DFE7948FEF76AFE97
:101660007748FEF767FE03F067FA0120FEF767FE92
:1016700000F0DAFF06F05AF80AF0D9FB01207249AF
:10168000086002F083FD28B97048006840F001004E
:101690006E490860FFF745FA28B96C48006840F0C9
:1016A00004006A49086002F028FD28B9674800680C
:1016B00040F002006549086000206449086008465F
:1016C000006800284DD00024614A002161A00AF082
:1016D00010FE5E48007800F0010068B1601C04460E
:1016E00000EB80004006010E05200AF0B2FD584ACA
:1016F00000215AA00AF0FDFD5448007800F00200D5
:1017000068B1601C044600EB80004006010E052015
:101710000AF09FFD4E4A002152A00AF0EAFD4B4814
:10172000007800F0040068B1601C044600EB800003
:101730004006010E05200AF08CFD454A00214EA00E
:101740000AF0D7FD0AF040FB5048FEF7F3FDFFF723
:1017500033F84E48FEF7EEFD4FF40071394803F0C0
:1017600038FF182002F09EFB002833D101210846E3
:101770000AF06FFD364A002145A00AF0BAFD192192
:1017800001200AF066FD324A002146A00AF0B1FDB0
:101790000AF01AFB05F095FA0020FEF7D0FD9DE057
:1017A000102002F054FBA0B90AF02AFB0AF00CFB4F
:1017B000FFF78FF8FFF700F83448FEF7BBFD0AF09B
:1017C0001FFB0AF001FB4FF400711E4803F001FFFC
:1017D00084E071E083E000000000A04100002041AF
:1017E00066660A405C0000203333D33FA4709D40FE
:1017F0007B14AE47E17AF03FE17A14AE47E1004056
:1018000078000020040000206400002000007A44DA
:1018100060000020000061456800002058000020A2
:101820006C000020CDCCCCCCCCCC0440740000208B
:101830000000C8423333E33F0050C3471400002088
:10184000A086010000100140300000200C000020A4
:10185000E09902084552524F523A0000D7E0F1FB9E
:1018600000000000C8EDE8F6E8E0EBE8E7E0F6E8A5
:10187000FF20464C41534800C8EDE8F6E8E0EBE8AD
:10188000E7E0F6E8FF2046415431360060AE0A003A
:10189000CEF8E8E1EAE020E7E0EFE8F1E8204641B1
:1018A00054313600D4EEF0ECE0F2E8F0EEE2E0F293
:1018B000FC2E2E2E3F000000082002F0C8FA68B966
:1018C000FEF77AFFFE48FEF735FD0AF099FA0AF0B6
:1018D0007BFA4FF40071FB4803F07BFE60E71820B1
:1018E00002F0E0FA074639460C2002F01FFB1B20ED
:1018F00002F0D8FA64280AD00AF025FD0AF064FA4A
:10190000002501E000BF6D1CEF488542FAD314208A
:1019100001F0D6F80BF0B9FB0020FEF710FD012016
:1019200002F0A9FA30B9022002F0A5FA10B980201D
:101930000BF0A8FB192002F0B5FA804616F00EFB5A
:101940000746E24916F0C0F9E1490860E149E0487C
:10195000006816F0B9F9DE4908600C2005F01BF9A3
:10196000DD490880DD48006860B9DD48006816F090
:10197000A1FADC490860DA48006816F09BFADA49F7
:10198000086007E000F086FFD649086000F082FF9B
:10199000D5490860442005F0FEF8D44908604FF4AA
:1019A0000041D34803F0F9FDCC490860282005F038
:1019B000F2F860B90020CF4915F0C4F8074615F0D9
:1019C00031FC1FFA80F94946282005F0D8F8282074
:1019D00005F0E1F8804616F0C1FA0746C64916F050
:1019E00073F9C64908606EE2C548007850B3BA483A
:1019F0000088B0F5616F18D10E2002F053FAB64995
:101A00000880084600884FF6E851884209DAB24853
:101A10000088401C80B2B04A108001460E2002F0BF
:101A200085FA0020AC49088004E0AB480088401CDF
:101A3000A94908800020B2490870A74801880C20F5
:101A400005F09DF845F2555005F032F9062005F0F5
:101A500032F94FF4806005F031F905F037F9FFF7FE
:101A60002BFDA8480078A84908600421A74803F086
:101A700094FDA749096888427CD00421A34803F05B
:101A80008CFDA34908600846006878B3FFF7BEF9EB
:101A90000020A049087002F001FF9F48FEF74AFCB1
:101AA0001B2002F0FFF9642804D163211B2002F0FF
:101AB0003DFA14E064211B2002F038FA62B661B6E8
:101AC00000BF9648006800F4E06095490843001D97
:101AD00092490860BFF3408F00BF00BFFEE70120BE
:101AE000FEF72DFC00208F490870AFE0FFE70120D2
:101AF0008C49087000208C4908700AF081F9012196
:101B000008460AF0A6FB894A002189A00AF0F1FBE9
:101B10000AF05AF9002472B671B6012288A18948E8
:101B200010F0A8F900260DE000231A4686A101A8AE
:101B3000009612F009F88B4901A810F098FE00B940
:101B4000641C761CFF2EEFD905F0BBF80A2286A193
:101B5000884810F0BAF9002287A101A811F0F4FF1B
:101B600001A9844811F055FE82490A2011F00CFEAB
:101B7000012515E06EE02A4682A101A811F0E4FFDC
:101B8000784901A810F073FE38B901A9794811F01D
:101B900040FE78490A2011F0F7FD05F092F86D1C1F
:101BA000FF2DE8D3734810F060FC002201A963A068
:101BB00011F06EF976A101A812F0DAFB10B174A051
:101BC00011F0C5F900225EA1104610F053F962B67B
:101BD00061B671480460601C81B20F2002F0A6F962
:101BE000002500266DA16EA012F03FFA40B14FF023
:101BF0000060FFF752FC00206D4908606D490860E5
:101C00000020FEF79CFB4448FEF794FB3348006835
:101C100078B94048007860B93148006816F04AF950
:101C2000304908602E48006816F044F92E490860D3
:101C300007E000F02FFE2B49086000F02BFE2A4938
:101C4000086002F0FFFD00200EF0ACFA304800689A
:101C500005F07AFD2E48006800282FD10120564952
:101C6000086000202F490870FEF76AFF4FF480518A
:101C7000144803F0AEFC4FF40051124803F0A9FCE5
:101C80002448007830B9042002F0E1F810B90120AE
:101C9000204908701F48007801280ED1802002F0EA
:101CA000D6F850B902201B4908704448007820B982
:101CB0000120FEF744FBFFF78EF881E0E9E0000029
:101CC00060AE0A0000100140FFFF2F0000007A44C0
:101CD0002400002000009643200000205400002033
:101CE000740000204400002048000020C0100020A4
:101CF000000C0140004CED400050C3476C00002038
:101D0000220000203A1000204C0000200008014072
:101D10001000002014000020400D03000CED00E036
:101D20000000FA052C00002015000020E0990208B0
:101D3000CFEEE4EEE6E4E8F2E52E2E2E0000000001
:101D4000303A00004C1100204D3A5C253033752E9E
:101D5000253033755C5369676E616C2025642E6491
:101D600061740000A4150020526F6164732E7478B2
:101D70007400000080130020526F61642E25303102
:101D800075202000526F61642E25303375000000ED
:101D900050494F4E2D3300001800002072620000A1
:101DA0004D3A5C70726F67312E62696E0000000000
:101DB000B8100020C410002058000020901000200F
:101DC00041480078022806D1042002F040F810B9FA
:101DD00003203D4908703C480078032806D1802044
:101DE00002F035F810B900203749087036480078FD
:101DF00040B9FFF70BF801F0E4FB00B96D1C0020BF
:101E0000FEF79DFA3048007810B90020FEF798FEE2
:101E10000120FFF712F8082002F044F800F001005A
:101E200000280FDD0A2002F03DF8B0F5006F07D161
:101E300001F0CFFB074639460B2002F077F801E0AE
:101E4000FFF70DF821480078002809DD082002F08E
:101E500029F840F008073946082002F067F808E042
:101E6000082002F01FF820F008073946082002F089
:101E70005DF80020154908700EF03FFC18B10120F4
:101E8000FEF7DBFF02E00020FEF7D7FFFEF724FF9E
:101E900019E00020FEF7D1FF0D48007880B90D4809
:101EA000FEF748FA0A48007818B902200EF07AF9CD
:101EB00009E001200EF076F900200749086002E0F1
:101EC00001200EF06FF98FE514000020CC000020F7
:101ED0003B1000208096980058000020704700BFFB
:101EE000FEE700BFFEE700BFFEE700BFFEE770476A
:101EF0007047704710B5FEF7C7F910BD10B540F236
:101F000025510F4803F012FA48B10D4803F0A5F926
:101F10000C49087008460178094803F09AF940F224
:101F20002661074803F002FA40B14021044803F05B
:101F3000F4F904480078401E0249087010BD000002
:101F4000004400408C0000202DE9F04106460F4679
:101F50001446F9480078012802D10020BDE8F0813C
:101F6000022C00DC0CB90020F8E7F3480178007877
:101F7000401CF14A107001EB810000EBC100EF49F9
:101F800001EB80052C704FF0000800BF002105F127
:101F90001C0040F824100C3040F8241056F824108F
:101FA000281D40F8241057F824100C3040F8241055
:101FB00034B1281D50F82410404615F017FE804615
:101FC00005F1100050F82410404615F00FFE804631
:101FD000201EA4F10101CCB2D8DC2846BEE72DE9D1
:101FE000F04704460D460026E1692162A16AE162DC
:101FF000E561A168E06A15F0F9FF80466169206A31
:1020000015F0F4FF81462169E06915F0EFFF824683
:10201000494615F0EBFD0746414615F0E7FD06463B
:10202000A662A06ABDE8F0872DE9F84F04460D4688
:102030000026216A6162E16A2163E1692162A16A85
:10204000E162E561E168206B15F0D0FF8146A1688F
:10205000E06A15F0CBFF8246494615F0C7FD0746FA
:10206000A169606A15F0C2FF00906169206A15F0ED
:10207000BDFF82462169E06915F0B8FF83465146ED
:1020800015F0B4FD8146009915F0B0FD8046394643
:1020900015F0ACFD0646A662A06ABDE8F88F2DE9F2
:1020A000BF4F82468B461446A5480078062803D1C8
:1020B000002004B0BDE8B08F022C00DC0CB9002079
:1020C000F7E79F4801780078401C9D4A107001EBAB
:1020D000810000EBC1009B4901EB800989F80040B9
:1020E000002500BF002109F11C0040F824100C302D
:1020F00040F824100AEBC40000224FF08043D0E9DE
:102100000071384615F0A0F921D20AEBC400002274
:102110004FF04043D0E90071384615F0CFFA16D29F
:102120000AEBC4000022884BD0E90071384615F054
:10213000C7F90022854BCDE9000115F0C1F9CDE9C1
:10214000020114F086FD09F1040141F824000BEBB3
:10215000C40000224FF08043D0E90071384615F0EA
:1021600073F921D20BEBC40000224FF04043D0E9B9
:102170000071384615F0A2FA16D20BEBC401D1E972
:1021800000710022704B384615F09AF900226F4B0F
:10219000CDE9000115F094F9CDE9020114F059FDE3
:1021A00009F1100141F8240024B109F1040050F8AC
:1021B0002400451909F1100050F824004519201E8B
:1021C000A4F10101CCB28DDC484672E70146002043
:1021D00009E0002301F11C0242F820300C3242F8E1
:1021E0002030421CD0B20328F3DB70472DE9FC5F9E
:1021F000064689461546002434E006EBC40000225A
:10220000514BD0E90071384615F05AF900224F4B76
:10221000CDE9000115F054F9824614F01AFD291D8C
:1022200041F8240009EBC4000022474BD0E90071BB
:10223000384615F045F982460022444B15F040F926
:10224000CDE9000114F005FD05F1100141F824006D
:10225000002105F11C0040F824100C3040F8241037
:10226000601CC4B22878401CA042C6DCBDE8FC9FBC
:102270002DE9F043024600BF156A5562D56A156321
:10228000D5691562956AD562D1611569D06980FBFF
:102290000550176A566987FB0667AD197841576A7A
:1022A000966987FB0667AE197841D76A956887FB00
:1022B0000597D2F80CC0D2F8308088FB0CC83D4698
:1022C00019EB0C0745EB0805F31940EB05044FF03B
:1022D00000569E1944F10000850045EA9670906210
:1022E000906ABDE8F083F0B5024600BFD56915627B
:1022F000956AD562D1611569D06980FB0550176A6E
:10230000566987FB0667AD197841D76A966887FBDF
:102310000667AB1940EB07044FF00057DE1944F194
:102320000000850045EA96709062094D906AA842C7
:1023300010DD2846F0BD00008D000020341600207E
:102340008E000020681600200000F0400000D04001
:102350000080FF3F906AB0F1404F02DA4FF04040FA
:10236000E8E7906AE6E72DE9F043024600BF156A08
:102370005562D56A1563D5691562956AD562D161D2
:102380001569D06980FB0550176A566987FB067688
:10239000ED197041576A966987FB0667AE19784157
:1023A000D76A956887FB05C5D2F83080D76888FB67
:1023B0000787B9461CEB080745EB0905F31940EB05
:1023C00005044FF000569E1944F10000850045EACF
:1023D000967090628F4D906AA84202DD2846BDE853
:1023E000F083906AB0F1404F02DA4FF04040F6E7D8
:1023F000906AF4E72DE9F047034600BF1E6A5E626B
:10240000DE6A1E63DE691E629E6ADE62DA611E6932
:10241000D86980FB0670D3F820C05E698CFB06C6C5
:10242000B04617EB0C0640EB0800D3F824C09F69B8
:102430008CFB077CF71940EB0C00D3F82CC09E688E
:102440008CFB0686D3F80CC0D3F8309089FB0C9C2B
:10245000E24618EB090C46EB0A0617EB0C0440EBBE
:1024600006054FF0005C14EB0C0745F100008600F8
:1024700046EA9770986200BF0E6A4E62CE6A0E639B
:10248000CE690E628E6ACE62986AC8610E69C869AA
:1024900080FB0670D1F820C04E698CFB06C6B046A2
:1024A00017EB0C0640EB0800D1F824C08F698CFBB9
:1024B000077CF71940EB0C00D1F82CC08E688CFB20
:1024C0000686D1F80CC0D1F8309089FB0C9C18EB33
:1024D000090846EB0C0617EB080440EB06054FF025
:1024E0000056A61945F10000870047EA96708862F9
:1024F000484E886AB04202DD3046BDE8F087886AFF
:10250000B0F1404F02DA4FF04040F6E7886AF4E756
:1025100041810023036043600022C2600261826146
:10252000C261028180F8282002624262704730B5A1
:10253000C2688A4200DAC16002698A4200DD016134
:1025400001F58042D11381FB0153D0E900426419A7
:102550005A41C0E900420289521C02810289438922
:102560009A420FDBD0E90023C0E90623C268026269
:10257000026942620022C26002610260426002811E
:1025800080F8282030BD2DE9FC478046B8F80A00C5
:1025900014F000FF04460D46D8E90621104614F059
:1025A0000DFF064622462B4614F0A8FC814614F087
:1025B0006DFBCDE9000114F0BBFBBDE8FC8770B5F5
:1025C0000446206A15F0B2FC05464FF08E4115F026
:1025D0007BFB70BD70B50446606A15F0A7FC05462C
:1025E0004FF08E4115F070FB70BD70B5044620466B
:1025F000FFF7F0FF05462046FFF7E1FF06462946B4
:1026000015F0F2FD70BD014691F8280000F00100C0
:10261000704700000080FF3F10B5044621464FF48C
:10262000007002F091FC10BD00B585B0012140F2B0
:10263000012002F089FC002000908DF804008DF844
:1026400005004FF4602002900020039001208DF8D7
:1026500010006946D14803F072F8072301220321D4
:10266000CE4803F004F90121CC4803F094F8CB489C
:1026700003F0B3F800BFC94803F0B4F80028FAD15A
:10268000C64803F0B9F800BFC44803F0BAF8002800
:10269000FAD1012003F010FA0021C04803F07BF8C2
:1026A00005B000BD2DE9F04100240025002780265B
:1026B0000120FFF7B1FF0121B84803F06CF80723B0
:1026C00001221121B54803F0D2F800BF0EE001212C
:1026D000B24803F0A0F800BF0221B04803F00CFAA2
:1026E0000028F9D0AD4803F029F905443000A6F1DF
:1026F0000101CEB2EBD1ED094FF49600B0FBF5F736
:10270000072301221146A54803F0B1F880260EE008
:102710000121A24803F07FF800BF02219F4803F087
:10272000EBF90028F9D09D4803F008F90444300083
:10273000A6F10101CEB2EBD10021984803F02BF8AD
:102740000020FFF769FFE40904FB07F04FF4006184
:1027500001EB400040F6FF71B0FBF1F42046BDE80C
:10276000F08110B5FFF79EFF044641F23600844227
:1027700001D964240DE040F61C40844201D20024BB
:1027800007E0A4F61C446420604340F21A41B0FB09
:10279000F1F48348008864280CD1824800686421E1
:1027A000B0FBF1F08049087000207E4908607C4948
:1027B000088004E07B48006820447A490860784833
:1027C0000088401C7649088077480078FA2801D1B3
:1027D00075490C707448007810BD2DE9F041002453
:1027E0000025002780260120FFF716FF01216B48F6
:1027F00002F0D1FF072301221121684803F037F8C6
:1028000000BF0EE00121654803F005F800BF02217A
:10281000624803F071F90028F9D0604803F08EF89F
:1028200005443000A6F10101CEB2EBD1ED095F48BD
:10283000B0FBF5F7072301221146584803F017F8BB
:1028400080260EE00121554802F0E5FF00BF02217D
:10285000524803F051F90028F9D0504803F06EF8BF
:1028600004443000A6F10101CEB2EBD100214B4867
:1028700002F091FF0020FFF7CFFEE40904FB07F010
:1028800040F6CA0101EB40004900B0FBF1F42046DC
:10289000BDE8F08110B5FFF7A0FF0446B4F5616F05
:1028A00001D964240CE0B4F5486F01D2002407E09C
:1028B000A4F54864642060434FF4C871B0FBF1F4A0
:1028C000204610BD10B5FFF788FF0446B4F57A6FB7
:1028D00001D964240CE0B4F5486F01D2002407E06C
:1028E000A4F54864642060434FF44871B0FBF1F4F0
:1028F000204610BD70B50026002480250120FFF77A
:102900008BFE0121254802F046FF07230122032107
:10291000224802F0ACFF00BF0EE001211F4802F088
:102920007AFF00BF02211D4803F0E6F80028F9D025
:102930001A4803F003F804442800A5F10101CDB2C0
:10294000EBD1E409204670BD70B500260024802537
:102950000120FFF761FE0121104802F01CFF072350
:10296000012211460D4802F082FF00BF0EE0012156
:102970000A4802F050FF00BF0221084803F0BCF8EB
:102980000028F9D0054802F0D9FF04442800A5F139
:102990000101CDB2EBD1E409204670BD0024014015
:1029A000980000209400002090000020C065520094
:1029B00010B5002403E001F0EEFD00B904E020466C
:1029C000611CCCB20A28F6DB00BF012010BD70B537
:1029D00004460D4616463348844209D272B671B693
:1029E0002946601C01F04CFE62B661B6012070BD44
:1029F0000020FCE770B504460D461646294884427F
:102A000009D272B671B62946601C01F0A4FE62B606
:102A100061B6012070BD0020FCE70146012070472F
:102A200010B504F04EF972B671B604F04AF91E49B9
:102A3000012001F025FE62B661B604F042F94FF4C0
:102A40007A740DE004F03DF972B671B604F039F90C
:102A5000A01C164901F014FE62B661B604F031F90B
:102A60002000A4F10104EDD172B671B604F029F989
:102A700001220FA10F480FF0FDF9002211460CA012
:102A800010F026FB04F01DF90BA010F060FA04F022
:102A900018F9002206A110460FF0ECF962B661B6F3
:102AA000012010BD00963A002806002028080020CA
:102AB000303A00004C11002050494F4E2D33000099
:102AC00010B58AB004460121C80202F03DFA012C7B
:102AD00004DD601E80B2ADF8200002E00120ADF8F8
:102AE00020004720ADF81C000020ADF82200ADF812
:102AF0001E008DF8240007A9FD4803F0ADFA01215E
:102B0000FB4804F00FF819208DF8180000208DF80C
:102B1000190001208DF81A008DF81B0006A802F09C
:102B20003CF80121880302F01CFA0020ADF80400F3
:102B30004FF48270ADF806000020ADF808000220C6
:102B4000ADF80A000120ADF80C004002ADF80E000F
:102B50000020ADF81000ADF812000720ADF8140009
:102B600001A9E44803F0B6F80222E34901F1180094
:102B7000FFF795FAE14908600222E14901F11800E6
:102B8000FFF78DFADF4908600222DF4901F11800E2
:102B9000FFF785FADD4908600222DD4901F11800DE
:102BA000FFF77DFADB4908600222DB4901F11800DA
:102BB000FFF775FAD94908600222D74901F11800D8
:102BC000FFF76DFAD64908600AB010BD10B50024B1
:102BD0004FF48050D34908600860086008600860BE
:102BE00008600860086008600860086008600860A5
:102BF0000860086008600860086008600860086095
:102C00000860086008600860086008600860086084
:102C10000860086008600860086008600860086074
:102C20000860086008600860086008600860086064
:102C30000860086008600860086008600860086054
:102C40000860086008600860FF21AA4803F018F9CE
:102C500000BFA8480830008800F002000028F8D023
:102C6000FF21A44803F00CF900BFA24808300088F7
:102C700000F001000028F8D09E4803F003F9044654
:102C800000BF9C480830008800F002000028F8D0FF
:102C9000FF21984803F0F4F800BF964808300088F8
:102CA00000F001000028F8D0924803F0EBF840EA69
:102CB000042400BF8F480830008800F0010000287D
:102CC000F8D08C4803F0DEF840EA04244FF480503A
:102CD0009449091F0860A408A0B210BD70B519205E
:102CE00001F0E0F8054615F039F904468E4914F074
:102CF000EBFF8E49086001217D4803F013FFFFF7C9
:102D000065FFA0F500408A490860084601688948C7
:102D10000078894A12781040884A42F82010854885
:102D20000078401C83490870084600788249097879
:102D3000084000287ED180480078012808D110463C
:102D400000681146496808444010794908600DE060
:102D50007A4800687949496808447849896808448C
:102D60007649C96808448010714908607048006855
:102D700047F6F461884204DC6D48006849428842A5
:102D800005DA6F48006810B901206E49087068487C
:102D90000068C003664908606B48008840F2012261
:102DA000811A904277D010DCB0F5827F49D005DCE3
:102DB000A0F20110C8B101286ED12BE0B0F5847FDC
:102DC00054D0B0F5887FF7D167E0072970D004DCD4
:102DD00001296ED00329EFD1D3E0B1F5007F69D08E
:102DE000A1F2FF510029E7D120E15148026845488E
:102DF000016842480068FFF7FDFA4D49086008463F
:102E000002684448016841480068FFF7F3FA4849FE
:102E1000086017E1464802683A4801683748006888
:102E2000FFF7E8FA42490860084602683948016835
:102E3000364800E03BE10068FFF7DCFA3C490860F7
:102E400000E13B4802682F4801682C480068FFF702
:102E5000D1FA37490860084602682E4801682B48B5
:102E60000068FFF7C7FA32490860EBE030480268B3
:102E70002448016821480068FFF7BCFA2C49086023
:102E8000084602682348016820480068FFF7B2FA44
:102E900027490860D6E00EE0D3E0254802681D48C7
:102EA00001681A480068FFF7A5FA21490860C9E0DF
:102EB00082E04BE09BE01E480268124801680F4820
:102EC0000068FFF797FA1A49086008460168134836
:102ED0000068FFF748FA16490860084602680D487E
:102EE00001680A480068FFF785FA11490860A9E0FF
:102EF000002C01400038004038010020E805002087
:102F000068010020EC050020B8020020F005002038
:102F1000E8020020F405002098040020F8050020B5
:102F2000FC050020140C014000007A44D000002071
:102F3000BC000020D4000020D5000020F0DA0020E2
:102F4000C4000020CC000020C0000020FE48026821
:102F5000FE480168FE480068FFF74CFAFA4908602D
:102F600008460168FB480068FFF7FDF9F64908606C
:102F700008460168F8480068FFF7B5F9F2490860AB
:102F800060E0F1480268F1480168F1480068FFF725
:102F900031FAED49086008460168EE480068FFF71D
:102FA000E2F9E949086008460168EB480068FFF764
:102FB0009AF9E549086045E0E3480268E34801689A
:102FC000E3480068FFF716FADF4908600846016821
:102FD000E0480068FFF7C7F9DB4908600846016868
:102FE000DD480068FFF77FF9D74908602AE0D64836
:102FF0000268D6480168D6480068FFF7FBF9D24955
:10300000086008460268D5480168D3480068FFF7A1
:10301000F1F9CD49086008460268D1480168CD48F9
:103020000068FFF7E7F9C84908600BE0C648026886
:10303000CA480168C8480068FFF7DCF9C24908605F
:1030400000E000BF00BFC748006828B1C54800685D
:10305000401EC449086070BDBB480168C248FFF704
:1030600066FAC2480088002821DDC0480088401E5A
:10307000BE490880B448006814F058FF0546BC48B3
:103080000168284614F0B2FF044614F013FFB94952
:1030900008600846006800F58040C01300B2B649D9
:1030A00009680880B4480068801CB349086000BF04
:1030B000D1E70022AD4B1A80AF4A1060AF4A1180B1
:1030C00002E0002220F811200A00A1F1010399B2C8
:1030D000F7D1AA4A1288A54B1A80704710B5002074
:1030E000A249088001221103A54802F074FA0020C9
:1030F000A449086048608860C860A349087046F227
:10310000A810984908600A2000F0CCFE9F4908806A
:103110008F480068FFF75AF88C480068FFF756F8A8
:103120008D480068FFF752F88C480068FFF74EF8AA
:1031300088480068FFF74AF889480068FFF746F8B2
:103140009248008840F20122811A90427DD010DC22
:10315000B0F5827F67D005DCA0F20110C8B101286C
:1031600074D13BE0B0F5847F71D0B0F5887FF7D1A2
:10317000AAE007296CD004DC01296AD00329EFD129
:103180005BE1B1F5007F65D0A1F2FF510029E7D1E5
:10319000D0E16F487E49026801F11800FFF726F878
:1031A0006A487C49026801F11800FFF71FF86A4875
:1031B0007949026801F11800FFF718F86748774964
:1031C000026801F11800FFF711F803207449087034
:1031D00046F2A8116448FFF79BF9C7E15C487149C2
:1031E000026801F11800FFF701F858486E490268BB
:1031F00001F11800FEF7FAFF57486C49026801F127
:103200001800FEF7F3FF55486949026801F11800FC
:10321000FEF7ECFF01206249087046F2A8115248FF
:10322000FFF776F9A2E14A486249026801F1180005
:10323000FEF7DCFF45486049026801F11800FEF71F
:10324000D5FF45485949026805E062E08DE116E086
:1032500018E1CDE03BE101F11800FEF7C7FF3F4860
:103260005349026801F11800FEF7C0FF01204C49E4
:10327000087046F2A8113C48FFF74AF976E1344855
:103280004E49026801F11800FEF7B0FF2F484C4983
:10329000026801F11800FEF7A9FF2F4843490268B0
:1032A00001F11800FEF7A2FF2C484149026801F124
:1032B0001800FEF79BFF01203949087046F2A8115B
:1032C0002948FFF725F951E121483E49026801F1FB
:1032D0001800FEF78BFF1D483B49026801F11800FA
:1032E000FEF784FF1C483149026801F11800FEF71F
:1032F0007DFF1A482E49026801F11800FEF776FF9B
:1033000001202749087046F2A8111748FFF700F975
:103310002CE10F481E49026801F11800FEF766FF14
:103320000A481C49026801F11800FEF75FFF0A48CD
:103330001949026801F11800FEF758FF07481749BC
:10334000026801F1180041E0BC000020EC050020FB
:10335000E8050020F8050020F0050020F405002015
:10336000FC050020C400002000DB0020B800002085
:10337000D0000020C8000020B4000020BA000020C7
:10338000000C0140F0DA0020D4000020C000002032
:10339000A8030020D8030020B8020020E802002083
:1033A000D50000203801002068010020180300200B
:1033B0004803002098010020C8010020F8010020E7
:1033C000280200205802002088020020FEF70EFF8D
:1033D000F948FA49026801F11800FEF707FF0320D7
:1033E000F749087046F2A811F648FFF791F8BDE0DA
:1033F000F548F649026801F11800FEF7F7FEF448B7
:10340000F449026801F11800FEF7F0FEF248F349B2
:10341000026801F11800FEF7E9FEE748F04902688A
:1034200001F11800FEF7E2FE0120E549087046F2BE
:10343000A811E448FFF76CF898E0E348E94902680E
:1034400001F11800FEF7D2FEE148E749026801F1F8
:103450001800FEF7CBFEE048E049026801F11800D1
:10346000FEF7C4FED448DE49026801F11800FEF7F9
:10347000BDFE0120D249087046F2A811D148FFF7DD
:1034800047F873E0D048D949026801F11800FEF707
:10349000ADFECF48D649026801F11800FEF7A6FE3E
:1034A000CD48CE49026801F11800FEF79FFEC248E0
:1034B000CB49026801F11800FEF798FE0120C049CF
:1034C000087046F2A811BF48FFF722F84EE0BE4848
:1034D000C849026801F11800FEF788FEBC48C649D9
:1034E000026801F11800FEF781FEBB48C34902687B
:1034F00001F11800FEF77AFEC148C249026801F1E5
:103500001800FEF773FEAC48BF49026801F11800CD
:10351000FEF76CFEBD48BE49026801F11800FEF7D7
:1035200065FE0320A649087046F2A811A548FEF7DB
:10353000EFFF1BE0A848B749026801F11800FEF749
:1035400055FEAF48B449026801F11800FEF74EFE7F
:1035500001209B4908704FF22440B049086046F2B0
:10356000A8119848FEF7D4FF00BF00BF00BF01219B
:10357000AB4802F054FC0121AA4802F0F9FF0122F5
:103580001146A84803F00FF810BD10B50020A64959
:10359000087000220121A34803F005F80021A1488A
:1035A00002F0E6FF01219F4803F0BCFA00219C488D
:1035B00002F035FC00224FF480519C4802F00BF8D9
:1035C00010BD9B480088002801DD012070470020C5
:1035D000FCE79848008800280CDD9648008894494C
:1035E0000988401A6421484392490988B0FBF1F0E8
:1035F000C0B270470020FCE700B500BFFFF7E1FF55
:103600000128FBD000BD2DE9F74F86B089469246D0
:103610000120FCF794FE45F6C0516A48FEF778FF9A
:1036200085A1069810F021FD8346BBF1000F7DD0E7
:1036300000220421584610F04DFC0DE0BDF91000A9
:103640004FF48041C1EBC0344FF4967094FBF0F519
:1036500029465C48FEF76BFF5B460122022104A865
:1036600012F002FB0128E9D05648FEF7A8FF734983
:1036700008600868724914F0B9FC054614F036FC7D
:10368000A9F800006D4908686D4914F0AFFC0546C3
:1036900014F02CFC80B2ADF80C0000220421584636
:1036A00010F018FC45F6C0514648FEF731FF464879
:1036B0004E49026801F11800FEF798FD44484C4954
:1036C000026801F11800FEF791FD43484349026882
:1036D00001F11800FEF78AFD37484149026801F1FF
:1036E0001800FEF783FD31E0BDF910004FF4804172
:1036F000C1EBC03422463648016833480068FEF703
:1037000079FE044621462C480068FEF72CFE04464C
:10371000214631480068FEF7E6FD0446204613F0D6
:1037200022FE484A484BCDE9000100E033E013F0A7
:10373000C7FE07460022454B13F0E0FB054613F099
:1037400071FD014602901F48FEF7F1FE5B46012223
:10375000022104A812F088FA0128C5D01948FEF702
:1037600012FF364948604868354914F03FFC054669
:1037700014F0BCFBAAF8000030494868304914F046
:1037800035FC054614F0B2FB80B2ADF80E00584689
:1037900010F092FC04E00020A9F80000AAF8000054
:1037A0004FF4FA70A9F8000041F2F450AAF80000B2
:1037B00003A809B0BDE8F08FF805002098040020A8
:1037C000D500002000DB0020E805002038010020A3
:1037D000EC05002068010020F0050020780300209F
:1037E000F804002098010020C8010020F801002002
:1037F00028020020D80000200801002088050020B1
:10380000F4050020B805002028050020FC05002054
:1038100058050020B8020020E8020020C400002063
:1038200000380040002C0140CC000020000C01407A
:10383000B8000020BA0000207200000030DB002039
:103840000000C842D122DBF97EEA344000C0724059
:10385000F8B506460120FCF772FD46F2A811CA48E9
:10386000FEF756FEAFF23001304610F0FEFB044684
:10387000002C59D000220421204610F02BFBC34815
:10388000C349026801F11800FEF7B0FCC148C24903
:10389000026801F11800FEF7A9FCC048C04902689F
:1038A00001F11800FEF7A2FCBE48BF49026801F111
:1038B0001800FEF79BFC1DE0BDF900004FF48041AD
:1038C000C1EBC0352A46B3480168B0480068FEF72E
:1038D00091FD05462A46B3480168B0480068FEF7E6
:1038E00089FD05464FF4967095FBF0F73946A648DA
:1038F000FEF71DFE234601220221684612F0B4F9AC
:103900000128D9D0A048FEF73EFEA849086020460D
:1039100010F0D2FBA5490868A54914F067FB0746DB
:1039200014F0E4FA80B2F8BD0020FCE72DE9F14F75
:1039300082B00120FCF703FD45F6C0519248FEF726
:10394000E7FDAFF20C11029810F08FFB8346BBF13C
:10395000000F71D000220421584610F0BBFA46F245
:10396000A8118948FEF7D4FD88488949026801F109
:103970001800FEF73BFC87488749026801F11800F0
:10398000FEF734FC85488B49026801F11800FEF708
:103990002DFC89488949026801F11800FEF726FCD0
:1039A0002EE0BDF904004FF48041C1EBC03A52460D
:1039B0007848016875480068FEF71CFD824651464C
:1039C0007D480068FEF7CFFC824651467348006888
:1039D000FEF789FC8246504613F0C5FC0646784A3D
:1039E000784B13F06DFD04460022774B13F086FAF6
:1039F000804613F017FC014600906348FEF797FDE0
:103A00005B460122022101A812F02EF90128C8D03C
:103A10005D48FEF7B8FD6D494860584610F04CFB14
:103A20006A494868624914F0E1FA044614F05EFA03
:103A300080B2BDE8FE8FFFE70020FAE72DE9F14FE5
:103A400084B00120FCF77BFC41F288314E48FEF740
:103A50005FFDAFF21C21049810F007FB8246BAF11B
:103A6000000F7DD000220421504610F033FA474861
:103A70005749026801F11800FEF7B8FB454855495F
:103A8000026801F11800FEF7B1FB44485249026890
:103A900001F11800FEF7AAFB42485049026801F103
:103AA0001800FEF7A3FB44484D49026801F11800D5
:103AB000FEF79CFB4B484C49026801F11800FEF7E9
:103AC00095FB40E0BDF90810BDF90A20881800EB0D
:103AD000D071491009B2ADF80810BDF908004FF4D3
:103AE0008041C1EBC03B5A462A480168274800681C
:103AF000FEF780FC83465A462A480168274800683A
:103B0000FEF778FC83465A46364801682A48006822
:103B1000FEF770FC8346584614F008FA009014F043
:103B200039F80646314A324B13F0CAFC04460022EB
:103B3000254B13F0E3F9804613F074FB0146019026
:103B40001148FEF7F4FC53460222114602A812F077
:103B50008BF80228B6D00C48FEF715FD254900E089
:103B60000FE04860504610F0A7FA22494868104913
:103B700014F03CFA044614F0B9F980B205B0BDE87F
:103B8000F08F0020FAE7000000DB0020E8050020AD
:103B9000F8010020EC05002028020020F00500209C
:103BA00018030020F4050020480300203CDB00201F
:103BB0000000C84278030020F8050020F804002027
:103BC000D122DBF97EEA344000C0724048DB00209D
:103BD000D80000200801002088050020B80500203A
:103BE00028050020FC0500205805002085EB51B871
:103BF0001EB9784054DB002010B54FF40061A34893
:103C000001F0CBFC30B9A248007840F00100A04997
:103C1000087005E09E48007820F001009C4908707B
:103C20004FF480719B4801F0B8FC30B99848007897
:103C300040F002009649087005E09548007820F0B1
:103C40000200934908700121904801F0A6FC30B9A8
:103C50008F48007840F004008D49087005E08C48DA
:103C6000007820F004008A4908704FF4806187488A
:103C700001F093FC30B98648007840F00800844990
:103C8000087005E08248007820F00800804908703C
:103C900002217E4801F081FC30B97D48007840F077
:103CA00010007B49087005E07948007820F010008A
:103CB00077490870764800787749097888427DD03E
:103CC00076480078002879D17348007800F0010028
:103CD00050B96F48007800F0010028B170480068C2
:103CE00040F001006E4908606B48007800F0020067
:103CF00002280BD06648007800F00200022805D1A7
:103D00006748006840F00200654908606248007832
:103D100000F0040004280BD05D48007800F0040097
:103D2000042805D15E48006840F004005C49086042
:103D30005948007800F0080008280BD05448007853
:103D400000F00800082805D15548006840F0080038
:103D5000534908605048007800F0100010280BD03C
:103D60004B48007800F01000102805D14C4800683E
:103D700040F010004A4908604748007800F0010010
:103D800050B14348007800F0010028B94448006869
:103D900040F02000424908603F48007800F00200EF
:103DA00002280DD13A48007800F00200022807D01E
:103DB0003B48006840F04000394900E03DE00860C1
:103DC0003548007800F0040004280BD13048007812
:103DD00000F00400042805D03148006840F080005D
:103DE0002F4908602C48007800F0080008280BD103
:103DF0002748007800F00800082805D02848006807
:103E000040F48070264908602348007800F01000D4
:103E100010280BD11E48007800F01000102805D0A3
:103E20001F48006840F400701D4908601848007879
:103E3000194908701E201949087018480078002890
:103E400004DD16480078401E1449087010BD014674
:103E500013480068084030B1114800688843104A90
:103E60001060002070470120FCE70D49096881437C
:103E70000B4A116070470146054800780840002849
:103E800001DD002070470120FCE70000000C01402C
:103E90000006002000100140010600200806002056
:103EA0000406002070B504461D2C01D3002070BD0F
:103EB000A84800EBC400807902282ED100F0A8F9B0
:103EC0001CB9012000F052FAF1E7012C0ED10320B9
:103ED00000F04CFA0546022000F048FA00EBC00161
:103EE00001EB001005EB800080B2E0E7022C0ED160
:103EF000052000F03BFA0546042000F037FA00EBFD
:103F0000C00101EB001005EB800080B2CFE7032C6D
:103F100003D1062000F02AFAC9E70D2C02D140F2A5
:103F20005310C4E78C4830F81400C0E773B504465A
:103F30001D2C01D300207CBD864800EBC4004088C6
:103F4000BDF80410884204DA824800EBC4004088BF
:103F50000190804830F83400BDF80410884203DD39
:103F60007C4830F8340001907A4800EBC400807936
:103F7000012814D1022000EB440081B2022301AADF
:103F8000002000F043FC744800EB4402022000EBE8
:103F9000440081B20223002000F022FC50E06D4872
:103FA00000EBC4008079022845D100F031F924B932
:103FB000BDF80410012000F08BF9012C15D1BDF8DB
:103FC0000400642190FBF1F085B22946022000F044
:103FD0007FF9BDF80400642190FBF1F201FB1200AF
:103FE00085B22946032000F073F9022C19D1BDF8DF
:103FF0000400642190FBF1F085B22946042000F012
:1040000067F9BDF80400642190FBF1F201FB120096
:1040100085B22946052000F05BF90021062000F05A
:1040200057F9032C04D1BDF80410062000F050F914
:1040300000F0FCF804E0BDF80410474820F8141024
:10404000454830F81400BDF80410884201D0002023
:1040500071E701206FE7002007E03E4901EBC00156
:104060008A883D4921F81020401C1D28F5D370474F
:10407000F8B5012600243CE0364800EBC400807906
:10408000012835D1022000EB4405334800EB4402FF
:10409000A9B20223002000F0A3FB2F4830F814003F
:1040A0002C4901EBC4014988884207DC2A4830F8D2
:1040B0001400284931F83410884219DA254800EBF9
:1040C000C400021DA9B20223002000F09FFBA9B288
:1040D00002236A46002000F083FB1E4800EBC40068
:1040E0008088BDF80010884201D0002600E001263B
:1040F000641C1D2CC0D33046F8BD10B5FFF7ABFFD4
:104100000223154A921E0021084600F069FB12485E
:10411000801E0088B0F5D35F19D04FF4D3500E49FC
:10412000891E08803C230A460021084600F06EFBE9
:104130000223094A921E0021084600F051FB06485E
:10414000801E0088B0F5D35F01D0002010BDFFF7BE
:104150008FFFFBE7D682020862DB002010B500204B
:104160009B490860486088600120C86000200861A1
:1041700046204861084610F060F9044601F03CFD15
:10418000204601F006FD01F037FD10BD10B50121FC
:104190004FF0C05000F0E5FE8E48FCF7CBF8012050
:1041A00002F031FD042002F0F6FC4AF6AA21884212
:1041B00028D002F0BBFC012000F033FE00BF4120FC
:1041C00000F097FD0028FAD04FF4807000F045FE13
:1041D000012000F048FE01F018FD01F00DFD012165
:1041E000084601F0ADFC47F6FF7001F0DFFC01F07E
:1041F00003FDFFF7B3FF4AF6AA21042002F0BFFC3B
:10420000002010BD01F001FD01F0F6FC0120F8E7EF
:1042100038B501F0B5FC0090684610F0E9F80446A6
:104220002C2221466A480FF0F5FF38BD10B56848CA
:1042300010F003F9044601F0DFFC204601F0A9FC70
:1042400001F0DAFCFFF7E4FF10BD40F26C71884228
:1042500004DBA0F26C715E4A516103E040F26C71C4
:104260005B4A516170470C2801DD0C2002E00128F7
:1042700000DA0120411E564A116170471F2803DDF4
:104280001F21534AD16007E0012803DA0121504A77
:10429000D16001E04E49C8607047172803DD17213F
:1042A0004B4A916001E04A49886070473B2803DD32
:1042B0003B21474A516001E04549486070473B282F
:1042C00003DD3B21424A116001E04149086070472B
:1042D000072848D2DFE800F04704121D2C353E00C5
:1042E00040F26C72914204DBA1F26C72384B5A615D
:1042F00003E040F26C72364B5A6135E00C2901DD67
:104300000C2102E0012900DA01214A1E304B1A611A
:104310002AE01F2903DD1F222D4BDA6007E0012967
:1043200003DA01222A4BDA6001E0294AD1601BE05E
:10433000172903DD1722264B9A6001E0244A916079
:1043400012E03B2903DD3B22214B5A6001E0204A69
:10435000516009E03B2903DD3B221D4B1A6001E05F
:104360001B4A116000E000BF00BF704701460729EB
:1043700020D2DFE801F01F040A0F13171B001448B6
:10438000808A00F26C7080B270471148008A401C2D
:1043900080B2F9E70E48808980B2F5E70C480089C1
:1043A00080B2F1E70A48808880B2EDE708480088CB
:1043B00080B2E9E70020E7E710B5012001F037FC03
:1043C000012803D101F03EFC012010BD0020FCE7D4
:1043D0009CDB0020400D0300FD48806940F0010097
:1043E000FB4988610846806940F004008861F9480B
:1043F000006840F44030F74908600846006820F43F
:10440000402008601020F34910310860F14800682E
:1044100040F44010EF4908600846006820F440006E
:1044200008600846006840F400000860084600681C
:1044300020F0407008600846006820F04060086086
:104440000846006840F0006008604020E1491031F3
:104450000860E048006840F04050DE4908600846C7
:10446000006820F0404008600846006840F00040C6
:104470000860D748806940F48050D54988610020A1
:10448000D5498880042008800846008840F0100044
:1044900008800846008840F480700880084600883C
:1044A00040F4007008800846008840F04000088012
:1044B0007047014600BFC848008900F0020000288C
:1044C000F9D0C548818100BFC348008900F00100D0
:1044D0000028F9D0C0488089C0B2704770B5024644
:1044E0000B460026BD48007820B9112A01D0182AB1
:1044F00000D15B024FF48010B6491031086042F0E1
:104500004000FFF7D6FF180EFFF7D3FFC3F30740B5
:10451000FFF7CFFFC3F30720FFF7CBFFD8B2FFF7BA
:10452000C8FF082A03D18720FFF7C3FF02E09520C8
:10453000FFF7BFFF05E03046711CCEB2FE2800DD5C
:1045400005E0FF20FFF7B5FF0446FF28F3D000BFCA
:10455000C4B93A2A16D1FF20FFF7ABFF054605F094
:10456000400018B101209D49087002E000209B49DD
:104570000870FF20FFF79DFFFF20FFF79AFFFF2045
:10458000FFF797FFFF20FFF794FF102091491031AC
:104590000860204670BDF0B502270024FFF71CFF1D
:1045A00010208C4910310860002504E0FF20FFF73F
:1045B00080FF681CC5B20A2DF8DB4FF480108549D6
:1045C0001031086006E02046611C8CB2202801DD15
:1045D0000220F0BD00210846FFF780FF0128F2D13C
:1045E00010207C4910310860FF20FFF762FFFF2098
:1045F000FFF75FFF002406E02046611C8CB2FE2816
:1046000001DD012706E04FF4D5710820FFF766FFB2
:104610000128F1D100BF002400BF00213720FFF79F
:104620005DFF06464FF080412920FFF757FF064601
:10463000601C84B240F6FE70844201DD0120C8E7B0
:10464000002EEAD10024002064490870022F0DD109
:1046500005E02046611C8CB2FE2800DD05E000214B
:104660003A20FFF73BFF0028F3D100BF0020B0E75E
:1046700001F080007047704770477047704770477F
:104680002DE9F04107460C464FF000083946182046
:10469000FFF724FF08B1BDE8F0814FF480104D49C9
:1046A00010310860FE20FFF704FF002605E014F833
:1046B000010BFFF7FEFE701C86B2B6F5007FF6DB3D
:1046C000FF20FFF7F6FEFF20FFF7F3FEFF20FFF7C6
:1046D000F0FE054605F01F00052804D010203D49D6
:1046E00010310860D7E70CE04046411C1FFA81F802
:1046F0004FF6FE71884204DD102036491031086003
:10470000C9E7FF20FFF7D5FE0028EDD01020314982
:1047100010310860FF20FFF7CCFE4FF480102D49C8
:10472000103108600CE04046411C1FFA81F84FF63A
:10473000FE71884204DD1020264910310860AAE786
:10474000FF20FFF7B6FE0028EDD0102021491031E0
:10475000086000BF9FE770B506460C46002531464D
:104760001120FFF7BBFE00B170BD4FF48010194956
:10477000103108600BE02846691C8DB24FF6FE71BF
:10478000884204DD1020134910310860ECE7FF2057
:10479000FFF78FFEFE28EED1002506E0FF20FFF791
:1047A00088FE04F8010B681C85B2B5F5007FF5DBC7
:1047B000FF20FFF77EFEFF20FFF77BFEFF20FFF7C5
:1047C00078FE102003491031086000BFCCE70000DC
:1047D0000010024000080140003001400C0600209B
:1047E0002DE9F04107460C4616461D461449384649
:1047F000FFF7B1FF6019B0F5007F05DC1048011923
:104800002A4630460FF0C1FCBDE8F0812DE9F041A9
:1048100007460C4616461D4609493846FFF79BFFDA
:104820006019B0F5007F05DC054908192A463146B4
:104830000FF0ABFC02493846FFF722FFBDE8F081DC
:10484000C8DB002000B585B06548006830B965A1B7
:1048500065A00FF00AFC6249086009E06048006842
:104860000FF02AFC5FA160A00FF0FFFB5C4908601D
:104870005B48006878B16A465EA1594800680FF04D
:104880009FFA574800680FF017FC56A168460FF0D2
:10489000ECFB53490860002005B000BD10B550483E
:1048A000006818B14E4800680FF006FC10BD70B5E6
:1048B00005460C464A48006810B94FF0FF3070BDFD
:1048C0002022102128460FF0D7FC14B94FF0FF30FA
:1048D000F5E7601E01010022414800680FF0FAFA76
:1048E0003F48102201210368284611F0BDF9102825
:1048F0000AD1287830B9102128460FF0C5FC4FF0B6
:10490000FF30DCE70020DAE74FF0FF30D7E730B5C3
:10491000ADF27C6D0024002507F0FEF83648FBF769
:1049200009FD04F078FC72B671B6012233A1684625
:104930000DF0A0FA0A2232A10DF58B600DF0C5FA38
:1049400032A22CA10DF58B600EF063FF0DF58B618B
:1049500000200EF019FF01240CE023462FA231A104
:104960000DF58B600EF055FFE0B20DF58B610EF08A
:104970000BFF641CB4F57A7FEFDBDDF864540DF5B2
:104980008B600DF072FD212201211DA00EF085F932
:104990000A2228A10DF58B600DF097FA28A215A127
:1049A0000DF58B600EF035FF0DF58B600DF05DFDA4
:1049B0000A2225A18DA80DF088FA21A20DA18DA8AB
:1049C0000EF027FF8DA80DF050FD00220BA1104620
:1049D0000DF050FA62B661B628460DF27C6D30BD1E
:1049E00010060020720000004D3A5C526F61642E88
:1049F0006C6F670025730000A0860100303A00004C
:104A0000303A526F61642E3000000000E1E5E7208B
:104A1000ECE0F0F8F0F3F2E020202000F2EEF7EA0C
:104A2000E000000025732025303375202020202051
:104A300020000000303A526F61642E6C6F670000F6
:104A4000526F61642E300000303A526F6164732EF1
:104A5000747874000CB500200190009048480068FC
:104A600040F480304649086000BF4548006800F4C3
:104A7000003000900198401C0190009818B90198EE
:104A8000B0F5A06FF1D13E48006800F4003010B1DD
:104A90000120009001E0002000900098012844D1FE
:104AA0003848006840F01000364908600846006841
:104AB00020F0030008600846006840F0020008602B
:104AC0002F4840682E4948600846406848600846BC
:104AD000406840F4806048600846406820F47C10DC
:104AE00048600846406840F4E8104860084600689E
:104AF00040F08070086000BF2148006800F000703E
:104B00000028F9D01E48406820F003001C49486086
:104B10000846406840F00200486000BF18484068FE
:104B200000F00C000828F9D101E000BFFEE70CBD41
:104B300010B5FFF78FFF10BD10B51148006840F0A9
:104B400001000F490860084640680F4908400C49B9
:104B50004860084600680D49084009490860084651
:104B6000006820F4802008600846406820F4FE00B9
:104B700048604FF41F008860FFF7DAFF10BD0000A7
:104B800000100240002002400000FFF8FFFFF6FE88
:104B900031490143314A1160704770B5002100234B
:104BA0000F22C47804B32D4C246804F4E064C4F5E7
:104BB000E064210AC1F10403CA40447804FA03F115
:104BC0008478144021430901254C0678A1550478C6
:104BD00004F01F050124AC4005786D11AD0005F10E
:104BE000E025C5F8004109E0047804F01F05012420
:104BF000AC401C4D0678761145F8264070BD1A4A27
:104C00000A400243154B1B1F1A60704739B1134A03
:104C1000121D12680243114B1B1D1A6006E00F4A59
:104C2000121D126882430D4B1B1D1A607047042829
:104C300008D14FF0E021096941F004014FF0E02272
:104C4000116107E04FF0E021096921F004014FF004
:104C5000E0221161704700000000FA050CED00E051
:104C600000E400E080E100E080FFFF1FDF48006813
:104C700040F00100DD49086008464068DC49084012
:104C8000DA49486008460068DA490840D7490860B0
:104C90000846006820F4802008600846406820F438
:104CA000FE0048604FF41F0088607047CF490968D4
:104CB00021F48031CD4A11601146096821F4802128
:104CC0001160B0F5803F03D0B0F5802F0ED106E023
:104CD000C649096841F48031C44A116007E0C349FC
:104CE000096841F4A021C14A116000E000BF00BF83
:104CF000704710B501460022002300204A11012A06
:104D000002D1BA4C236806E0022A02D1B74C236ACA
:104D100001E0B64C636A01F01F02012494401C407C
:104D20000CB1012000E0002010BD38B5002000903B
:104D30000024002500BF3120FFF7DBFF0546009867
:104D4000401C00900098B0F5A06F01D0002DF2D06B
:104D50003120FFF7CEFF08B1012400E000242046F7
:104D600038BD01460020A14A106820F0F80040EA52
:104D7000C10010607047A0490860704702460020DB
:104D80009A4B586820F47C1042EA01031843974B71
:104D90005860704798490866704701460020934A5A
:104DA000506820F003000843506070478F48406807
:104DB00000F00C007047014600208C4A506820F03B
:104DC000F00008435060704701460020874A506851
:104DD00020F4E06008435060704701460020834A99
:104DE000506820F4605040EAC1005060704729B11B
:104DF0007E4A527A02437D4B5A7204E07B4A527AD1
:104E000082437A4B5A7270477B49D83108607047A9
:104E100001460020754A506820F440400843506025
:104E200070470021714A20321170704A82F82010B8
:104E3000012802D004280AD104E001216B4A203263
:104E4000117005E00521694A2032117000E000BFB1
:104E500000BF70476949086070476449096A0143A7
:104E6000624A11627047654944390860704730B53D
:104E700000210022002400235C4D6D6805F00C0128
:104E800021B1042905D0082923D105E05C4D056036
:104E900022E05B4D05601FE0544D6D6805F4701213
:104EA000524D6D6805F48034022505EB92421CB921
:104EB000544D554305600BE04C4D6D6805F40035CD
:104EC0001DB1504D5543056002E04D4D5543056001
:104ED00002E04B4D056000BF00BF444D6D6805F01A
:104EE000F0010909484D6B5C0568DD4045603F4DA8
:104EF0006D6805F4E061090A434D6B5C4568DD406F
:104F000085603A4D6D6805F46051C90A3E4D6B5C91
:104F10004568DD40C560354D6D6805F44041890B3D
:104F20003A4D6B5CC568B5FBF3F5056130BD29B141
:104F30002E4A526902432D4B5A6104E02B4A5269B2
:104F400082432A4B5A61704729B1284A9269024329
:104F5000264B9A6104E0254A92698243234B9A6169
:104F6000704729B1214AD2690243204BDA6104E03B
:104F70001E4AD26982431D4BDA61704729B11B4A30
:104F8000D2680243194BDA6004E0184AD2688243BF
:104F9000164BDA60704729B1144A12690243134B69
:104FA0001A6104E0114A12698243104B1A6170477A
:104FB00012494039086070470F49C86470470B496F
:104FC000C87170470948406A40F0807007494862DC
:104FD000704701460020054A92680A400AB1012044
:104FE00000E00020704701498872704700100240BD
:104FF0000000FFF8FFFFF6FE00004242800442423C
:1050000000127A0000093D0014060020240600204A
:1050100010B50446E248844209D101218803FFF714
:10502000ADFF00214FF48040FFF7A8FF32E0DD48DC
:10503000844209D101214804FFF7ADFF00214FF45C
:105040000030FFF7A8FF25E0D748844209D10121AD
:105050008804FFF7A0FF00214FF48020FFF79BFF9B
:1050600018E0D248844209D10121C804FFF793FF18
:1050700000214FF40020FFF78EFF0BE0CC48844264
:1050800008D101210805FFF786FF00214FF48010A9
:10509000FFF781FF10BD2DE9F04786B005460E46AB
:1050A0000024A24600BF00BF0027B08900B100BFA6
:1050B0002F462C8A4CF6FF700440F08804432C8263
:1050C000AC894EF6F3100440B088318908437189E9
:1050D00008430443AC81AC8A4FF6FF400440B089DA
:1050E0000443AC8201A8FFF7C2FEAD48874202D15B
:1050F000DDF810A001E0DDF80CA00AEBCA0000EB1F
:105100000A1031688900B0FBF1F86420B8FBF0F0B8
:1051100004012009642101FB1089322000EB0910F1
:10512000B0FBF1F000F00F0004432C8106B0BDE8A5
:10513000F0874FF41651016000218180C180018108
:105140000C21418100218181704710B50246002069
:10515000108A4FF2FF0318400B884C8823438C8839
:105160002343CC8823431843108210BD00210180C3
:1051700041808180C180704721B1828942F4005210
:10518000828104E082894DF6FF731A408281704764
:10519000F0B50346002400260025002040F66A17DB
:1051A000B94200D100BF1846C1F3421401F01F06F6
:1051B000012707FA06F5012C01D10C3004E0022C7E
:1051C00001D1103000E014301AB107682F43076096
:1051D00002E00768AF430760F0BD1AB1838A0B4352
:1051E000838202E0838A8B4383827047028A4FF670
:1051F000F0731A400282028A0A430282704782894F
:105200004FF2FF731A40828182890A43828170477C
:1052100021B1828942F00202828104E082894FF644
:10522000FD731A4082817047028A4FF6DF731A407D
:105230000282028A0A430282704721B1028A42F442
:105240008042028204E0028A4BF6FF731A40028217
:105250007047C1F308028280704701468888C0F316
:1052600008007047818941F0010181817047028BFC
:10527000D2B20283028B42EA012202837047028B80
:1052800002F47F420283028B0A430283704721B1FA
:10529000828A42F02002828204E0828A4FF6DF7323
:1052A0001A408282704721B1828A42F010028282C3
:1052B00004E0828A4FF6EF731A408282704721B170
:1052C000828A42F00802828204E0828A4FF6F773F3
:1052D0001A4082827047828A4FF6FB731A4082829C
:1052E000828A0A438282704721B1828A42F0020296
:1052F000828204E0828A4FF6FD731A4082827047F0
:1053000002460020B1F5007F00D100BF13880B409A
:105310000BB1012000E00020704701F40072B2F5EB
:10532000007F00D100BFCA430280704770B50246BB
:10533000002400230025002040F66A16B14200D167
:1053400000BFC1F3421501F01F03012606FA03F363
:10535000012D02D19689334006E0022D02D1168A32
:10536000334001E0968A33400C12012606FA04F419
:105370001688344013B10CB1012000E0002070BD4C
:1053800010B50022002340F66A14A14200D100BFEC
:105390000A1201249440A3B2DC43048010BD000033
:1053A000003801400044004000480040004C0040EC
:1053B0000050004010B50446C448844208D1012181
:1053C0000420FFF7DBFD00210420FFF7D7FD46E0B6
:1053D000BF48844208D101210820FFF7CFFD0021FA
:1053E0000820FFF7CBFD3AE0BA48844208D10121FA
:1053F0001020FFF7C3FD00211020FFF7BFFD2EE0B6
:10540000B548844208D101212020FFF7B7FD0021D3
:105410002020FFF7B3FD22E0B048844208D10121EB
:105420004020FFF7ABFD00214020FFF7A7FD16E06D
:10543000AB48844208D101218020FFF79FFD002165
:105440008020FFF79BFD0AE0A648844207D1012196
:105450008015FFF793FD0021A015FFF78FFD10BD0C
:1054600010B501210846FFF789FD00210120FFF753
:1054700085FD10BD2DE9F0410246002500260020E3
:1054800000230024002791F803C00CF00F0591F8C9
:1054900003C00CF0100CBCF1000F03D091F802C057
:1054A0004CEA050591F800C0BCF1000F31D014683A
:1054B00000202BE04FF0010C0CFA00F3B1F800C013
:1054C0000CEA03069E4220D183004FF00F0C0CFA29
:1054D00003F7BC4305FA03FC4CEA040491F803C04B
:1054E000BCF1280F06D14FF0010C0CFA00FCC2F8F9
:1054F00014C00AE091F803C0BCF1480F05D14FF089
:10550000010C0CFA00FCC2F810C0401C0828D1D3D2
:105510001460B1F800C0BCF1FF0F34DD5468002006
:105520002EE000F1080C4FF0010808FA0CF3B1F876
:1055300000C00CEA03069E4221D183004FF00F0CFD
:105540000CFA03F7BC4305FA03FC4CEA040491F897
:1055500003C0BCF1280F05D100F1080C08FA0CF8C3
:10556000C2F8148091F803C0BCF1480F07D100F1D4
:10557000080C4FF0010808FA0CF8C2F81080401C23
:105580000828CED35460BDE8F0814FF6FF7101804A
:10559000022181700421C170704702460020936887
:1055A0000B400BB1012000E00020704701468868E5
:1055B00080B2704702460020D3680B400BB1012037
:1055C00000E0002070470146C86880B27047016162
:1055D0007047416170470AB1016100E04161704765
:1055E000C16070474FF480320A43826181618261F9
:1055F000826982697047024600203B4B18684FF66B
:105600008073184040EA02100843374B1860704717
:105610003649C8617047F0B50A46002300240021CE
:105620000025314E7168C0F3034583B200F4401683
:10563000B6F5401F08D121F070612B4E766826F038
:105640007066294F7E6012E000F48016B6F5801F68
:1056500006D1032606FA05F4A14341F0706106E085
:10566000460D360103FA06F6B14341F0706122B1EE
:10567000460D360103FA06F631431B4E7160F0BD4C
:1056800030B500228B071C0F0F2303FA04F2164BD0
:1056900008338C1053F824309343134C08348D1086
:1056A00044F8253023468C1053F824308C07240FFF
:1056B00000FA04F423430C4C08348D1044F82530D0
:1056C00030BD0A49DC310860704700000008014025
:1056D000000C01400010014000140140001801407E
:1056E000001C014000200140000001400000204259
:1056F00010B50446FA48844208D101214015FFF74D
:105700003DFC00216015FFF739FC17E0F5488442A5
:1057100008D101210015FFF731FC00212015FFF70A
:105720002DFC0BE0F048844208D10121C803FFF7AB
:1057300025FC00214FF40040FFF720FC10BD30B5E0
:105740000246002000235068E84C20400D790C6888
:1057500044EA0524204350609068E54C2040D1E99C
:1057600002542C434D7944EA450420439060D06AAA
:1057700020F470000C7C641EE4B2234340EA035022
:10578000D06230BD00210160017141718160C16052
:1057900001210174704721B1826842F001028260E8
:1057A00003E0826822F001028260704721B18268C2
:1057B00042F48072826003E0826822F48072826028
:1057C000704710B50023CBB21AB144681C43446043
:1057D00002E044689C43446010BD816841F00801C8
:1057E00081607047014600208A6802F008020AB111
:1057F000012000E000207047816841F004018160D1
:105800007047014600208A6802F004020AB10120B4
:1058100000E00020704721B1826842F4A00282605B
:1058200003E0826822F4A0028260704701460020F3
:105830008A6802F480020AB1012000E0002070476B
:1058400010B50A4600210023416821F46041531E2F
:1058500041EA4331416010BD21B1426842F4006227
:10586000426003E0426822F4006242607047F0B593
:1058700004460D4600200021092D11DDE068A5F148
:105880000A0606EB4607072606FA07F18843A5F144
:105890000A0606EB460603FA06F10843E0600CE050
:1058A000206905EB4507072606FA07F1884305EB53
:1058B000450603FA06F108432061072A0FDA606BF8
:1058C000561E06EB86071F2606FA07F18843561E6A
:1058D00006EB860605FA06F10843606322E00D2A0E
:1058E0000FDA206BD61F06EB86071F2606FA07F194
:1058F0008843D61F06EB860605FA06F108432063A7
:1059000010E0E06AA2F10D0606EB86071F2606FAF4
:1059100007F18843A2F10D0606EB860605FA06F1AB
:105920000843E062F0BD21B1826842F480128260D7
:1059300003E0826822F48012826070470146C86CDE
:1059400080B2704766484C300068704721B14268A9
:1059500042F48062426003E0426822F48062426066
:10596000704721B1426842F48052426003E04268CD
:1059700022F48052426070470A460021816821F477
:10598000E04111438160704721B1826842F40042D6
:10599000826003E0826822F400428260704721B195
:1059A000826842F40212826003E0826822F40212EA
:1059B00082607047014600208A6802F400120AB132
:1059C000012000E000207047F0B504461546002095
:1059D00000220026092911DDE068A1F10A0707EB82
:1059E000470C072707FA0CF29043A1F10A0707EBCF
:1059F000470703FA07F21043E0600CE0206901EB6F
:105A0000410C072707FA0CF2904301EB410703FA18
:105A100007F210432061A06BC0F30156EF1C06F1A2
:105A2000010CA7EB0C0707EB870C1F2707FA0CF2FA
:105A30009043EF1C06F1010CA7EB0C0707EB87075F
:105A400001FA07F21043A063F0BD10B50A46002129
:105A50000023816B21F44011531E41EA03518163FD
:105A600010BD08B5002300930090009B0B440093E9
:105A7000009B1A6008BD08B5024600200090009205
:105A800001F12800009B184400900098006880B243
:105A900008BD0A4600214168164B19401143416078
:105AA00070474162826270470A460021416821F0D6
:105AB0001F0111434160704740B10949083109682D
:105AC00041F40001064A0832116007E00449083138
:105AD000096821F40001024A083211607047000091
