:020000040800F2
:10000000D8E80020E12300083D0B00083F0B000862
:10001000430B0008470B00084B0B000800000000D2
:100020000000000000000000000000004F0B00086E
:10003000510B000800000000530B0008550B00088E
:10004000F7230008F7230008F7230008F723000828
:10005000F7230008F7230008F7230008F723000818
:10006000F7230008F7230008F7230008F723000808
:10007000F7230008F7230008F7230008F7230008F8
:10008000F7230008F7230008F7230008F7230008E8
:1000900097300008F7230008F72300080707000837
:1000A000F723000841100008F7230008F723000891
:1000B000F7230008F7230008F7230008F7230008B8
:1000C000F7230008F7230008F7230008F7230008A8
:1000D000F7230008F72300085D0B0008F72300084A
:1000E000F7230008F7230008F723000800F002F8C0
:1000F00000F06EF80AA090E8000C82448344AAF154
:100100000107DA4501D100F063F8AFF2090EBAE851
:100110000F0013F0010F18BFFB1A43F0010318473B
:10012000689500008895000010F8013B0A4413F020
:10013000030408BF10F8014B1D1108BF10F8015B44
:10014000641E05D010F8016B641E01F8016BF9D133
:10015000002D15D010F8014B03F00C030C2BA1EB74
:1001600004040ABF10F8013BA4EB8314A4EB03249E
:1001700005F1010314F8016B5B1E01F8016BF9D561
:10018000914238BF10F8013BD1D3704700230024BF
:1001900000250026103A28BF78C1FBD8520728BF97
:1001A00030C148BF0B607047642906F0A3877329EC
:1001B00007F09F83002070471FB59DE8030007F0FC
:1001C000B1FC07F0EDFE1FBD10B507F052FF10BDEA
:1001D00007F086FF1146FFF7EFFF00F0D8FA08F0AE
:1001E000E7F803B4FFF7F0FF03BC03F05FF800008B
:1001F000EFF30980704780F309887047EFF30880B8
:10020000704780F30888704740BA7047C0BA70479B
:1002100010B5002807DA0A07140EFE4A00F00F0393
:100220001B1FD45403E00A07130EFB4A135410BDDE
:1002300010B50446B4F1807F01D3012010BD24F035
:100240007F40401E4FF0E02148610F214FF0FF300A
:10025000FFF7DEFF00204FF0E021886107200861F2
:100260000020EBE710B5ED480068401CEB49086042
:1002700001F0DAF806F0BAFEE948006820B1E84873
:100280000068401EE6490860E648008838B94FF427
:100290007A70E44908800120E349087004E0E148ED
:1002A0000088401EDF49088010BD00E0401E002885
:1002B000FCDC704710B50446C4B1DC48406800F06F
:1002C0000C00082824D0D948406820F00300D74902
:1002D00048600846406840F00200486000BFD348CC
:1002E000406800F00C000828F9D111E0CF484068C0
:1002F00000F00C0060B1CD48406820F00300CB490D
:10030000486000BFC948406800F00C000028F9D1DF
:100310001CB1C748FFF78CFF03E04FF4FA50FFF71A
:1003200087FF10BD08B50121052001F071FD0120F6
:10033000ADF8000010208DF8030003208DF80200B6
:100340006946BC4801F0B0FD0220ADF80000002075
:100350008DF803006946B74801F0A6FD0420ADF80A
:1003600000008DF803006946B24801F09DFD0820A9
:10037000ADF8000048208DF803006946AD4801F053
:1003800093FD1020ADF800008DF8030003208DF8D8
:1003900002001021A74801F01FFE6946A54801F0A0
:1003A00083FDE020ADF8000018208DF80300032045
:1003B0008DF8020020219F4801F00EFE80219D480B
:1003C00001F00AFE69469B4801F06EFD4FF4805033
:1003D000ADF8000010208DF8030003208DF8020016
:1003E0006946944801F060FD0121092001F010FDEB
:1003F0000120ADF8000048208DF8030069468E48C2
:1004000001F052FD0220ADF8000048208DF80300F5
:100410006946894801F048FD2020ADF80000102011
:100420008DF8030003208DF802002021824801F09E
:10043000D3FD6946804801F037FD4020ADF800004B
:1004400010208DF8030003208DF8020000224021C7
:10045000794801F0C5FD6946774801F025FD802007
:10046000ADF8000010208DF8030003208DF8020085
:100470008021714801F0B0FD69466F4801F014FD1C
:100480004FF48070ADF8000010208DF803000320B9
:100490008DF802004FF48071674801F09DFD6946B8
:1004A000654801F001FD4FF40070ADF80000102028
:1004B0008DF8030003208DF802004FF400715E48B0
:1004C00001F08AFD69465C4801F0EEFC4FF4806063
:1004D000ADF8000048208DF803006946564801F049
:1004E000E3FC4FF40060ADF8000048208DF80300F5
:1004F0006946514801F0D8FC4FF48050ADF8000037
:1005000010208DF8030003208DF8020000224FF424
:100510008051494801F064FD6946474801F0C4FC38
:100520004FF40050ADF8000018208DF803000320B0
:100530008DF8020000224FF400513F4801F050FDB9
:1005400069463D4801F0B0FC4FF48040ADF8000032
:1005500018208DF803006946374801F0A5FC0121F9
:10056000112001F055FCFF20ADF8000010208DF89F
:10057000030003208DF80200FF21304801F02CFD1C
:1005800069462E4801F090FC4FF48070ADF80000F1
:1005900048208DF803006946284801F085FC4FF497
:1005A0000060ADF8000014208DF8030003208DF8E2
:1005B00002004FF40061214801F00EFD69461F481A
:1005C00001F072FC4FF48050ADF8000014208DF85B
:1005D000030003208DF802004FF48051174801F00A
:1005E000FBFC6946154801F05FFC0121212001F068
:1005F0000FFC0420ADF8000010208DF8030003204C
:100600008DF80200012204210D4801F0E9FC694641
:100610000B4817E018ED00E000E400E000000020C7
:1006200004000020160000201A00002000100240E4
:100630004019010000080140000C01400010014079
:100640000014014001F030FC4FF40070ADF80000E0
:1006500010208DF8030003208DF802004FF4007184
:10066000F74801F0B9FC6946F54801F01DFC4CF271
:100670005030FFF71AFE4FF48060ADF800001020F4
:100680008DF8030003208DF802004FF48061EC48E0
:1006900001F0A2FC6946EA4801F006FC4FF4007044
:1006A000ADF8000004208DF803006946E54801F02C
:1006B000FBFBE548806940F00100E3498861E348BD
:1006C0008068E2498860084680688860E048006881
:1006D00040F40070DE490860DD480C38006840F4E2
:1006E0000070DB490C3908600F211720FFF790FDDF
:1006F0001720012181404209920002F1E022C2F854
:10070000001100BF08BD10B50122D102CC4801F094
:1007100067FC4FF48061CA4801F060FC4FF400713F
:10072000C74801F05BFC10BD00B5ADF5017D4FF48D
:10073000007101A806F08EFF00F0CBFB03F0D0FCA7
:1007400018B100200DF5017D00BD01F02DFA01204A
:10075000F8E710B503F0C4FC0446012C01D10020D9
:1007600010BD012C02D9FFF7DFFFF9E70120F7E701
:1007700070B5044665682E462068FFF742FDA4F177
:1007800000614FF0006001F033FBB04770BD2DE910
:10079000F04F8BB04FF000084FF6FF760025DFF8E2
:1007A000B4B2AD48FFF781FDAB48FFF77EFDAA4824
:1007B000FFF77BFDFFF7B6FDA748FFF776FDA648DC
:1007C000FFF773FDA448FFF770FD012291029C48DA
:1007D00001F006FCA048FFF768FD9F48FFF765FDA4
:1007E0009D48FFF762FD01F0A5FA0120FFF762FDC9
:1007F00000F00EFB06F027FBFFF7ABFF042000F034
:100800003EFF28BB0121084606F07DFB934A0021EC
:1008100093A006F0C8FB06F0E3FA00BF0421894864
:1008200001F0CDFB0028F9D002F0DAFA0421854866
:1008300001F0C5FB8F4908700846007802F0DEFA27
:1008400000BF04217F4801F0BAFB0028F9D16CE118
:1008500089A18AA006F0F1FD5FEA00087AD040463F
:1008600006F012FE0121084606F04DFB7B4A0021EE
:1008700086A006F098FB1921012006F044FB774A78
:10088000002185A006F08FFB06F0AAFA01244CE0B7
:100890007CA0234685A287A1009001A806F0ECFB6E
:1008A00075A101A806F0C9FD5FEA00083BD015E07C
:1008B0009DF8140046404FF000090CE037463E46D4
:1008C00007F0010A7610BAF1000F02D04AF20100D7
:1008D000464009F10109B9F1080FEFD3434601225F
:1008E000114605A807F05EFC0128E1D0404606F05D
:1008F000CBFDB6B106F090FA1921012006F003FBFA
:10090000564A00216DA006F04EFB2221012006F080
:10091000FAFA524A00216EA006F045FB06F060FA92
:1009200058E04FF6FF76601CC4B2032CB0DB01F038
:10093000ADFC002505E0474901EBC52001F0EDFCC9
:100940006D1CBF2DF7D301F0A7FC002501F09EFC24
:10095000012424E058E04BA0234654A255A1009066
:1009600001A806F089FB44A101A806F066FD5FEA34
:10097000000812D006E0374A02EB8500069901F024
:10098000F2FC6D1C43460122042106A807F00AFC74
:100990000128F0D0404606F077FD601CC4B20A2C56
:1009A000D9DB01F079FC06F037FA1921012006F0B5
:1009B000AAFA2A4A00214AA006F0F5FA22210120CB
:1009C00006F0A1FA254A002141A006F0ECFA06F053
:1009D00007FA00BF01240CE02AA0234633A235A168
:1009E000009001A806F048FB01A803F02FFB601C53
:1009F000C4B20A2CF0DB00BF102000F040FE00283B
:100A0000FAD11448FFF7B4FE0121084606F07BFA3C
:100A1000124A002138A006F0C6FA06F0E1F9DBF828
:100A20000000401C50B908E0082000F028FE20B962
:100A30004FF40071024801F0D1FAF5E75EE00000E2
:100A40000010014000080140001002400000014079
:100A50000C04014000000108A08601006096000817
:100A6000426F6F746C6F61646572207620322E372E
:100A7000000000000C000020726200004D3A5C7023
:100A8000726F67312E62696E00000000CFEEE4EEF7
:100A9000E6E4E8F2E52E0000C8E4E5F220EEE1ED40
:100AA000EEE2EBE5EDE8E520CFCE2E004D3A5C70AE
:100AB000726F67002573256425730000D4E0E9EBAD
:100AC000FB20CFCE20EFEEE2F0E5E6E4E5EDFB0023
:100AD000CDE0E6ECE8F2E520454E5445520000003A
:100AE000CFCE20F3F1EFE5F8EDEE20EEE1EDEEE212
:100AF000EBE5EDEE000000002A00000001240FE00D
:100B0000AFF280002346AFF25C02AFF258010090D2
:100B100001A806F0B1FA01A803F098FA601CC4B26B
:100B20000A2CEDDB0448FFF723FE0348FFF720FE05
:100B300000200BB0BDE8F08F00000108704700BF37
:100B4000FEE700BFFEE700BFFEE700BFFEE770471D
:100B50007047704710B5FFF785FB10BD10B540F228
:100B600025510F4801F076F948B10D4801F064F9BC
:100B70000C49087008460178094801F059F940F21B
:100B80002661074801F066F940B14021044801F0B0
:100B900058F904480078401E0249087010BD000052
:100BA0000044004030000020F0B5024600BFD56987
:100BB0001562956AD562D1611569D06980FB0550CF
:100BC000176A566987FB0667AD197841D76A966838
:100BD00087FB0667AB1940EB07044FF00057DE199F
:100BE00044F10000850045EA96709062874D906A56
:100BF000A84201DD2846F0BD906AB0F1404F02DA0C
:100C00004FF04040F7E7906AF5E72DE9F0430246E0
:100C100000BF156A5562D56A1563D5691562956A74
:100C2000D562D1611569D06980FB0550176A566994
:100C300087FB0676ED197041576A966987FB066750
:100C4000AE197841D76A956887FB05C5D2F8308020
:100C5000D76888FB0787B9461CEB080745EB0905F1
:100C6000F31940EB05044FF000569E1944F10000C3
:100C7000850045EA96709062644D906AA84202DD54
:100C80002846BDE8F083906AB0F1404F02DA4FF099
:100C90004040F6E7906AF4E72DE9F047034600BFCD
:100CA0001E6A5E62DE6A1E63DE691E629E6ADE6224
:100CB000DA611E69D86980FB0670D3F820C05E69CE
:100CC0008CFB06C6B04617EB0C0640EB0800D3F8C9
:100CD00024C09F698CFB077CF71940EB0C00D3F80C
:100CE0002CC09E688CFB0686D3F80CC0D3F83090DD
:100CF00089FB0C9CE24618EB090C46EB0A0617EB45
:100D00000C0440EB06054FF0005C14EB0C0745F1BA
:100D10000000860046EA9770986200BF0E6A4E6235
:100D2000CE6A0E63CE690E628E6ACE62986AC86120
:100D30000E69C86980FB0670D1F820C04E698CFB33
:100D400006C6B04617EB0C0640EB0800D1F824C0ED
:100D50008F698CFB077CF71940EB0C00D1F82CC095
:100D60008E688CFB0686D1F80CC0D1F8309089FBD8
:100D70000C9C18EB090846EB0C0617EB080440EB3B
:100D800006054FF00056A61945F10000870047EA16
:100D9000967088621D4E886AB04202DD3046BDE81A
:100DA000F087886AB0F1404F02DA4FF04040F6E732
:100DB000886AF4E730B5C2688A4200DAC160026925
:100DC0008A4200DD016101F58042D11381FB0153AC
:100DD000D0E9004264195A41C0E900420289521C1C
:100DE0000281028943899A420FDBD0E90023C0E9DE
:100DF0000623C2680262026942620022C260026186
:100E000002604260028180F8282030BD0080FF3FF0
:100E100000B585B0012140F2012000F0F9FF00206B
:100E200000908DF804008DF805004FF460200290CA
:100E30000020039001208DF810006946124801F04F
:100E4000D7F80723012211460F4801F01DF90121AF
:100E50000D4801F0F0F80C4801F0F8F800BF0A481E
:100E600001F0F9F80028FAD1074801F0FEF800BFB8
:100E7000054801F0FFF80028FAD10021024801F0EE
:100E8000DAF805B000BD00000024014010B500F004
:100E90006EFD012010BD70B504460D461646204873
:100EA000844205D22946601C00F0CEFD012070BDB1
:100EB0000020FCE770B504460D46164618488442EB
:100EC00005D22946601C00F02AFE012070BD0020DA
:100ED000FCE710B51349012000F0B6FD4FF416747D
:100EE00003E0A01C104900F0AFFD2000A4F10104B4
:100EF000F7D1F8200B4981F80002FF2081F80102A8
:100F000081F8020281F803020749022000F09CFDEB
:100F1000064948F2020000F097FD012010BD0000D4
:100F200000963A00950500209507002095090020BD
:100F300010B500244FF48050FE4908600860086036
:100F40000860086008600860086008600860086061
:100F50000860086008600860086008600860086051
:100F60000860086008600860086008600860086041
:100F70000860086008600860086008600860086031
:100F80000860086008600860086008600860086021
:100F90000860086008600860086008600860086011
:100FA000086008600860086008600860FF21E24887
:100FB00001F0D4F800BFE0480830008800F00200DB
:100FC0000028F8D0FF21DC4801F0C8F800BFDA485B
:100FD0000830008800F001000028F8D0D64801F061
:100FE000BFF8044600BFD4480830008800F0020073
:100FF0000028F8D0FF21D04801F0B0F800BFCE485B
:101000000830008800F001000028F8D0CA4801F03C
:10101000A7F840EA042400BFC7480830008800F061
:1010200001000028F8D0C44801F09AF840EA0424EE
:101030004FF48050BF49091F0860A408A0B210BD3A
:1010400070B5192000F036FB054607F0D1FD0446C7
:10105000BA4907F0D7FCBA4908600121B94801F044
:1010600012F9FFF765FFA0F50040B7490860084690
:101070000168B6480078B64A12781040B54A42F87E
:101080002010B2480078401CB0490870084600782B
:10109000AF490978084000287ED1AD480078012882
:1010A00008D1104600681146496808444010A64916
:1010B00008600DE0A7480068A64949680844A549AA
:1010C00089680844A349C968084480109E4908609B
:1010D0009D48006847F6F461884204DC9A4800683D
:1010E0004942884205DA9C48006810B901209B49B2
:1010F000087095480068C0039349086098480088C4
:1011000040F20122811A904277D010DCB0F5827F44
:1011100049D005DCA0F20110C8B101286ED12BE046
:10112000B0F5847F54D0B0F5887FF7D167E0072908
:1011300070D004DC01296ED00329EFD1A5E0B1F510
:10114000007F69D0A1F2FF510029E7D116E17E4866
:1011500002688448016884480068FFF79DFD7A4969
:101160000860084602688148016881480068FFF706
:1011700093FD754908600DE173480268794801687C
:1011800079480068FFF788FD6F49086008460268E3
:1011900076480168764800E031E10068FFF77CFDA1
:1011A00069490860F6E0684802686E4801686E4860
:1011B0000068FFF771FD64490860084602686B48E3
:1011C00001686B480068FFF767FD5F490860E1E070
:1011D0005D4802686348016863480068FFF75CFD8A
:1011E000594908600846026860480168604800681C
:1011F000FFF752FD54490860CCE00EE0C9E05248C8
:1012000002685A4801685A480068FFF745FD4E4990
:101210000860BFE054E01DE06DE04B4802685148B3
:10122000016851480068FFF737FD474908600846E4
:10123000016850480068FFF7E8FC43490860084629
:1012400002684A4801684A480068FFF725FD3E49A0
:1012500008609FE03C4802684248016842480068D4
:10126000FFF71AFD384908600846016841480068E0
:10127000FFF7CBFC34490860084601683C48006829
:10128000FFF792FC3049086084E02F480268354837
:10129000016835480068FFF7FFFC2B4908600846E5
:1012A000016834480068FFF7B0FC27490860084629
:1012B00001682F480068FFF777FC2349086069E060
:1012C000214802682748016827480068FFF7E4FCC6
:1012D0001D4908600846016826480068FFF795FC2C
:1012E000194908600846016821480068FFF75CFC5E
:1012F000154908604EE0144802681A4801681A4807
:101300000068FFF7C9FC10490860084602681748E2
:10131000016817480068FFF7BFFC0B4908600846E2
:1013200002681548016813480068FFF7B5FC0649D4
:1013300008602FE0140C01400038004000007A449F
:1013400058000020002C0140440000205C000020D8
:101350005D00002090D100204C00002054000020AF
:101360004800002074050020700500207C05002046
:1013700078050020800500208405002021480268AF
:101380002148016821480068FFF786FC1D49086074
:1013900000E000BF00BF1E48006828B11C4800687C
:1013A000401E1B49086070BD164801681948FFF7C8
:1013B00001FD19480088002821DD17480088401EDB
:1013C000154908800F48006807F0FAFB05461348E6
:1013D0000168284607F020FC044607F0D5FB1049B9
:1013E00008600846006800F58040C01300B20D494F
:1013F000096808800B480068801C0A49086000BF23
:10140000D1E70000440000207C0500207805002082
:101410004C000020A0D100204000002058000020F7
:10142000500000203C00002010B54FF400619B48A4
:1014300000F0C5FD30B99A48007840F001009849A5
:10144000087005E09648007820F001009449087083
:101450004FF48071934800F0B2FD30B990480078A5
:1014600040F002008E49087005E08D48007820F0B9
:1014700002008B4908700121884800F0A0FD30B9B6
:101480008748007840F004008549087005E08448EA
:10149000007820F00400824908704FF480617F4892
:1014A00000F08DFD30B97E48007840F008007C499E
:1014B000087005E07A48007820F008007849087044
:1014C0000221764800F07BFD30B97548007840F085
:1014D00010007349087005E07148007820F0100092
:1014E0006F4908706E4800786F49097888427DD04E
:1014F0006E480078002879D16B48007800F0010030
:1015000050B96748007800F0010028B168480068C9
:1015100040F00100664908606348007800F002006E
:1015200002280BD05E48007800F00200022805D1A6
:101530005F48006840F002005D4908605A48007842
:1015400000F0040004280BD05548007800F0040097
:10155000042805D15648006840F00400544908604A
:101560005148007800F0080008280BD04C4800785B
:1015700000F00800082805D14D48006840F0080038
:101580004B4908604848007800F0100010280BD044
:101590004348007800F01000102805D14448006846
:1015A00040F01000424908603F48007800F0010018
:1015B00050B13B48007800F0010028B93C48006871
:1015C00040F020003A4908603748007800F00200F7
:1015D00002280DD13248007800F00200022807D01E
:1015E0003348006840F04000314900E03DE00860C9
:1015F0002D48007800F0040004280BD1284800781A
:1016000000F00400042805D02948006840F080005C
:10161000274908602448007800F0080008280BD10A
:101620001F48007800F00800082805D0204800680E
:1016300040F480701E4908601B48007800F01000DC
:1016400010280BD11648007800F01000102805D0A3
:101650001748006840F40070154908601048007889
:10166000114908701E2011490870104800780028A0
:1016700004DD0E480078401E0C49087010BD01467C
:101680000B480068084030B1094800688843084AA0
:101690001060002070470120FCE70000000C0140B2
:1016A00088050020001001408905002090050020D9
:1016B0008C05002070B504461A2C01D3002070BDA3
:1016C0001E4800EBC400807902282ED100F03AF8C1
:1016D0001CB9012000F044F8F1E7012C0ED10320E1
:1016E00000F03EF80546022000F03AF800EBC00199
:1016F00001EB001005EB800080B2E0E7022C0ED178
:10170000052000F02DF80546042000F029F800EB34
:10171000C00101EB001005EB800080B2CFE7032C85
:1017200003D1062000F01CF8C9E70D2C02D14FF4BC
:101730008770C4E7024830F81400C0E7B08D000895
:10174000DED1002038B500F0FFFC0090684605F0BF
:10175000E9FF04462C222146144805F01FFF38BD3E
:101760000146072920D2DFE801F01F040A0F1317F2
:101770001B000E48808A00F26C7080B270470B48E4
:10178000008A401C80B2F9E70848808980B2F5E7FA
:101790000648008980B2F1E70448808880B2EDE70E
:1017A0000248008880B2E9E70020E7E714D2002071
:1017B000F948806940F00100F7498861084680696E
:1017C00040F004008861F548006840F44030F34977
:1017D00008600846006820F4402008601020EF49A7
:1017E00010310860ED48006840F44010EB49086093
:1017F0000846006820F4400008600846006840F48D
:10180000000008600846006820F040700860084644
:10181000006820F0406008600846006840F0006002
:1018200008604020DD4910310860DC48006840F065
:101830004050DA4908600846006820F040400860DF
:101840000846006840F000400860D348806940F4D2
:101850008050D14988610020D149888004200880C7
:101860000846008840F0100008800846008840F4D0
:10187000807008800846008840F4007008800846A0
:10188000008840F0400008807047014600BFC4480F
:10189000008900F002000028F9D0C148818100BF12
:1018A000BF48008900F001000028F9D0BC488089B9
:1018B000C0B2704770B502460B460026B9480078A2
:1018C00020B9112A01D0182A00D15B024FF48010F0
:1018D000B2491031086042F04000FFF7D6FF180E01
:1018E000FFF7D3FFC3F30740FFF7CFFFC3F3072092
:1018F000FFF7CBFFD8B2FFF7C8FF082A03D1872034
:10190000FFF7C3FF02E09520FFF7BFFF05E0304679
:10191000711CCEB2FE2800DD05E0FF20FFF7B5FF09
:101920000446FF28F3D000BFC4B93A2A16D1FF20DD
:10193000FFF7ABFF054605F0400018B101209949BB
:10194000087002E0002097490870FF20FFF79DFF14
:10195000FF20FFF79AFFFF20FFF797FFFF20FFF719
:1019600094FF10208D4910310860204670BDF0B5FD
:1019700002270024FFF71CFF10208849103108605F
:10198000002504E0FF20FFF780FF681CC5B20A2D88
:10199000F8DB4FF4801081491031086006E02046E2
:1019A000611C8CB2202801DD0220F0BD0021084618
:1019B000FFF780FF0128F2D110207849103108602C
:1019C000FF20FFF762FFFF20FFF75FFF002406E024
:1019D0002046611C8CB2FE2801DD012706E04FF491
:1019E000D5710820FFF766FF0128F1D100BF002460
:1019F00000BF00213720FFF75DFF06464FF0804112
:101A00002920FFF757FF0646601C84B240F6FE709F
:101A1000844201DD0120C8E7002EEAD10024002025
:101A200060490870022F0DD105E02046611C8CB280
:101A3000FE2800DD05E000213A20FFF73BFF0028EB
:101A4000F3D100BF0020B0E72DE9F04107460C4676
:101A50004FF0000839461820FFF72CFF08B1BDE809
:101A6000F0814FF480104D4910310860FE20FFF7DF
:101A70000CFF002605E014F8010BFFF706FF701CB1
:101A800086B2B6F5007FF6DBFF20FFF7FEFEFF20F3
:101A9000FFF7FBFEFF20FFF7F8FE054605F01F00ED
:101AA000052804D010203D4910310860D7E70CE02C
:101AB0004046411C1FFA81F84FF6FE71884204DD52
:101AC0001020364910310860C9E7FF20FFF7DDFE1E
:101AD0000028EDD01020314910310860FF20FFF7B9
:101AE000D4FE4FF480102D49103108600CE04046C0
:101AF000411C1FFA81F84FF6FE71884204DD102068
:101B0000264910310860AAE7FF20FFF7BEFE002833
:101B1000EDD0102021491031086000BF9FE770B55B
:101B200006460C46002531461120FFF7C3FE00B1E2
:101B300070BD4FF480101949103108600BE0284641
:101B4000691C8DB24FF6FE71884204DD10201349E6
:101B500010310860ECE7FF20FFF797FEFE28EED17A
:101B6000002506E0FF20FFF790FE04F8010B681C3B
:101B700085B2B5F5007FF5DBFF20FFF786FEFF207D
:101B8000FFF783FEFF20FFF780FE1020034910318E
:101B9000086000BFCCE700000010024000080140D0
:101BA000003001409405002070B5322422A123A00A
:101BB00005F043FC064616B94FF0FF3070BD10210A
:101BC000214805F025FD4FF40071204805F020FD67
:101BD00005E03346102201211B4806F06FFB200070
:101BE000A4F10104F5D14FF44E642046E11704EB53
:101BF000D1514D1206E033464FF4007201211348D3
:101C000006F05CFB2800A5F10101CDB2F3D120461E
:101C1000E11704EBD1514912A4EB4121CDB2002DC3
:101C200005DD33462A460121084806F047FB3046C9
:101C300005F02AFC0020C1E7770000004D3A5C5215
:101C40006F61642E3030300040D4002040D200203C
:101C50000CB50020019000904848006840F48030A6
:101C60004649086000BF4548006800F40030009015
:101C70000198401C0190009818B90198B0F5A06F28
:101C8000F1D13E48006800F4003010B1012000900E
:101C900001E0002000900098012844D138480068F5
:101CA00040F01000364908600846006820F0030044
:101CB00008600846006840F0020008602F4840684D
:101CC0002E4948600846406848600846406840F42D
:101CD000806048600846406820F47C1048600846F0
:101CE000406840F4E81048600846006840F08070A2
:101CF000086000BF2148006800F000700028F9D09B
:101D00001E48406820F003001C49486008464068AF
:101D100040F00200486000BF1848406800F00C0026
:101D20000828F9D101E000BFFEE70CBD10B5FFF7B0
:101D30008FFF10BD10B51148006840F001000F4939
:101D40000860084640680F4908400C49486008464A
:101D500000680D490840094908600846006820F4F9
:101D6000802008600846406820F4FE0048604FF478
:101D70001F008860FFF7DAFF10BD0000001002406E
:101D8000002002400000FFF8FFFFF6FE70B50021C2
:101D900000230F22C47804B3194C246804F4E064CF
:101DA000C4F5E064210AC1F10403CA40447804FA8E
:101DB00003F18478144021430901124C0678A1559F
:101DC000047804F01F050124AC4005786D11AD00C6
:101DD00005F1E025C5F8004109E0047804F01F058D
:101DE0000124AC40084D0678761145F8264070BDB8
:101DF000064A0A400243024B1B1F1A60704700004C
:101E00000CED00E000E400E080E100E080FFFF1F57
:101E100029B1064A92690243044B9A6104E0034ADD
:101E200092698243014B9A617047000000100240A2
:101E3000C1F308028280704701468888C0F3080019
:101E4000704701F40072B2F5007F00D100BFCA43B1
:101E50000280704770B50246002400230025002050
:101E600040F66A16B14200D100BFC1F3421501F03D
:101E70001F03012606FA03F3012D02D19689334090
:101E800006E0022D02D1168A334001E0968A3340E3
:101E90000C12012606FA04F41688344013B10CB172
:101EA000012000E0002070BD2DE9F0410246002530
:101EB0000026002000230024002791F803C00CF026
:101EC0000F0591F803C00CF0100CBCF1000F03D00B
:101ED00091F802C04CEA050591F800C0BCF1000F72
:101EE00031D0146800202BE04FF0010C0CFA00F305
:101EF000B1F800C00CEA03069E4220D183004FF0E7
:101F00000F0C0CFA03F7BC4305FA03FC4CEA04047B
:101F100091F803C0BCF1280F06D14FF0010C0CFA68
:101F200000FCC2F814C00AE091F803C0BCF1480FED
:101F300005D14FF0010C0CFA00FCC2F810C0401C97
:101F40000828D1D31460B1F800C0BCF1FF0F34DD14
:101F5000546800202EE000F1080C4FF0010808FA48
:101F60000CF3B1F800C00CEA03069E4221D18300B5
:101F70004FF00F0C0CFA03F7BC4305FA03FC4CEAD4
:101F8000040491F803C0BCF1280F05D100F1080C3E
:101F900008FA0CF8C2F8148091F803C0BCF1480F9D
:101FA00007D100F1080C4FF0010808FA0CF8C2F84C
:101FB0001080401C0828CED35460BDE8F081024652
:101FC000002093680B400BB1012000E00020704717
:101FD0000146C86880B2704701617047416170472F
:101FE0000AB1016100E041617047C16070470000C3
:101FF00030B50246002000235068514C20400D7936
:102000000C6844EA05242043506090684D4C204001
:10201000D1E902542C434D7944EA450420439060B1
:10202000D06A20F470000C7C641EE4B2234340EAC2
:102030000350D06230BD21B1826842F0010282605B
:1020400003E0826822F0010282607047816841F0FB
:10205000080181607047014600208A6802F008028A
:102060000AB1012000E000207047816841F00401BE
:1020700081607047014600208A6802F004020AB1BC
:10208000012000E000207047F0B504460D46002016
:102090000021092D11DDE068A5F10A0606EB4607CF
:1020A000072606FA07F18843A5F10A0606EB46065D
:1020B00003FA06F10843E0600CE0206905EB4507F0
:1020C000072606FA07F1884305EB450603FA06F1F1
:1020D00008432061072A0FDA606B561E06EB86075D
:1020E0001F2606FA07F18843561E06EB860605FAF8
:1020F00006F10843606322E00D2A0FDA206BD61F39
:1021000006EB86071F2606FA07F18843D61F06EB63
:10211000860605FA06F10843206310E0E06AA2F1A2
:102120000D0606EB86071F2606FA07F18843A2F183
:102130000D0606EB860605FA06F10843E062F0BDDF
:10214000FFFEF0FFFDF7F1FF002103480188001FAB
:10215000008841EA004070471C2800408181704798
:10216000014688897047F0B50C46154600210022CB
:102170000026078C4EF6FF7C07EA0C070784818B4C
:10218000028C4FF6FF7707EA043640F6FF473940E6
:102190004FF6FF7707EA052739434FF6FF7707EA3F
:1021A000033739434DF6FF773A4046F480573A43B8
:1021B00081830284F0BDF0B50C4615460021002253
:1021C0000026078C4FF6FF6C07EA0C070784818B0B
:1021D000028C4FF6FF7707EA04264FF60C7739405A
:1021E0004FF6FF7707EA03172F4339434FF6FF57A0
:1021F0003A4046F480773A4381830284F0BDF0B5DB
:102200000C461546002100220026078C4FF6EF7C75
:1022100007EA0C070784018B028C4FF6FF7707EA69
:10222000041640F6FF4739404FF6FF7707EA0337B9
:1022300039434FF6FF7707EA052739434FF6DF7733
:102240003A4046F010073A4301830284F0BDF0B5EE
:102250000C46154600210022068C4FF6FE773E40C4
:102260000684018B028C4FF60C7631407E1C06EA08
:1022700003162E4331437E1E324044F001063243A2
:1022800001830284F0BDCA4302827047514852491B
:1022900048605248486070474F48006940F08000ED
:1022A0004D490861704704204B49C96801F001019C
:1022B00009B101200EE04849C96801F0040109B1E3
:1022C000022007E04449C96801F0100109B1032068
:1022D00000E00420704708B500200090FF20009027
:1022E00002E00098401E009000980028F9D108BD37
:1022F00070B504460425FFF7D6FF054605E0FFF755
:10230000EAFFFFF7D0FF0546641E012D01D1002C26
:10231000F5D104B90525284670BD70B505460424DD
:1023200040F6FF70FFF7E4FF0446042C19D12A4859
:10233000006940F0020028490861084645610069CB
:1023400040F04000086140F6FF70FFF7D1FF0446FF
:10235000052C06D02048006941F6FD7108401E4951
:102360000861204670BDF8B506460D4604240020DD
:1023700000900F20FFF7BCFF0446042C28D116481C
:10238000006940F001001449086135800F20FFF713
:10239000AFFF0446042C12D1B01C0090280C009909
:1023A00008800F20FFF7A4FF0446052C10D00A4830
:1023B000006941F6FE7108400749086108E0052CF4
:1023C00006D00548006941F6FE71084002490861DF
:1023D0002046F8BD2301674500200240AB89EFCDC0
:1023E00008480047FEE7FEE7FEE7FEE7FEE7FEE7F8
:1023F000FEE7FEE7FEE7FEE703480449044A054B13
:1024000070470000ED000008D8E20020D8E8002066
:10241000D8E40020D8E4002010B500F015FB10BD72
:1024200070477047704710B5044600F0B3FA10BD0E
:1024300010B5044600F0D2FA10BD00000020FE499D
:102440000870012070470020FC4908700120704787
:1024500010B5FB480068402801D9402401E0F84845
:102460000468F84800682044F749884205D9F548CF
:1024700000680C1A0420F0490870A2B2F349F14830
:10248000006804F084FB2246F049812000F0DAFD68
:10249000EC4800682044EB490860E9480068001BEC
:1024A000E7490860EA488068001BE9498860E44819
:1024B000006810B90320E0490870DF48007802285E
:1024C00002D00020E249087310BD10B5E148E04990
:1024D00008600D22812000F0B5FD0520D649087066
:1024E00010BD10B5D7480068DB4909780844D649C3
:1024F00088420AD9D34800784042D749087005205D
:10250000CD490870022000F062FDD3480278CF491F
:10251000CC48006804F07BFBCA480068CE490978C3
:102520000844C8490860C6480068CB490978401A81
:10253000C3490860C6488068C7490978401AC44939
:102540008860BF48006818B1BB480078052804D1EE
:102550000020BF490873FFF7B8FF10BD704710B5E2
:10256000BE48407C0106BD48807C41EA0041BB4832
:10257000C07C41EA0020B949097D40EA01046002BB
:10258000B0490860B548C17D807D41EA0024600201
:10259000AB490860B1488068096888420CD0812046
:1025A00000F015FD022000F012FD0220A84908737A
:1025B000FFF78BFF002010BD0120FCE710B5A748F6
:1025C000806830B90220A2490873FFF77EFF00201F
:1025D00010BDA248007B00F0800048B9022000F046
:1025E000F6FC02209A490873FFF76FFF0020EFE71F
:1025F0000120EDE710B5994880689749097888422D
:1026000003D29648007A94490870934802788F491B
:10261000812000F017FD0320874908708C488068EE
:102620008D490978401A8A4988600020087310BDD6
:1026300010B58A48806858B18848007B00F0800057
:1026400018B1812000F0C3FC02E0022000F0BFFCC2
:1026500000207F490873FFF738FF10BD10B5FFF762
:10266000ADFF00B910BD7020784908700020487097
:10267000022088700020C8700871487188710A2093
:10268000C8710020087248728872C87230200873BE
:102690000120487300208873C8730874487412209E
:1026A0006D490870FFF7A6FF00BFDBE710B5FFF725
:1026B00085FF00B910BD0020644908708020487073
:1026C000002088700120C870202008718020487187
:1026D00000208871C8714D200872692048726320FB
:1026E00088727220C8726F20087364204873722049
:1026F00088736920C8737620087465204874202088
:1027000088742A20C874142053490870FFF772FF98
:1027100000BFCFE710B5FFF751FF00B910BD032090
:102720004A490870002048708870C87004204A49DF
:102730000870FFF75FFF00BFF0E710B5FFF73EFF3F
:1027400000B910BD002041490870062048700020E3
:102750008870C870087148718871C87108203E4936
:102760000870FFF747FF00BFEBE710B5FFF726FF44
:1027700000B910BD0020354908703A2048709520F6
:102780008870FF20C870002008714871022088718D
:102790000020C871082030490870FFF72BFF00BFE8
:1027A000E7E710B5FFF70AFF00B910BD0020274981
:1027B0000870487088700820C870002008713A209E
:1027C0004871962088710020C8710220087200208C
:1027D0004872022088720020C8720C201E490870BE
:1027E000FFF708FF00BFE0E710B5002404E017483A
:1027F000005D1A490855641C174800788442F6D3D6
:10280000154800781F286ED1144800681449884282
:10281000F9D1124840680E494860104880688860C5
:102820000E48407B38B90D48807B012803DB0B48FC
:10283000807B10281DDD15E0A40D0020B90D0020BF
:10284000A00D00209C0D002000002C7550D400200D
:10285000AFD4002055534253A50D002090D4002042
:102860005553424300BF012071490873FFF72DFE05
:102870008FE07048C07B1E282CD00FDC122825D09A
:1028800005DCE0B103281DD0042877D11DE0152810
:1028900021D01A2820D01B2870D11AE02A2840D035
:1028A00006DC232820D0252821D0282866D121E045
:1028B0002F284BD0552812D05A285FD110E0FFF7AF
:1028C000B7FE5CE0FFF7CAFE59E0CCE7FFF7EEFE8B
:1028D00055E0C8E7C7E7C6E7FFF71CFF4FE0C2E7D0
:1028E000FFF72BFF4BE04BE0FFF75BFF47E0FFF705
:1028F0003CFF44E0FFF733FE90B14E48007B00F010
:10290000800028B102204C490870FFF7A1FD07E0C4
:10291000022000F05CFB022045490873FFF7D5FD5B
:102920002DE0FFF71CFE80B14248007B00F08000E4
:1029300018B901204049087007E0812000F047FBEA
:1029400002203B490873FFF7C0FD18E0FFF707FEC0
:1029500090B13848007B00F0800028B9012036494A
:1029600008703649086007E0812000F030FB022043
:102970002F490873FFF7A9FD01E0FFE773E708E0BF
:10298000812000F024FB022000F021FB06202A49D0
:10299000087010BD10B528480078022806D003281A
:1029A0000DD004280ED0052816D111E02148C07B97
:1029B000282802D1FFF74CFD00BF00BF0CE0FFF755
:1029C00084FD09E0812000F002FBFFF77EFD03E0BB
:1029D00000201949087000BF00BF10BD10B518498C
:1029E000022000F004FB174908701348007810B16A
:1029F000012812D102E0FFF7F7FE17E00D48C07B77
:102A00002A2802D02F2806D102E0FFF76AFD02E053
:102A1000FFF7A4FD00BF00BF08E0022000F0D7FAD6
:102A2000022003490873FFF750FD00BF00BF10BD2F
:102A3000AFD4002090D40020A40D0020980D0020D9
:102A400050D40020A50D00200020BB490880BB49C0
:102A50000870BB4908704FF00110BA4908600020A7
:102A6000B9490860704710B5B849002000F0BFFAB6
:102A700010BD10B5B6488088082801DD082401E0A3
:102A8000B3488488B24822460168802000F0DAFA10
:102A90000446AF4800682044AD4908600846808875
:102AA000001B888010BD10B5A9480168002000F007
:102AB0009EFA0446A64800682044A54908600846D6
:102AC0008088001B888010BD10B500221146802030
:102AD00000F0B8FA10BD10B59E49002000F087FA4A
:102AE00010BD10B50446082C6FD2DFE804F06E0468
:102AF000D9EF6E6EEEEDFFF7B6FF94490978C8097D
:102B000000F04FFA9148C088914988808F4800783A
:102B1000C0F3411020B1012878D0022877D1B4E069
:102B20008A4840780C2873D2DFE800F0060B88133F
:102B3000881B2C313846587805F036FD00B9A6E0E0
:102B40007DE0002005F098FD00B9A0E0FFF7BCFF94
:102B500075E0012005F090FD00B998E0FFF7B4FFA3
:102B60006DE07A48007800F01F0040B9774880781F
:102B700040F0800071490870FFF7A6FF00E086E092
:102B800000BF5CE005F0BCFC00B980E057E000202D
:102B900000F01DFA00206E49888050E06B480078F4
:102BA00000F01F0028B9664869490860FFF761FF17
:102BB00000E06CE000BF42E06448007800F01F00D5
:102BC00048B905F0C7FD08B961E0B2E0FFF77CFF46
:102BD000FFF728FC00E05AE000BF30E05B480078D7
:102BE00000F01F00012816D15548007888B15748D9
:102BF00000795949097888420BDA544800795749D5
:102C0000084453490860FFF734FF03E019E03DE052
:102C100014E03CE000E03AE000BF10E04B480078F0
:102C200000F01F00012806D105F05CFE00B92EE07F
:102C3000FFF74AFF00E02AE000BF00E027E000BF06
:102C40002CE04248007800F01F0001281BD13F48CB
:102C50000079B8B93D484078FE2808D0FF2810D147
:102C6000FFF7ECFB10B1FFF72FFF0DE009E0FFF7D6
:102C7000EAFB28B1374836490860FFF7FAFE03E05F
:102C800000BF00BF03E002E008E000E000BF8020DA
:102C900000F09DF900202E49888000BF00BF48E069
:102CA0002A480078C00900BB29488088F8B1FFF79E
:102CB000FAFE27488088D0B924480078C0F3411034
:102CC00028B1012810D103E02BE02EE010E0DEE770
:102CD0001E48007800F01F00012802D0022802D10F
:102CE00000E0D4E7D3E7D2E7D1E7FFF7F4FE20E036
:102CF000164800780121B1EBD01F02D1FFF7B9FED1
:102D00000EE00E48007800F0800048B10B480078D3
:102D100000F07F00094908700846007800F0DCF8F0
:102D200007E0802000F05BF903E0002000F057F995
:102D300000BF00BF10BD0000A80D0020AA0D00209C
:102D4000AB0D0020AC0D0020B00D0020CC0D0020FC
:102D5000C40D0020B90D0020B40D0020B50D0020D9
:102D600030B500F00F01F74C04EB8103D3F8002CD1
:102D700000F0800343B148F6CF731340254605EBBE
:102D80008104C4F8003C07E04CF68F731340ED4D0E
:102D900005EB8104C4F8003C30BD70B500F00F02B3
:102DA000E84D05EB8204D4F8003C00F080045CB1EF
:102DB00001F030045C4048F6BF752C40E14E06EB54
:102DC0008205C5F8004C0AE001F440545C404BF623
:102DD0008F752C40DB4E06EB8205C5F8004C70BDAC
:102DE00008B514208DF8000000208DF802000120A5
:102DF0008DF803006846FEF7C9FF08BD10B504460C
:102E00000120D14908600020091D08607CB1CF482D
:102E1000C06940F40000CD49C8610022C914CC4803
:102E2000FFF7DEF84FF48060C74908600DE001222B
:102E3000D102C748FFF7D4F80320C3490860C3484C
:102E4000C06920F40000C149C86110BD0020BE491E
:102E5000091D08604FF41C40091F08603020BD495F
:102E600008800020B84910310860BA480088BA4983
:102E700009680860B74800880830B64908800846E5
:102E80000088B54909688860B24800880830B149AF
:102E900008804FF48050B0490968C8604FF448502A
:102EA000A949403908608020A7490C310860704763
:102EB000A548006840F00800A3490860084600687B
:102EC00040F00400086070479F48006820F0080048
:102ED0009D4908607047704740F080019A4A0C3263
:102EE0001160704700BF704710B50246937803F039
:102EF0000F019088937803F0800353B1954B1B88A2
:102F0000954C246804EB01142360431C23F001005A
:102F100020E0904B1B88904C246804EB0114A360C4
:102F20003E280ED900F11F0323F01F000123C3EB3D
:102F3000401343F40043884C246804EB0114E3601D
:102F400008E0431C23F001004302834C246804EB97
:102F50000114E3607F4B1B8803447E4C2380D378AD
:102F600003F0030333B1012B07D0022B08D0032B4E
:102F70000FD10BE04FF400700BE04FF4806008E0DD
:102F8000002000230BB140F4807002E04FF4C060D9
:102F900000BF00BF08436B4C04EB8103C3F8000C77
:102FA00010BD704710B5044643F230012046FFF7CC
:102FB000F4FE10BD10B5044600212046FFF7EDFEDB
:102FC00010BD10B504462046FFF7CAFE10BD10B56F
:102FD000044641F210012046FFF7DFFE10BD10B598
:102FE000044643F230012046FFF7D7FE10BD2DE91D
:102FF000F04305460C4605F00F065748006800EB05
:10300000061080685549022202FB001952480068E8
:1030100000EB06108089C0F309074FF0000805E0B7
:1030200039F8041B2180A41C08F10108781CB8EBB6
:10303000500FF5D34FF440512846FFF7AEFE384607
:10304000BDE8F0832DE9F04306460D46144606F030
:103050000F074148006800EB071000683F49022253
:1030600002FB00194FF0000805E0288849F8040B1E
:10307000AD1C08F10108601CB8EB500FF5D33648C1
:10308000006800EB0710446030213046FFF785FEF2
:103090002046BDE8F08370B52B48001D066806F495
:1030A000806040B1FFF7D2FEFFF7B6F96FF48060A1
:1030B0002549091D086006F4006040B1FFF7F8FEDD
:1030C000FFF7AEF96FF400601F49091D086006F4B0
:1030D000805040B1FFF7F8FEFFF7A3F96FF480507E
:1030E0001949091D086006F4007020B16FF40070E2
:1030F0001549091D086050E06FF400401249091D90
:10310000086006F00F040F4901EB8400D0F8005C62
:1031100005F4004058B325F4004048F68F7108408C
:10312000084A02EB8401C1F8000C0D4850F8240055
:10313000E8B105F40060A8B1094850F82410012056
:10314000884714E000500040405C004000100240FE
:1031500000100140D80D0020D40D00200060004078
:10316000808E0008114850F824100220884705F08E
:10317000800090B125F0800048F68F7108400C4A1D
:1031800002EB8401C1F8000C084850F8240020B17B
:10319000064850F824100320884706480068064671
:1031A00000F400400028A7D170BD0000808E000808
:1031B00000500040445C0040704770B504460D4626
:1031C0003BA1204604F06EFA10B948F2010070BD30
:1031D00039A1204604F066FA10B948F20200F6E779
:1031E00037A1204604F05EFA10B948F20300EEE77A
:1031F0002946204600F04CFCE9E710B50446B4F53A
:10320000004F01DD002010BD204600F05FF8FAE716
:103210002DE9F04104460D4616461F46B4F5004F11
:1032200003DD4FF0FF30BDE8F081324629462046ED
:1032300000F082FEF7E72DE9F04104460D46164600
:103240001F46B4F5004F03DD4FF0FF30BDE8F081BD
:1032500032462946204600F079FDF7E70146B1F5F0
:10326000004F01DD012070470020FCE770B50446E7
:103270000D46B4F5004F02DD4FF0FF3070BD29461A
:10328000204600F0C1FDF9E710B50446B4F5004F43
:1032900001DD002010BD04EB840101EBC4010A4AEA
:1032A00002EB8100002100F0EBFCF3E700BFFEE73A
:1032B000535444494E0000005354444F55540000A9
:1032C0005354444552520000BCD400207CB50646FD
:1032D0001F48AFF3008006EB860000EBC6001D49D7
:1032E00001EB8004207904280CD1A07800F00200C2
:1032F00018B3204603F09BFBF8B9002020806080C3
:10330000451E1FE0A07800F00200B0B1A07800F0E8
:10331000200090B1606900902088ADF80400608AB8
:10332000ADF80600228AE16851F83210A2698818C7
:1033300023460822694600F080FA00202080608041
:10334000002500BF0248AFF3008028467CBD000086
:1033500000000000BCD400202DE9F0418AB00646F0
:103360000C460027002533E02146284600F0E9F806
:10337000804608A9404600F09DF98046089880F0F4
:103380000F00A16888421BD12146284600F040F971
:10339000012800D11BE02146284600F00EF968B94B
:1033A000A06880F0FF000890E16801EBC5012346AA
:1033B0000422486808A900F040FA08E06F1C0AE0FF
:1033C0000898A168884201D107B96F1C00BF6D1C25
:1033D000E088A842C8D800BF1FB901200AB0BDE8E4
:1033E000F081781E2082204600F03FF9208A214695
:1033F00000F0A7F8804608A9404600F05BF908985D
:10340000A16888420AD1A06880F00F00089028F0D7
:1034100001002346042208A900F00FFA002503E06A
:10342000705D0DF805006D1C705D08B11F2DF7D3A0
:1034300000200DF80500281D20F00305228AE16810
:1034400051F832106269881823462A46694600F00E
:10345000F4F960692844606160690890208840F44C
:103460000040ADF824000020ADF82600228AE16873
:1034700051F83210A26988182346082208A900F0E2
:10348000DCF9A0690838A0610020A7E7FEB5044672
:10349000A068C0430090278A002538E021463846BE
:1034A00000F04FF8064601A9304600F003F9064641
:1034B0000198A168884223D000BF01A9304600F0DE
:1034C0002BF80646BDF80800C0F30E00218888429C
:1034D00008D126F0010101F10C00234604226946BF
:1034E00000F0ABF90198A1688842E6D12146384640
:1034F00000F05EFA012803D12146384600F07AFA3E
:10350000781C0746E188884200D100276D1CE088BE
:10351000A842C3D80020FEBD70B504460D4604F095
:10352000010030B124F001002A46082100F009FE14
:1035300004E02E462068306060687060A4F10800E6
:1035400070BD0246CB6803EBC20358680B79022BAF
:1035500001D140F0010070472DE9FC4104460E46C0
:1035600044F4004448F2010521E0002717E0314609
:103570003846FFF7E6FFA0F1080800BF694640465D
:10358000FFF7CAFF8046BDF80400A84200D10DE055
:103590000098B1688842F1D100BF00BF7F1CF0885D
:1035A000B842E4D8C5F30E00BDE8FC816D1CA5420D
:1035B000DBD3601CC0F30E00F6E72DE9FC410646A4
:1035C0000C4621463046FFF7BCFFA0F108074FF03C
:1035D000000800BF69463846FFF79EFF074600987F
:1035E000A168884200D102E0DDF80080F2E700BF68
:1035F000E06850F8361027F001000830401AA0EBC0
:103600000805FF2D02D80020BDE8FC812846FBE715
:1036100010B502460B46002121E001EB810000EBD2
:10362000C100FA4C04EB8000984200D116E001EB97
:10363000810000EBC100F54C04EB8000807800F0C5
:10364000020050B101EB810000EBC10004EB8000EF
:10365000008A904201D1012010BD00BF491CEC48F6
:1036600000888142D9D30020F6E77CB50446208A41
:103670002146FFF766FFA0F10805002600BF694656
:103680002846FFF749FF05460098A168884200D107
:1036900001E0009EF3E700BFF01C20F00300606132
:1036A000218AE06850F8311025F001000830401AF6
:1036B000A0617CBD70B504460D4604F0010030B138
:1036C00024F001002A46042100F03BFD01E02068BF
:1036D0002860A4F1080070BD2DE9FC410446258A4C
:1036E00000263DE021462846FFF72BFF07466946A6
:1036F0003846FFF7DFFF07460098A168884228D0C8
:103700004FF0000800BF69463846FFF705FF07463F
:10371000BDF804002188884212D1BDF80600618AF4
:1037200088420DD1258208F1030020F0030060617A
:103730000098A061608A401C60820120BDE8FC8185
:103740000098A168884200D102E0DDF80080DAE745
:1037500000BF681C0546E188884200D10025761C20
:10376000E088B042BED80020E8E72DE9F0478AB0F3
:1037700081460C464FF40048002559E02146284672
:10378000FFF7DFFE064608A93046FFF793FF06461F
:103790000898A16888424AD04FF0000A00BF08A9E3
:1037A0003046FFF7B9FE0646BDF82400B0F5004FDD
:1037B00034DDBDF824004FF6FF7188422EDAE06850
:1037C00050F8350000EB0A07F81C20F0030706F05C
:1037D000010028B16A462021384600F0B2FC04E01E
:1037E0006A462021384600F0D0FC00208DF81F00EA
:1037F0006946484600F0B6FC012809D1BDF824000E
:10380000C0F30E002080258200200AB0BDE8F087BA
:10381000BDF82400404501D9BDF824800898A1686E
:10382000884200D102E0DDF820A0B8E700BF6D1C9F
:10383000E088A842A2D84046E7E72DE9F0410746D4
:103840000D4614461E464FF00108E01C20F003040C
:103850003079012804D0022809D0032815D10DE0C1
:103860002A462146384600F064FC80460DE02A4690
:103870002146384600F06FFC804606E02A46214685
:10388000384600F08DFC804600BF00BFB8F1000F45
:1038900002D00020BDE8F0810120FBE71CB5044602
:1038A000A06908386169884201D900201CBD60699F
:1038B00000902088ADF80400608AADF80600608AA8
:1038C000401C6082228AE16851F83210A26988188F
:1038D000234608226946FFF7B0FFA06880F0FF008A
:1038E0000090228AE16801EBC20123460422486865
:1038F0006946FFF7A2FF0120D8E7F8B50446258AFC
:10390000002750E021462846FFF71BFE0646694681
:103910003046FFF7CFFE0646A0680099884218D1CE
:10392000258200206061E06850F8350026F0010132
:10393000081AA061009880F00F00009026F00101A5
:1039400001F10800234604226946FFF776FF0120B3
:10395000F8BD009880F00F00A16888421CD1214674
:103960002846FFF755FEB8B921462846FFF725FE41
:1039700028B125822046FFF778FE0120E8E7A068FD
:1039800080F0FF00009026F0010101F108002346BD
:1039900004226946FFF751FF681C0546E18888420A
:1039A00000D100257F1CE088B842ABD80020CFE7CB
:1039B0002DE9FC4105460C462089C04387B22146CB
:1039C0002846FFF7BEFDA0F1080600BF6946304655
:1039D000FFF7A2FD06460098A168884200D106E0E4
:1039E000BDF80400B842F1D00020BDE8FC8100BF62
:1039F0000120FAE72DE9F04105460E46307901280D
:103A000008D002280DD0032820D111E0BCD400201A
:103A10007C8F00081B4850F83540204600F085FB9D
:103A200014E0194850F83540204600F090FB0DE0B6
:103A3000164800EBC5004768144850F8354002E0CE
:103A400000202060241DBC42FAD900BF00BF012025
:103A5000BDE8F0812DE9F04107460C4615461E46AB
:103A60003079022807D122462946384600F069FB02
:103A70000120BDE8F08122462946384600F085FB4A
:103A80000120F6E7848F0008988F0008A88F0008AF
:103A90002DE9F047824688467548AFF3008000F074
:103AA000B2FB0746401C10B94FF0FF36D9E007EBD8
:103AB000870000EBC7006F4901EB8004504600F01F
:103AC0007AFB2071207910B10AF1020A02E06A48FB
:103AD0000078207108F0020000B1A6E008F00C00A8
:103AE00008B1022000E00120608008F0080018B151
:103AF000608840F004006080207904280AD12146C3
:103B0000504602F0FEFA012801D0012000E000201A
:103B100081460BE0204600F08DFB00B985E00020D7
:103B2000608221465046FFF720FE8146B9F1000F22
:103B300076D100254CE0BD4200D148E005EB850080
:103B400000EBC5004B4901EB8000807800F00300DA
:103B500000B93CE005EB850000EBC500454901EBF1
:103B6000800000792179884200D030E005EB8500A3
:103B700000EBC5003F4931F820002188884200D081
:103B800025E005EB850000EBC5003A4901EB80001C
:103B9000007904280AD105EB850000EBC50001EB94
:103BA0008000806AA16A884200D010E005EB8500A1
:103BB00000EBC5002F4901EB8000807800F0020087
:103BC00018B9A07800F0020000B12EE000BF6D1C13
:103BD0002A4800888542AED3A07800F0040030B1B6
:103BE0000121204600F04CF8E0623E4639E02079A1
:103BF000042808D1A07800F0020078B12146504690
:103C000002F05EFD19E0A07800F0020020B120462D
:103C1000FFF73CFC1DE003E06069A0613E4620E048
:103C2000A07800F0010020B100BF00206080461E97
:103C300017E02079042806D100BF2146504602F043
:103C400099FB60B9F1E721464846FFF785FC2080E3
:103C500000BF21465046FFF77FFB00B1E5E73E4637
:103C600000BF0348AFF300803046BDE8F087000096
:103C700000000000BCD400207E8F00087C8F00086C
:103C80002DE9FE4F04460F462F48AFF30080207900
:103C9000042801D1E66A51E0A07800F0040010B1D8
:103CA0000FB9E66A4AE00025A946B4F8108000BFC3
:103CB0004FF0000A3AE021464046FFF742FC0090F0
:103CC00001A90098FFF7F6FC00900198A1688842CE
:103CD00022D04FF0000B00BF01A90098FFF71CFC99
:103CE0000090BDF80800218888420CD1BDF80A0078
:103CF000A84208D10BF1030020F003000199081A33
:103D000081446D1CD4E70198A168884200D102E08B
:103D1000DDF804B0E0E700BF08F101008046E1886B
:103D2000884201D14FF000080AF1010AE0885045AD
:103D3000C1D8012F00D165824E4600BF0248AFF3C3
:103D400000803046BDE8FE8F000000002DE9F05FE6
:103D50008346894616462A48AFF30080B9F1000F22
:103D600002D14FF0FF3844E00BEB8B0000EBCB00AF
:103D7000244901EB8004207904280CD132464946BD
:103D8000204602F01DFD054615B946F0004830E01A
:103D9000A6EB05082DE0002726E0D4E905108842AF
:103DA0000AD12046FFF798FC30B917B946F0004811
:103DB0001FE0A6EB07081CE0F51BD4E90510A0EBFB
:103DC000010AAA4500D25546238AE26852F83320F8
:103DD0006369D01809EB070123462A46FFF73AFE2C
:103DE0006069284460612F44B742D6D34FF0000881
:103DF00000BF0348AFF300804046BDE8F09F0000DD
:103E000000000000BCD400202DE9F34F83B00E4623
:103E10004748AFF30080039800EB800101EBC0003E
:103E2000444901EB8004207904280AD13146204618
:103E300002F043FE012801D1002572E04FF0FF356A
:103E40006FE0A07800F0020080B1A07800F00400DC
:103E500048B1E06AB04206D12046FFF74EFD012886
:103E600001D100255DE04FF0FF355AE04FF000082A
:103E7000C246278A00BF4FF0000B4CE0214638466F
:103E8000FFF75FFB009001A90098FFF713FC00907B
:103E90000198A168884236D04FF0000900BF01A9FF
:103EA0000098FFF739FB0090BDF808002188884290
:103EB00020D1BDF80A0040451CD109F1030020F0D3
:103EC000030908F101080198A0EB09005044B04231
:103ED00004D20198A0EB09008244CCE72782A4F821
:103EE000128009EB0600A0EB0A0060610198A06156
:103EF000002516E00198A168884200D102E0DDF8B3
:103F00000490CCE700BF781C0746E188884200D1C6
:103F100000270BF1010BE0885845AFD84FF0FF3573
:103F200000BF0348AFF30080284605B0BDE8F08F1E
:103F300000000000BCD400202DE9FC4781468846E3
:103F400015464048AFF30080B8F1000F02D14FF0A2
:103F5000FF3671E009EB890000EBC9003A4901EB3B
:103F60008004207904280AD12A464146204602F0DE
:103F700086FC10B94FF0FF365EE000265CE04FF0A3
:103F8000000A05F0030008B14FF0010A25E0D4E96A
:103F90000510401AA0F10807AF4200D92F46ED1BCB
:103FA000228AE16851F832106269881823463A463D
:103FB0004146FFF742FCB8446069384460612046DE
:103FC000FFF76CFC012808D12046FFF796FC10B9DA
:103FD0004FF0FF3630E005B928E0002DD7D1BAF117
:103FE000000F04D1608840F02000608022E060690A
:103FF00000902088ADF80400608AADF80600608A61
:10400000401C6082228AE16851F83210A269881847
:10401000234608226946FFF710FCA0690838A06112
:104020006069C01C20F00300606100BF608820F060
:1040300020006080002600BF0248AFF300803046B9
:10404000BDE8FC8700000000BCD400202DE9F04151
:1040500006462048AFF3008000F0D5F80746401C24
:1040600008B9012530E007EB870000EBC7001A49CB
:1040700001EB8004304600F09EF82071207908B1F1
:10408000B61C02E01548007820712079042809D177
:104090002146304602F014FB012801D1002513E02F
:1040A000012511E0204600F0C5F808B901250BE014
:1040B00021463046FFF759FB20B92046FFF7E6F9C5
:1040C000054601E0012500BF0248AFF30080284605
:1040D000BDE8F08100000000BCD400207E8F000805
:1040E00070B50C48AFF300800B4801680B480068BE
:1040F00000F016F8040200F022F844EA004400F050
:10410000DEFC0443254600BF0248AFF3008028468A
:1041100070BD000000000000808F0008948F000830
:10412000024600BF00BF00207047014600BF0020CC
:104130007047034600BF00BF00BF0020704700204B
:104140007047034600BF00BF00BF00207047014614
:1041500000BF00207047034600BF00BF00BF002023
:1041600070470000024607E010780B78984201D0B3
:1041700000207047521C491C10780028F4D10878A0
:1041800008B10020F5E70120F3E770B504460D46BD
:1041900016462A462146304603F0BBF9002070BD82
:1041A00070B506460C46154622462946304603F0B1
:1041B000B0F9002070BD014648783A2801D00020AF
:1041C00070470878662811D008DC46280DD04D28A5
:1041D00014D052280FD0532813D109E06D280ED0E7
:1041E000722809D073280CD103E000BF0120E7E753
:1041F00000BF0220E4E700BF0320E1E700BF042086
:10420000DEE70020DCE770B5204806880025204C5A
:104210000BE0A07800F0030028B93421204603F019
:1042200019FA284670BD34346D1CB542F1D34FF0F5
:10423000FF30F7E701460879012804D002280BD0A7
:1042400003281AD111E01348C86013480068886039
:1042500012480088C88012E01148C8601148006800
:10426000886011480088C88009E01048C8600020B4
:1042700088600F480088C88001E00020704700BFB8
:10428000C88808B90020F9E70120F7E77C8F00080B
:10429000BCD40020848F0008908F00088C8F000809
:1042A000988F0008A48F0008A08F0008A88F00082E
:1042B000B08F00082DE9F0410220FDF7FBF96421E1
:1042C00090FBF1F40220FDF7F5F9642190FBF1F287
:1042D00001FB12050320FDF7EDF90646200440EA34
:1042E000052040EA06073846BDE8F0812DE9F04197
:1042F0000120FDF7DFF9642190FBF1F70120FDF7C4
:10430000D9F9642190FBF1F201FB12060020FDF7C0
:10431000D1F9044640F2BC70844203D340F63B001E
:10432000844201D94FF4FA64200440EA072040EAAD
:1043300006052846BDE8F08110B50446F74801227D
:1043400081682046FCF7A7FD012803D1F3480460EB
:10435000012010BD0020FCE710B50446F04800889D
:1043600040B92CB12046FFF7E7FF08B9002010BD87
:104370000120FCE784B9E948007C58B1E74B1A7C7E
:10438000D9685868FCF787FD08B90020EFE70020DE
:10439000E24908740120EAE7E0480460007C002854
:1043A0002ADDDE484068DD49097C0844A04217D177
:1043B000DA48007CDA490988884211DAD74AD3689A
:1043C000127C03EB4220D54A91684FF4007203F04F
:1043D000A0F8D248007C401CD04908740120C6E7F0
:1043E000CE4B1A7CD9685868FCF755FD08B90020F7
:1043F000BDE70020C9490874C84A9168D0684FF4E5
:10440000007203F086F8C54844600120C34908746F
:10441000002048740120AAE70A1242700170704718
:104420000A0EC2700A0C82700A0A4270017070474C
:1044300010B5BA4988684FF4007103F0E9F8B7493C
:104440008868B849FFF7ECFFB449896801F5F27054
:10445000B549FFF7E5FFB149896801F5F470B34943
:104460000968FFF7DDFFAD49896801F5F670B049CD
:104470000968FFF7D5FFA949896801F5FF704AF679
:104480005521FFF7C9FFAB490968AA4A928D8818E0
:10449000FFF762FF08B9002010BD0120FCE710B54E
:1044A0000446A5480068A04201D1012010BDA248E1
:1044B000007A01281CD1A04A516810680122FCF73B
:1044C000EAFC08B90020F1E79A48407902280CD1AB
:1044D000994A1268974B1B89D018974A5168012254
:1044E000FCF7D9FC08B90020E0E7002092490872E7
:1044F0000CB90120DAE79048012241682046FCF718
:10450000D9FC012803D18C4804600120CEE74FF08C
:10451000FF30894908600020C8E7024685480079D5
:10452000012804D0022806D0032808D105E002EBB8
:104530004200810A05E0110A03E0D10901E00020F0
:10454000704700BF7B480089884201D80020F7E708
:1045500078480068774B5B89184401440846EFE7C8
:10456000014608784A7840EA022070472DE9F04178
:1045700000277048007901283BD1022432E0204610
:10458000FFF7CBFF05462846FFF789FF10B93846ED
:10459000BDE8F08104EB4400C0F34808B8F5FF7FA4
:1045A00007D86549496801EB0800FFF7D9FF0646BF
:1045B0000EE06148406890F8FF61681CFFF76FFFEC
:1045C00008B93846E4E75C484068007846EA0026C7
:1045D00004F0010008B1360901E0C6F30B0606B984
:1045E0007F1C641C53488069801CA042C7D8384691
:1045F000CEE750480079022822D1FFF78EFF05460A
:104600002846FFF74CFF08B93846C1E7022410E0FE
:10461000E0B230B96D1C2846FFF741FF08B93846B3
:10462000B6E745484068E1B230F8110000B97F1C98
:10463000641C40488069801CA042E9D83846A7E73E
:104640003C480079032825D10220FFF766FF054684
:104650002846FFF724FF08B9384699E7022412E0FC
:1046600004F07F0030B96D1C2846FFF718FF08B929
:1046700038468DE73048406804F07F0150F821004B
:1046800000B97F1C641C2B488069801CA042E7D8BD
:1046900038467DE700207BE70146C87800068A7827
:1046A00040EA02404A7840EA02200A781043704704
:1046B00010B5044619480068A04201D1012010BD80
:1046C00016484068A04216D8144840681349097C2F
:1046D0000844A0420FD9114AD3685268A21A03EBCA
:1046E00042210E4A90684FF4007202F012FF0B480C
:1046F00004600120E3E70948012281682046FCF7B5
:10470000D9FB012803D1054804600120D7E74FF009
:10471000FF30024908600020D1E7000008DC0020DB
:10472000B28F00085252614172724161DC0D00206B
:10473000E00D00201CDC0020FCDB002010B5FE4951
:104740000968FD4A928D8818FFF7B2FF08B900206A
:1047500010BDFA49896801F5FE70FFF79DFFF84921
:10476000884201D00020F3E7F4498868FFF794FFFE
:10477000F449884201D00020EAE7F049896801F550
:10478000F270FFF789FFF049884201D00020DFE78F
:10479000EA49896801F5F470FFF77EFF0446E648B0
:1047A0008069A04201D20020D2E7E8480460E349D2
:1047B000896801F5F670FFF76FFF0446022C03D3FA
:1047C000DD488069A04201D20020C1E7E0480460D2
:1047D0000120BDE7D848C08AB0F5007F01D0002095
:1047E0007047D5488079082811D006DC01280BD005
:1047F00002280AD004280ED108E0102808D020286A
:1048000007D0402807D105E000BF00BF00BF00BFB0
:1048100000BF00BF01E00020E2E700BFC6484089BA
:1048200008B90020DCE7C4484079012802D00228FA
:1048300002D100E000BF01E00020D1E700BFBE4888
:104840000089BD49C968884201D90020C8E7012014
:10485000C6E710B5B8490868FFF72AFF08B9002075
:1048600010BDB649896801F5FF70FFF779FE4AF679
:104870005521884201D00020F2E7B0488068407B93
:10488000AD498871AD49896801F10B00FFF768FEF9
:10489000A949C882A949896801F10E00FFF760FEA5
:1048A000A5494881A5488068007C4871A34989686A
:1048B00001F11100FFF754FE9F4988829F498968E2
:1048C00001F11300FFF74CFE9B49C8609B498968C2
:1048D00001F11600FFF744FE974908810846C068B9
:1048E00010BB08460089F8B99449896801F128008D
:1048F000FFF736FE9049C8849049896801F12C0081
:10490000FFF7CAFE8C4988628C49896801F1300042
:10491000FFF726FE884988858849896801F13200B9
:10492000FFF71EFE8449C8858348C06838B98349AB
:10493000896801F12000FFF7AFFE7F49C8607E481B
:10494000008938B97D49896801F12400FFF7A4FE88
:1049500079490881012083E710B50020FFF7A8FE00
:1049600008B9002010BD7549896801F5FF70FFF78F
:10497000F7FD4AF65521884201D00020F2E76F4842
:1049800080680078E92809D06C4880680078EB28B6
:1049900008D16A4880688078902803D10020664951
:1049A000086007E06549896801F5E370FFF774FE68
:1049B000614908600120D5E710B54FF0FF30654927
:1049C00008606548486000200872401E5B49086026
:1049D0006248886000F50070C86000200874487460
:1049E00002205B4908603021534802F033FEFFF794
:1049F000B3FF08B9022010BDFFF72BFF08B9032051
:104A0000F9E7FFF7E7FE08B90420F4E74A48C18A4E
:104A1000808A01EB4010401E4749C98A90FBF1F49F
:104A20004548408944494979434A128901FB0200BB
:104A300020444149C968081A3F490861084600698D
:104A40008979B0FBF1F03C49886108464089497991
:104A5000394A128901FB020037498883CC83084612
:104A60008079C98A4843344908620846006AC0F31D
:104A70004F1088840846806940F6F571884203D259
:104A800001202D49087118E02B4880694FF6F57117
:104A9000884203D20220284908710EE003202649EB
:104AA0000871FFF74BFE40B9FFF760FD274908602A
:104AB000FFF7BEFC08B905209DE700209BE710B575
:104AC000FCF7E4F908B9012010BDFFF775FFFBE71B
:104AD00070B5FFF7EFFB0646C6F344041D2C00D962
:104AE00000242546C6F305243B2C00D9002445EAC2
:104AF0004415C6F30444172C00D9172445EAC425ED
:104B0000A8B270BD70B5FFF7F1FB064606F01F04B2
:104B100004B901242546C6F303240C2C00D804B99B
:104B2000012445EA441540F2BC70C0EB164404F081
:104B30007F0445EA442513E01CDC002008DC00204B
:104B4000000055AA5252614172724161DC0D002091
:104B5000E00D0020FCDB0020FCD70020FCD9002069
:104B6000A8B270BD0146302901DB392907DD412992
:104B700001DB5A2903DD5F2901D0202901D1084634
:104B80007047612904DB7A2902DC21F02000F7E775
:104B90000020F5E72DE9F04707468846FE4885687E
:104BA000002407E0385DFFF7DDFF064606B903E0A5
:104BB0002E55641C0B2CF5D300BF02E02020285595
:104BC000641C0B2CFAD30820E872FFF79BFF814688
:104BD000494605F11800FFF71FFCFFF779FF8146F2
:104BE000494605F11600FFF717FC4046FFF7B4FBF6
:104BF00010B90020BDE8F087E7498868202102F05D
:104C000007FD0120F6E710B50446E34988684FF434
:104C1000007102F0FDFCE920DF498968087000207E
:104C2000DD49896848709020DB4989688870DA48D6
:104C30008068DAA10A6840F8032F49684160D649C4
:104C4000896801F10B004FF40071FFF7E5FBD648CE
:104C50008079D14989684873D348807ACE49896878
:104C600088730220CC4989680874CF4800790328EA
:104C700007D0C949896801F111004FF40071FFF7AD
:104C8000CBFBC948C068B0F5803F09D2C64A9289BB
:104C900091B2C14A926802F11300FFF7BDFB07E031
:104CA000C14AD168BC4A926802F12000FFF7B8FB04
:104CB000F820B949896848753F20B749896808765E
:104CC000FF20B54989688876B74A1168B24A926868
:104CD00002F11C00FFF7A4FBB348007903283AD087
:104CE000B14A1189AC4A926802F11600FFF794FBB1
:104CF0008020A949896881F824002920A64989686B
:104D000081F82600A449896801F127002146FFF7B0
:104D100087FBA1488168A5A0026841F82B2F426853
:104D20004A6002890A81807A88729F480079012846
:104D300008D199488068A0A10A6840F8362F4968D0
:104D400041604AE0944880689EA10A6840F8362F86
:104D50004968416041E0944A11898F4A926802F1A2
:104D60002400FFF75DFB8C49896801F12C000221CA
:104D7000FFF756FB8849896801F130000121FFF7F0
:104D80004BFB8549896801F132000621FFF744FB9E
:104D900080208149896881F8400029207E498968FE
:104DA00081F842007C49896801F143002146FFF700
:104DB00037FB794880687DA10A6840F8472F4A6828
:104DC00042600A890281897A81727348806880A171
:104DD0000A6840F8522F496841606F49896801F5B7
:104DE000FF704AF65521FFF717FB6F490868FFF778
:104DF000B3FA08B9002010BD6B480079032807D129
:104E000069490968881DFFF7A7FA08B90020F2E789
:104E10000120F0E770B504465F4988684FF40071DF
:104E200002F0F6FB00205C49896881F8BE01012090
:104E30005949896881F8BF015749896801F5E070CF
:104E40000121FFF7E9FA58480079012804D0022827
:104E500008D003281AD113E001204F49896881F84E
:104E6000C20113E0032C05D204204B49896881F864
:104E7000C20104E006204849896881F8C20105E0C2
:104E80000B204549896881F8C20100BF00BF04EBCF
:104E90004400524901EB80000079401E3E49896878
:104EA00081F8C30104EB44004C4901EB8000817997
:104EB00004EB4400494A02EB80000089401E41EAAD
:104EC0008015A9B2344A926802F5E270FFF7A4FA9D
:104ED000354A1168304A926802F5E370FFF7A0FA8C
:104EE000314AD1682C4A926802F5E570FFF798FACA
:104EF0002949896801F5FF704AF65521FFF78CFAB8
:104F00000020FFF719FA70BD70B505460C460AE09F
:104F100014F8011B2F2906D121462846FFF722F954
:104F2000012800D170BD20780028F1D100BFF9E739
:104F300070B506460020184908744874284805884A
:104F400005B901256902144A9068FF2202F058FB56
:104F5000002409E010482A4681682046FBF79BFFA1
:104F600008B9002070BD2C44B442F3D30120F9E706
:104F700010B501460C4800680B4CA48B02190A4876
:104F80000079032802D00848C08B0244881E064CD2
:104F9000A47900FB04F325E008DC00204D535749B9
:104FA0004E342E31000000001CDC00204E4F204EFD
:104FB000414D452020202000464154313220202000
:104FC000000000004641543136202020000000003F
:104FD000464154333220202000000000B48F0008E6
:104FE000B28F0008D01810BD2DE9F0470546002605
:104FF000D5F81C80FFF76CFD8146FFF783FD8246E4
:10500000F94988684FF4007102F002FBF6488468A1
:105010000B22F6A1204602F0C1FA1020E0724946A8
:1050200004F10E00FFF7F8F9514604F11000FFF704
:10503000F3F9514604F11200FFF7EEF9494604F185
:105040001600FFF7E9F9514604F11800FFF7E4F9FB
:105050002022214604F1200002F0A0FAE869010CA8
:1050600004F11400FFF7D8F9A88B81B204F11A00FB
:10507000FFF7D2F920342E206070DF480068010C61
:1050800004F11400FFF7C8F9DB48008881B204F18D
:105090001A00FFF7C1F94046FFF76AFF0746384696
:1050A000FFF74AF910B90020BDE8F087CE498868BB
:1050B000402102F0ADFA012606E0B819FFF73CF9ED
:1050C00008B90020F0E7761CCC488079B042F4D8CB
:1050D000022028800120E7E770B505462846FFF743
:1050E00047FF0646C04988684FF4007102F090FA05
:1050F000002406E03019FFF72FF908B9002070BD31
:10510000641CBE488079A042F4D80020FFF724F93F
:1051100008B90020F3E70120F1E72DE9F041064648
:105120000C463046FFF7F9F980464046FFF7B7F9DD
:1051300010B90020BDE8F081B0480079012804D002
:10514000022855D0032874D15BE0C4F30B0406EBAE
:105150004600C0F34805B5F5FF7F18D8A84949684F
:105160004819FFF7FDF9074606F0010020B138465F
:1051700064F31F10074603E007F4704040EA040799
:10518000B9B29F4A52685019FFF746F92FE006F06E
:10519000010050B19A48406890F8FF0164F31F1075
:1051A0009749496881F8FF0103E09549496881F80A
:1051B000FF4101209249087208F101084046FFF7BB
:1051C0006EF908B90020B5E706F0010028B1C4F374
:1051D00007108B494968087009E0894840680078E1
:1051E00000F0F00040EA142085494968087022E088
:1051F0003006C50DA1B2824A52685019FFF70CF96A
:1052000019E07006C50D7E4949684819FFF744FA50
:1052100038B97C48006820B17A480068401E794956
:1052200008607749496848192146FFF7F9F802E014
:10523000FFE700207EE700BF01207149087200BF30
:1052400078E76E480079012804D0022805D00328A9
:1052500009D105E040F6FF7070474FF6FF70FBE79D
:105260006FF07040F8E70020F6E710B50246664898
:105270000488002365490CE0887800F0020000B93A
:1052800005E0886A904201D1012010BD00BF343191
:105290005B1CA342F0D30020F7E72DE9F04107465D
:1052A0003C685B4804685AE02046FFF736F98046C0
:1052B0004046FFF7F4F810B90020BDE8F0814F48F0
:1052C0000079012804D0022828D0032838D12EE004
:1052D00004EB4400C0F34805B5F5FF7F06D8484904
:1052E00049684819FFF73CF906460FE04448406812
:1052F00090F8FF6108F10100FFF7D1F808B900202C
:10530000DBE73F484068007846EA002604F00100E9
:1053100008B1360901E0C6F30B0613E02006C50DFF
:10532000374949684819FFF71BF906460AE0600645
:10533000C50D334949684819FFF7AEF9064601E043
:105340000020BAE700BF4EB92046FFF78EFF28B90C
:105350003C60601C2E4908600120AEE7641C2748B1
:105360008069801CA0429FD8294804600020A4E7DF
:105370002DE9F04104460D4626682046FFF78DFFD3
:1053800010B90020BDE8F081FFF75BFF0746394602
:105390002068FFF7C2FE08B90020F3E735B13046B8
:1053A0002168FFF7BAFE08B90020EBE70020FFF7FD
:1053B00076F808B90020E5E70120E3E730B50246BA
:1053C00000200CE00C5C04B90BE00C5C114D2D5C72
:1053D000545500250F4C245C641C1555401C0D28A9
:1053E000F0D300BF002320E008DC00202E20202086
:1053F0002020202020202000E40D00201CDC0020A4
:10540000FCDB0020DC0D00207C8F0008BCD40020D9
:10541000E00D002050900008FE4C245C1355FD4C1C
:10542000245C641C1355FF23401C0D28F4D330BDAD
:1054300010B50246002000210BE000F001030BB183
:10544000802300E0002303EB6003545C2344D8B2C4
:10545000491C0B29F1D310BD0146202901DB21296C
:1054600019DD232901DB292915DD2D2913D02E294A
:1054700011D0302901DB39290DDD40290BD041291C
:1054800001DB5A2907DD5E2901DB7B2903DD7D294C
:1054900001D07E2901D1012070470020FCE710B522
:1054A00004462046FFF7D8FF08B9582010BD204613
:1054B000FCE72DE9F04704460E464FF0000A0025B0
:1054C00002E0202070556D1C0B2DFAD30020705582
:1054D00094F80080677894F80290B8F12E0F0FD1FD
:1054E00027B92E2030700120BDE8F0872E2F07D17C
:1054F000B9F1000F04D12E20307070700120F3E755
:10550000002520E0207808B90120EDE720782E283A
:1055100003D14FF0010A641C17E02078202801D144
:10552000641C10E02078FFF7BAFF7055705D6128A9
:1055300006DB705D7A2803DC705D20F0200070557A
:105540006D1C641C00BF082DDCD300BF082523E0C0
:10555000207808B90120C7E720782E2803D14FF022
:10556000010A641C18E02078202801D1641C13E093
:10557000BAF1000F0ED02078FFF791FF7055705DE3
:10558000612806DB705D7A2803DC705D20F0200066
:1055900070556D1C641C00BF0B2DD9D30120A3E7EF
:1055A00010B503460A4600210BE0585C545C60408D
:1055B00020F0200008B1002010BD505C00B902E0CE
:1055C000491C0B29F1D300BF0120F5E710B50346B4
:1055D0000A4600210DE08F48405C185C545C604036
:1055E00020F0200008B1002010BD505C00B902E09E
:1055F000491C0D29EFD300BF0120F5E7014686487D
:105600000079012804D0022809D0032816D10DE022
:1056100040F6F870814201D3012070470EE04FF64A
:10562000F870814201D30120F7E707E021F07040D4
:105630007A4A904201D30120EFE700BF00BF00206B
:10564000EBE72DE9F04107463E683046FEF765FF7F
:1056500080464046FEF723FF10B90020BDE8F081E8
:1056600000256D480079012804D0022828D003289D
:1056700032D12BE006EB4600C0F34804B4F5FF7FBF
:1056800006D8674949680819FEF76AFF05460FE022
:105690006348406890F8FF5108F10100FEF7FFFEF3
:1056A00008B90020DAE75E484068007845EA00253E
:1056B00006F0010008B12D0901E0C5F30B050DE06E
:1056C0003006C40D56484068055B07E07006C40DFF
:1056D00053484068055901E00020BFE700BF3D6026
:1056E0000120BBE770B5054600204E490870A5B9FA
:1056F0004D49086048480079032805D14649886A21
:10570000FFF736FC04460CE0434800684249898BA9
:10571000441801204349087003E02846FFF728FC9D
:105720000446204670BD2DE9F04704460027B846E0
:105730000026B14632E02078FFF78EFE00B933E054
:105740002078202800D12FE020782E2806D107B11C
:105750002AE0641C4FF0000901271FE02578612D25
:1057600001DB7A2D03DD412D0BDB5A2D09DCB8F16D
:10577000000F05D088EA050000F0200000B113E01A
:10578000A8462FB1484609F10109022803D90BE0C8
:10579000082E00D308E0761C641C00BF2078002887
:1057A000C9D10C2E03D300BF0120BDE8F087002033
:1057B000FBE72DE9FF4F8FB00D46994600200A9078
:1057C0001198012800D100E00020099001274FF036
:1057D000000A00200890079006904FF00108E86941
:1057E00005900020049003900F49E86908600F9825
:1057F000FFF799FF012809D10F9801F06BFE0C30DB
:105800000D21B0FBF1F0404400F0FF080BA90F9808
:105810000CE00000509000081CDC0020F8FFFF0F97
:10582000FCDB0020EF0D0020E40D0020FFF741FE1F
:10583000C0B208900598FFF755FF0290002600BF00
:10584000F948007830B1B6F5007F1FD1002013B0C1
:10585000BDE8F08FF548808CB04217D10026F348A0
:10586000806A0599884202D9F048806A059005A8A7
:10587000FFF7E7FE08B90020E9E70598FFF7BEFE4D
:1058800000B194E00598FFF773FB0290029901EBD9
:105890001610FEF70DFF08B90020D8E7E44880682D
:1058A00006F00F0100EB4114207800B97FE020786A
:1058B000E52800D179E0E07A082800D175E0E07AA7
:1058C0000F2814D1207800F0400080B101200A9008
:1058D0000127207820F04000401C404500D00027E0
:1058E00005980490039600200690607B0790E07A6C
:1058F000C0F300100999484008B9012000E00020D9
:1059000082460A98A0B30698401CC0B20690E07A7E
:105910000F2814D000200A906FB12046FFF788FDB1
:105920000799884207D1BAF1000F08D0B9F1000FEA
:1059300000D03EE03FE0B8F1010F00D126E007B90A
:1059400033E0617B0798814201D000272DE0207869
:1059500000F01F00401E00EB800101EBC000019031
:105960000F9A019811182046FFF730FEC7B21BE0CE
:10597000FFE7B8F1010F17D10598049003960120B5
:105980000690BAF1000F00D10FE000BF089800B9EF
:105990000BE00BA92046FFF703FEC7B227B1B9F110
:1059A000000F00D005E006E000BF761C48E70020AD
:1059B0004DE701204BE7E07A687104F11A00FEF729
:1059C000CFFD834604F11400FEF7CAFD0BEB004047
:1059D000E8612E80059828629649049808609649E7
:1059E000039808809549069808700020286304F100
:1059F0001C00FEF751FEE862012028E770B504465E
:105A00000D4616460123324629462046FFF7D1FEB1
:105A100070BD2DE9F84F83460F4614464FF000083D
:105A20004FF6FF7000908648844202DD4FF0060A70
:105A300018E042F20F70844202DD4FF0050A11E0D7
:105A4000B4F57A7F02DB4FF0040A0BE0632C02DD31
:105A50004FF0030A06E0092C02DD4FF0020A01E0D4
:105A60004FF0010A4FF0000907E01BF809002E284B
:105A700001D1CDF8009009F101091BF809000028B7
:105A8000F3D10CB94FF0FF3A4FF0000900261DE0AA
:105A90001BF80980B8F1200F02D0B8F12E0F00D109
:105AA00012E0B8F1000F00D117E0B8F1610F04DB8C
:105AB000B8F17A0F01DC28F020084046FFF7EFFC30
:105AC0003146761C785400BF09F1010900988145E0
:105AD00003D2CAF10700B042DAD800BF04B965E0CA
